:100000000C94B6020C94D82C0C94D3020C94D3020A
:100010000C94152E0C94D3020C94D3020C94D3029E
:100020000C94D3020C94D3020C94D3020C94D302FC
:100030000C94D3020C94D3020C94D3020C94D302EC
:100040000C94D3020C94D3020C94D3020C94D302DC
:100050000C94D3020C94D3020C94D3020C94D302CC
:100060000C94D3020C94D302140342004C004900B8
:10007000530053002D0042004F00580004030904B0
:1000800005010905A10185010509190129181500B6
:100090002501750195188102A1000501093009317A
:1000A000093209330934093509360937150026FFA5
:1000B00000350046FF00750895088102C00501253E
:1000C00007463B01750495016514093981426500B5
:1000D000950181010601FF094975019501810225FC
:1000E0000175078103050F0992A1028502099F0985
:1000F000A009A509A6150025013500450175019542
:1001000005810295038103099415002501350045F9
:100110000175019501810209221501252835014546
:1001200028750795018102C00921A10285010922D4
:1001300015012528350145287508950191020925E5
:10014000A102092609270930093109320933093486
:1001500009400941094209430928250315013501D0
:100160004503750895019100C009500954095115BE
:100170000026FF7F350046FF7F66031055FD751092
:100180009503910255006600000952150026FF00F4
:100190003500461027750895019102095315012570
:1001A00008350145087508950191020955A1020518
:1001B000010930093115002501750195029102C030
:1001C000050F095695019102950591030957A10262
:1001D0000B01000A000B02000A0066140055FE1510
:1001E0000026FF00350047A08C000066000075085F
:1001F000950291025500660000C0050F09A766032D
:100200001055FD150026FF7F350046FF7F751095C0
:100210000191026600005500C0050F095AA1028530
:1002200002092215012528350145287508950191F7
:1002300002095B095D150026FF0035004610279571
:10024000029102095C095E66031055FD26FF7F4698
:10025000FF7F7510910245006600005500C0095FE0
:10026000A1028503092215012528350145287508B5
:1002700095019102092315002501350045017504FA
:10028000950191020958A1020B01000A000B02001E
:100290000A00750295029102C01580257F36F0D8BC
:1002A000461027096075089501910236F0D846106E
:1002B000270961096295029102150026FF003500A9
:1002C000461027096309647508950291020965467D
:1002D000102795019102C0096EA10285040922151B
:1002E00001252835014528750895019102097015E9
:1002F0000026FF0035004610277508950191020978
:100300006F1580257F36F0D8461027950191020998
:100310007166140055FE150026FF00350047A08CBD
:1003200000009102097226FF7F46FF7F6603105589
:10033000FD7510950191026600005500C00973A17A
:1003400002850509221501252835014528750895DE
:1003500001910209701601FF26FF0036F0D8461001
:1003600027751095019102C00974A1028506092222
:100370001501252835014528750895019102097553
:1003800009761580257F36F0D84610277508950226
:100390009102C00966A102850805010930093115DD
:1003A00081257F350046FF00750895029102C00542
:1003B0000F0977A102850A09221501252835014573
:1003C000287508950191020978A1020979097A092D
:1003D0007B15012503750895019100C0097C150066
:1003E00026FF00350046FF009102C00990A102855A
:1003F0000B0922252815013501452875089501911D
:1004000002C00996A102850C099709980999099AD1
:10041000099B099C15012506750895019100C009E5
:100420007DA102850D097E150026FF0035004610CE
:1004300027750895019102C009ABA102850F092516
:10044000A102092609270930093109320933093483
:1004500009400941094209430928250315013501CD
:10046000450375089501B100C00501093B1500263B
:10047000FF01350046FF01750A9501B1027506B10D
:1004800001C0050F0989A10285020922252815014D
:100490003501452875089501B102098BA102098C27
:1004A000098D098E25031501350145037508950150
:1004B000B100C009AC150027FFFF0000350047FF61
:1004C000FF000075109501B100C0097FA1028503EE
:1004D0000980751095011500350027FFFF000047C2
:1004E000FFFF0000B102098326FF0046FF007508E8
:1004F0009501B10209A909AA750195021500250106
:1005000035004501B10275069501B103C00901A18D
:1005100001150026FF0075088510950D0900B2022F
:1005200001851195050900B202018515950D090097
:10053000B2020185169600010900B20201851795E5
:10054000300900B20201851295080900B202018546
:1005500013951C0900B20201851895C00900B2026A
:1005600001851495C40900B20201C0C011241FBE48
:10057000CFEFD8E0DEBFCDBF13E0A0E0B1E0E0E810
:10058000FAE602C005900D92A033B107D9F728E032
:10059000A0E3B3E001C01D92AA33B207E1F70E94C5
:1005A000B02E0C943E350C940000CF93C62F2091B2
:1005B000B20324FF07C02091B30338E82327209318
:1005C000B30303C02AE52093B203DC01E4EBF3E0BC
:1005D0009C2F9E0F8D918193892F8E1B1816D4F31B
:1005E0006C2F84EB93E00E94D42CCC5FC093B203B9
:1005F000CF910895CF93DF936091C303635067FD5C
:10060000DFC08091C003CCE0D0E0C81BD109C95342
:10061000DC4F8091BF03803120F4CE010E94CB07D4
:10062000C9C08D3209F0B3C0683009F0C3C083EC93
:100630008093A7038AE5809302011092300388819A
:10064000807621F0CE010E94C40689C09A81109262
:10065000B0038981811107C01092B10320EB33E010
:1006600082E090E078C0853019F49093C4036FC0A5
:10067000863009F055C08B81813011F0823029F429
:10068000CE010E94990620E048C0833081F5911187
:100690000AC08CE790E09093C2038093C10320E4EA
:1006A00084E090E03AC0913051F488E690E0909375
:1006B000C2038093C10320E484E190E02EC0923015
:1006C00051F48EE391E09093C2038093C10320E044
:1006D00082E290E022C09330E9F480E691E09093CA
:1006E000C2038093C10320E08AE090E016C081320B
:1006F00051F483E493E09093C2038093C10320E418
:1007000089E090E00AC0823229F4CE010E94990665
:1007100020E403C020E480E090E0209330031FC079
:10072000883069F0893019F49093C60310C08A307C
:1007300049F08B3061F48BE48093B30308C026EC5E
:1007400033E002C020EB33E081E090E004C020EB16
:1007500033E080E090E03093C2032093C1038F3FE9
:100760002FEF920749F4288127FF02C08E819F81D5
:1007700020E82093300306C02E813F8128173907D7
:1007800008F4C901909301018093000113C0809186
:10079000300387FF0FC0CE010E9438088F3F21F43D
:1007A0008EE18093020106C0882321F0109201019E
:1007B000109200018091C303181614F41092C30321
:1007C0008091020184FF54C0809100019091010149
:1007D0008F3F2FEF920709F44BC0BC018930910580
:1007E00010F068E070E0861B970B909301018093F6
:1007F00000018091A70398E889278093A703C62F5B
:10080000662331F12091C1033091C20380913003FE
:1008100086FF0BC0A8EAB3E0F901862F8A0F9491F6
:100820009D9331968A13FBCF09C0D901E8EAF3E022
:10083000862F8E0F9D9191938E13FCCF8FEF8C0F8F
:1008400090E00196820F931F9093C2038093C1039F
:100850006C2F88EA93E00E94D42CCC5FCC3031F02E
:100860008FEF9FEF9093010180930001C0930201ED
:1008700084E199B1957031F48150D9F71092C40395
:100880001092BE03DF91CF910895E9E6F0E08081F8
:1008900082608083E89A8BE48093B3038AE5809337
:1008A000B20308950F931F93CF93DF9380E290E0FC
:1008B0000E941435813081F083E190E00E9414356C
:1008C000809337038F3FB9F41092370360E083E1E0
:1008D00090E00E942C350FC008EF13E0C1E2D0E099
:1008E000CE010E941435F80181938F012196C933FE
:1008F000D105B1F7E1CF84E190E00E9414358093F7
:10090000F1038F3F39F41092F10360E084E190E04D
:100910000E942C3589E190E00E9414358F3F59F4F4
:1009200084E690E090936C0180936B0164E689E12A
:1009300090E00E942C3586E190E00E94143580936F
:10094000F7038F3F39F41092F70360E086E190E0FF
:100950000E942C3587E190E00E9414358093EE03CD
:100960008F3F39F41092EE0360E087E190E00E943F
:100970002C3588E190E00E94143580936A018F3F06
:1009800039F410926A0160E088E190E00E942C3511
:1009900061E08AE190E00E942C358CE190E00E94B9
:1009A0001435813F48F088E08093120768E08CE1BD
:1009B00090E00E942C3503C0885F809312078DE180
:1009C00090E00E94143580932107813F48F087E032
:1009D0008093120767E08DE190E00E942C3503C000
:1009E000885F809321078EE190E00E941435813F5B
:1009F00048F085E08093DF0365E08EE190E00E949F
:100A00002C3503C0885F8093DF038FE190E00E9464
:100A10001435813F60F086E08093F00366E08FE15B
:100A200090E0DF91CF911F910F910C942C35885F4E
:100A30008093F003DF91CF911F910F91089588E18A
:100A40000FB6F89480936000109260000FBE51982A
:100A500059982FE78CEF9AE0215080409040E1F7C1
:100A600000C00000F894E0E0F8E70994CF93DF932A
:100A700014B817B88FEF85B988B98AB188618AB977
:100A80005C985B9A8091F603811102C00E94FA0281
:100A900087EB9BE00197F1F700C0000086B18F362D
:100AA00041F40E945B1F9093EC038093EB03C0E33F
:100AB0003CC10E9459119093EC038093EB03DC013D
:100AC000ED91FC910995E091EB03F091EC0304802A
:100AD000F581E02D0995C82F811127C1549A5C98A2
:100AE00053985B9A17B88FEF88B987E293E2019722
:100AF000F1F700C000004B9913C086B18F3781F425
:100B000083B18F3369F4209A289800001C9B08C099
:100B10000E945B1F9093EC038093EB03CAE205C134
:100B200096B15C985B9AA0E2AA95F1F780EC87B940
:100B30008FE388B98AB188618AB95B985C9AB0E220
:100B4000BA95F1F786B18B3041F40E945B1F909308
:100B5000EC038093EB03C2E2E8C086B18D3319F455
:100B6000D1E09F3709F0D0E00E94B0179093EC03DA
:100B70008093EB03DC01ED91FC910995E091EB038F
:100B8000F091EC030480F581E02D0995C82F8111C7
:100B9000CCC0DD2341F00E945B1F9093EC03809357
:100BA000EB03C1E0C2C00E9477289093EC038093CE
:100BB000EB03DC01ED91FC910995E091EB03F091E1
:100BC000EC030480F581E02D0995C82F8111ADC09B
:100BD0000E94D8259093EC038093EB03DC01ED9108
:100BE000FC910995E091EB03F091EC030480F58111
:100BF000E02D0995C82F811198C00E943D1990934E
:100C0000EC038093EB03DC01ED91FC910995E091FD
:100C1000EB03F091EC030480F581E02D0995C82FDA
:100C2000811183C00E942F0F9093EC038093EB03FC
:100C3000DC01ED91FC910995E091EB03F091EC035F
:100C40000480F581E02D0995C82F882361F08D324D
:100C500019F0833109F069C00E941E2A9093EC03B9
:100C60008093EB0362C00E94BF2B9093EC038093B0
:100C7000EB03DC01ED91FC910995E091EB03F09120
:100C8000EC030480F581E02D0995C82F81114DC03A
:100C90000E9416209093EC038093EB03DC01ED910E
:100CA000FC910995E091EB03F091EC030480F58150
:100CB000E02D0995C82F811138C00E94A42290937D
:100CC000EC038093EB03DC01ED91FC910995E0913D
:100CD000EB03F091EC030480F581E02D0995C82F1A
:100CE000811123C00E94BC2C9093EC038093EB03F2
:100CF000DC01ED91FC910995E091EB03F091EC039F
:100D00000480F581E02D0995C82F81110EC00E9445
:100D10005B1F9093EC038093EB03DC011496ED9141
:100D2000FC911597DF91CF9109948C2FDF91CF9192
:100D30000895FC012181263021F583818230A9F0BC
:100D4000823259F08130E9F48CE291E09093C20351
:100D50008093C10382E190E0089580E890E0909351
:100D6000C2038093C1030C945E0C81E0809357030F
:100D700083E091E09093C2038093C10389E290E005
:100D8000089580E090E008950F931F93CF93DF9331
:100D9000FC01A895A0E1B4E080E092E0ED019C01A7
:100DA000199221503040E1F7B093C203A093C103E0
:100DB00080818076803209F0E4C082819381923014
:100DC00009F4E2C02181213009F0D1C0833091F4CF
:100DD000933069F5209358032093560390931004A1
:100DE00020931104209312048FEF80931304209317
:100DF00014041AC08230D9F49330C9F420935603F6
:100E0000209147039FEF920F943010F491E001C0BE
:100E100092E080931004209311049093120484E6CE
:100E2000809314048093130485E090E0AFC0A895EC
:100E3000873191F481E08093560300E114E0C0E132
:100E4000D0E0CE010E941435F80181938F012196E4
:100E5000C034D105B1F782C0853189F481E190E0D9
:100E60000E94143580931004E3E1F7E0A1E1B4E0BF
:100E700081918D9327E0EF31F207D1F772C086316F
:100E8000F1F481E190E00E94143580931004809188
:100E9000100690E0AC014F5F5F4F61E0262F30E01D
:100EA0004217530754F0F901E05FFB4FD901A15FEE
:100EB000B94F2C9120836F5FF1CF029667C08831C4
:100EC000C9F481E08093560381E190E00E941435DB
:100ED0008093100401E114E0C0EAD0E0CE010E944A
:100EE0001435F80181938F012196C036F1E0DF07B8
:100EF000A9F73AC0813109F044C08091F30380938F
:100F000010042091EE0348E0249F90011124809169
:100F1000F103C0E18C9FC0011124282B8091E103D3
:100F2000282B8091F703D0E48D9FC0011124282B3A
:100F30008091E003E0E88E9FC0011124282B2093CC
:100F400011048091330380931204809135038093C0
:100F50001304809134038093140466CF80E390E0FF
:100F600015C08DE090E012C081EC90E00FC081E0F0
:100F700090E0293011F080E090E091958195910901
:100F800005C080E090E002C081E090E0DF91CF9169
:100F90001F910F910895FC01A8958081843041F440
:100FA0008181823008F463C0828180936D0108954D
:100FB000813089F4683009F05AC091818091250709
:100FC000981709F454C08481882309F450C0880F0D
:100FD000809346030895823009F449C0853041F476
:100FE0008181813009F043C0828180936E01089530
:100FF0008A30E9F5838160914603623008F4682FF6
:1010000081818130C1F48281E091EB03F091EC03A6
:10101000833031F4109246030284F385E02D19C029
:1010200080916E018F3F19F4613009F46FEF0284F3
:10103000F385E02D1BC08230D0F08281E091EB037C
:10104000F091EC03833041F4109246030084F18563
:10105000E02D63E088EC0AC080916D018F3F19F4A8
:10106000613009F46FEF0084F185E02D0994089553
:10107000DF92EF92FF920F931F93CF93DF93EC01D8
:10108000A89581E080935603809138038111AFC108
:1010900088818F3021F4898180934703A6C18251D2
:1010A000833008F0A2C1A89599819432A9F48CEB01
:1010B000809339039093380384E080933A03249615
:1010C00000EA10E06991C8010E942C350F5F1F4FA4
:1010D000043A1105B9F7B8C19230B9F485E18093AB
:1010E00039039093380384E080933A0388E1E8EF72
:1010F000F3E0DF011D928A95E9F7249689918193A7
:10110000B3E0EC3FFB07D1F79FC1953279F52A8117
:1011100021110FC08C81809322079D81909310062E
:101120009E81909311069F81909312068430D0F097
:101130005CC12F3F19F4209122072550FE01339600
:1011400080E090E030E0205F394F4191D901A80F55
:10115000B91F4C93019685309105B9F78A818F3F6D
:1011600009F043C181E08093ED03C7C1903289F457
:101170008C81885F809312078D81885F809321071F
:101180008E81885F8093DF038F81885F8093F00377
:101190002CC1913009F0B3C08C818F3F09F096C00B
:1011A0008D81813069F56091F10384E190E00E94C6
:1011B0002C356091F70386E190E00E942C35609118
:1011C000EE0387E190E00E942C3560911207685091
:1011D0008CE190E00E942C356091210768508DE1F0
:1011E00090E00E942C356091DF0368508EE190E022
:1011F0000E942C356091F00368508FE190E063C04D
:10120000823009F0F2C01092370360E083E190E091
:101210000E942C351092F10360E084E190E00E947E
:101220002C351092F70360E086E190E00E942C35A7
:101230001092EE0360E087E190E00E942C3510925E
:101240006A0160E088E190E00E942C3584E690E03D
:1012500090936C0180936B0164E689E190E00E94B9
:101260002C3568E08CE190E00E942C3580E1809381
:10127000120767E08DE190E00E942C358FE08093AB
:1012800021076BE08EE190E00E942C3583E1809392
:10129000DF036CE08FE190E00E942C3584E18093C5
:1012A000F003E8EFF3E081E081938F5F8931E1F7AC
:1012B00048E150E061E270E088EF93E00E941C3565
:1012C00061E080E290E00E942C358FC083FF04C073
:1012D00091E09093EE0302C01092EE0384FF04C0ED
:1012E00091E09093F10302C01092F10386FF04C0D5
:1012F00081E08093F70301C11092F70376C08CEF71
:10130000890F823078F58C81882361F0813029F44F
:101310001D8111110BC01FEF09C0823031F41D81F6
:101320000E8105C010E000E002C010E00FEF943025
:1013300051F4E091EB03F091EC030284F385E02D8E
:10134000602F812F09958981853009F04EC0E09189
:10135000EB03F091EC030084F185E02D602F812FE9
:10136000099543C0983061F46C8181E190E00E945E
:101370002C358D818823C9F144E04A95F1F714C0DA
:10138000903191F0903499F46C816093370381E04F
:101390008093EE038D81882341F183E190E00E94E8
:1013A0002C3584E08A95F1F70E941F051EC0903805
:1013B00061F46091250760936A0188E190E00E94E2
:1013C0002C35A4E0AA95F1F710C0933071F46C812C
:1013D000862F90E090936C0180936B0189E190E0FF
:1013E0000E942C35B4E0BA95F1F781E086C0909167
:1013F0003903F62E961708F4F92E823009F07BC0D7
:10140000E0903A03DE2C0F2D10E02D2D2E198D2D9E
:10141000992787FD909530913A03A801430F511DFC
:10142000841795079CF0809138038432B1F1809144
:101430003A038F0D80933A03809139038F1980937B
:101440003903882309F44DC080E057C0332727FDB6
:10145000309548E1FE01E20FF31FD41217C08081DE
:10146000813071F461E080E290E00E942C3548E127
:1014700050E061E270E088EF93E00E941C350BC001
:101480006FEF80E290E00E942C3505C02081FC01C6
:10149000E850FC4F2083D394B8CF809156038F5FE0
:1014A00080935603E0903A03D22EDE180F2D10E001
:1014B0003D2D3E0D8E2D90E020913A03A801420F64
:1014C000511D841795070CF0B2CFFE01E30FF11DFB
:1014D00037FDFA95608180569F4F0E942C35E3942A
:1014E000E7CF80913803843219F481E08093F503CB
:1014F000109238037ACF20E096CFDF91CF911F91E1
:101500000F91FF90EF90DF90089580913603811145
:101510000BC020916B0130916C014AE0429FC001E9
:10152000439F900D112402C088EA91E62091840027
:101530003091850082179307B0F4229A2A982A9A4C
:1015400010928500109284008091360381508E3F66
:1015500018F48EEF8093360381E090913C03911153
:1015600080E080933C03089524E12A95F1F79BB134
:1015700095609BB944E04A95F1F79BB19A7F9BB97E
:1015800092E09A95F1F730E090E0E32FFF27E7FD36
:10159000F095E817F9071CF528E0E75AFC4F589A30
:1015A00046E04A95F1F700C0408140FD05C045E0A6
:1015B0004A95F1F700C005C0589845E04A95F1F703
:1015C00000000000408146954083215041F7589A21
:1015D00023E02A95F1F7000058983F5FD6CF8AB1F3
:1015E00085608AB908958AB18A7F8AB98BB185608E
:1015F0008BB93CE03A95F1F700C089B18570853030
:1016000009F058C14A99FECF4EE04A95F1F788E0BB
:101610006FEF6695489B606890E19A95F1F781506D
:10162000C1F78AB185608AB98BB18A7F8BB9809105
:10163000690390916A03009709F44FC020916803F1
:101640002230C9F463FF04C081E08093EE0302C03E
:101650001092EE0364FF04C081E08093F10302C0A6
:101660001092F10366FF04C081E08093F7032BC062
:101670001092F70328C0243039F4019721F581E155
:1016800090E00E942C351FC0253029F40197D9F431
:101690006093230718C0213041F4019719F4609337
:1016A000700111C060936F010EC0233061F4EFE050
:1016B000F4E0E81BF90B6083E8EFF3E081E081934D
:1016C0008F5F8931E1F78091690390916A030197F7
:1016D00090936A0380936903EBC0109268036623BA
:1016E00009F4EAC0613061F4E4E2F7E0A9E5B3E0AF
:1016F00081918D9337E0E233F307D1F78DE0D6C0C7
:10170000623079F48091240780935903E3E1F7E094
:10171000AAE5B3E081918D9347E0E032F407D1F779
:10172000EDCF6330C9F48BB185608BB984E08A95C5
:10173000F1F78091250780FF02C0589A01C05898A0
:1017400081FF02C05A9A01C05A9894E09A95F1F725
:101750008AB185608AB9B0C0613141F4E091EB0390
:10176000F091EC030284F385E02D13C0623141F463
:10177000E091EB03F091EC030284F385E02D17C0B8
:10178000643161F4E091EB03F091EC030084F185A6
:10179000E02D60916F018091700117C0683151F4A4
:1017A000E091EB03F091EC030084F185E02D60E023
:1017B00080E00BC06A3159F4E091EB03F091EC0347
:1017C0000284F385E02D6AE08FEF099571C06B31DB
:1017D00041F4E091EB03F091EC030084F185E02DFE
:1017E000F2CF6C3151F482E090E090936A038093E1
:1017F000690381E0809368030895603241F481E0D9
:1018000090E090936A038093690382E040C0613264
:1018100009F52091EE0348E0249F90011124809166
:10182000F10340E1849FC0011124282B8091E10342
:10183000282B8091F70330E4839FC0011124282BCB
:101840008091E00340E8849FC0011124282B20935D
:1018500059032BC0623241F487E190E090936A0310
:101860008093690383E013C0633241F481E090E028
:1018700090936A038093690384E009C0643251F451
:1018800081E090E090936A038093690385E0809300
:1018900068030EC06F3F31F46093590381E00E94EA
:1018A000B40A08C081EF8093590381E00E94B40A12
:1018B00081E008958FEF089580E008958CEE94E024
:1018C00008953D98459808950F931F932091F6032E
:1018D000211101C0E898662309F453C0782FFC0158
:1018E00020E030E0C9013E2F371B361790F49C01F1
:1018F000285F3F4F40E850815423DC01AE5CB84F75
:101900005C930196469582179307A9F731969C013F
:10191000E9CF822F222309F434C090912007992324
:1019200009F00000E2E3F7E0CF93DF93EF93FF933A
:101930000191002311F049F416C000003D9A19E00E
:101940000FD03D980197A1F70EC03D9A11E008D045
:101950003D9815E005D000000000019749F703C04D
:101960001A95F1F708950000FF91EF913D9ADF91EC
:10197000CF9111E0F5DF3D980FEF0A9511F0359BFF
:10198000FCCFE2E3F7E0EF93FF939927002703955D
:10199000A1F03599FCCF08C00FE5039572F0359999
:1019A000FCCF939551F001930FE5039532F0359BF1
:1019B000FCCF939511F00193EFCFFF91EF918091C0
:1019C000F603811101C0E89A9923D1F0892F817023
:1019D00090FF17C0A2E3B7E0FD019D015081418156
:1019E00081E0541708F080E08D9332968A2F821B95
:1019F0008917A0F3892F90E001979595879501C0ED
:101A000080E01F910F910895CF93DF931F92CDB780
:101A1000DEB7198261E0CE0101960E94640C882332
:101A2000F1F08831D1F480E090E021E0FC01EE5C3F
:101A3000F84F308131112160873011F0220F01C041
:101A40002F7701968830910589F7222341F02530C0
:101A500041F0283041F482E107C083E005C080E016
:101A600003C083E101C089E00F90DF91CF91089519
:101A70000895CF93DF9300D0CDB7DEB70E94610CFD
:101A80001A82198262E0CE0101960E94640C1092C3
:101A90006B030F900F90DF91CF9108959F92AF92BB
:101AA000BF92CF92DF92EF92FF920F931F93CF934B
:101AB000DF93CDB7DEB760970FB6F894DEBF0FBEE9
:101AC000CDBF0E94610C8091ED03882309F44BC0C7
:101AD00060912207A0E1B6E0CE010996FC012E2F0D
:101AE000281B261718F42D912193F9CF0E94640C1E
:101AF00021E031E0E0E1F6E0DF01A9011D92415073
:101B00005040E1F786958695869561E176E0FB0188
:101B100040E050E000E810E09E2F961B9817F0F48C
:101B2000908120E030E0D901A40FB51FAE5CB84F22
:101B3000AC91AA2341F0D801022E02C0B595A79519
:101B40000A94E2F701C0A0E09A2B2F5F3F4F2830A4
:101B5000310549F79193485F5F4FDECF80931006C0
:101B60001092ED0342C080916B038F3F69F0882390
:101B700021F0815080936B0307C01092700384E0C2
:101B800080937D0110926C030E94040D80936D037D
:101B9000833109F429C1811108C080916F0381113B
:101BA00025C181E08093E10321C110926F038E0172
:101BB000075F1F4F823141F480E3898780917D0167
:101BC0008A8780916C030AC080E4898783E08A87D2
:101BD00081E090917003911101C080E08B8763E0F8
:101BE000C8010E94640C803421F081E08093F203EC
:101BF000FDC086E0E8E2F7E0DF011D928A95E9F793
:101C0000D090280790902907A0902B07B0902C0720
:101C100090912A07C0902D0720E030E040E850E086
:101C2000822FF901EE5BF84F6081662341F0BA0123
:101C3000022E02C0759567950A94E2F701C060E034
:101C4000D62AD901A65BB84F6C91611109C07A01FF
:101C5000082E02C0F594E7940A94E2F7FE2C01C026
:101C6000F12CF928D901AE5AB84F6C91662341F096
:101C7000DA01082E02C0B595A7950A94E2F701C0D3
:101C8000A0E0EA2EEA28D901A65AB84F6C9161115A
:101C900008C0FA01082E02C0F595E7950A94E2F70C
:101CA00001C0E0E0BE2AF901EE59F84F60816623D9
:101CB00041F0BA01082E02C0759567950A94E2F7C3
:101CC00001C060E0692BF901E659F84F9081992332
:101CD00041F0FA0102C0F595E7958A95E2F7CF0148
:101CE00001C080E0C82A2F5F3F4F2830310521F026
:101CF0009F2CAE2C962F94CFD0922807F0922907D4
:101D0000E0922B07B0922C0760932A07C0922D0710
:101D100088E0EFE1F2E0DE01119601900D928A95E4
:101D2000E1F790912507FE01319683E0A82FB0E0FE
:101D3000AE5CB84F2C91222311F02081922B21E030
:101D4000280F283011F422E0280F3196E017F10710
:101D500011F0822FEBCF9093250780913E078823C7
:101D600029F08091300784608093300780913F078D
:101D7000882329F080913007886080933007809114
:101D80004007882329F080913007806280933007D4
:101D900080914107882329F08091300780618093EA
:101DA000300780916D03823119F480E88093280711
:101DB00080912807811118C0E11016C080912F076B
:101DC000811112C0FFEFFF120FC080E880932F0730
:101DD00080932D0780932A0780932C0780932B07ED
:101DE000809329078093280710926E0360960FB6A0
:101DF000F894DEBF0FBECDBFDF91CF911F910F9141
:101E0000FF90EF90DF90CF90BF90AF909F9008959C
:101E100060936B03882349F091E09093700396E000
:101E200090937D0180936C0308951092700384E079
:101E300080937D0110926C0308950C94080F81E04B
:101E400080936F0380936E030E944E0D80916E030A
:101E5000811103C080916D03089580E0089581E7AA
:101E600091E0089508950895089586B11D9B02C0DC
:101E7000806408958F7B0895EF92FF920F931F93D4
:101E8000CF93DF93EC01409A80E58A95F1F70E94A9
:101E9000350FE82E409880E48A95F1F70E94350FBF
:101EA000F82E409A80E58A95F1F7409880E48A956B
:101EB000F1F7409A80E58A95F1F7409880E48A9599
:101EC000F1F70E94350F182F409A80E48A95F1F7B8
:101ED0000E94350F082F409880E58A95F1F70E94FF
:101EE000350F409AE094E882F094F98200950A83D5
:101EF000912F90959C839D8380958E83DF91CF91C8
:101F00001F910F91FF90EF900895409888E28A9575
:101F1000F1F7419A98E29A95F1F786B1419898E2E3
:101F20009A95F1F726B1409A2C7394E0299F90017D
:101F300011248C7386958695822B809508958AB19D
:101F400088618AB95C985B9A84B18F7C84B985B1C9
:101F5000806385B9389A409A87B1817C87B988B106
:101F60008F6388B987EB9BE00197F1F700C0000011
:101F70000895CF93DF93CDB7DEB728970FB6F894C7
:101F8000DEBF0FBECDBF8091F3038B3379F4309960
:101F900005C080912507826080932507319930C163
:101FA000809125078160809325072AC1873009F039
:101FB00050C091E01D9B05C09F5F9E3FD9F781E017
:101FC00004C081E0913009F080E091E01D9B04C0E5
:101FD00036B1913029F403C09F5F9E3FB9F78F5F00
:101FE00091E01D9B04C09F5F9E3FD9F702C09130D6
:101FF00019F4823009F4BFC086B131FD05C02091CB
:10200000250721602093250786958E71082E01FAF9
:1020100087F902FA86F903FA85F905FA83F906FACF
:1020200082F907FA81F9932F96959E71092E01FA8C
:1020300097F902FA96F903FA95F905FA93F906FA6F
:1020400092F907FA91F982958F70892B80932F0767
:10205000D7C0873111F08633B9F50E94850F982FCC
:102060009F709F3079F496E39093F30320E0282744
:102070002F73282784FB23F985FB22F9209325075A
:102080000E94850F2091250790E084FB95F985FB40
:1020900094F986FB90F987FB91F9922B9093250791
:1020A00090E080FB94F981FB93F982FB95F983FB27
:1020B00092F99093300786B1813009F4A1C086B1BE
:1020C000813409F058C09CC0883109F044C0409A5E
:1020D00014B8539A5B9A88B18FEF88B9399887EB17
:1020E0009BE00197F1F700C0000086B180958C73EA
:1020F00090E082FB95F983FB94F984FB93F985FBCF
:1021000092F99093300788E0E7E2F2E0DE01119661
:1021100001900D928A95E1F7399A41985B98FE01FA
:102120003896CE01419A419824E02A95F1F71D99FD
:1021300006C0208130912507232B20932507319756
:10214000E817F90779F7419A419884E08A95F1F701
:102150001D9B56C010C08451823008F051C08AB116
:1021600088618AB95C985B9ACE0101960E943C0F07
:102170009A81913821F481E08093E10341C0898103
:10218000282F220F211D2877022E01FA27F902FAA3
:1021900026F903FA25F905FA23F906FA22F907FACE
:1021A00021F9209330072F8125FF03C024E02093DD
:1021B000270720E081FB21F986FB27F9822F9595DF
:1021C0009172892B809325079091F303953171F4D7
:1021D0009B8120E092FB24F993FB22F994FB23F9E5
:1021E00095FB26F9922F982B909325078D818D389A
:1021F00011F484E103C08D3B19F485E18093F3036E
:1022000028960FB6F894DEBF0FBECDBFDF91CF91F9
:102210000895CF93DF9300D000D01F92CDB7DEB7E3
:1022200081E01D9B04C08F5F8E3FD9F705C08DEF05
:102230001D9934C08150E1F786B1833429F483E0DD
:1022400088B987B987E12DC0CE0101960E943C0F65
:102250008A818D3829F48D818D3811F18D3B01F102
:102260005B9887EB9BE00197F1F700C00000539A61
:10227000399A419814B813B89CE080E0419A41988B
:1022800024E02A95F1F71D9B8F5F9150B9F7835099
:10229000893010F488E105C080E003C087E001C008
:1022A00085E10F900F900F900F900F90DF91CF91DD
:1022B00008958EE791E00895089508950895109285
:1022C000960110927103109274031092750310928C
:1022D00072038AB188618AB95C985B9A3A9A42988B
:1022E000089587B190917803892B87B987B1909130
:1022F0007903892B87B990917703292F20958091B5
:102300007A03822380937A0380917B03892B8093C5
:102310007B0388B190917903892B88B998B180911A
:1023200078038095892388B9089581E080937903A3
:1023300082E08093780380E28093770383B1809377
:10234000760385B180937B0384B180937A033C9AB2
:10235000449A3D9A45980E9471118091F60381112B
:1023600003C0A8950E94FA028DEE92E00197F1F762
:1023700000C000008091F603811103C0A8950E945F
:10238000FA028DEE92E00197F1F700C00000809113
:10239000F603811103C0A8950E94FA028DEE92E027
:1023A0000197F1F700C000008091F603811103C08E
:1023B000A8950E94FA028DEE92E00197F1F700C015
:1023C000000087B185B115B887EB9BE00197F1F765
:1023D00000C0000085B18FEF85B920E180E038B101
:1023E000909179039095932398B998E09A95F1F795
:1023F00098B130917903932B98B998E09A95F1F7B9
:1024000093B130917703932309F08F5F215039F70F
:10241000982F9D7F9C3021F481E08093750307C045
:10242000813029F0823029F481E08093740389E1BE
:102430000895843089F3873009F441C13C98449A67
:102440003D98459A80E28093790380E180937803F8
:1024500088E08093770386B18093760388B1809378
:102460007B0387B180937A030E947111449A90E0B4
:1024700020E038B1809179038095832388B986B1B3
:1024800030917703832319F491310CF02F5F88B1D9
:1024900030917903832B88B99F5F903251F72430B4
:1024A00021F48AE18093F303089598B18091780331
:1024B0008095892388B988B190917803892B88B950
:1024C00080E38A95F1F798B180917803809589230C
:1024D00088B988B1836088B987B18C7F87B987EB69
:1024E0009BE00197F1F700C0000030E220E080E0BF
:1024F00096B140917703942309F48F5F30992F5F51
:1025000048B1909179039095942398B998E19A9560
:10251000F1F798B140917903942B98B998E19A9585
:10252000F1F7315029F796B1983219F4243009F4B3
:10253000C8C021502F3128F481E0809377038EE1C9
:102540000895883109F4BFC0803109F4BEC08130DC
:1025500019F480937303B9C096B1993219F096B10A
:10256000993629F481E0809377038CE108958135D1
:1025700009F4ADC08D3009F4AAC0823109F4A7C0B6
:1025800088E08093790382E08093770386B180931B
:10259000760388B180937B0387B180937A030E948E
:1025A0007111539A5B983D9A459A97B18091770340
:1025B0008095892387B988B190917703892B88B951
:1025C0003C98449A259A2D98209A389A8091F6033F
:1025D000811103C0A8950E94FA028DEE92E0019746
:1025E000F1F700C000008091F603811103C0A895A7
:1025F0000E94FA028DEE92E00197F1F700C0000010
:102600008091F603811103C0A8950E94FA028DEE15
:1026100092E00197F1F700C000008091F60381116C
:1026200003C0A8950E94FA028DEE92E00197F1F79F
:1026300000C0000087B185B115B887EB9BE001971A
:10264000F1F700C0000085B18FEF85B92D9A409A4F
:1026500090E39A95F1F72D98409830E220E090E0D1
:1026600086B140917703842309F49F5F349B2F5FE9
:1026700048B1809179038095842388B9289888E1AE
:102680008A95F1F788B140917903842B88B9289A0B
:1026900088E18A95F1F7315019F788EF890F823078
:1026A00020F481E08093730314C0983191F021509D
:1026B0002F3188F480E18093770385E3089585E2E4
:1026C000089584E2089581E108958BE108958DE1F4
:1026D000089584E3089580E008958091F3038C3198
:1026E000E1F487B1836087B924E02A95F1F7419A34
:1026F00087B18C7F87B900C0309905C080912507CC
:10270000816080932507319B2AC4809125078260D0
:1027100080932507109271030895853219F089314D
:1027200009F0B8C18FEF80937603809175038823F9
:1027300011F198B1809179038095892388B938E0A7
:102740003A95F1F788B190917903892B88B958E0CF
:102750005A95F1F798B1809179038095892388B9CA
:1027600088E08A95F1F788B190917903892B88B92F
:1027700098E09A95F1F780917403882389F098B1D5
:10278000809179038095892388B928E02A95F1F70B
:1027900088B190917903892B88B938E03A95F1F79F
:1027A00028E091E0990F38B18091790380958323D7
:1027B00088B958E05A95F1F783B1309177038323B4
:1027C00009F0916088B130917903832B88B988E052
:1027D0008A95F1F7215031F738E081E0880F48B150
:1027E000209179032095242328B928E02A95F1F730
:1027F00023B140917703242309F0816028B14091EF
:102800007903242B28B958E05A95F1F7315031F764
:102810008F3F21F4209196012111A9C221E020933C
:1028200096012091F303253209F00FC198E028B1F9
:10283000809179038095822388B98CE08A95F1F79D
:1028400083B188B120917903822B88B928E02A9539
:10285000F1F7915061F798E041E0440F28B1809181
:1028600079038095822388B938E03A95F1F783B1EE
:1028700020917703822309F0416088B12091790388
:10288000822B88B958E05A95F1F7915031F798B1F9
:10289000809179038095892388B988E08A95F1F73A
:1028A00088B190917903892B88B998E09A95F1F7CE
:1028B00098B1809179038095892388B928E02A9579
:1028C000F1F788B190917903892B88B938E03A956E
:1028D000F1F798E031E0330F28B1809179038095CA
:1028E000822388B958E05A95F1F783B12091770394
:1028F000822309F0316088B120917903822B88B955
:1029000088E08A95F1F7915031F798E021E0220FA5
:1029100058B1809179038095852388B958E05A95FC
:10292000F1F783B150917703852309F0216088B1D5
:1029300050917903852B88B988E08A95F1F79150F9
:1029400031F798B1809179038095892388B998E00F
:102950009A95F1F788B190917903892B88B958E05D
:102960005A95F1F798B1809179038095892388B9B8
:1029700088E08A95F1F788B190917903892B88B91D
:1029800098E09A95F1F758E091E0990F68B180913D
:1029900079038095862388B988E08A95F1F783B119
:1029A00060917703862309F0916088B16091790383
:1029B000862B88B988E08A95F1F7515031F768E0A5
:1029C00081E0880F78B1509179035095572358B919
:1029D00058E05A95F1F753B170917703572309F0F6
:1029E000816058B170917903572B58B958E05A95C6
:1029F000F1F7615031F7409328073093290721956B
:102A0000220F220F225020932E0720E080FB27F96F
:102A100081FB26F982FB24F983FB25F930E0382776
:102A20003F7C382786FB33F987FB32F93093300738
:102A300050E05927557F592790FB52F992FB50F9E6
:102A4000952F922B9093250787C220912507322F2F
:102A500082FB30F983FB31F93093260730E091FB9C
:102A600034F992FB35F993FB32F994FB33F9309347
:102A7000300790FF03C02160209325079091250720
:102A800098279F7C982786FB97F987FB91F990936D
:102A9000250762C293EE980F923058F08B3149F0BF
:102AA000813139F09CEC980F923018F0843209F0A3
:102AB000CAC198B1809177038095892388B98091A4
:102AC000F3038453823060F4259A2D9A8CE28A9520
:102AD000F1F72D98389A409A9CE29A95F1F7409830
:102AE00088B190917803892B88B920E32A95F1F772
:102AF00098B1809178038095892388B98091F303F8
:102B00008E3111F0843271F488B1836088B987B155
:102B10008C7F87B968E040E020E050E030E090E052
:102B200071E016C08533B1F7449A3C98F3CF8533F2
:102B300091F5289888E18A95F1F7289A88E18A9595
:102B4000F1F78091F3038433C1F1615009F444C07B
:102B5000990F220F440F330F8091F303843311F048
:102B60008D3129F488B1E09177038E2B88B986B135
:102B7000E09177038E2311F4916031608091F3032B
:102B80008432A9F686B181708727282B86B1869575
:102B900081708727482BE8B18091790380958E2337
:102BA00088B988E18A95F1F788B1E09179038E2B95
:102BB00088B982E18A95F1F7C4CF58B18091770343
:102BC0008095852388B986B150917703852351E09C
:102BD00009F0BBCF50E0B9CF8091F303843249F5BF
:102BE000211103C081E08093E10390E040FB96F95E
:102BF00043FB95F945FB94F946FB90F947FB91F9A6
:102C000080E024FB87F926FB82F927FB83F9892BD7
:102C10008093260790E025FB93F930E041FB32F9E1
:102C200042FB31F944FB30F9432F492B40932707EE
:102C300008959F3F31F48B3109F499C0813109F433
:102C400096C0511194C08E3111F0853329F590E86A
:102C500090932907909328079091720394361CF45F
:102C60009F5F9093720390917203943619F433230B
:102C700009F47DC0853321F4399858E25A95F1F76B
:102C8000319B03C01092250703C081E08093250784
:102C9000309530932F07089520E090FB25F991FBA4
:102CA00024F992FB23F993FB22F92093300720911A
:102CB000260730E022FB35F923FB34F924FB33F9F6
:102CC00025FB32F93093260720E094FB25F995FB8C
:102CD00024F996FB20F997FB21F9209325078131F0
:102CE00009F43DC120917303843319F4222309F4BC
:102CF00036C1211102C068E001C068E130E040E067
:102D000020E080E0383014F4880F07C058EF530FEC
:102D1000583010F4220F01C0440F56B17091770360
:102D2000572359F4383014F4816007C058EF530F1B
:102D3000583010F4216001C0416078B1509179039E
:102D40005095572358B958E15A95F1F758B17091F9
:102D50007903572B58B958E15A95F1F73F5F361769
:102D60008CF23091F303811106C03D3121F481E0F2
:102D70008093E10308953D3111F520E094FB25F99E
:102D800095FB24F996FB22F997FB23F9922F20E07B
:102D900082FB21F983FB20F984FB27F985FB26F9C7
:102DA000292B209325079091260730E086FB30F9E8
:102DB00087FB31F9832F892B80932607CDC03B31C8
:102DC000B1F450E094FB55F995FB54F996FB52F998
:102DD00097FB50F9952F50E084FB57F985FB56F986
:102DE00086FB53F987FB51F9592B50932507909196
:102DF0007303992309F4B0C0343311F0822F242FC8
:102E0000880F811D082E01FA87F902FA86F903FA64
:102E100085F905FA83F906FA82F907FA81F98093B0
:102E20002607220F211D022E01FA26F902FA27F9A0
:102E300003FA25F905FA23F906FA22F907FA21F926
:102E40002093270789C08A3109F086C088B1909104
:102E50007803892B88B928E090912507990F9093E2
:102E6000250738B1809179038095832388B986B18D
:102E700030917703832319F491609093250788B1EB
:102E800090917903892B88B9215031F780912507DA
:102E9000880F811D880F811D082E02FA85F903FA1B
:102EA00084F904FA83F905FA82F98093250782E010
:102EB00090E021E030E058B14091790340954523FE
:102EC00048B946B150917703452359F460913007D2
:102ED000A901082E01C0440F0A94EAF7642B6093FD
:102EE000300748B150917903452B48B90196863097
:102EF000910509F78091300790E082FB92F983FBFE
:102F000095F984FB93F985FB94F99093300780E25F
:102F100098B120917903922798B98150C9F798B157
:102F2000809179038095892388B9809196018823BF
:102F300041F086B190917703892319F081E0809365
:102F4000E10388B190917903892B88B998B1809178
:102F500078038095892388B981E08093960108954C
:102F60008AE891E0089508950895089583EC87B95B
:102F70008FE388B9089518B888B1836088B98CE167
:102F80008A95F1F796B141988CE18A95F1F786B16F
:102F900086958695883061F096959695933011F4D4
:102FA00083E008958C30E1F38330D1F380E008951D
:102FB00088E00895CF938091F3038A33C1F486B1FA
:102FC000809583FF05C09091250791609093250718
:102FD00081FF05C09091250792609093250780FF9F
:102FE0004AC18091250780628093250744C188B13A
:102FF000836088B93CE13A95F1F786B1869586956C
:103000008695A6B141989CE19A95F1F7873021F415
:1030100081E08093E1032FC1813009F03EC0A69585
:10302000A695A827A17086B1809530E082FB35F97E
:1030300083FB34F984FB33F985FB32F93093300795
:1030400088B193E0892788B98CE18A95F1F786B138
:10305000809590E082FB95F983FB90F984FB97F9CA
:1030600085FB91F988B18C7F88B93CE13A95F1F7FD
:10307000B6B1B09580E0B3FB82F9B4FB83F9B5FB40
:1030800086F9B82FB92B329BA26088B18C7F88B9A2
:1030900080E820E840E860E8E2C088B18C7388B935
:1030A0009CE19A95F1F738E23A95F1F7409A8CE174
:1030B0008A95F1F7C6B190E0C2FB93F9C3FB92F990
:1030C000C4FB91F9C5FB90F9C92FCC0FF0E0E0E00B
:1030D00080E820E840E860E8A0E0B0E0FC170CF0F1
:1030E000B8C034E23A95F1F7409B04C098B19C73A4
:1030F00098B901C0409A94E29A95F1F7F1110EC087
:1031000096B1909530E092FB35F993FB34F994FB3E
:1031100033F995FB32F93093300799C0F13061F4FF
:1031200096B1909530E092FB35F993FB30F994FB22
:1031300037F995FB31F90DC0F23069F4329BA2608A
:1031400096B1909530E093FB32F994FB33F995FBFF
:1031500036F9B32B7CC0F33031F4329BA1609CE094
:103160009A95F1F774C0F43009F454C0F530C1F405
:1031700066B16695669530E1639FB00111246E2BB0
:10318000660F611D062E01FA67F902FA66F903FA65
:1031900065F905FA63F906FA62F907FA61F957C0A9
:1031A000F630C1F1F730C1F446B14695469590E14D
:1031B000499FA00111244E2B440F411D042E01FAFA
:1031C00047F902FA46F903FA45F905FA43F906FA0E
:1031D00042F907FA41F93BC0F830E1F0F930C1F4A7
:1031E00026B12695269590E1299F900111242E2B3A
:1031F000220F211D022E01FA27F902FA26F903FAFD
:1032000025F905FA23F906FA22F907FA21F91FC070
:10321000FA3021F4E6B1E695E69519C0FB30B9F431
:1032200086B18695869530E1839FC00111248E2B4F
:10323000880F811D082E01FA87F902FA86F903FA30
:1032400085F905FA83F906FA82F907FA81F9FF5F31
:1032500045CF98B1936098B99CE19A95F1F7609346
:1032600028074093290780932A0720932D07B093BE
:103270002507A0932607CF91089587E991E0089547
:1032800008950895089581E080937C0083E88093F9
:103290007A0017B88FEF88B914B885B90895DF920E
:1032A000EF92FF920F931F93CF93DF93D82EFB01E2
:1032B000D701E90198818095982398839C91982360
:1032C0009C93DA019C9191609C9390819E7F908366
:1032D000CFE6D7E12197F1F700C00000908191601F
:1032E000908380E0F80190819D2119F48F5F8E3FDB
:1032F000C9F7DF91CF911F910F91FF90EF90DF9071
:103300000895EF92FF920F931F93CF938AB1886134
:103310008AB95C985B9A83B18E3309F48BC083B110
:103320008B3309F489C025982D9A5B9887EB9BE035
:103330000197F1F700C0000083B18F3121F486B10D
:103340008F3709F47BC053982598389A409887EBBB
:103350009BE00197F1F700C000004B9902C01D9B54
:1033600063C017B88FEF88B914B885B924E2E22E8C
:10337000F12C03E210E025E230E047E250E068E2A1
:1033800070E080E20E944F19C82F3AE2E32EF12C40
:1033900009E210E02BE230E047E250E068E270E042
:1033A00088E00E944F19C350CA3F18F483508A3FE7
:1033B000E8F1209A289887E293E20197F1F700C09C
:1033C00000001C9B35C094E2E92EF12C03E210E0D2
:1033D00025E230E044E250E065E270E088E00E94DF
:1033E0004F1990E00B978F3E910510F486E027C0AF
:1033F00084E2E82EF12C03E210E025E230E044E222
:1034000050E065E270E088E00E944F1990E00B9771
:103410008F3E910558F3549A5C98389A409A539885
:103420001092F30380E00BC08BE209C089E207C071
:1034300081E305C089E303C088E301C084E0CF9144
:103440001F910F91FF90EF900895EF92FF920F93CD
:103450001F9317B88FEF88B914B885B98091F3031B
:10346000811105C0549A5C98389A409A539880917B
:10347000F303877F813329F48AB188618AB95C9824
:103480005B9A87EB9BE00197F1F700C0000096B1D3
:1034900023B190958091F3038A32E1F5549A5C98B8
:1034A00053985B9A91FF05C08091300784608093A8
:1034B000300794FF05C08091300788608093300703
:1034C00093FF05C08091300780618093300792FFA1
:1034D00005C0809130078062809330078091250776
:1034E0004B9B02C08E7F01C0816080932507E4E280
:1034F000EE2EF12C03E210E025E230E047E250E04E
:1035000068E270E080E20E944F19880F880F98EC03
:10351000981BBAC48C32B9F58AB1877E8AB98BB14F
:1035200088618BB93C9A449887EB9BE00197F1F74F
:1035300000C0000080E880932907809328074B99FA
:1035400005C080913007846080933007329905C0B0
:1035500080912507816080932507309905C080916F
:103560003007806180933007319905C08091300722
:103570008062809330071D9999C4809130078860DC
:103580008093300793C48B3209F086C0389A409AF2
:1035900087B1837C87B988B1837C88B98AB1877EFB
:1035A0008AB93D9A87EB9BE00197F1F700C00000D4
:1035B0004B9905C0809126078160809326071D994D
:1035C00005C080912607826080932607319905C047
:1035D000809126078460809326073D9887E592E0D6
:1035E0000197F1F700C000003C9A87EB9BE0019740
:1035F000F1F700C000004B9905C080912607886054
:10360000809326071D9905C08091260780618093CD
:103610002607319905C0809126078062809326078E
:103620003C983B9A87EB9BE00197F1F700C00000C4
:103630004B9905C0809126078064809326071D99C9
:1036400005C080912607806880932607319905C0C0
:10365000809127078160809327073B983A9A8FE6ED
:1036600097E10197F1F700C000004B9905C08091E8
:1036700027078260809327071D9905C0809127073F
:10368000846080932707319905C08091270788605F
:10369000809327073A980AC4863009F0FDC03E9807
:1036A000259A2D9A3D9A4598209A289A2B98239AE4
:1036B0008FE697E10197F1F700C00000239880E0C2
:1036C0001B9903C08F5F8E3FD9F790E0880F991F39
:1036D0008F3F910519F010F08FEF90E0809329074C
:1036E00046983E9A8FE697E10197F1F700C00000F7
:1036F0003E9880E0369903C08F5F8E3FD9F790E007
:10370000880F991F8F3F910519F010F08FEF90E00F
:10371000982F80932807369909C0809129078F3FF9
:1037200029F49F3F19F481E08093E1030000000039
:10373000000000000000000017B814B88FEF85B932
:1037400088B98AB1877E8AB98BB188618BB93B9A77
:1037500043983B98000000000000000000000000BB
:10376000339B05C080912507816080932507399A96
:10377000419839980000000000000000000000009F
:10378000319B05C0809125078260809325073C9A74
:10379000449894E19A95F1F7199905C0809126070C
:1037A0008260809326071A9905C080912607816060
:1037B000809326071C9905C080912507806180931E
:1037C00025074C9905C080912607846080932607C1
:1037D0003C98449A3A9A429824E12A95F1F719992B
:1037E00005C0809126078061809326071A9905C03D
:1037F000809126078860809326071C9905C08091D8
:1038000025078062809325074C9905C08091260783
:103810008062809326073A98429A389A409884E1C9
:103820008A95F1F7199905C08091260780688093E1
:1038300026071A9905C08091260780648093260781
:103840001C9905C0809125078460809325074C99B9
:1038500005C0809127078160809327073898409A98
:10386000539A5B9894E19A95F1F7199905C0809164
:1038700027078260809327071A9905C08091270740
:103880008860809327074C9905C080912707846042
:103890008093270753987FC24091300730E092FB16
:1038A00035F993FB34F994FB33F995FB32F9342B5A
:1038B00030933007843009F5549A5C98389A409ACE
:1038C0005398539A5B9828E22A95F1F726B12095F0
:1038D0005B9A88E28A95F1F796B19095892F8227B5
:1038E00030912507832B922396959170892B809395
:1038F00025071D9BDBC2816018C2803309F0BDC063
:1039000017B89FEF98B98AB1877E8AB98BB1886161
:103910008BB984B184B985B195B988E087B987EF4F
:1039200088B998E29A95F1F7309905C080913007EF
:10393000806280933007319905C0809130078061A3
:10394000809330074B9905C0809130078860809341
:10395000300780E187B98FEE88B928E22A95F1F720
:10396000339905C08091300784608093300780E1EF
:1039700087B98FEE88B988E28A95F1F7359905C045
:10398000809125078160809325074C9905C080911F
:10399000250782608093250782E087B98DEF88B97B
:1039A00098E29A95F1F7359905C0809127078460D0
:1039B000809327074C9905C08091260780688093E3
:1039C0002607329905C080912607806180932607DB
:1039D0001D9905C08091260782608093260781E0AB
:1039E00087B98EEF88B928E22A95F1F7359905C095
:1039F000809127078860809327074C9905C08091A4
:103A00002707816080932707329905C08091260798
:103A10008062809326071D9905C0809126078460E7
:103A20008093260717B88FEF88B9539A5B9888E27E
:103A30008A95F1F7359905C08091270782608093B8
:103A400027074C9905C0809126078064809326073C
:103A5000329905C0809126078860809326071D99BA
:103A600005C0809126078160809326078AB1877EF2
:103A70008AB98BB188618BB919C2813019F0823251
:103A800009F0A8C08AB188618AB9319905C08091CE
:103A9000250781608093250780EC87B98FE388B97B
:103AA0005B985C9A90E29A95F1F7319905C0809104
:103AB000250782608093250756B15695569521E0DB
:103AC00030E0052E02C0220F331F0A94E2F740E0D7
:103AD00080E090E0541302C0822B932B4F5F4F3055
:103AE000C9F720912507382F80E032FB82F934FB9B
:103AF00083F9822B809325078091260720E031FBF4
:103B000023F936FB22F937FB25F9282B892F90E082
:103B100080FB97F981FB94F984FB96F985FB91F979
:103B200086FB90F9292B209326079091270720E008
:103B300082FB21F983FB20F9822F892B90E033FB54
:103B400092F935FB93F9892B809327075C985B9A50
:103B50008091F303813009F4A9C13898409A2598DF
:103B60002D9A24E02A95F1F790917D0390937C03A0
:103B700086B18095817080937D031D9902C022E0FB
:103B800001C020E0822B80937D03981709F48EC139
:103B9000933079F4813021F480912A07815F06C047
:103BA000823009F083C180912A078A5080932A07C6
:103BB0007DC1913031F4823079F3833009F076C1E0
:103BC000F2CF923009F072C1833031F3813009F0C5
:103BD0006DC1E9CF91FF05C0309125073160309369
:103BE00025072095813351F425FF05C080912507D5
:103BF00084608093250790FFD0C010C0811114C04D
:103C00003898409A8AB188618AB95C985B9A88E250
:103C10008A95F1F7309B02C025FFBFC08091250730
:103C2000826080932507B9C025FF05C03091250724
:103C300032603093250790FF05C09091250794606E
:103C4000909325078853823008F0A7C088B18FEF82
:103C500088B985B91092250710922607309903C0BC
:103C600084E080932507319905C080912507816004
:103C7000809325071C9905C0809125078860809353
:103C800025071D9905C0809125078260809325072F
:103C90008091F303883309F04BC0109225073199C6
:103CA00003C081E0809326071D9905C080912607F7
:103CB000826080932607309903C084E080932507B3
:103CC000369905C080912507826080932507199950
:103CD00005C080912507806180932507189905C04C
:103CE000809125078064809325071A9905C08091EB
:103CF00025078062809325071C9905C080912507C0
:103D00008160809325078AB1877E8AB98BB18861EB
:103D10008BB94B9905C08091250788608093250752
:103D20004C99C4C080912507806880932507BEC048
:103D300080912507982F81FF02C0946001C09B7F6E
:103D4000909325079091250782FF02C0926001C0E1
:103D50009D7F90932507369905C080912507806443
:103D600080932507199905C0809125078068809365
:103D700025071A9905C08091250780618093250742
:103D80001B9905C0809125078062809325078AB121
:103D900088618AB95C985B9A89C020FF05C08091D0
:103DA000250788608093250721FF05C0809125079E
:103DB00080648093250722FF05C0809125078061DC
:103DC0008093250723FF05C080912507806280939B
:103DD00025078091F303813309F459C024FF09C0FA
:103DE0008091250780688093250703C014B88FEF62
:103DF00085B98091F303893209F058C054E2E52E69
:103E0000F12C03E210E025E230E047E250E068E206
:103E100070E080E20E944F19809590917F0398177F
:103E200018F4282F291B02C0292F281B833048F0A3
:103E300030E0233031052CF080932E0780937F03F0
:103E400002C090932E074AE2E42EF12C09E210E022
:103E50002BE230E047E250E068E270E088E00E9448
:103E60004F19809590917E03981718F4282F291BDD
:103E700002C0292F281B30E0233031052CF080931D
:103E80002F0780937E0312C090932F070FC0189BBB
:103E90000DC0209A289887EB9BE00197F1F700C0AE
:103EA00000001C9BA3CF81E08093E1031F910F9141
:103EB000FF90EF90089583EA91E0089508950895A2
:103EC000089517B88FE388B914B88FEF85B90895AE
:103ED00087B1836087B918B884E08A95F1F787B114
:103EE0008C7F87B984E08A95F1F786B1837083303F
:103EF00011F48BE0089580E00895E6E3F8E080E0B7
:103F000090E040E250E09A01082E02C035952795D6
:103F10000A94E2F768B1A22FA0956A2368B967B145
:103F2000622B67B964E06A95F1F776B173707083BC
:103F300063B168736695672B6083189B02C06062EB
:103F4000608338B1322B38B927B12A2327B90196BB
:103F5000319684309105B9F630913608832F8370FD
:103F600019F481E08093E103309590E030FB94F9FF
:103F700040913708842F80958170982B8091380864
:103F8000809520E080FB21F9922B20913908522F57
:103F9000509560E050FB67F951FB65F9962B9093C3
:103FA000250750E033FB55F934FB52F9409590E07A
:103FB00042FB97F943FB94F944FB91F9952B50E0B0
:103FC00082FB56F983FB53F984FB50F9952B9093B0
:103FD000260790E032FB90F950E085FB51F9852FE0
:103FE000892B60E035FB63F9862B90E045FB92F965
:103FF000892B8093270724FD04C0809130078062BD
:1040000005C023FD05C08091300780618093300793
:1040100022FD04C080913007886005C025FD05C0E1
:104020008091300784608093300708958FEA91E093
:10403000089508950895089588B1806388B9089512
:104040008091BC0087FFFCCF8091B900887F0895E4
:104050009F92AF92BF92CF92DF92EF92FF920F9317
:104060001F93CF93DF93B82E6B01942EA52E790169
:104070006115710561F42115310509F477C084EAF1
:104080008093BC000E942020803189F532C084EAF0
:104090008093BC000E942020883009F06AC08B2DDC
:1040A000880F8093BB0084E88093BC000E9420208E
:1040B000883109F047C0C92DDA2DCC0EDD1E24E869
:1040C000A22ECC15DD0559F089918093BB00A092FA
:1040D000BC000E9420208832A1F323E038C0E11404
:1040E000F10469F684E98093BC0080E043C0883025
:1040F00059F58B2D880F81608093BB0084E88093F5
:10410000BC000E942020803409F5E701219784E853
:10411000F82E94ECE92ECF3FFFEFDF0719F320973D
:1041200019F0E092BC0002C0F092BC000E94202076
:104130002197877F8035B1F68091BB00F80181938C
:104140008F01E9CF22E003C024E001C025E090E028
:10415000803A31F0883F81F0883321F484E803C04D
:1041600084EA01C084E98093BC0006C08FEF9FEF12
:1041700004C081E090E001C0822FDF91CF911F91B8
:104180000F91FF90EF90DF90CF90BF90AF909F90F6
:104190000895AF92BF92CF92DF92EF920F931F9349
:1041A000CF93DF931F92CDB7DEB789835B016A019E
:1041B000E12C00E010E020E030E0AE014F5F5F4F07
:1041C00061E070E082E50E942820811117C08FEA2B
:1041D00094E00197F1F700C000008501960140E0EE
:1041E00050E060E070E082E50E942820811106C066
:1041F000EFEAF4E03197F1F700C000000F90DF9193
:10420000CF911F910F91EF90DF90CF90BF90AF9023
:104210000895EF920F931F93CF93DF93CDB7DEB73F
:1042200060970FB6F894DEBF0FBECDBF84E38093D6
:10423000B8008091B9008C7F8093B9001091810300
:1042400011113FC080EF898385E58A83E12C00E06E
:1042500010E020E030E0AE014F5F5F4F62E070E0C1
:1042600082E50E942820EFEAF4E03197F1F700C0E0
:104270000000811137C18BEF89831A8220E030E082
:10428000AE014F5F5F4F62E070E082E50E94282040
:10429000EFEAF4E03197F1F700C00000811122C18C
:1042A00042E050E0BE016F5F7F4F8EEF0E94C92059
:1042B000811118C18A818093C70181E080938103B5
:1042C00011C1113009F0EEC046E050E0BE016F5F51
:1042D0007F4F80E00E94C920882361F08091800395
:1042E000811102C01093E10380EF8093C701109207
:1042F0008103F8C0109280038091C701853009F4D2
:10430000F1C030F4813009F44CC0833039F449C035
:10431000813109F446C0803F09F4E4C0E9817A8123
:104320007095FE818B8124E0829FC00111248A5FF9
:1043300091092F2F2C7030E03595279535952795CD
:10434000822B932B96958795682F4C8184E0489F0C
:10435000A0011124CA018A5F91092F2F207330E038
:10436000A4E035952795AA95E1F7822B932B969596
:104370008795282F4D8194E0499FA0011124CA01FF
:104380008A5F91093F2F3295369536953370832B8E
:10439000969587959F2F90959170F1FD8CC09260B6
:1043A0008AC06981E62FEE0FEE0F9A81F4E09F9F9D
:1043B00090011124722F70958B81907C9295969527
:1043C0009770607C669566956695692B982F991F06
:1043D0009927991F692B660F660F660F282F220FEA
:1043E000220F220F2095AC813D81F32FF09590E0B4
:1043F000F1FB97F9F2FB95F9F4FB94F9F5FB96F9CB
:10440000F92F5E81452F409590E043FB93F944FBE3
:1044100091F945FB92F946FB90F99F2BF0E042FBA6
:10442000F1F947FBF0F94F2F33FD05C0F091270755
:10443000F460F093270750FD05C0F0913007F46059
:10444000F093300737FD05C0F0913007F062F0932C
:10445000300751FD05C0509130075061509330072F
:1044600036FD05C030913007386030933007E111D8
:1044700006C07F3F21F420E860E870E8E0E8309172
:10448000E00331111BC03A2F330F330F330F807607
:1044900086958695A295A695A7708A2B880F880F7A
:1044A000880F0EC080E030E02FEF6FEF40E090E02B
:1044B00070E8E0E805C030E040E002C080E030E0B5
:1044C0009093250740932607E093280770932907C8
:1044D00060932B0720932C0780932A0730932D0796
:1044E0001092BC0060960FB6F894DEBF0FBECDBF31
:1044F000DF91CF911F910F91EF90089588B18C7F3C
:1045000088B987B1836087B986B18033D8F081E0FC
:10451000809380030E9409211092BC008091C70102
:10452000803F81F0882341F0813041F0833041F0B9
:10453000813141F487E308958DE008958FE1089576
:1045400080E2089580E008958BEB91E0089508954E
:104550001092DD038FE284B98FEF85B98FE78CBDB0
:104560001DBC80911207811103C08DE0809312075A
:1045700080912107811103C08EE0809321078091F3
:10458000DF03811103C083E18093DF038091F00397
:10459000811103C084E18093F0030895843608F408
:1045A00084E680939A036093980308958FEF809335
:1045B0009B036093990308958EBD0DB407FEFDCF54
:1045C0008091F603811102C00E94FA028EB5EBE2DF
:1045D000F1E03197F1F700C000000895CF93DF9329
:1045E000C3E083E00E94DC2229988BE291E00197EE
:1045F000F1F700C0000081E00E94DC2282E40E940A
:10460000DC22D82F80E00E94DC2280E00E94DC22A5
:1046100080E00E94DC22299A8BE291E00197F1F779
:1046200000C000008FEF8D0F8E3F48F481E00E94A4
:10463000DC2281E0809382038093DD0308C087EB56
:104640009BE00197F1F700C00000C15051F69CB506
:104650009F7B9CBD8091DD03882311F08D2F01C0CD
:1046600080E0DF91CF910895CF9329988BE291E07C
:104670000197F1F700C0000081E00E94DC2285E490
:104680000E94DC2280E00E94DC228AE50E94DC227B
:10469000C5E08AE50E94DC22C150D9F7299A8BE255
:1046A00091E00197F1F700C00000CF910895CF93FA
:1046B000C82F29988BE291E00197F1F700C0000024
:1046C00081E00E94DC2283E40E94DC2280E00E94E0
:1046D000DC228C2F0E94DC2280E00E94DC22CC2392
:1046E00049F0299A8BE291E00197F1F700C00000B0
:1046F000CF9108958AE50E94DC228AE50E94DC229F
:104700008AE50E94DC228AE50E94DC22EACFFF9241
:104710000F931F93CF93DF93CDB7DEB7DA950FB624
:10472000F894DEBF0FBECDBF2B9A239A8CB5806460
:104730008CBD8BE291E00197F1F700C00000809101
:10474000ED032998882309F440C0EBE2F1E03197AA
:10475000F1F700C00000809122078983F12C80913D
:104760002207F81688F40F2D10E0F801E05FF94FEA
:1047700080810E94DC22E2E0F0E0EC0FFD1FE00F00
:10478000F11F8083F394EBCF10E08091220718177C
:10479000A8F4812F90E0FC01E05FF94FA1E0B0E0C8
:1047A000AC0FBD1FA80FB91F8C9180838091F603B9
:1047B000811102C00E94FA021F5FE7CF1092ED0341
:1047C00081E08093F203299AE7C18BE291E001979F
:1047D000F1F700C0000080919B03882381F0809155
:1047E00099039FEF980F9E3F18F49093990309C087
:1047F0008F3F39F01092990310929B0302C01092E0
:10480000990380919A03882381F0809198039FEF08
:10481000980F9E3F18F49093980309C08F3F39F08A
:104820001092980310929A0302C01092980381E0AC
:104830000E94DC2282E40E94DC228093840380E0D8
:104840000E94DC22182F80919B030E94DC2280931F
:10485000860380919A030E94DC22809387038091D3
:104860008403833E19F48FE780938403809184034B
:10487000833219F483E380938403112381F01A3582
:1048800071F0299AEBE2F1E03197F1F700C00000F6
:104890001F3F09F47DC181E08093F20375C18091CF
:1048A00084039091F303891741F091E0813419F06A
:1048B0009093820302C09093E0038093F3038134CA
:1048C00031F481E080938903809388032CC0893779
:1048D00069F408E813E080E00E94DC22F80181938B
:1048E0008F01F3E008391F07B1F71DC080E00E9477
:1048F000DC228093880380E00E94DC22809389037D
:1049000080E00E94DC2280938A038091F303833548
:1049100029F480E00E94DC22809503C080E00E94A0
:10492000DC2280938B03299A80918203882309F4E7
:10493000B0C08CEF92E00197F1F700C00000109238
:1049400082038091F303813409F45BC081E00E940B
:1049500057232998EBE2F1E03197F1F700C000000E
:1049600081E00E94DC228DE40E94DC2280E00E9433
:10497000DC2280E00E94DC2281E00E94DC228FEFBA
:104980000E94DC228FEF0E94DC228FEF0E94DC224B
:104990008FEF0E94DC22299A8BE291E00197F1F7D8
:1049A00000C000002998EBE2F1E03197F1F700C078
:1049B000000081E00E94DC228FE40E94DC2280E083
:1049C0000E94DC228FEF0E94DC228FEF0E94DC220B
:1049D00083E00E94DC2280E00E94DC2280E00E94D2
:1049E000DC2280E00E94DC22299A8BE291E0019790
:1049F000F1F700C000000E94342380E00E9457239A
:104A000048C081E00E9457230E9434232998EBE29A
:104A1000F1E03197F1F700C0000081E00E94DC2254
:104A200084E40E94DC2280E00E94DC2281E00E947B
:104A3000DC2280E00E94DC2280E00E94DC2280E018
:104A40000E94DC2280E00E94DC2280E00E94DC22C6
:104A5000299A8BE291E00197F1F700C0000080E015
:104A60000E9457232998EBE2F1E03197F1F700C05B
:104A7000000081E00E94DC2282E40E94DC22299A6C
:104A8000EBE2F1E03197F1F700C00000813409F06A
:104A90005DCF909187039095392F329580E08327E1
:104AA0008D73832730FB83F932FB80F933FB82F966
:104AB000382F80918603809520E080FB24F983FBCA
:104AC00025F9232B20932507937020E081FB26F9FD
:104AD00082FB27F9292B2093260790913007E0E0ED
:104AE00084FBE2F985FBE5F986FBE3F987FBE4F952
:104AF0008E2F892B80933007209188033091890372
:104B0000832F90E0820F911D0297F1F120932B07E4
:104B100030932C0780918A038093280780918B0320
:104B200080932907ECE8F3E0A3E1B7E081918D934E
:104B300023E0E839F207D1F7E0911207E53131F0CF
:104B4000F0E0ED57FC4F808180932E07E091210724
:104B5000E53131F0F0E0ED57FC4F808180932F0775
:104B6000E091DF03E53131F0F0E0ED57FC4F80815B
:104B700080932A07E091F003E53131F0F0E0ED5742
:104B8000FC4F808180932D078CB58F7B8CBD04C03A
:104B900081E08093E103F8CFD3950FB6F894DEBFA0
:104BA0000FBECDBFDF91CF911F910F91FF90089560
:104BB00088EC91E0089528E030E040E89FE26FE063
:104BC0007FE3592F5095E42FE82398B9EE2319F08D
:104BD00078B958B901C068B9952F46952150310967
:104BE0002115310571F70895CF92DF92EF92FF9270
:104BF0000F931F93CF93DF931F92CDB7DEB78C0136
:104C0000F12CE12CF61684F46801CF0CD11CF7FCD2
:104C1000DA94F601808169830E94DB25F6018081A8
:104C2000E826F3946981EECF8E2D0F90DF91CF911E
:104C30001F910F91FF90EF90DF90CF9008958FE339
:104C400087B988B98FE188B988E020E198B19227C7
:104C500098B98150D9F78FE388B908958FE387B960
:104C600088B98FE288B984E020E298B1922798B998
:104C70008150D9F78FE388B908950E941F2668E014
:104C800088ED91E00E94F4250E94DB250C942E26ED
:104C900080919E03882311F080E1089580E00895BB
:104CA00060939F03089560939F0308951F93CF938C
:104CB000DF93182FC42F4F3F19F0411101C0C1E0FD
:104CC000D62FD295D695D77009F4D1E0D295D07F62
:104CD000D068CF3F09F4C1E00E941F2682E00E9405
:104CE000DB2580E00E94DB25812F0E94DB258EE002
:104CF0000E94DB2580E00E94DB2581E00E94DB250D
:104D000080E00E94DB2580E00E94DB258C2F0E9442
:104D1000DB2582E30E94DB258D2F0E94DB2580E1CD
:104D20000E94DB258FE281278D278C270E94DB25BF
:104D30000E942E2683E893E00197F1F700C000005F
:104D4000DF91CF911F9108951092E50380E388B918
:104D500010929E0381E080939D0310929C030E9419
:104D60001F2664E084ED91E00E94F4250E94DB257B
:104D70000E942E2687EB9BE00197F1F700C0000010
:104D80008FEF87B90E943D268091F603811102C002
:104D9000E89801C078948FEC87B980E388B982E005
:104DA0008093680080E180936C008EEC90E0019726
:104DB000F1F700C000001092680010926C00809122
:104DC000F603811102C0E89A01C0F8948FEF87B909
:104DD0008091E503882329F081E080939E038093EE
:104DE000F5038FEF87B910926C0008951092680058
:104DF0001092E5038FEF87B98091F603811102C00D
:104E0000E89801C078940E943D2680E388B98FEC31
:104E100087B982E08093680080E180936C008EEC1B
:104E200090E00197F1F700C0000010926800109226
:104E30006C0010926C008091F603811102C0E89A18
:104E400001C0F8942091E503211108C081E080930E
:104E5000E10310929C038FEF87B908958FEF87B914
:104E60005091E3034091E4038091E603382F30959D
:104E700090E030FB97F931FB91F932FB90F933FB6D
:104E800095F9392F922F909560E090FB66F991FB90
:104E900063F992FB62F993FB64F9962F932B90933D
:104EA000250794FF03C033E23093F3033091F303FB
:104EB000333251F42095322F3295337030932607D8
:104EC000207C292B20932507209125075B3F10F09C
:104ED00090E401C090E0292B4B3F10F090E801C016
:104EE00090E0922B909325078095859585958C73FE
:104EF0008093300750932A0740932D078091E90350
:104F0000809329078091EA038093280708950F93DF
:104F10001F93CF93DF938091ED038823E1F00E94EC
:104F20001F266091220780E196E00E94F4250E94EE
:104F3000DB250E942E2640E051E061E070E080E138
:104F400096E00E940D3580E4809310068FEF8093E9
:104F500011061092ED0380919F038230A8F08F3FDD
:104F600019F0815080939F0380919C0380FF05C0BE
:104F70004FEF6FEF81E00E94562680919C0381FFE6
:104F800047C04FEF6FEF13C08130A9F410929F0319
:104F900080919C0380FF05C040E060E081E00E94BA
:104FA000562680919C0381FF33C040E060E082E0A0
:104FB0000E9456262DC0C0919D030E941F2680E0AE
:104FC0000E94DB2580E00E94DB258C2F0E94DB25E0
:104FD00081E00E94DB2581E08C270E94DB250E9476
:104FE0002E2680E388B98FEC87B994E286B180736E
:104FF000803309F059C028E22A95F1F79150B1F7B2
:10500000C09580919C038C2380939C038FEF87B97C
:105010008091F5038130C1F580919D038130A1F528
:1050200080919C0380FF30C08FE697E10197F1F7F4
:1050300000C000001092F5030E941F266CE080EE75
:1050400091E00E94F425182FC0E0D0E0CE0123E0CB
:10505000822780569F4F0E941435082F0E94DB251F
:1050600010272196C03CD10589F7812F0E94DB25AE
:105070000E942E2680E388B98FEC87B987E592E0FD
:105080000197F1F700C0000080919D03813011F479
:1050900082E001C081E080939D038FEF87B9DF91AB
:1050A000CF911F910F9108959CE29A95F1F784E2B8
:1050B00096B19073903331F498E09A95F1F781505E
:1050C000B9F7A4CF80919C03282F30E04C2F5527AF
:1050D00047FD5095242335232417350709F496CF2F
:1050E000C82BC0939C038AE080939F038FCF8CEEE4
:1050F00091E0089508951092A20308956093A20389
:1051000090910402953069F0992359F0882321F099
:10511000933039F082E003C0913019F084E080933D
:10512000040208950C947E28FF920F931F93CF934F
:10513000DF93CDB7DEB7A6970FB6F894DEBF0FBEEC
:10514000CDBF0E94610C8091ED038E010F5F1F4F58
:10515000882309F44DC060912207A0E1B6E0F80170
:105160008E2F801B861718F48D918193F9CFC8017B
:105170000E94640C21E031E0E0E1F6E0DF01A901EA
:105180001D9241505040E1F786958695869561E1E4
:1051900076E0FB0140E050E000E810E09E2F961B17
:1051A0009817F0F4908120E030E0D901A40FB51FEA
:1051B000AE5CB84FAC91AA2341F0D801022E02C0D8
:1051C000B595A7950A94E2F701C0A0E09A2B2F5F4E
:1051D0003F4F2830310549F79193485F5F4FDECF4D
:1051E000809310061092ED0381E08093F2030AC1D0
:1051F000198261E0C8010E94640C811108C080918D
:10520000A0038111FFC081E08093E103FBC01092F5
:10521000A0031092A103883111F010920402809132
:105220004907882331F080910402853011F41092EF
:10523000040280914907811103C085E08093040234
:105240008091A2038F3F69F0882321F081508093E1
:10525000A20307C080910402833019F484E0809394
:105260000402809104028230E1F08430B9F18111AE
:105270004CC083E0898380E88A8381E08B8342E2AB
:1052800050E060E870E0CE0104960E940D3563E2C4
:10529000C8010E94640C8823C1F184E08093040259
:1052A00034C083E0F82EF98280EC8A838BE18B8313
:1052B00040E250E061E070E0CE0104960E940D35BE
:1052C00063E2C8010E94640C8111F09204028BE237
:1052D00091E00197F1F700C0000017C083E08983D7
:1052E00080EC8A838BE18B83FE01349680E2DF01C0
:1052F0001D928A95E9F763E2C8010E94640C882335
:1053000031F381E080930402E2CF81E0898361E0A0
:10531000C8010E94640C803209F074C030912507E6
:105320002091260780E090E0FC01EE5CF84F408180
:10533000442351F0FC01E15CFD4F4081FC01E15D43
:10534000FD4F5081252B342B01968031910561F75B
:10535000309325072093260780913607882329F06C
:1053600080913007846080933007809137078823CD
:1053700029F0809130078860809330078091390749
:10538000882329F0809130078062809330078091D4
:105390003807882329F08091300780618093300797
:1053A00080E090E0A0E0B0E020E830E0482FFC0191
:1053B000EE5BF84F5081552341F0B901082E02C031
:1053C000759567950A94E2F701C060E0B62BFC0181
:1053D000E65BF84F5081552341F0B90102C0759545
:1053E00067954A95E2F7AB0101C040E0A42B019616
:1053F00088309105D9F6B058B09328078FE78A1BFB
:1054000080932907A6960FB6F894DEBF0FBECDBFD6
:10541000DF91CF911F910F91FF90089581E08093CC
:10542000A0038093A1030E9494288091A10381117D
:1054300003C08091F303089580E0089588EF91E020
:1054400008950895089517B88FE388B908958FE1F6
:1054500088B982EC90E00197F1F700C000008FE37B
:1054600088B908958FE387B98FE188B987EE98E00E
:105470000197F1F700C0000008958FE188B984E733
:105480008A95F1F78FE388B981ED90E00197F1F704
:1054900000C000008FE188B9089527E030E090E077
:1054A0006FE37FE144E84A95F1F7AC01022E02C0B8
:1054B000559547950A94E2F740FF08C068B9E2ECB9
:1054C000F0E03197F1F700C0000007C0F8E7FA9567
:1054D000F1F768B94CE84A95F1F778B921503109EC
:1054E00008F70895CF93C82F0E94322A0E943D2AC0
:1054F0008C2F8C630E944D2A0E94272A17B89EEF9A
:1055000084E08A95F1F735996CC0ECEAEA95F1F7F9
:1055100028E030E040E050E0BA0180E8EBE2F1E062
:105520003197F1F700C000003599482B869521503E
:1055300031092115310591F7762F652F542F442716
:1055400028E030E080E8EBE2F1E03197F1F700C0CD
:1055500000003599482B86952150310921153105D8
:1055600091F7762F652F542F4427C11135C088E05D
:1055700090E020E8203829F4EDE0F1E03197F1F7F0
:1055800004C0EBE2F1E03197F1F700C0000035997B
:10559000422B000026950197009761F7B62FA52FA3
:1055A000942F8827EFEAF4E03197F1F700C000006C
:1055B00024E030E048E0EBE2F1E03197F1F700C0A1
:1055C00000003599842B469521503109211531056C
:1055D00091F7BC01CD010BC0992777FD9095892FDC
:1055E00006C0915009F08CCF60E070E0CB01CF9104
:1055F00008958F929F92AF92BF92CF92DF92EF92D7
:10560000FF920F931F9380E00E94722A872E982E9C
:10561000A92EBB24A7FCBA94882009F45EC0092FE8
:10562000332707FD3095132F232F402F441F442786
:10563000441F53E0541B452F6C01FF24D7FCF0940A
:10564000EF2CC7FC4D7F5C2DC6FE04C050955F77E4
:10565000519501C05F7706FF04C000950F77019553
:1056600001C00F7720E8250F2093280700580093EA
:1056700029071092A50320E820931202209311021B
:105680008094609580E082FA82F983FA84F984FA42
:1056900085F985FA83F98093A40380E080FA83F981
:1056A00081FA82F986FA80F987FA81F990E4499FB4
:1056B00040011124882960FD80618093A30361FF6C
:1056C00005C08091A50384608093A50362FF05C097
:1056D0008091A30380628093A3038091A3038093AE
:1056E00025078091A403809330078091A5038093C0
:1056F00026071F910F91FF90EF90DF90CF90BF9002
:10570000AF909F908F90089583E00E94722A672B3C
:10571000682B692B11F08AE008950895E89883E0DA
:105720000E94722A672B682B692B21F481E08093F9
:10573000E10323C0E89A8BED95E00197F1F700C0F3
:105740000000E8980E94322A0E943D2A8BE30E94C2
:105750004D2A0E94272A87E592E00197F1F700C0C1
:1057600000000E943D2A83E60E944D2A86E40E94A2
:105770004D2A0E94272A17B8449AE89A089585E08E
:1057800092E0089508950895089517B814B88FE326
:1057900088B98FEF85B9089524B1217C24B925B14A
:1057A0002E6325B918B817B82FE328B9539A5B9818
:1057B00054985C9AE7EBFBE03197F1F700C00000EA
:1057C00026B11D9B2D7F20952F73233350F430E09D
:1057D000F901E450FD4F4081F901E753FD4F20816D
:1057E00002C020E040E0FC014083FB0120830895DB
:1057F0000F931F93CF93DF9300D000D0CDB7DEB7C8
:10580000BE016F5F7F4FCE0102960E94CC2B539A50
:105810005B9854985C9A83E087B98CE388B988E3F5
:1058200084B987EC85B987EB9BE00197F1F700C05D
:10583000000026B125FB222720F981E02827349B90
:105840002260339B24604C9B28608CE387B983E003
:1058500088B984B1877C84B985B1886385B987EBC1
:105860009BE00197F1F700C0000086B1869581703A
:1058700091E08927309B82604C9B846030E1839F5C
:10588000C0011124822B40978D33910540F4FC0117
:10589000EE0FFF1FE15BFD4F0081118102C000E0B0
:1058A00010E08FE388B987B18C7F87B987EB9BE0E5
:1058B0000197F1F700C0000086B18E3309F4106241
:1058C00086B18D3309F4106486B18C3309F4106805
:1058D000C801887F892B21F08091A6038C8315C095
:1058E000BE016D5F7F4FCE0104960E94CC2B8C8150
:1058F0009A81891721F08091A6038C8302C080933E
:10590000A6038B819981891721F08091A5038B8350
:1059100002C08093A5039C818FE3989F902D112452
:105920009058909328079B81989F802D1124805830
:1059300080932907C801892F9927829586958770BA
:10594000809325071F7100932607109327070F9058
:105950000F900F900F90DF91CF911F910F910895AD
:1059600087EB9BE00197F1F700C00000319902C07E
:105970008EE0089580E0089583E192E00895A82FD5
:10598000B92F80E090E041E050EA609530E009C036
:105990002D9182279795879510F084279527305E63
:1059A000C8F36F5FA8F30895EADF8D939D93089580
:1059B000CF93CFB7CF93C395489BE9F7489B09C0D6
:1059C000489B07C0489B05C0489B03C0489B01C03B
:1059D000A6C0DF93C091C003DD27C953DC4F489BAD
:1059E00002C0DF91EBCF2F930F931F9309B12FEFDD
:1059F00000FB20F94F933F9319B14FEF012700FBB4
:105A000021F93BE031C04E7F012F19B1216028C040
:105A1000102F4D7F2260000009B129C04B7F246008
:105A2000012F000019B12BC019B1477F28602AC08F
:105A30004F7E09B120612CC04F7D19B120622FC06B
:105A40004F7B09B1206432C0422709B149934FEF1F
:105A50000000102710FB20F919B11570C9F1297F3A
:105A600091F2012700FB21F909B1237F89F231501E
:105A700058F1102710FB22F919B1277E79F201277E
:105A800000FB23F92F7C81F209B1102710FB24F9C8
:105A90002F7971F200C019B1012700FB25F92F738E
:105AA00059F200C009B1102710FB26F9223040F24C
:105AB00000C019B1012700FB27F9243028F64F77E1
:105AC000206819B10000F9CF11E01CBB00271CC0F1
:105AD0003B503195C31BD04011E01CBB0881033CF7
