:100000000C94B6020C94702A0C94D3020C94D30274
:100010000C94AD2B0C94D3020C94D3020C94D30209
:100020000C94D3020C94D3020C94D3020C94D302FC
:100030000C94D3020C94D3020C94D3020C94D302EC
:100040000C94D3020C94D3020C94D3020C94D302DC
:100050000C94D3020C94D3020C94D3020C94D302CC
:100060000C94D3020C94D302140342004C004900B8
:10007000530053002D0042004F00580004030904B0
:1000800005010905A10185010509190129181500B6
:100090002501750195188102A1000501093009317A
:1000A000093209330934093509360937150026FFA5
:1000B00000350046FF00750895088102C00501253E
:1000C00007463B01750495016514093981426500B5
:1000D000950181010601FF094975019501810225FC
:1000E0000175078103050F0992A1028502099F0985
:1000F000A009A509A6150025013500450175019542
:1001000005810295038103099415002501350045F9
:100110000175019501810209221501252835014546
:1001200028750795018102C00921A10285010922D4
:1001300015012528350145287508950191020925E5
:10014000A102092609270930093109320933093486
:1001500009400941094209430928250315013501D0
:100160004503750895019100C009500954095115BE
:100170000026FF7F350046FF7F66031055FD751092
:100180009503910255006600000952150026FF00F4
:100190003500461027750895019102095315012570
:1001A00008350145087508950191020955A1020518
:1001B000010930093115002501750195029102C030
:1001C000050F095695019102950591030957A10262
:1001D0000B01000A000B02000A0066140055FE1510
:1001E0000026FF00350047A08C000066000075085F
:1001F000950291025500660000C0050F09A766032D
:100200001055FD150026FF7F350046FF7F751095C0
:100210000191026600005500C0050F095AA1028530
:1002200002092215012528350145287508950191F7
:1002300002095B095D150026FF0035004610279571
:10024000029102095C095E66031055FD26FF7F4698
:10025000FF7F7510910245006600005500C0095FE0
:10026000A1028503092215012528350145287508B5
:1002700095019102092315002501350045017504FA
:10028000950191020958A1020B01000A000B02001E
:100290000A00750295029102C01580257F36F0D8BC
:1002A000461027096075089501910236F0D846106E
:1002B000270961096295029102150026FF003500A9
:1002C000461027096309647508950291020965467D
:1002D000102795019102C0096EA10285040922151B
:1002E00001252835014528750895019102097015E9
:1002F0000026FF0035004610277508950191020978
:100300006F1580257F36F0D8461027950191020998
:100310007166140055FE150026FF00350047A08CBD
:1003200000009102097226FF7F46FF7F6603105589
:10033000FD7510950191026600005500C00973A17A
:1003400002850509221501252835014528750895DE
:1003500001910209701601FF26FF0036F0D8461001
:1003600027751095019102C00974A1028506092222
:100370001501252835014528750895019102097553
:1003800009761580257F36F0D84610277508950226
:100390009102C00966A102850805010930093115DD
:1003A00081257F350046FF00750895029102C00542
:1003B0000F0977A102850A09221501252835014573
:1003C000287508950191020978A1020979097A092D
:1003D0007B15012503750895019100C0097C150066
:1003E00026FF00350046FF009102C00990A102855A
:1003F0000B0922252815013501452875089501911D
:1004000002C00996A102850C099709980999099AD1
:10041000099B099C15012506750895019100C009E5
:100420007DA102850D097E150026FF0035004610CE
:1004300027750895019102C009ABA102850F092516
:10044000A102092609270930093109320933093483
:1004500009400941094209430928250315013501CD
:10046000450375089501B100C00501093B1500263B
:10047000FF01350046FF01750A9501B1027506B10D
:1004800001C0050F0989A10285020922252815014D
:100490003501452875089501B102098BA102098C27
:1004A000098D098E25031501350145037508950150
:1004B000B100C009AC150027FFFF0000350047FF61
:1004C000FF000075109501B100C0097FA1028503EE
:1004D0000980751095011500350027FFFF000047C2
:1004E000FFFF0000B102098326FF0046FF007508E8
:1004F0009501B10209A909AA750195021500250106
:1005000035004501B10275069501B103C00901A18D
:1005100001150026FF0075088510950D0900B2022F
:1005200001851195050900B202018515950D090097
:10053000B2020185169600010900B20201851795E5
:10054000300900B20201851295080900B202018546
:1005500013951C0900B20201851895C00900B2026A
:1005600001851495C40900B20201C0C011241FBE48
:10057000CFEFD8E0DEBFCDBF12E0A0E0B1E0E2EF08
:10058000F3E602C005900D92A234B107D9F727E037
:10059000A2E4B2E001C01D92A135B207E1F70E94CA
:1005A000482C0C94F7310C940000CF93C62F209167
:1005B000C90224FF07C02091CA0238E823272093EC
:1005C000CA0203C02AE52093C902DC01EBECF2E089
:1005D0009C2F9E0F8D918193892F8E1B1816D4F31B
:1005E0006C2F8BEC92E00E946C2ACC5FC093C90206
:1005F000CF910895CF93DF936091DA02635067FD46
:10060000DFC08091D702CCE0D0E0C81BD109C25234
:10061000DD4F8091D602803120F4CE010E94A407E4
:10062000C9C08D3209F0B3C0683009F0C3C083EC93
:100630008093BE028AE58093020110924202888173
:10064000807621F0CE010E94A90689C09A8110927D
:10065000C7028981811107C01092C80227EC32E0DD
:1006600082E090E078C0853019F49093DB026FC08F
:10067000863009F055C08B81813011F0823029F429
:10068000CE010E94810620E048C0833081F591119F
:100690000AC08CE790E09093D9028093D80220E4BE
:1006A00084E090E03AC0913051F488E690E0909375
:1006B000D9028093D80220E484E190E02EC09230E9
:1006C00051F48EE391E09093D9028093D80220E018
:1006D00082E290E022C09330E9F480E691E09093CA
:1006E000D9028093D80220E08AE090E016C08132DF
:1006F00051F485E592E09093D9028093D80220E4EA
:1007000089E090E00AC0823229F4CE010E9481067D
:1007100020E403C020E480E090E0209342021FC068
:10072000883069F0893019F49093DD0210C08A3066
:1007300049F08B3061F48BE48093CA0208C02DED40
:1007400032E002C027EC32E081E090E004C027EC08
:1007500032E080E090E03093D9022093D8028F3FBE
:100760002FEF920749F4288127FF02C08E819F81D5
:1007700020E82093420206C02E813F8128173907C6
:1007800008F4C901909301018093000113C0809186
:10079000420287FF0FC0CE010E9410088F3F21F454
:1007A0008EE18093020106C0882321F0109201019E
:1007B000109200018091DA02181614F41092DA02F5
:1007C0008091020184FF54C0809100019091010149
:1007D0008F3F2FEF920709F44BC0BC018930910580
:1007E00010F068E070E0861B970B909301018093F6
:1007F00000018091BE0298E889278093BE02C62F2F
:10080000662331F12091D8023091D90280914202C1
:1008100086FF0BC0AFEBB2E0F901862F8A0F9491EF
:100820009D9331968A13FBCF09C0D901EFEBF2E01B
:10083000862F8E0F9D9191938E13FCCF8FEF8C0F8F
:1008400090E00196820F931F9093D9028093D80273
:100850006C2F8FEB92E00E946C2ACC5FCC3031F091
:100860008FEF9FEF9093010180930001C0930201ED
:1008700084E199B1957031F48150D9F71092DB027F
:100880001092D502DF91CF910895E9E6F0E08081E2
:1008900082608083E89A8BE48093CA028AE5809321
:1008A000C902089590E890934F02909350028FE709
:1008B00080934D0280934E0290934B0290934C0292
:1008C0008093490280934A0208950F931F93CF9318
:1008D000DF9380E290E00E94CD31813081F083E1AE
:1008E00090E00E94CD31809357028F3FB9F410926F
:1008F000570260E083E190E00E94E5310FC000E123
:1009000013E0C1E2D0E0CE010E94CD31F801819325
:100910008F012196C933D105B1F7E1CF84E190E091
:100920000E94CD31809308038F3F39F41092080361
:1009300060E084E190E00E94E53186E190E00E9471
:10094000CD3180930F038F3F39F410920F0360E095
:1009500086E190E00E94E53187E190E00E94CD3190
:10096000809305038F3F39F41092050360E087E11F
:1009700090E00E94E53188E190E00E94CD318093C3
:100980006A018F3F41F480E380936A0160E388E16C
:1009900090E00E94E5318CE190E00E94CD31813FF2
:1009A00048F088E080932A0668E08CE190E00E949D
:1009B000E53103C0885F80932A068DE190E00E94B4
:1009C000CD3180933806813F48F087E080932A0636
:1009D00067E08DE190E00E94E53103C0885F80937D
:1009E00038068EE190E00E94CD31813F48F085E0ED
:1009F0008093F60265E08EE190E00E94E53103C04D
:100A0000885F8093F6028FE190E00E94CD31813FB4
:100A100060F086E08093070366E08FE190E0DF916D
:100A2000CF911F910F910C94E531885F809307035C
:100A3000DF91CF911F910F91089588E10FB6F8943F
:100A400080936000109260000FBE519859982FE774
:100A50008CEF9AE0215080409040E1F700C0000008
:100A6000F894E0E0F8E70994CF9314B817B88FEF43
:100A700085B988B98AB188618AB95C985B9A809196
:100A80000D03811102C00E94FA0287EB9BE00197DF
:100A9000F1F700C0000086B18F3641F40E94111EAC
:100AA0009093030380930203C0E328C10E94EB10DC
:100AB0009093030380930203DC01ED91FC9109956F
:100AC000E0910203F09103030480F581E02D099584
:100AD000C82F811113C1549A5C9853985B9A17B828
:100AE0008FEF88B987E293E20197F1F700C0000029
:100AF0004B9913C086B18F3781F483B18F3369F47A
:100B0000209A289800001C9B08C00E94111E9093F8
:100B1000030380930203CAE2F1C096B15C985B9A2A
:100B2000A0E2AA95F1F780EC87B98FE388B98AB182
:100B300088618AB95B985C9AB0E2BA95F1F786B1A0
:100B40008B3041F40E94111E9093030380930203A3
:100B5000C2E2D4C086B18D3351F49F3741F40E9474
:100B6000111E9093030380930203C1E0C7C00E944B
:100B700030179093030380930203DC01ED91FC9105
:100B80000995E0910203F09103030480F581E02DC3
:100B90000995C82F8111B2C00E94F92690930303D2
:100BA00080930203DC01ED91FC910995E091020331
:100BB000F09103030480F581E02D0995C82F811180
:100BC0009DC00E9472249093030380930203DC0172
:100BD000ED91FC910995E0910203F09103030480EB
:100BE000F581E02D0995C82F811188C00E94D91880
:100BF0009093030380930203DC01ED91FC9109952E
:100C0000E0910203F09103030480F581E02D099542
:100C1000C82F811173C00E94B80E90930303809374
:100C20000203DC01ED91FC910995E0910203F09142
:100C300003030480F581E02D0995C82F882361F016
:100C40008D3219F0833109F059C00E94B328909376
:100C500003038093020352C00E94542A909303031B
:100C600080930203DC01ED91FC910995E091020370
:100C7000F09103030480F581E02D0995C82F8111BF
:100C80003DC00E94CC1E9093030380930203DC01BD
:100C9000ED91FC910995E0910203F091030304802A
:100CA000F581E02D0995C82F811128C00E9451219E
:100CB0009093030380930203DC01ED91FC9109956D
:100CC000E0910203F09103030480F581E02D099582
:100CD000C82F811113C00E94111E909303038093AB
:100CE0000203DC01ED91FC910995E0910203F09182
:100CF00003030480F581E02DCF9109948C2FCF91CF
:100D00000895FC012181263009F583818230A9F004
:100D1000823259F08130D1F48CE291E09093D90283
:100D20008093D80282E190E0089580E890E090936B
:100D3000D9028093D8020C94B60B83E091E0909393
:100D4000D9028093D80289E290E0089580E090E093
:100D500008950F931F93CF93DF93FC01A8E2B3E0B4
:100D600080E092E0ED019C01199221503040E1F7C2
:100D7000B093D902A093D80280818076803209F0A6
:100D8000D9C082819381923009F4D7C0218121306A
:100D900009F0C6C0833091F4933009F0CBC084E1F0
:100DA00080935302909328032093290320932A03CE
:100DB0008FEF80932B0320932C0312C0823099F481
:100DC000933009F0B7C0809328038091620280932A
:100DD000290320932A0384E680932C0380932B031A
:100DE00085E090E0ACC0873189F42093530208E29B
:100DF00013E0C0E1D0E0CE010E94CD31F801819333
:100E00008F012196C034D105B1F781C0853189F4B5
:100E100081E190E00E94CD3180932803EBE2F6E07F
:100E2000A9E2B3E081918D9326E0E733F207D1F791
:100E300071C08631F1F481E190E00E94CD31809360
:100E400028038091280590E0AC014F5F5F4F61E07F
:100E5000262F30E04217530754F0F901E85DFC4FAC
:100E6000D901A95DBA4F2C9120836F5FF1CF029613
:100E700066C08831C1F42093530281E190E00E9462
:100E8000CD318093280309E213E0C0EAD0E0CE011F
:100E90000E94CD31F80181938F012196C036F1E097
:100EA000DF07A9F73AC0813109F044C080910A03F5
:100EB000809328032091050348E0249F900111248A
:100EC00080910803C0E18C9FC0011124282B8091E0
:100ED000F802282B80910F03D0E48D9FC0011124CC
:100EE000282B8091F702E0E88E9FC0011124282B67
:100EF000209329038091540280932A038091560203
:100F000080932B038091550280932C0369CF80E35B
:100F100090E015C08DE090E012C081EC90E00FC031
:100F200081E090E0293011F080E090E0919581958A
:100F3000910905C080E090E002C081E090E0DF917F
:100F4000CF911F910F910895FC018081843041F46D
:100F50008181823008F463C0828180936C0108959E
:100F6000813089F4683009F05AC09181809164021F
:100F7000981709F454C08481882309F450C0880F5D
:100F8000809361020895823009F449C0853041F4AC
:100F90008181813009F043C0828180936D01089581
:100FA0008A30E9F5838160916102623008F4682F2C
:100FB00081818130C1F48281E0910203F0910303C9
:100FC000833031F4109261020284F385E02D19C060
:100FD00080916D018F3F19F4613009F46FEF028445
:100FE000F385E02D1BC08230D0F08281E0910203B6
:100FF000F0910303833041F4109261020084F18583
:10100000E02D63E088EC0AC080916C018F3F19F4F9
:10101000613009F46FEF0084F185E02D09940895A3
:10102000DF92EF92FF920F931F93CF93DF93EC0128
:1010300031E03093530280915802811194C188812C
:101040008F3021F48981809362028BC18251833079
:1010500008F087C199819432A9F48CEB80935902EE
:101060009093580284E080935A02249600EA10E09C
:101070006991C8010E94E5310F5F1F4F043A1105C5
:10108000B9F79EC19230B9F485E1809359029093EB
:10109000580284E080935A0288E1E0E1F3E0DF0146
:1010A0001D928A95E9F7249689918193B3E0E43102
:1010B000FB07D1F785C1953291F52A81211112C024
:1010C0008C81809339069D81909328059E81909311
:1010D00029059F8190932A05843008F042C13093FE
:1010E00004033FC12F3F19F4209139062550FE011A
:1010F000339680E090E030E0285D3A4F4191D9018D
:10110000A80FB91F4C93019685309105B9F78A81D4
:101110008F3F09F026C181E080930403AAC1903279
:1011200089F48C81885F80932A068D81885F809303
:1011300038068E81885F8093F6028F81885F809366
:1011400007030FC1913009F0A9C08C818F3F09F0CE
:101150008CC08D81813069F56091080384E190E055
:101160000E94E53160910F0386E190E00E94E53135
:101170006091050387E190E00E94E53160912A06C5
:1011800068508CE190E00E94E5316091380668502B
:101190008DE190E00E94E5316091F60268508EE1A9
:1011A00090E00E94E5316091070368508FE190E084
:1011B00059C0823009F0D5C01092570260E083E137
:1011C00090E00E94E5311092080360E084E190E035
:1011D0000E94E53110920F0360E086E190E00E94EA
:1011E000E5311092050360E087E190E00E94E5316F
:1011F00080E380936A0160E388E190E00E94E5313A
:1012000068E08CE190E00E94E53180E180932A065D
:1012100067E08DE190E00E94E5318FE08093380631
:101220006BE08EE190E00E94E53183E18093F6026D
:101230006CE08FE190E00E94E53184E18093070348
:10124000E0E1F3E081E081938F5F8931E1F748E1EC
:1012500050E061E270E080E193E00E94D53161E00E
:1012600080E290E00E94E5317CC083FF04C091E001
:101270009093050302C01092050384FF04C091E01F
:101280009093080302C01092080386FF04C081E017
:1012900080930F03EEC010920F0363C08CEF890F91
:1012A000823068F58C81882361F0813029F41D81BA
:1012B00011110AC01FEF08C0823031F41D810E8168
:1012C00004C010E000E001C00FEF943051F4E09151
:1012D0000203F09103030284F385E02D602F812F38
:1012E000099589818530E9F5E0910203F0910303C6
:1012F0000084F185E02D602F812F099532C0983050
:1013000061F46C8181E190E00E94E5318D81882358
:1013100041F144E04A95F1F714C0903191F09034D6
:1013200099F46C816093570281E0809305038D816D
:101330008823B9F083E190E00E94E53184E08A954A
:10134000F1F70E941D050DC0903859F460913C06DC
:1013500060936A0188E190E00E94E531A4E0AA95DB
:10136000F1F781E086C090915902F62E961708F4A5
:10137000F92E823009F07BC0E0905A02DE2C0F2D4E
:1013800010E02D2D2E198D2D992787FD90953091E8
:101390005A02A801430F511D841795079CF08091B4
:1013A00058028432B1F180915A028F0D80935A0213
:1013B000809159028F1980935902882309F44DC0F6
:1013C00080E057C0332727FD3095B8E1FE01E20FDA
:1013D000F31FDB1217C08081813071F461E080E27D
:1013E00090E00E94E53148E150E061E270E080E188
:1013F00093E00E94D5310BC06FEF80E290E00E9435
:10140000E53105C02081FC01E05FFC4F2083D394CF
:10141000B8CF809153028F5F80935302E0905A02BD
:10142000D22EDE180F2D10E03D2D3E0D8E2D90E0BA
:1014300020915A02A801420F511D841795070CF004
:10144000B2CFFE01E30FF11D37FDFA9560818056A2
:101450009F4F0E94E531E394E7CF80915802843298
:1014600019F481E080930C03109258027ACF20E0A7
:1014700096CFDF91CF911F910F91FF90EF90DF906A
:10148000089544E14A95F1F79BB195609BB994E0CA
:101490009A95F1F79BB19A7F9BB942E04A95F1F793
:1014A00021E732E0F9019E2F921B98170CF598E086
:1014B000589A46E04A95F1F700C0408140FD05C0CA
:1014C00045E04A95F1F700C005C0589845E04A95B7
:1014D000F1F700000000408146954083915041F7AC
:1014E000589A93E09A95F1F7000058983196DBCF1F
:1014F0008AB185608AB908958AB18A7F8AB98BB129
:1015000085608BB934E03A95F1F789B18570853003
:10151000E1F34EE04A95F1F788E06FEF6695489B5E
:10152000606890E19A95F1F78150C1F78AB18560C2
:101530008AB98BB18A7F8BB98091810290918202A6
:10154000009709F448C0209180022230C9F463FF5B
:1015500004C081E08093050302C01092050364FF7C
:1015600004C081E08093080302C01092080366FF64
:1015700004C081E080930F0324C010920F0321C0A8
:10158000243039F40197E9F481E190E00E94E531DB
:1015900018C0213041F4019719F460936F0111C014
:1015A00060936E010EC0233061F4E7E2F3E0E81BC4
:1015B000F90B6083E0E1F3E081E081938F5F893193
:1015C000E1F78091810290918202019790938202CB
:1015D00080938102C7C010928002662309F4C4C0C0
:1015E000613081F480910A0380937102ECE3F6E0AC
:1015F000A2E7B2E081918D9336E0E934F307D1F7A9
:101600008DE0AEC0623079F480913B068093710228
:10161000EBE2F6E0A2E7B2E081918D9346E0E83399
:10162000F407D1F7EDCF613141F4E0910203F0917D
:1016300003030284F385E02D13C0623141F4E0918D
:101640000203F09103030284F385E02D17C0643197
:1016500061F4E0910203F09103030084F185E02D31
:1016600060916E0180916F0117C0683151F4E09173
:101670000203F09103030084F185E02D60E080E037
:101680000BC06A3159F4E0910203F0910303028424
:10169000F385E02D6AE08FEF099564C06B3141F46A
:1016A000E0910203F09103030084F185E02DF2CF75
:1016B0006C3151F482E090E0909382028093810239
:1016C00081E0809380020895603241F481E090E0EF
:1016D000909382028093810282E036C0613209F5E4
:1016E0002091050388E0289F900111248091080330
:1016F00040E1849FC0011124282B8091F802282BFF
:1017000080910F0330E4839FC0011124282B809126
:10171000F70240E8849FC0011124282B2093710216
:101720001EC0623241F487E190E090938202809380
:10173000810283E009C0633251F481E090E090932C
:1017400082028093810284E0809380020BC06F3F0D
:1017500019F46093710203C081EF8093710281E0FC
:101760000E94410A81E0089580E008958CEE94E0A3
:1017700008953D98459808950F931F93CF93DF9355
:10178000662309F456C07727A0E0B0E040E050E0BF
:101790009D0146175707ACF4189610E8FC01E40FBA
:1017A000F51F00810123E901C75BD94F08832F5F33
:1017B0003F4F16952A173B07A1F74F5F5F4FD9019F
:1017C000E7CF109709F435C0229A2A9AE898E9E4FD
:1017D000F6E0CF93DF93EF93FF930191002311F095
:1017E00061F418C000003D9A1CE011D000003D9843
:1017F00000000000119789F70DC03D9A12E007D054
:101800003D9818E004D00000119739F703C01A95ED
:10181000F1F708950000FF91EF913D9ADF91CF918C
:1018200012E0F5DF3D980FEF0A9511F0359BFCCFE4
:101830002A98229A2A9AE9E4F6E0EF93FF93442744
:1018400000270395A1F03599FCCF08C00FE503955B
:1018500072F03599FCCF439551F001930FE5039554
:1018600032F0359BFCCF439511F00193EFCFFF9100
:10187000EF912A98E89A842F90E00097A1F040FF1A
:1018800012C0DF019D017081618151E0761708F07F
:1018900050E05D9332965A2F521B5417A0F30197D4
:1018A0009595879502C080E090E0DF91CF911F91E0
:1018B0000F910895CF93DF931F92CDB7DEB71982B2
:1018C00061E070E0CE0101960E94BC0B009759F1D7
:1018D000489761F580E090E021E0FC01E75BF94F7B
:1018E000308131112160873011F0220F01C02F7734
:1018F00001968830910589F7293091F038F4253028
:1019000061F02830B1F0233071F40AC0293E41F073
:101910002B3E31F0283A39F403C083E190E00BC04C
:1019200089E090E008C080E090E005C083E090E0AE
:1019300002C082E190E00F90DF91CF910895089569
:101940009F92AF92BF92CF92DF92EF92FF920F934E
:101950001F93CF93DF93CDB7DEB760970FB6F894A0
:10196000DEBF0FBECDBF80910403882309F460C0A1
:101970006091390670E020E0822F992787FD9095CD
:10198000861797076CF4E9E0F0E0EC0FFD1FE80F15
:10199000F91FDC01A85DBA4F8C9180832F5FECCFDB
:1019A000CE0109960E94BC0B21E031E0E8E2F5E0AF
:1019B000DF01A9011D9241505040E1F786958695BF
:1019C0008695682F70E090E000E810E0292F33271B
:1019D00027FD30952617370734F5A901E3E0440FBA
:1019E000551FEA95E1F7D901A75DBA4FFC9020E0B9
:1019F00030E0F901E40FF51FE75BF94FE081EE23DA
:101A000041F0F801022E02C0F595E7950A94E2F73D
:101A100001C0E0E0FE2A2F5F3F4F2830310549F733
:101A2000FC929F5FD3CF80932805109204034EC091
:101A3000809183028F3F79F0882321F08150809339
:101A4000830209C010928A021092890284E0809376
:101A50007C01109284020E945A0C8093850283318B
:101A600009F433C181110EC080918802811103C035
:101A700081E08093F80281E090E090938702809368
:101A8000860227C1109288028E01075F1F4F8231A4
:101A900049F480E3898780917C018A878091840260
:101AA0008B870DC080E4898783E08A8721E080915D
:101AB000890290918A02892B09F420E02B8763E048
:101AC00070E0C8010E94BC0B803421F081E080935B
:101AD0000903FFC086E0EFE3F6E0DF011D928A957F
:101AE000E9F7D0903F0690904006A0904206B09053
:101AF000430690914106C090440620E030E040E863
:101B000050E0822FF901E75AF94F6081662341F0D6
:101B1000BA01022E02C0759567950A94E2F701C0DA
:101B200060E0D62AD901AF59B94F6C91611109C053
:101B30007A01082E02C0F594E7940A94E2F7FE2C8D
:101B400001C0F12CF928D901A759B94F6C9166232E
:101B500041F0DA01082E02C0B595A7950A94E2F784
:101B600001C0A0E0EA2EEA28D901AF58B94F6C9124
:101B7000611108C0FA01082E02C0F595E7950A9494
:101B8000E2F701C0E0E0BE2AF901E758F94F6081B1
:101B9000662341F0BA01082E02C0759567950A9434
:101BA000E2F701C060E0692BF901EF57F94F90812E
:101BB000992341F0FA0102C0F595E7958A95E2F77D
:101BC000CF0101C080E0C82A2F5F3F4F2830310588
:101BD00021F09F2CAE2C962F94CFD0923F06F092FE
:101BE0004006E0924206B092430660934106C092DE
:101BF000440688E0E2E1F2E0DE01119601900D92E8
:101C00008A95E1F790913C06FE01319683E0A82F7A
:101C1000BB27A7FDB095A75BB94F2C91222311F0EC
:101C20002081922B282F8F5F883011F482E0820F61
:101C30003196E017F10759F790933C0680915506CD
:101C4000882329F08091470684608093470680911D
:101C50005606882329F080914706886080934706BE
:101C600080915706882329F08091470680628093EF
:101C7000470680915806882329F0809147068061A5
:101C80008093470680918502823119F480E8809321
:101C90003F0680913F06811118C0E11016C0809167
:101CA0004606811112C0FFEFFF120FC080E880933B
:101CB00046068093440680934106809343068093B2
:101CC00042068093400680933F061092870210924E
:101CD000860260960FB6F894DEBF0FBECDBFDF91CF
:101CE000CF911F910F91FF90EF90DF90CF90BF9019
:101CF000AF909F9008950E94B90B0E945A0C809358
:101D0000850281E0809388020C94A00C609383028A
:101D1000882361F021E030E030938A022093890229
:101D200096E090937C0180938402089510928A0239
:101D30001092890284E080937C01109284020895BD
:101D40000C94860E81E08093880281E090E090936D
:101D50008702809386020E94A00C80918602909157
:101D60008702892B19F480918502089580E00895F7
:101D700080E791E0089508950895089586B193B19C
:101D800085FB442740F9282F207130E053E035953A
:101D900027955A95E1F7422B9072492B282F2870EE
:101DA00030E035952795422B982F9470990F942BFE
:101DB0008270880F880F880F892B08958AB18861F7
:101DC0008AB95C985B9A84B18F7C84B985B1806351
:101DD00085B9389A409A87B1817C87B988B18F6379
:101DE00088B90895409887EB9BE00197F1F700C010
:101DF0000000419A87EB9BE00197F1F700C00000DB
:101E000026B1419887EB9BE00197F1F700C00000F5
:101E100086B1409A8C7334E0839FC00111242C73E7
:101E200026952695822B0895EF92FF920F931F938C
:101E3000CF93DF93EC01409A80E58A95F1F70E94F9
:101E4000BE0EE82E409890E49A95F1F70E94BE0EDF
:101E5000F82E409A80E58A95F1F7409890E49A959B
:101E6000F1F70E94BE0E082F409A80E58A95F1F79F
:101E7000409890E49A95F1F70E94BE0E182F409A70
:101E800080E48A95F1F70E94BE0E409890E59A95FD
:101E9000F1F7409AE882F9828A830B831C83DF91F1
:101EA000CF911F910F91FF90EF900895FF920F93A4
:101EB0001F93CF93DF93CDB7DEB728970FB6F89473
:101EC000DEBF0FBECDBF80910A038730E1F41092D0
:101ED0003C060E94BE0E84FD05C080913C068160D8
:101EE00080933C0614E004E60E94BE0E85FDCEC041
:101EF00024E02A95F1F70150B9F788EF8A95F1F7B8
:101F0000115089F7E8C0873111F08633C9F50E9476
:101F1000F20E8095982F9F709F3081F496E39093F6
:101F20000A0390E098279F73982784FB93F985FB19
:101F300092F990933C060E94F20E809520913C0607
:101F400090E084FB95F985FB94F986FB90F987FB7B
:101F500091F9922B90933C0620E080FB24F981FBC1
:101F600023F982FB25F983FB22F92093470686B1EA
:101F7000813009F4B0C086B1813409F058C0ABC0DB
:101F8000883109F048C0409A14B8539A5B9A88B1D6
:101F90008FEF88B9399887EB9BE00197F1F700C084
:101FA000000086B186B186B186B186B180958C730A
:101FB00090E082FB95F983FB94F984FB93F985FB10
:101FC00092F99093470688E0EAE1F2E0DE0111968B
:101FD00001900D928A95E1F7399A41985B98FE013C
:101FE0003896CE01419A419824E02A95F1F71D993F
:101FF00006C0208130913C06232B20933C0631976C
:10200000E817F90779F7419A419854E05A95F1F7A2
:102010001D9B61C00CC08AB188618AB95C985B9ACB
:10202000CE0101960E94140F8A818F3321F481E042
:102030008093F80250C029812095482F40953B811C
:10204000309554E0259FC00111248C73809347067E
:1020500090E044FB90F945FB95F980E024FB81F981
:1020600025FB87F9892B80933C0690910A039531D3
:1020700091F590E030FB96F931FB93F932FB92F940
:1020800033FB94F9982B90933C0625C00E94BE0E1A
:10209000082F98E09A95F1F70E94BE0E85FF30CF89
:1020A00058EF5A95F1F70E94BE0E85FD29CF0E9488
:1020B000BE0EF82E88E08A95F1F70E94BE0E85FDCF
:1020C0001FCF902F9295907F8F2D8F70982B90938C
:1020D000460690933E0628960FB6F894DEBF0FBED4
:1020E000CDBFDF91CF911F910F91FF900895FF9287
:1020F0000F931F93CF93DF9300D000D01F92CDB7E3
:10210000DEB786B1833429F483E088B987B987E1E3
:1021100057C00E94BE0E84FD14C00E94DE0E28E24D
:102120002A95F1F7CE0101960E94140F8FE697E1F0
:102130000197F1F700C0000089818F708F30E9F4BA
:1021400015C07AE0F72E082F10E00E94BE0E9927E6
:1021500087FD90950817190771F587E592E00197BB
:10216000F1F700C00000FA9481F7D7CF8D8180315C
:1021700031F1833311F1803311F15B9887EB9BE0F0
:102180000197F1F700C00000539A399A419814B8AA
:1021900013B89CE080E0419A419824E02A95F1F739
:1021A0001D9B8F5F9150B9F78350893010F488E1FF
:1021B00007C080E005C087E003C084E101C085E17D
:1021C0000F900F900F900F900F90DF91CF911F9174
:1021D0000F91FF9008958DE791E008950895089577
:1021E00008951092950110928E0210928F02109213
:1021F0008D0210928B028AB188618AB95C985B9AD1
:102200003A9A4298089587B190919202892B87B9A2
:1022100087B190919302892B87B990919102292FD0
:10222000209580919402822380939402809195025C
:10223000892B8093950288B190919302892B88B95C
:1022400098B1809192028095892388B9089581E0A0
:102250008093930282E08093920280E280939102C5
:1022600083B18093900285B18093950284B180936D
:1022700094023C9A449A3D9A45980E940311809199
:102280000D03811102C00E94FA028DEE92E00197C7
:10229000F1F700C0000080910D03811102C00E947F
:1022A000FA028DEE92E00197F1F700C000008091F4
:1022B0000D03811102C00E94FA028DEE92E0019797
:1022C000F1F700C0000080910D03811102C00E944F
:1022D000FA028DEE92E00197F1F700C0000087B19D
:1022E00085B115B887EB9BE00197F1F700C00000BE
:1022F00085B18FEF85B920E180E038B190919302EC
:102300009095932398B998E09A95F1F798B1309108
:102310009302932B98B998E09A95F1F793B1309185
:102320009102932309F08F5F215039F7982F9D7FF9
:102330009C3021F481E080938F0207C0813029F026
:10234000823029F481E080938E0289E108958430FF
:1023500089F3873009F437C13C98449A3D98459AEF
:1023600080E28093930280E18093920288E08093E0
:10237000910286B18093900288B18093950287B1D3
:10238000809394020E940311449A90E020E038B1B7
:10239000809193028095832388B986B13091910210
:1023A000832319F491310CF02F5F88B1309193029F
:1023B000832B88B99F5F903251F7243021F48AE152
:1023C00080930A03089598B18091920280958923A1
:1023D00088B988B190919202892B88B980E38A9557
:1023E000F1F798B1809192028095892388B988B1DC
:1023F000836088B987B18C7F87B930E220E080E0C4
:1024000096B140919102942309F48F5F30992F5F28
:1024100048B1909193029095942398B998E19A9538
:10242000F1F798B140919302942B98B998E19A955D
:10243000F1F7315029F796B1903219F4243009F4AC
:10244000C4C021502F3128F481E0809391028EE1A5
:102450000895883109F4BBC0803109F4BAC08130D5
:1024600019F480938C02B5C096B1993219F096B1E7
:10247000993629F481E0809391028CE108958135A9
:1024800009F4A9C08D3009F4A6C0823109F4A3C0B3
:1024900088E08093930282E08093910286B18093DA
:1024A000900288B18093950287B1809394020E9434
:1024B0000311539A5B983D9A459A97B18091910286
:1024C0008095892387B988B190919102892B88B929
:1024D0003C98449A259A2D98209A389A80910D0319
:1024E000811102C00E94FA028DEE92E00197F1F78D
:1024F00000C0000080910D03811102C00E94FA0209
:102500008DEE92E00197F1F700C0000080910D037D
:10251000811102C00E94FA028DEE92E00197F1F75C
:1025200000C0000080910D03811102C00E94FA02D8
:102530008DEE92E00197F1F700C0000087B185B100
:1025400015B887EB9BE00197F1F700C0000085B15B
:102550008FEF85B92D9A409A90E39A95F1F72D98CF
:10256000409830E220E090E086B1409191028423CF
:1025700009F49F5F349B2F5F48B18091930280954F
:10258000842388B9289888E18A95F1F788B1409129
:102590009302842B88B9289A88E18A95F1F7315003
:1025A00019F788EF890F823020F481E080938C0244
:1025B00014C0983191F021502F3188F480E180933C
:1025C000910285E3089585E2089584E2089581E10A
:1025D00008958BE108958DE1089584E3089580E0E6
:1025E000089580910A03853219F0893109F0B8C144
:1025F0008FEF8093900280918F02882311F198B120
:10260000809193028095892388B928E02A95F1F773
:1026100088B190919302892B88B938E03A95F1F707
:1026200098B1809193028095892388B958E05A9592
:10263000F1F788B190919302892B88B988E08A9547
:10264000F1F780918E02882389F098B180919302EE
:102650008095892388B998E09A95F1F788B190918F
:102660009302892B88B928E02A95F1F728E091E0B8
:10267000990F38B1809193028095832388B938E00F
:102680003A95F1F783B130919102832309F091607B
:1026900088B130919302832B88B958E05A95F1F7AD
:1026A000215031F738E081E0880F48B12091930242
:1026B0002095242328B928E02A95F1F723B14091E9
:1026C0009102242309F0816028B140919302242BC8
:1026D00028B958E05A95F1F7315031F78F3F21F47E
:1026E000209195012111C3C221E0209395012091F1
:1026F0000A03253209F00FC198E028B180919302B6
:102700008095822388B98CE08A95F1F783B188B1EE
:1027100020919302822B88B928E02A95F1F79150F5
:1027200061F798E041E0440F28B1809193028095D1
:10273000822388B938E03A95F1F783B1209191026C
:10274000822309F0416088B120919302822B88B9DD
:1027500058E05A95F1F7915031F798B18091930272
:102760008095892388B988E08A95F1F788B190919E
:102770009302892B88B998E09A95F1F798B18091E6
:1027800093028095892388B928E02A95F1F788B1CA
:1027900090919302892B88B938E03A95F1F798E047
:1027A00031E0330F28B1809193028095822388B95C
:1027B00058E05A95F1F783B120919102822309F0F4
:1027C000316088B120919302822B88B988E08A9584
:1027D000F1F7915031F798E021E0220F58B1809144
:1027E00093028095852388B958E05A95F1F783B113
:1027F00050919102852309F0216088B15091930294
:10280000852B88B988E08A95F1F7915031F798B116
:10281000809193028095892388B998E09A95F1F781
:1028200088B190919302892B88B958E05A95F1F7B5
:1028300098B1809193028095892388B988E08A9520
:10284000F1F788B190919302892B88B998E09A9515
:10285000F1F758E091E0990F68B18091930280956B
:10286000862388B988E08A95F1F783B16091910257
:10287000862309F0916088B160919302862B88B914
:1028800088E08A95F1F7515031F768E081E0880FD0
:1028900078B1509193025095572358B958E05A9502
:1028A000F1F753B170919102572309F0816058B14B
:1028B00070919302572B58B958E05A95F1F761502F
:1028C00031F740933F06309340062195220F220FA7
:1028D00022502093450620E080FB27F981FB26F952
:1028E00082FB24F983FB25F930E038273F7C382729
:1028F00086FB33F987FB32F93093470650E05927BE
:10290000557F592790FB52F992FB50F9952F922B46
:1029100090933C06A1C220913C06322F82FB30F9F5
:1029200083FB31F930933D0630E091FB34F992FBA3
:1029300035F993FB32F994FB33F93093470690FF56
:1029400003C0216020933C0690913C0698279F7C11
:10295000982786FB97F987FB91F990933C067CC2F8
:1029600095EE980F943048F0813139F09CEC980F37
:10297000923018F0843209F0E6C198B1809191024A
:102980008095892388B980910A038453823068F442
:10299000259A2D9A8CE28A95F1F72D98389A409ACB
:1029A0009CE29A95F1F7409805C088B19091920207
:1029B000892B88B920E32A95F1F798B1809192028A
:1029C0008095892388B980910A03982F9D7F9C3137
:1029D00011F0843269F488B1836088B987B18C7F43
:1029E00087B958E040E020E030E090E061E011C0BD
:1029F0008533B9F7449A3C98F4CF853369F5289824
:102A000088E18A95F1F7289A88E18A95F1F7515083
:102A1000A9F1990F220F440F330F80910A038433D9
:102A200011F08D3129F488B170919102872B88B90A
:102A300086B170919102872311F491603160809189
:102A40000A038432D1F686B181708627282B86B19D
:102A5000869581708627482B78B180919302809566
:102A6000872388B988E18A95F1F788B1709193023C
:102A7000872B88B982E18A95F1F7C9CF80910A0343
:102A8000843249F5211103C081E08093F80280E08F
:102A900084278F73842741FB83F980933C0680E071
:102AA00024FB85F926FB80F927FB81F990E040FBA8
:102AB00094F942FB97F943FB93F944FB96F945FBE4
:102AC00092F9492F482B40933D0630E025FB30F921
:102AD00030933E0608959F3F69F48B3109F4C7C0D7
:102AE000813109F4C4C0843329F420918C0221116E
:102AF00053C0BDC08C3139F510923C0684E6319B41
:102B000004C08FE080938D0205C058E25A95F1F71A
:102B10008150A9F790918D02992341F080913C0654
:102B2000826080933C06915090938D02309905C04D
:102B300080913C06816080933C0680E8809340064B
:102B400080933F0608958E3111F0853329F590E882
:102B50009093400690933F0690918B0294361CF41C
:102B60009F5F90938B0290918B02943619F43323DC
:102B700009F47DC0853321F4399888E28A95F1F70C
:102B8000319B03C010923C0603C081E080933C0659
:102B9000309530934506089520E090FB25F991FB90
:102BA00024F992FB23F993FB22F920934706209105
:102BB0003D0630E022FB35F923FB34F924FB33F9E1
:102BC00025FB32F930933D0620E094FB25F995FB77
:102BD00024F996FB20F997FB21F920933C068131DB
:102BE00009F43DC120918C02843319F4222309F4A5
:102BF00036C1211102C068E001C068E130E040E068
:102C000020E080E0383014F4880F07C058EF530FED
:102C1000583010F4220F01C0440F56B17091910248
:102C2000572359F4383014F4816007C058EF530F1C
:102C3000583010F4216001C0416078B15091930286
:102C40005095572358B958E15A95F1F758B17091FA
:102C50009302572B58B958E15A95F1F73F5F361751
:102C60008CF230910A03811106C03D3121F481E0DC
:102C70008093F80208953D3111F520E094FB25F989
:102C800095FB24F996FB22F997FB23F9922F20E07C
:102C900082FB21F983FB20F984FB27F985FB26F9C8
:102CA000292B20933C0690913D0630E086FB30F9BD
:102CB00087FB31F9832F892B80933D06CDC03B31B3
:102CC000B1F450E094FB55F995FB54F996FB52F999
:102CD00097FB50F9952F50E084FB57F985FB56F987
:102CE00086FB53F987FB51F9592B50933C06909181
:102CF0008C02992309F4B0C0343311F0822F242FB1
:102D0000880F811D082E01FA87F902FA86F903FA65
:102D100085F905FA83F906FA82F907FA81F98093B1
:102D20003D06220F211D022E01FA26F902FA27F98B
:102D300003FA25F905FA23F906FA22F907FA21F927
:102D400020933E0689C08A3109F086C088B19091EF
:102D50009202892B88B928E090913C06990F9093B4
:102D60003C0638B1809193028095832388B986B15F
:102D700030919102832319F4916090933C0688B1BD
:102D800090919302892B88B9215031F780913C06AC
:102D9000082E00FA85F901FA84F902FA86F904FA94
:102DA00082F905FA80F906FA81F980933C0682E0FF
:102DB00090E021E030E058B14091930240954523E6
:102DC00048B946B150919102452359F460914706A4
:102DD000A901082E01C0440F0A94EAF7642B6093FE
:102DE000470648B150919302452B48B90196863069
:102DF000910509F78091470690E082FB92F983FBE9
:102E000095F984FB93F985FB94F99093470680E24A
:102E100098B120919302922798B98150C9F798B13F
:102E2000809193028095892388B9809195018823A8
:102E300041F086B190919102892319F081E080934D
:102E4000F80288B190919302892B88B998B180914A
:102E500092028095892388B981E080939501089535
:102E600089E891E00895089508950895282F220F84
:102E70002A7A86958575282B34E0239FC00111247A
:102E80008C7C269526952373822B8295089583EC5E
:102E900087B98FE388B910929602089587EB9BE07B
:102EA0000197F1F700C0000088B1836088B99CE108
:102EB0009A95F1F786B18695869598B19D7398B9E4
:102EC00090E29A95F1F7823011F483E0089588300A
:102ED00021F08330D1F380E0089588E00895AF9227
:102EE000BF92CF92DF92EF92FF920F931F93CF93F7
:102EF000DF9388B1836088B93CE13A95F1F716B168
:102F00001695169541988CE18A95F1F71F3021F4BA
:102F100081E08093F80242C18EEF810F823090F5FC
:102F200086B180958C730E94361780934706109562
:102F3000117088B193E0892788B99CE19A95F1F7DF
:102F400086B1809590E082FB95F983FB90F984FB34
:102F500097F985FB91F988B18C7F88B93CE13A9566
:102F6000F1F706B1009580E003FB82F904FB83F9D9
:102F700005FB86F9082F092B329B126088B18C7FE4
:102F800088B9F8C0C0E042E0F42ED0E050E8D52E79
:102F900060E8E62E70E8C72EE0E8BE2E10E000E004
:102FA000AA24A3949CE19A95F1F7409B04C088B1B0
:102FB0008C7388B901C0409A3CE13A95F1F7C11190
:102FC0000AC0000000000000000000000000000037
:102FD000000086B1C2C0C130E1F400000000000072
:102FE00000000000000000000000F6B0F09480E057
:102FF000F2FA83F9F3FA82F9F4FA81F9F5FA80F931
:10300000863011F4A0929602F82EFF0CF394F394FC
:10301000A4C0C23091F400000000000000000000D5
:103020000000000000000000000086B180958C7355
:103030000E9436178093470690C0C330A9F4000061
:10304000000000000000000000000000000086B149
:10305000809590E082FB95F983FB90F984FB97F9CA
:1030600085FB91F9892F16C0C430B1F4000000002F
:10307000000000000000000000000000329B126011
:1030800086B1809530E083FB32F984FB33F985FB10
:1030900036F9832F082B61C0C530A1F40000000071
:1030A000000000000000000000000000329B1160E2
:1030B000339901C00000349901C0000035994DC01A
:1030C00000004BC0C63081F1C73061F426B12695AF
:1030D000269530E1239FC00111248D2B0E943617C5
:1030E000B82E3BC0C83001F1C93061F426B1269535
:1030F000269530E1239FC00111248D2B0E943617A5
:10310000C82E2BC0CA3081F0CB3061F426B1269591
:10311000269530E1239FC00111248D2B0E94361784
:10312000E82E1BC0CC3061F400000000000000005D
:103130000000000000000000D6B1D695D6950DC065
:10314000CD3059F426B12695269530E1239FC00154
:1031500011248D2B0E943617D82ECF5FCF150CF47B
:1031600021CF88B1836088B98CE18A95F1F79CE121
:10317000F91208C080E8D82E90E8E92E20E8C22E87
:1031800030E8B32EB0923F06C0924006D09241067E
:10319000E092440600933C0610933D06DF91CF91E8
:1031A0001F910F91FF90EF90DF90CF90BF90AF9065
:1031B000089586E991E0089508950895089581E0BD
:1031C00080937C0083E880937A0017B88FEF88B9EA
:1031D00014B885B90895DF92EF92FF920F931F9371
:1031E000CF93DF93D82EFB01D701E9019881809519
:1031F000982398839C9198239C93DA019C919160E9
:103200009C9390819E7F9083CFE6D7E12197F1F741
:1032100000C0000090819160908380E0F80190816F
:103220009D2119F48F5F8E3FC9F7DF91CF911F91D8
:103230000F91FF90EF90DF900895EF92FF920F9320
:103240001F93CF938AB188618AB95C985B9A25985D
:103250002D9A5B9887EB9BE00197F1F700C0000087
:1032600083B18F3121F486B18F3709F460C0539850
:103270002598389A409887EB9BE00197F1F700C0BA
:1032800000004B9902C01D9B54C017B88FEF88B93E
:1032900014B885B994E2E92EF12C03E210E025E29E
:1032A00030E047E250E068E270E080E20E94EB1814
:1032B000C82F2AE2E22EF12C09E210E02BE230E0E6
:1032C00047E250E068E270E088E00E94EB18C250EC
:1032D000CC3F18F482508C3F70F1209A289800005F
:1032E0001C9B2BC084E2E82EF12C03E210E025E2C7
:1032F00030E044E250E065E270E088E00E94EB18C4
:1033000025E230E044E250E065E270E088E00E94AF
:10331000EB1890E00B978F3E910588F0549A5C98DB
:10332000389A409A539810920A0380E009C084E0CA
:1033300007C08BE205C089E203C081E301C086E0DB
:10334000CF911F910F91FF90EF900895EF92FF9210
:103350000F931F9317B88FEF88B914B885B9809170
:103360000A03811105C0549A5C98389A409A539880
:1033700080910A03813329F48AB188618AB95C9803
:103380005B9A87EB9BE00197F1F700C0000086B1E4
:1033900023B1809590910A039A3209F041C0549A62
:1033A0005C9853985B9A81FF05C0909147069460A2
:1033B0009093470684FF05C09091470698609093CC
:1033C000470683FF05C0909147069061909347069A
:1033D00082FF05C0809147068062809347068091F6
:1033E0003C064B9B02C08E7F01C0816080933C06EF
:1033F0002D982598389A409887E99AE30197F1F734
:1034000000C00000409A80E01D9902C08F5FFCCF91
:10341000982F990F990F88EC891B80934506FCC360
:103420009C32B9F58AB1877E8AB98BB188618BB934
:103430003C9A449887EB9BE00197F1F700C00000AD
:1034400080E88093400680933F064B9905C08091A9
:103450004706846080934706329905C080913C06F8
:10346000816080933C06309905C080914706806159
:1034700080934706319905C080914706806280930A
:1034800047061D99C9C38091470688608093470607
:10349000C3C39B3209F086C0389A409A87B1837CB7
:1034A00087B988B1837C88B98AB1877E8AB93D9A09
:1034B00087EB9BE00197F1F700C000004B9905C036
:1034C00080913D06816080933D061D9905C08091E5
:1034D0003D06826080933D06319905C080913D068E
:1034E000846080933D063D9887E592E00197F1F76F
:1034F00000C000003C9A87EB9BE00197F1F700C009
:1035000000004B9905C080913D06886080933D0680
:103510001D9905C080913D06806180933D063199DB
:1035200005C080913D06806280933D063C983B9AA1
:1035300087EB9BE00197F1F700C000004B9905C0B5
:1035400080913D06806480933D061D9905C0809161
:103550003D06806880933D06319905C080913E0606
:10356000816080933E063B983A9A8FE697E10197F7
:10357000F1F700C000004B9905C080913E068260C3
:1035800080933E061D9905C080913E06846080931D
:103590003E06319905C080913E06886080933E06C4
:1035A0003A983AC3963009F0FBC03E98259A2D9A76
:1035B0003D9A4598209A289A2B98239A8FE697E16E
:1035C0000197F1F700C00000239880E01B9903C029
:1035D0008F5F8E3FD9F790E0880F991F8F3F91053D
:1035E00019F010F08FEF90E08093400646983E9AD5
:1035F0008FE697E10197F1F700C000003E9880E068
:10360000369903C08F5F8E3FD9F790E0880F991FDE
:103610008F3F910519F010F08FEF90E080933F06F7
:103620008F3F39F4809140068F3F19F481E08093F9
:10363000F80200000000000000000000000017B8C1
:1036400014B88FEF85B988B98AB1877E8AB98BB1F2
:1036500088618BB93B9A43983B98000000000000BA
:10366000000000000000339B05C080913C06816093
:1036700080933C06399A4198399800000000000078
:10368000000000000000319B05C080913C06826074
:1036900080933C063C9A449894E19A95F1F71999E5
:1036A00005C080913D06826080933D061A9905C051
:1036B00080913D06816080933D061C9905C08091F4
:1036C0003C06806180933C064C9905C080913D0684
:1036D000846080933D063C98449A3A9A429824E14B
:1036E0002A95F1F7199905C080913D068061809374
:1036F0003D061A9905C080913D06886080933D067D
:103700001C9905C080913C06806280933C064C99D0
:1037100005C080913D06806280933D063A98429AAA
:10372000389A409884E18A95F1F7199905C08091FB
:103730003D06806880933D061A9905C080913D063C
:10374000806480933D061C9905C080913C0684608E
:1037500080933C064C9905C080913E068160809321
:103760003E063898409A539A5B9894E19A95F1F7FF
:10377000199905C080913E06826080933E061A9991
:1037800005C080913E06886080933E064C9905C036
:1037900080913E06846080933E0653985B9A3CC2BB
:1037A0004091470630E082FB35F983FB34F984FB16
:1037B00033F985FB32F9342B30934706943019F5F1
:1037C000549A5C98389A409A5398539A5B9828E296
:1037D0002A95F1F726B120955B9A88E28A95F1F750
:1037E00096B19095892F822730913C06832B9223A6
:1037F00096959170892B80933C061D9B0DC281602C
:1038000080933C0609C2903309F0BDC017B89FEF02
:1038100098B98AB1877E8AB98BB188618BB984B136
:1038200084B985B195B988E087B987EF88B998E2FE
:103830009A95F1F7309905C0809147068062809390
:103840004706319905C080914706806180934706FD
:103850004B9905C08091470688608093470680E1B8
:1038600087B98FEE88B928E22A95F1F7339905C018
:103870008091470684608093470680E187B98FEE88
:1038800088B988E28A95F1F7359905C080913C06A0
:10389000816080933C064C9905C080913C06826013
:1038A00080933C0682E087B98DEF88B998E29A95BB
:1038B000F1F7359905C080913E06846080933E06FD
:1038C0004C9905C080913D06806880933D063299F1
:1038D00005C080913D06806180933D061D9905C01D
:1038E00080913D06826080933D0681E087B98EEF2E
:1038F00088B928E22A95F1F7359905C080913E06EE
:10390000886080933E064C9905C080913E06816098
:1039100080933E06329905C080913D068062809377
:103920003D061D9905C080913D06846080933D064B
:1039300017B88FEF88B9539A5B9888E28A95F1F7A8
:10394000359905C080913E06826080933E064C9971
:1039500005C080913D06806480933D06329905C084
:1039600080913D06886080933D061D9905C0809139
:103970003D06816080933D068AB1877E8AB98BB10E
:1039800088618BB949C1913019F0923209F0A8C011
:103990008AB188618AB9319905C080913C068160FD
:1039A00080933C0680EC87B98FE388B95B985C9A7A
:1039B00090E29A95F1F7319905C080913C068260BA
:1039C00080933C0656B15695569521E030E0052E81
:1039D00002C0220F331F0A94E2F740E080E090E03B
:1039E000541302C0822B932B4F5F4F30C9F72091A5
:1039F0003C06382F80E032FB82F934FB83F9822BBE
:103A000080933C0680913D0620E031FB23F936FB94
:103A100022F937FB25F9282B892F90E080FB97F9B5
:103A200081FB94F984FB96F985FB91F986FB90F96B
:103A3000292B20933D0690913E0620E082FB21F940
:103A400083FB20F9822F892B90E033FB92F935FB21
:103A500093F9892B80933E065C985B9A80910A03C8
:103A6000813009F4D9C03898409A25982D9A24E0DD
:103A70002A95F1F7909198029093970286B18095DC
:103A80008170809398021D9902C022E001C020E05D
:103A9000822B80939802981709F4BEC0933079F472
:103AA000813021F480914106815F06C0823009F0A7
:103AB000B3C0809141068A5080934106ADC09130D9
:103AC00031F4823079F3833009F0A6C0F2CF92301E
:103AD00009F0A2C0833031F3813009F09DC0E9CFF5
:103AE00081FF05C030913C06316030933C06209543
:103AF000913351F425FF05C090913C06946090935A
:103B00003C0680FF23C010C0911112C03898409A23
:103B10008AB188618AB95C985B9A88E28A95F1F7E4
:103B2000309B02C025FF12C080913C0682600CC011
:103B300025FF05C090913C06926090933C0680FF63
:103B400005C080913C06846080933C0620FF05C040
:103B500080913C06886080933C0621FF05C08091DF
:103B60003C06806480933C0622FF05C080913C06A1
:103B7000806180933C0623FF05C080913C068062F3
:103B800080933C0680910A03813341F024FF13C0E7
:103B900080913C06806880933C060DC0189B3CC019
:103BA000209A289800001C9B03C081E08093F802B3
:103BB00014B88FEF85B980910A03893269F544E220
:103BC000E42EF12C03E210E025E230E047E250E081
:103BD00068E270E080E20E94EB18833060F025E23A
:103BE00030E047E250E068E270E080E20E94EB18CB
:103BF0008095809345063AE2E32EF12C09E210E02D
:103C00002BE230E047E250E068E270E088E00E949A
:103C1000EB188095809346061F910F91FF90EF90CF
:103C2000089582EA91E0089508950895089517B8D7
:103C30008FE388B914B88FEF85B9089587B1836091
:103C400087B918B884E08A95F1F787B18C7F87B976
:103C500084E08A95F1F786B18370833011F48BE0AC
:103C6000089580E00895EDE4F7E080E090E040E220
:103C700050E09A01082E02C0359527950A94E2F784
:103C800068B1A22FA0956A2368B967B1622B67B9A2
:103C900064E06A95F1F776B17370708363B168730D
:103CA0006695672B6083189B02C06062608338B1A1
:103CB000322B38B927B12A2327B90196319684309F
:103CC0009105B9F630914D07832F837019F481E087
:103CD0008093F802309590E030FB94F940914E07C4
:103CE000842F80958170982B80914F07809520E0DC
:103CF00080FB21F9922B20915007522F509560E0C4
:103D000050FB67F951FB65F9962B90933C0650E008
:103D100033FB55F934FB52F9409590E042FB97F99B
:103D200043FB94F944FB91F9952B50E082FB56F943
:103D300083FB53F984FB50F9952B90933D0690E05B
:103D400032FB90F950E085FB51F9852F892B60E01B
:103D500035FB63F9862B90E045FB92F9892B809324
:103D60003E0624FD04C080914706806205C023FD05
:103D700005C08091470680618093470622FD04C0FC
:103D800080914706886005C025FD05C080914706E3
:103D900084608093470608958EEA91E0089508951F
:103DA0000895089588B1806388B908958091BC0012
:103DB00087FFFCCF8091B900887F08959F92AF92D2
:103DC000BF92CF92DF92EF92FF920F931F93CF9308
:103DD000DF93B82E6B01942EA52E79016115710524
:103DE00061F42115310509F477C084EA8093BC00A1
:103DF0000E94D61E803189F532C084EA8093BC00CF
:103E00000E94D61E883009F06AC08B2D880F8093DF
:103E1000BB0084E88093BC000E94D61E883109F064
:103E200047C0C92DDA2DCC0EDD1E24E8A22ECC15FC
:103E3000DD0559F089918093BB00A092BC000E94DF
:103E4000D61E8832A1F323E038C0E114F10469F6EC
:103E500084E98093BC0080E043C0883059F58B2D05
:103E6000880F81608093BB0084E88093BC000E942F
:103E7000D61E803409F5E701219784E8F82E94ECEA
:103E8000E92ECF3FFFEFDF0719F3209719F0E092FB
:103E9000BC0002C0F092BC000E94D61E2197877F12
:103EA0008035B1F68091BB00F80181938F01E9CF95
:103EB00022E003C024E001C025E090E0803A31F028
:103EC000883F81F0883321F484E803C084EA01C08C
:103ED00084E98093BC0006C08FEF9FEF04C081E0AF
:103EE00090E001C0822FDF91CF911F910F91FF9041
:103EF000EF90DF90CF90BF90AF909F900895AF92DA
:103F0000BF92CF92DF92EF920F931F93CF93DF93E5
:103F10001F92CDB7DEB789835B016A01E12C00E017
:103F200010E020E030E0AE014F5F5F4F61E070E0F5
:103F300082E50E94DE1E811117C08FEA94E001978E
:103F4000F1F700C000008501960140E050E060E01C
:103F500070E082E50E94DE1E811106C0EFEAF4E007
:103F60003197F1F700C000000F90DF91CF911F91C2
:103F70000F91EF90DF90CF90BF90AF900895EF92A8
:103F80000F931F93CF93DF93CDB7DEB760970FB634
:103F9000F894DEBF0FBECDBF84E38093B80080915C
:103FA000B9008C7F8093B90010919A0211113FC023
:103FB00080EF898385E58A83E12C00E010E020E032
:103FC00030E0AE014F5F5F4F62E070E082E50E943B
:103FD000DE1EEFEAF4E03197F1F700C00000811136
:103FE0002FC18BEF89831A8220E030E0AE014F5F52
:103FF0005F4F62E070E082E50E94DE1EEFEAF4E0CF
:104000003197F1F700C0000081111AC142E050E081
:10401000BE016F5F7F4F8EEF0E947F1F811110C125
:104020008A818093C60181E080939A0209C1113090
:1040300009F0E8C046E050E0BE016F5F7F4F80E0CE
:104040000E947F1F882361F080919902811102C034
:104050001093F80280EF8093C60110929A02F0C08C
:10406000109299028091C601853009F4E9C030F4BC
:10407000813009F44CC0833039F449C0813109F4EE
:1040800046C0803F09F4DCC0E9817A817095FE81E9
:104090008B8124E0829FC00111248A5F91092F2F18
:1040A0002C7030E03595279535952795822B932BED
:1040B00096958795682F4C8184E0489FA001112434
:1040C000CA018A5F91092F2F207330E0A4E0359553
:1040D0002795AA95E1F7822B932B96958795282F04
:1040E0004D8194E0499FA0011124CA018A5F910982
:1040F0003F2F3295369536953370832B969587955D
:104100009F2F90959170F1FD84C0926082C069816B
:10411000E62FEE0FEE0F9A81A4E09A9F90011124F2
:10412000722F70958B81907C929596959770607C9C
:10413000669566956695692B982F991F9927991F03
:10414000692B660F660F660F282F220F220F220F92
:1041500020959C81392F330F330F330F807686954E
:104160008695929596959770892B880F880F880F62
:104170005D81A52FA095F0E0A1FBF7F9A2FBF5F971
:10418000A4FBF4F9A5FBF6F9AF2FFE814F2F409564
:1041900090E043FB93F944FB91F945FB92F946FB10
:1041A00090F99A2BA0E042FBA1F947FBA0F94A2F16
:1041B00053FD05C0A0913E06A460A0933E06F0FD0D
:1041C00005C0A0914706A460A093470657FD05C00F
:1041D000A0914706A062A0934706F1FD05C0F091AB
:1041E0004706F061F093470656FD05C0509147061B
:1041F000586050934706E11111C07F3F79F420E8E1
:1042000060E80AC080E030E02FEF6FEF40E090E020
:1042100003C030E040E002C070E8E0E890933C0664
:1042200040933D06E0933F0670934006609342063C
:104230002093430680934106309344061092BC00BD
:1042400060960FB6F894DEBF0FBECDBFDF91CF9161
:104250001F910F91EF90089588B18C7F88B987B135
:10426000836087B931991BC081E0809399020E94D5
:10427000BF1F1092BC008091C601803F81F088234F
:1042800041F0813041F0833041F0813141F487E3E6
:1042900008958DE008958FE1089580E2089580E00B
:1042A00008958AEB91E0089508951092F4028FE248
:1042B00084B98FEF85B98FE78CBD80912A06811173
:1042C00003C08DE080932A0680913806811103C0D7
:1042D0008EE0809338068091F602811103C083E15D
:1042E0008093F60280910703811103C084E18093DB
:1042F00007030895843608F484E68093B40260933B
:10430000B20208958FEF8093B5026093B3020895CF
:104310008EBD0DB407FEFDCF80910D03811102C04B
:104320000E94FA028BE291E00197F1F700C00000D1
:104330008EB50895CF93C3E029988BE291E0019761
:10434000F1F700C0000081E00E94882182E40E9411
:104350008821299AEBE2F1E03197F1F700C00000E3
:104360009FEF980F9E3F30F491E090939B029093C3
:10437000F40208C0E7EBFBE03197F1F700C0000062
:10438000C150D1F69CB59F7B9CBD9091F4029111D8
:1043900001C080E0CF910895CF9329988BE291E0FE
:1043A0000197F1F700C0000081E00E94882185E4B8
:1043B0000E94882180E00E9488218AE50E9488214D
:1043C000C5E08AE50E948821C150D9F7299A8BE27D
:1043D00091E00197F1F700C00000CF910895CF93CD
:1043E000C82F29988BE291E00197F1F700C00000F7
:1043F00081E00E94882183E40E94882180E00E945D
:1044000088218C2F0E94882180E00E948821CC2363
:1044100049F0299A8BE291E00197F1F700C0000082
:10442000CF9108958AE50E9488218AE50E9488211B
:104430008AE50E9488218AE50E948821EACFFF92BE
:104440000F931F93CF93DF93CDB7DEB7DA950FB6F7
:10445000F894DEBF0FBECDBF2B9A239A8CB5806433
:104460008CBD8BE291E00197F1F700C000008091D4
:1044700004032998882309F440C0EBE2F1E0319766
:10448000F1F700C00000809139068983F12C8091FA
:104490003906F81688F40F2D10E0F801E85DFA4FA0
:1044A00080810E948821E2E0F0E0EC0FFD1FE00F28
:1044B000F11F8083F394EBCF10E080913906181739
:1044C000A8F4812F90E0FC01E85DFA4FA1E0B0E094
:1044D000AC0FBD1FA80FB91F8C91808380910D0375
:1044E000811102C00E94FA021F5FE7CF10920403FD
:1044F00081E080930903299AE9C18BE291E0019759
:10450000F1F700C000008091B502882381F080910E
:10451000B3029FEF980F9E3F18F49093B30209C027
:104520008F3F39F01092B3021092B50202C0109280
:10453000B3028091B402882381F08091B2029FEF90
:10454000980F9E3F18F49093B20209C08F3F39F044
:104550001092B2021092B40202C01092B20281E034
:104560000E94882182E40E94882180939E0280E03C
:104570000E948821182F8091B5020E948821809383
:10458000A0028091B4020E9488218093A1029091A0
:104590009E0280910A03981741F081E0913419F04E
:1045A00080939B0202C08093F70290930A031F3FFF
:1045B00029F4299A81E08093F80288C1933E21F47E
:1045C0008FE780930A033AC0933221F481E080930D
:1045D0009C0234C0913431F481E08093A302809333
:1045E000A2022CC0993769F402EA12E080E00E942E
:1045F0008821F80181938F01F2E0023B1F07B1F798
:104600001DC080E00E9488218093A20280E00E9469
:1046100088218093A30280E00E9488218093A402D5
:1046200080910A03833529F480E00E9488218095D7
:1046300003C080E00E9488218093A502299A80917E
:104640009B02882309F4B0C08CEF92E00197F1F748
:1046500000C0000010929B0280910A03813409F48B
:104660005BC081E00E94EF212998EBE2F1E03197F5
:10467000F1F700C0000081E00E9488218DE40E94D3
:10468000882180E00E94882180E00E94882181E0CA
:104690000E9488218FEF0E9488218FEF0E9488213D
:1046A0008FEF0E9488218FEF0E948821299A8BE248
:1046B00091E00197F1F700C000002998EBE2F1E0EA
:1046C0003197F1F700C0000081E00E9488218FE45B
:1046D0000E94882180E00E9488218FEF0E9488211B
:1046E0008FEF0E94882183E00E94882180E00E9451
:1046F000882180E00E94882180E00E948821299AF8
:104700008BE291E00197F1F700C000000E94CC21FC
:1047100080E00E94EF2148C081E00E94EF210E94CA
:10472000CC212998EBE2F1E03197F1F700C00000CD
:1047300081E00E94882184E40E94882180E00E9418
:10474000882181E00E94882180E00E94882180E009
:104750000E94882180E00E94882180E00E948821B8
:1047600080E00E948821299A8BE291E00197F1F77D
:1047700000C0000080E00E94EF212998EBE2F1E008
:104780003197F1F700C0000081E00E94882182E4A7
:104790000E948821299AEBE2F1E03197F1F700C0FD
:1047A0000000813409F05DCF9091A1029095392FDE
:1047B000329580E083278D73832730FB83F932FBAA
:1047C00080F933FB82F9382F8091A002809520E098
:1047D00080FB24F983FB25F9232B20933C0693705F
:1047E00020E081FB26F982FB27F9292B20933D0647
:1047F00090914706E0E084FBE2F985FBE5F986FB52
:10480000E3F987FBE4F98E2F892B809347062091EB
:10481000A2023091A302832F90E0820F911D029794
:1048200009F454C020934206309343069091A402A9
:1048300090933F068091A50280934006E6EAF2E05D
:10484000ABE2B6E041914D9342E0E23BF407D1F791
:10485000E0912A06E53131F0F0E0E356FD4F40816A
:1048600040934506E0913806E53131F0F0E0E3563B
:10487000FD4F408140934606E091F602E53131F06C
:10488000F0E0E356FD4F408140934106E09107037D
:10489000E53131F0F0E0E356FD4F408140934406AE
:1048A00040919C02413079F4309341069093440644
:1048B0008093460620933F0680E8809342068093CB
:1048C0004006809343068CB58F7B8CBDD3950FB685
:1048D000F894DEBF0FBECDBFDF91CF911F910F9136
:1048E000FF90089587EC91E0089528E030E040E8DB
:1048F0009FE26FE07FE3592F5095E42FE82398B9AA
:10490000EE2319F078B958B901C068B9952F4695CA
:10491000215031092115310571F70895CF92DF92A9
:10492000EF92FF920F931F93CF93DF931F92CDB718
:10493000DEB78C01F12CE12CF61684F46801CF0C63
:10494000D11CF7FCDA94F601808169830E947524FA
:10495000F6018081E826F3946981EECF8E2D0F90C9
:10496000DF91CF911F910F91FF90EF90DF90CF904B
:1049700008958FE387B988B98FE188B988E020E18D
:1049800098B1922798B98150D9F78FE388B90895E3
:104990008FE387B988B98FE288B984E020E298B1C3
:1049A000922798B98150D9F78FE388B908950E946A
:1049B000B92468E087ED91E00E948E240E9475245E
:1049C0000C94C8248091B802882311F080E10895E6
:1049D00080E008956093B90208956093B902089544
:1049E0001F93CF93DF93182FC42F4F3F19F041111E
:1049F00001C0C1E0D62FD295D695D77009F4D1E089
:104A0000D295D07FD068CF3F09F4C1E00E94B9248D
:104A100082E00E94752480E00E947524812F0E940C
:104A200075248EE00E94752480E00E94752481E048
:104A30000E94752480E00E94752480E00E94752405
:104A40008C2F0E94752482E30E9475248D2F0E9472
:104A5000752480E10E9475248FE281278D278C27A1
:104A60000E9475240E94C82483E893E00197F1F71F
:104A700000C00000DF91CF911F9108951092FC02B9
:104A800080E388B91092B80281E08093B702109257
:104A9000B6020E94B92464E083ED91E00E948E2466
:104AA0000E9475240E94C82487EB9BE00197F1F7D0
:104AB00000C000008FEF87B90E94D724E8988FECE0
:104AC00087B980E388B982E08093680080E18093B1
:104AD0006C008EEC90E00197F1F700C0000010929E
:104AE000680010926C00E89A8FEF87B98091FC0201
:104AF000882329F081E08093B80280930C038FEF24
:104B000087B910926C000895109268001092FC0210
:104B10008FEF87B9E8980E94D72480E388B98FEC9B
:104B200087B982E08093680080E180936C008EEC0E
:104B300090E00197F1F700C0000010926800109219
:104B40006C0010926C00E89A2091FC02211108C0C0
:104B500081E08093F8021092B6028FEF87B9089532
:104B60008FEF87B95091FA024091FB028091FD02CC
:104B7000382F309590E030FB97F931FB91F932FBFB
:104B800090F933FB95F9392F922F909560E090FBC7
:104B900066F991FB63F992FB62F993FB64F9962F36
:104BA000932B90933C0694FF03C033E230930A03A7
:104BB00030910A03333251F42095322F32953370FD
:104BC00030933D06207C292B20933C0620913C0607
:104BD0005B3F10F090E401C090E0292B4B3F10F0B8
:104BE00090E801C090E0922B90933C0680958595CB
:104BF00085958C73809347065093410640934406F5
:104C000080910003809340068091010380933F06CA
:104C100008950F931F93CF93DF938091040388230C
:104C2000E1F00E94B9246091390688E295E00E9483
:104C30008E240E9475240E94C82440E051E061E067
:104C400070E088E295E00E94C63180E480932805F8
:104C50008FEF80932905109204038091B90282306E
:104C6000A8F08F3F19F081508093B9028091B6026D
:104C700080FF05C04FEF6FEF81E00E94F02480912C
:104C8000B60281FF47C04FEF6FEF13C08130A9F428
:104C90001092B9028091B60280FF05C040E060E04A
:104CA00081E00E94F0248091B60281FF33C040E091
:104CB00060E082E00E94F0242DC0C091B7020E9403
:104CC000B92480E00E94752480E00E9475248C2F16
:104CD0000E94752481E00E94752481E08C270E9447
:104CE00075240E94C82480E388B98FEC87B994E2C8
:104CF00086B18073803309F059C028E22A95F1F714
:104D00009150B1F7C0958091B6028C238093B60282
:104D10008FEF87B980910C038130C1F58091B70284
:104D20008130A1F58091B60280FF30C08FE697E117
:104D30000197F1F700C0000010920C030E94B92403
:104D40006CE08FED91E00E948E24182FC0E0D0E03F
:104D5000CE0123E0822780569F4F0E94CD31082F3D
:104D60000E94752410272196C03CD10589F7812F18
:104D70000E9475240E94C82480E388B98FEC87B90B
:104D800087E592E00197F1F700C000008091B7023B
:104D9000813011F482E001C081E08093B7028FEF8F
:104DA00087B9DF91CF911F910F9108959CE29A9559
:104DB000F1F784E296B19073903331F498E09A95CC
:104DC000F1F78150B9F7A4CF8091B602282F30E0D7
:104DD0004C2F552747FD509524233523241735079D
:104DE00009F496CFC82BC093B6028AE08093B9022B
:104DF0008FCF8BEE91E0089508956093BB02909160
:104E00000302953069F0992359F0882321F09330FB
:104E100039F082E003C0913019F084E080930302FE
:104E200008950C94FD26FF920F931F93CF93DF9369
:104E3000CDB7DEB7A6970FB6F894DEBF0FBECDBFD5
:104E400080910403882309F463C06091390670E0FF
:104E500020E0822F992787FD9095861797076CF49D
:104E6000E1E0F0E0EC0FFD1FE80FF91FDC01A85DA9
:104E7000BA4F8C9180832F5FECCFCE0101960E94B8
:104E8000BC0B21E031E0E8E2F5E0DF01A9011D9271
:104E900041505040E1F7869586958695682F70E0E1
:104EA00090E000E810E0292F332727FD30952617E2
:104EB000370734F5A901E3E0440F551FEA95E1F700
:104EC000D901A75DBA4FFC9020E030E0F901E40F72
:104ED000F51FE75BF94FE081EE2341F0F801022E68
:104EE00002C0F595E7950A94E2F701C0E0E0FE2ADA
:104EF0002F5F3F4F2830310549F7FC929F5FD3CF9A
:104F0000809328051092040381E0809309030EC169
:104F1000198261E070E0CE0101960E94BC0B811104
:104F200004C081E08093F80201C191E09093BA023D
:104F3000883111F01092030280916006882331F0CD
:104F400080910302853011F4109203028091600673
:104F5000811103C085E0809303028091BB028F3FE3
:104F600069F0882321F081508093BB0207C08091B3
:104F70000302833019F484E08093030280910302DA
:104F80008230F1F08430D1F1811151C083E0898306
:104F900080E88A8381E08B8342E250E060E870E041
:104FA000CE0104960E94C63163E270E0CE01019604
:104FB0000E94BC0B8823D9F184E08093030237C0A0
:104FC00013E0198380EC8A838BE18B8340E250E00D
:104FD00061E070E0CE0104960E94C63163E270E0A9
:104FE000CE0101960E94BC0B8111109303028BE24B
:104FF00091E00197F1F700C0000019C083E08983B8
:1050000080EC8A838BE18B83FE01349680E2DF01A2
:105010001D928A95E9F763E270E0CE0101960E9445
:10502000BC0B882321F381E080930302E0CF81E071
:10503000898361E070E0CE0101960E94BC0B803252
:1050400009F074C030913C0620913D0680E090E06C
:10505000FC01E75BF94F4081442351F0FC01EE5C19
:10506000FD4F4081FC01EE5DFD4F5081252B342B1F
:1050700001968031910561F730933C0620933D06FF
:1050800080914D06882329F08091470684608093A3
:10509000470680914E06882329F080914706886054
:1050A0008093470680915006882329F08091470617
:1050B00080628093470680914F06882329F0809173
:1050C000470680618093470680E090E0A0E0B0E072
:1050D00020E830E0482FFC01E75AF94F5081552372
:1050E00041F0B901082E02C0759567950A94E2F760
:1050F00001C060E0B62BFC01EF59F94F50815523F8
:1051000041F0B90102C0759567954A95E2F7AB0188
:1051100001C040E0A42B019688309105D9F6B05823
:10512000B0933F068FE78A1B80934006A6960FB682
:10513000F894DEBF0FBECDBFDF91CF911F910F91CD
:10514000FF9008950E9413278091BA02882319F0D6
:1051500080910A03089580E008951092BA02109297
:10516000BB020C94B90B87EF91E008950895089560
:1051700017B88FE388B908958FE188B982EC90E081
:105180000197F1F700C000008FE388B908958FE31D
:1051900087B98FE188B987EE98E00197F1F700C0F1
:1051A000000008958FE188B984E78A95F1F78FE3CD
:1051B00088B981ED90E00197F1F700C000008FE120
:1051C00088B9089527E030E090E06FE37FE144E89C
:1051D0004A95F1F7AC01022E02C0559547950A9405
:1051E000E2F740FF08C068B9E2ECF0E03197F1F770
:1051F00000C0000007C0F8E7FA95F1F768B94CE87D
:105200004A95F1F778B92150310908F70895CF93FD
:10521000C82F0E94C7280E94D2288C2F8C630E941E
:10522000E2280E94BC2817B89EEF84E08A95F1F727
:1052300035996CC0ECEAEA95F1F728E030E040E0FF
:1052400050E0BA0180E8EBE2F1E03197F1F700C0FD
:1052500000003599482B86952150310921153105DB
:1052600091F7762F652F542F442728E030E080E80F
:10527000EBE2F1E03197F1F700C000003599482BDF
:105280008695215031092115310591F7762F652F2B
:10529000542F4427C11135C088E090E020E8203821
:1052A00029F4EDE0F1E03197F1F704C0EBE2F1E031
:1052B0003197F1F700C000003599422B0000269588
:1052C0000197009761F7B62FA52F942F8827EFEA53
:1052D000F4E03197F1F700C0000024E030E048E04E
:1052E000EBE2F1E03197F1F700C000003599842B33
:1052F0004695215031092115310591F7BC01CD01A9
:105300000BC0992777FD9095892F06C0915009F021
:105310008CCF60E070E0CB01CF9108958F929F9287
:10532000AF92BF92CF92DF92EF92FF920F931F93B3
:1053300080E00E940729872E982EA92EBB24A7FC67
:10534000BA94882009F45EC0092F332707FD3095F1
:10535000132F232F402F441F4427441F53E0541B77
:10536000452F6C01FF24D7FCF094EF2CC7FC4D7F38
:105370005C2DC6FE04C050955F77519501C05F77E4
:1053800006FF04C000950F77019501C00F7720E854
:10539000250F20933F060058009340061092BE024E
:1053A00020E820931102209310028094609580E001
:1053B00082FA82F983FA84F984FA85F985FA83F905
:1053C0008093BD0280E080FA83F981FA82F986FA3F
:1053D00080F987FA81F990E4499F400111248829D6
:1053E00060FD80618093BC0261FF05C08091BE02B8
:1053F00084608093BE0262FF05C08091BC0280621F
:105400008093BC028091BC0280933C068091BD02D7
:10541000809347068091BE0280933D061F910F91B5
:10542000FF90EF90DF90CF90BF90AF909F908F90C4
:10543000089583E00E940729672B682B692B11F0E0
:105440008AE008950895E89883E00E940729672B71
:10545000682B692B21F481E08093F80223C0E89A3D
:105460008BED95E00197F1F700C00000E8980E94ED
:10547000C7280E94D2288BE30E94E2280E94BC2801
:1054800087E592E00197F1F700C000000E94D22862
:1054900083E60E94E22886E40E94E2280E94BC285B
:1054A00017B8449AE89A089584E092E00895A82FE6
:1054B000B92F80E090E041E050EA609530E009C00B
:1054C0002D9182279795879510F084279527305E38
:1054D000C8F36F5FA8F30895EADF8D939D93089555
:1054E000CF93CFB7CF93C395489BE9F7489B09C0AB
:1054F000489B07C0489B05C0489B03C0489B01C010
:10550000A6C0DF93C091D702DD27C252DD4F489B72
:1055100002C0DF91EBCF2F930F931F9309B12FEFB1
:1055200000FB20F94F933F9319B14FEF012700FB88
:1055300021F93BE031C04E7F012F19B1216028C015
:10554000102F4D7F2260000009B129C04B7F2460DD
:10555000012F000019B12BC019B1477F28602AC064
:105560004F7E09B120612CC04F7D19B120622FC040
:105570004F7B09B1206432C0422709B149934FEFF4
:105580000000102710FB20F919B11570C9F1297F0F
:1055900091F2012700FB21F909B1237F89F23150F3
:1055A00058F1102710FB22F919B1277E79F2012753
:1055B00000FB23F92F7C81F209B1102710FB24F99D
:1055C0002F7971F200C019B1012700FB25F92F7363
:1055D00059F200C009B1102710FB26F9223040F221
:1055E00000C019B1012700FB27F9243028F64F77B6
:1055F000206819B10000F9CF11E01CBB00271CC0C6
:105600003B503195C31BD04011E01CBB0881033CCB
:1056100011F10B3401F12091D5021981110F1213F0
:10562000EDCF4A81441F093659F10D3211F0013E88
:1056300029F74F7009F0042F0093DC023F914F913E
:105640001F910F912F91DF91CCB3C0FD4CCFCF9123
:10565000CFBFCF9118952091DC02222379F31091CE
:10566000DA02112369F534306AF13093DA022093BB
:10567000D6021091D7023BE0311B3093D70222C0F3
:105680000091DA020130E4F40AE54F7049F43091F8
:10569000020134FD19C000930201CEEBD2E018C024
:1056A0003091C90234FD10C00093C902CAECD2E0A7
:1056B0000FC02795A8F45150A9F4220F0000F9CF8C
:1056C0004AE503C042ED01C0432FC4E1D0E032E01F
:1056D0001AB11560589A1AB90BB120E415E05F931E
:1056E000012756E00BB9279520F4515021F4220FE1
:1056F000F9CF012756E000003B5A0BB9D0F22795AD
:1057000028F4515029F4220F0000F9CF012756E068
:1057100027950BB920F4515021F4220FF9CF01271E
:1057200056E0299133230BB921F60A7F1091DB0251
:10573000110FC651D0400BB911F01093D50211E0F2
:105740001CBB01601AB11A7F402F4A7F5F9100C0D5
:1057500000C00BB91AB94BB971CF3599189590E0C3
:105760009093680090936C00359BF7CF0F920FB623
:105770000F922F933F93AF93BF93A9EFB2E0221BF9
:1057800034E093EB9A95F1F70000349BFECF92E062
:105790009A95F1F700000000000000003499089489
:1057A0002D932227221F0000000000003599089445
:1057B000221F92E09A95F1F734990894221F92E003
:1057C0009A95F1F735990894221F92E09A95F1F78E
:1057D00034990894221F92E09A95F1F7359908942C
:1057E000221F92E09A95F1F734990894221F92E0D3
:1057F0009A95F1F735990894221F3A9561F635E0AC
:10580000349908942D932227221F000000000000E5
:1058100035990894221F92E09A95F1F734990894EB
:10582000221F92E09A95F1F735990894221F92E091
:105830009A95F1F734990894221F92E09A95F1F71E
:1058400035990894221F92E09A95F1F734990894BB
:10585000221F92E09A95F1F735990894221F3A9504
:1058600029F035990C94002C0C94002CBF91AF9129
:105870003F912F910F900FBE0F90189598EC9A952D
:10588000F1F798EC9A95F1F798EC9A95F1F718954D
:10589000CF93DF93CDB7DEB76C970FB6F894DEBF2A
:1058A0000FBECDBF14BEF894A89588E10FB6F8944A
:1058B00080936000109260000FBE10920A03E0E136
:1058C000F3E081E081938F5F8931E1F70E94650405
:1058D00083E08093540263E080E190E00E94E53130
:1058E0008DE0809355026DE082E190E00E94E53109
:1058F00081E190E00E94CD31182F8CEF810F843030
:1059000030F064E081E190E00E94E53114E00E9413
:10591000B60B80931C011093360110933901212F8F
:1059200030E0235D3F4F30935F0120935E01309361
:105930006301209362012FE73FE462E12150304090
:105940006040E1F700C00000153041F47FE78FE4CC
:1059500092E1715080409040E1F713C0163041F45D
:105960002FE337E76BE1215030406040E1F709C099
:10597000173049F47FEF8EE994E2715080409040F7
:10598000E1F700C00000109356021092F80281E087
:105990008093F7020E945204519859988BB18A7FE4
:1059A0008BB98AB18A7F8AB928E22A95F1F789B141
:1059B000857069F038E23A95F1F789B1857039F070
:1059C00081E080930D030E94340580930A03809147
:1059D0000D0381116BC0F8940E9445046FE976E5D0
:1059E00089E0615070408040E1F700C00000789489
:1059F00080915702882309F453C080930A0391E0F1
:105A000090930503813019F40E94111E04C0823066
:105A100039F40E94D91890930303809302032DC098
:105A2000833019F40E94B80EF6CF843019F40E9426
:105A3000542AF1CF853019F40E94CC1EECCF863069
:105A400019F40E94F926E7CF873019F40E94301725
:105A5000E2CF883019F40E94EB10DDCF893019F4C1
:105A60000E945121D8CF8A3019F40E947224D3CFDA
:105A700060E083E190E00E94E531E0910203F09163
:105A800003030190F081E02D0995E0910203F0916C
:105A900003030480F581E02D09958093570204C02B
:105AA0000E94340580930A03519A599A2DE088E1A7
:105AB00090E00FB6F894A895809360000FBE2093F5
:105AC000600000E810E06EE7A62EBB24B3947FE7E9
:105AD000872E992493941E0195E0290E311C109273
