:100000000C94B6020C944A2B0C94D3020C94D30299
:100010000C94872C0C94D3020C94D3020C94D3022E
:100020000C94D3020C94D3020C94D3020C94D302FC
:100030000C94D3020C94D3020C94D3020C94D302EC
:100040000C94D3020C94D3020C94D3020C94D302DC
:100050000C94D3020C94D3020C94D3020C94D302CC
:100060000C94D3020C94D302140342004C004900B8
:10007000530053002D0042004F00580004030904B0
:1000800005010905A10185010509190129181500B6
:100090002501750195188102A1000501093009317A
:1000A000093209330934093509360937150026FFA5
:1000B00000350046FF00750895088102C00501253E
:1000C00007463B01750495016514093981426500B5
:1000D000950181010601FF094975019501810225FC
:1000E0000175078103050F0992A1028502099F0985
:1000F000A009A509A6150025013500450175019542
:1001000005810295038103099415002501350045F9
:100110000175019501810209221501252835014546
:1001200028750795018102C00921A10285010922D4
:1001300015012528350145287508950191020925E5
:10014000A102092609270930093109320933093486
:1001500009400941094209430928250315013501D0
:100160004503750895019100C009500954095115BE
:100170000026FF7F350046FF7F66031055FD751092
:100180009503910255006600000952150026FF00F4
:100190003500461027750895019102095315012570
:1001A00008350145087508950191020955A1020518
:1001B000010930093115002501750195029102C030
:1001C000050F095695019102950591030957A10262
:1001D0000B01000A000B02000A0066140055FE1510
:1001E0000026FF00350047A08C000066000075085F
:1001F000950291025500660000C0050F09A766032D
:100200001055FD150026FF7F350046FF7F751095C0
:100210000191026600005500C0050F095AA1028530
:1002200002092215012528350145287508950191F7
:1002300002095B095D150026FF0035004610279571
:10024000029102095C095E66031055FD26FF7F4698
:10025000FF7F7510910245006600005500C0095FE0
:10026000A1028503092215012528350145287508B5
:1002700095019102092315002501350045017504FA
:10028000950191020958A1020B01000A000B02001E
:100290000A00750295029102C01580257F36F0D8BC
:1002A000461027096075089501910236F0D846106E
:1002B000270961096295029102150026FF003500A9
:1002C000461027096309647508950291020965467D
:1002D000102795019102C0096EA10285040922151B
:1002E00001252835014528750895019102097015E9
:1002F0000026FF0035004610277508950191020978
:100300006F1580257F36F0D8461027950191020998
:100310007166140055FE150026FF00350047A08CBD
:1003200000009102097226FF7F46FF7F6603105589
:10033000FD7510950191026600005500C00973A17A
:1003400002850509221501252835014528750895DE
:1003500001910209701601FF26FF0036F0D8461001
:1003600027751095019102C00974A1028506092222
:100370001501252835014528750895019102097553
:1003800009761580257F36F0D84610277508950226
:100390009102C00966A102850805010930093115DD
:1003A00081257F350046FF00750895029102C00542
:1003B0000F0977A102850A09221501252835014573
:1003C000287508950191020978A1020979097A092D
:1003D0007B15012503750895019100C0097C150066
:1003E00026FF00350046FF009102C00990A102855A
:1003F0000B0922252815013501452875089501911D
:1004000002C00996A102850C099709980999099AD1
:10041000099B099C15012506750895019100C009E5
:100420007DA102850D097E150026FF0035004610CE
:1004300027750895019102C009ABA102850F092516
:10044000A102092609270930093109320933093483
:1004500009400941094209430928250315013501CD
:10046000450375089501B100C00501093B1500263B
:10047000FF01350046FF01750A9501B1027506B10D
:1004800001C0050F0989A10285020922252815014D
:100490003501452875089501B102098BA102098C27
:1004A000098D098E25031501350145037508950150
:1004B000B100C009AC150027FFFF0000350047FF61
:1004C000FF000075109501B100C0097FA1028503EE
:1004D0000980751095011500350027FFFF000047C2
:1004E000FFFF0000B102098326FF0046FF007508E8
:1004F0009501B10209A909AA750195021500250106
:1005000035004501B10275069501B103C00901A18D
:1005100001150026FF0075088510950D0900B2022F
:1005200001851195050900B202018515950D090097
:10053000B2020185169600010900B20201851795E5
:10054000300900B20201851295080900B202018546
:1005500013951C0900B20201851895C00900B2026A
:1005600001851495C40900B20201C0C011241FBE48
:10057000CFEFD8E0DEBFCDBF12E0A0E0B1E0E0E415
:10058000F9E602C005900D92AE3EB107D9F727E01B
:10059000AEEEB2E001C01D92A434B207E1F70E94B2
:1005A0007B2D0C949E340C940000CF93C62F209189
:1005B000B00324FF07C02091B10338E8232720931C
:1005C000B10303C02AE52093B003DC01E2EBF3E0C2
:1005D0009C2F9E0F8D918193892F8E1B1816D4F31B
:1005E0006C2F82EB93E00E94462BCC5FC093B0034C
:1005F000CF910895CF93DF936091C103635067FD5E
:10060000DFC08091BE03CCE0D0E0C81BD109CB5342
:10061000DC4F8091BD03803120F4CE010E94400860
:10062000C9C08D3209F0B3C0683009F0C3C083EC93
:100630008093A5038AE5809302011092EE028881DF
:10064000807621F0CE010E94240789C09A81109201
:10065000AE038981811107C01092AF032EEA33E007
:1006600082E090E078C0853019F49093C2036FC0A7
:10067000863009F055C08B81813011F0823029F429
:10068000CE010E94F90620E048C0833081F5911127
:100690000AC08CE790E09093C0038093BF0320E4EE
:1006A00084E090E03AC0913051F488E690E0909375
:1006B000C0038093BF0320E484E190E02EC0923019
:1006C00051F48EE391E09093C0038093BF0320E048
:1006D00082E290E022C09330E9F480E691E09093CA
:1006E000C0038093BF0320E08AE090E016C081320F
:1006F00051F481E093E09093C0038093BF0320E422
:1007000089E090E00AC0823229F4CE010E94F90605
:1007100020E403C020E480E090E02093EE021FC0BC
:10072000883069F0893019F49093C40310C08A307E
:1007300049F08B3061F48BE48093B10308C024EC62
:1007400033E002C02EEA33E081E090E004C02EEAFC
:1007500033E080E090E03093C0032093BF038F3FED
:100760002FEF920749F4288127FF02C08E819F81D5
:1007700020E82093EE0206C02E813F81281739071A
:1007800008F4C901909301018093000113C0809186
:10079000EE0287FF0FC0CE010E94BE088F3F21F4FA
:1007A0008EE18093020106C0882321F0109201019E
:1007B000109200018091C103181614F41092C10325
:1007C0008091020184FF54C0809100019091010149
:1007D0008F3F2FEF920709F44BC0BC018930910580
:1007E00010F068E070E0861B970B909301018093F6
:1007F00000018091A50398E889278093A503C62F5F
:10080000662331F12091BF033091C0038091EE0245
:1008100086FF0BC0A6EAB3E0F901862F8A0F9491F8
:100820009D9331968A13FBCF09C0D901E6EAF3E024
:10083000862F8E0F9D9191938E13FCCF8FEF8C0F8F
:1008400090E00196820F931F9093C0038093BF03A3
:100850006C2F86EA93E00E94462BCC5FCC3031F0BF
:100860008FEF9FEF9093010180930001C0930201ED
:1008700084E199B1957031F48150D9F71092C20397
:100880001092BC03DF91CF910895E9E6F0E08081FA
:1008900082608083E89A8BE48093B1038AE5809339
:1008A000B00308950F931F93CF93DF938CEA90E0EA
:1008B0000E9474348F3F39F080E290E00E947434DB
:1008C0008130E1F40DC0CCEAD0E06C2F6C5ACE013F
:1008D0000E948C342196CB3A81E0D807B1F7ECCF57
:1008E00007EF13E0C1E2D0E0CE010E947434F801BA
:1008F00081938F012196C933D105B1F783E190E04F
:100900000E9474348093FE028F3F39F41092FE02ED
:1009100060E083E190E00E948C3484E190E00E94EA
:1009200074348093EF038F3F39F41092EF0360E04B
:1009300085E190E00E948C3485E190E00E9474345F
:100940008093EE038F3F39F41092EE0360E085E16F
:1009500090E00E948C3489E190E00E9474348F3FD3
:1009600059F484E690E090936C0180936B0164E607
:1009700089E190E00E948C3486E190E00E9474341A
:100980008093F6038F3F39F41092F60360E086E11E
:1009900090E00E948C3487E190E00E947434809350
:1009A000EB038F3F39F41092EB0360E087E190E0B6
:1009B0000E948C3488E190E00E94743480936A0134
:1009C0008F3F39F410926A0160E088E190E00E9464
:1009D0008C348CE190E00E947434813F48F088E0D0
:1009E0008093150768E08CE190E00E948C3403C08E
:1009F000885F809315078DE190E00E9474348093A6
:100A00002507813F48F087E08093150767E08DE177
:100A100090E00E948C3403C0885F809325078EE1AC
:100A200090E00E947434813F48F085E08093DD03BC
:100A300065E08EE190E00E948C3403C0885F809373
:100A4000DD038FE190E00E947434813F48F086E03E
:100A50008093ED0366E08FE190E00E948C3403C048
:100A6000885F8093ED03E4EBF8E7649170E07093A6
:100A7000F8026093F702E3EBF8E7449150E05093FB
:100A8000F6024093F502EFECFBE7249130E030935F
:100A9000F4022093F302EEECFBE7849190E0909354
:100AA000F2028093F1021092FC026631710519F492
:100AB0001092140706C04D305105D1F341E0409328
:100AC0001407213E310529F48138910559F482E05B
:100AD00007C02339310531F48F3D910519F481E0C8
:100AE0008093FC026091FC02611103C082E080935C
:100AF00014078AE190E0DF91CF911F910F910C9440
:100B00008C3488E10FB6F8948093600010926000F6
:100B10000FBE519859982FE78CEF9AE021508040F2
:100B20009040E1F700C00000F894E0E0F8E7099495
:100B3000CF93DF9314B817B88FEF85B988B98AB10E
:100B400088618AB95C985B9A8091F403811102C034
:100B50000E94FA0287EB9BE00197F1F700C00000CA
:100B600086B18F3641F40E943C1E9093EA03809335
:100B7000E903C0E33AC10E9492109093EA03809384
:100B8000E903DC01ED91FC910995E091E903F09115
:100B9000EA030480F581E02D0995C82F811125C154
:100BA000549A5C9853985B9A17B88FEF88B987E28C
:100BB00093E20197F1F700C000004B9913C086B192
:100BC0008F3781F483B18F3369F4209A289800001D
:100BD0001C9B08C00E943C1E9093EA038093E9038B
:100BE000CAE203C196B15C985B9AA0E2AA95F1F7BC
:100BF00080EC87B98FE388B98AB188618AB95B983C
:100C00005C9AB0E2BA95F1F786B18B3041F40E945C
:100C10003C1E9093EA038093E903C2E2E6C086B1EA
:100C20008D3319F4D1E09F3709F0D0E00E949E1671
:100C30009093EA038093E903DC01ED91FC9109951F
:100C4000E091E903F091EA030480F581E02D099534
:100C5000C82F8111CAC0DD2341F00E943C1E909331
:100C6000EA038093E903C1E0C0C00E945827909333
:100C7000EA038093E903DC01ED91FC910995E09191
:100C8000E903F091EA030480F581E02D0995C82F6E
:100C90008111ABC00E94C3249093EA038093E903BF
:100CA000DC01ED91FC910995E091E903F091EA03F3
:100CB0000480F581E02D0995C82F811196C00E940E
:100CC00044189093EA038093E903DC01ED91FC91D1
:100CD0000995E091E903F091EA030480F581E02DA4
:100CE0000995C82F811181C00E94650E9093EA0377
:100CF0008093E903DC01ED91FC910995E091E90312
:100D0000F091EA030480F581E02D0995C82F88232E
:100D100051F0833109F069C00E9489289093EA0359
:100D20008093E90362C00E942B2A9093EA03809388
:100D3000E903DC01ED91FC910995E091E903F09163
:100D4000EA030480F581E02D0995C82F81114DC07B
:100D50000E94001F9093EA038093E903DC01ED9168
:100D6000FC910995E091E903F091EA030480F58193
:100D7000E02D0995C82F811138C00E948F219093D2
:100D8000EA038093E903DC01ED91FC910995E09180
:100D9000E903F091EA030480F581E02D0995C82F5D
:100DA000811123C00E942E2B9093EA038093E903C4
:100DB000DC01ED91FC910995E091E903F091EA03E2
:100DC0000480F581E02D0995C82F81110EC00E9485
:100DD0003C1E9093EA038093E903DC011496ED91A5
:100DE000FC911597DF91CF9109948C2FDF91CF91D2
:100DF0000895FC012181263021F583818230A9F0FC
:100E0000823259F08130E9F48CE291E09093C00392
:100E10008093BF0382E190E0089580E890E0909392
:100E2000C0038093BF030C94FF0C81E080931203F6
:100E300083E091E09093C0038093BF0389E290E048
:100E4000089580E090E008950F931F93CF93DF9370
:100E5000FC01A895A0E1B4E080E092E0ED019C01E6
:100E6000199221503040E1F7B093C003A093BF0323
:100E700080818076803209F0FCC08281938193303A
:100E800009F0F7C02181213009F0E9C0833089F4ED
:100E90002093130394E690931103809310042093FE
:100EA0001104209312048FEF8093130420931404F1
:100EB00019C08230D1F494E690931103209110036D
:100EC0009FEF920F943010F491E001C092E0809374
:100ED0001004209311049093120484E68093140468
:100EE0008093130485E090E0C6C0A895873191F403
:100EF00081E08093110300E114E0C0E1D0E0CE0175
:100F00000E947434F80181938F012196C034D10579
:100F1000B1F799C0853189F481E190E00E94743481
:100F200080931004E6E1F7E0A1E1B4E081918D93B4
:100F300027E0E232F207D1F789C0863171F581E00E
:100F40008093110381E190E00E9474348093100437
:100F50008091F5038093110480910F04823009F091
:100F600078C08091100690E0AC014E5F5F4F62E068
:100F7000262F30E04217530754F0F901E05FFB4F92
:100F8000D901A25FB94F2C9120836F5FF1CF1092EE
:100F90000F041092F50303966EC08831C9F483E004
:100FA0008093110381E190E00E94743480931004D7
:100FB00001E114E0C0EAD0E0CE010E947434F801EF
:100FC00081938F012196C036F1E0DF07A9F744C075
:100FD000813109F04EC08091F1038093100420917B
:100FE000EB0348E0249F900111248091EF03C0E1BE
:100FF0008C9FC0011124282B8091DF03282B809126
:10100000EE03D0E28D9FC0011124282B8091F603BE
:10101000E0E48E9FC0011124282B8091DE03F0E8CC
:101020008F9FC0011124282B209311048091F90275
:10103000809312048091FB02809313048091FA0242
:10104000809314044FCF80E390E015C08DE090E0D2
:1010500012C083E090E00FC081EC90E00CC081E012
:1010600090E0293011F080E090E091958195910910
:1010700002C080E090E0DF91CF911F910F91089521
:10108000CF93DF93EC01A8958881843041F4898166
:10109000823008F470C08A8180936D016CC0813009
:1010A00099F4683009F067C09C81911101C08C836C
:1010B0008C81803110F08FE08C838C818295807FD1
:1010C0008C8380930F0357C0853081F489818130F0
:1010D00009F051C08B8190E0982F88272A81822BBC
:1010E00096958795805880936E0145C08A3009F0A7
:1010F00042C08091110381113EC060910F036111C4
:1011000001C06FEF89818130E1F48A81E091E903C8
:10111000F091EA03813031F40284F385E02D65E03B
:101120008FEF0AC00484F585E02D833019F460E068
:1011300080E002C080916E0109958A8180930E0340
:101140001AC083508230B8F48A81E091E903F091AB
:10115000EA03833041F410920F030284F385E02DFB
:1011600060E080E005C00284F385E02D80916D0190
:10117000DF91CF910994DF91CF910895DF92EF92A3
:10118000FF920F931F93CF93DF93EC01A89581E01B
:10119000809311038091FF028111E5C188818F3016
:1011A00021F4898180931003DCC18251833008F0DF
:1011B000D8C1A89599819432A9F48CEB809300034F
:1011C0009093FF0284E080930103249600EA10E0EC
:1011D0006991C8010E948C340F5F1F4F043A1105BA
:1011E000B9F7EEC19230B9F485E180930003909392
:1011F000FF0284E08093010388E1E7EFF3E0DF0181
:101200001D928A95E9F7249689918193B3E0EB3F8B
:10121000FB07D1F7D5C19532A9F54A81411113C019
:101220008C81809326079D819093F5039E819093F6
:1012300010069F8190931106833008F092C181E0DF
:1012400080930F0416C24F3F19F4409103034B5F84
:10125000FE01339680E090E0242F30E0205F394F8C
:101260005191D901A80FB91F5C9301968530910562
:10127000B9F78A818F3F19F481E080930F0440937E
:1012800003036FC19032D1F48C81885F809315077E
:101290008D81885F809325078E81885F8093DD0331
:1012A0008F81885F8093ED03E091E903F091EA0379
:1012B0000284F385E02D6AE08FEF04C1913009F0DC
:1012C000D0C0E091E903F091EA030284F385E02DB8
:1012D0006AE08FEF09958C818F3F09F0A1C08D8165
:1012E000813099F56091EF0384E190E00E948C34A5
:1012F0006091EE0385E190E00E948C346091F603EA
:1013000086E190E00E948C346091EB0387E190E0ED
:101310000E948C346091150768508CE190E00E9427
:101320008C346091250768508DE190E00E948C34E8
:101330006091DD0368508EE190E00E948C346091F2
:10134000ED0368508FE190E00AC1823009F009C1D5
:101350001092FE0260E083E190E00E948C341092D3
:10136000EF0360E084E190E00E948C341092EE0381
:1013700060E085E190E00E948C341092F60360E01A
:1013800086E190E00E948C341092EB0360E087E1EC
:1013900090E00E948C3410926A0160E088E190E055
:1013A0000E948C3484E690E090936C0180936B01F2
:1013B00064E689E190E00E948C3468E08CE190E082
:1013C0000E948C3480E18093150767E08DE190E006
:1013D0000E948C348FE0809325076BE08EE190E0D3
:1013E0000E948C3483E18093DD036CE08FE190E018
:1013F0000E948C3484E18093ED03E7EFF3E081E019
:1014000081938F5F8931E1F748E150E061E270E05C
:1014100087EF93E00E947C3461E080E290E09FC01F
:1014200083FF04C091E09093EB0302C01092EB03A2
:1014300084FF04C091E09093EF0302C01092EF0389
:1014400085FF04C091E09093EE0302C01092EE037A
:1014500086FF04C081E08093F6030BC11092F6036F
:1014600080C08CEF890F823078F58C81882361F001
:10147000813029F41D8111110BC01FEF09C082308A
:1014800031F41D810E8105C010E000E002C010E0C3
:101490000FEF943051F4E091E903F091EA030484F2
:1014A000F585E02D602F812F09958981853009F020
:1014B00058C0E091E903F091EA030284F385E02D3E
:1014C000602F812F09954DC0983069F46C8181E1BE
:1014D00090E00E948C348D81882309F442C044E05E
:1014E0004A95F1F711C0903179F0903481F46C8114
:1014F0006093FE0281E08093EB038D81882389F164
:1015000083E190E00E948C340E9481052AC09038CB
:1015100089F4E091E903F091EA030284F385E02D78
:101520006AE08FEF09956091290760936A0188E16D
:1015300090E015C09330A9F4E091E903F091EA033B
:101540000284F385E02D6AE08FEF09956C81862F88
:1015500090E090936C0180936B0189E190E00E9490
:101560008C3481E086C090910003F62E961708F423
:10157000F92E823009F07BC0E0900103DE2C0F2DA4
:1015800010E02D2D2E198D2D992787FD90953091E6
:101590000103A801430F511D841795079CF080910A
:1015A000FF028432B1F1809101038F0D809301031A
:1015B000809100038F1980930003882309F44DC0A4
:1015C00080E057C0332727FD3095A8E1FE01E20FE8
:1015D000F31FDA1217C08081813071F461E080E27C
:1015E00090E00E948C3448E150E061E270E087EFC7
:1015F00093E00E947C340BC06FEF80E290E00E9489
:101600008C3405C02081FC01E950FC4F2083D39429
:10161000B8CF809111038F5F80931103E090010395
:10162000D22EDE180F2D10E03D2D3E0D8E2D90E0B8
:1016300020910103A801420F511D841795070CF05A
:10164000B2CFFE01E30FF11D37FDFA9560818056A0
:101650009F4F0E948C34E394E7CF8091FF02843245
:1016600019F481E08093F3031092FF027ACF20E017
:1016700096CFDF91CF911F910F91FF90EF90DF9068
:1016800008954091FD0241110BC020916B013091F2
:101690006C015AE0529FC001539F900D112402C06B
:1016A00088EA91E6209184003091850082179307A3
:1016B00088F4109285001092840041504E3F18F437
:1016C0008EEF8093FD0281E090910503911180E0FF
:1016D00080930503089524E12A95F1F79BB1956065
:1016E0009BB944E04A95F1F79BB19A7F9BB992E090
:1016F0009A95F1F730E090E0E32FFF27E7FDF095B2
:10170000E817F9071CF528E0EC5EFC4F589A46E014
:101710004A95F1F700C0408140FD05C045E04A957B
:10172000F1F700C005C0589845E04A95F1F7000070
:101730000000408146954083215041F7589A23E0AC
:101740002A95F1F7000058983F5FD6CF8AB185609F
:101750008AB908958AB18A7F8AB98BB185608BB9BD
:101760003CE03A95F1F700C089B18570853009F009
:1017700042C14A99FECF4EE04A95F1F788E06FEFFB
:101780006695489B606890E19A95F1F78150C1F7A2
:101790008AB185608AB98BB18A7F8BB98091240325
:1017A00090912503009709F44FC020912303223024
:1017B000C9F463FF04C081E08093EB0302C0109280
:1017C000EB0364FF04C081E08093EF0302C010923A
:1017D000EF0366FF04C081E08093F6032BC01092F4
:1017E000F60328C0243039F4019721F581E190E017
:1017F0000E948C341FC0253029F40197D9F46093DE
:10180000270718C0213041F4029719F46093700142
:1018100011C060936F010EC0233061F4EEE0F4E07C
:10182000E81BF90B6083E7EFF3E081E081938F5FC2
:101830008931E1F7809124039091250301979093DA
:10184000250380932403D5C010922303662309F453
:10185000D4C0613061F4E8E2F7E0A4E1B3E0819143
:101860008D9337E0E633F307D1F78DE0C0C06230E7
:1018700079F48091280780931403E6E1F7E0A5E16D
:10188000B3E081918D9347E0E332F407D1F7EDCFD8
:101890006330C9F48BB185608BB984E08A95F1F728
:1018A0008091290780FF02C0589A01C0589881FF93
:1018B00002C05A9A01C05A9894E09A95F1F78AB1F9
:1018C00085608AB99AC0613141F4E091E903F091F1
:1018D000EA030484F585E02D09C0643161F4E091E8
:1018E000E903F091EA030284F385E02D60916F0132
:1018F0008091700115C06A3141F4E091E903F091E3
:10190000EA030484F585E02D09C06B3159F4E091B8
:10191000E903F091EA030284F385E02D6AE08FEF9A
:10192000099567C06C3151F482E090E090932503F3
:101930008093240381E0809323030895603241F46F
:1019400081E090E0909325038093240382E040C0DF
:10195000613209F52091EB0348E0249F90011124A6
:101960008091EF0340E1849FC0011124282B8091D6
:10197000DF03282B8091F60330E4839FC0011124FC
:10198000282B8091DE0340E8849FC0011124282B7E
:10199000209314032BC0623241F487E190E09093CE
:1019A00025038093240383E013C0633241F481E074
:1019B00090E0909325038093240384E009C064326F
:1019C00051F481E090E0909325038093240385E017
:1019D000809323030EC06F3F31F46093140381E0C2
:1019E0000E946B0B08C081EF8093140381E00E947A
:1019F0006B0B81E008958FEF089580E008958CEEE1
:101A000094E0089597B186B18095892387B998B1FC
:101A100086B18095892388B90895E82FF0E0EA5DC2
:101A2000FC4F808108952091F403211101C0E898B2
:101A300028E0629FB00111240E94222D3D9A8091DE
:101A4000F403811101C0E89A3D988091F40381115B
:101A500001C0E89886E293E00E94542D9091F4032F
:101A6000911101C0E89A0895CF93DF93D0911006A9
:101A70006091260780E196E00E94130DC82FD230B6
:101A800011F4813289F44C2F50E066E273E081E179
:101A900096E00E946434C093100682E2E6E2F3E02E
:101AA000DF011D928A95E9F7DF91CF910895CF93D9
:101AB000DF931F92CDB7DEB7198261E0CE010196A8
:101AC0000E94130D90912603833031F4953031F04C
:101AD000983031F482E105C080E003C083E101C0A9
:101AE00089E00F90DF91CF91089508950C94340D03
:101AF0000C94570D1F93CF93DF93CDB7DEB7289784
:101B00000FB6F894DEBF0FBECDBF198261E0CE01E3
:101B100001960E94130D833021F081E08093DF0352
:101B2000AEC080914903882321F0815080934903FE
:101B300007C010924B0384E080937F0110924A0308
:101B40008091F103823141F480E3898380917F01A8
:101B50008A8380914A030AC080E4898383E08A8370
:101B600081E090914B03911101C080E08B8363E091
:101B7000CE0101960E94130D883021F081E0809300
:101B8000F0037DC082E00E940D0D80932C0783E05E
:101B90000E940D0D809580932D0784E00E940D0D0D
:101BA00080932F0785E00E940D0D8095809330076C
:101BB00086E00E940D0D80932E0787E00E940D0D98
:101BC0008093310780E00E940D0D182F81E00E9464
:101BD0000D0D982F110F80E08127857D812712FB45
:101BE00080F914FB82F920E029272F7A292795FB19
:101BF00027F9280F2093290793FF05C08091340708
:101C000084608093340792FF05C080913407886018
:101C10008093340791FF05C08091340780628093E0
:101C2000340790FF05C080913407806180933407AA
:101C30008091F103823141F480912D07809580934A
:101C40002C0780E880932D0780912C07811117C005
:101C500080912F07811113C0809130078F3F79F455
:101C600080912D078F3F59F480E88093300780934F
:101C70002F0780932E0780932D0780932C0728969B
:101C80000FB6F894DEBF0FBECDBFDF91CF911F918D
:101C900008950E94020D109249030895609349032C
:101CA000882349F091E090934B0396E090937F0155
:101CB00080934A03089510924B0384E080937F0140
:101CC00010924A0308950C944E0E81E791E0089516
:101CD000089508950895089586B11D9B02C08064FB
:101CE00008958F7B0895EF92FF920F931F93CF93E8
:101CF000DF93EC01409A80E58A95F1F70E946C0E23
:101D0000E82E409880E48A95F1F70E946C0EF82E38
:101D1000409A80E58A95F1F7409880E48A95F1F73A
:101D2000409A80E58A95F1F7409880E48A95F1F72A
:101D30000E946C0E182F409A80E48A95F1F70E9459
:101D40006C0E082F409880E58A95F1F70E946C0E82
:101D5000409AE094E882F094F98200950A83912FEA
:101D600090959C839D8380958E83DF91CF911F9169
:101D70000F91FF90EF900895409888E28A95F1F7CF
:101D8000419A98E29A95F1F786B1419898E29A952E
:101D9000F1F726B1409A2C7394E0299F9001112409
:101DA0008C7386958695822B809508958AB188617B
:101DB0008AB95C985B9A84B18F7C84B985B1806361
:101DC00085B9389A409A87B1817C87B988B18F6389
:101DD00088B987EB9BE00197F1F700C000000895F8
:101DE000CF93DF93CDB7DEB728970FB6F894DEBF59
:101DF0000FBECDBF8091F1038B3379F4309905C0CC
:101E000080912907826080932907319932C180919E
:101E100029078160809329072CC1873009F050C0C1
:101E200091E01D9B05C09F5F9E3FD9F781E004C0F4
:101E300081E0913009F080E091E01D9B04C036B153
:101E4000913029F403C09F5F9E3FB9F78F5F91E007
:101E50001D9B04C09F5F9E3FD9F702C0913019F4CB
:101E6000823009F4BFC086B131FD05C02091290739
:101E700021602093290786958E71082E01FA87F933
:101E800002FA86F903FA85F905FA83F906FA82F966
:101E900007FA81F9932F96959E71092E01FA97F909
:101EA00002FA96F903FA95F905FA93F906FA92F906
:101EB00007FA91F982958F70892B80933307D9C0E7
:101EC000873111F08633B9F50E94BC0E982F9F70B0
:101ED0009F3079F496E39093F10320E028272F7345
:101EE000282784FB23F985FB22F9209329070E94E8
:101EF000BC0E2091290790E084FB95F985FB94F9AD
:101F000086FB90F987FB91F9922B9093290790E03B
:101F100080FB94F981FB93F982FB95F983FB92F99D
:101F20009093340786B1813009F4A3C086B181341F
:101F300009F058C09EC0883109F044C0409A14B8D6
:101F4000539A5B9A88B18FEF88B9399887EB9BE0F9
:101F50000197F1F700C0000086B180958C7390E086
:101F600082FB95F983FB94F984FB93F985FB92F945
:101F70009093340788E0E7E3F2E0DE0111960190E8
:101F80000D928A95E1F7399A41985B98FE0138964F
:101F9000CE01419A419824E02A95F1F71D9906C097
:101FA000208130912907232B209329073197E817A7
:101FB000F90779F7419A419884E08A95F1F71D9BDA
:101FC00058C010C08451823008F053C08AB1886173
:101FD0008AB95C985B9ACE0101960E94730E9A8131
:101FE000913821F481E08093DF0343C08981282F59
:101FF000220F211D2877022E01FA27F902FA26F96D
:1020000003FA25F905FA23F906FA22F907FA21F964
:102010002093340720E081FB21F986FB27F9822FEA
:1020200095959172892B809329079091F1039531B1
:1020300071F49B8120E092FB24F993FB22F994FB3D
:1020400023F995FB26F9922F982B909329078F81DE
:1020500085FF05C080912B07846080932B078D81BD
:102060008D3811F484E103C08D3B19F485E1809330
:10207000F10328960FB6F894DEBF0FBECDBFDF91F7
:10208000CF910895CF93DF9300D000D01F92CDB7AA
:10209000DEB781E01D9B04C08F5F8E3FD9F705C07E
:1020A0008DEF1D9934C08150E1F786B1833429F456
:1020B00083E088B987B987E12DC0CE0101960E94DF
:1020C000730E8A818D3829F48D818D3811F18D3B05
:1020D00001F15B9887EB9BE00197F1F700C00000EE
:1020E000539A399A419814B813B89CE080E0419A09
:1020F000419824E02A95F1F71D9B8F5F9150B9F725
:102100008350893010F488E105C080E003C087E087
:1021100001C085E10F900F900F900F900F90DF910D
:10212000CF91089580E891E0089508950895089565
:10213000089510929C0110924C0310924D038AB1A5
:1021400088618AB95C985B9A3A9A4298089587B1F7
:1021500090915103892B87B987B190915203892BB4
:1021600087B990915003292F2095809153038223A2
:102170008093530380915403892B8093540388B137
:1021800090915203892B88B998B180915103809521
:10219000892388B9089581E08093520382E0809377
:1021A000510380E28093500383B180934F0385B144
:1021B0008093540384B1809353033C9A449A3D9A8C
:1021C00045980E94A71088B188EC8A95F1F798B1DC
:1021D000809152038095892388B998EC9A95F1F7FC
:1021E00088B188E08A95F1F798B180915203809583
:1021F000892388B998E09A95F1F720E180E038B119
:10220000909152039095932398B998E09A95F1F79D
:1022100098B130915203932B98B998E09A95F1F7C1
:1022200093B130915003932309F08F5F215039F718
:102230008E3009F451C19FEF980F923008F44CC1D1
:10224000982F977F943009F447C1873009F446C12D
:102250003C98449A3D98459A80E28093520380E1ED
:102260008093510388E08093500386B180934F039D
:1022700088B18093540387B1809353030E94A710C1
:10228000449A90E020E038B18091520380958323F6
:1022900088B986B130915003832319F491310CF041
:1022A0002F5F88B130915203832B88B99F5F9032A2
:1022B00051F7243021F48AE18093F103089598B115
:1022C000809151038095892388B988B190915103F9
:1022D000892B88B980E38A95F1F798B180915103F1
:1022E0008095892388B988B1836088B987B18C7F4C
:1022F00087B987EB9BE00197F1F700C0000030E25F
:1023000020E080E096B140915003942309F48F5F60
:1023100030992F5F48B1909152039095942398B9CA
:1023200098E19A95F1F798B140915203942B98B99E
:1023300098E19A95F1F7315029F796B1983219F44E
:10234000243009F4CDC021502F3128F481E080934E
:1023500050038EE10895883109F4C4C0823009F435
:10236000C1C0803109F4C0C0813019F480934E039C
:10237000BBC096B1993219F096B1993629F481E033
:10238000809350038CE10895813509F4AFC08D30FE
:1023900009F4ACC0823109F4A9C088E080935203EB
:1023A00082E08093500386B180934F0388B180937D
:1023B000540387B1809353030E94A710539A5B98EC
:1023C0003D9A459A97B1809150038095892387B9AA
:1023D00088B190915003892B88B93C98449A259AEA
:1023E0002D98209A389A8091F403811103C0A89502
:1023F0000E94FA028DEE92E00197F1F700C0000012
:102400008091F403811103C0A8950E94FA028DEE19
:1024100092E00197F1F700C000008091F403811170
:1024200003C0A8950E94FA028DEE92E00197F1F7A1
:1024300000C000008091F403811103C0A8950E94A0
:10244000FA028DEE92E00197F1F700C0000087B12B
:1024500085B115B887EB9BE00197F1F700C000004C
:1024600085B18FEF85B92D9A409A90E39A95F1F74F
:102470002D98409830E220E090E086B140915003E2
:10248000842309F49F5F349B2F5F48B180915203EE
:102490008095842388B9289888E18A95F1F788B1D6
:1024A00040915203842B88B9289A88E18A95F1F7E4
:1024B000315019F788EF890F823020F481E0809342
:1024C0004E0316C09831A1F021502F3198F480E1CD
:1024D0008093500385E3089589E1089585E2089586
:1024E00084E2089581E108958BE108958DE10895D6
:1024F00084E3089580E008958091F1038C31E1F444
:1025000087B1836087B924E02A95F1F7419A87B1B2
:102510008C7F87B900C0309905C080912907816000
:1025200080932907319B09C4809129078260809399
:10253000290710924C030895853219F0893109F06A
:1025400097C18FEF80934F0388B138EC3A95F1F73C
:1025500098B1809152038095892388B958EC5A9597
:10256000F1F788B188E08A95F1F798B1809152032C
:102570008095892388B998E09A95F1F728E091E051
:10258000990F38B1809152038095832388B938E040
:102590003A95F1F783B130915003832309F09160AC
:1025A00088B130915203832B88B958E05A95F1F7DE
:1025B000215031F738E081E0880F48B12091520373
:1025C0002095242328B928E02A95F1F723B14091DA
:1025D0005003242309F0816028B140915203242B39
:1025E00028B958E05A95F1F7315031F78F3F21F46F
:1025F00020919C012111A9C221E020939C012091EE
:10260000F103253209F00FC198E028B180915203FF
:102610008095822388B98CE08A95F1F783B188B1DF
:1026200020915203822B88B928E02A95F1F7915026
:1026300061F798E041E0440F28B180915203809502
:10264000822388B938E03A95F1F783B1209150039D
:10265000822309F0416088B120915203822B88B90E
:1026600058E05A95F1F7915031F798B180915203A3
:102670008095892388B988E08A95F1F788B190918F
:102680005203892B88B998E09A95F1F798B1809117
:1026900052038095892388B928E02A95F1F788B1FB
:1026A00090915203892B88B938E03A95F1F798E078
:1026B00031E0330F28B1809152038095822388B98D
:1026C00058E05A95F1F783B120915003822309F025
:1026D000316088B120915203822B88B988E08A95B5
:1026E000F1F7915031F798E021E0220F58B1809135
:1026F00052038095852388B958E05A95F1F783B144
:1027000050915003852309F0216088B15091520304
:10271000852B88B988E08A95F1F7915031F798B107
:10272000809152038095892388B998E09A95F1F7B2
:1027300088B190915203892B88B958E05A95F1F7E6
:1027400098B1809152038095892388B988E08A9551
:10275000F1F788B190915203892B88B998E09A9546
:10276000F1F758E091E0990F68B18091520380959C
:10277000862388B988E08A95F1F783B16091500388
:10278000862309F0916088B160915203862B88B945
:1027900088E08A95F1F7515031F768E081E0880FC1
:1027A00078B1509152035095572358B958E05A9533
:1027B000F1F753B170915003572309F0816058B17C
:1027C00070915203572B58B958E05A95F1F7615060
:1027D00031F740932C0730932D072195220F220FBC
:1027E00022502093320720E080FB27F981FB26F955
:1027F00082FB24F983FB25F930E038273F7C38271A
:1028000086FB33F987FB32F93093340750E05927C0
:10281000557F592790FB52F992FB50F9952F922B37
:102820009093290787C220912907322F82FB30F924
:1028300083FB31F930932A0730E091FB34F992FBA6
:1028400035F993FB32F994FB33F93093340790FF59
:1028500003C02160209329079091290798279F7C26
:10286000982786FB97F987FB91F99093290762C215
:1028700093EE980F923058F08B3149F0813139F056
:102880009CEC980F923018F0843209F0CAC198B1CC
:10289000809150038095892388B98091F1038453F6
:1028A000823060F4259A2D9A8CE28A95F1F72D9862
:1028B000389A409A9CE29A95F1F7409888B19091A5
:1028C0005103892B88B920E32A95F1F798B18091BB
:1028D00051038095892388B98091F1038E3111F0DD
:1028E000843271F488B1836088B987B18C7F87B9ED
:1028F00068E040E020E050E030E090E071E016C099
:102900008533B1F7449A3C98F3CF853391F52898F5
:1029100088E18A95F1F7289A88E18A95F1F7809104
:10292000F1038433C1F1615009F444C0990F220FBF
:10293000440F330F8091F103843311F08D3129F46A
:1029400088B1E09150038E2B88B986B1E091500395
:102950008E2311F4916031608091F1038432A9F6E5
:1029600086B181708727282B86B18695817087274D
:10297000482BE8B18091520380958E2388B988E175
:102980008A95F1F788B1E09152038E2B88B982E1E4
:102990008A95F1F7C4CF58B1809150038095852373
:1029A00088B986B150915003852351E009F0BBCF1F
:1029B00050E0B9CF8091F103843249F5211103C071
:1029C00081E08093DF0390E040FB96F943FB95F9AB
:1029D00045FB94F946FB90F947FB91F980E024FB15
:1029E00087F926FB82F927FB83F9892B80932A0735
:1029F00090E025FB93F930E041FB32F942FB31F9DD
:102A000044FB30F9432F492B40932B0708959F3FF8
:102A100031F48B3109F499C0813109F496C0511118
:102A200094C08E3111F0853329F590E890932D07ED
:102A300090932C0790914D0394361CF49F5F9093D4
:102A40004D0390914D03943619F4332309F47DC05E
:102A5000853321F4399858E25A95F1F7319B03C038
:102A60001092290703C081E08093290730953093A5
:102A70003307089520E090FB25F991FB24F992FBA0
:102A800023F993FB22F92093340720912A0730E0A1
:102A900022FB35F923FB34F924FB33F925FB32F90A
:102AA00030932A0720E094FB25F995FB24F996FB47
:102AB00020F997FB21F920932907813109F43DC1C1
:102AC00020914E03843319F4222309F436C12111D5
:102AD00002C068E001C068E130E040E020E080E052
:102AE000383014F4880F07C058EF530F583010F4E3
:102AF000220F01C0440F56B170915003572359F46F
:102B0000383014F4816007C058EF530F583010F478
:102B1000216001C0416078B1509152035095572314
:102B200058B958E15A95F1F758B170915203572BA3
:102B300058B958E15A95F1F73F5F36178CF230914A
:102B4000F103811106C03D3121F481E08093DF0360
:102B500008953D3111F520E094FB25F995FB24F90A
:102B600096FB22F997FB23F9922F20E082FB21F9B3
:102B700083FB20F984FB27F985FB26F9292B209379
:102B8000290790912A0730E086FB30F987FB31F95D
:102B9000832F892B80932A07CDC03B31B1F450E0BD
:102BA00094FB55F995FB54F996FB52F997FB50F9B4
:102BB000952F50E084FB57F985FB56F986FB53F9B6
:102BC00087FB51F9592B5093290790914E03992374
:102BD00009F4B0C0343311F0822F242F880F811DE7
:102BE000082E01FA87F902FA86F903FA85F905FA3F
:102BF00083F906FA82F907FA81F980932A07220FEE
:102C0000211D022E01FA26F902FA27F903FA25F905
:102C100005FA23F906FA22F907FA21F920932B077E
:102C200089C08A3109F086C088B190915103892BFF
:102C300088B928E090912907990F9093290738B116
:102C4000809152038095832388B986B130915003D7
:102C5000832319F491609093290788B190915203CE
:102C6000892B88B9215031F780912907880F811D60
:102C7000880F811D082E02FA85F903FA84F904FAF7
:102C800083F905FA82F98093290782E090E021E038
:102C900030E058B1409152034095452348B946B1C0
:102CA00050915003452359F460913407A901082E2F
:102CB00001C0440F0A94EAF7642B6093340748B1CB
:102CC00050915203452B48B901968630910509F77A
:102CD0008091340790E082FB92F983FB95F984FBA5
:102CE00093F985FB94F99093340780E298B1209191
:102CF0005203922798B98150C9F798B18091520335
:102D00008095892388B980919C01882341F086B100
:102D100090915003892319F081E08093DF0388B1FB
:102D200090915203892B88B998B180915103809575
:102D3000892388B981E080939C0108958EE891E011
:102D40000895089508950895089583E087B98FE35D
:102D500088B9089587EB9BE00197F1F700C0000068
:102D600088B1836088B99CE19A95F1F796B1969500
:102D7000969541982CE12A95F1F786B1869586952E
:102D80002CE328B92CE12A95F1F726B12695269552
:102D9000392F3F70333021F4382F3F703F3041F0EE
:102DA00089238F7082238850833020F488E008952F
:102DB00083E0089580E00895CF938091F1038A33F2
:102DC000C1F486B1809583FF05C090912907916079
:102DD0009093290781FF05C09091290792609093F5
:102DE000290780FF4FC180912907806280932907BE
:102DF00049C188B1836088B93CE13A95F1F786B161
:102E0000869586958695A6B141989CE19A95F1F7AD
:102E1000873021F481E08093DF0334C1813009F0F1
:102E20003EC0A695A695A827A17086B1809530E0F2
:102E300082FB35F983FB34F984FB33F985FB32F9E6
:102E40003093340788B193E0892788B98CE18A955B
:102E5000F1F786B1809590E082FB95F983FB90F9BC
:102E600084FB97F985FB91F988B18C7F88B93CE1A7
:102E70003A95F1F7B6B1B09580E0B3FB82F9B4FBB7
:102E800083F9B5FB86F9B82FB92B329BA26088B1C4
:102E90008C7F88B980E820E840E860E8E7C08CE3F0
:102EA00088B99CE19A95F1F738E23A95F1F7409AA2
:102EB0008CE18A95F1F7C6B190E0C2FB93F9C3FBB0
:102EC00092F9C4FB91F9C5FB90F9C92FCC0FF0E042
:102ED000E0E080E820E840E860E8A0E0B0E0FC172F
:102EE0000CF0B8C034E23A95F1F7409B04C098B1B9
:102EF0009C7398B901C0409A94E29A95F1F7F11148
:102F00000EC096B1909530E092FB35F993FB34F901
:102F100094FB33F995FB32F93093340799C0F130C3
:102F200061F496B1909530E092FB35F993FB30F95E
:102F300094FB37F995FB31F90DC0F23069F4329BFF
:102F4000A26096B1909530E093FB32F994FB33F98F
:102F500095FB36F9B32B7CC0F33031F4329BA16082
:102F60009CE09A95F1F774C0F43009F454C0F53040
:102F7000C1F466B16695669530E1639FB001112496
:102F80006E2B660F611D062E01FA67F902FA66F9CB
:102F900003FA65F905FA63F906FA62F907FA61F9C5
:102FA00057C0F630C1F1F730C1F446B146954695A9
:102FB00090E1499FA00111244E2B440F411D042E86
:102FC00001FA47F902FA46F903FA45F905FA43F915
:102FD00006FA42F907FA41F93BC0F830E1F0F9305E
:102FE000C1F426B12695269590E1299F90011124E0
:102FF0002E2B220F211D022E01FA27F902FA26F9A3
:1030000003FA25F905FA23F906FA22F907FA21F954
:103010001FC0FA3021F4E6B1E695E69519C0FB3001
:10302000B9F486B18695869530E1839FC00111245D
:103030008E2B880F811D082E01FA87F902FA86F976
:1030400003FA85F905FA83F906FA82F907FA81F994
:10305000FF5F45CF98B1936098B99CE19A95F1F7DD
:10306000C23121F48095807FA82B80E860932C07E3
:1030700040932D0780932E0720933107B0932907A3
:10308000A0932A07CF9108958DE991E008950895BE
:1030900008950895089581E080937C0083E88093EB
:1030A0007A0017B88FEF88B914B885B90895DF9200
:1030B000EF92FF920F931F93CF93DF93D82EFB01D4
:1030C000D701E90198818095982398839C91982352
:1030D0009C93DA019C9191609C9390819E7F908358
:1030E000CFE6D7E12197F1F700C000009081916011
:1030F000908380E0F80190819D2119F48F5F8E3FCD
:10310000C9F7DF91CF911F910F91FF90EF90DF9062
:103110000895EF92FF920F931F93CF938AB1886126
:103120008AB95C985B9A83B18E3309F49AC083B1F3
:103130008B3309F498C025982D9A5B9887EB9BE018
:103140000197F1F700C0000083B18F3121F486B1FF
:103150008F3309F48AC053982598389A409887EBA2
:103160009BE00197F1F700C000004B9902C01D9B46
:1031700074C017B88FEF88B914B885B924E2E22E6D
:10318000F12C03E210E025E230E047E250E068E293
:1031900070E080E20E945718C82F3AE2E32EF12C2B
:1031A00009E210E02BE230E047E250E068E270E034
:1031B00088E00E945718C350CA3F20F483508A3FCA
:1031C00008F44DC017B88FEF88B9209A289887E285
:1031D00093E20197F1F700C000001C990AC014B8EF
:1031E0008FEF85B98AB188618AB95C985B9A81E36F
:1031F0003DC014B88FEF85B994E2E92EF12C03E2BB
:1032000010E025E230E044E250E065E270E088E062
:103210000E94571890E00B978F3E910510F486E0BE
:1032200025C084E2E82EF12C03E210E025E230E034
:1032300044E250E065E270E088E00E94571890E0B8
:103240000B978F3E910558F3549A5C98389A409AA0
:1032500053981092F10380E009C08BE207C089E225
:1032600005C089E303C088E301C084E0CF911F91CA
:103270000F91FF90EF900895EF92FF920F931F939D
:103280008091F103811105C0549A5C98389A409A54
:10329000539896B123B190958091F1038A32F1F55C
:1032A000549A5C9853985B9A91FF05C080913407BB
:1032B00084608093340794FF05C080913407886050
:1032C0008093340793FF05C0809134078061809319
:1032D000340792FF05C080913407806280933407E1
:1032E000809129074B9B02C08E7F01C08160809333
:1032F0002907E4E2EE2EF12C03E210E025E230E0B3
:1033000047E250E068E270E080E20E945718880FC0
:10331000880F98EC981B90933307A9C48B3209F05F
:1033200086C0389A409A87B1837C87B988B1837CFC
:1033300088B98AB1877E8AB93D9A87EB9BE001976D
:10334000F1F700C000004B9905C080912A07816009
:1033500080932A071D9905C080912A078260809377
:103360002A07319905C080912A07846080932A0733
:103370003D9887E592E00197F1F700C000003C9A84
:1033800087EB9BE00197F1F700C000004B9905C067
:1033900080912A07886080932A071D9905C0809133
:1033A0002A07806180932A07319905C080912A07F6
:1033B000806280932A073C983B9A87EB9BE00197B9
:1033C000F1F700C000004B9905C080912A07806486
:1033D00080932A071D9905C080912A0780688093F1
:1033E0002A07319905C080912B07816080932B07B4
:1033F0003B983A9A8FE697E10197F1F700C00000F9
:103400004B9905C080912B07826080932B071D99F3
:1034100005C080912B07846080932B07319905C0EC
:1034200080912B07886080932B073A9820C48630C0
:1034300009F0FDC03E98259A2D9A3D9A4598209A0C
:10344000289A2B98239A8FE697E10197F1F700C00D
:103450000000239880E01B9903C08F5F8E3FD9F74F
:1034600090E0880F991F8F3F910519F010F08FEFB2
:1034700090E080932D0746983E9A8FE697E101975A
:10348000F1F700C000003E9880E0369903C08F5FDE
:103490008E3FD9F790E0880F991F8F3F910519F063
:1034A00010F08FEF90E0982F80932C07369909C089
:1034B00080912D078F3F29F49F3F19F481E080937D
:1034C000DF0300000000000000000000000017B84B
:1034D00014B88FEF85B988B98AB1877E8AB98BB164
:1034E00088618BB93B9A43983B980000000000002C
:1034F000000000000000339B05C080912907816017
:1035000080932907399A41983998000000000000FB
:10351000000000000000319B05C0809129078260F7
:10352000809329073C9A449894E19A95F1F7199968
:1035300005C080912A07826080932A071A9905C0E6
:1035400080912A07816080932A071C9905C0809189
:1035500029078061809329074C9905C080912A072B
:10356000846080932A073C98449A3A9A429824E1CE
:103570002A95F1F7199905C080912A0780618093F7
:103580002A071A9905C080912A07886080932A0724
:103590001C9905C0809129078062809329074C9966
:1035A00005C080912A07806280932A073A98429A40
:1035B000389A409884E18A95F1F7199905C080916D
:1035C0002A07806880932A071A9905C080912A07E4
:1035D000806480932A071C9905C080912907846024
:1035E000809329074C9905C080912B0781608093B7
:1035F0002B073898409A539A5B9894E19A95F1F783
:10360000199905C080912B07826080932B071A9926
:1036100005C080912B07886080932B074C9905C0CB
:1036200080912B07846080932B0753987DC2409133
:10363000340730E092FB35F993FB34F994FB33F90E
:1036400095FB32F9342B30933407843009F5549AC2
:103650005C98389A409A5398539A5B9828E22A9536
:10366000F1F726B120955B9A88E28A95F1F796B139
:103670009095892F822730912907832B9223969545
:103680009170892B809329071D9BF1C28160DDC257
:10369000803309F0BDC017B89FEF98B98AB1877E13
:1036A0008AB98BB188618BB984B184B985B195B978
:1036B00088E087B987EF88B998E29A95F1F7309951
:1036C00005C080913407806280933407319905C02A
:1036D000809134078061809334074B9905C08091B5
:1036E000340788608093340780E187B98FEE88B90A
:1036F00028E22A95F1F7339905C080913407846058
:103700008093340780E187B98FEE88B988E28A9583
:10371000F1F7359905C080912907816080932907C9
:103720004C9905C08091290782608093290782E027
:1037300087B98DEF88B998E29A95F1F7359905C068
:1037400080912B07846080932B074C9905C0809152
:103750002A07806880932A07329905C080912A073A
:10376000806180932A071D9905C080912A07826095
:1037700080932A0781E087B98EEF88B928E22A95DD
:10378000F1F7359905C080912B07886080932B074E
:103790004C9905C080912B07816080932B0732994B
:1037A00005C080912A07806280932A071D9905C071
:1037B00080912A07846080932A0717B88FEF88B911
:1037C000539A5B9888E28A95F1F7359905C0809104
:1037D0002B07826080932B074C9905C080912A07A4
:1037E000806480932A07329905C080912A078860F7
:1037F00080932A071D9905C080912A0781608093D4
:103800002A078AB1877E8AB98BB188618BB92FC2AA
:10381000813019F0823209F0A8C08AB188618AB972
:10382000319905C08091290781608093290780EC38
:1038300087B98FE388B95B985C9A90E29A95F1F723
:10384000319905C08091290782608093290756B17C
:103850005695569521E030E0052E02C0220F331F09
:103860000A94E2F740E080E090E0541302C0822B1B
:10387000932B4F5F4F30C9F720912907382F80E0F5
:1038800032FB82F934FB83F9822B809329078091E4
:103890002A0720E031FB23F936FB22F937FB25F913
:1038A000282B892F90E080FB97F981FB94F984FB0A
:1038B00096F985FB91F986FB90F9292B20932A072D
:1038C00090912B0720E082FB21F983FB20F9822FC6
:1038D000892B90E033FB92F935FB93F9892B809388
:1038E0002B075C985B9A8091F103813009F4BFC18A
:1038F0003898409A25982D9A24E02A95F1F79091CE
:1039000056039093550386B180958170809356033A
:103910001D9902C022E001C020E0822B8093560353
:10392000981709F4A4C1933079F4813021F480917F
:103930002E07815F06C0823009F099C180912E0761
:103940008A5080932E0793C1913031F4823079F3FD
:10395000833009F08CC1F2CF923009F088C18330F6
:1039600031F3813009F083C1E9CF91FF05C0309177
:1039700029073160309329072095813351F425FFC1
:1039800005C08091290784608093290790FFCEC0ED
:1039900010C0811114C03898409A8AB188618AB9E0
:1039A0005C985B9A88E28A95F1F7309B02C025FF0C
:1039B000BDC080912907826080932907B7C025FF89
:1039C00005C03091290732603093290790FF05C068
:1039D000909129079460909329078853823008F0CA
:1039E000A5C088B18FEF88B985B9109229071092C8
:1039F0002A07309903C084E080932907319905C0D4
:103A0000809129078160809329071C9905C08091C6
:103A100029078860809329071D9905C0809129078F
:103A20008260809329078091F103883309F049C0AF
:103A300010922907319903C081E080932A071D99CC
:103A400005C080912A07826080932A07309903C0BD
:103A500084E080932907369905C080912907826008
:103A600080932907199905C0809129078061809367
:103A70002907189905C08091290780648093290738
:103A80001A9905C0809129078062809329071C99A3
:103A900005C0809129078160809329078AB1877EBC
:103AA0008AB98BB188618BB94B9905C08091290780
:103AB0008860809329074C99DAC080912907806833
:103AC000C4C080912907982F81FF02C0946001C073
:103AD0009B7F909329079091290782FF02C09260F3
:103AE00001C09D7F90932907369905C080912907D1
:103AF000806480932907199905C0809129078068FF
:103B0000809329071A9905C08091290780618093C5
:103B100029071B9905C08091290780628093290796
:103B20008AB188618AB95C985B9AA1C020FF05C000
:103B30008091290788608093290721FF05C0809123
:103B4000290780648093290722FF05C080912907F7
:103B500080618093290723FF05C080912907806237
:103B6000809329078091F103813309F471C024FF08
:103B700009C08091290780688093290703C014B881
:103B80008FEF85B98091F103893209F070C054E25A
:103B9000E52EF12C03E210E025E230E047E250E0B0
:103BA00068E270E080E20E94571880959091580377
:103BB000981718F4282F291B02C0292F281B83309F
:103BC00048F030E0233031052CF0809332078093A9
:103BD000580302C0909332074AE2E42EF12C09E226
:103BE00010E02BE230E047E250E068E270E088E06D
:103BF0000E945718809590915703981718F4282F12
:103C0000291B02C0292F281B30E0233031052CF05E
:103C1000809333078093570302C0909333078091BA
:103C2000340785FF08C08F7D809334078091290772
:103C30008260809329078091340784FF18C08F7EAB
:103C400080933407809129078460809329070FC0EF
:103C5000189B0DC0209A289887EB9BE00197F1F7FD
:103C600000C000001C9B8BCF81E08093DF031F917D
:103C70000F91FF90EF9008958BEA91E008950895D9
:103C800008950895089517B88FE388B914B88FEF91
:103C900085B9089587B1836087B918B884E08A959B
:103CA000F1F787B18C7F87B984E08A95F1F786B107
:103CB0008370833011F48BE0089580E00895E9E586
:103CC000F3E080E090E040E250E09A01082E02C06C
:103CD000359527950A94E2F768B1A22FA0956A233B
:103CE00068B967B1622B67B964E06A95F1F776B19C
:103CF0007370708363B168736695672B6083189BDC
:103D000002C06062608338B1322B38B927B12A23F0
:103D100027B90196319684309105B9F6309159034F
:103D2000832F837019F481E08093DF03309590E056
:103D300030FB94F940915A03842F80958170982B21
:103D400080915B03809520E080FB21F9922B2091EC
:103D50005C03522F509560E050FB67F951FB65F909
:103D6000962B9093290750E033FB55F934FB52F919
:103D7000409590E042FB97F943FB94F944FB91F99D
:103D8000952B50E082FB56F983FB53F984FB50F9E5
:103D9000952B90932A0790E032FB90F950E085FB39
:103DA00051F9852F892B60E035FB63F9862B90E074
:103DB00045FB92F9892B80932B0724FD04C0809149
:103DC0003407806205C023FD05C0809134078061FF
:103DD0008093340722FD04C080913407886005C0B9
:103DE00025FD05C0809134078460809334071092CC
:103DF000590310925A0310925B0310925C030895CA
:103E000089EB91E00895089508950895089588B183
:103E1000806388B908958091BC0087FFFCCF8091B2
:103E2000B900887F08959F92AF92BF92CF92DF92A0
:103E3000EF92FF920F931F93CF93DF93B82E6B01F6
:103E4000942EA52E79016115710561F421153105B6
:103E500009F477C084EA8093BC000E940B1F803174
:103E600089F532C084EA8093BC000E940B1F883021
:103E700009F06AC08B2D880F8093BB0084E8809383
:103E8000BC000E940B1F883109F047C0C92DDA2DF4
:103E9000CC0EDD1E24E8A22ECC15DD0559F089914B
:103EA0008093BB00A092BC000E940B1F8832A1F33C
:103EB00023E038C0E114F10469F684E98093BC0082
:103EC00080E043C0883059F58B2D880F8160809346
:103ED000BB0084E88093BC000E940B1F803409F56E
:103EE000E701219784E8F82E94ECE92ECF3FFFEF0D
:103EF000DF0719F3209719F0E092BC0002C0F0929E
:103F0000BC000E940B1F2197877F8035B1F68091FE
:103F1000BB00F80181938F01E9CF22E003C024E0C8
:103F200001C025E090E0803A31F0883F81F088338D
:103F300021F484E803C084EA01C084E98093BC00D2
:103F400006C08FEF9FEF04C081E090E001C0822F98
:103F5000DF91CF911F910F91FF90EF90DF90CF9065
:103F6000BF90AF909F900895AF92BF92CF92DF9293
:103F7000EF920F931F93CF93DF931F92CDB7DEB7CE
:103F800089835B016A01E12C00E010E020E030E071
:103F9000AE014F5F5F4F61E070E082E50E94131F4A
:103FA000811117C08FEA94E00197F1F700C000007B
:103FB0008501960140E050E060E070E082E50E94FB
:103FC000131F811106C0EFEAF4E03197F1F700C04A
:103FD00000000F90DF91CF911F910F91EF90DF9034
:103FE000CF90BF90AF900895EF920F931F93CF9310
:103FF000DF93CDB7DEB760970FB6F894DEBF0FBE84
:10400000CDBF84E38093B8008091B9008C7F80930A
:10401000B90010915E0311113FC080EF898385E5DF
:104020008A83E12C00E010E020E030E0AE014F5F39
:104030005F4F62E070E082E50E94131FEFEAF4E058
:104040003197F1F700C00000811137C18BEF8983F0
:104050001A8220E030E0AE014F5F5F4F62E070E017
:1040600082E50E94131FEFEAF4E03197F1F700C0F8
:104070000000811122C142E050E0BE016F5F7F4F1E
:104080008EEF0E94B41F811118C18A818093D501DF
:1040900081E080935E0311C1113009F0EEC046E06B
:1040A00050E0BE016F5F7F4F80E00E94B41F882305
:1040B00061F080915D03811102C01093DF0380EFF6
:1040C0008093D50110925E03F8C010925D03809139
:1040D000D501853009F4F1C030F4813009F44CC0C9
:1040E000833039F449C0813109F446C0803F09F476
:1040F000E4C0E9817A817095FE818B8124E0829F02
:10410000C00111248A5F91092F2F2C7030E0359562
:10411000279535952795822B932B96958795682F14
:104120004C8184E0489FA0011124CA018A5F910953
:104130002F2F207330E0A4E035952795AA95E1F75D
:10414000822B932B96958795282F4D8194E0499F3C
:10415000A0011124CA018A5F91093F2F329536953B
:1041600036953370832B969587959F2F90959170F8
:10417000F1FD8CC092608AC06981E62FEE0FEE0FD0
:104180009A81F4E09F9F90011124722F70958B818A
:10419000907C929596959770607C669566956695ED
:1041A000692B982F991F9927991F692B660F660F06
:1041B000660F282F220F220F220F2095AC813D8100
:1041C000F32FF09590E0F1FB97F9F2FB95F9F4FBF2
:1041D00094F9F5FB96F9F92F5E81452F409590E013
:1041E00043FB93F944FB91F945FB92F946FB90F9A7
:1041F0009F2BF0E042FBF1F947FBF0F94F2F33FD25
:1042000005C0F0912B07F460F0932B0750FD05C01B
:10421000F0913407F460F093340737FD05C0F09156
:104220003407F062F093340751FD05C05091340714
:1042300050615093340736FD05C030913407386023
:1042400030933407E11106C07F3F21F420E860E895
:1042500070E8E0E83091DE0331111BC03A2F330FD4
:10426000330F330F807686958695A295A695A77015
:104270008A2B880F880F880F0EC080E030E02FEF68
:104280006FEF40E090E070E8E0E805C030E040E02B
:1042900002C080E030E09093290740932A07E09322
:1042A0002C0770932D0760932F072093300780937E
:1042B0002E07309331071092BC0060960FB6F89429
:1042C000DEBF0FBECDBFDF91CF911F910F91EF9059
:1042D000089588B18C7F88B987B1836087B986B12A
:1042E0008033D8F081E080935D030E94F41F109228
:1042F000BC008091D501803F81F0882341F081305E
:1043000041F0833041F0813141F487E308958DE03D
:1043100008958FE1089580E2089580E0089587EC84
:1043200091E0089508951092DB038FE284B98FEF36
:1043300085B98FE78CBD1DBC80911507811103C025
:104340008DE08093150780912507811103C08EE0D1
:10435000809325078091DD03811103C083E1809361
:10436000DD038091ED03811103C084E18093ED03AF
:104370000895883708F488E780937703609375037E
:104380000895882321F08FEF8093780302C0109264
:1043900078036093760308958EBD0DB407FEFDCFBC
:1043A0008091F403811102C00E94FA028EB5EBE203
:1043B000F1E03197F1F700C000000895FF920F93EC
:1043C0001F93CF93DF93CDB7DEB7A0970FB6F894C6
:1043D000DEBF0FBECDBF2B9A239A8CB580648CBDF7
:1043E0008BE291E00197F1F700C0000029988BE281
:1043F00091E00197F1F700C00000F12C80912607B1
:10440000F81688F40F2D10E0F801E05FF94F808175
:104410000E94CC21E1E0F0E0EC0FFD1FE00FF11F66
:104420008083F394EBCF299A87E592E00197F1F727
:1044300000C000008CB58F7B8CBD10912607412FEA
:1044400050E0BE016F5F7F4F81E196E00E946434CF
:1044500010931006A0960FB6F894DEBF0FBECDBF26
:10446000DF91CF911F910F91FF900895CF93DF932C
:10447000C3E083E00E94CC2129988BE291E0019770
:10448000F1F700C0000081E00E94CC2182E40E948C
:10449000CC21D82F80E00E94CC2180E00E94CC214A
:1044A00080E00E94CC21299A87E592E00197F1F7FC
:1044B00000C000008FEF8D0F8E3F48F481E00E9416
:1044C000CC2181E080935F038093DB0308C087EBFE
:1044D0009BE00197F1F700C00000C15051F69CB578
:1044E0009F7B9CBD8091DB03882311F08D2F01C041
:1044F00080E0DF91CF91089529988BE291E00197B8
:10450000F1F700C0000081E00E94CC218DE40E9400
:10451000CC2180E00E94CC2180E00E94CC2181E06F
:104520000E94CC218FEF0E94CC218FEF0E94CC21E2
:104530008FEF0E94CC218FEF0E94CC21299A87E532
:1045400092E00197F1F700C000000895CF932998F9
:104550008BE291E00197F1F700C0000081E00E943A
:10456000CC2185E40E94CC2180E00E94CC218AE508
:104570000E94CC21C5E08AE50E94CC21C150D9F728
:10458000299A87E592E00197F1F700C00000CF91EA
:104590000895CF93C82F29988BE291E00197F1F706
:1045A00000C0000081E00E94CC2183E40E94CC2165
:1045B00080E00E94CC218C2F0E94CC2180E00E94C0
:1045C000CC21CC2349F0299A87E592E00197F1F7B5
:1045D00000C00000CF9108958AE50E94CC218AE5B1
:1045E0000E94CC218AE50E94CC218AE50E94CC2140
:1045F000EACFCF93DF932B9A239A8CB580648CBD3E
:104600008BE291E00197F1F700C000002998EBE2FE
:10461000F1E03197F1F700C0000080917803882322
:1046200059F080917603882321F08150809376039E
:1046300005C01092780302C0109276038091770330
:10464000882359F080917503882321F0815080934D
:10465000750305C01092770302C01092750381E0C4
:104660000E94CC2182E40E94CC218093610380E0EF
:104670000E94CC21C82F809178030E94CC21809386
:104680006303809177030E94CC218093640380911F
:104690006103833E19F48FE7809361038091610386
:1046A000833219F483E380936103CC2381F0CA350C
:1046B00071F0299A87E592E00197F1F700C00000B8
:1046C000CF3F09F45CC181E08093F00352C1809137
:1046D00061039091F103891741F091E0813419F061
:1046E00090935F0302C09093DE038093F1038134C3
:1046F00031F481E080936603809365032AC0893793
:1047000059F4C5E6D3E080E00E94CC21899393E080
:10471000C537D907C1F71DC080E00E94CC21809326
:10472000650380E00E94CC218093660380E00E94B4
:10473000CC21809367038091F103833529F480E0D5
:104740000E94CC21809503C080E00E94CC21809300
:104750006803299A80915F03882309F48AC0ECEFEB
:10476000F2E03197F1F700C0000010925F038091F2
:10477000F1038134B1F181E00E94C9220E947C22C0
:104780000E947C2229988BE291E00197F1F700C00A
:10479000000081E00E94CC218FE40E94CC2180E0C7
:1047A0000E94CC218FEF0E94CC218FEF0E94CC2160
:1047B00083E00E94CC2180E00E94CC2180E00E9416
:1047C000CC2180E00E94CC21299AE7E5F2E03197E4
:1047D000F1F700C000000E94A62280E00E94C922DA
:1047E00048C081E00E94C9220E94A62229988BE23B
:1047F00091E00197F1F700C0000081E00E94CC2118
:1048000084E40E94CC2180E00E94CC2181E00E94BF
:10481000CC2180E00E94CC2180E00E94CC2180E06D
:104820000E94CC2180E00E94CC2180E00E94CC211B
:10483000299AE7E5F2E03197F1F700C0000080E047
:104840000E94C92229988BE291E00197F1F700C0FC
:10485000000081E00E94CC2182E40E94CC21299AB0
:10486000E7E5F2E03197F1F700C00000813409F08C
:1048700082CF909164039095392F329580E0832701
:104880008D73832730FB83F932FB80F933FB82F988
:10489000382F80916303809520E080FB24F983FB0F
:1048A00025F9232B20932907937020E081FB26F91B
:1048B00082FB27F9292B20932A0790913407E0E007
:1048C00084FBE2F985FBE5F986FBE3F987FBE4F974
:1048D0008E2F892B809334072091650330916603D6
:1048E000832F90E0820F911D029709F442C020931C
:1048F0002F07309330078091670380932C078091B6
:10490000680380932D078091F103893791F5E9E6DB
:10491000F3E0A6E1B7E081918D9323E0E537F2075C
:10492000D1F7E0911507E53131F0F0E0E05AFC4FA6
:10493000808180933207E0912507E53131F0F0E086
:10494000E05AFC4F808180933307E091DD03E5312D
:1049500031F0F0E0E05AFC4F808180932E07E09127
:10496000ED03E53131F0F0E0E05AFC4F80818093B7
:1049700031078CB58F7B8CBDDF91CF91089581E09D
:104980008093DF03F6CF86ED91E0089528E030E0D4
:1049900040E89FE26FE07FE3592F5095E42FE82332
:1049A00098B9EE2319F078B958B901C068B9952FB4
:1049B0004695215031092115310571F70895CF929F
:1049C000DF92EF92FF920F931F93CF93DF931F928B
:1049D000CDB7DEB78C01F12CE12CF61684F468011A
:1049E000CF0CD11CF7FCDA94F601808169830E9418
:1049F000C624F6018081E826F3946981EECF8E2DDE
:104A00000F90DF91CF911F910F91FF90EF90DF906A
:104A1000CF9008958FE387B988B98FE188B988E08E
:104A200020E198B1922798B98150D9F78FE388B9DE
:104A300008958FE387B988B98FE288B984E020E2CE
:104A400098B1922798B98150D9F78FE388B9089522
:104A50000E940A2568E088EE91E00E94DF240E940F
:104A6000C6240C94192580917B03882311F080E1E2
:104A7000089580E0089560937C03089560937C031B
:104A800008950E940A256091260780E196E00E9421
:104A9000DF240E94C6240E94192540E051E061E015
:104AA00070E080E196E00E946D3488E0809310060B
:104AB0008FEF8093110608951F93CF93DF93182FE4
:104AC000D42F411101C0D1E0C62FC295C695C77041
:104AD00009F4C1E0C295C07FC0680E940A2582E047
:104AE0000E94C62480E00E94C624812F0E94C62412
:104AF0008EE00E94C62480E00E94C62481E00E94CD
:104B0000C62480E00E94C62480E00E94C6248D2F27
:104B10000E94C62482E30E94C6248C2F0E94C624D1
:104B200080E10E94C6248FE281278D278C270E9476
:104B3000C6240E94192583E893E00197F1F700C08D
:104B40000000DF91CF911F9108951092E30380E35D
:104B500088B910927B0381E080937A0310927903E5
:104B60000E940A2564E084EE91E00E94DF240E9406
:104B7000C6240E94192587EB9BE00197F1F700C03E
:104B800000008FEF87B90E9428258091F4038111DE
:104B900002C0E89801C078948FEC87B980E388B9A7
:104BA00082E08093680080E180936C008EEC90E05E
:104BB0000197F1F700C000001092680010926C009D
:104BC0008091F403811102C0E89A01C0F8948FEF3C
:104BD00087B98091E303882329F081E080937B03E8
:104BE0008093F3038FEF87B910926C0008951092B1
:104BF00068001092E3038FEF87B98091F40381116D
:104C000002C0E89801C078940E94282580E388B902
:104C10008FEC87B982E08093680080E180936C001C
:104C20008EEC90E00197F1F700C000001092680050
:104C300010926C0010926C008091F403811102C0FC
:104C4000E89A01C0F8942091E303211108C081E0A3
:104C50008093DF03109279038FEF87B908958FEF68
:104C600087B95091E1034091E2038091E403382F2A
:104C7000309590E030FB97F931FB91F932FB90F9D8
:104C800033FB95F9392F922F909560E090FB66F9F0
:104C900091FB63F992FB62F993FB64F9962F932BD6
:104CA0009093290794FF03C033E23093F1033091CE
:104CB000F103333251F42095322F32953370309313
:104CC0002A07207C292B20932907209129075B3F65
:104CD00010F090E401C090E0292B4B3F10F090E8D9
:104CE00001C090E0922B909329078095859585953A
:104CF0008C738093340750932E0740933107809133
:104D0000E70380932D078091E80380932C07089593
:104D10000F931F93CF93DF9380917C038230A8F091
:104D20008F3F19F0815080937C038091790380FF3D
:104D300005C04FEF6FEF81E00E945C258091790301
:104D400081FF47C04FEF6FEF13C08130A9F410927D
:104D50007C038091790380FF05C040E060E081E042
:104D60000E945C258091790381FF33C040E060E0C0
:104D700082E00E945C252DC0C0917A030E940A2522
:104D800080E00E94C62480E00E94C6248C2F0E94EE
:104D9000C62481E00E94C62481E08C270E94C6249C
:104DA0000E94192580E388B98FEC87B994E286B117
:104DB0008073803309F059C028E22A95F1F79150A9
:104DC000B1F7C095809179038C23809379038FEF9D
:104DD00087B98091F3038130C1F580917A038130E6
:104DE000A1F58091790380FF30C08FE697E10197AC
:104DF000F1F700C000001092F3030E940A256CE056
:104E000080EF91E00E94DF24182FC0E0D0E0CE01B7
:104E100023E0822780569F4F0E947434082F0E94FF
:104E2000C62410272196C03CD10589F7812F0E9406
:104E3000C6240E94192580E388B98FEC87B987E5DD
:104E400092E00197F1F700C0000080917A03813071
:104E500011F482E001C081E080937A038FEF87B97B
:104E6000DF91CF911F910F9108959CE29A95F1F7F0
:104E700084E296B19073903331F498E09A95F1F70B
:104E80008150B9F7A4CF80917903282F30E04C2FBF
:104E9000552747FD5095242335232417350709F45A
:104EA00096CFC82BC09379038AE080937C038FCF81
:104EB0008CEF91E008956093A003909118029530D3
:104EC00069F0992359F0882321F0933039F082E07A
:104ED00003C0913019F084E08093180208950C9477
:104EE0005B2708950C94340D0C94570D83E0809348
:104EF0007D0380E880937E0381E080937F0340E21E
:104F000050E060E870E080E893E00E946D3463E276
:104F10008DE793E00E94130D91E0813009F490E059
:104F2000892F8195089593E090937D0390EC909361
:104F30007E039BE190937F0361E070E0811102C0EA
:104F400060E070E040E250E080E893E00E946D3461
:104F500063E28DE793E00E94130D91E0813009F444
:104F600090E0892F819508950E94020D1092A00370
:104F70000895CF93C1E0C0937D0361E08DE793E096
:104F80000E94130D811103C0C093DF03C0C08430A1
:104F900019F0C093F003BBC080E00E940D0DC82F34
:104FA00081E00E940D0D20E0C4FB25F9C5FB24F92A
:104FB000C6FB20F9C7FB21F9982F990F30E039275C
:104FC000337B392795FB37F9932F922B9093290741
:104FD00090E080FB91F983FB90F990932A07C3FF3F
:104FE00005C080913407846080933407C2FF05C0F8
:104FF00080913407886080933407C1FF05C0809199
:105000003407806180933407C0FF05C08091340766
:1050100080628093340782E00E940D0DC82F83E0E8
:105020000E940D0DCF3F09F4C0E0C158C0932C077A
:105030009FE7982790932D0738E23A95F1F7109261
:105040007D0361E08DE793E00E94130D833011F042
:105050001092180282E00E940D0D813039F4809187
:105060001802853041F41092180205C0823019F4FC
:1050700085E0809318028091A003882321F081505D
:105080008093A00307C080911802833019F484E054
:1050900080931802809118028230D9F028F4882376
:1050A00041F0813051F133C08330F9F08430B9F0F0
:1050B0002EC00E947627882331F00E94762788230D
:1050C00031F185E022C08091A00381111AC080E0F7
:1050D00010C081E00E949327811119C015C080E0A3
:1050E0000E949327811113C006C08091A0038111F3
:1050F0000EC00E94932781E008C08091A0038823FE
:1051000031F081E00E94932783E080931802CF91D1
:1051100008958AE092E0089508950895089517B8D3
:105120008FE388B908958FE188B982EC90E0019708
:10513000F1F700C000008FE388B908958FE387B9C5
:105140008FE188B987EE98E00197F1F700C0000081
:1051500008958FE188B984E78A95F1F78FE388B9DC
:1051600081ED90E00197F1F700C000008FE188B970
:10517000089527E030E090E06FE37FE144E84A954E
:10518000F1F7AC01022E02C0559547950A94E2F75B
:1051900040FF08C068B9E2ECF0E03197F1F700C0D9
:1051A000000007C0F8E7FA95F1F768B94CE84A95AE
:1051B000F1F778B92150310908F70895CF93C82F36
:1051C0000E949E280E94A9288C2F8C630E94B928D7
:1051D0000E94932817B89EEF84E08A95F1F73599DD
:1051E0006CC0ECEAEA95F1F728E030E040E050E0EE
:1051F000BA0180E8EBE2F1E03197F1F700C000007E
:105200003599482B8695215031092115310591F7A3
:10521000762F652F542F442728E030E080E8EBE21A
:10522000F1E03197F1F700C000003599482B8695E1
:10523000215031092115310591F7762F652F542F13
:105240004427C11135C088E090E020E8203829F4D7
:10525000EDE0F1E03197F1F704C0EBE2F1E03197D6
:10526000F1F700C000003599422B00002695019708
:10527000009761F7B62FA52F942F8827EFEAF4E067
:105280003197F1F700C0000024E030E048E0EBE2A5
:10529000F1E03197F1F700C000003599842B469575
:1052A000215031092115310591F7BC01CD010BC009
:1052B000992777FD9095892F06C0915009F08CCFE2
:1052C00060E070E0CB01CF9108958F929F92AF92F2
:1052D000BF92CF92DF92EF92FF920F931F9380E0E5
:1052E0000E94DE28872E982EA92EBB24A7FCBA94F4
:1052F000882009F45EC0092F332707FD3095132F4E
:10530000232F402F441F4427441F53E0541B452F95
:105310006C01FF24D7FCF094EF2CC7FC4D7F5C2D73
:10532000C6FE04C050955F77519501C05F7706FFB8
:1053300004C000950F77019501C00F7720E8250F75
:1053400020932C07005800932D071092A30320E808
:1053500020932802209327028094609580E082FAAF
:1053600082F983FA84F984FA85F985FA83F98093BE
:10537000A20380E080FA83F981FA82F986FA80F943
:1053800087FA81F990E4499F40011124882960FD42
:1053900080618093A10361FF05C08091A3038460B5
:1053A0008093A30362FF05C08091A1038062809374
:1053B000A1038091A103809329078091A203809388
:1053C00034078091A30380932A071F910F91FF90C8
:1053D000EF90DF90CF90BF90AF909F908F90089507
:1053E00083E00E94DE28672B682B692B11F08AE08E
:1053F00008950895E89883E00E94DE28672B682BC3
:10540000692B21F481E08093DF0323C0E89A8BEDC0
:1054100095E00197F1F700C00000E8980E949E28EF
:105420000E94A9288BE30E94B9280E94932887E54F
:1054300092E00197F1F700C000000E94A92883E6DE
:105440000E94B92886E40E94B9280E94932817B8C0
:10545000449AE89A089589E192E00895089508959C
:105460000895089517B814B88FE388B98FEF85B9F8
:10547000089554985C9A539A5B9815B825982D9A7C
:1054800018B817B82FE128B9E7EBFBE03197F1F72F
:1054900000C0000026B126951D9902C02E7F01C0D4
:1054A000216020952F712A3150F430E0F901ED523E
:1054B000FD4F4081F901E754FD4F208102C020E0FB
:1054C00040E0FC014083FB0120830895EF92FF92AE
:1054D0000F931F93CF93DF9300D000D0CDB7DEB7EB
:1054E000BE016F5F7F4FCE0102960E94392A83E092
:1054F00087B98CE388B988E384B987EC85B987EBF1
:105500009BE00197F1F700C0000026B125FB2227A0
:1055100020F981E02827349B2260339B24604C9B38
:1055200028608CE387B983E088B985B1877C85B929
:1055300084B1877C84B985B1886385B987EB9BE0AA
:105540000197F1F700C0000086B18695817091E067
:105550008927309B82604C9B846030E1839FC0012F
:105560001124822B40978D33910540F4FC01EE0FFE
:10557000FF1FE15CFD4F0081118102C000E010E0DF
:1055800083E088B988B18C7F88B987EB9BE001976D
:10559000F1F700C0000086B1813009F4106486B1D3
:1055A000823009F4106286B1811101C0106878015F
:1055B0009FE1F922E114F10421F08091A4038C838E
:1055C00015C0BE016D5F7F4FCE0104960E94392A3F
:1055D0008C819A81891721F08091A4038C8302C069
:1055E0008093A4038B819981891721F08091A30373
:1055F0008B8302C08093A3039C818FE3989F902D9F
:105600001124905890932C079B81989F802D1124F2
:10561000805880932D07012F11270295069507705A
:1056200000932907E0922A07F0922B070F900F9022
:105630000F900F90DF91CF911F910F91FF90EF90FE
:10564000089587EB9BE00197F1F700C0000086B159
:10565000837011F48EE0089580E0089589E292E06D
:105660000895A82FB92F80E090E041E050EA6095BE
:1056700030E009C02D9182279795879510F08427F7
:105680009527305EC8F36F5FA8F30895EADF8D9326
:105690009D930895CF93CFB7CF93C395489BE9F7D8
:1056A000489B09C0489B07C0489B05C0489B03C056
:1056B000489B01C0A6C0DF93C091BE03DD27CB533A
:1056C000DC4F489B02C0DF91EBCF2F930F931F93CA
:1056D00009B12FEF00FB20F94F933F9319B14FEF22
:1056E000012700FB21F93BE031C04E7F012F19B1AA
:1056F000216028C0102F4D7F2260000009B129C011
:105700004B7F2460012F000019B12BC019B1477FD6
:1057100028602AC04F7E09B120612CC04F7D19B18D
:1057200020622FC04F7B09B1206432C0422709B1EB
:1057300049934FEF0000102710FB20F919B11570A5
:10574000C9F1297F91F2012700FB21F909B1237FDB
:1057500089F2315058F1102710FB22F919B1277E38
:1057600079F2012700FB23F92F7C81F209B1102780
:1057700010FB24F92F7971F200C019B1012700FB49
:1057800025F92F7359F200C009B1102710FB26F933
:10579000223040F200C019B1012700FB27F9243064
:1057A00028F64F77206819B10000F9CF11E01CBB33
:1057B00000271CC03B503195C31BD04011E01CBBDF
:1057C0000881033C11F10B3401F12091BC031981D4
:1057D000110F1213EDCF4A81441F093659F10D32D2
:1057E00011F0013E29F74F7009F0042F0093C30315
:1057F0003F914F911F910F912F91DF91CCB3C0FD3D
:105800004CCFCF91CFBFCF9118952091C3032223C6
:1058100079F31091C103112369F534306AF13093A3
:10582000C1032093BD031091BE033BE0311B3093B5
:10583000BE0322C00091C1030130E4F40AE54F70B9
:1058400049F43091020134FD19C000930201C5EA08
:10585000D3E018C03091B00334FD10C00093B00302
:10586000C1EBD3E00FC02795A8F45150A9F4220F43
:105870000000F9CF4AE503C042ED01C0432FC4E167
:10588000D0E032E01AB11560589A1AB90BB120E491
:1058900015E05F93012756E00BB9279520F451508E
:1058A00021F4220FF9CF012756E000003B5A0BB933
:1058B000D0F2279528F4515029F4220F0000F9CF97
:1058C000012756E027950BB920F4515021F4220FFF
:1058D000F9CF012756E0299133230BB921F60A7F2E
:1058E0001091C203110FC651D0400BB911F01093A3
:1058F000BC0311E01CBB01601AB11A7F402F4A7F24
:105900005F9100C000C00BB91AB94BB971CF35997E
:10591000189590E09093680090936C00359BF7CFBA
:105920000F920FB60F922F933F93AF93BF93A0EEBA
:10593000B3E0221B34E093EB9A95F1F70000349B1F
:10594000FECF92E09A95F1F7000000000000000001
:10595000349908942D932227221F00000000000094
:1059600035990894221F92E09A95F1F7349908949A
:10597000221F92E09A95F1F735990894221F92E040
:105980009A95F1F734990894221F92E09A95F1F7CD
:1059900035990894221F92E09A95F1F7349908946A
:1059A000221F92E09A95F1F735990894221F3A95B3
:1059B00061F635E0349908942D932227221F0000C8
:1059C0000000000035990894221F92E09A95F1F7A3
:1059D00034990894221F92E09A95F1F7359908942A
:1059E000221F92E09A95F1F734990894221F92E0D1
:1059F0009A95F1F735990894221F92E09A95F1F75C
:105A000034990894221F92E09A95F1F735990894F9
:105A1000221F3A9529F035990C94DA2C0C94DA2C43
:105A2000BF91AF913F912F910F900FBE0F9018959E
:105A300098EC9A95F1F798EC9A95F1F798EC9A957D
:105A4000F1F718950F9329E0E82FF92FA62FB72F1C
:105A500001912A9511F4019128E0002B62F000C019
:105A6000000F3D9A5BE01AD000003D98000013C083
:105A7000119779F716C0000F3D9A51E00FD0000042
:105A8000000000003D9856E009D000000000000032
:105A90000000000000001197E1F603C05A95F1F7ED
:105AA00008950F9100000895E82FF92F88270F938C
:105AB00028E04427359BFECF04C028E041934427CB
:105AC000839500E80A95A1F03599FCCF000000000D
:105AD00053E0E4DF889435990894441F00E80A9560
