:100000000C94B6020C94AF2C0C94D3020C94D30233
:100010000C94EC2D0C94D3020C94D3020C94D302C8
:100020000C94D3020C94D3020C94D3020C94D302FC
:100030000C94D3020C94D3020C94D3020C94D302EC
:100040000C94D3020C94D3020C94D3020C94D302DC
:100050000C94D3020C94D3020C94D3020C94D302CC
:100060000C94D3020C94D302140342004C004900B8
:10007000530053002D0042004F00580004030904B0
:1000800005010905A10185010509190129181500B6
:100090002501750195188102A1000501093009317A
:1000A000093209330934093509360937150026FFA5
:1000B00000350046FF00750895088102C00501253E
:1000C00007463B01750495016514093981426500B5
:1000D000950181010601FF094975019501810225FC
:1000E0000175078103050F0992A1028502099F0985
:1000F000A009A509A6150025013500450175019542
:1001000005810295038103099415002501350045F9
:100110000175019501810209221501252835014546
:1001200028750795018102C00921A10285010922D4
:1001300015012528350145287508950191020925E5
:10014000A102092609270930093109320933093486
:1001500009400941094209430928250315013501D0
:100160004503750895019100C009500954095115BE
:100170000026FF7F350046FF7F66031055FD751092
:100180009503910255006600000952150026FF00F4
:100190003500461027750895019102095315012570
:1001A00008350145087508950191020955A1020518
:1001B000010930093115002501750195029102C030
:1001C000050F095695019102950591030957A10262
:1001D0000B01000A000B02000A0066140055FE1510
:1001E0000026FF00350047A08C000066000075085F
:1001F000950291025500660000C0050F09A766032D
:100200001055FD150026FF7F350046FF7F751095C0
:100210000191026600005500C0050F095AA1028530
:1002200002092215012528350145287508950191F7
:1002300002095B095D150026FF0035004610279571
:10024000029102095C095E66031055FD26FF7F4698
:10025000FF7F7510910245006600005500C0095FE0
:10026000A1028503092215012528350145287508B5
:1002700095019102092315002501350045017504FA
:10028000950191020958A1020B01000A000B02001E
:100290000A00750295029102C01580257F36F0D8BC
:1002A000461027096075089501910236F0D846106E
:1002B000270961096295029102150026FF003500A9
:1002C000461027096309647508950291020965467D
:1002D000102795019102C0096EA10285040922151B
:1002E00001252835014528750895019102097015E9
:1002F0000026FF0035004610277508950191020978
:100300006F1580257F36F0D8461027950191020998
:100310007166140055FE150026FF00350047A08CBD
:1003200000009102097226FF7F46FF7F6603105589
:10033000FD7510950191026600005500C00973A17A
:1003400002850509221501252835014528750895DE
:1003500001910209701601FF26FF0036F0D8461001
:1003600027751095019102C00974A1028506092222
:100370001501252835014528750895019102097553
:1003800009761580257F36F0D84610277508950226
:100390009102C00966A102850805010930093115DD
:1003A00081257F350046FF00750895029102C00542
:1003B0000F0977A102850A09221501252835014573
:1003C000287508950191020978A1020979097A092D
:1003D0007B15012503750895019100C0097C150066
:1003E00026FF00350046FF009102C00990A102855A
:1003F0000B0922252815013501452875089501911D
:1004000002C00996A102850C099709980999099AD1
:10041000099B099C15012506750895019100C009E5
:100420007DA102850D097E150026FF0035004610CE
:1004300027750895019102C009ABA102850F092516
:10044000A102092609270930093109320933093483
:1004500009400941094209430928250315013501CD
:10046000450375089501B100C00501093B1500263B
:10047000FF01350046FF01750A9501B1027506B10D
:1004800001C0050F0989A10285020922252815014D
:100490003501452875089501B102098BA102098C27
:1004A000098D098E25031501350145037508950150
:1004B000B100C009AC150027FFFF0000350047FF61
:1004C000FF000075109501B100C0097FA1028503EE
:1004D0000980751095011500350027FFFF000047C2
:1004E000FFFF0000B102098326FF0046FF007508E8
:1004F0009501B10209A909AA750195021500250106
:1005000035004501B10275069501B103C00901A18D
:1005100001150026FF0075088510950D0900B2022F
:1005200001851195050900B202018515950D090097
:10053000B2020185169600010900B20201851795E5
:10054000300900B20201851295080900B202018546
:1005500013951C0900B20201851895C00900B2026A
:1005600001851495C40900B20201C0C011241FBE48
:10057000CFEFD8E0DEBFCDBF13E0A0E0B1E0E8EF01
:10058000F8E602C005900D92A233B107D9F728E032
:10059000A2E3B3E001C01D92A434B207E1F70E94C8
:1005A000872E0C947A340C940000CF93C62F2091A0
:1005B000BC0324FF07C02091BD0338E82327209304
:1005C000BD0303C02AE52093BC03DC01EEEBF3E09E
:1005D0009C2F9E0F8D918193892F8E1B1816D4F31B
:1005E0006C2F8EEB93E00E94AB2CCC5FC093BC03CE
:1005F000CF910895CF93DF936091CD03635067FD52
:10060000DFC08091CA03CCE0D0E0C81BD109CF5233
:10061000DC4F8091C903803120F4CE010E94620832
:10062000C9C08D3209F0B3C0683009F0C3C083EC93
:100630008093B1038AE5809302011092320388818E
:10064000807621F0CE010E94660789C09A811092BF
:10065000BA038981811107C01092BB032AEB33E0F2
:1006600082E090E078C0853019F49093CE036FC09B
:10067000863009F055C08B81813011F0823029F429
:10068000CE010E943E0720E048C0833081F59111E1
:100690000AC08CE790E09093CC038093CB0320E4D6
:1006A00084E090E03AC0913051F488E690E0909375
:1006B000CC038093CB0320E484E190E02EC0923001
:1006C00051F48EE391E09093CC038093CB0320E030
:1006D00082E290E022C09330E9F480E691E09093CA
:1006E000CC038093CB0320E08AE090E016C08132F7
:1006F00051F486E493E09093CC038093CB0320E401
:1007000089E090E00AC0823229F4CE010E943E07BF
:1007100020E403C020E480E090E0209332031FC077
:10072000883069F0893019F49093D00310C08A3072
:1007300049F08B3061F48BE48093BD0308C020ED59
:1007400033E002C02AEB33E081E090E004C02AEB02
:1007500033E080E090E03093CC032093CB038F3FD5
:100760002FEF920749F4288127FF02C08E819F81D5
:1007700020E82093320306C02E813F8128173907D5
:1007800008F4C901909301018093000113C0809186
:10079000320387FF0FC0CE010E94CF088F3F21F4A4
:1007A0008EE18093020106C0882321F0109201019E
:1007B000109200018091CD03181614F41092CD030D
:1007C0008091020184FF54C0809100019091010149
:1007D0008F3F2FEF920709F44BC0BC018930910580
:1007E00010F068E070E0861B970B909301018093F6
:1007F00000018091B10398E889278093B103C62F47
:10080000662331F12091CB033091CC0380913203E8
:1008100086FF0BC0A2EBB3E0F901862F8A0F9491FB
:100820009D9331968A13FBCF09C0D901E2EBF3E027
:10083000862F8E0F9D9191938E13FCCF8FEF8C0F8F
:1008400090E00196820F931F9093CC038093CB038B
:100850006C2F82EB93E00E94AB2CCC5FCC3031F05C
:100860008FEF9FEF9093010180930001C0930201ED
:1008700084E199B1957031F48150D9F71092CE038B
:100880001092C803DF91CF910895E9E6F0E08081EE
:1008900082608083E89A8BE48093BD038AE580932D
:1008A000BC03089590E890933C0390933D038FE739
:1008B00080933A0380933B039093380390933903DA
:1008C0008093360380933703089580910004882332
:1008D00019F082E390E002C088EE9DEF40912F076F
:1008E000403D59F420915003309151032F5F3F4F09
:1008F000309351032093500304C01092510310927F
:10090000500320915003309151038217930738F41C
:1009100028EE3DEF30935103209350030BC028176E
:10092000390741F481E09091FB03911180E08093BD
:10093000FB0353C0403C21F020913007233079F471
:1009400020913A072B7F59F420914A0330914B03B1
:100950002F5F3F4F30934B0320934A0304C0109204
:100960004B0310924A0320914A0330914B038217A4
:10097000930728F490934B0380934A0308C02817E9
:10098000390729F480913A0780932D07089545FF90
:100990000BC020914E0330914F032F5F3F4F309398
:1009A0004F0320934E0304C010924F0310924E0346
:1009B00020914E0330914F038217930728F49093B0
:1009C0004F0380934E0308952817390781F481E07F
:1009D00090E090934D0380934C03E091F503F091E8
:1009E000F6030284F385E02D6AE088EC099408950B
:1009F0000F931F93CF93DF9380E290E00E945034D7
:100A0000813081F083E190E00E945034809346036E
:100A10008F3FB9F41092460360E083E190E00E94BA
:100A200068340FC003E014E0C1E2D0E0CE010E94C0
:100A30005034F80181938F012196C933D105B1F764
:100A4000E1CF84E190E00E9450348093FB038F3F1C
:100A500039F41092FB0360E084E190E00E94683476
:100A600089E190E00E94503490E090936D01809372
:100A70006C018F3F910559F483E390E090936D01F1
:100A800080936C0163E389E190E00E94683486E121
:100A900090E00E945034809302048F3F39F410920A
:100AA000020460E086E190E00E94683487E190E013
:100AB0000E9450348093F8038F3F39F41092F8036A
:100AC00060E087E190E00E94683488E190E00E9455
:100AD000503480936A018F3F39F410926A0160E0CC
:100AE00088E190E00E94683461E08AE190E00E9431
:100AF00068348CE190E00E945034813F48F088E0F7
:100B000080931D0768E08CE190E00E94683403C088
:100B1000885F80931D078DE190E00E9450348093A0
:100B20002B07813F48F087E080931D0767E08DE148
:100B300090E00E94683403C0885F80932B078EE1A9
:100B400090E00E945034813F48F085E08093E903B3
:100B500065E08EE190E00E94683403C0885F809376
:100B6000E9038FE190E00E945034813F60F086E01D
:100B70008093FA0366E08FE190E0DF91CF911F91BF
:100B80000F910C946834885F8093FA03DF91CF91C2
:100B90001F910F91089588E10FB6F894809360003B
:100BA000109260000FBE519859982FE78CEF9AE091
:100BB000215080409040E1F700C00000F894E0E050
:100BC000F8E70994CF9314B817B88FEF85B988B9AF
:100BD0008AB188618AB95C985B9A8091000481111E
:100BE00002C00E94FA0287EB9BE00197F1F700C078
:100BF000000086B18F3641F40E945B1F9093F6038C
:100C00008093F503C0E337C10E94B3119093F603BC
:100C10008093F503DC01ED91FC910995E091F503DA
:100C2000F091F6030480F581E02D0995C82F81111C
:100C300022C1549A5C9853985B9A17B88FEF88B981
:100C400087E293E20197F1F700C000004B9913C0CF
:100C500086B18F3781F483B18F3369F4209A289855
:100C600000001C9B08C00E945B1F9093F6038093BA
:100C7000F503CAE200C196B15C985B9AA0E2AA951E
:100C8000F1F780EC87B98FE388B98AB188618AB9B6
:100C90005B985C9AB0E2BA95F1F786B18B3041F47B
:100CA0000E945B1F9093F6038093F503C2E2E3C0BA
:100CB00086B18D3351F49F3741F40E945B1F9093AE
:100CC000F6038093F503C1E0D6C00E94EE1790931F
:100CD000F6038093F503DC01ED91FC910995E09119
:100CE000F503F091F6030480F581E02D0995C82FF6
:100CF0008111C1C00E943B289093F6038093F503B5
:100D0000DC01ED91FC910995E091F503F091F6037A
:100D10000480F581E02D0995C82F8111ACC00E9497
:100D2000B4259093F6038093F503DC01ED91FC91DB
:100D30000995E091F503F091F6030480F581E02D2B
:100D40000995C82F811197C00E9482199093F603CC
:100D50008093F503DC01ED91FC910995E091F50399
:100D6000F091F6030480F581E02D0995C82F8111DB
:100D700082C00E94960F9093F6038093F503DC01E6
:100D8000ED91FC910995E091F503F091F603048053
:100D9000F581E02D0995C82F882361F08D3219F077
:100DA000833109F068C00E94F5299093F60380937F
:100DB000F50361C00E94962B9093F6038093F50390
:100DC000DC01ED91FC910995E091F503F091F603BA
:100DD0000480F581E02D0995C82F81114CC00E9437
:100DE00016209093F6038093F503DC01ED91FC91BE
:100DF0000995E091F503F091F6030480F581E02D6B
:100E00000995C82F811137C00E94A4229093F60340
:100E10008093F503DC01ED91FC910995E091F503D8
:100E2000F091F6030480F581E02D0995C82F81111A
:100E300022C00E94932C9093F6038093F503DC016B
:100E4000ED91FC910995E091F503F091F603048092
:100E5000F581E02D0995C82F81110DC00E945B1FFF
:100E60009093F6038093F503DC011496ED91FC91C9
:100E70001597CF9109948C2FCF910895FC01218172
:100E8000263009F583818230A9F0823259F0813011
:100E9000D1F48CE291E09093CC038093CB0382E178
:100EA00090E0089580E890E09093CC038093CB038A
:100EB0000C949F0C83E091E09093CC038093CB0340
:100EC00089E290E0089580E090E008950F931F93E9
:100ED000CF93DF93FC01A895ABE1B4E080E092E012
:100EE000ED019C01199221503040E1F7B093CC0301
:100EF000A093CB0380818076803209F0D9C08281B3
:100F00009381923009F4D7C02181213009F0C6C005
:100F1000833091F4933009F0CBC084E180936B016E
:100F200090931B0420931C0420931D048FEF809347
:100F30001E0420931F0412C0823099F4933009F0EC
:100F4000B7C080931B048091560380931C042093A8
:100F50001D0484E680931F0480931E0485E090E0C6
:100F6000ACC0873189F4209340030BE114E0C0E169
:100F7000D0E0CE010E945034F80181938F01219678
:100F8000C034D105B1F781C0853189F481E190E0A9
:100F90000E94503480931B04EEE1F7E0ACE1B4E032
:100FA00081918D9327E0EA32F207D1F771C0863143
:100FB000F1F481E190E00E94503480931B04809111
:100FC0001B0690E0AC014F5F5F4F61E0262F30E0E1
:100FD0004217530754F0F901E55EFB4FD901A65EB5
:100FE000B94F2C9120836F5FF1CF029666C0883194
:100FF000C1F42093400381E190E00E94503480933B
:101000001B040CE114E0C0EAD0E0CE010E94503491
:10101000F80181938F012196C036F1E0DF07A9F72F
:101020003AC0813109F044C08091FD0380931B04D4
:101030002091F80348E0249F900111248091FB0344
:10104000C0E18C9FC0011124282B8091EB03282B39
:1010500080910204D0E48D9FC0011124282B80913F
:10106000EA03E0E88E9FC0011124282B20931C0482
:101070008091410380931D048091430380931E045B
:101080008091420380931F0469CF80E390E015C0F4
:101090008DE090E012C081EC90E00FC081E090E024
:1010A000293011F080E090E091958195910905C07B
:1010B00080E090E002C081E090E0DF91CF911F914D
:1010C0000F910895FC01A8958081843041F48181BD
:1010D000823008F463C0828180936F01089581306B
:1010E00089F4683009F05AC09181809158039817AB
:1010F00009F454C08481882309F450C0880F809378
:1011000055030895823009F449C0853041F4818146
:10111000813009F043C082818093700108958A3044
:10112000E9F5838160915503623008F4682F81816D
:101130008130C1F48281E091F503F091F6038330B0
:1011400031F4109255030284F385E02D19C080918B
:1011500070018F3F19F4613009F46FEF0284F38559
:10116000E02D1BC08230D0F08281E091F503F09138
:10117000F603833041F4109255030084F185E02D8D
:1011800063E088EC0AC080916F018F3F19F46130F1
:1011900009F46FEF0084F185E02D09940895DF9242
:1011A000EF92FF920F931F93CF93DF93EC01A895DB
:1011B00031E030934003809147038111B1C18881B0
:1011C0008F3021F4898180935603A8C182518330E6
:1011D00008F0A4C199819432A9F48CEB8093480360
:1011E0009093470384E080934903249600EA10E03B
:1011F0006991C8010E9468340F5F1F4F043A1105BE
:10120000B9F7BBC19230B9F485E18093480390935C
:10121000470384E08093490388E1E3E0F4E0DF01E1
:101220001D928A95E9F7249689918193B4E0E7307D
:10123000FB07D1F7A2C1953291F52A81211112C085
:101240008C8180932C079D8190931B069E819093A7
:101250001C069F8190931D06843008F05FC1309377
:10126000F7035CC12F3F19F420912C072550FE0194
:10127000339680E090E030E0255E394F4191D9010E
:10128000A80FB91F4C93019685309105B9F78A8153
:101290008F3F09F043C181E08093F703C7C19032CB
:1012A00089F48C81885F80931D078D81885F80938E
:1012B0002B078E81885F8093E9038F81885F8093FD
:1012C000FA032CC1913009F0B3C08C818F3F09F033
:1012D00096C08D81813069F56091FB0384E190E0D7
:1012E0000E9468346091020486E190E00E946834B4
:1012F0006091F80387E190E00E94683460911D07D7
:1013000068508CE190E00E94683460912B0768502F
:101310008DE190E00E9468346091E90368508EE1AD
:1013200090E00E9468346091FA0368508FE190E089
:1013300063C0823009F0F2C01092460360E083E19E
:1013400090E00E9468341092FB0360E084E190E03A
:101350000E9468341092020460E086E190E00E94EE
:1013600068341092F80360E087E190E00E946834EE
:1013700010926A0160E088E190E00E94683483E3A3
:1013800090E090936D0180936C0163E389E190E0BC
:101390000E94683468E08CE190E00E94683480E14B
:1013A00080931D0767E08DE190E00E9468348FE034
:1013B00080932B076BE08EE190E00E94683483E11C
:1013C0008093E9036CE08FE190E00E94683484E14F
:1013D0008093FA03E3E0F4E081E081938F5F893149
:1013E000E1F748E150E061E270E083E094E00E94C0
:1013F000583461E080E290E00E9468348FC083FF3F
:1014000004C091E09093F80302C01092F80384FFA7
:1014100004C091E09093FB0302C01092FB0386FF8F
:1014200004C081E08093020401C11092020476C0DE
:101430008CEF890F823078F58C81882361F08130C0
:1014400029F41D8111110BC01FEF09C0823031F446
:101450001D810E8105C010E000E002C010E00FEF1A
:10146000943051F4E091F503F091F6030284F38592
:10147000E02D602F812F09958981853009F04EC0BC
:10148000E091F503F091F6030084F185E02D602FE3
:10149000812F099543C0983061F46C8181E190E01F
:1014A0000E9468348D818823C9F144E04A95F1F7A0
:1014B00014C0903191F0903499F46C81609346039C
:1014C00081E08093F8038D81882341F183E190E0EE
:1014D0000E94683484E08A95F1F70E94CB051EC013
:1014E000903861F460912F0760936A0188E190E081
:1014F0000E946834A4E0AA95F1F710C0933071F40B
:101500006C81862F90E090936D0180936C0189E14E
:1015100090E00E946834B4E0BA95F1F781E086C0AB
:1015200090914803F62E961708F4F92E823009F0B0
:101530007BC0E0904903DE2C0F2D10E02D2D2E19DD
:101540008D2D992787FD909530914903A801430F70
:10155000511D841795079CF0809147038432B1F1A7
:10156000809149038F0D80934903809148038F191F
:1015700080934803882309F44DC080E057C0332787
:1015800027FD309548E1FE01E20FF31FD41217C08A
:101590008081813071F461E080E290E00E946834E3
:1015A00048E150E061E270E083E094E00E9458344A
:1015B0000BC06FEF80E290E00E94683405C020818C
:1015C000FC01ED5FFB4F2083D394B8CF80914003A3
:1015D0008F5F80934003E0904903D22EDE180F2DD9
:1015E00010E03D2D3E0D8E2D90E020914903A80185
:1015F000420F511D841795070CF0B2CFFE01E30F87
:10160000F11D37FDFA95608180569F4F0E94683426
:10161000E394E7CF80914703843219F481E080930B
:10162000FF03109247037ACF20E096CFDF91CF914E
:101630001F910F91FF90EF90DF90089544E14A953C
:10164000F1F79BB195609BB994E09A95F1F79BB146
:101650009A7F9BB942E04A95F1F725E633E0F9011C
:101660009E2F921B98170CF598E0589A46E04A95E1
:10167000F1F700C0408140FD05C045E04A95F1F713
:1016800000C005C0589845E04A95F1F700000000F9
:10169000408146954083915041F7589A93E09A953E
:1016A000F1F7000058983196DBCF8AB185608AB98E
:1016B0000895209A289A28988AB18A7F8AB98BB18E
:1016C00085608BB934E03A95F1F789B18570853042
:1016D00011F4A895FACF4DE04A95F1F700C088E0E3
:1016E0006FEF6695489B606890E19A95F1F781509D
:1016F000C1F78AB185608AB98BB18A7F8BB9809135
:10170000750390917603009709F448C02091740303
:101710002230C9F463FF04C081E08093F80302C063
:101720001092F80364FF04C081E08093FB0302C0C1
:101730001092FB0366FF04C081E08093020424C082
:101740001092020421C0243039F40197E9F481E1B8
:1017500090E00E94683418C0213041F4019719F4D8
:101760006093720111C0609371010EC0233061F467
:10177000EAE1F4E0E81BF90B6083E3E0F4E081E0E8
:1017800081938F5F8931E1F78091750390917603A2
:1017900001979093760380937503CDC010927403E4
:1017A000662309F4CAC0613081F48091FD038093FF
:1017B0006503EFE2F7E0A6E6B3E081918D9337E0B1
:1017C000EC33F307D1F78DE0B4C0623079F4809147
:1017D0002E0780936503EEE1F7E0A6E6B3E0819182
:1017E0008D9347E0EB32F407D1F7EDCF633021F46E
:1017F00080912E0783709AC0613141F4E091F50326
:10180000F091F6030284F385E02D13C0623141F4B8
:10181000E091F503F091F6030284F385E02D17C003
:10182000643161F4E091F503F091F6030084F185F1
:10183000E02D609171018091720117C0683151F4FF
:10184000E091F503F091F6030084F185E02D60E06E
:1018500080E00BC06A3159F4E091F503F091F60392
:101860000284F385E02D6AE08FEF099564C06B3147
:1018700041F4E091F503F091F6030084F185E02D49
:10188000F2CF6C3151F482E090E090937603809334
:10189000750381E0809374030895603241F481E020
:1018A00090E0909376038093750382E036C06132B6
:1018B00009F52091F80388E0289F90011124809178
:1018C000FB0340E1849FC0011124282B8091EB038E
:1018D000282B8091020430E4839FC0011124282B1F
:1018E0008091EA0340E8849FC0011124282B2093B3
:1018F00065031EC0623241F487E190E09093760365
:101900008093750383E009C0633251F481E090E075
:10191000909376038093750384E0809374030BC0E7
:101920006F3F19F46093650303C081EF80936503F3
:1019300081E00E941E0B81E0089580E008958CEE06
:1019400094E008953D98459808950F931F93CF9381
:10195000DF93662309F456C07727A0E0B0E040E0AB
:1019600050E09D0146175707ACF4189610E8FC01AB
:10197000E40FF51F00810123E901C45CD84F0883FF
:101980002F5F3F4F16952A173B07A1F74F5F5F4F19
:10199000D901E7CF109709F435C0229A2A9AE8981E
:1019A000ECE3F7E0CF93DF93EF93FF9301910023F4
:1019B00011F061F418C000003D9A1CE011D0000045
:1019C0003D9800000000119789F70DC03D9A12E084
:1019D00007D03D9818E004D00000119739F703C0F4
:1019E0001A95F1F708950000FF91EF913D9ADF916C
:1019F000CF9112E0F5DF3D980FEF0A9511F0359B7E
:101A0000FCCF2A98229A2A9AECE3F7E0EF93FF930F
:101A1000442700270395A1F03599FCCF08C00FE5B6
:101A2000039572F03599FCCF439551F001930FE582
:101A3000039532F0359BFCCF439511F00193EFCF26
:101A4000FF91EF912A98E89A842F90E00097A1F0F7
:101A500040FF12C0DF019D017081618151E0761766
:101A600008F050E05D9332965A2F521B5417A0F3A2
:101A700001979595879502C080E090E0DF91CF9126
:101A80001F910F910895CF93DF931F92CDB7DEB7CB
:101A9000198261E070E0CE0101960E94A50C0097CA
:101AA00001F14897D9F480E090E021E0FC01E45C8A
:101AB000F84F308131112160873011F0220F01C0C1
:101AC0002F7701968830910589F7222351F0253030
:101AD00059F0283061F482E190E00BC083E090E09F
:101AE00008C080E090E005C083E190E002C089E09A
:101AF00090E00F90DF91CF91089508959F92AF925B
:101B0000BF92CF92DF92EF92FF920F931F93CF93EA
:101B1000DF93CDB7DEB760970FB6F894DEBF0FBE88
:101B2000CDBF8091F703882309F460C060912C0732
:101B300070E020E0822F992787FD90958617970700
:101B40006CF4E9E0F0E0EC0FFD1FE80FF91FDC0199
:101B5000A55EB94F8C9180832F5FECCFCE010996A3
:101B60000E94A50C21E031E0EBE1F6E0DF01A901E4
:101B70001D9241505040E1F7869586958695682FD5
:101B800070E090E000E810E0292F332727FD309522
:101B90002617370734F5A901E3E0440F551FEA95EE
:101BA000E1F7D901A45EB94FFC9020E030E0F901E3
:101BB000E40FF51FE45CF84FE081EE2341F0F801FB
:101BC000022E02C0F595E7950A94E2F701C0E0E025
:101BD000FE2A2F5F3F4F2830310549F7FC929F5F67
:101BE000D3CF80931B061092F7034EC080917703EA
:101BF0008F3F79F0882321F081508093770309C0CB
:101C000010927E0310927D0384E080937F011092F6
:101C100078030E94430D80937903833109F433C123
:101C200081110EC080917C03811103C081E08093FB
:101C3000EB0381E090E090937B0380937A0327C1CC
:101C400010927C038E01075F1F4F823149F480E3BD
:101C5000898780917F018A87809178038B870DC067
:101C600080E4898783E08A8721E080917D039091D9
:101C70007E03892B09F420E02B8763E070E0C80124
:101C80000E94A50C803421F081E08093FC03FFC00A
:101C900086E0E2E3F7E0DF011D928A95E9F7D09054
:101CA000320790903307A0903507B0903607909197
:101CB0003407C090370720E030E040E850E0822F42
:101CC000F901E45BF84F6081662341F0BA01022E0E
:101CD00002C0759567950A94E2F701C060E0D62AC4
:101CE000D901AC5AB84F6C91611109C07A01082E24
:101CF00002C0F594E7940A94E2F7FE2C01C0F12C9F
:101D0000F928D901A45AB84F6C91662341F0DA0141
:101D1000082E02C0B595A7950A94E2F701C0A0E08D
:101D2000EA2EEA28D901AC59B84F6C91611108C06C
:101D3000FA01082E02C0F595E7950A94E2F701C072
:101D4000E0E0BE2AF901E459F84F6081662341F0D2
:101D5000BA01082E02C0759567950A94E2F701C092
:101D600060E0692BF901EC58F84F9081992341F01C
:101D7000FA0102C0F595E7958A95E2F7CF0101C017
:101D800080E0C82A2F5F3F4F2830310521F09F2C7B
:101D9000AE2C962F94CFD0923207F0923307E09278
:101DA0003507B092360760933407C092370788E052
:101DB000E1E2F2E0DE01119601900D928A95E1F7E1
:101DC00090912F07FE01319683E0A82FBB27A7FD36
:101DD000B095A45CB84F2C91222311F02081922B56
:101DE000282F8F5F883011F482E0820F3196E01740
:101DF000F10759F790932F0780914807882329F01E
:101E000080913A07846080933A078091490788233C
:101E100029F080913A07886080933A0780914A07B9
:101E2000882329F080913A07806280933A07809155
:101E30004B07882329F080913A07806180933A0705
:101E400080917903823119F480E880933207809180
:101E50003207811118C0E11016C080913907811135
:101E600012C0FFEFFF120FC080E880933907809304
:101E70003707809334078093360780933507809324
:101E800033078093320710927B0310927A03609697
:101E90000FB6F894DEBF0FBECDBFDF91CF911F917B
:101EA0000F91FF90EF90DF90CF90BF90AF909F90F9
:101EB00008950E94A20C0E94430D8093790381E053
:101EC00080937C030C947E0D60937703882361F0EC
:101ED00021E030E030937E0320937D0396E09093E1
:101EE0007F0180937803089510927E0310927D0302
:101EF00084E080937F011092780308950C94640F1E
:101F000081E080937C0381E090E090937B03809359
:101F10007A030E947E0D80917A0390917B03892B36
:101F200019F480917903089580E0089583E791E0A2
:101F3000089508950895089586B11D9B02C0806498
:101F400008958F7B08958AB188618AB95C985B9AFD
:101F500084B18F7C84B985B1806385B9389A409A01
:101F600087B1817C87B988B18F6388B90895EF9272
:101F7000FF920F931F93CF93DF93EC01409A80E57C
:101F80008A95F1F70E949C0FE82E409890E49A956C
:101F9000F1F70E949C0FF82E409A80E58A95F1F7A0
:101FA000409890E49A95F1F70E949C0F082F409A70
:101FB00080E58A95F1F7409890E49A95F1F70E94B0
:101FC0009C0F182F409A80E48A95F1F70E949C0F8D
:101FD000409890E59A95F1F7409AE094E882F09461
:101FE000F98280958A8300950B8310951C83DF917D
:101FF000CF911F910F91FF90EF900895409888E244
:102000008A95F1F7419A98E29A95F1F786B141984D
:1020100098E29A95F1F726B1409A2C7394E0299FA3
:10202000900111248C7386958695822B8095089556
:10203000CF93DF93CDB7DEB728970FB6F894DEBF06
:102040000FBECDBF8091FD038B3379F4309905C06D
:1020500080912F07826080932F07319927C180914B
:102060002F07816080932F0721C1873009F057C067
:1020700081E01D9B03C08F5F8E3FD9F731E08E3F1B
:1020800009F030E021E0813009F020E0232B81E0ED
:102090001D9B04C096B18E3F29F406C08F5F8E3F12
:1020A000B9F702C0813009F42F5F81E01D9B04C0A5
:1020B0008F5F8E3FD9F704C08E3F11F0813019F445
:1020C000223009F4BEC086B191FD05C020912F07D2
:1020D000216020932F0786958E71082E01FA87F9CB
:1020E00002FA86F903FA85F905FA83F906FA82F904
:1020F00007FA81F996959E71092E01FA97F902FA6D
:1021000096F903FA95F905FA93F906FA92F907FA9E
:1021100091F982958F70892B80933907C7C08731D9
:1021200011F08633B9F50E94FE0F982F9F709F30F3
:1021300079F496E39093FD0320E028272F73282756
:1021400084FB23F985FB22F920932F070E94FE0FC1
:1021500020912F0790E084FB95F985FB94F986FB8D
:1021600090F987FB91F9922B90932F0790E080FBD9
:1021700094F981FB93F982FB95F983FB92F9909393
:102180003A0786B1813009F491C086B1813409F0F3
:1021900058C08CC0883109F044C0409A14B8539A92
:1021A0005B9A88B18FEF88B9399887EB9BE00197EC
:1021B000F1F700C0000086B180958C7390E082FB3F
:1021C00095F983FB94F984FB93F985FB92F990933D
:1021D0003A0788E0E9E2F2E0DE01119601900D9203
:1021E0008A95E1F7399A41985B98FE013896CE01BD
:1021F000419A419824E02A95F1F71D9906C0208163
:1022000030912F07232B20932F073197E817F907D9
:1022100079F7419A419884E08A95F1F71D9B46C071
:1022200010C08451823008F041C08AB188618AB9F7
:102230005C985B9ACE0101960E94B70F9A81913803
:1022400021F481E08093EB0331C08981282F220F94
:10225000211D2877022E01FA27F902FA26F903FA3E
:1022600025F905FA23F906FA22F907FA21F920934C
:102270003A0720E081FB21F986FB27F9822F95950B
:102280009172892B80932F079091FD03953171F402
:102290009B8120E092FB24F993FB22F994FB23F924
:1022A00095FB26F9922F982B90932F0728960FB61F
:1022B000F894DEBF0FBECDBFDF91CF910895CF93CD
:1022C000DF9300D000D01F92CDB7DEB781E01D9B19
:1022D00004C08F5F8E3FD9F705C08DEF1D9936C0C2
:1022E0008150E1F786B1833429F483E088B987B956
:1022F00087E131C0CE0101960E94B70F8A818D3CE3
:1023000049F18D3829F48D818D3811F18D3B11F112
:102310005B9887EB9BE00197F1F700C00000539AB0
:10232000399A419814B813B89CE080E0419A4198DA
:1023300024E02A95F1F71D9B8F5F9150B9F78350E8
:10234000893010F488E107C080E005C087E003C051
:1023500084E101C085E10F900F900F900F900F90D6
:10236000DF91CF91089580E891E008950895089550
:102370000895109298011092810310928203109296
:102380007F038AB188618AB95C985B9A3A9A4298CD
:10239000089587B190918503892B87B987B1909172
:1023A0008603892B87B990918403292F20958091EA
:1023B000870382238093870380918803892B8093EE
:1023C000880388B190918603892B88B998B1809150
:1023D00085038095892388B9089581E080938603D9
:1023E00082E08093850380E28093840383B18093AD
:1023F000830385B18093880384B1809387033C9ADB
:10240000449A3D9A45980E94C91180910004811117
:1024100003C0A8950E94FA028DEE92E00197F1F7B1
:1024200000C0000080910004811103C0A8950E94A3
:10243000FA028DEE92E00197F1F700C00000809162
:102440000004811103C0A8950E94FA028DEE92E06B
:102450000197F1F700C0000080910004811103C0D2
:10246000A8950E94FA028DEE92E00197F1F700C064
:10247000000087B185B115B887EB9BE00197F1F7B4
:1024800000C0000085B18FEF85B920E180E038B150
:10249000909186039095932398B998E09A95F1F7D7
:1024A00098B130918603932B98B998E09A95F1F7FB
:1024B00093B130918403932309F08F5F215039F752
:1024C000982F9D7F9C3021F481E08093820307C088
:1024D000813029F0823029F481E08093810389E101
:1024E0000895843089F3873009F43EC13C98449ABA
:1024F0003D98459A80E28093860380E1809385032E
:1025000088E08093840386B18093830388B18093AD
:10251000880387B1809387030E94C911449A90E091
:1025200020E038B1809186038095832388B986B1F5
:1025300030918403832319F491310CF02F5F88B11B
:1025400030918603832B88B99F5F903251F72430F6
:1025500021F48AE18093FD03089598B18091850369
:102560008095892388B988B190918503892B88B992
:1025700080E38A95F1F798B180918503809589234E
:1025800088B988B1836088B987B18C7F87B987EBB8
:102590009BE00197F1F700C0000030E220E080E00E
:1025A00096B140918403942309F48F5F30992F5F93
:1025B00048B1909186039095942398B998E19A95A3
:1025C000F1F798B140918603942B98B998E19A95C8
:1025D000F1F7315029F796B1983219F4243009F403
:1025E000C5C021502F3128F481E0809384038EE10F
:1025F0000895883109F4BCC0803109F4BBC0813032
:1026000019F480938003B6C096B1993229F481E021
:10261000809384038CE10895813509F4ADC08D3039
:1026200009F4AAC0823109F4A7C088E08093860328
:1026300082E08093840386B18093830388B1809382
:10264000880387B1809387030E94C911539A5B98CE
:102650003D9A459A97B1809184038095892387B9E3
:1026600088B190918403892B88B93C98449A259A23
:102670002D98209A389A80910004811103C0A89562
:102680000E94FA028DEE92E00197F1F700C000007F
:1026900080910004811103C0A8950E94FA028DEE7A
:1026A00092E00197F1F700C00000809100048111D1
:1026B00003C0A8950E94FA028DEE92E00197F1F70F
:1026C00000C0000080910004811103C0A8950E9401
:1026D000FA028DEE92E00197F1F700C0000087B199
:1026E00085B115B887EB9BE00197F1F700C00000BA
:1026F00085B18FEF85B92D9A409A90E39A95F1F7BD
:102700002D98409830E220E090E086B1409184031B
:10271000842309F49F5F349B2F5F48B18091860327
:102720008095842388B9289888E18A95F1F788B143
:1027300040918603842B88B9289A88E18A95F1F71D
:10274000315019F788EF890F823020F481E08093AF
:10275000800314C0983191F021502F3188F480E12A
:102760008093840385E3089585E2089584E20895C3
:1027700081E108958BE108958DE1089584E3089542
:1027800080E008958091FD03853219F0893109F0C8
:10279000B8C18FEF8093830380918203882311F166
:1027A00098B1809186038095892388B928E02A957D
:1027B000F1F788B190918603892B88B938E03A9572
:1027C000F1F798B1809186038095892388B958E004
:1027D0005A95F1F788B190918603892B88B988E0E2
:1027E0008A95F1F780918103882389F098B18091CF
:1027F00086038095892388B998E09A95F1F788B186
:1028000090918603892B88B928E02A95F1F728E072
:1028100091E0990F38B1809186038095832388B920
:1028200038E03A95F1F783B130918403832309F0BE
:10283000916088B130918603832B88B958E05A950E
:10284000F1F7215031F738E081E0880F48B120914D
:1028500086032095242328B928E02A95F1F723B18F
:1028600040918403242309F0816028B140918603BC
:10287000242B28B958E05A95F1F7315031F78F3FA2
:1028800021F4209198012111B0C221E020939801F8
:102890002091FD03253209F00FC198E028B1809105
:1028A00086038095822388B98CE08A95F1F783B1FD
:1028B00088B120918603822B88B928E02A95F1F708
:1028C000915061F798E041E0440F28B18091860370
:1028D0008095822388B938E03A95F1F783B1209149
:1028E0008403822309F0416088B120918603822B02
:1028F00088B958E05A95F1F7915031F798B1809125
:1029000086038095892388B988E08A95F1F788B194
:1029100090918603892B88B998E09A95F1F798B140
:10292000809186038095892388B928E02A95F1F75C
:1029300088B190918603892B88B938E03A95F1F7F0
:1029400098E031E0330F28B180918603809582238F
:1029500088B958E05A95F1F783B120918403822316
:1029600009F0316088B120918603822B88B988E014
:102970008A95F1F7915031F798E021E0220F58B194
:10298000809186038095852388B958E05A95F1F7A0
:1029900083B150918403852309F0216088B150915F
:1029A0008603852B88B988E08A95F1F7915031F735
:1029B00098B1809186038095892388B998E09A958B
:1029C000F1F788B190918603892B88B958E05A9520
:1029D000F1F798B1809186038095892388B988E0C2
:1029E0008A95F1F788B190918603892B88B998E090
:1029F0009A95F1F758E091E0990F68B180918603BC
:102A00008095862388B988E08A95F1F783B1609133
:102A10008403862309F0916088B160918603862B38
:102A200088B988E08A95F1F7515031F768E081E084
:102A3000880F78B1509186035095572358B958E0C4
:102A40005A95F1F753B170918403572309F08160CF
:102A500058B170918603572B58B958E05A95F1F741
:102A6000615031F740933207309333072195220F9D
:102A7000220F22502093380720E080FB27F981FBAA
:102A800026F982FB24F983FB25F930E038273F7CC7
:102A9000382786FB33F987FB32F930933A0750E049
:102AA0005927557F592790FB52F992FB50F9952FE2
:102AB000922B90932F078EC220912F07322F82FBEB
:102AC00030F983FB31F93093300730E091FB34F972
:102AD00092FB35F993FB32F994FB33F930933A07C3
:102AE00090FF03C0216020932F0790912F07982714
:102AF0009F7C982786FB97F987FB91F990932F0786
:102B000069C295EE980F943048F0813139F09CEC11
:102B1000980F923018F0843209F0D3C198B18091A7
:102B200084038095892388B98091FD039CEC980FDC
:102B3000923068F4259A2D9A8CE28A95F1F72D98B7
:102B4000389A409A9CE29A95F1F7409807C08C31E8
:102B500029F088B190918503892B88B920E32A95C3
:102B6000F1F798B1809185038095892388B9809188
:102B7000FD03982F9D7F9C3111F0843269F488B158
:102B8000836088B987B18C7F87B958E040E020E046
:102B900030E090E061E011C08533B9F7449A3C9889
:102BA000F4CF853369F5289888E18A95F1F7289A5A
:102BB00088E18A95F1F75150A9F1990F220F440F3E
:102BC000330F8091FD03843311F08D3129F488B1E6
:102BD00070918403872B88B986B170918403872311
:102BE00011F4916031608091FD038432D1F686B199
:102BF00081708627282B86B1869581708627482B81
:102C000078B1809186038095872388B988E18A9579
:102C1000F1F788B170918603872B88B982E18A9594
:102C2000F1F7C9CF8091FD03843249F5211103C02A
:102C300081E08093EB0390E040FB96F943FB95F92C
:102C400045FB94F946FB90F947FB91F980E024FBA2
:102C500087F926FB82F927FB83F9892B80933007BC
:102C600090E025FB93F930E041FB32F942FB31F96A
:102C700044FB30F9432F492B4093310708959F3F80
:102C800069F48B3109F4B1C0813109F4AEC08433E9
:102C900029F42091800321113BC0A7C08C3179F425
:102CA000319B05C080912F07826080932F07309958
:102CB0005CC080912F07816080932F0756C08E31B2
:102CC00011F0853329F590E89093330790933207FC
:102CD00090917F0394361CF49F5F90937F039091B3
:102CE0007F03943619F4332309F47FC0853321F42C
:102CF000399858E25A95F1F7319B03C010922F078B
:102D000003C081E080932F073095309339070895F1
:102D100020E090FB25F991FB24F992FB23F993FB2A
:102D200022F920933A072091300730E022FB35F951
:102D300023FB34F924FB33F925FB32F930933007B8
:102D400020E094FB25F995FB24F996FB20F997FBED
:102D500021F920932F07813109F43FC1843329F4ED
:102D600080918003882309F438C180918003811108
:102D700002C068E001C068E130E040E020E080E0AF
:102D8000383014F4880F07C058EF530F583010F440
:102D9000220F01C0440F56B170918403572359F498
:102DA000383014F4816007C058EF530F583010F4D6
:102DB000216001C0416078B150918603509557233E
:102DC00058B958E15A95F1F758B170918603572BCD
:102DD00058B958E15A95F1F73F5F36178CF23091A8
:102DE000FD03811106C03D3121F481E08093EB03A6
:102DF00008953D3111F520E094FB25F995FB24F968
:102E000096FB22F997FB23F9922F20E082FB21F910
:102E100083FB20F984FB27F985FB26F9292B2093D6
:102E20002F079091300730E086FB30F987FB31F9AE
:102E3000832F892B80933007CDC03B31B1F450E014
:102E400094FB55F995FB54F996FB52F997FB50F911
:102E5000952F50E084FB57F985FB56F986FB53F913
:102E600087FB51F9592B50932F0790918003992399
:102E700009F4B0C0343311F0822F242F880F811D44
:102E8000082E01FA87F902FA86F903FA85F905FA9C
:102E900083F906FA82F907FA81F980933007220F45
:102EA000211D022E01FA26F902FA27F903FA25F963
:102EB00005FA23F906FA22F907FA21F920933107D6
:102EC00089C08A3109F086C088B190918503892B29
:102ED00088B928E090912F07990F90932F0738B168
:102EE000809186038095832388B986B130918403CD
:102EF000832319F4916090932F0788B190918603F2
:102F0000892B88B9215031F780912F07082E00FABC
:102F100085F901FA84F902FA86F904FA82F905FAC8
:102F200080F906FA81F980932F0782E090E021E092
:102F300030E058B1409186034095452348B946B1E9
:102F400050918403452359F460913A07A901082E52
:102F500001C0440F0A94EAF7642B60933A0748B122
:102F600050918603452B48B901968630910509F7A3
:102F700080913A0790E082FB92F983FB95F984FBFC
:102F800093F985FB94F990933A0780E298B12091E8
:102F90008603922798B98150C9F798B1809186032A
:102FA0008095892388B980919801882341F086B162
:102FB00090918403892319F081E08093EB0388B119
:102FC00090918603892B88B998B18091850380956B
:102FD000892388B981E08093980108958CE891E075
:102FE000089508950895089583EC87B98FE388B90B
:102FF000089518B88FED9EE20197F1F700C0000028
:1030000086B18C3019F086B1883029F417B88FEF6B
:1030100088B98AE3089588B1836088B99CE19A955C
:10302000F1F786B186958695883029F0863019F0BB
:10303000833019F4089588E0089580E00895CF93CF
:103040008091FD038A33C1F486B1809583FF05C06A
:1030500090912F07916090932F0781FF05C0909169
:103060002F07926090932F0780FF4AC180912F070E
:10307000806280932F0744C188B1836088B93CE1A6
:103080003A95F1F786B1869586958695A6B14198D1
:103090009CE19A95F1F7873021F481E08093EB036E
:1030A0002FC1813009F03EC0A695A695A827A17032
:1030B00086B1809530E082FB35F983FB34F984FBDF
:1030C00033F985FB32F930933A0788B193E08927C9
:1030D00088B98CE18A95F1F786B1809590E082FB02
:1030E00095F983FB90F984FB97F985FB91F988B1F9
:1030F0008C7F88B93CE13A95F1F7B6B1B09580E0A4
:10310000B3FB82F9B4FB83F9B5FB86F9B82FB92B71
:10311000329BA26088B18C7F88B980E820E840E8C3
:1031200060E8E2C088B18C7388B99CE19A95F1F7A8
:1031300038E23A95F1F7409A8CE18A95F1F7C6B1F9
:1031400090E0C2FB93F9C3FB92F9C4FB91F9C5FB74
:1031500090F9C92FCC0FF0E0E0E080E820E840E8EB
:1031600060E8A0E0B0E0FC170CF0B8C034E23A959B
:10317000F1F7409B04C098B19C7398B901C0409A84
:1031800094E29A95F1F7F1110EC096B1909530E066
:1031900092FB35F993FB34F994FB33F995FB32F943
:1031A00030933A0799C0F13061F496B1909530E0D0
:1031B00092FB35F993FB30F994FB37F995FB31F924
:1031C0000DC0F23069F4329BA26096B1909530E068
:1031D00093FB32F994FB33F995FB36F9B32B7CC0A2
:1031E000F33031F4329BA1609CE09A95F1F774C002
:1031F000F43009F454C0F530C1F466B166956695B3
:1032000030E1639FB00111246E2B660F611D062E05
:1032100001FA67F902FA66F903FA65F905FA63F942
:1032200006FA62F907FA61F957C0F630C1F1F730D2
:10323000C1F446B14695469590E1499FA0011124FD
:103240004E2B440F411D042E01FA47F902FA46F9AC
:1032500003FA45F905FA43F906FA42F907FA41F982
:103260003BC0F830E1F0F930C1F426B1269526953F
:1032700090E1299F900111242E2B220F211D022E57
:1032800001FA27F902FA26F903FA25F905FA23F9D2
:1032900006FA22F907FA21F91FC0FA3021F4E6B143
:1032A000E695E69519C0FB30B9F486B1869586950A
:1032B00030E1839FC00111248E2B880F811D082EC1
:1032C00001FA87F902FA86F903FA85F905FA83F912
:1032D00006FA82F907FA81F9FF5F45CF98B193604A
:1032E00098B99CE19A95F1F76093320740933307C0
:1032F0008093340720933707B0932F07A0933007AC
:10330000CF91089589E991E0089508950895089569
:1033100081E080937C0083E880937A0017B88FEF78
:1033200088B914B885B90895DF92EF92FF920F9390
:103330001F93CF93DF93D82EFB01D701E90198812A
:103340008095982398839C9198239C93DA019C9173
:1033500091609C9390819E7F9083CFE6D7E12197E7
:10336000F1F700C0000090819160908380E0F80147
:1033700090819D2119F48F5F8E3FC9F7DF91CF9126
:103380001F910F91FF90EF90DF900895EF92FF92C1
:103390000F931F93CF938AB188618AB95C985B9A27
:1033A00083B18E3309F481C083B18B3309F47FC0BC
:1033B00025982D9A5B9887EB9BE00197F1F700C069
:1033C000000083B18F3121F486B18F3709F471C0C9
:1033D00053982598389A409887EB9BE00197F1F72E
:1033E00000C000004B9902C01D9B57C017B88FEF5B
:1033F00088B914B885B994E2E92EF12C03E210E003
:1034000025E230E047E250E068E270E080E20E94AE
:103410009419C82F2AE2E22EF12C09E210E02BE2E7
:1034200030E047E250E068E270E088E00E949419E2
:10343000C250CC3F18F482508C3F88F1209A2898D3
:1034400087E293E20197F1F700C000001C9B29C0BE
:1034500084E2E82EF12C03E210E025E230E044E2C1
:1034600050E065E270E088E00E94941925E230E0C7
:1034700044E250E065E270E088E00E94941990E038
:103480000B978F3E910578F0549A5C98389A409A41
:1034900053981092FD0380E00DC08BE20BC089E2CF
:1034A00009C081E307C086E005C089E303C088E363
:1034B00001C084E0CF911F910F91FF90EF9008958C
:1034C000EF92FF920F931F9317B88FEF88B914B83C
:1034D00085B98091FD03811105C0549A5C98389A92
:1034E000409A53988091FD03877F813329F48AB1F4
:1034F00088618AB95C985B9A87EB9BE00197F1F74A
:1035000000C0000096B123B190958091FD038A32EE
:10351000F1F5549A5C9853985B9A91FF05C080919D
:103520003A07846080933A0794FF05C080913A0778
:10353000886080933A0793FF05C080913A078061C5
:1035400080933A0792FF05C080913A07806280938A
:103550003A0780912F074B9B02C08E7F01C081608C
:1035600080932F0774E2E72EF12C03E210E025E2AE
:1035700030E047E250E068E270E080E20E94941997
:10358000880F880F98EC981B909339078FC48C3262
:10359000B9F58AB1877E8AB98BB188618BB93C9ABB
:1035A000449887EB9BE00197F1F700C0000080E8AA
:1035B00080933307809332074B9905C080913A0777
:1035C000846080933A07329905C080912F0781600B
:1035D00080932F07309905C080913A0780618093CE
:1035E0003A07319905C080913A07806280933A0783
:1035F0001D995CC480913A07886080933A0756C44D
:103600008B3209F086C0389A409A87B1837C87B99B
:1036100088B1837C88B98AB1877E8AB93D9A87EB65
:103620009BE00197F1F700C000004B9905C0809125
:1036300030078160809330071D9905C08091300765
:10364000826080933007319905C080913007846093
:10365000809330073D9887E592E00197F1F700C02D
:1036600000003C9A87EB9BE00197F1F700C0000057
:103670004B9905C0809130078860809330071D9971
:1036800005C080913007806180933007319905C073
:10369000809130078062809330073C983B9A87EB9B
:1036A0009BE00197F1F700C000004B9905C08091A5
:1036B00030078064809330071D9905C080913007E2
:1036C000806880933007319905C08091310781600F
:1036D000809331073B983A9A8FE697E10197F1F78B
:1036E00000C000004B9905C0809131078260809333
:1036F00031071D9905C0809131078460809331079F
:10370000319905C0809131078860809331073A98DC
:10371000CDC3863009F0FBC03E98259A2D9A3D9A7C
:103720004598209A289A2B98239A8FE697E101973B
:10373000F1F700C00000239880E01B9903C08F5F61
:103740008E3FD9F790E0880F991F8F3F910519F0B0
:1037500010F08FEF90E08093330746983E9A8FE603
:1037600097E10197F1F700C000003E9880E036999C
:1037700003C08F5F8E3FD9F790E0880F991F8F3F6E
:10378000910519F010F08FEF90E0809332078F3F92
:1037900039F4809133078F3F19F481E08093EB0374
:1037A00000000000000000000000000017B814B87E
:1037B0008FEF85B988B98AB1877E8AB98BB1886164
:1037C0008BB93B9A43983B98000000000000000032
:1037D00000000000339B05C080912F07816080931B
:1037E0002F07399A41983998000000000000000026
:1037F00000000000319B05C080912F0782608093FC
:103800002F073C9A449894E19A95F1F7199905C0CD
:10381000809130078260809330071A9905C08091AB
:1038200030078160809330071C9905C080912F0775
:10383000806180932F074C9905C080913007846088
:10384000809330073C98449A3A9A429824E12A950A
:10385000F1F7199905C08091300780618093300796
:103860001A9905C0809130078860809330071C99B1
:1038700005C080912F07806280932F074C9905C067
:10388000809130078062809330073A98429A389A44
:10389000409884E18A95F1F7199905C08091300725
:1038A0008068809330071A9905C080913007806442
:1038B000809330071C9905C080912F078460809306
:1038C0002F074C9905C080913107816080933107A3
:1038D0003898409A539A5B9894E19A95F1F7199920
:1038E00005C0809131078260809331071A9905C025
:1038F000809131078860809331074C9905C0809191
:10390000310784608093310753985B9ACFC240910E
:103910003A0730E092FB35F993FB34F994FB33F925
:1039200095FB32F9342B30933A07843019F5549AC9
:103930005C98389A409A5398539A5B9828E22A9553
:10394000F1F726B120955B9A88E28A95F1F796B156
:103950009095892F822730912F07832B922396955C
:103960009170892B80932F071D9BA0C2816080934B
:103970002F079CC2803309F0BDC017B89FEF98B9DC
:103980008AB1877E8AB98BB188618BB984B184B9D9
:1039900085B195B988E087B987EF88B998E29A959B
:1039A000F1F7309905C080913A07806280933A0719
:1039B000319905C080913A07806180933A074B990D
:1039C00005C080913A07886080933A0780E187B903
:1039D0008FEE88B928E22A95F1F7339905C08091D6
:1039E0003A07846080933A0780E187B98FEE88B9FF
:1039F00088E28A95F1F7359905C080912F0781609B
:103A000080932F074C9905C080912F078260809387
:103A10002F0782E087B98DEF88B998E29A95F1F780
:103A2000359905C0809131078460809331074C99A6
:103A300005C080913007806880933007329905C0B7
:103A4000809130078061809330071D9905C0809177
:103A5000300782608093300781E087B98EEF88B9A4
:103A600028E22A95F1F7359905C0809131078860E1
:103A7000809331074C9905C0809131078160809314
:103A80003107329905C080913007806280933007FA
:103A90001D9905C08091300784608093300717B866
:103AA0008FEF88B9539A5B9888E28A95F1F7359938
:103AB00005C0809131078260809331074C9905C021
:103AC00080913007806480933007329905C08091DF
:103AD00030078860809330071D9905C080913007BA
:103AE0008160809330078AB1877E8AB98BB1886103
:103AF0008BB9DCC1813019F0823209F0A8C08AB1DB
:103B000088618AB9319905C080912F0781608093BF
:103B10002F0780EC87B98FE388B95B985C9A90E2B5
:103B20009A95F1F7319905C080912F0782608093B3
:103B30002F0756B15695569521E030E0052E02C06C
:103B4000220F331F0A94E2F740E080E090E0541324
:103B500002C0822B932B4F5F4F30C9F720912F0764
:103B6000382F80E032FB82F934FB83F9822B80937B
:103B70002F078091300720E031FB23F936FB22F933
:103B800037FB25F9282B892F90E080FB97F981FBE3
:103B900094F984FB96F985FB91F986FB90F9292B22
:103BA000209330079091310720E082FB21F983FBBD
:103BB00020F9822F892B90E033FB92F935FB93F9A2
:103BC000892B809331075C985B9A8091FD0381304B
:103BD00009F46CC13898409A25982D9A24E02A95CA
:103BE000F1F790918A039093890386B18095817053
:103BF00080938A031D9902C022E001C020E0822B3D
:103C000080938A03981709F451C1933079F4813075
:103C100021F480913407815F06C0823009F046C1EB
:103C2000809134078A508093340740C1913031F439
:103C3000823079F3833009F039C1F2CF923009F044
:103C400035C1833031F3813009F030C1E9CF91FFC4
:103C500005C030912F07316030932F0720958133B5
:103C600051F425FF05C080912F07846080932F07B2
:103C700090FFB9C010C0811114C03898409A8AB121
:103C800088618AB95C985B9A88E28A95F1F7309BE3
:103C900002C025FFA8C080912F07826080932F0764
:103CA000A2C025FF05C030912F07326030932F0747
:103CB00090FF05C090912F07946090932F07885331
:103CC000823008F090C088B18FEF88B985B9109222
:103CD0002F0710923007309903C084E080932F079C
:103CE000319905C080912F07816080932F071C991F
:103CF00005C080912F07886080932F071D9905C00C
:103D000080912F07826080932F078091FD03883375
:103D100079F5369903C081E080933007199905C081
:103D200080912F07806180932F07189905C080919B
:103D30002F07806880932F071A9905C080912F075D
:103D4000806280932F078AB1877E8AB98BB18861A0
:103D50008BB94B9905C080912F07806480932F0702
:103D60004C99A4C0809130078260809330079EC038
:103D700080912F07982F81FF02C0946001C09B7F24
:103D800090932F0790912F0782FF02C0926001C08D
:103D90009D7F90932F07369905C080912F078064EF
:103DA00080932F07199905C080912F078068809311
:103DB0002F071A9905C080912F07806180932F07E4
:103DC0001B9905C080912F07806280932F078AB1CD
:103DD00088618AB95C985B9A86B18093300783B119
:103DE0008093310763C020FF05C080912F07886052
:103DF00080932F0721FF05C080912F078064809357
:103E00002F0722FF05C080912F07806180932F0725
:103E100023FF05C080912F07806280932F07809138
:103E2000FD038133A1F124FF09C080912F07806831
:103E300080932F0703C014B88FEF85B98091FD03DD
:103E40008932A1F544E2E42EF12C03E210E025E2F0
:103E500030E047E250E068E270E080E20E949419AE
:103E60008095833010F0809338073AE2E32EF12CEE
:103E700009E210E02BE230E047E250E068E270E057
:103E800088E00E9494198095809339070FC0189B91
:103E90000DC0209A289887EB9BE00197F1F700C0AE
:103EA00000001C9BC8CF81E08093EB031F910F9112
:103EB000FF90EF90089585EA91E0089508950895A0
:103EC000089517B88FE388B914B88FEF85B90895AE
:103ED00087B1836087B918B884E08A95F1F787B114
:103EE0008C7F87B984E08A95F1F786B1837083303F
:103EF00011F48BE0089580E00895E0E4F8E080E0BC
:103F000090E040E250E09A01082E02C035952795D6
:103F10000A94E2F768B1A22FA0956A2368B967B145
:103F2000622B67B964E06A95F1F776B173707083BC
:103F300063B168736695672B6083189B02C06062EB
:103F4000608338B1322B38B927B12A2327B90196BB
:103F5000319684309105B9F630914008832F8370F3
:103F600019F481E08093EB03309590E030FB94F9F5
:103F700040914108842F80958170982B8091420850
:103F8000809520E080FB21F9922B20914308522F4D
:103F9000509560E050FB67F951FB65F9962B9093C3
:103FA0002F0750E033FB55F934FB52F9409590E070
:103FB00042FB97F943FB94F944FB91F9952B50E0B0
:103FC00082FB56F983FB53F984FB50F9952B9093B0
:103FD000300790E032FB90F950E085FB51F9852FD6
:103FE000892B60E035FB63F9862B90E045FB92F965
:103FF000892B8093310724FD04C080913A078062A9
:1040000005C023FD05C080913A07806180933A077F
:1040100022FD04C080913A07886005C025FD05C0D7
:1040200080913A07846080933A07089581EB91E08C
:10403000089508950895089588B1806388B9089512
:104040008091BC0087FFFCCF8091B900887F0895E4
:104050009F92AF92BF92CF92DF92EF92FF920F9317
:104060001F93CF93DF93B82E6B01942EA52E790169
:104070006115710561F42115310509F477C084EAF1
:104080008093BC000E942020803189F532C084EAF0
:104090008093BC000E942020883009F06AC08B2DDC
:1040A000880F8093BB0084E88093BC000E9420208E
:1040B000883109F047C0C92DDA2DCC0EDD1E24E869
:1040C000A22ECC15DD0559F089918093BB00A092FA
:1040D000BC000E9420208832A1F323E038C0E11404
:1040E000F10469F684E98093BC0080E043C0883025
:1040F00059F58B2D880F81608093BB0084E88093F5
:10410000BC000E942020803409F5E701219784E853
:10411000F82E94ECE92ECF3FFFEFDF0719F320973D
:1041200019F0E092BC0002C0F092BC000E94202076
:104130002197877F8035B1F68091BB00F80181938C
:104140008F01E9CF22E003C024E001C025E090E028
:10415000803A31F0883F81F0883321F484E803C04D
:1041600084EA01C084E98093BC0006C08FEF9FEF12
:1041700004C081E090E001C0822FDF91CF911F91B8
:104180000F91FF90EF90DF90CF90BF90AF909F90F6
:104190000895AF92BF92CF92DF92EF920F931F9349
:1041A000CF93DF931F92CDB7DEB789835B016A019E
:1041B000E12C00E010E020E030E0AE014F5F5F4F07
:1041C00061E070E082E50E942820811117C08FEA2B
:1041D00094E00197F1F700C000008501960140E0EE
:1041E00050E060E070E082E50E942820811106C066
:1041F000EFEAF4E03197F1F700C000000F90DF9193
:10420000CF911F910F91EF90DF90CF90BF90AF9023
:104210000895EF920F931F93CF93DF93CDB7DEB73F
:1042200060970FB6F894DEBF0FBECDBF84E38093D6
:10423000B8008091B9008C7F8093B90010918C03F5
:1042400011113FC080EF898385E58A83E12C00E06E
:1042500010E020E030E0AE014F5F5F4F62E070E0C1
:1042600082E50E942820EFEAF4E03197F1F700C0E0
:104270000000811137C18BEF89831A8220E030E082
:10428000AE014F5F5F4F62E070E082E50E94282040
:10429000EFEAF4E03197F1F700C00000811122C18C
:1042A00042E050E0BE016F5F7F4F8EEF0E94C92059
:1042B000811118C18A818093C90181E080938C03A8
:1042C00011C1113009F0EEC046E050E0BE016F5F51
:1042D0007F4F80E00E94C920882361F080918B038A
:1042E000811102C01093EB0380EF8093C9011092FB
:1042F0008C03F8C010928B038091C901853009F4BA
:10430000F1C030F4813009F44CC0833039F449C035
:10431000813109F446C0803F09F4E4C0E9817A8123
:104320007095FE818B8124E0829FC00111248A5FF9
:1043300091092F2F2C7030E03595279535952795CD
:10434000822B932B96958795682F4C8184E0489F0C
:10435000A0011124CA018A5F91092F2F207330E038
:10436000A4E035952795AA95E1F7822B932B969596
:104370008795282F4D8194E0499FA0011124CA01FF
:104380008A5F91093F2F3295369536953370832B8E
:10439000969587959F2F90959170F1FD8CC09260B6
:1043A0008AC06981E62FEE0FEE0F9A81F4E09F9F9D
:1043B00090011124722F70958B81907C9295969527
:1043C0009770607C669566956695692B982F991F06
:1043D0009927991F692B660F660F660F282F220FEA
:1043E000220F220F2095AC813D81F32FF09590E0B4
:1043F000F1FB97F9F2FB95F9F4FB94F9F5FB96F9CB
:10440000F92F5E81452F409590E043FB93F944FBE3
:1044100091F945FB92F946FB90F99F2BF0E042FBA6
:10442000F1F947FBF0F94F2F33FD05C0F09131074B
:10443000F460F093310750FD05C0F0913A07F46045
:10444000F0933A0737FD05C0F0913A07F062F09318
:104450003A0751FD05C050913A07506150933A0711
:1044600036FD05C030913A07386030933A07E111C4
:1044700006C07F3F21F420E860E870E8E0E8309172
:10448000EA0331111BC03A2F330F330F330F8076FD
:1044900086958695A295A695A7708A2B880F880F7A
:1044A000880F0EC080E030E02FEF6FEF40E090E02B
:1044B00070E8E0E805C030E040E002C080E030E0B5
:1044C00090932F0740933007E093320770933307A0
:1044D000609335072093360780933407309337076E
:1044E0001092BC0060960FB6F894DEBF0FBECDBF31
:1044F000DF91CF911F910F91EF90089588B18C7F3C
:1045000088B987B1836087B986B18033D8F081E0FC
:1045100080938B030E9409211092BC008091C901F5
:10452000803F81F0882341F0813041F0833041F0B9
:10453000813141F487E308958DE008958FE1089576
:1045400080E2089580E008958DEB91E0089508954C
:104550001092E7038FE284B98FEF85B98FE78CBDA6
:1045600080911D07811103C08DE080931D0780910C
:104570002B07811103C08EE080932B078091E90304
:10458000811103C083E18093E9038091FA038111D3
:1045900003C084E18093FA030895843608F484E626
:1045A0008093A5036093A30308958FEF8093A603E0
:1045B0006093A40308958EBD0DB407FEFDCF8091D6
:1045C0000004811102C00E94FA028BE291E001977F
:1045D000F1F700C000008EB50895CF93C3E029988D
:1045E0008BE291E00197F1F700C0000081E00E94AA
:1045F000DB2282E40E94DB22299AEBE2F1E0319790
:10460000F1F700C000009FEF980F9E3F30F491E05B
:1046100090938D039093E70308C0E7EBFBE031979D
:10462000F1F700C00000C150D1F69CB59F7B9CBD46
:104630009091E703911101C080E0CF910895CF934D
:1046400029988BE291E00197F1F700C0000081E02A
:104650000E94DB2285E40E94DB2280E00E94DB22B4
:104660008AE50E94DB22C5E08AE50E94DB22C15078
:10467000D9F7299A8BE291E00197F1F700C0000089
:10468000CF910895CF93C82F29988BE291E001979D
:10469000F1F700C0000081E00E94DB2283E40E9469
:1046A000DB2280E00E94DB228C2F0E94DB2280E054
:1046B0000E94DB22CC2349F0299A8BE291E00197FA
:1046C000F1F700C00000CF9108958AE50E94DB2237
:1046D0008AE50E94DB228AE50E94DB228AE50E94AD
:1046E000DB22EACFFF920F931F93CF93DF93CDB7D7
:1046F000DEB7DA950FB6F894DEBF0FBECDBF2B9AAA
:10470000239A8CB580648CBD8BE291E00197F1F720
:1047100000C000008091F7032998882309F440C065
:10472000EBE2F1E03197F1F700C0000080912C0737
:104730008983F12C80912C07F81688F40F2D10E056
:10474000F801E55EF94F80810E94DB22E2E0F0E0B3
:10475000EC0FFD1FE00FF11F8083F394EBCF10E00F
:1047600080912C071817A8F4812F90E0FC01E55EDA
:10477000F94FA1E0B0E0AC0FBD1FA80FB91F8C919D
:10478000808380910004811102C00E94FA021F5FA1
:10479000E7CF1092F70381E08093FC03299AD8C1F8
:1047A0008BE291E00197F1F700C000008091A60331
:1047B000882381F08091A4039FEF980F9E3F18F407
:1047C0009093A40309C08F3F39F01092A403109274
:1047D000A60302C01092A4038091A503882381F050
:1047E0008091A3039FEF980F9E3F18F49093A3032B
:1047F00009C08F3F39F01092A3031092A50302C0A5
:104800001092A30381E00E94DB2282E40E94DB225B
:1048100080938F0380E00E94DB22182F8091A603F3
:104820000E94DB22809391038091A5030E94DB22EA
:104830008093920380918F03833E19F48FE78093D6
:104840008F0380918F03833219F483E380938F0366
:1048500090918F038091FD03981741F081E091348E
:1048600019F080938D0302C08093EA039093FD03B7
:104870001F3F29F4299A81E08093EB0369C19134A9
:1048800031F481E080939403809393032CC0993793
:1048900069F403E913E080E00E94DB22F8018193D0
:1048A0008F01F3E0033A1F07B1F71DC080E00E94BB
:1048B000DB228093930380E00E94DB2280939403A9
:1048C00080E00E94DB22809395038091FD03833575
:1048D00029F480E00E94DB22809503C080E00E94E2
:1048E000DB2280939603299A80918D03882309F413
:1048F000B0C08CEF92E00197F1F700C00000109279
:104900008D038091FD03813409F45BC081E00E9436
:1049100042232998EBE2F1E03197F1F700C0000063
:1049200081E00E94DB228DE40E94DB2280E00E9475
:10493000DB2280E00E94DB2281E00E94DB228FEFFD
:104940000E94DB228FEF0E94DB228FEF0E94DB228E
:104950008FEF0E94DB22299A8BE291E00197F1F719
:1049600000C000002998EBE2F1E03197F1F700C0B8
:10497000000081E00E94DB228FE40E94DB2280E0C5
:104980000E94DB228FEF0E94DB228FEF0E94DB224E
:1049900083E00E94DB2280E00E94DB2280E00E9414
:1049A000DB2280E00E94DB22299A8BE291E00197D2
:1049B000F1F700C000000E941F2380E00E94422304
:1049C00048C081E00E9442230E941F232998EBE205
:1049D000F1E03197F1F700C0000081E00E94DB2296
:1049E00084E40E94DB2280E00E94DB2281E00E94BE
:1049F000DB2280E00E94DB2280E00E94DB2280E05C
:104A00000E94DB2280E00E94DB2280E00E94DB2209
:104A1000299A8BE291E00197F1F700C0000080E055
:104A20000E9442232998EBE2F1E03197F1F700C0B0
:104A3000000081E00E94DB2282E40E94DB22299AAE
:104A4000EBE2F1E03197F1F700C00000813409F0AA
:104A50005DCF909192039095392F329580E0832716
:104A60008D73832730FB83F932FB80F933FB82F9A6
:104A7000382F80919103809520E080FB24F983FBFF
:104A800025F9232B20932F07937020E081FB26F933
:104A900082FB27F9292B2093300790913A07E0E019
:104AA00084FBE2F985FBE5F986FBE3F987FBE4F992
:104AB0008E2F892B80933A07209193033091940392
:104AC000832F90E0820F911D029709F441C020933B
:104AD0003507309336078091950380933207809194
:104AE000960380933307E7E9F3E0AEE1B7E0819105
:104AF0008D9323E0E33AF207D1F7E0911D07E5310A
:104B000031F0F0E0E257FC4F808180933807E0916C
:104B10002B07E53131F0F0E0E257FC4F80818093C4
:104B20003907E091E903E53131F0F0E0E257FC4F5D
:104B3000808180933407E091FA03E53131F0F0E0B1
:104B4000E257FC4F8081809337078CB58F7B8CBDFB
:104B5000D3950FB6F894DEBF0FBECDBFDF91CF91D6
:104B60001F910F91FF9008958AEC91E0089528E03D
:104B700030E040E89FE26FE07FE3592F5095E42F4B
:104B8000E82398B9EE2319F078B958B901C068B98B
:104B9000952F4695215031092115310571F708955A
:104BA000CF92DF92EF92FF920F931F93CF93DF93F9
:104BB0001F92CDB7DEB78C01F12CE12CF61684F4F0
:104BC0006801CF0CD11CF7FCDA94F601808169836F
:104BD0000E94B725F6018081E826F3946981EECF23
:104BE0008E2D0F90DF91CF911F910F91FF90EF903D
:104BF000DF90CF9008958FE387B988B98FE188B9A6
:104C000088E020E198B1922798B98150D9F78FE3D5
:104C100088B908958FE387B988B98FE288B984E0AD
:104C200020E298B1922798B98150D9F78FE388B9DB
:104C300008950E94FB2568E08AED91E00E94D0254E
:104C40000E94B7250C940A268091A903882311F0AD
:104C500080E1089580E008956093AA030895609329
:104C6000AA0308951F93CF93DF93182FC42F4F3FAC
:104C700019F0411101C0C1E0D62FD295D695D77059
:104C800009F4D1E0D295D07FD068CF3F09F4C1E0DC
:104C90000E94FB2582E00E94B72580E00E94B72594
:104CA000812F0E94B7258EE00E94B72580E00E94E8
:104CB000B72581E00E94B72580E00E94B72580E0FB
:104CC0000E94B7258C2F0E94B72582E30E94B7254A
:104CD0008D2F0E94B72580E10E94B7258FE28127A2
:104CE0008D278C270E94B7250E940A2683E893E02F
:104CF0000197F1F700C00000DF91CF911F91089557
:104D00001092EF0380E388B91092A90381E08093A9
:104D1000A8031092A7030E94FB2564E086ED91E0B2
:104D20000E94D0250E94B7250E940A2687EB9BE0AF
:104D30000197F1F700C000008FEF87B90E94192694
:104D4000E8988FEC87B980E388B982E080936800A7
:104D500080E180936C008EEC90E00197F1F700C049
:104D600000001092680010926C00E89A8FEF87B9EB
:104D70008091EF03882329F081E08093A903809339
:104D8000FF038FEF87B910926C00089510926800AE
:104D90001092EF038FEF87B9E8980E94192680E3FD
:104DA00088B98FEC87B982E08093680080E18093B6
:104DB0006C008EEC90E00197F1F700C000001092BB
:104DC000680010926C0010926C00E89A2091EF033A
:104DD000211108C081E08093EB031092A7038FEFAD
:104DE00087B908958FEF87B95091ED034091EE0395
:104DF0008091F003382F309590E030FB97F931FB2C
:104E000091F932FB90F933FB95F9392F922F909558
:104E100060E090FB66F991FB63F992FB62F993FB0A
:104E200064F9962F932B90932F0794FF03C033E2DE
:104E30003093FD033091FD03333251F42095322F2E
:104E40003295337030933007207C292B20932F0725
:104E500020912F075B3F10F090E401C090E0292BD8
:104E60004B3F10F090E801C090E0922B90932F07F9
:104E70008095859585958C7380933A075093340778
:104E8000409337078091F303809333078091F403B5
:104E90008093320708950F931F93CF93DF938091F0
:104EA000F7038823E1F00E94FB2560912C078BE13A
:104EB00096E00E94D0250E94B7250E940A2640E075
:104EC00051E061E070E08BE196E00E94493480E4BB
:104ED00080931B068FEF80931C061092F70380913E
:104EE000AA038230A8F08F3F19F081508093AA0363
:104EF0008091A70380FF05C04FEF6FEF81E00E9414
:104F000032268091A70381FF47C04FEF6FEF13C098
:104F10008130A9F41092AA038091A70380FF05C0F5
:104F200040E060E081E00E9432268091A70381FF8B
:104F300033C040E060E082E00E9432262DC0C09184
:104F4000A8030E94FB2580E00E94B72580E00E9414
:104F5000B7258C2F0E94B72581E00E94B72581E0FC
:104F60008C270E94B7250E940A2680E388B98FEC1F
:104F700087B994E286B18073803309F059C028E282
:104F80002A95F1F79150B1F7C0958091A7038C2332
:104F90008093A7038FEF87B98091FF038130C1F51C
:104FA0008091A8038130A1F58091A70380FF30C0D4
:104FB0008FE697E10197F1F700C000001092FF0320
:104FC0000E94FB256CE082EE91E00E94D025182F14
:104FD000C0E0D0E0CE0123E0822780569F4F0E94A0
:104FE0005034082F0E94B72510272196C03CD105C8
:104FF00089F7812F0E94B7250E940A2680E388B98D
:105000008FEC87B987E592E00197F1F700C00000C7
:105010008091A803813011F482E001C081E0809387
:10502000A8038FEF87B9DF91CF911F910F9108955A
:105030009CE29A95F1F784E296B19073903331F443
:1050400098E09A95F1F78150B9F7A4CF8091A70322
:10505000282F30E04C2F552747FD5095242335232A
:105060002417350709F496CFC82BC093A7038AE00D
:105070008093AA038FCF8EEE91E0089508956093F8
:10508000AC0390910602953069F0992359F088237A
:1050900021F0933039F082E003C0913019F084E0C0
:1050A0008093060208950C943F28FF920F931F935C
:1050B000CF93DF93CDB7DEB7A6970FB6F894DEBFD8
:1050C0000FBECDBF8091F703882309F463C06091C0
:1050D0002C0770E020E0822F992787FD9095861796
:1050E00097076CF4E1E0F0E0EC0FFD1FE80FF91F0B
:1050F000DC01A55EB94F8C9180832F5FECCFCE0190
:1051000001960E94A50C21E031E0EBE1F6E0DF0121
:10511000A9011D9241505040E1F7869586958695EC
:10512000682F70E090E000E810E0292F332727FD7A
:1051300030952617370734F5A901E3E0440F551FD2
:10514000EA95E1F7D901A45EB94FFC9020E030E088
:10515000F901E40FF51FE45CF84FE081EE2341F024
:10516000F801022E02C0F595E7950A94E2F701C016
:10517000E0E0FE2A2F5F3F4F2830310549F7FC92CF
:105180009F5FD3CF80931B061092F70381E080933B
:10519000FC030EC1198261E070E0CE0101960E940D
:1051A000A50C811104C081E08093EB0301C191E063
:1051B0009093AB03883111F010920602809153074F
:1051C000882331F080910602853011F41092060296
:1051D00080915307811103C085E08093060280917E
:1051E000AC038F3F69F0882321F081508093AC039A
:1051F00007C080910602833019F484E08093060290
:10520000809106028230F1F08430D1F1811151C0D9
:1052100083E0898380E88A8381E08B8342E250E0E7
:1052200060E870E0CE0104960E94493463E270E0C9
:10523000CE0101960E94A50C8823D9F184E08093C9
:10524000060237C013E0198380EC8A838BE18B83DD
:1052500040E250E061E070E0CE0104960E944934E3
:1052600063E270E0CE0101960E94A50C81111093BB
:1052700006028BE291E00197F1F700C0000019C02F
:1052800083E0898380EC8A838BE18B83FE013496F3
:1052900080E2DF011D928A95E9F763E270E0CE01BA
:1052A00001960E94A50C882321F381E080930602D9
:1052B000E0CF81E0898361E070E0CE0101960E9439
:1052C000A50C803209F074C030912F07209130076F
:1052D00080E090E0FC01E45CF84F4081442351F011
:1052E000FC01EF5BFD4F4081FC01EF5CFD4F508105
:1052F000252B342B01968031910561F730932F07D0
:105300002093300780914007882329F080913A0745
:10531000846080933A0780914107882329F0809127
:105320003A07886080933A0780914307882329F0E1
:1053300080913A07806280933A07809142078823E0
:1053400029F080913A07806180933A0780E090E0ED
:10535000A0E0B0E020E830E0482FFC01E45BF84F2B
:105360005081552341F0B901082E02C0759567950B
:105370000A94E2F701C060E0B62BFC01EC5AF84F4A
:105380005081552341F0B90102C0759567954A9542
:10539000E2F7AB0101C040E0A42B019688309105F3
:1053A000D9F6B058B09332078FE78A1B8093330742
:1053B000A6960FB6F894DEBF0FBECDBFDF91CF919A
:1053C0001F910F91FF9008950E9455288091AB0383
:1053D000882319F08091FD03089580E008951092CC
:1053E000AB031092AC030C94A20C8AEF91E00895E9
:1053F0000895089517B88FE388B908958FE188B9A3
:1054000082EC90E00197F1F700C000008FE388B9CB
:1054100008958FE387B98FE188B987EE98E0019707
:10542000F1F700C0000008958FE188B984E78A95FC
:10543000F1F78FE388B981ED90E00197F1F700C0B3
:1054400000008FE188B9089527E030E090E06FE335
:105450007FE144E84A95F1F7AC01022E02C0559570
:1054600047950A94E2F740FF08C068B9E2ECF0E023
:105470003197F1F700C0000007C0F8E7FA95F1F79F
:1054800068B94CE84A95F1F778B92150310908F725
:105490000895CF93C82F0E94092A0E94142A8C2FA6
:1054A0008C630E94242A0E94FE2917B89EEF84E094
:1054B0008A95F1F735996CC0ECEAEA95F1F728E0A6
:1054C00030E040E050E0BA0180E8EBE2F1E03197F3
:1054D000F1F700C000003599482B8695215031091D
:1054E0002115310591F7762F652F542F442728E099
:1054F00030E080E8EBE2F1E03197F1F700C0000026
:105500003599482B8695215031092115310591F7A0
:10551000762F652F542F4427C11135C088E090E0C5
:1055200020E8203829F4EDE0F1E03197F1F704C0EC
:10553000EBE2F1E03197F1F700C000003599422B22
:10554000000026950197009761F7B62FA52F942F9D
:105550008827EFEAF4E03197F1F700C0000024E07B
:1055600030E048E0EBE2F1E03197F1F700C00000F5
:105570003599842B4695215031092115310591F734
:10558000BC01CD010BC0992777FD9095892F06C0EE
:10559000915009F08CCF60E070E0CB01CF9108957D
:1055A0008F929F92AF92BF92CF92DF92EF92FF9233
:1055B0000F931F9380E00E94492A872E982EA92ED0
:1055C000BB24A7FCBA94882009F45EC0092F3327B6
:1055D00007FD3095132F232F402F441F4427441FCE
:1055E00053E0541B452F6C01FF24D7FCF094EF2CA3
:1055F000C7FC4D7F5C2DC6FE04C050955F7751956A
:1056000001C05F7706FF04C000950F77019501C0C8
:105610000F7720E8250F20933207005800933307B7
:105620001092AF0320E82093140220931302809479
:10563000609580E082FA82F983FA84F984FA85F928
:1056400085FA83F98093AE0380E080FA83F981FACA
:1056500082F986FA80F987FA81F990E4499F40013E
:105660001124882960FD80618093AD0361FF05C02E
:105670008091AF0384608093AF0362FF05C0809187
:10568000AD0380628093AD038091AD0380932F07BB
:105690008091AE0380933A078091AF0380933007E7
:1056A0001F910F91FF90EF90DF90CF90BF90AF9040
:1056B0009F908F90089583E00E94492A672B682B62
:1056C000692B11F08AE008950895E89883E00E941C
:1056D000492A672B682B692B21F481E08093EB0327
:1056E00023C0E89A8BED95E00197F1F700C0000028
:1056F000E8980E94092A0E94142A8BE30E94242A17
:105700000E94FE2987E592E00197F1F700C00000B2
:105710000E94142A83E60E94242A86E40E94242AF6
:105720000E94FE2917B8449AE89A089587E092E00B
:10573000089508950895089517B814B88FE388B9A7
:105740008FEF85B9089524B1217C24B925B12E634A
:1057500025B918B817B82FE328B9539A5B9854980D
:105760005C9AE7EBFBE03197F1F700C0000026B14F
:105770001D9B2D7F20952F73233350F430E0F901CA
:10578000E250FD4F4081F901E553FD4F208102C0F9
:1057900020E040E0FC014083FB01208308950F934B
:1057A0001F93CF93DF9300D000D0CDB7DEB7BE01FB
:1057B0006F5F7F4FCE0102960E94A32B539A5B9896
:1057C00054985C9A83E087B98CE388B988E384B9FC
:1057D00087EC85B987EB9BE00197F1F700C00000EB
:1057E00026B125FB222720F981E02827349B22605F
:1057F000339B24604C9B28608CE387B983E088B995
:1058000084B1877C84B985B1886385B987EB9BE0D7
:105810000197F1F700C0000086B18695817091E094
:105820008927309B82604C9B846030E1839FC0015C
:105830001124822B40978D33910540F4FC01EE0F2B
:10584000FF1FEF5AFD4F0081118102C000E010E000
:105850008FE388B987B18C7F87B987EB9BE001978D
:10586000F1F700C0000086B18E3309F4106286B1F2
:105870008D3309F4106486B18C3309F41068C801C3
:10588000887F892B21F08091B0038C8315C0BE01E5
:105890006D5F7F4FCE0104960E94A32B8C819A816D
:1058A000891721F08091B0038C8302C08093B003EC
:1058B0008B819981891721F08091AF038B8302C07E
:1058C0008093AF039C818FE3989F902D1124905873
:1058D000909332079B81989F802D1124805880934C
:1058E0003307C801892F9927829586958770809301
:1058F0002F071F7100933007109331070F900F90FF
:105900000F900F90DF91CF911F910F91089587EB2A
:105910009BE00197F1F700C00000319902C08EE0D2
:10592000089580E0089585E192E00895A82FB92FA9
:1059300080E090E041E050EA609530E009C02D91B0
:1059400082279795879510F084279527305EC8F3B6
:105950006F5FA8F30895EADF8D939D930895CF9329
:10596000CFB7CF93C395489BE9F7489B09C0489BA5
:1059700007C0489B05C0489B03C0489B01C0A6C008
:10598000DF93C091CA03DD27CF52DC4F489B02C092
:10599000DF91EBCF2F930F931F9309B12FEF00FBF4
:1059A00020F94F933F9319B14FEF012700FB21F9E5
:1059B0003BE031C04E7F012F19B1216028C0102F6C
:1059C0004D7F2260000009B129C04B7F2460012F68
:1059D000000019B12BC019B1477F28602AC04F7E43
:1059E00009B120612CC04F7D19B120622FC04F7BBF
:1059F00009B1206432C0422709B149934FEF00003A
:105A0000102710FB20F919B11570C9F1297F91F207
:105A1000012700FB21F909B1237F89F2315058F1A8
:105A2000102710FB22F919B1277E79F2012700FB1C
:105A300023F92F7C81F209B1102710FB24F92F796B
:105A400071F200C019B1012700FB25F92F7359F23B
:105A500000C009B1102710FB26F9223040F200C027
:105A600019B1012700FB27F9243028F64F77206869
:105A700019B10000F9CF11E01CBB00271CC03B503E
:105A80003195C31BD04011E01CBB0881033C11F1D0
:105A90000B3401F12091C8031981110F1213EDCFBE
:105AA0004A81441F093659F10D3211F0013E29F7A0
:105AB0004F7009F0042F0093CF033F914F911F9136
:105AC0000F912F91DF91CCB3C0FD4CCFCF91CFBFC1
:105AD000CF9118952091CF03222379F31091CD0314
