:100000000C94B6020C941E2B0C94D3020C94D302C5
:100010000C945B2C0C94D3020C94D3020C94D3025A
:100020000C94D3020C94D3020C94D3020C94D302FC
:100030000C94D3020C94D3020C94D3020C94D302EC
:100040000C94D3020C94D3020C94D3020C94D302DC
:100050000C94D3020C94D3020C94D3020C94D302CC
:100060000C94D3020C94D302140342004C004900B8
:10007000530053002D0042004F00580004030904B0
:1000800005010905A10185010509190129181500B6
:100090002501750195188102A1000501093009317A
:1000A000093209330934093509360937150026FFA5
:1000B00000350046FF00750895088102C00501253E
:1000C00007463B01750495016514093981426500B5
:1000D000950181010601FF094975019501810225FC
:1000E0000175078103050F0992A1028502099F0985
:1000F000A009A509A6150025013500450175019542
:1001000005810295038103099415002501350045F9
:100110000175019501810209221501252835014546
:1001200028750795018102C00921A10285010922D4
:1001300015012528350145287508950191020925E5
:10014000A102092609270930093109320933093486
:1001500009400941094209430928250315013501D0
:100160004503750895019100C009500954095115BE
:100170000026FF7F350046FF7F66031055FD751092
:100180009503910255006600000952150026FF00F4
:100190003500461027750895019102095315012570
:1001A00008350145087508950191020955A1020518
:1001B000010930093115002501750195029102C030
:1001C000050F095695019102950591030957A10262
:1001D0000B01000A000B02000A0066140055FE1510
:1001E0000026FF00350047A08C000066000075085F
:1001F000950291025500660000C0050F09A766032D
:100200001055FD150026FF7F350046FF7F751095C0
:100210000191026600005500C0050F095AA1028530
:1002200002092215012528350145287508950191F7
:1002300002095B095D150026FF0035004610279571
:10024000029102095C095E66031055FD26FF7F4698
:10025000FF7F7510910245006600005500C0095FE0
:10026000A1028503092215012528350145287508B5
:1002700095019102092315002501350045017504FA
:10028000950191020958A1020B01000A000B02001E
:100290000A00750295029102C01580257F36F0D8BC
:1002A000461027096075089501910236F0D846106E
:1002B000270961096295029102150026FF003500A9
:1002C000461027096309647508950291020965467D
:1002D000102795019102C0096EA10285040922151B
:1002E00001252835014528750895019102097015E9
:1002F0000026FF0035004610277508950191020978
:100300006F1580257F36F0D8461027950191020998
:100310007166140055FE150026FF00350047A08CBD
:1003200000009102097226FF7F46FF7F6603105589
:10033000FD7510950191026600005500C00973A17A
:1003400002850509221501252835014528750895DE
:1003500001910209701601FF26FF0036F0D8461001
:1003600027751095019102C00974A1028506092222
:100370001501252835014528750895019102097553
:1003800009761580257F36F0D84610277508950226
:100390009102C00966A102850805010930093115DD
:1003A00081257F350046FF00750895029102C00542
:1003B0000F0977A102850A09221501252835014573
:1003C000287508950191020978A1020979097A092D
:1003D0007B15012503750895019100C0097C150066
:1003E00026FF00350046FF009102C00990A102855A
:1003F0000B0922252815013501452875089501911D
:1004000002C00996A102850C099709980999099AD1
:10041000099B099C15012506750895019100C009E5
:100420007DA102850D097E150026FF0035004610CE
:1004300027750895019102C009ABA102850F092516
:10044000A102092609270930093109320933093483
:1004500009400941094209430928250315013501CD
:10046000450375089501B100C00501093B1500263B
:10047000FF01350046FF01750A9501B1027506B10D
:1004800001C0050F0989A10285020922252815014D
:100490003501452875089501B102098BA102098C27
:1004A000098D098E25031501350145037508950150
:1004B000B100C009AC150027FFFF0000350047FF61
:1004C000FF000075109501B100C0097FA1028503EE
:1004D0000980751095011500350027FFFF000047C2
:1004E000FFFF0000B102098326FF0046FF007508E8
:1004F0009501B10209A909AA750195021500250106
:1005000035004501B10275069501B103C00901A18D
:1005100001150026FF0075088510950D0900B2022F
:1005200001851195050900B202018515950D090097
:10053000B2020185169600010900B20201851795E5
:10054000300900B20201851295080900B202018546
:1005500013951C0900B20201851895C00900B2026A
:1005600001851495C40900B20201C0C011241FBE48
:10057000CFEFD8E0DEBFCDBF12E0A0E0B1E0E4ED08
:10058000F5E602C005900D92A234B107D9F727E035
:10059000A2E4B2E001C01D92AF34B207E1F70E94BD
:1005A000F62C0C94E8320C940000CF93C62F2091C7
:1005B000C70224FF07C02091C80238E823272093F0
:1005C000C80203C02AE52093C702DC01E9ECF2E08F
:1005D0009C2F9E0F8D918193892F8E1B1816D4F31B
:1005E0006C2F89EC92E00E941A2BCC5FC093C7025B
:1005F000CF910895CF93DF936091D802635067FD48
:10060000DFC08091D502CCE0D0E0C81BD109C45234
:10061000DD4F8091D402803120F4CE010E94A307E7
:10062000C9C08D3209F0B3C0683009F0C3C083EC93
:100630008093BC028AE58093020110924202888175
:10064000807621F0CE010E94A80689C09A8110927E
:10065000C5028981811107C01092C60225EC32E0E3
:1006600082E090E078C0853019F49093D9026FC091
:10067000863009F055C08B81813011F0823029F429
:10068000CE010E94800620E048C0833081F59111A0
:100690000AC08CE790E09093D7028093D60220E4C2
:1006A00084E090E03AC0913051F488E690E0909375
:1006B000D7028093D60220E484E190E02EC09230ED
:1006C00051F48EE391E09093D7028093D60220E01C
:1006D00082E290E022C09330E9F480E691E09093CA
:1006E000D7028093D60220E08AE090E016C08132E3
:1006F00051F485E592E09093D7028093D60220E4EE
:1007000089E090E00AC0823229F4CE010E9480067E
:1007100020E403C020E480E090E0209342021FC068
:10072000883069F0893019F49093DB0210C08A3068
:1007300049F08B3061F48BE48093C80208C02BED44
:1007400032E002C025EC32E081E090E004C025EC0C
:1007500032E080E090E03093D7022093D6028F3FC2
:100760002FEF920749F4288127FF02C08E819F81D5
:1007700020E82093420206C02E813F8128173907C6
:1007800008F4C901909301018093000113C0809186
:10079000420287FF0FC0CE010E940F088F3F21F455
:1007A0008EE18093020106C0882321F0109201019E
:1007B000109200018091D802181614F41092D802F9
:1007C0008091020184FF54C0809100019091010149
:1007D0008F3F2FEF920709F44BC0BC018930910580
:1007E00010F068E070E0861B970B909301018093F6
:1007F00000018091BC0298E889278093BC02C62F33
:10080000662331F12091D6023091D70280914202C5
:1008100086FF0BC0ADEBB2E0F901862F8A0F9491F1
:100820009D9331968A13FBCF09C0D901EDEBF2E01D
:10083000862F8E0F9D9191938E13FCCF8FEF8C0F8F
:1008400090E00196820F931F9093D7028093D60277
:100850006C2F8DEB92E00E941A2BCC5FCC3031F0E4
:100860008FEF9FEF9093010180930001C0930201ED
:1008700084E199B1957031F48150D9F71092D90281
:100880001092D302DF91CF910895E9E6F0E08081E4
:1008900082608083E89A8BE48093C8028AE5809323
:1008A000C702089590E890934B0290934C028FE713
:1008B0008093490280934A029093470290934802A2
:1008C000809345028093460208950F931F93CF9320
:1008D000DF9380E290E00E94BE32813081F083E1BC
:1008E00090E00E94BE32809355028F3FB9F410927F
:1008F000550260E083E190E00E94D6320FC00EE026
:1009000013E0C1E2D0E0CE010E94BE32F801819333
:100910008F012196C933D105B1F7E1CF84E190E091
:100920000E94BE32809306038F3F39F41092060373
:1009300060E084E190E00E94D63286E190E00E947F
:10094000BE3280930D038F3F39F410920D0360E0A7
:1009500086E190E00E94D63287E190E00E94BE32AC
:10096000809303038F3F39F41092030360E087E123
:1009700090E00E94D63288E190E00E94BE328093DF
:100980006A018F3F39F410926A0160E088E190E0DB
:100990000E94D6328CE190E00E94BE32813F48F046
:1009A00088E08093280668E08CE190E00E94D632CF
:1009B00003C0885F809328068DE190E00E94BE32DC
:1009C00080933606813F48F087E08093280667E0F1
:1009D0008DE190E00E94D63203C0885F8093360696
:1009E0008EE190E00E94BE32813F48F085E0809326
:1009F000F40265E08EE190E00E94D63203C0885F89
:100A00008093F4028FE190E00E94BE32813F60F05B
:100A100086E08093050366E08FE190E0DF91CF915F
:100A20001F910F910C94D632885F80930503DF915C
:100A3000CF911F910F91089588E10FB6F89480939C
:100A40006000109260000FBE519859982FE78CEF0C
:100A50009AE0215080409040E1F700C00000F894F7
:100A6000E0E0F8E70994CF9314B817B88FEF85B991
:100A700088B98AB188618AB95C985B9A80910B03C6
:100A8000811102C00E94FA0287EB9BE00197F1F707
:100A900000C0000086B18F3641F40E94BF1E9093C3
:100AA000010380930003C0E328C10E94F0109093DB
:100AB000010380930003DC01ED91FC910995E09125
:100AC0000003F09101030480F581E02D0995C82F02
:100AD000811113C1549A5C9853985B9A17B88FEFA1
:100AE00088B987E293E20197F1F700C000004B99C3
:100AF00013C086B18F3781F483B18F3369F4209AA4
:100B0000289800001C9B08C00E94BF1E9093010300
:100B100080930003CAE2F1C096B15C985B9AA0E2B0
:100B2000AA95F1F780EC87B98FE388B98AB188611B
:100B30008AB95B985C9AB0E2BA95F1F786B18B30CE
:100B400041F40E94BF1E9093010380930003C2E210
:100B5000D4C086B18D3351F49F3741F40E94BF1E3B
:100B60009093010380930003C1E0C7C00E943B172C
:100B70009093010380930003DC01ED91FC910995B2
:100B8000E0910003F09101030480F581E02D0995C7
:100B9000C82F8111B2C00E94A727909301038093B0
:100BA0000003DC01ED91FC910995E0910003F091C7
:100BB00001030480F581E02D0995C82F81119DC0A6
:100BC0000E9420259093010380930003DC01ED91A6
:100BD000FC910995E0910003F09101030480F581F7
:100BE000E02D0995C82F811188C00E94E4189093C8
:100BF000010380930003DC01ED91FC910995E091E4
:100C00000003F09101030480F581E02D0995C82FC0
:100C1000811173C00E94BD0E909301038093000365
:100C2000DC01ED91FC910995E0910003F091010345
:100C30000480F581E02D0995C82F882361F08D325D
:100C400019F0833109F059C00E9461299093010382
:100C50008093000352C00E94022B90930103809363
:100C60000003DC01ED91FC910995E0910003F09106
:100C700001030480F581E02D0995C82F81113DC045
:100C80000E947A1F9093010380930003DC01ED9191
:100C9000FC910995E0910003F09101030480F58136
:100CA000E02D0995C82F811128C00E94FF21909343
:100CB000010380930003DC01ED91FC910995E09123
:100CC0000003F09101030480F581E02D0995C82F00
:100CD000811113C00E94BF1E9093010380930003F3
:100CE000DC01ED91FC910995E0910003F091010385
:100CF0000480F581E02DCF9109948C2FCF91089538
:100D0000FC012181263009F583818230A9F08232ED
:100D100059F08130D1F48CE291E09093D702809326
:100D2000D60282E190E0089580E890E09093D702A7
:100D30008093D6020C94BB0B83E091E09093D70292
:100D40008093D60289E290E0089580E090E00895D3
:100D50000F931F93CF93DF93FC01A6E2B3E080E0F3
:100D600092E0ED019C01199221503040E1F7B093DF
:100D7000D702A093D60280818076803209F0D9C054
:100D800082819381923009F4D7C02181213009F00A
:100D9000C6C0833091F4933009F0CBC084E18093D6
:100DA0004F029093260320932703209328038FEF6D
:100DB0008093290320932A0312C0823099F4933040
:100DC00009F0B7C0809326038091600280932703C7
:100DD0002093280384E680932A038093290385E0E7
:100DE00090E0ACC0873189F420934F0206E213E013
:100DF000C0E1D0E0CE010E94BE32F80181938F01A4
:100E00002196C034D105B1F781C0853189F481E1E3
:100E100090E00E94BE3280932603E9E2F6E0A7E26A
:100E2000B3E081918D9326E0E533F207D1F771C0ED
:100E30008631F1F481E190E00E94BE328093260376
:100E40008091260590E0AC014F5F5F4F61E0262F57
:100E500030E04217530754F0F901EA5DFC4FD90125
:100E6000AB5DBA4F2C9120836F5FF1CF029666C0C5
:100E70008831C1F420934F0281E190E00E94BE329C
:100E80008093260307E213E0C0EAD0E0CE010E947F
:100E9000BE32F80181938F012196C036F1E0DF0761
:100EA000A9F73AC0813109F044C0809108038093CA
:100EB00026032091030348E0249F90011124809190
:100EC0000603C0E18C9FC0011124282B8091F602FB
:100ED000282B80910D03D0E48D9FC0011124282B75
:100EE0008091F502E0E88E9FC0011124282B209309
:100EF00027038091500280932803809152028093AF
:100F000029038091510280932A0369CF80E390E006
:100F100015C08DE090E012C081EC90E00FC081E040
:100F200090E0293011F080E090E091958195910951
:100F300005C080E090E002C081E090E0DF91CF91B9
:100F40001F910F910895FC018081843041F48181CB
:100F5000823008F463C0828180936C0108958130EF
:100F600089F4683009F05AC0918180916202981723
:100F700009F454C08481882309F450C0880F8093F9
:100F80005F020895823009F449C0853041F48181BF
:100F9000813009F043C0828180936D0108958A30C9
:100FA000E9F5838160915F02623008F4682F8181E6
:100FB0008130C1F48281E0910003F091010383301C
:100FC00031F410925F020284F385E02D19C0809104
:100FD0006D018F3F19F4613009F46FEF0284F385DE
:100FE000E02D1BC08230D0F08281E0910003F091AF
:100FF0000103833041F410925F020084F185E02DFB
:1010000063E088EC0AC080916C018F3F19F4613075
:1010100009F46FEF0084F185E02D09940895DF92C3
:10102000EF92FF920F931F93CF93DF93EC0131E088
:1010300030934F0280915602811193C188818F3085
:1010400021F48981809360028AC18251833008F043
:1010500086C199819432A9F48CEB809357029093C6
:10106000560284E080935802249600EA10E06991C9
:10107000C8010E94D6320F5F1F4F043A1105B9F71D
:101080009DC19230B9F485E1809357029093560246
:1010900084E08093580288E1EEE0F3E0DF011D92E6
:1010A0008A95E9F7249689918193B3E0E231FB07B1
:1010B000D1F784C1953291F52A81211112C08C811A
:1010C000809337069D81909326059E8190932705F6
:1010D0009F8190932805843008F041C1309302032A
:1010E0003EC12F3F19F4209137062550FE0133965B
:1010F00080E090E030E02A5D3A4F4191D901A80F9D
:10110000B91F4C93019685309105B9F78A818F3FBD
:1011100009F025C181E080930203A9C1903289F4CE
:101120008C81885F809328068D81885F8093360646
:101130008E81885F8093F4028F81885F809305039E
:101140000EC1913009F0A8C08C818F3F09F08BC08F
:101150008D81813069F56091060384E190E00E9401
:10116000D63260910D0386E190E00E94D632609104
:10117000030387E190E00E94D63260912806685010
:101180008CE190E00E94D6326091360668508DE185
:1011900090E00E94D6326091F40268508EE190E0B7
:1011A0000E94D6326091050368508FE190E058C0EC
:1011B000823009F0D4C01092550260E083E190E0E3
:1011C0000E94D6321092060360E084E190E00E9413
:1011D000D63210920D0360E086E190E00E94D63294
:1011E0001092030360E087E190E00E94D6321092F3
:1011F0006A0160E088E190E00E94D63268E08CE10C
:1012000090E00E94D63280E18093280667E08DE16D
:1012100090E00E94D6328FE0809336066BE08EE13C
:1012200090E00E94D63283E18093F4026CE08FE17B
:1012300090E00E94D63284E180930503EEE0F3E073
:1012400081E081938F5F8931E1F748E150E061E20D
:1012500070E08EE093E00E94C63261E080E290E0B0
:101260000E94D6327CC083FF04C091E090930303B8
:1012700002C01092030384FF04C091E09093060320
:1012800002C01092060386FF04C081E080930D0324
:10129000EEC010920D0363C08CEF890F823068F5A9
:1012A0008C81882361F0813029F41D8111110AC0DD
:1012B0001FEF08C0823031F41D810E8104C010E0A0
:1012C00000E001C00FEF943051F4E0910003F09181
:1012D00001030284F385E02D602F812F0995898118
:1012E0008530E9F5E0910003F09101030084F18578
:1012F000E02D602F812F099532C0983061F46C8108
:1013000081E190E00E94D6328D81882341F144E052
:101310004A95F1F714C0903191F0903499F46C81B2
:101320006093550281E0809303038D818823B9F097
:1013300083E190E00E94D63284E08A95F1F70E9422
:101340001C050DC0903859F460913A0660936A010B
:1013500088E190E00E94D632A4E0AA95F1F781E0FE
:1013600086C090915702F62E961708F4F92E823017
:1013700009F07BC0E0905802DE2C0F2D10E02D2DDF
:101380002E198D2D992787FD909530915802A8012F
:10139000430F511D841795079CF0809156028432AB
:1013A000B1F1809158028F0D8093580280915702BD
:1013B0008F1980935702882309F44DC080E057C0ED
:1013C000332727FD3095B8E1FE01E20FF31FDB1252
:1013D00017C08081813071F461E080E290E00E946A
:1013E000D63248E150E061E270E08EE093E00E9486
:1013F000C6320BC06FEF80E290E00E94D63205C08B
:101400002081FC01E25FFC4F2083D394B8CF809110
:101410004F028F5F80934F02E0905802D22EDE1869
:101420000F2D10E03D2D3E0D8E2D90E020915802A5
:10143000A801420F511D841795070CF0B2CFFE0191
:10144000E30FF11D37FDFA95608180569F4F0E9492
:10145000D632E394E7CF80915602843219F481E0CA
:1014600080930A03109256027ACF20E096CFDF9144
:10147000CF911F910F91FF90EF90DF900895089505
:1014800044E14A95F1F79BB195609BB994E09A9538
:10149000F1F79BB19A7F9BB942E04A95F1F72FE6AD
:1014A00032E0F9019E2F921B98170CF598E0589A9C
:1014B00046E04A95F1F700C0408140FD05C045E097
:1014C0004A95F1F700C005C0589845E04A95F1F7F4
:1014D00000000000408146954083915041F7589AA2
:1014E00093E09A95F1F7000058983196DBCF8AB1D6
:1014F00085608AB90895209A289A28988AB18A7FA7
:101500008AB98BB185608BB934E03A95F1F789B12E
:101510008570853011F4A895FACF4DE04A95F1F722
:1015200000C088E06FEF6695489B606890E19A95EF
:10153000F1F78150C1F78AB185608AB98BB18A7F92
:101540008BB980917F0290918002009709F448C086
:1015500020917E022230C9F463FF04C081E08093B1
:10156000030302C01092030364FF04C081E0809370
:10157000060302C01092060366FF04C081E0809358
:101580000D0324C010920D0321C0243039F40197BB
:10159000E9F481E190E00E94D63218C0213041F494
:1015A000019719F460936F0111C060936E010EC032
:1015B000233061F4E5E2F3E0E81BF90B6083EEE031
:1015C000F3E081E081938F5F8931E1F780917F02C1
:1015D0009091800201979093800280937F02C7C010
:1015E00010927E02662309F4C4C0613081F48091B8
:1015F000080380936F02EAE3F6E0A0E7B2E081918E
:101600008D9336E0E734F307D1F78DE0AEC062305A
:1016100079F48091390680936F02E9E2F6E0A0E761
:10162000B2E081918D9346E0E633F407D1F7EDCF38
:10163000613141F4E0910003F09101030284F385EC
:10164000E02D13C0623141F4E0910003F0910103F9
:101650000284F385E02D17C0643161F4E09100034A
:10166000F09101030084F185E02D60916E0180917D
:101670006F0117C0683151F4E0910003F09101034C
:101680000084F185E02D60E080E00BC06A3159F400
:10169000E0910003F09101030284F385E02D6AE0FC
:1016A0008FEF099564C06B3141F4E0910003F09134
:1016B00001030084F185E02DF2CF6C3151F482E01A
:1016C00090E09093800280937F0281E080937E027D
:1016D0000895603241F481E090E09093800280931D
:1016E0007F0282E036C0613209F52091030388E071
:1016F000289F900111248091060340E1849FC0013E
:101700001124282B8091F602282B80910D0330E4C0
:10171000839FC0011124282B8091F50240E8849F0B
:10172000C0011124282B20936F021EC0623241F4A5
:1017300087E190E09093800280937F0283E009C06C
:10174000633251F481E090E09093800280937F02B5
:1017500084E080937E020BC06F3F19F460936F02A8
:1017600003C081EF80936F0281E00E94400A81E014
:10177000089580E008958CEE94E008953D98459892
:1017800008950F931F93CF93DF93662309F456C0F8
:101790007727A0E0B0E040E050E09D0146175707F2
:1017A000ACF4189610E8FC01E40FF51F008101234A
:1017B000E901C95BD94F08832F5F3F4F16952A1760
:1017C0003B07A1F74F5F5F4FD901E7CF109709F4AF
:1017D00035C0229A2A9AE898E7E4F6E0CF93DF939F
:1017E000EF93FF930191002311F061F418C0000002
:1017F0003D9A1CE011D000003D98000000001197B8
:1018000089F70DC03D9A12E007D03D9818E004D04A
:101810000000119739F703C01A95F1F708950000F9
:10182000FF91EF913D9ADF91CF9112E0F5DF3D9866
:101830000FEF0A9511F0359BFCCF2A98229A2A9A2D
:10184000E7E4F6E0EF93FF93442700270395A1F028
:101850003599FCCF08C00FE5039572F03599FCCFA0
:10186000439551F001930FE5039532F0359BFCCF82
:10187000439511F00193EFCFFF91EF912A98E89AE9
:10188000842F90E00097A1F040FF12C0DF019D017E
:101890007081618151E0761708F050E05D933296D7
:1018A0005A2F521B5417A0F301979595879502C0A4
:1018B00080E090E0DF91CF911F910F910895CF9339
:1018C000DF931F92CDB7DEB7198261E070E0CE01E1
:1018D00001960E94C10B009759F1489761F580E08D
:1018E00090E021E0FC01E95BF94F3081311121608A
:1018F000873011F0220F01C02F77019688309105B3
:1019000089F7293091F038F4253061F02830B1F0B2
:10191000233071F40AC0293E41F02B3E31F0283AC1
:1019200039F403C083E190E00BC089E090E008C087
:1019300080E090E005C083E090E002C082E190E0AA
:101940000F90DF91CF91089508959F92AF92BF922B
:10195000CF92DF92EF92FF920F931F93CF93DF937B
:10196000CDB7DEB760970FB6F894DEBF0FBECDBF20
:1019700080910203882309F460C06091370670E00B
:1019800020E0822F992787FD9095861797076CF4A2
:10199000E9E0F0E0EC0FFD1FE80FF91FDC01AA5DA4
:1019A000BA4F8C9180832F5FECCFCE0109960E94B5
:1019B000C10B21E031E0E6E2F5E0DF01A9011D9273
:1019C00041505040E1F7869586958695682F70E0E6
:1019D00090E000E810E0292F332727FD30952617E7
:1019E000370734F5A901E3E0440F551FEA95E1F705
:1019F000D901A95DBA4FFC9020E030E0F901E40F75
:101A0000F51FE95BF94FE081EE2341F0F801022E6A
:101A100002C0F595E7950A94E2F701C0E0E0FE2ADE
:101A20002F5F3F4F2830310549F7FC929F5FD3CF9E
:101A300080932605109202034EC0809181028F3F51
:101A400079F0882321F081508093810209C010929F
:101A500088021092870284E080937C0110928202B7
:101A60000E945F0C80938302833109F433C181119A
:101A70000EC080918602811103C081E08093F6023E
:101A800081E090E0909385028093840227C11092B8
:101A900086028E01075F1F4F823149F480E38987F8
:101AA00080917C018A87809182028B870DC080E4BF
:101AB000898783E08A8721E080918702909188025C
:101AC000892B09F420E02B8763E070E0C8010E94B5
:101AD000C10B803421F081E080930703FFC086E0D2
:101AE000EDE3F6E0DF011D928A95E9F7D0903D061F
:101AF00090903E06A0904006B090410690913F061F
:101B0000C090420620E030E040E850E0822FF9012A
:101B1000E95AF94F6081662341F0BA01022E02C0F2
:101B2000759567950A94E2F701C060E0D62AD9015D
:101B3000A15AB94F6C91611109C07A01082E02C0F7
:101B4000F594E7940A94E2F7FE2C01C0F12CF928F1
:101B5000D901A959B94F6C91662341F0DA01082ED9
:101B600002C0B595A7950A94E2F701C0A0E0EA2E5D
:101B7000EA28D901A159B94F6C91611108C0FA0145
:101B8000082E02C0F595E7950A94E2F701C0E0E05F
:101B9000BE2AF901E958F94F6081662341F0BA0184
:101BA000082E02C0759567950A94E2F701C060E0BF
:101BB000692BF901E158F94F9081992341F0FA011D
:101BC00002C0F595E7958A95E2F7CF0101C080E064
:101BD000C82A2F5F3F4F2830310521F09F2CAE2CB3
:101BE000962F94CFD0923D06F0923E06E0924006AA
:101BF000B092410660933F06C092420688E0E2E15F
:101C0000F2E0DE01119601900D928A95E1F7909134
:101C10003A06FE01319683E0A82FBB27A7FDB095B9
:101C2000A95BB94F2C91222311F02081922B282FF0
:101C30008F5F883011F482E0820F3196E017F10750
:101C400059F790933A0680915306882329F08091A2
:101C5000450684608093450680915406882329F0C8
:101C600080914506886080934506809155068823BB
:101C700029F0809145068062809345068091560642
:101C8000882329F0809145068061809345068091E4
:101C90008302823119F480E880933D0680913D06ED
:101CA000811118C0E11016C080914406811112C044
:101CB000FFEFFF120FC080E8809344068093420636
:101CC00080933F06809341068093400680933E06B2
:101CD00080933D06109285021092840260960FB6A2
:101CE000F894DEBF0FBECDBFDF91CF911F910F9152
:101CF000FF90EF90DF90CF90BF90AF909F900895AE
:101D00000E94BE0B0E945F0C8093830281E080934F
:101D100086020C94A50C60938102882361F021E077
:101D200030E0309388022093870296E090937C0104
:101D3000809382020895109288021092870284E0B4
:101D400080937C011092820208950C948B0E81E0A6
:101D50008093860281E090E09093850280938402D4
:101D60000E94A50C8091840290918502892B19F420
:101D700080918302089580E0089580E791E00895BE
:101D800008950895089586B193B185FB442740F9DD
:101D9000282F207130E053E0359527955A95E1F7CB
:101DA000422B9072492B282F287030E035952795CB
:101DB000422B982F9470990F942B8270880F880F64
:101DC000880F892B08958AB188618AB95C985B9ADB
:101DD00084B18F7C84B985B1806385B9389A409A83
:101DE00087B1817C87B988B18F6388B9089540989D
:101DF00087EB9BE00197F1F700C00000419A87EB69
:101E00009BE00197F1F700C0000026B1419887EBF5
:101E10009BE00197F1F700C0000086B1409A8C73F7
:101E200034E0839FC00111242C7326952695822BC4
:101E30000895EF92FF920F931F93CF93DF93EC01DE
:101E4000409A80E58A95F1F70E94C30EE82E4098EB
:101E500090E49A95F1F70E94C30EF82E409A80E51F
:101E60008A95F1F7409890E49A95F1F70E94C30E95
:101E7000082F409A80E58A95F1F7409890E49A956A
:101E8000F1F70E94C30E182F409A80E48A95F1F76B
:101E90000E94C30E409890E59A95F1F7409AE88227
:101EA000F9828A830B831C83DF91CF911F910F915D
:101EB000FF90EF900895FF920F931F93CF93DF93BE
:101EC000CDB7DEB728970FB6F894DEBF0FBECDBFF3
:101ED000809108038730E1F410923A060E94C30E05
:101EE00084FD05C080913A06816080933A0614E033
:101EF00004E60E94C30E85FDCEC024E02A95F1F7CA
:101F00000150B9F788EF8A95F1F7115089F7E8C0C9
:101F1000873111F08633C9F50E94F70E8095982F0E
:101F20009F709F3081F496E39093080390E0982788
:101F30009F73982784FB93F985FB92F990933A0657
:101F40000E94F70E809520913A0690E084FB95F967
:101F500085FB94F986FB90F987FB91F9922B90937E
:101F60003A0620E080FB24F981FB23F982FB25F966
:101F700083FB22F92093450686B1813009F4B0C075
:101F800086B1813409F058C0ABC0883109F048C02F
:101F9000409A14B8539A5B9A88B18FEF88B93998F0
:101FA00087EB9BE00197F1F700C0000086B186B196
:101FB00086B186B186B180958C7390E082FB95F9ED
:101FC00083FB94F984FB93F985FB92F99093450682
:101FD00088E0EAE1F2E0DE01119601900D928A9527
:101FE000E1F7399A41985B98FE013896CE01419A03
:101FF000419824E02A95F1F71D9906C0208130917F
:102000003A06232B20933A063197E817F90779F718
:10201000419A419854E05A95F1F71D9B61C00CC05C
:102020008AB188618AB95C985B9ACE0101960E9458
:10203000190F8A818F3321F481E08093F60250C01A
:1020400029812095482F40953B81309554E0259F6C
:10205000C00111248C738093450690E044FB90F9F5
:1020600045FB95F980E024FB81F925FB87F9892B55
:1020700080933A0690910803953191F590E030FBFA
:1020800096F931FB93F932FB92F933FB94F9982BD3
:1020900090933A0625C00E94C30E082F98E09A95A7
:1020A000F1F70E94C30E85FF30CF58EF5A95F1F734
:1020B0000E94C30E85FD29CF0E94C30EF82E88E032
:1020C0008A95F1F70E94C30E85FD1FCF902F929540
:1020D000907F8F2D8F70982B9093440690933C06A1
:1020E00028960FB6F894DEBF0FBECDBFDF91CF911B
:1020F0001F910F91FF900895FF920F931F93CF931D
:10210000DF9300D000D01F92CDB7DEB786B1833405
:1021100029F483E088B987B987E157C00E94C30ECC
:1021200084FD14C00E94E30E28E22A95F1F7CE0147
:1021300001960E94190F8FE697E10197F1F700C011
:10214000000089818F708F30E9F415C07AE0F72E96
:10215000082F10E00E94C30E992787FD909508175D
:10216000190771F587E592E00197F1F700C00000CB
:10217000FA9481F7D7CF8D81803131F1833311F11A
:10218000803311F15B9887EB9BE00197F1F700C07A
:102190000000539A399A419814B813B89CE080E033
:1021A000419A419824E02A95F1F71D9B8F5F915049
:1021B000B9F78350893010F488E107C080E005C08A
:1021C00087E003C084E101C085E10F900F900F907C
:1021D0000F900F90DF91CF911F910F91FF90089575
:1021E0008DE791E00895089508950895109295015E
:1021F00010928C0210928D0210928B021092890222
:102200008AB188618AB95C985B9A3A9A4298089533
:1022100087B190919002892B87B987B190919102F3
:10222000892B87B990918F02292F20958091920256
:1022300082238093920280919302892B8093930250
:1022400088B190919102892B88B998B180919002C0
:102250008095892388B9089581E08093910282E076
:102260008093900280E280938F0283B180938E02EC
:1022700085B18093930284B1809392023C9A449AF0
:102280003D9A45980E94081180910B03811102C06C
:102290000E94FA028DEE92E00197F1F700C0000073
:1022A00080910B03811102C00E94FA028DEE92E030
:1022B0000197F1F700C0000080910B03811102C06B
:1022C0000E94FA028DEE92E00197F1F700C0000043
:1022D00080910B03811102C00E94FA028DEE92E000
:1022E0000197F1F700C0000087B185B115B887EB01
:1022F0009BE00197F1F700C0000085B18FEF85B931
:1023000020E180E038B1909191029095932398B9A3
:1023100098E09A95F1F798B130919102932B98B982
:1023200098E09A95F1F793B130918F02932309F0D9
:102330008F5F215039F7982F9D7F9C3021F481E0E9
:1023400080938D0207C0813029F0823029F481E02A
:1023500080938C0289E10895843089F3873009F4F1
:102360003DC13C98449A3D98459A80E28093910201
:1023700080E18093900288E080938F0286B1809301
:102380008E0288B18093930287B1809392020E945B
:102390000811449A90E020E038B180919102809534
:1023A000832388B986B130918F02832319F4913148
:1023B0000CF02F5F88B130919102832B88B99F5F19
:1023C000903251F7243021F48AE180930803089574
:1023D00098B1809190028095892388B988B19091B5
:1023E0009002892B88B980E38A95F1F798B18091A2
:1023F00090028095892388B988B1836088B987B1B4
:102400008C7F87B987EB9BE00197F1F700C0000054
:1024100030E220E080E096B140918F02942309F4ED
:102420008F5F30992F5F48B19091910290959423DE
:1024300098B998E19A95F1F798B140919102942B4F
:1024400098B998E19A95F1F7315029F796B1903201
:1024500019F4243009F4C4C021502F3128F481E04C
:1024600080938F028EE10895883109F4BBC08031DA
:1024700009F4BAC0813019F480938A02B5C096B1CC
:10248000993219F096B1993629F481E080938F0240
:102490008CE10895813509F4A9C08D3009F4A6C0F6
:1024A000823109F4A3C088E08093910282E0809396
:1024B0008F0286B180938E0288B18093930287B198
:1024C000809392020E940811539A5B983D9A459A14
:1024D00097B180918F028095892387B988B19091B7
:1024E0008F02892B88B93C98449A259A2D98209A76
:1024F000389A80910B03811102C00E94FA028DEE7E
:1025000092E00197F1F700C0000080910B03811168
:1025100002C00E94FA028DEE92E00197F1F700C02E
:10252000000080910B03811102C00E94FA028DEE1F
:1025300092E00197F1F700C0000080910B03811138
:1025400002C00E94FA028DEE92E00197F1F700C0FE
:10255000000087B185B115B887EB9BE00197F1F7D3
:1025600000C0000085B18FEF85B92D9A409A90E3A5
:102570009A95F1F72D98409830E220E090E086B1EE
:1025800040918F02842309F49F5F349B2F5F48B1F1
:10259000809191028095842388B9289888E18A9552
:1025A000F1F788B140919102842B88B9289A88E18B
:1025B0008A95F1F7315019F788EF890F823020F4AE
:1025C00081E080938A0214C0983191F021502F311C
:1025D00088F480E180938F0285E3089585E2089571
:1025E00084E2089581E108958BE108958DE10895D5
:1025F00084E3089580E0089580910803853219F0FE
:10260000893109F0B8C18FEF80938E0280918D02DD
:10261000882311F198B1809191028095892388B91E
:1026200028E02A95F1F788B190919102892B88B919
:1026300038E03A95F1F798B180919102809589231D
:1026400088B958E05A95F1F788B190919102892B99
:1026500088B988E08A95F1F780918C02882389F007
:1026600098B1809191028095892388B998E09A95D4
:10267000F1F788B190919102892B88B928E02A95C9
:10268000F1F728E091E0990F38B18091910280959F
:10269000832388B938E03A95F1F783B130918F02FE
:1026A000832309F0916088B130919102832B88B91E
:1026B00058E05A95F1F7215031F738E081E0880F62
:1026C00048B1209191022095242328B928E02A9529
:1026D000F1F723B140918F02242309F0816028B1E2
:1026E00040919102242B28B958E05A95F1F73150C6
:1026F00031F78F3F21F4209195012111C3C221E0D0
:102700002093950120910803253209F00FC198E02C
:1027100028B1809191028095822388B98CE08A95B6
:10272000F1F783B188B120919102822B88B928E01A
:102730002A95F1F7915061F798E041E0440F28B1F4
:10274000809191028095822388B938E03A95F1F71B
:1027500083B120918F02822309F0416088B12091DA
:102760009102822B88B958E05A95F1F7915031F7D0
:1027700098B1809191028095892388B988E08A95E3
:10278000F1F788B190919102892B88B998E09A95D8
:10279000F1F798B1809191028095892388B928E05A
:1027A0002A95F1F788B190919102892B88B938E088
:1027B0003A95F1F798E031E0330F28B1809191021A
:1027C0008095822388B958E05A95F1F783B120911A
:1027D0008F02822309F0316088B120919102822B0F
:1027E00088B988E08A95F1F7915031F798E021E0B7
:1027F000220F58B1809191028095852388B958E0C5
:102800005A95F1F783B150918F02852309F0216029
:1028100088B150919102852B88B988E08A95F1F7AB
:10282000915031F798B1809191028095892388B9B0
:1028300098E09A95F1F788B190919102892B88B927
:1028400058E05A95F1F798B18091910280958923CB
:1028500088B988E08A95F1F788B190919102892B27
:1028600088B998E09A95F1F758E091E0990F68B12E
:10287000809191028095862388B988E08A95F1F746
:1028800083B160918F02862309F0916088B16091D5
:102890009102862B88B988E08A95F1F7515031F77B
:1028A00068E081E0880F78B15091910250955723EC
:1028B00058B958E05A95F1F753B170918F025723E8
:1028C00009F0816058B170919102572B58B958E0C6
:1028D0005A95F1F7615031F740933D0630933E062B
:1028E0002195220F220F22502093430620E080FBE7
:1028F00027F981FB26F982FB24F983FB25F930E0D7
:1029000038273F7C382786FB33F987FB32F9309331
:10291000450650E05927557F592790FB52F992FB05
:1029200050F9952F922B90933A06A1C220913A0626
:10293000322F82FB30F983FB31F930933B0630E0D4
:1029400091FB34F992FB35F993FB32F994FB33F99F
:102950003093450690FF03C0216020933A06909182
:102960003A0698279F7C982786FB97F987FB91F971
:1029700090933A067CC295EE980F943048F08131DE
:1029800039F09CEC980F923018F0843209F0E6C1CF
:1029900098B180918F028095892388B9809108032E
:1029A0008453823068F4259A2D9A8CE28A95F1F747
:1029B0002D98389A409A9CE29A95F1F7409805C074
:1029C00088B190919002892B88B920E32A95F1F77C
:1029D00098B1809190028095892388B980910803ED
:1029E000982F9D7F9C3111F0843269F488B1836007
:1029F00088B987B18C7F87B958E040E020E030E0AB
:102A000090E061E011C08533B9F7449A3C98F4CF67
:102A1000853369F5289888E18A95F1F7289A88E145
:102A20008A95F1F75150A9F1990F220F440F330FF6
:102A300080910803843311F08D3129F488B17091AD
:102A40008F02872B88B986B170918F02872311F48A
:102A500091603160809108038432D1F686B1817033
:102A60008627282B86B1869581708627482B78B1DA
:102A7000809191028095872388B988E18A95F1F742
:102A800088B170919102872B88B982E18A95F1F71C
:102A9000C9CF80910803843249F5211103C081E038
:102AA0008093F60280E084278F73842741FB83F9AB
:102AB00080933A0680E024FB85F926FB80F927FB0A
:102AC00081F990E040FB94F942FB97F943FB93F9BD
:102AD00044FB96F945FB92F9492F482B40933B065E
:102AE00030E025FB30F930933C0608959F3F69F4B0
:102AF0008B3109F4C7C0813109F4C4C0843329F48F
:102B000020918A02211153C0BDC08C3139F5109239
:102B10003A0684E6319B04C08FE080938B0205C0A7
:102B200058E25A95F1F78150A9F790918B029923B9
:102B300041F080913A06826080933A0691509093DA
:102B40008B02309905C080913A06816080933A06E5
:102B500080E880933E0680933D0608958E3111F003
:102B6000853329F590E890933E0690933D06909129
:102B7000890294361CF49F5F909389029091890298
:102B8000943619F4332309F47DC0853321F4399840
:102B900088E28A95F1F7319B03C010923A0603C090
:102BA00081E080933A06309530934306089520E003
:102BB00090FB25F991FB24F992FB23F993FB22F971
:102BC0002093450620913B0630E022FB35F923FB9C
:102BD00034F924FB33F925FB32F930933B0620E02E
:102BE00094FB25F995FB24F996FB20F997FB21F935
:102BF00020933A06813109F43DC120918A02843341
:102C000019F4222309F436C1211102C068E001C081
:102C100068E130E040E020E080E0383014F4880FD4
:102C200007C058EF530F583010F4220F01C0440F63
:102C300056B170918F02572359F4383014F48160E3
:102C400007C058EF530F583010F4216001C04160A5
:102C500078B1509191025095572358B958E15A953F
:102C6000F1F758B170919102572B58B958E15A9524
:102C7000F1F73F5F36178CF230910803811106C0DF
:102C80003D3121F481E08093F60208953D3111F544
:102C900020E094FB25F995FB24F996FB22F997FB9C
:102CA00023F9922F20E082FB21F983FB20F984FB9A
:102CB00027F985FB26F9292B20933A0690913B06AC
:102CC00030E086FB30F987FB31F9832F892B809325
:102CD0003B06CDC03B31B1F450E094FB55F995FB78
:102CE00054F996FB52F997FB50F9952F50E084FB6D
:102CF00057F985FB56F986FB53F987FB51F9592B98
:102D000050933A0690918A02992309F4B0C0343363
:102D100011F0822F242F880F811D082E01FA87F9C8
:102D200002FA86F903FA85F905FA83F906FA82F9B7
:102D300007FA81F980933B06220F211D022E01FA2A
:102D400026F902FA27F903FA25F905FA23F906FA12
:102D500022F907FA21F920933C0689C08A3109F04B
:102D600086C088B190919002892B88B928E0909113
:102D70003A06990F90933A0638B180919102809566
:102D8000832388B986B130918F02832319F491602F
:102D900090933A0688B190919102892B88B921507D
:102DA00031F780913A06082E00FA85F901FA84F984
:102DB00002FA86F904FA82F905FA80F906FA81F92D
:102DC00080933A0682E090E021E030E058B14091F3
:102DD00091024095452348B946B150918F02452351
:102DE00059F460914506A901082E01C0440F0A94C8
:102DF000EAF7642B6093450648B150919102452B48
:102E000048B901968630910509F78091450690E012
:102E100082FB92F983FB95F984FB93F985FB94F986
:102E20009093450680E298B120919102922798B93B
:102E30008150C9F798B1809191028095892388B912
:102E400080919501882341F086B190918F0289236A
:102E500019F081E08093F60288B190919102892B5C
:102E600088B998B1809190028095892388B981E0D2
:102E700080939501089589E891E008950895089553
:102E80000895282F220F2A7A86958575282B34E0FD
:102E9000239FC00111248C7C269526952373822BB9
:102EA0008295089583EC87B98FE388B910929402D4
:102EB000089587EB9BE00197F1F700C0000088B10F
:102EC000836088B99CE19A95F1F786B186958695DD
:102ED00098B19D7398B990E29A95F1F7823011F408
:102EE00083E00895883021F08330D1F380E00895A5
:102EF00088E00895AF92BF92CF92DF92EF92FF9257
:102F00000F931F93CF93DF9388B1836088B93CE11F
:102F10003A95F1F716B11695169541988CE18A9578
:102F2000F1F71F3021F481E08093F60242C18EEF69
:102F3000810F823090F586B180958C730E94411785
:102F4000809345061095117088B193E0892788B960
:102F50009CE19A95F1F786B1809590E082FB95F916
:102F600083FB90F984FB97F985FB91F988B18C7FFD
:102F700088B93CE13A95F1F706B1009580E003FB92
:102F800082F904FB83F905FB86F9082F092B329B94
:102F9000126088B18C7F88B9F8C0C0E042E0F42E9E
:102FA000D0E050E8D52E60E8E62E70E8C72EE0E8C5
:102FB000BE2E10E000E0AA24A3949CE19A95F1F7BC
:102FC000409B04C088B18C7388B901C0409A3CE131
:102FD0003A95F1F7C1110AC000000000000000009E
:102FE000000000000000000086B1C2C0C130E1F462
:102FF00000000000000000000000000000000000D1
:10300000F6B0F09480E0F2FA83F9F3FA82F9F4FA78
:1030100081F9F5FA80F9863011F4A0929402F82E25
:10302000FF0CF394F394A4C0C23091F400000000AC
:103030000000000000000000000000000000000090
:1030400086B180958C730E9441178093450690C08D
:10305000C330A9F4000000000000000000000000E0
:103060000000000086B1809590E082FB95F983FB1B
:1030700090F984FB97F985FB91F9892F16C0C4302C
:10308000B1F400000000000000000000000000009B
:103090000000329B126086B1809530E083FB32F9EC
:1030A00084FB33F985FB36F9832F082B61C0C530CB
:1030B000A1F400000000000000000000000000007B
:1030C0000000329B1160339901C00000349901C0A7
:1030D000000035994DC000004BC0C63081F1C730AB
:1030E00061F426B12695269530E1239FC001112475
:1030F0008D2B0E944117B82E3BC0C83001F1C9305A
:1031000061F426B12695269530E1239FC001112454
:103110008D2B0E944117C82E2BC0CA3081F0CB30B6
:1031200061F426B12695269530E1239FC001112434
:103130008D2B0E944117E82E1BC0CC3061F400009B
:103140000000000000000000000000000000D6B1F8
:10315000D695D6950DC0CD3059F426B12695269535
:1031600030E1239FC00111248D2B0E944117D82EDE
:10317000CF5FCF150CF421CF88B1836088B98CE183
:103180008A95F1F79CE1F91208C080E8D82E90E802
:10319000E92E20E8C22E30E8B32EB0923D06C09250
:1031A0003E06D0923F06E092420600933A06109304
:1031B0003B06DF91CF911F910F91FF90EF90DF9031
:1031C000CF90BF90AF90089586E991E0089508955B
:1031D0000895089581E080937C0083E880937A00CD
:1031E00017B88FEF88B914B885B90895DF92EF92B8
:1031F000FF920F931F93CF93DF93D82EFB01D7013C
:10320000E90198818095982398839C9198239C93B9
:10321000DA019C9191609C9390819E7F9083CFE690
:10322000D7E12197F1F700C0000090819160908371
:1032300080E0F80190819D2119F48F5F8E3FC9F7DE
:10324000DF91CF911F910F91FF90EF90DF90089544
:10325000EF92FF920F931F93CF938AB188618AB93F
:103260005C985B9A83B18E3309F47CC083B18B3355
:1032700009F47AC025982D9A5B9887EB9BE001971B
:10328000F1F700C0000083B18F3121F486B18F3790
:1032900009F46CC053982598389A409887EB9BE0C6
:1032A0000197F1F700C000004B9902C01D9B52C06E
:1032B00017B88FEF88B914B885B994E2E92EF12CCC
:1032C00003E210E025E230E047E250E068E270E01F
:1032D00080E20E94F618C82F2AE2E22EF12C09E2C1
:1032E00010E02BE230E047E250E068E270E088E076
:1032F0000E94F618C250CC3F18F482508C3F60F107
:10330000209A289800001C9B29C084E2E82EF12C0A
:1033100003E210E025E230E044E250E065E270E0D4
:1033200088E00E94F61825E230E044E250E065E2D1
:1033300070E088E00E94F61890E00B978F3E9105B0
:1033400078F0549A5C98389A409A539810920803EF
:1033500080E00DC08BE20BC089E209C081E307C0A9
:1033600086E005C089E303C088E301C084E0CF9113
:103370001F910F91FF90EF900895EF92FF920F939E
:103380001F9317B88FEF88B914B885B980910803D7
:10339000811105C0549A5C98389A409A539880914C
:1033A0000803877F813329F48AB188618AB95C98E0
:1033B0005B9A87EB9BE00197F1F700C0000096B1A4
:1033C00023B19095809108038A3209F041C0549A44
:1033D0005C9853985B9A91FF05C080914506846084
:1033E0008093450694FF05C08091450688608093D0
:1033F000450693FF05C08091450680618093450690
:1034000092FF05C0809145068062809345068091B9
:103410003A064B9B02C08E7F01C0816080933A06C2
:103420002D982598389A409887E99AE30197F1F703
:1034300000C00000409A80E01D9902C08F5FFCCF61
:10344000982F990F990F88EC891B8093430692C49B
:103450008C32B9F58AB1877E8AB98BB188618BB914
:103460003C9A449887EB9BE00197F1F700C000007D
:1034700080E880933E0680933D064B9905C080917D
:103480004506846080934506329905C080913A06CE
:10349000816080933A06309905C08091450680612D
:1034A00080934506319905C08091450680628093DE
:1034B00045061D995FC48091450688608093450646
:1034C00059C48B3209F086C0389A409A87B1837C00
:1034D00087B988B1837C88B98AB1877E8AB93D9AD9
:1034E00087EB9BE00197F1F700C000004B9905C006
:1034F00080913B06816080933B061D9905C08091B9
:103500003B06826080933B06319905C080913B0663
:10351000846080933B063D9887E592E00197F1F740
:1035200000C000003C9A87EB9BE00197F1F700C0D8
:1035300000004B9905C080913B06886080933B0654
:103540001D9905C080913B06806180933B063199AF
:1035500005C080913B06806280933B063C983B9A75
:1035600087EB9BE00197F1F700C000004B9905C085
:1035700080913B06806480933B061D9905C0809135
:103580003B06806880933B06319905C080913C06DC
:10359000816080933C063B983A9A8FE697E10197C9
:1035A000F1F700C000004B9905C080913C06826095
:1035B00080933C061D9905C080913C0684608093F1
:1035C0003C06319905C080913C06886080933C069A
:1035D0003A98D0C3863009F0FBC03E98259A2D9AC0
:1035E0003D9A4598209A289A2B98239A8FE697E13E
:1035F0000197F1F700C00000239880E01B9903C0F9
:103600008F5F8E3FD9F790E0880F991F8F3F91050C
:1036100019F010F08FEF90E080933E0646983E9AA6
:103620008FE697E10197F1F700C000003E9880E037
:10363000369903C08F5F8E3FD9F790E0880F991FAE
:103640008F3F910519F010F08FEF90E080933D06C9
:103650008F3F39F480913E068F3F19F481E08093CB
:10366000F60200000000000000000000000017B893
:1036700014B88FEF85B988B98AB1877E8AB98BB1C2
:1036800088618BB93B9A43983B980000000000008A
:10369000000000000000339B05C080913A06816065
:1036A00080933A06399A419839980000000000004A
:1036B000000000000000319B05C080913A06826046
:1036C00080933A063C9A449894E19A95F1F71999B7
:1036D00005C080913B06826080933B061A9905C025
:1036E00080913B06816080933B061C9905C08091C8
:1036F0003A06806180933A064C9905C080913B065A
:10370000846080933B063C98449A3A9A429824E11C
:103710002A95F1F7199905C080913B068061809345
:103720003B061A9905C080913B06886080933B0652
:103730001C9905C080913A06806280933A064C99A4
:1037400005C080913B06806280933B063A98429A7E
:10375000389A409884E18A95F1F7199905C08091CB
:103760003B06806880933B061A9905C080913B0612
:10377000806480933B061C9905C080913A06846062
:1037800080933A064C9905C080913C0681608093F5
:103790003C063898409A539A5B9894E19A95F1F7D1
:1037A000199905C080913C06826080933C061A9965
:1037B00005C080913C06886080933C064C9905C00A
:1037C00080913C06846080933C0653985B9AD2C2F9
:1037D0004091450630E092FB35F993FB34F994FBB8
:1037E00033F995FB32F9342B30934506843019F5C3
:1037F000549A5C98389A409A5398539A5B9828E266
:103800002A95F1F726B120955B9A88E28A95F1F71F
:1038100096B19095892F822730913A06832B922377
:1038200096959170892B80933A061D9BA3C2816067
:1038300080933A069FC2803309F0BDC017B89FEF4E
:1038400098B98AB1877E8AB98BB188618BB984B106
:1038500084B985B195B988E087B987EF88B998E2CE
:103860009A95F1F7309905C0809145068062809362
:103870004506319905C080914506806180934506D3
:103880004B9905C08091450688608093450680E18C
:1038900087B98FEE88B928E22A95F1F7339905C0E8
:1038A0008091450684608093450680E187B98FEE5C
:1038B00088B988E28A95F1F7359905C080913A0672
:1038C000816080933A064C9905C080913A068260E7
:1038D00080933A0682E087B98DEF88B998E29A958D
:1038E000F1F7359905C080913C06846080933C06D1
:1038F0004C9905C080913B06806880933B063299C5
:1039000005C080913B06806180933B061D9905C0F0
:1039100080913B06826080933B0681E087B98EEF01
:1039200088B928E22A95F1F7359905C080913C06BF
:10393000886080933C064C9905C080913C0681606C
:1039400080933C06329905C080913B06806280934B
:103950003B061D9905C080913B06846080933B0621
:1039600017B88FEF88B9539A5B9888E28A95F1F778
:10397000359905C080913C06826080933C064C9945
:1039800005C080913B06806480933B06329905C058
:1039900080913B06886080933B061D9905C080910D
:1039A0003B06816080933B068AB1877E8AB98BB1E2
:1039B00088618BB9DFC1813019F0823209F0A8C06B
:1039C0008AB188618AB9319905C080913A068160CF
:1039D00080933A0680EC87B98FE388B95B985C9A4C
:1039E00090E29A95F1F7319905C080913A0682608C
:1039F00080933A0656B15695569521E030E0052E53
:103A000002C0220F331F0A94E2F740E080E090E00A
:103A1000541302C0822B932B4F5F4F30C9F7209174
:103A20003A06382F80E032FB82F934FB83F9822B8F
:103A300080933A0680913B0620E031FB23F936FB68
:103A400022F937FB25F9282B892F90E080FB97F985
:103A500081FB94F984FB96F985FB91F986FB90F93B
:103A6000292B20933B0690913C0620E082FB21F914
:103A700083FB20F9822F892B90E033FB92F935FBF1
:103A800093F9892B80933C065C985B9A809108039C
:103A9000813009F46FC13898409A25982D9A24E016
:103AA0002A95F1F7909196029093950286B18095B0
:103AB0008170809396021D9902C022E001C020E02F
:103AC000822B80939602981709F454C1933079F4AD
:103AD000813021F480913F06815F06C0823009F079
:103AE00049C180913F068A5080933F0643C191307F
:103AF00031F4823079F3833009F03CC1F2CF923057
:103B000009F038C1833031F3813009F033C1E9CF96
:103B100091FF05C030913A06316030933A06209506
:103B2000813351F425FF05C080913A06846080936B
:103B30003A0690FFB9C010C0811114C03898409A5D
:103B40008AB188618AB95C985B9A88E28A95F1F7B4
:103B5000309B02C025FFA8C080913A068260809306
:103B60003A06A2C025FF05C030913A063260309374
:103B70003A0690FF05C090913A06946090933A06F9
:103B80008853823008F090C088B18FEF88B985B92A
:103B900010923A0610923B06309903C084E080935D
:103BA0003A06319905C080913A06816080933A06C1
:103BB0001C9905C080913A06886080933A061D9949
:103BC00005C080913A06826080933A06809108038E
:103BD000883379F5369903C081E080933B061999C3
:103BE00005C080913A06806180933A06189905C015
:103BF00080913A06806880933A061A9905C08091B0
:103C00003A06806280933A068AB1877E8AB98BB180
:103C100088618BB94B9905C080913A068064809386
:103C20003A064C99A7C080913B06826080933B0680
:103C3000A1C080913A06982F81FF02C0946001C014
:103C40009B7F90933A0690913A0682FF02C0926061
:103C500001C09D7F90933A06369905C080913A063F
:103C6000806480933A06199905C080913A0680686D
:103C700080933A061A9905C080913A068061809334
:103C80003A061B9905C080913A06806280933A06F5
:103C90008AB188618AB95C985B9A86B180933B0649
:103CA00083B180933C0666C020FF05C080913A0630
:103CB000886080933A0621FF05C080913A068064AF
:103CC00080933A0622FF05C080913A068061809376
:103CD0003A0623FF05C080913A06806280933A0637
:103CE00080910803813341F024FF13C080913A068C
:103CF000806880933A060DC0189B3CC0209A289893
:103D000000001C9B03C081E08093F60214B88FEF83
:103D100085B980910803893269F544E2E42EF12CDB
:103D200003E210E025E230E047E250E068E270E0B4
:103D300080E20E94F618833060F025E230E047E22E
:103D400050E068E270E080E20E94F618809580936F
:103D500043063AE2E32EF12C09E210E02BE230E0D8
:103D600047E250E068E270E088E00E94F618809533
:103D7000809344061F910F91FF90EF90089582EA7F
:103D800091E0089508950895089517B88FE388B9CC
:103D900014B88FEF85B9089587B1836087B918B8D3
:103DA00084E08A95F1F787B18C7F87B984E08A95A2
:103DB000F1F786B18370833011F48BE0089580E0D1
:103DC0000895EBE4F7E080E090E040E250E09A01F3
:103DD000082E02C0359527950A94E2F768B1A22F04
:103DE000A0956A2368B967B1622B67B964E06A95E8
:103DF000F1F776B17370708363B168736695672B62
:103E00006083189B02C06062608338B1322B38B97E
:103E100027B12A2327B90196319684309105B9F646
:103E200030914B07832F837019F481E08093F60261
:103E3000309590E030FB94F940914C07842F8095A9
:103E40008170982B80914D07809520E080FB21F9AF
:103E5000922B20914E07522F509560E050FB67F94E
:103E600051FB65F9962B90933A0650E033FB55F9D8
:103E700034FB52F9409590E042FB97F943FB94F9EB
:103E800044FB91F9952B50E082FB56F983FB53F9E3
:103E900084FB50F9952B90933B0690E032FB90F910
:103EA00050E085FB51F9852F892B60E035FB63F9E4
:103EB000862B90E045FB92F9892B80933C0624FDEC
:103EC00004C080914506806205C023FD05C0809135
:103ED000450680618093450622FD04C08091450619
:103EE000886005C025FD05C08091450684608093EB
:103EF000450608958EEA91E008950895089508957D
:103F000088B1806388B908958091BC0087FFFCCF99
:103F10008091B900887F08959F92AF92BF92CF920F
:103F2000DF92EF92FF920F931F93CF93DF93B82E00
:103F30006B01942EA52E79016115710561F421158F
:103F4000310509F477C084EA8093BC000E94841F85
:103F5000803189F532C084EA8093BC000E94841FBE
:103F6000883009F06AC08B2D880F8093BB0084E8ED
:103F70008093BC000E94841F883109F047C0C92D7E
:103F8000DA2DCC0EDD1E24E8A22ECC15DD0559F06D
:103F900089918093BB00A092BC000E94841F88324C
:103FA000A1F323E038C0E114F10469F684E98093B9
:103FB000BC0080E043C0883059F58B2D880F8160AC
:103FC0008093BB0084E88093BC000E94841F8034EF
:103FD00009F5E701219784E8F82E94ECE92ECF3F0C
:103FE000FFEFDF0719F3209719F0E092BC0002C041
:103FF000F092BC000E94841F2197877F8035B1F624
:104000008091BB00F80181938F01E9CF22E003C0CA
:1040100024E001C025E090E0803A31F0883F81F053
:10402000883321F484E803C084EA01C084E98093E2
:10403000BC0006C08FEF9FEF04C081E090E001C09C
:10404000822FDF91CF911F910F91FF90EF90DF9022
:10405000CF90BF90AF909F900895AF92BF92CF92B4
:10406000DF92EF920F931F93CF93DF931F92CDB701
:10407000DEB789835B016A01E12C00E010E020E0FB
:1040800030E0AE014F5F5F4F61E070E082E50E947B
:104090008C1F811117C08FEA94E00197F1F700C0DF
:1040A00000008501960140E050E060E070E082E5AC
:1040B0000E948C1F811106C0EFEAF4E03197F1F7FE
:1040C00000C000000F90DF91CF911F910F91EF90F2
:1040D000DF90CF90BF90AF900895EF920F931F9312
:1040E000CF93DF93CDB7DEB760970FB6F894DEBFFE
:1040F0000FBECDBF84E38093B8008091B9008C7F60
:104100008093B9001091980211113FC080EF89830C
:1041100085E58A83E12C00E010E020E030E0AE018C
:104120004F5F5F4F62E070E082E50E948C1FEFEA14
:10413000F4E03197F1F700C0000081112FC18BEF3F
:1041400089831A8220E030E0AE014F5F5F4F62E06A
:1041500070E082E50E948C1FEFEAF4E03197F1F7FE
:1041600000C0000081111AC142E050E0BE016F5F43
:104170007F4F8EEF0E942D20811110C18A81809384
:10418000C60181E08093980209C1113009F0E8C0AE
:1041900046E050E0BE016F5F7F4F80E00E942D201F
:1041A000882361F080919702811102C01093F6027A
:1041B00080EF8093C60110929802F0C0109297028F
:1041C0008091C601853009F4E9C030F4813009F4EA
:1041D0004CC0833039F449C0813109F446C0803F76
:1041E00009F4DCC0E9817A817095FE818B8124E03D
:1041F000829FC00111248A5F91092F2F2C7030E01B
:104200003595279535952795822B932B96958795F0
:10421000682F4C8184E0489FA0011124CA018A5F65
:1042200091092F2F207330E0A4E035952795AA95AA
:10423000E1F7822B932B96958795282F4D8194E05B
:10424000499FA0011124CA018A5F91093F2F32952D
:10425000369536953370832B969587959F2F90953D
:104260009170F1FD84C0926082C06981E62FEE0FEB
:10427000EE0F9A81A4E09A9F90011124722F7095FD
:104280008B81907C929596959770607C66956695EB
:104290006695692B982F991F9927991F692B660F8F
:1042A000660F660F282F220F220F220F20959C8168
:1042B000392F330F330F330F80768695869592957D
:1042C00096959770892B880F880F880F5D81A52F91
:1042D000A095F0E0A1FBF7F9A2FBF5F9A4FBF4F936
:1042E000A5FBF6F9AF2FFE814F2F409590E043FBE1
:1042F00093F944FB91F945FB92F946FB90F99A2B0F
:10430000A0E042FBA1F947FBA0F94A2F53FD05C0ED
:10431000A0913C06A460A0933C06F0FD05C0A091CE
:104320004506A460A093450657FD05C0A09145062B
:10433000A062A0934506F1FD05C0F0914506F0612D
:10434000F093450656FD05C05091450658605093C0
:104350004506E11111C07F3F79F420E860E80AC00A
:1043600080E030E02FEF6FEF40E090E003C030E0FE
:1043700040E002C070E8E0E890933A0640933B06C4
:10438000E0933D0670933E066093400620934106FD
:1043900080933F06309342061092BC0060960FB6A1
:1043A000F894DEBF0FBECDBFDF91CF911F910F916B
:1043B000EF90089588B18C7F88B987B1836087B901
:1043C00031991BC081E0809397020E946D2010926A
:1043D000BC008091C601803F81F0882341F081308C
:1043E00041F0833041F0813141F487E308958DE05D
:1043F00008958FE1089580E2089580E008958AEBA2
:1044000091E0089508951092F2028FE284B98FEF3F
:1044100085B98FE78CBD80912806811103C08DE09E
:104420008093280680913606811103C08EE0809328
:1044300036068091F402811103C083E18093F40277
:1044400080910503811103C084E1809305030895E1
:10445000843608F484E68093B2026093B002089533
:104460008FEF8093B3026093B10208958EBD0DB4B7
:1044700007FEFDCF80910B03811102C00E94FA025A
:104480008BE291E00197F1F700C000008EB508952E
:10449000CF93C3E029988BE291E00197F1F700C038
:1044A000000081E00E94362282E40E943622299A8E
:1044B000EBE2F1E03197F1F700C000009FEF980FB9
:1044C0009E3F30F491E0909399029093F20208C0DD
:1044D000E7EBFBE03197F1F700C00000C150D1F6E7
:1044E0009CB59F7B9CBD9091F202911101C080E030
:1044F000CF910895CF9329988BE291E00197F1F73E
:1045000000C0000081E00E94362285E40E9436222D
:1045100080E00E9436228AE50E943622C5E08AE5C4
:104520000E943622C150D9F7299A8BE291E0019777
:10453000F1F700C00000CF910895CF93C82F2998BC
:104540008BE291E00197F1F700C0000081E00E944A
:10455000362283E40E94362280E00E9436228C2F8D
:104560000E94362280E00E943622CC2349F0299A0C
:104570008BE291E00197F1F700C00000CF91089520
:104580008AE50E9436228AE50E9436228AE50E9448
:1045900036228AE50E943622EACFFF920F931F93BC
:1045A000CF93DF93CDB7DEB7DA950FB6F894DEBFC1
:1045B0000FBECDBF2B9A239A8CB580648CBD8BE245
:1045C00091E00197F1F700C0000080910203299863
:1045D000882309F440C0EBE2F1E03197F1F700C025
:1045E0000000809137068983F12C80913706F816F8
:1045F00088F40F2D10E0F801EA5DFA4F80810E94E7
:104600003622E2E0F0E0EC0FFD1FE00FF11F8083A7
:10461000F394EBCF10E0809137061817A8F4812FA0
:1046200090E0FC01EA5DFA4FA1E0B0E0AC0FBD1FE5
:10463000A80FB91F8C91808380910B03811102C058
:104640000E94FA021F5FE7CF1092020381E080937D
:104650000703299AE9C18BE291E00197F1F700C0C5
:1046600000008091B302882381F08091B1029FEF16
:10467000980F9E3F18F49093B10209C08F3F39F014
:104680001092B1021092B30202C01092B102809156
:10469000B202882381F08091B0029FEF980F9E3F75
:1046A00018F49093B00209C08F3F39F01092B00215
:1046B0001092B20202C01092B00281E00E94362233
:1046C00082E40E94362280939C0280E00E9436227F
:1046D000182F8091B3020E94362280939E0280910F
:1046E000B2020E94362280939F0290919C02809198
:1046F0000803981741F081E0913419F080939902F2
:1047000002C08093F502909308031F3F29F4299A71
:1047100081E08093F60288C1933E21F48FE7809375
:1047200008033AC0933221F481E080939A0234C0A6
:10473000913431F481E08093A1028093A0022CC0D7
:10474000993769F400EA12E080E00E943622F8010D
:1047500081938F01F2E0003B1F07B1F71DC080E09D
:104760000E9436228093A00280E00E94362280932D
:10477000A10280E00E9436228093A2028091080369
:10478000833529F480E00E943622809503C080E0C2
:104790000E9436228093A302299A8091990288234D
:1047A00009F4B0C08CEF92E00197F1F700C000006F
:1047B0001092990280910803813409F45BC081E072
:1047C0000E949D222998EBE2F1E03197F1F700C0B9
:1047D000000081E00E9436228DE40E94362280E0B3
:1047E0000E94362280E00E94362281E00E9436221A
:1047F0008FEF0E9436228FEF0E9436228FEF0E94A9
:1048000036228FEF0E943622299A8BE291E001979F
:10481000F1F700C000002998EBE2F1E03197F1F7E1
:1048200000C0000081E00E9436228FE40E94362200
:1048300080E00E9436228FEF0E9436228FEF0E9486
:10484000362283E00E94362280E00E94362280E0F9
:104850000E94362280E00E943622299A8BE291E063
:104860000197F1F700C000000E947A2280E00E94C8
:104870009D2248C081E00E949D220E947A222998B0
:10488000EBE2F1E03197F1F700C0000081E00E9417
:10489000362284E40E94362280E00E94362281E0A3
:1048A0000E94362280E00E94362280E00E9436225A
:1048B00080E00E94362280E00E94362280E00E9442
:1048C0003622299A8BE291E00197F1F700C00000AF
:1048D00080E00E949D222998EBE2F1E03197F1F708
:1048E00000C0000081E00E94362282E40E9436224D
:1048F000299AEBE2F1E03197F1F700C00000813432
:1049000009F05DCF90919F029095392F329580E00C
:1049100083278D73832730FB83F932FB80F933FBC8
:1049200082F9382F80919E02809520E080FB24F947
:1049300083FB25F9232B20933A06937020E081FB1B
:1049400026F982FB27F9292B20933B0690914506F7
:10495000E0E084FBE2F985FBE5F986FBE3F987FB00
:10496000E4F98E2F892B809345062091A002309187
:10497000A102832F90E0820F911D029709F454C089
:1049800020934006309341069091A20290933D06F9
:104990008091A30280933E06E4EAF2E0A9E2B6E049
:1049A00041914D9342E0E03BF407D1F7E0912806B6
:1049B000E53131F0F0E0E556FD4F4081409343068C
:1049C000E0913606E53131F0F0E0E556FD4F4081EB
:1049D00040934406E091F402E53131F0F0E0E55611
:1049E000FD4F408140933F06E0910503E53131F0F2
:1049F000F0E0E556FD4F40814093420640919A0217
:104A0000413079F430933F069093420680934406F8
:104A100020933D0680E88093400680933E06809375
:104A200041068CB58F7B8CBDD3950FB6F894DEBF55
:104A30000FBECDBFDF91CF911F910F91FF900895D1
:104A400087EC91E0089528E030E040E89FE26FE0D5
:104A50007FE3592F5095E42FE82398B9EE2319F0FE
:104A600078B958B901C068B9952F469521503109D8
:104A70002115310571F70895CF92DF92EF92FF92E1
:104A80000F931F93CF93DF931F92CDB7DEB78C01A7
:104A9000F12CE12CF61684F46801CF0CD11CF7FC44
:104AA000DA94F601808169830E942325F6018081D2
:104AB000E826F3946981EECF8E2D0F90DF91CF9190
:104AC0001F910F91FF90EF90DF90CF9008958FE3AB
:104AD00087B988B98FE188B988E020E198B1922739
:104AE00098B98150D9F78FE388B908958FE387B9D2
:104AF00088B98FE288B984E020E298B1922798B90A
:104B00008150D9F78FE388B908950E94672568E03E
:104B100087ED91E00E943C250E9423250C94762588
:104B20008091B602882311F080E1089580E0089515
:104B30006093B70208956093B70208951F93CF93CF
:104B4000DF93182FC42F4F3F19F0411101C0C1E06E
:104B5000D62FD295D695D77009F4D1E0D295D07FD3
:104B6000D068CF3F09F4C1E00E94672582E00E942F
:104B7000232580E00E942325812F0E9423258EE09B
:104B80000E94232580E00E94232581E00E942325A6
:104B900080E00E94232580E00E9423258C2F0E9424
:104BA000232582E30E9423258D2F0E94232580E167
:104BB0000E9423258FE281278D278C270E942325A1
:104BC0000E94762583E893E00197F1F700C000008A
:104BD000DF91CF911F9108951092FA0280E388B976
:104BE0001092B60281E08093B5021092B4020E9446
:104BF000672564E083ED91E00E943C250E94232517
:104C00000E94762587EB9BE00197F1F700C000003A
:104C10008FEF87B90E948525E8988FEC87B980E3EC
:104C200088B982E08093680080E180936C008EEC0C
:104C300090E00197F1F700C0000010926800109218
:104C40006C00E89A8FEF87B98091FA02882329F0E7
:104C500081E08093B60280930A038FEF87B91092A8
:104C60006C000895109268001092FA028FEF87B9D5
:104C7000E8980E94852580E388B98FEC87B982E0A7
:104C80008093680080E180936C008EEC90E0019747
:104C9000F1F700C000001092680010926C001092B2
:104CA0006C00E89A2091FA02211108C081E08093FB
:104CB000F6021092B4028FEF87B908958FEF87B98B
:104CC0005091F8024091F9028091FB02382F309503
:104CD00090E030FB97F931FB91F932FB90F933FB0F
:104CE00095F9392F922F909560E090FB66F991FB32
:104CF00063F992FB62F993FB64F9962F932B9093DF
:104D00003A0694FF03C033E230930803309108035E
:104D1000333251F42095322F3295337030933B0665
:104D2000207C292B20933A0620913A065B3F10F015
:104D300090E401C090E0292B4B3F10F090E801C0B7
:104D400090E0922B90933A068095859585958C738B
:104D50008093450650933F06409342068091FE02A1
:104D600080933E068091FF0280933D0608950F9345
:104D70001F93CF93DF93809102038823E1F00E9479
:104D800067256091370686E295E00E943C250E94E7
:104D900023250E94762540E051E061E070E086E244
:104DA00095E00E94B73280E4809326058FEF8093D0
:104DB0002705109202038091B7028230A8F08F3F3E
:104DC00019F081508093B7028091B40280FF05C032
:104DD0004FEF6FEF81E00E949E258091B40281FF2A
:104DE00047C04FEF6FEF13C08130A9F41092B702A4
:104DF0008091B40280FF05C040E060E081E00E9445
:104E00009E258091B40281FF33C040E060E082E0E3
:104E10000E949E252DC0C091B5020E94672580E0AA
:104E20000E94232580E00E9423258C2F0E942325A9
:104E300081E00E94232581E08C270E9423250E9487
:104E4000762580E388B98FEC87B994E286B18073C8
:104E5000803309F059C028E22A95F1F79150B1F753
:104E6000C0958091B4028C238093B4028FEF87B9F0
:104E700080910A038130C1F58091B5028130A1F59E
:104E80008091B40280FF30C08FE697E10197F1F77F
:104E900000C0000010920A030E9467256CE08FEDAD
:104EA00091E00E943C25182FC0E0D0E0CE0123E025
:104EB000822780569F4F0E94BE32082F0E942325D2
:104EC00010272196C03CD10589F7812F0E94232508
:104ED0000E94762580E388B98FEC87B987E592E058
:104EE0000197F1F700C000008091B502813011F404
:104EF00082E001C081E08093B5028FEF87B9DF9136
:104F0000CF911F910F9108959CE29A95F1F784E259
:104F100096B19073903331F498E09A95F1F78150FF
:104F2000B9F7A4CF8091B402282F30E04C2F552739
:104F300047FD5095242335232417350709F496CFD0
:104F4000C82BC093B4028AE08093B7028FCF8BEE58
:104F500091E0089508956093B9029091030295300D
:104F600069F0992359F0882321F0933039F082E0D9
:104F700003C0913019F084E08093030208950C94EB
:104F8000AB27FF920F931F93CF93DF93CDB7DEB77D
:104F9000A6970FB6F894DEBF0FBECDBF8091020377
:104FA000882309F463C06091370670E020E0822F07
:104FB000992787FD9095861797076CF4E1E0F0E05C
:104FC000EC0FFD1FE80FF91FDC01AA5DBA4F8C91B1
:104FD00080832F5FECCFCE0101960E94C10B21E0B0
:104FE00031E0E6E2F5E0DF01A9011D9241505040B9
:104FF000E1F7869586958695682F70E090E000E849
:1050000010E0292F332727FD30952617370734F571
:10501000A901E3E0440F551FEA95E1F7D901A95D25
:10502000BA4FFC9020E030E0F901E40FF51FE95B96
:10503000F94FE081EE2341F0F801022E02C0F59510
:10504000E7950A94E2F701C0E0E0FE2A2F5F3F4FA8
:105050002830310549F7FC929F5FD3CF8093260516
:105060001092020381E0809307030EC1198261E070
:1050700070E0CE0101960E94C10B811104C081E055
:105080008093F60201C191E09093B802883111F04B
:105090001092030280915E06882331F08091030212
:1050A000853011F41092030280915E06811103C0D5
:1050B00085E0809303028091B9028F3F69F08823D5
:1050C00021F081508093B90207C0809103028330A0
:1050D00019F484E080930302809103028230F1F09E
:1050E0008430D1F1811151C083E0898380E88A83C3
:1050F00081E08B8342E250E060E870E0CE010496EC
:105100000E94B73263E270E0CE0101960E94C10BAB
:105110008823D9F184E08093030237C013E0198318
:1051200080EC8A838BE18B8340E250E061E070E0A9
:10513000CE0104960E94B73263E270E0CE01019680
:105140000E94C10B8111109303028BE291E0019741
:10515000F1F700C0000019C083E0898380EC8A83E6
:105160008BE18B83FE01349680E2DF011D928A95EC
:10517000E9F763E270E0CE0101960E94C10B88233B
:1051800021F381E080930302E0CF81E0898361E035
:1051900070E0CE0101960E94C10B803209F074C00C
:1051A00030913A0620913B0680E090E0FC01E95BFB
:1051B000F94F4081442351F0FC01EE5CFD4F4081EA
:1051C000FC01EE5DFD4F5081252B342B0196803183
:1051D000910561F730933A0620933B0680914B0688
:1051E000882329F08091450684608093450680914C
:1051F0004C06882329F080914506886080934506F7
:1052000080914E06882329F0809145068062809324
:10521000450680914D06882329F0809145068061DE
:105220008093450680E090E0A0E0B0E020E830E028
:10523000482FFC01E95AF94F5081552341F0B9013B
:10524000082E02C0759567950A94E2F701C060E0E8
:10525000B62BFC01E15AF94F5081552341F0B901B9
:1052600002C0759567954A95E2F7AB0101C040E031
:10527000A42B019688309105D9F6B058B0933D061D
:105280008FE78A1B80933E06A6960FB6F894DEBF82
:105290000FBECDBFDF91CF911F910F91FF90089569
:1052A0000E94C1278091B802882319F080910803D9
:1052B000089580E008951092B8021092B9020C94FB
:1052C000BE0B87EF91E008950895089517B88FE316
:1052D00088B908958FE188B982EC90E00197F1F7E1
:1052E00000C000008FE388B908958FE387B98FE18C
:1052F00088B987EE98E00197F1F700C000000895A3
:105300008FE188B984E78A95F1F78FE388B981ED59
:1053100090E00197F1F700C000008FE188B908958F
:1053200027E030E090E06FE37FE144E84A95F1F751
:10533000AC01022E02C0559547950A94E2F740FF52
:1053400008C068B9E2ECF0E03197F1F700C0000066
:1053500007C0F8E7FA95F1F768B94CE84A95F1F714
:1053600078B92150310908F70895CF93C82F0E94CA
:1053700075290E9480298C2F8C630E9490290E949D
:105380006A2917B89EEF84E08A95F1F735996CC0C9
:10539000ECEAEA95F1F728E030E040E050E0BA01AD
:1053A00080E8EBE2F1E03197F1F700C000003599B9
:1053B000482B8695215031092115310591F7762F1B
:1053C000652F542F442728E030E080E8EBE2F1E03D
:1053D0003197F1F700C000003599482B8695215090
:1053E00031092115310591F7762F652F542F442768
:1053F000C11135C088E090E020E8203829F4EDE0C4
:10540000F1E03197F1F704C0EBE2F1E03197F1F709
:1054100000C000003599422B0000269501970097A7
:1054200061F7B62FA52F942F8827EFEAF4E0319784
:10543000F1F700C0000024E030E048E0EBE2F1E0EA
:105440003197F1F700C000003599842B4695215023
:1054500031092115310591F7BC01CD010BC0992708
:1054600077FD9095892F06C0915009F08CCF60E0B0
:1054700070E0CB01CF9108958F929F92AF92BF922F
:10548000CF92DF92EF92FF920F931F9380E00E94E2
:10549000B529872E982EA92EBB24A7FCBA94882064
:1054A00009F45EC0092F332707FD3095132F232FF2
:1054B000402F441F4427441F53E0541B452F6C01C9
:1054C000FF24D7FCF094EF2CC7FC4D7F5C2DC6FE6B
:1054D00004C050955F77519501C05F7706FF04C007
:1054E00000950F77019501C00F7720E8250F2093D5
:1054F0003D06005800933E061092BC0220E820931F
:105500001102209310028094609580E082FA82F963
:1055100083FA84F984FA85F985FA83F98093BB02CA
:1055200080E080FA83F981FA82F986FA80F987FAB5
:1055300081F990E4499F40011124882960FD806130
:105540008093BA0261FF05C08091BC0284608093A1
:10555000BC0262FF05C08091BA0280628093BA02E9
:105560008091BA0280933A068091BB0280934506EF
:105570008091BC0280933B061F910F91FF90EF90AA
:10558000DF90CF90BF90AF909F908F90089583E071
:105590000E94B529672B682B692B11F08AE00895CA
:1055A0000895E89883E00E94B529672B682B692B42
:1055B00021F481E08093F60223C0E89A8BED95E018
:1055C0000197F1F700C00000E8980E9475290E9439
:1055D00080298BE30E9490290E946A2987E592E046
:1055E0000197F1F700C000000E94802983E60E9425
:1055F000902986E40E9490290E946A2917B8449A4B
:10560000E89A089584E092E00895A82FB92F80E0E9
:1056100090E041E050EA609530E009C02D9182278A
:105620009795879510F084279527305EC8F36F5FB4
:10563000A8F30895EADF8D939D930895CF93CFB794
:10564000CF93C395489BE9F7489B09C0489B07C087
:10565000489B05C0489B03C0489B01C0A6C0DF9380
:10566000C091D502DD27C452DD4F489B02C0DF91B7
:10567000EBCF2F930F931F9309B12FEF00FB20F96E
:105680004F933F9319B14FEF012700FB21F93BE006
:1056900031C04E7F012F19B1216028C0102F4D7FDE
:1056A0002260000009B129C04B7F2460012F000057
:1056B00019B12BC019B1477F28602AC04F7E09B1AC
:1056C00020612CC04F7D19B120622FC04F7B09B1E2
:1056D000206432C0422709B149934FEF00001027E0
:1056E00010FB20F919B11570C9F1297F91F201273A
:1056F00000FB21F909B1237F89F2315058F11027BD
:1057000010FB22F919B1277E79F2012700FB23F95A
:105710002F7C81F209B1102710FB24F92F7971F247
:1057200000C019B1012700FB25F92F7359F200C001
:1057300009B1102710FB26F9223040F200C019B140
:10574000012700FB27F9243028F64F77206819B18C
:105750000000F9CF11E01CBB00271CC03B50319565
:10576000C31BD04011E01CBB0881033C11F10B347A
:1057700001F12091D3021981110F1213EDCF4A814B
:10578000441F093659F10D3211F0013E29F74F70CF
:1057900009F0042F0093DA023F914F911F910F916E
:1057A0002F91DF91CCB3C0FD4CCFCF91CFBFCF9124
:1057B00018952091DA02222379F31091D80211234F
:1057C00069F534306AF13093D8022093D4021091F5
:1057D000D5023BE0311B3093D50222C00091D802A4
:1057E0000130E4F40AE54F7049F43091020134FDD0
:1057F00019C000930201CCEBD2E018C03091C7026F
:1058000034FD10C00093C702C8ECD2E00FC027954A
:10581000A8F45150A9F4220F0000F9CF4AE503C0C3
:1058200042ED01C0432FC4E1D0E032E01AB115606F
:10583000589A1AB90BB120E415E05F93012756E09E
:105840000BB9279520F4515021F4220FF9CF0127ED
:1058500056E000003B5A0BB9D0F2279528F451507E
:1058600029F4220F0000F9CF012756E027950BB944
:1058700020F4515021F4220FF9CF012756E029914D
:1058800033230BB921F60A7F1091D902110FC651AB
:10589000D0400BB911F01093D30211E01CBB016092
:1058A0001AB11A7F402F4A7F5F9100C000C00BB928
:1058B0001AB94BB971CF3599189590E0909368005B
:1058C00090936C00359BF7CF0F920FB60F922F93EA
:1058D0003F93AF93BF93A7EFB2E0221B34E093EB6B
:1058E0009A95F1F70000349BFECF92E09A95F1F77C
:1058F0000000000000000000349908942D93222736
:10590000221F00000000000035990894221F92E039
:105910009A95F1F734990894221F92E09A95F1F73D
:1059200035990894221F92E09A95F1F734990894DA
:10593000221F92E09A95F1F735990894221F92E080
:105940009A95F1F734990894221F92E09A95F1F70D
:1059500035990894221F3A9561F635E034990894F8
:105960002D932227221F0000000000003599089483
:10597000221F92E09A95F1F734990894221F92E041
:105980009A95F1F735990894221F92E09A95F1F7CC
:1059900034990894221F92E09A95F1F7359908946A
:1059A000221F92E09A95F1F734990894221F92E011
:1059B0009A95F1F735990894221F3A9529F035996F
:1059C0000C94AE2C0C94AE2CBF91AF913F912F91C3
:1059D0000F900FBE0F90189598EC9A95F1F798ECF0
:1059E0009A95F1F798EC9A95F1F71895CF93DF9384
:1059F000CDB7DEB76E970FB6F894DEBF0FBECDBF42
:105A000014BEF894A89588E10FB6F89480936000CE
:105A1000109260000FBE84E0809381001092080312
:105A2000EEE0F3E081E081938F5F8931E1F70E943E
:105A3000650483E08093500263E080E190E00E947F
:105A4000D6328FE0809351026FE082E190E00E94B5
:105A5000D63281E190E00E94BE32182F8CEF810F88
:105A6000843030F064E081E190E00E94D63214E0AE
:105A70000E94BB0B80931C011093360110933901D7
:105A8000212F30E0235D3F4F30935F0120935E0173
:105A900030936301209362012FE73FE462E12150DC
:105AA00030406040E1F700C00000153041F47FE76E
:105AB0008FE492E1715080409040E1F713C01630BE
:105AC00041F42FE337E76BE1215030406040E1F7CC
:105AD00009C0173049F47FEF8EE994E2715080409D
