:100000000C94B6020C94FC2C0C94D3020C94D302E6
:100010000C94392E0C94D3020C94D3020C94D3027A
:100020000C94D3020C94D3020C94D3020C94D302FC
:100030000C94D3020C94D3020C94D3020C94D302EC
:100040000C94D3020C94D3020C94D3020C94D302DC
:100050000C94D3020C94D3020C94D3020C94D302CC
:100060000C94D3020C94D302140342004C004900B8
:10007000530053002D0042004F00580004030904B0
:1000800005010905A10185010509190129181500B6
:100090002501750195188102A1000501093009317A
:1000A000093209330934093509360937150026FFA5
:1000B00000350046FF00750895088102C00501253E
:1000C00007463B01750495016514093981426500B5
:1000D000950181010601FF094975019501810225FC
:1000E0000175078103050F0992A1028502099F0985
:1000F000A009A509A6150025013500450175019542
:1001000005810295038103099415002501350045F9
:100110000175019501810209221501252835014546
:1001200028750795018102C00921A10285010922D4
:1001300015012528350145287508950191020925E5
:10014000A102092609270930093109320933093486
:1001500009400941094209430928250315013501D0
:100160004503750895019100C009500954095115BE
:100170000026FF7F350046FF7F66031055FD751092
:100180009503910255006600000952150026FF00F4
:100190003500461027750895019102095315012570
:1001A00008350145087508950191020955A1020518
:1001B000010930093115002501750195029102C030
:1001C000050F095695019102950591030957A10262
:1001D0000B01000A000B02000A0066140055FE1510
:1001E0000026FF00350047A08C000066000075085F
:1001F000950291025500660000C0050F09A766032D
:100200001055FD150026FF7F350046FF7F751095C0
:100210000191026600005500C0050F095AA1028530
:1002200002092215012528350145287508950191F7
:1002300002095B095D150026FF0035004610279571
:10024000029102095C095E66031055FD26FF7F4698
:10025000FF7F7510910245006600005500C0095FE0
:10026000A1028503092215012528350145287508B5
:1002700095019102092315002501350045017504FA
:10028000950191020958A1020B01000A000B02001E
:100290000A00750295029102C01580257F36F0D8BC
:1002A000461027096075089501910236F0D846106E
:1002B000270961096295029102150026FF003500A9
:1002C000461027096309647508950291020965467D
:1002D000102795019102C0096EA10285040922151B
:1002E00001252835014528750895019102097015E9
:1002F0000026FF0035004610277508950191020978
:100300006F1580257F36F0D8461027950191020998
:100310007166140055FE150026FF00350047A08CBD
:1003200000009102097226FF7F46FF7F6603105589
:10033000FD7510950191026600005500C00973A17A
:1003400002850509221501252835014528750895DE
:1003500001910209701601FF26FF0036F0D8461001
:1003600027751095019102C00974A1028506092222
:100370001501252835014528750895019102097553
:1003800009761580257F36F0D84610277508950226
:100390009102C00966A102850805010930093115DD
:1003A00081257F350046FF00750895029102C00542
:1003B0000F0977A102850A09221501252835014573
:1003C000287508950191020978A1020979097A092D
:1003D0007B15012503750895019100C0097C150066
:1003E00026FF00350046FF009102C00990A102855A
:1003F0000B0922252815013501452875089501911D
:1004000002C00996A102850C099709980999099AD1
:10041000099B099C15012506750895019100C009E5
:100420007DA102850D097E150026FF0035004610CE
:1004300027750895019102C009ABA102850F092516
:10044000A102092609270930093109320933093483
:1004500009400941094209430928250315013501CD
:10046000450375089501B100C00501093B1500263B
:10047000FF01350046FF01750A9501B1027506B10D
:1004800001C0050F0989A10285020922252815014D
:100490003501452875089501B102098BA102098C27
:1004A000098D098E25031501350145037508950150
:1004B000B100C009AC150027FFFF0000350047FF61
:1004C000FF000075109501B100C0097FA1028503EE
:1004D0000980751095011500350027FFFF000047C2
:1004E000FFFF0000B102098326FF0046FF007508E8
:1004F0009501B10209A909AA750195021500250106
:1005000035004501B10275069501B103C00901A18D
:1005100001150026FF0075088510950D0900B2022F
:1005200001851195050900B202018515950D090097
:10053000B2020185169600010900B20201851795E5
:10054000300900B20201851295080900B202018546
:1005500013951C0900B20201851895C00900B2026A
:1005600001851495C40900B20201C0C011241FBE48
:10057000CFEFD8E0DEBFCDBF12E0A0E0B1E0E0EC0D
:10058000FBE602C005900D92AE3FB107D9F728E017
:10059000AEEFB2E001C01D92AD30B207E1F70E94AC
:1005A000D42E0C94DE350C940000CF93C62F2091EE
:1005B000850324FF07C02091860338E82327209372
:1005C000860303C02AE520938503DC01E7E8F3E016
:1005D0009C2F9E0F8D918193892F8E1B1816D4F31B
:1005E0006C2F87E893E00E94F82CCC5FC0938503C2
:1005F000CF910895CF93DF9360919603635067FD89
:10060000DFC080919303CCE0D0E0C81BD109C6566F
:10061000DC4F80919203803120F4CE010E94CD07FF
:10062000C9C08D3209F0B3C0683009F0C3C083EC93
:1006300080937A038AE5809302011092FE028881FA
:10064000807621F0CE010E94C40689C09A81109262
:1006500083038981811107C01092840323E833E06A
:1006600082E090E078C0853019F4909397036FC0D2
:10067000863009F055C08B81813011F0823029F429
:10068000CE010E94990620E048C0833081F5911187
:100690000AC08CE790E0909395038093940320E444
:1006A00084E090E03AC0913051F488E690E0909375
:1006B00095038093940320E484E190E02EC092306F
:1006C00051F48EE391E0909395038093940320E09E
:1006D00082E290E022C09330E9F480E691E09093CA
:1006E00095038093940320E08AE090E016C0813265
:1006F00051F481E193E0909395038093940320E477
:1007000089E090E00AC0823229F4CE010E94990665
:1007100020E403C020E480E090E02093FE021FC0AC
:10072000883069F0893019F49093990310C08A30A9
:1007300049F08B3061F48BE48093860308C029E98B
:1007400033E002C023E833E081E090E004C023E816
:1007500033E080E090E030939503209394038F3F43
:100760002FEF920749F4288127FF02C08E819F81D5
:1007700020E82093FE0206C02E813F81281739070A
:1007800008F4C901909301018093000113C0809186
:10079000FE0287FF0FC0CE010E944F088F3F21F459
:1007A0008EE18093020106C0882321F0109201019E
:1007B0001092000180919603181614F4109296037B
:1007C0008091020184FF54C0809100019091010149
:1007D0008F3F2FEF920709F44BC0BC018930910580
:1007E00010F068E070E0861B970B909301018093F6
:1007F000000180917A0398E8892780937A03C62FB5
:10080000662331F120919403309195038091FE028B
:1008100086FF0BC0ABE7B3E0F901862F8A0F9491F6
:100820009D9331968A13FBCF09C0D901EBE7F3E022
:10083000862F8E0F9D9191938E13FCCF8FEF8C0F8F
:1008400090E00196820F931F9093950380939403F9
:100850006C2F8BE793E00E94F82CCC5FCC3031F00A
:100860008FEF9FEF9093010180930001C0930201ED
:1008700084E199B1957031F48150D9F710929703C2
:1008800010929103DF91CF910895E9E6F0E0808125
:1008900082608083E89A8BE4809386038AE5809364
:1008A000850308950F931F93CF93DF9380E290E029
:1008B0000E94B435813081F083E190E00E94B4352C
:1008C000809305038F3FB9F41092050360E083E144
:1008D00090E00E94CC350FC00BEC13E0C1E2D0E0F9
:1008E000CE010E94B435F80181938F012196C9335E
:1008F000D105B1F7E1CF84E190E00E94B435809357
:10090000C4038F3F39F41092C40360E084E190E0A7
:100910000E94CC3589E190E00E94B4358F3F59F4B4
:1009200084E690E090936C0180936B0164E689E12A
:1009300090E00E94CC3586E190E00E94B43580932F
:10094000CA038F3F39F41092CA0360E086E190E059
:100950000E94CC3587E190E00E94B4358093C103BA
:100960008F3F39F41092C10360E087E190E00E946C
:10097000CC3588E190E00E94B43580936A018F3FC6
:1009800039F410926A0160E088E190E00E94CC3571
:1009900061E08AE190E00E94CC358CE190E00E9419
:1009A000B435813F48F088E08093E50668E08CE14B
:1009B00090E00E94CC3503C0885F8093E5068DE10E
:1009C00090E00E94B4358093F406813F48F087E0C0
:1009D0008093E50667E08DE190E00E94CC3503C08E
:1009E000885F8093F4068EE190E00E94B435813FE9
:1009F00048F085E08093B20365E08EE190E00E94CC
:100A0000CC3503C0885F8093B2038FE190E00E94F1
:100A1000B435813F60F086E08093C30366E08FE1E8
:100A200090E0DF91CF911F910F910C94CC35885FAE
:100A30008093C303DF91CF911F910F91089588E1B7
:100A40000FB6F89480936000109260000FBE51982A
:100A500059982FE78CEF9AE0215080409040E1F7C1
:100A600000C00000F894E0E0F8E70994CF93DF932A
:100A700014B817B88FEF85B988B98AB188618AB977
:100A80005C985B9A8091C903811102C00E94FA02AE
:100A900087EB9BE00197F1F700C0000086B18F362D
:100AA00041F40E947B1F9093BF038093BE03C0E379
:100AB0003CC10E946B119093BF038093BE03DC0185
:100AC000ED91FC910995E091BE03F091BF03048084
:100AD000F581E02D0995C82F811127C1549A5C98A2
:100AE00053985B9A17B88FEF88B987E293E2019722
:100AF000F1F700C000004B9913C086B18F3781F425
:100B000083B18F3369F4209A289800001C9B08C099
:100B10000E947B1F9093BF038093BE03CAE205C16E
:100B200096B15C985B9AA0E2AA95F1F780EC87B940
:100B30008FE388B98AB188618AB95B985C9AB0E220
:100B4000BA95F1F786B18B3041F40E947B1F9093E8
:100B5000BF038093BE03C2E2E8C086B18D3319F4AF
:100B6000D1E09F3709F0D0E00E94C2179093BF03F5
:100B70008093BE03DC01ED91FC910995E091BE03E9
:100B8000F091BF030480F581E02D0995C82F8111F4
:100B9000CCC0DD2341F00E947B1F9093BF03809364
:100BA000BE03C1E0C2C00E9497289093BF03809308
:100BB000BE03DC01ED91FC910995E091BE03F0913B
:100BC000BF030480F581E02D0995C82F8111ADC0C8
:100BD0000E94F8259093BF038093BE03DC01ED9142
:100BE000FC910995E091BE03F091BF030480F5816B
:100BF000E02D0995C82F811198C00E945D1990932E
:100C0000BF038093BE03DC01ED91FC910995E09157
:100C1000BE03F091BF030480F581E02D0995C82F34
:100C2000811183C00E94410F9093BF038093BE0344
:100C3000DC01ED91FC910995E091BE03F091BF03B9
:100C40000480F581E02D0995C82F882361F08D324D
:100C500019F0833109F069C00E943E2A9093BF03C6
:100C60008093BE0362C00E94DF2B9093BF038093EA
:100C7000BE03DC01ED91FC910995E091BE03F0917A
:100C8000BF030480F581E02D0995C82F81114DC067
:100C90000E9436209093BF038093BE03DC01ED9148
:100CA000FC910995E091BE03F091BF030480F581AA
:100CB000E02D0995C82F811138C00E94C42290935D
:100CC000BF038093BE03DC01ED91FC910995E09197
:100CD000BE03F091BF030480F581E02D0995C82F74
:100CE000811123C00E94E02C9093BF038093BE0328
:100CF000DC01ED91FC910995E091BE03F091BF03F9
:100D00000480F581E02D0995C82F81110EC00E9445
:100D10007B1F9093BF038093BE03DC011496ED917B
:100D2000FC911597DF91CF9109948C2FDF91CF9192
:100D30000895FC012181263021F583818230A9F0BC
:100D4000823259F08130E9F48CE291E0909395037E
:100D50008093940382E190E0089580E890E090937E
:100D60009503809394030C94700C81E080932A0384
:100D700083E091E0909395038093940389E290E05F
:100D8000089580E090E008950F931F93CF93DF9331
:100D9000FC01A895A3EEB3E080E092E0ED019C0198
:100DA000199221503040E1F7B0939503A09394033A
:100DB00080818076803209F0E6C082819381923012
:100DC00009F4E4C02181213009F0D3C0833099F4C3
:100DD000933079F520932B0384E680932903909335
:100DE000E3032093E4032093E5038FEF8093E6036E
:100DF0002093E7031BC08230E1F49330D1F494E6F2
:100E00009093290320911A039FEF920F943010F4CE
:100E100091E001C092E08093E3032093E403909378
:100E2000E50384E68093E7038093E60385E090E0A2
:100E3000AFC0A895873191F481E08093290303EE38
:100E400013E0C0E1D0E0CE010E94B435F8018193F7
:100E50008F012196C034D105B1F782C0853189F464
:100E600081E190E00E94B4358093E303E6EEF6E082
:100E7000A4EEB3E081918D9326E0E23FF207D1F733
:100E800072C08631F1F481E190E00E94B435809324
:100E9000E3038091E30590E0AC014F5F5F4F61E0B9
:100EA000262F30E04217530754F0F901ED51FC4F63
:100EB000D901AE51BA4F2C9120836F5FF1CF0296CA
:100EC00067C08831C9F481E08093290381E190E013
:100ED0000E94B4358093E30304EE13E0C0EAD0E04F
:100EE000CE010E94B435F80181938F012196C0365E
:100EF000F1E0DF07A9F73AC0813109F044C08091E1
:100F0000C6038093E3032091C10348E0249F90012E
:100F100011248091C403C0E18C9FC0011124282BAF
:100F20008091B403282B8091CA03D0E48D9FC00127
:100F30001124282B8091B303E0E88E9FC001112477
:100F4000282B2093E403809101038093E503809193
:100F500003038093E603809102038093E70366CF47
:100F600080E390E015C08DE090E012C081EC90E04D
:100F70000FC081E090E0293011F080E090E0919581
:100F80008195910905C080E090E002C081E090E089
:100F9000DF91CF911F910F910895CF93DF93EC01D3
:100FA000A8958881843041F48981823008F474C026
:100FB0008A8180936D0170C0813089F4683009F0B6
:100FC0006BC099818091F806981709F465C08C81EF
:100FD000882309F461C0880F809319035DC08230B3
:100FE00009F45AC0853051F48981813009F054C028
:100FF0008A8180936E01109218034EC08A3009F0E6
:101000004BC08B8160911903623008F4682F89818D
:10101000813021F5909118038A81E091BE03F0910F
:10102000BF03933011F4813021F0833041F41092EA
:1010300019030284F385E02D63E088EC0AC08091F7
:101040006E018F3F19F4613009F46FEF0284F3856C
:10105000E02D09958A81809318031EC08230E0F04C
:101060008A81E091BE03F091BF03833041F4109276
:1010700019030084F185E02D63E088EC0AC08091BB
:101080006D018F3F19F4613009F46FEF0084F18531
:10109000E02DDF91CF910994DF91CF910895DF92F8
:1010A000EF92FF920F931F93CF93DF93EC01A895DC
:1010B00081E080932903809106038111AFC188816B
:1010C0008F3021F4898180931A03A6C18251833025
:1010D00008F0A2C1A89599819432A9F48CEB809371
:1010E00007039093060384E080930803249600EAA4
:1010F00010E06991C8010E94CC350F5F1F4F043A80
:101100001105B9F7B8C19230B9F485E180930703AE
:101110009093060384E08093080388E1EBECF3E00E
:10112000DF011D928A95E9F7249689918193B3E0B6
:10113000EF3CFB07D1F79FC1953279F52A81211148
:101140000FC08C818093F5069D819093E3059E816D
:101150009093E4059F819093E5058430D0F05CC1C5
:101160002F3F19F42091F5062550FE01339680E0BB
:1011700090E030E02D513A4F4191D901A80FB91FAD
:101180004C93019685309105B9F78A818F3F09F01C
:1011900043C181E08093C003C7C1903289F48C8140
:1011A000885F8093E5068D81885F8093F4068E8149
:1011B000885F8093B2038F81885F8093C3032CC1C3
:1011C000913009F0B3C08C818F3F09F096C08D81BA
:1011D000813069F56091C40384E190E00E94CC35D0
:1011E0006091CA0386E190E00E94CC356091C10312
:1011F00087E190E00E94CC356091E50668508CE173
:1012000090E00E94CC356091F40668508DE190E04A
:101210000E94CC356091B20368508EE190E00E944C
:10122000CC356091C30368508FE190E063C0823099
:1012300009F0F2C01092050360E083E190E00E94A3
:10124000CC351092C40360E084E190E00E94CC357C
:101250001092CA0360E086E190E00E94CC351092C3
:10126000C10360E087E190E00E94CC3510926A01F2
:1012700060E088E190E00E94CC3584E690E09093B5
:101280006C0180936B0164E689E190E00E94CC35AB
:1012900068E08CE190E00E94CC3580E18093E50627
:1012A00067E08DE190E00E94CC358FE08093F406FA
:1012B0006BE08EE190E00E94CC3583E18093B20335
:1012C0006CE08FE190E00E94CC3584E18093C30311
:1012D000EBECF3E081E081938F5F8931E1F748E146
:1012E00050E061E270E08BEC93E00E94BC3561E07D
:1012F00080E290E00E94CC358FC083FF04C091E073
:101300009093C10302C01092C10384FF04C091E016
:101310009093C40302C01092C40386FF04C081E00E
:101320008093CA0301C11092CA0376C08CEF890F63
:10133000823078F58C81882361F0813029F41D8119
:1013400011110BC01FEF09C0823031F41D810E81D5
:1013500005C010E000E002C010E00FEF943051F43F
:10136000E091BE03F091BF030284F385E02D602F6E
:10137000812F09958981853009F04EC0E091BE0327
:10138000F091BF030084F185E02D602F812F099536
:1013900043C0983061F46C8181E190E00E94CC35CB
:1013A0008D818823C9F144E04A95F1F714C090314A
:1013B00091F0903499F46C816093050381E08093FF
:1013C000C1038D81882341F183E190E00E94CC35F7
:1013D00084E08A95F1F70E941F051EC0903861F4E1
:1013E0006091F80660936A0188E190E00E94CC3534
:1013F000A4E0AA95F1F710C0933071F46C81862FA8
:1014000090E090936C0180936B0189E190E00E94E1
:10141000CC35B4E0BA95F1F781E086C0909107032E
:10142000F62E961708F4F92E823009F07BC0E09072
:101430000803DE2C0F2D10E02D2D2E198D2D992750
:1014400087FD909530910803A801430F511D841723
:1014500095079CF0809106038432B1F180910803D6
:101460008F0D80930803809107038F1980930703E2
:10147000882309F44DC080E057C0332727FD3095FD
:1014800048E1FE01E20FF31FD41217C080818130C2
:1014900071F461E080E290E00E94CC3548E150E0D8
:1014A00061E270E08BEC93E00E94BC350BC06FEF03
:1014B00080E290E00E94CC3505C02081FC01E5531C
:1014C000FC4F2083D394B8CF809129038F5F809302
:1014D0002903E0900803D22EDE180F2D10E03D2DD9
:1014E0003E0D8E2D90E020910803A801420F511D62
:1014F000841795070CF0B2CFFE01E30FF11D37FD05
:10150000FA95608180569F4F0E94CC35E394E7CFD7
:1015100080910603843219F481E08093C80310920D
:1015200006037ACF20E096CFDF91CF911F910F91E4
:10153000FF90EF90DF9008954091040341110BC09C
:1015400020916B0130916C015AE0529FC001539F72
:10155000900D112402C088EA91E620918400309118
:1015600085008217930788F41092850010928400FA
:1015700041504E3F18F48EEF8093040381E0909128
:101580000A03911180E080930A03089524E12A95CB
:10159000F1F79BB195609BB944E04A95F1F79BB197
:1015A0009A7F9BB992E09A95F1F730E090E0E32FB3
:1015B000FF27E7FDF095E817F9071CF528E0E45D43
:1015C000FC4F589A46E04A95F1F700C0408140FD33
:1015D00005C045E04A95F1F700C005C0589845E0C0
:1015E0004A95F1F700000000408146954083215064
:1015F00041F7589A23E02A95F1F7000058983F5F89
:10160000D6CF8AB185608AB908958AB18A7F8AB9AE
:101610008BB185608BB93CE03A95F1F700C089B198
:101620008570853009F058C14A99FECF4EE04A9541
:10163000F1F788E06FEF6695489B606890E19A95B6
:10164000F1F78150C1F78AB185608AB98BB18A7F81
:101650008BB980913C0390913D03009709F44FC0F2
:1016600020913B032230C9F463FF04C081E08093E2
:10167000C10302C01092C10364FF04C081E08093E3
:10168000C40302C01092C40366FF04C081E08093CB
:10169000CA032BC01092CA0328C0243039F4019722
:1016A00021F581E190E00E94CC351FC0253029F45E
:1016B0000197D9F46093F60618C0213041F40197E0
:1016C00019F46093700111C060936F010EC0233054
:1016D00061F4E2EEF3E0E81BF90B6083EBECF3E07E
:1016E00081E081938F5F8931E1F780913C03909194
:1016F0003D03019790933D0380933C03EBC0109210
:101700003B03662309F4EAC0613061F4E7EFF6E0D9
:10171000ACE2B3E081918D9337E0E530F307D1F788
:101720008DE0D6C0623079F48091F70680932C0367
:10173000E6EEF6E0ADE2B3E081918D9346E0E33F63
:10174000F407D1F7EDCF6330C9F48BB185608BB965
:1017500084E08A95F1F78091F80680FF02C0589ADC
:1017600001C0589881FF02C05A9A01C05A9894E06B
:101770009A95F1F78AB185608AB9B0C0613141F4B8
:10178000E091BE03F091BF030284F385E02D13C006
:10179000623141F4E091BE03F091BF030284F3850E
:1017A000E02D17C0643161F4E091BE03F091BF03F6
:1017B0000084F185E02D60916F018091700117C068
:1017C000683151F4E091BE03F091BF030084F185CC
:1017D000E02D60E080E00BC06A3159F4E091BE0377
:1017E000F091BF030284F385E02D6AE08FEF099545
:1017F00071C06B3141F4E091BE03F091BF030084EE
:10180000F185E02DF2CF6C3151F482E090E09093BD
:101810003D0380933C0381E080933B030895603255
:1018200041F481E090E090933D0380933C0382E09B
:1018300040C0613209F52091C10348E0249F900126
:1018400011248091C40340E1849FC0011124282BFE
:101850008091B403282B8091CA0330E4839FC00198
:101860001124282B8091B30340E8849FC0011124E8
:10187000282B20932C032BC0623241F487E190E0A7
:1018800090933D0380933C0383E013C0633241F4A3
:1018900081E090E090933D0380933C0384E009C095
:1018A000643251F481E090E090933D0380933C03D7
:1018B00085E080933B030EC06F3F31F460932C03AF
:1018C00081E00E94C60A08C081EF80932C0381E06A
:1018D0000E94C60A81E008958FEF089580E0089580
:1018E0008CEE94E008953D98459808950F931F93CA
:1018F0002091C903211101C0E898662309F453C05F
:10190000782FFC0120E030E0C9013E2F371B36174D
:1019100090F49C01285F3F4F40E850815423DC0144
:10192000AB5FB84F5C930196469582179307A9F772
:1019300031969C01E9CF822F222309F434C0909183
:10194000F306992309F00000E5E0F7E0CF93DF9379
:10195000EF93FF930191002311F049F416C00000AA
:101960003D9A19E00FD03D980197A1F70EC03D9A1E
:1019700011E008D03D9815E005D000000000019767
:1019800049F703C01A95F1F708950000FF91EF9110
:101990003D9ADF91CF9111E0F5DF3D980FEF0A9569
:1019A00011F0359BFCCFE5E0F7E0EF93FF9399272B
:1019B00000270395A1F03599FCCF08C00FE50395EA
:1019C00072F03599FCCF939551F001930FE5039593
:1019D00032F0359BFCCF939511F00193EFCFFF913F
:1019E000EF918091C903811101C0E89A9923D1F048
:1019F000892F817090FF17C0A5E0B7E0FD019D0120
:101A00005081418181E0541708F080E08D93329637
:101A10008A2F821B8917A0F3892F90E00197959553
:101A2000879501C080E01F910F910895CF93DF93B8
:101A30001F92CDB7DEB7198261E0CE0101960E94F8
:101A4000760C8823F1F08831D1F480E090E021E039
:101A5000FC01EB5FF84F308131112160873011F0CC
:101A6000220F01C02F7701968830910589F7222334
:101A700041F0253041F0283041F482E107C083E095
:101A800005C080E003C083E101C089E00F90DF91D1
:101A9000CF9108950895CF93DF9300D0CDB7DEB7EF
:101AA0000E94730C1A82198262E0CE0101960E9494
:101AB000760C10923E030F900F90DF91CF91089516
:101AC0009F92AF92BF92CF92DF92EF92FF920F93CD
:101AD0001F93CF93DF93CDB7DEB760970FB6F8941F
:101AE000DEBF0FBECDBF0E94730C8091C003882360
:101AF00009F44BC06091F506A3EEB5E0CE0109965E
:101B0000FC012E2F281B261718F42D912193F9CFB5
:101B10000E94760C21E031E0E3EEF5E0DF01A9015F
:101B20001D9241505040E1F786958695869564EE6A
:101B300075E0FB0140E050E000E810E09E2F961BAE
:101B40009817F0F4908120E030E0D901A40FB51F80
:101B5000AB5FB84FAC91AA2341F0D801022E02C06E
:101B6000B595A7950A94E2F701C0A0E09A2B2F5FE4
:101B70003F4F2830310549F79193485F5F4FDECFE3
:101B80008093E3051092C00342C080913E038F3FD3
:101B900069F0882321F0815080933E0307C01092A2
:101BA000430384E080937D0110923F030E94160D51
:101BB00080934003833109F429C1811108C08091C9
:101BC0004203811125C181E08093B40321C11092A9
:101BD00042038E01075F1F4F823141F480E3898702
:101BE00080917D018A8780913F030AC080E48987C4
:101BF00083E08A8781E090914303911101C080E0E6
:101C00008B8763E0C8010E94760C803421F081E06C
:101C10008093C503FDC086E0EBEFF6E0DF011D9287
:101C20008A95E9F7D090FB069090FC06A090FE06FE
:101C3000B090FF069091FD06C090000720E030E0D4
:101C400040E850E0822FF901EB5EF84F6081662397
:101C500041F0BA01022E02C0759567950A94E2F729
:101C600001C060E0D62AD901A35EB84F6C91611122
:101C700009C07A01082E02C0F594E7940A94E2F7AD
:101C8000FE2C01C0F12CF928D901AB5DB84F6C9145
:101C9000662341F0DA01082E02C0B595A7950A9493
:101CA000E2F701C0A0E0EA2EEA28D901A35DB84F0F
:101CB0006C91611108C0FA01082E02C0F595E795F4
:101CC0000A94E2F701C0E0E0BE2AF901EB5CF84FAC
:101CD0006081662341F0BA01082E02C075956795B0
:101CE0000A94E2F701C060E0692BF901E35CF84F68
:101CF0009081992341F0FA0102C0F595E7958A9504
:101D0000E2F7CF0101C080E0C82A2F5F3F4F2830A3
:101D1000310521F09F2CAE2C962F94CFD092FB064C
:101D2000F092FC06E092FE06B092FF066093FD067C
:101D3000C092000788E0EFE1F2E0DE011196019029
:101D40000D928A95E1F79091F806FE01319683E0B5
:101D5000A82FB0E0AB5FB84F2C91222311F0208167
:101D6000922B21E0280F283011F422E0280F319621
:101D7000E017F10711F0822FEBCF9093F8068091D6
:101D80001107882329F0809103078460809303075B
:101D900080911207882329F080910307886080933F
:101DA000030780911307882329F08091030780623D
:101DB0008093030780911407882329F080910307FB
:101DC00080618093030780914003823119F480E899
:101DD0008093FB068091FB06811118C0E11016C0AC
:101DE00080910207811112C0FFEFFF120FC080E83F
:101DF00080930207809300078093FD068093FF067F
:101E00008093FE068093FC068093FB0610924103AC
:101E100060960FB6F894DEBF0FBECDBFDF91CF91B5
:101E20001F910F91FF90EF90DF90CF90BF90AF90F8
:101E30009F90089560933E03882349F091E090932A
:101E4000430396E090937D0180933F0308951092A1
:101E5000430384E080937D0110923F0308950C9426
:101E60001A0F81E080934203809341030E94600D2A
:101E700080914103811103C080914003089580E067
:101E8000089581E791E0089508950895089586B131
:101E90001D9B02C0806408958F7B0895EF92FF928E
:101EA0000F931F93CF93DF93EC01409A80E58A95BF
:101EB000F1F70E94470FE82E409880E48A95F1F7E9
:101EC0000E94470FF82E409A80E58A95F1F74098D6
:101ED00080E48A95F1F7409A80E58A95F1F7409879
:101EE00080E48A95F1F70E94470F182F409A80E40A
:101EF0008A95F1F70E94470F082F409880E58A9550
:101F0000F1F70E94470F409AE094E882F094F9823A
:101F100000950A83912F90959C839D8380958E8355
:101F2000DF91CF911F910F91FF90EF90089540980E
:101F300088E28A95F1F7419A98E29A95F1F786B18D
:101F4000419898E29A95F1F726B1409A2C7394E063
:101F5000299F900111248C7386958695822B8095FC
:101F600008958AB188618AB95C985B9A84B18F7C44
:101F700084B985B1806385B9389A409A87B1817CEC
:101F800087B988B18F6388B987EB9BE00197F1F738
:101F900000C000000895CF93DF93CDB7DEB7289738
:101FA0000FB6F894DEBF0FBECDBF8091C6038B3352
:101FB00079F4309905C08091F80682608093F80624
:101FC000319930C18091F80681608093F8062AC16A
:101FD000873009F050C091E01D9B05C09F5F9E3F78
:101FE000D9F781E004C081E0913009F080E091E010
:101FF0001D9B04C036B1913029F403C09F5F9E3F02
:10200000B9F78F5F91E01D9B04C09F5F9E3FD9F79A
:1020100002C0913019F4823009F4BFC086B131FD9D
:1020200005C02091F80621602093F80686958E71F0
:10203000082E01FA87F902FA86F903FA85F905FAFA
:1020400083F906FA82F907FA81F9932F96959E7122
:10205000092E01FA97F902FA96F903FA95F905FAA9
:1020600093F906FA92F907FA91F982958F70892B04
:1020700080930207D7C0873111F08633B9F50E94EB
:10208000970F982F9F709F3079F496E39093C60333
:1020900020E028272F73282784FB23F985FB22F9CA
:1020A0002093F8060E94970F2091F80690E084FB99
:1020B00095F985FB94F986FB90F987FB91F9922BB2
:1020C0009093F80690E080FB94F981FB93F982FBF2
:1020D00095F983FB92F99093030786B1813009F457
:1020E000A1C086B1813409F058C09CC0883109F084
:1020F00044C0409A14B8539A5B9A88B18FEF88B95C
:10210000399887EB9BE00197F1F700C0000086B19A
:1021100080958C7390E082FB95F983FB94F984FBA6
:1021200093F985FB92F99093030788E0E7E2F2E0E8
:10213000DE01119601900D928A95E1F7399A419846
:102140005B98FE013896CE01419A419824E02A9589
:10215000F1F71D9906C020813091F806232B2093BA
:10216000F8063197E817F90779F7419A419884E022
:102170008A95F1F71D9B56C010C08451823008F03B
:1021800051C08AB188618AB95C985B9ACE01019688
:102190000E944E0F9A81913821F481E08093B4031C
:1021A00041C08981282F220F211D2877022E01FA94
:1021B00027F902FA26F903FA25F905FA23F906FAAE
:1021C00022F907FA21F9209303072F8125FF03C085
:1021D00024E02093FA0620E081FB21F986FB27F911
:1021E000822F95959172892B8093F8069091C60362
:1021F000953171F49B8120E092FB24F993FB22F945
:1022000094FB23F995FB26F9922F982B9093F806CF
:102210008D818D3811F484E103C08D3B19F485E183
:102220008093C60328960FB6F894DEBF0FBECDBFCD
:10223000DF91CF910895CF93DF9300D000D01F920C
:10224000CDB7DEB781E01D9B04C08F5F8E3FD9F70D
:1022500005C08DEF1D9934C08150E1F786B18334FC
:1022600029F483E088B987B987E12DC0CE010196B2
:102270000E944E0F8A818D3829F48D818D3811F19D
:102280008D3B01F15B9887EB9BE00197F1F700C074
:102290000000539A399A419814B813B89CE080E032
:1022A000419A419824E02A95F1F71D9B8F5F915048
:1022B000B9F78350893010F488E105C080E003C08D
:1022C00087E001C085E10F900F900F900F900F9065
:1022D000DF91CF9108958EE791E0089508950895D4
:1022E00008951092960110924403109247031092A1
:1022F0004803109245038AB188618AB95C985B9A59
:102300003A9A4298089587B190914B03892B87B9E7
:1023100087B190914C03892B87B990914A03292F5B
:10232000209580914D03822380934D0380914E032D
:10233000892B80934E0388B190914C03892B88B9E7
:1023400098B180914B038095892388B9089581E0E5
:1023500080934C0382E080934B0380E280934A0396
:1023600083B18093490385B180934E0384B18093F8
:102370004D033C9A449A3D9A45980E94831180915E
:10238000C903811103C0A8950E94FA028DEE92E064
:102390000197F1F700C000008091C903811103C0CB
:1023A000A8950E94FA028DEE92E00197F1F700C025
:1023B00000008091C903811103C0A8950E94FA0210
:1023C0008DEE92E00197F1F700C000008091C90303
:1023D000811103C0A8950E94FA028DEE92E0019748
:1023E000F1F700C0000087B185B115B887EB9BE01D
:1023F0000197F1F700C0000085B18FEF85B920E1AA
:1024000080E038B190914C039095932398B998E06F
:102410009A95F1F798B130914C03932B98B998E0C5
:102420009A95F1F793B130914A03932309F08F5FA6
:10243000215039F7982F9D7F9C3021F481E08093C3
:10244000480307C0813029F0823029F481E080936D
:10245000470389E10895843089F3873009F441C145
:102460003C98449A3D98459A80E280934C0380E1E1
:1024700080934B0388E080934A0386B1809349039D
:1024800088B180934E0387B180934D030E948311DE
:10249000449A90E020E038B180914C0380958323EA
:1024A00088B986B130914A03832319F491310CF035
:1024B0002F5F88B130914C03832B88B99F5F903296
:1024C00051F7243021F48AE18093C603089598B12E
:1024D00080914B038095892388B988B190914B03F3
:1024E000892B88B980E38A95F1F798B180914B03E5
:1024F0008095892388B988B1836088B987B18C7F3A
:1025000087B987EB9BE00197F1F700C0000030E24C
:1025100020E080E096B140914A03942309F48F5F54
:1025200030992F5F48B190914C039095942398B9BE
:1025300098E19A95F1F798B140914C03942B98B992
:1025400098E19A95F1F7315029F796B1983219F43C
:10255000243009F4C8C021502F3128F481E0809341
:102560004A038EE10895883109F4BFC0803109F42F
:10257000BEC0813019F480934603B9C096B1993238
:1025800019F096B1993629F481E080934A038CE1E1
:102590000895813509F4ADC08D3009F4AAC08231A7
:1025A00009F4A7C088E080934C0382E080934A033B
:1025B00086B18093490388B180934E0387B180939D
:1025C0004D030E948311539A5B983D9A459A97B1A7
:1025D00080914A038095892387B988B190914A03F5
:1025E000892B88B93C98449A259A2D98209A389A34
:1025F0008091C903811103C0A8950E94FA028DEE53
:1026000092E00197F1F700C000008091C9038111A9
:1026100003C0A8950E94FA028DEE92E00197F1F7AF
:1026200000C000008091C903811103C0A8950E94D9
:10263000FA028DEE92E00197F1F700C00000809160
:10264000C903811103C0A8950E94FA028DEE92E0A1
:102650000197F1F700C0000087B185B115B887EB8D
:102660009BE00197F1F700C0000085B18FEF85B9BD
:102670002D9A409A90E39A95F1F72D98409830E280
:1026800020E090E086B140914A03842309F49F5FE3
:10269000349B2F5F48B180914C038095842388B987
:1026A000289888E18A95F1F788B140914C03842BF2
:1026B00088B9289A88E18A95F1F7315019F788EF9F
:1026C000890F823020F481E08093460314C0983152
:1026D00091F021502F3188F480E180934A0385E303
:1026E000089585E2089584E2089581E108958BE1DB
:1026F00008958DE1089584E3089580E00895809120
:10270000C6038C31E1F487B1836087B924E02A9550
:10271000F1F7419A87B18C7F87B900C0309905C025
:102720008091F80681608093F806319B2AC48091DD
:10273000F80682608093F80610924403089585326B
:1027400019F0893109F0B8C18FEF80934903809166
:102750004803882311F198B180914C038095892317
:1027600088B938E03A95F1F788B190914C03892BFC
:1027700088B958E05A95F1F798B180914C0380954B
:10278000892388B988E08A95F1F788B190914C0344
:10279000892B88B998E09A95F1F7809147038823AF
:1027A00089F098B180914C038095892388B928E0FD
:1027B0002A95F1F788B190914C03892B88B938E0BC
:1027C0003A95F1F728E091E0990F38B180914C03E8
:1027D0008095832388B958E05A95F1F783B13091F9
:1027E0004A03832309F0916088B130914C03832B15
:1027F00088B988E08A95F1F7215031F738E081E017
:10280000880F48B120914C032095242328B928E053
:102810002A95F1F723B140914A03242309F08160FE
:1028200028B140914C03242B28B958E05A95F1F770
:10283000315031F78F3F21F4209196012111A9C227
:1028400021E0209396012091C603253209F00FC1A3
:1028500098E028B180914C038095822388B98CE060
:102860008A95F1F783B188B120914C03822B88B906
:1028700028E02A95F1F7915061F798E041E0440F84
:1028800028B180914C038095822388B938E03A952D
:10289000F1F783B120914A03822309F0416088B1A6
:1028A00020914C03822B88B958E05A95F1F791504A
:1028B00031F798B180914C038095892388B988E0DD
:1028C0008A95F1F788B190914C03892B88B998E0EB
:1028D0009A95F1F798B180914C038095892388B936
:1028E00028E02A95F1F788B190914C03892B88B99B
:1028F00038E03A95F1F798E031E0330F28B1809154
:102900004C038095822388B958E05A95F1F783B13A
:1029100020914A03822309F0316088B120914C0351
:10292000822B88B988E08A95F1F7915031F798E0C9
:1029300021E0220F58B180914C038095852388B9FE
:1029400058E05A95F1F783B150914A03852309F075
:10295000216088B150914C03852B88B988E08A9515
:10296000F1F7915031F798B180914C03809589230C
:1029700088B998E09A95F1F788B190914C03892B2A
:1029800088B958E05A95F1F798B180914C03809539
:10299000892388B988E08A95F1F788B190914C0332
:1029A000892B88B998E09A95F1F758E091E0990F52
:1029B00068B180914C038095862388B988E08A9518
:1029C000F1F783B160914A03862309F0916088B1E1
:1029D00060914C03862B88B988E08A95F1F75150B5
:1029E00031F768E081E0880F78B150914C03509541
:1029F000572358B958E05A95F1F753B170914A03EB
:102A0000572309F0816058B170914C03572B58B986
:102A100058E05A95F1F7615031F74093FB06309337
:102A2000FC062195220F220F22502093010720E05F
:102A300080FB27F981FB26F982FB24F983FB25F92A
:102A400030E038273F7C382786FB33F987FB32F9A3
:102A50003093030750E05927557F592790FB52F9CF
:102A600092FB50F9952F922B9093F80687C22091F4
:102A7000F806322F82FB30F983FB31F93093F906E7
:102A800030E091FB34F992FB35F993FB32F994FB7A
:102A900033F93093030790FF03C021602093F806B9
:102AA0009091F80698279F7C982786FB97F987FBDB
:102AB00091F99093F80662C293EE980F923058F015
:102AC0008B3149F0813139F09CEC980F923018F03D
:102AD000843209F0CAC198B180914A038095892354
:102AE00088B98091C6038453823060F4259A2D9A68
:102AF0008CE28A95F1F72D98389A409A9CE29A9543
:102B0000F1F7409888B190914B03892B88B920E365
:102B10002A95F1F798B180914B038095892388B964
:102B20008091C6038E3111F0843271F488B18360D4
:102B300088B987B18C7F87B968E040E020E050E039
:102B400030E090E071E016C08533B1F7449A3C98CC
:102B5000F3CF853391F5289888E18A95F1F7289A83
:102B600088E18A95F1F78091C6038433C1F1615001
:102B700009F444C0990F220F440F330F8091C6030C
:102B8000843311F08D3129F488B1E0914A038E2B02
:102B900088B986B1E0914A038E2311F491603160C7
:102BA0008091C6038432A9F686B181708727282BCD
:102BB00086B1869581708727482BE8B180914C03B8
:102BC00080958E2388B988E18A95F1F788B1E091E4
:102BD0004C038E2B88B982E18A95F1F7C4CF58B1A6
:102BE00080914A038095852388B986B150914A0324
:102BF000852351E009F0BBCF50E0B9CF8091C603E7
:102C0000843249F5211103C081E08093B40390E040
:102C100040FB96F943FB95F945FB94F946FB90F987
:102C200047FB91F980E024FB87F926FB82F927FB1B
:102C300083F9892B8093F90690E025FB93F930E026
:102C400041FB32F942FB31F944FB30F9432F492B68
:102C50004093FA0608959F3F31F48B3109F499C0EF
:102C6000813109F496C0511194C08E3111F0853331
:102C700029F590E89093FC069093FB06909145030C
:102C800094361CF49F5F90934503909145039436CE
:102C900019F4332309F47DC0853321F4399858E2BF
:102CA0005A95F1F7319B03C01092F80603C081E0FA
:102CB0008093F806309530930207089520E090FB4A
:102CC00025F991FB24F992FB23F993FB22F9209338
:102CD00003072091F90630E022FB35F923FB34F994
:102CE00024FB33F925FB32F93093F90620E094FBFD
:102CF00025F995FB24F996FB20F997FB21F9209300
:102D0000F806813109F43DC120914603843319F45A
:102D1000222309F436C1211102C068E001C068E134
:102D200030E040E020E080E0383014F4880F07C045
:102D300058EF530F583010F4220F01C0440F56B112
:102D400070914A03572359F4383014F4816007C056
:102D500058EF530F583010F4216001C0416078B132
:102D600050914C035095572358B958E15A95F1F7B3
:102D700058B170914C03572B58B958E15A95F1F757
:102D80003F5F36178CF23091C603811106C03D318A
:102D900021F481E08093B40308953D3111F520E0E2
:102DA00094FB25F995FB24F996FB22F997FB23F96F
:102DB000922F20E082FB21F983FB20F984FB27F985
:102DC00085FB26F9292B2093F8069091F90630E02F
:102DD00086FB30F987FB31F9832F892B8093F90625
:102DE000CDC03B31B1F450E094FB55F995FB54F95B
:102DF00096FB52F997FB50F9952F50E084FB57F959
:102E000085FB56F986FB53F987FB51F9592B5093F3
:102E1000F80690914603992309F4B0C0343311F0B9
:102E2000822F242F880F811D082E01FA87F902FABC
:102E300086F903FA85F905FA83F906FA82F907FAA1
:102E400081F98093F906220F211D022E01FA26F93D
:102E500002FA27F903FA25F905FA23F906FA22F905
:102E600007FA21F92093FA0689C08A3109F086C051
:102E700088B190914B03892B88B928E09091F8068E
:102E8000990F9093F80638B180914C038095832375
:102E900088B986B130914A03832319F491609093E5
:102EA000F80688B190914C03892B88B9215031F7ED
:102EB0008091F806880F811D880F811D082E02FA67
:102EC00085F903FA84F904FA83F905FA82F9809303
:102ED000F80682E090E021E030E058B140914C03E8
:102EE0004095452348B946B150914A03452359F4CA
:102EF00060910307A901082E01C0440F0A94EAF764
:102F0000642B6093030748B150914C03452B48B99B
:102F100001968630910509F78091030790E082FBC6
:102F200092F983FB95F984FB93F985FB94F99093CF
:102F3000030780E298B120914C03922798B9815001
:102F4000C9F798B180914C038095892388B9809105
:102F50009601882341F086B190914A03892319F0A4
:102F600081E08093B40388B190914C03892B88B998
:102F700098B180914B038095892388B981E0809333
:102F8000960108958AE891E00895089508950895B6
:102F900083E087B98FE388B9089588B1836088B9E1
:102FA0008CE18A95F1F726B1269526952F704198E8
:102FB0008CE18A95F1F796B1969596959F708CE382
:102FC00088B98CE18A95F1F786B1869586958F70E0
:102FD000233019F49F3049F40CC0263031F4963078
:102FE00021F48F3011F488E008958830E1F380E017
:102FF000089583E00895CF938091C6038A33C1F486
:1030000086B1809583FF05C09091F80691609093FA
:10301000F80681FF05C09091F80692609093F8063B
:1030200080FF49C18091F80680628093F80643C111
:1030300088B1836088B93CE13A95F1F786B186950D
:1030400086958695A6B141989CE19A95F1F78730CF
:1030500021F481E08093B4032EC1813009F03EC099
:10306000A695A695A827A17086B1809530E082FB31
:1030700035F983FB34F984FB33F985FB32F930935E
:10308000030788B193E0892788B98CE18A95F1F725
:1030900086B1809590E082FB95F983FB90F984FBE3
:1030A00097F985FB91F988B18C7F88B93CE13A9515
:1030B000F1F7B6B1B09580E0B3FB82F9B4FB83F9C8
:1030C000B5FB86F9B82FB92B329BA26088B18C7FF3
:1030D00088B980E820E840E860E8E1C08CE388B97E
:1030E0009CE19A95F1F738E23A95F1F7409A8CE134
:1030F0008A95F1F7C6B190E0C2FB93F9C3FB92F950
:10310000C4FB91F9C5FB90F9C92FCC0FF0E0E0E0CA
:1031100080E820E840E860E8A0E0B0E0FC170CF0B0
:10312000B8C034E23A95F1F7409B04C098B19C7363
:1031300098B901C0409A94E29A95F1F7F1110EC046
:1031400096B1909530E092FB35F993FB34F994FBFE
:1031500033F995FB32F93093030799C0F13061F4EC
:1031600096B1909530E092FB35F993FB30F994FBE2
:1031700037F995FB31F90DC0F23069F4329BA2604A
:1031800096B1909530E093FB32F994FB33F995FBBF
:1031900036F9B32B7CC0F33031F4329BA1609CE054
:1031A0009A95F1F774C0F43009F454C0F530C1F4C5
:1031B00066B16695669530E1639FB00111246E2B70
:1031C000660F611D062E01FA67F902FA66F903FA25
:1031D00065F905FA63F906FA62F907FA61F957C069
:1031E000F630C1F1F730C1F446B14695469590E10D
:1031F000499FA00111244E2B440F411D042E01FABA
:1032000047F902FA46F903FA45F905FA43F906FACD
:1032100042F907FA41F93BC0F830E1F0F930C1F466
:1032200026B12695269590E1299F900111242E2BF9
:10323000220F211D022E01FA27F902FA26F903FABC
:1032400025F905FA23F906FA22F907FA21F91FC030
:10325000FA3021F4E6B1E695E69519C0FB30B9F4F1
:1032600086B18695869530E1839FC00111248E2B0F
:10327000880F811D082E01FA87F902FA86F903FAF0
:1032800085F905FA83F906FA82F907FA81F9FF5FF1
:1032900045CF98B1936098B99CE19A95F1F7609306
:1032A000FB064093FC068093FD0620930007B09335
:1032B000F806A093F906CF91089587E991E0089563
:1032C00008950895089581E080937C0083E88093B9
:1032D0007A0017B88FEF88B914B885B90895DF92CE
:1032E000EF92FF920F931F93CF93DF93D82EFB01A2
:1032F000D701E90198818095982398839C91982320
:103300009C93DA019C9191609C9390819E7F908325
:10331000CFE6D7E12197F1F700C0000090819160DE
:10332000908380E0F80190819D2119F48F5F8E3F9A
:10333000C9F7DF91CF911F910F91FF90EF90DF9030
:103340000895EF92FF920F931F93CF938AB18861F4
:103350008AB95C985B9A83B18E3309F48BC083B1D0
:103360008B3309F489C025982D9A5B9887EB9BE0F5
:103370000197F1F700C0000083B18F3121F486B1CD
:103380008F3709F47BC053982598389A409887EB7B
:103390009BE00197F1F700C000004B9902C01D9B14
:1033A00063C017B88FEF88B914B885B924E2E22E4C
:1033B000F12C03E210E025E230E047E250E068E261
:1033C00070E080E20E946F19C82F3AE2E32EF12CE0
:1033D00009E210E02BE230E047E250E068E270E002
:1033E00088E00E946F19C350CA3F18F483508A3F87
:1033F000E8F1209A289887E293E20197F1F700C05C
:1034000000001C9B35C094E2E92EF12C03E210E091
:1034100025E230E044E250E065E270E088E00E949E
:103420006F1990E00B978F3E910510F486E027C04E
:1034300084E2E82EF12C03E210E025E230E044E2E1
:1034400050E065E270E088E00E946F1990E00B9711
:103450008F3E910558F3549A5C98389A409A539845
:103460001092C60380E00BC08BE209C089E207C05E
:1034700081E305C089E303C088E301C084E0CF9104
:103480001F910F91FF90EF900895EF92FF920F938D
:103490001F9317B88FEF88B914B885B98091C60308
:1034A000811105C0549A5C98389A409A539880913B
:1034B000C603877F813329F48AB188618AB95C9811
:1034C0005B9A87EB9BE00197F1F700C0000096B193
:1034D00023B190958091C6038A32E1F5549A5C98A5
:1034E00053985B9A91FF05C0809103078460809395
:1034F000030794FF05C0809103078860809303074A
:1035000093FF05C08091030780618093030792FFBA
:1035100005C0809103078062809303078091F806BD
:103520004B9B02C08E7F01C081608093F806E4E26D
:10353000EE2EF12C03E210E025E230E047E250E00D
:1035400068E270E080E20E946F19880F880F98ECA3
:10355000981BBAC48C32B9F58AB1877E8AB98BB10F
:1035600088618BB93C9A449887EB9BE00197F1F70F
:1035700000C0000080E88093FC068093FB064B9916
:1035800005C080910307846080930307329905C0CA
:103590008091F80681608093F806309905C080918B
:1035A0000307806180930307319905C08091030769
:1035B0008062809303071D9999C4809103078860F6
:1035C0008093030793C48B3209F086C0389A409ADF
:1035D00087B1837C87B988B1837C88B98AB1877EBB
:1035E0008AB93D9A87EB9BE00197F1F700C0000094
:1035F0004B9905C08091F90681608093F9061D9969
:1036000005C08091F90682608093F906319905C062
:103610008091F90684608093F9063D9887E592E0F1
:103620000197F1F700C000003C9A87EB9BE00197FF
:10363000F1F700C000004B9905C08091F906886041
:103640008093F9061D9905C08091F90680618093E9
:10365000F906319905C08091F90680628093F906D8
:103660003C983B9A87EB9BE00197F1F700C0000084
:103670004B9905C08091F90680648093F9061D99E5
:1036800005C08091F90680688093F906319905C0DC
:103690008091FA0681608093FA063B983A9A8FE609
:1036A00097E10197F1F700C000004B9905C08091A8
:1036B000FA0682608093FA061D9905C08091FA0689
:1036C00084608093FA06319905C08091FA0688607B
:1036D0008093FA063A980AC4863009F0FDC03E98F5
:1036E000259A2D9A3D9A4598209A289A2B98239AA4
:1036F0008FE697E10197F1F700C00000239880E082
:103700001B9903C08F5F8E3FD9F790E0880F991FF8
:103710008F3F910519F010F08FEF90E08093FC0639
:1037200046983E9A8FE697E10197F1F700C00000B6
:103730003E9880E0369903C08F5F8E3FD9F790E0C6
:10374000880F991F8F3F910519F010F08FEF90E0CF
:10375000982F8093FB06369909C08091FC068F3F15
:1037600029F49F3F19F481E08093B4030000000026
:10377000000000000000000017B814B88FEF85B9F2
:1037800088B98AB1877E8AB98BB188618BB93B9A37
:1037900043983B980000000000000000000000007B
:1037A000339B05C08091F80681608093F806399AB2
:1037B000419839980000000000000000000000005F
:1037C000319B05C08091F80682608093F8063C9A90
:1037D000449894E19A95F1F7199905C08091F906FA
:1037E00082608093F9061A9905C08091F90681607C
:1037F0008093F9061C9905C08091F806806180933A
:10380000F8064C9905C08091F90684608093F9060A
:103810003C98449A3A9A429824E12A95F1F71999EA
:1038200005C08091F90680618093F9061A9905C058
:103830008091F90688608093F9061C9905C08091F3
:10384000F80680628093F8064C9905C08091F906CD
:1038500080628093F9063A98429A389A409884E1B7
:103860008A95F1F7199905C08091F90680688093CF
:10387000F9061A9905C08091F90680648093F906CB
:103880001C9905C08091F80684608093F8064C99D5
:1038900005C08091FA0681608093FA063898409AB4
:1038A000539A5B9894E19A95F1F7199905C0809124
:1038B000FA0682608093FA061A9905C08091FA068A
:1038C00088608093FA064C9905C08091FA0684605E
:1038D0008093FA0653987FC24091030730E092FB31
:1038E00035F993FB34F994FB33F995FB32F9342B1A
:1038F00030930307843009F5549A5C98389A409ABB
:103900005398539A5B9828E22A95F1F726B12095AF
:103910005B9A88E28A95F1F796B19095892F822774
:103920003091F806832B922396959170892B809382
:10393000F8061D9BDBC2816018C2803309F0BDC050
:1039400017B89FEF98B98AB1877E8AB98BB1886121
:103950008BB984B184B985B195B988E087B987EF0F
:1039600088B998E29A95F1F7309905C080910307DC
:10397000806280930307319905C0809103078061BD
:10398000809303074B9905C080910307886080935B
:10399000030780E187B98FEE88B928E22A95F1F70D
:1039A000339905C08091030784608093030780E109
:1039B00087B98FEE88B988E28A95F1F7359905C005
:1039C0008091F80681608093F8064C9905C080913B
:1039D000F80682608093F80682E087B98DEF88B997
:1039E00098E29A95F1F7359905C08091FA068460BE
:1039F0008093FA064C9905C08091F90680688093FF
:103A0000F906329905C08091F90680618093F90624
:103A10001D9905C08091F90682608093F90681E0C6
:103A200087B98EEF88B928E22A95F1F7359905C054
:103A30008091FA0688608093FA064C9905C08091BF
:103A4000FA0681608093FA06329905C08091F906E2
:103A500080628093F9061D9905C08091F906846003
:103A60008093F90617B88FEF88B9539A5B9888E26C
:103A70008A95F1F7359905C08091FA0682608093A6
:103A8000FA064C9905C08091F90680648093F90686
:103A9000329905C08091F90688608093F9061D99D6
:103AA00005C08091F90681608093F9068AB1877E0E
:103AB0008AB98BB188618BB919C2813019F0823211
:103AC00009F0A8C08AB188618AB9319905C080918E
:103AD000F80681608093F80680EC87B98FE388B997
:103AE0005B985C9A90E29A95F1F7319905C08091C4
:103AF000F80682608093F80656B15695569521E0F7
:103B000030E0052E02C0220F331F0A94E2F740E096
:103B100080E090E0541302C0822B932B4F5F4F3014
:103B2000C9F72091F806382F80E032FB82F934FB88
:103B300083F9822B8093F8068091F90620E031FB0F
:103B400023F936FB22F937FB25F9282B892F90E042
:103B500080FB97F981FB94F984FB96F985FB91F939
:103B600086FB90F9292B2093F9069091FA0620E024
:103B700082FB21F983FB20F9822F892B90E033FB14
:103B800092F935FB93F9892B8093FA065C985B9A3E
:103B90008091C603813009F4A9C13898409A2598CC
:103BA0002D9A24E02A95F1F79091500390934F03BA
:103BB00086B180958170809350031D9902C022E0E8
:103BC00001C020E0822B80935003981709F48EC126
:103BD000933079F4813021F48091FD06815F06C035
:103BE000823009F083C18091FD068A508093FD06E2
:103BF0007DC1913031F4823079F3833009F076C1A0
:103C0000F2CF923009F072C1833031F3813009F084
:103C10006DC1E9CF91FF05C03091F8063160309356
:103C2000F8062095813351F425FF05C08091F806F0
:103C300084608093F80690FFD0C010C0811114C03A
:103C40003898409A8AB188618AB95C985B9A88E210
:103C50008A95F1F7309B02C025FFBFC08091F8061E
:103C600082608093F806B9C025FF05C03091F80640
:103C700032603093F80690FF05C09091F80694608A
:103C80009093F8068853823008F0A7C088B18FEF70
:103C900088B985B91092F8061092F906309903C0D8
:103CA00084E08093F806319905C08091F806816020
:103CB0008093F8061C9905C08091F806886080936F
:103CC000F8061D9905C08091F80682608093F80679
:103CD0008091C603883309F04BC01092F8063199E1
:103CE00003C081E08093F9061D9905C08091F90613
:103CF00082608093F906309903C084E08093F806CF
:103D0000369905C08091F80682608093F80619996B
:103D100005C08091F80680618093F806189905C067
:103D20008091F80680648093F8061A9905C0809106
:103D3000F80680628093F8061C9905C08091F80609
:103D400081608093F8068AB1877E8AB98BB18861D9
:103D50008BB94B9905C08091F80688608093F8066E
:103D60004C99C4C08091F80680688093F806BEC064
:103D70008091F806982F81FF02C0946001C09B7F5C
:103D80009093F8069091F80682FF02C0926001C0FD
:103D90009D7F9093F806369905C08091F80680645F
:103DA0008093F806199905C08091F8068068809381
:103DB000F8061A9905C08091F80680618093F8068C
:103DC0001B9905C08091F80680628093F8068AB13D
:103DD00088618AB95C985B9A89C020FF05C0809190
:103DE000F80688608093F80621FF05C08091F806E8
:103DF00080648093F80622FF05C08091F8068061F8
:103E00008093F80623FF05C08091F80680628093B6
:103E1000F8068091C603813309F459C024FF09C014
:103E20008091F80680688093F80603C014B88FEF7D
:103E300085B98091C603893209F058C054E2E52E55
:103E4000F12C03E210E025E230E047E250E068E2C6
:103E500070E080E20E946F1980959091520398174C
:103E600018F4282F291B02C0292F281B833048F063
:103E700030E0233031052CF080930107809352030A
:103E800002C0909301074AE2E42EF12C09E210E00F
:103E90002BE230E047E250E068E270E088E00E9408
:103EA0006F19809590915103981718F4282F291BAA
:103EB00002C0292F281B30E0233031052CF08093DD
:103EC00002078093510312C0909302070FC0189B02
:103ED0000DC0209A289887EB9BE00197F1F700C06E
:103EE00000001C9BA3CF81E08093B4031F910F912E
:103EF000FF90EF90089583EA91E008950895089562
:103F0000089517B88FE388B914B88FEF85B908956D
:103F100087B1836087B918B884E08A95F1F787B1D3
:103F20008C7F87B984E08A95F1F786B183708330FE
:103F300011F48BE0089580E00895E9E0F8E080E076
:103F400090E040E250E09A01082E02C03595279596
:103F50000A94E2F768B1A22FA0956A2368B967B105
:103F6000622B67B964E06A95F1F776B1737070837C
:103F700063B168736695672B6083189B02C06062AB
:103F8000608338B1322B38B927B12A2327B901967B
:103F9000319684309105B9F630910908832F8370EA
:103FA00019F481E08093B403309590E030FB94F9EC
:103FB00040910A08842F80958170982B80910B087E
:103FC000809520E080FB21F9922B20910C08522F44
:103FD000509560E050FB67F951FB65F9962B909383
:103FE000F80650E033FB55F934FB52F9409590E068
:103FF00042FB97F943FB94F944FB91F9952B50E070
:1040000082FB56F983FB53F984FB50F9952B90936F
:10401000F90690E032FB90F950E085FB51F9852FCD
:10402000892B60E035FB63F9862B90E045FB92F924
:10403000892B8093FA0624FD04C0809103078062D7
:1040400005C023FD05C080910307806180930307AD
:1040500022FD04C080910307886005C025FD05C0CE
:104060008091030784608093030708958FEA91E0AD
:10407000089508950895089588B1806388B90895D2
:104080008091BC0087FFFCCF8091B900887F0895A4
:104090009F92AF92BF92CF92DF92EF92FF920F93D7
:1040A0001F93CF93DF93B82E6B01942EA52E790129
:1040B0006115710561F42115310509F477C084EAB1
:1040C0008093BC000E944020803189F532C084EA90
:1040D0008093BC000E944020883009F06AC08B2D7C
:1040E000880F8093BB0084E88093BC000E9440202E
:1040F000883109F047C0C92DDA2DCC0EDD1E24E829
:10410000A22ECC15DD0559F089918093BB00A092B9
:10411000BC000E9440208832A1F323E038C0E114A3
:10412000F10469F684E98093BC0080E043C08830E4
:1041300059F58B2D880F81608093BB0084E88093B4
:10414000BC000E944020803409F5E701219784E8F3
:10415000F82E94ECE92ECF3FFFEFDF0719F32097FD
:1041600019F0E092BC0002C0F092BC000E94402016
:104170002197877F8035B1F68091BB00F80181934C
:104180008F01E9CF22E003C024E001C025E090E0E8
:10419000803A31F0883F81F0883321F484E803C00D
:1041A00084EA01C084E98093BC0006C08FEF9FEFD2
:1041B00004C081E090E001C0822FDF91CF911F9178
:1041C0000F91FF90EF90DF90CF90BF90AF909F90B6
:1041D0000895AF92BF92CF92DF92EF920F931F9309
:1041E000CF93DF931F92CDB7DEB789835B016A015E
:1041F000E12C00E010E020E030E0AE014F5F5F4FC7
:1042000061E070E082E50E944820811117C08FEACA
:1042100094E00197F1F700C000008501960140E0AD
:1042200050E060E070E082E50E944820811106C005
:10423000EFEAF4E03197F1F700C000000F90DF9152
:10424000CF911F910F91EF90DF90CF90BF90AF90E3
:104250000895EF920F931F93CF93DF93CDB7DEB7FF
:1042600060970FB6F894DEBF0FBECDBF84E3809396
:10427000B8008091B9008C7F8093B90010915403ED
:1042800011113FC080EF898385E58A83E12C00E02E
:1042900010E020E030E0AE014F5F5F4F62E070E081
:1042A00082E50E944820EFEAF4E03197F1F700C080
:1042B0000000811137C18BEF89831A8220E030E042
:1042C000AE014F5F5F4F62E070E082E50E944820E0
:1042D000EFEAF4E03197F1F700C00000811122C14C
:1042E00042E050E0BE016F5F7F4F8EEF0E94E920F9
:1042F000811118C18A818093C70181E080935403A2
:1043000011C1113009F0EEC046E050E0BE016F5F10
:104310007F4F80E00E94E920882361F08091530361
:10432000811102C01093B40380EF8093C7011092F3
:104330005403F8C0109253038091C701853009F4EB
:10434000F1C030F4813009F44CC0833039F449C0F5
:10435000813109F446C0803F09F4E4C0E9817A81E3
:104360007095FE818B8124E0829FC00111248A5FB9
:1043700091092F2F2C7030E035952795359527958D
:10438000822B932B96958795682F4C8184E0489FCC
:10439000A0011124CA018A5F91092F2F207330E0F8
:1043A000A4E035952795AA95E1F7822B932B969556
:1043B0008795282F4D8194E0499FA0011124CA01BF
:1043C0008A5F91093F2F3295369536953370832B4E
:1043D000969587959F2F90959170F1FD8CC0926076
:1043E0008AC06981E62FEE0FEE0F9A81F4E09F9F5D
:1043F00090011124722F70958B81907C92959695E7
:104400009770607C669566956695692B982F991FC5
:104410009927991F692B660F660F660F282F220FA9
:10442000220F220F2095AC813D81F32FF09590E073
:10443000F1FB97F9F2FB95F9F4FB94F9F5FB96F98A
:10444000F92F5E81452F409590E043FB93F944FBA3
:1044500091F945FB92F946FB90F99F2BF0E042FB66
:10446000F1F947FBF0F94F2F33FD05C0F091FA0643
:10447000F460F093FA0650FD05C0F0910307F46074
:10448000F093030737FD05C0F0910307F062F09346
:10449000030751FD05C05091030750615093030776
:1044A00036FD05C030910307386030930307E111F2
:1044B00006C07F3F21F420E860E870E8E0E8309132
:1044C000B30331111BC03A2F330F330F330F8076F4
:1044D00086958695A295A695A7708A2B880F880F3A
:1044E000880F0EC080E030E02FEF6FEF40E090E0EB
:1044F00070E8E0E805C030E040E002C080E030E075
:104500009093F8064093F906E093FB067093FC063F
:104510006093FE062093FF068093FD06309300070C
:104520001092BC0060960FB6F894DEBF0FBECDBFF0
:10453000DF91CF911F910F91EF90089588B18C7FFB
:1045400088B987B1836087B986B18033D8F081E0BC
:10455000809353030E9429211092BC008091C701CF
:10456000803F81F0882341F0813041F0833041F079
:10457000813141F487E308958DE008958FE1089536
:1045800080E2089580E008958BEB91E0089508950E
:104590001092B0038FE284B98FEF85B98FE78CBD9D
:1045A0001DBC8091E506811103C08DE08093E50676
:1045B0008091F406811103C08EE08093F40680910F
:1045C000B203811103C083E18093B2038091C303DE
:1045D000811103C084E18093C3030895843608F4F5
:1045E00084E680936D0360936B0308958FEF80934F
:1045F0006E0360936C0308958EBD0DB407FEFDCF6E
:104600008091C903811102C00E94FA028EB5EBE2CB
:10461000F1E03197F1F700C000000895CF93DF93E8
:10462000C3E083E00E94FC2229988BE291E001978D
:10463000F1F700C0000081E00E94FC2282E40E94A9
:10464000FC22D82F80E00E94FC2280E00E94FC2205
:1046500080E00E94FC22299A8BE291E00197F1F719
:1046600000C000008FEF8D0F8E3F48F481E00E9464
:10467000FC2281E0809355038093B00308C087EB50
:104680009BE00197F1F700C00000C15051F69CB5C6
:104690009F7B9CBD8091B003882311F08D2F01C0BA
:1046A00080E0DF91CF910895CF9329988BE291E03C
:1046B0000197F1F700C0000081E00E94FC2285E430
:1046C0000E94FC2280E00E94FC228AE50E94FC22DB
:1046D000C5E08AE50E94FC22C150D9F7299A8BE2F5
:1046E00091E00197F1F700C00000CF910895CF93BA
:1046F000C82F29988BE291E00197F1F700C00000E4
:1047000081E00E94FC2283E40E94FC2280E00E945F
:10471000FC228C2F0E94FC2280E00E94FC22CC23F1
:1047200049F0299A8BE291E00197F1F700C000006F
:10473000CF9108958AE50E94FC228AE50E94FC221E
:104740008AE50E94FC228AE50E94FC22EACFFF92C1
:104750000F931F93CF93DF93CDB7DEB7DA950FB6E4
:10476000F894DEBF0FBECDBF2B9A239A8CB5806420
:104770008CBD8BE291E00197F1F700C000008091C1
:10478000C0032998882309F440C0EBE2F1E0319797
:10479000F1F700C000008091F5068983F12C80912B
:1047A000F506F81688F40F2D10E0F801ED51FA4FD8
:1047B00080810E94FC22E2E0F0E0EC0FFD1FE00FA0
:1047C000F11F8083F394EBCF10E08091F50618176A
:1047D000A8F4812F90E0FC01ED51FA4FA1E0B0E088
:1047E000AC0FBD1FA80FB91F8C9180838091C903A6
:1047F000811102C00E94FA021F5FE7CF1092C0032E
:1048000081E08093C503299AE7C18BE291E001978B
:10481000F1F700C0000080916E03882381F0809141
:104820006C039FEF980F9E3F18F490936C0309C0A0
:104830008F3F39F010926C0310926E0302C01092F9
:104840006C0380916D03882381F080916B039FEF4F
:10485000980F9E3F18F490936B0309C08F3F39F077
:1048600010926B0310926D0302C010926B0381E0F3
:104870000E94FC2282E40E94FC228093570380E085
:104880000E94FC22182F80916E030E94FC228093CC
:10489000590380916D030E94FC2280935A038091FA
:1048A0005703833E19F48FE7809357038091570392
:1048B000833219F483E380935703112381F01A356F
:1048C00071F0299AEBE2F1E03197F1F700C00000B6
:1048D0001F3F09F47DC181E08093C50375C18091BC
:1048E00057039091C603891741F091E0813419F084
:1048F0009093550302C09093B3038093C603813411
:1049000031F481E080935C0380935B032CC0893792
:1049100069F40BE513E080E00E94FC22F80181932A
:104920008F01F3E00B361F07B1F71DC080E00E9436
:10493000FC2280935B0380E00E94FC2280935C0356
:1049400080E00E94FC2280935D038091C603833542
:1049500029F480E00E94FC22809503C080E00E9440
:10496000FC2280935E03299A80915503882309F4E1
:10497000B0C08CEF92E00197F1F700C000001092F8
:1049800055038091C603813409F45BC081E00E9425
:1049900077232998EBE2F1E03197F1F700C00000AE
:1049A00081E00E94FC228DE40E94FC2280E00E94B3
:1049B000FC2280E00E94FC2281E00E94FC228FEF1A
:1049C0000E94FC228FEF0E94FC228FEF0E94FC22AB
:1049D0008FEF0E94FC22299A8BE291E00197F1F778
:1049E00000C000002998EBE2F1E03197F1F700C038
:1049F000000081E00E94FC228FE40E94FC2280E003
:104A00000E94FC228FEF0E94FC228FEF0E94FC226A
:104A100083E00E94FC2280E00E94FC2280E00E9451
:104A2000FC2280E00E94FC22299A8BE291E001970F
:104A3000F1F700C000000E94542380E00E94772319
:104A400048C081E00E9477230E9454232998EBE21A
:104A5000F1E03197F1F700C0000081E00E94FC22F4
:104A600084E40E94FC2280E00E94FC2281E00E94FB
:104A7000FC2280E00E94FC2280E00E94FC2280E078
:104A80000E94FC2280E00E94FC2280E00E94FC2226
:104A9000299A8BE291E00197F1F700C0000080E0D5
:104AA0000E9477232998EBE2F1E03197F1F700C0FB
:104AB000000081E00E94FC2282E40E94FC22299AEC
:104AC000EBE2F1E03197F1F700C00000813409F02A
:104AD0005DCF90915A039095392F329580E08327CE
:104AE0008D73832730FB83F932FB80F933FB82F926
:104AF000382F80915903809520E080FB24F983FBB7
:104B000025F9232B2093F806937020E081FB26F9EA
:104B100082FB27F9292B2093F90690910307E0E007
:104B200084FBE2F985FBE5F986FBE3F987FBE4F911
:104B30008E2F892B8093030720915B0330915C03B8
:104B4000832F90E0820F911D0297F1F12093FE06D2
:104B50003093FF0680915D038093FB0680915E0396
:104B60008093FC06EFE5F3E0A6EEB6E081918D932D
:104B700023E0EB36F207D1F7E091E506E53131F0BD
:104B8000F0E0EA5AFC4F808180930107E091F4063F
:104B9000E53131F0F0E0EA5AFC4F80818093020762
:104BA000E091B203E53131F0F0E0EA5AFC4F808148
:104BB0008093FD06E091C303E53131F0F0E0EA5A5D
:104BC000FC4F8081809300078CB58F7B8CBD04C027
:104BD00081E08093B403F8CFD3950FB6F894DEBF8D
:104BE0000FBECDBFDF91CF911F910F91FF90089520
:104BF00088EC91E0089528E030E040E89FE26FE023
:104C00007FE3592F5095E42FE82398B9EE2319F04C
:104C100078B958B901C068B9952F46952150310926
:104C20002115310571F70895CF92DF92EF92FF922F
:104C30000F931F93CF93DF931F92CDB7DEB78C01F5
:104C4000F12CE12CF61684F46801CF0CD11CF7FC92
:104C5000DA94F601808169830E94FB25F601808148
:104C6000E826F3946981EECF8E2D0F90DF91CF91DE
:104C70001F910F91FF90EF90DF90CF9008958FE3F9
:104C800087B988B98FE188B988E020E198B1922787
:104C900098B98150D9F78FE388B908958FE387B920
:104CA00088B98FE288B984E020E298B1922798B958
:104CB0008150D9F78FE388B908950E943F2668E0B4
:104CC00088ED91E00E9414260E94FB250C944E264C
:104CD00080917103882311F080E1089580E00895A8
:104CE0006093720308956093720308951F93CF93A6
:104CF000DF93182FC42F4F3F19F0411101C0C1E0BD
:104D0000D62FD295D695D77009F4D1E0D295D07F21
:104D1000D068CF3F09F4C1E00E943F2682E00E94A4
:104D2000FB2580E00E94FB25812F0E94FB258EE061
:104D30000E94FB2580E00E94FB2581E00E94FB256C
:104D400080E00E94FB2580E00E94FB258C2F0E94C2
:104D5000FB2582E30E94FB258D2F0E94FB2580E12D
:104D60000E94FB258FE281278D278C270E94FB253F
:104D70000E944E2683E893E00197F1F700C00000FF
:104D8000DF91CF911F9108951092B80380E388B905
:104D90001092710381E08093700310926F030E9460
:104DA0003F2664E084ED91E00E9414260E94FB25DA
:104DB0000E944E2687EB9BE00197F1F700C00000B0
:104DC0008FEF87B90E945D268091C903811102C0CF
:104DD000E89801C078948FEC87B980E388B982E0C5
:104DE0008093680080E180936C008EEC90E00197E6
:104DF000F1F700C000001092680010926C008091E2
:104E0000C903811102C0E89A01C0F8948FEF87B9F5
:104E10008091B803882329F081E080937103809307
:104E2000C8038FEF87B910926C0008951092680044
:104E30001092B8038FEF87B98091C903811102C026
:104E4000E89801C078940E945D2680E388B98FECD1
:104E500087B982E08093680080E180936C008EECDB
:104E600090E00197F1F700C00000109268001092E6
:104E70006C0010926C008091C903811102C0E89A05
:104E800001C0F8942091B803211108C081E08093FB
:104E9000B40310926F038FEF87B908958FEF87B92E
:104EA0005091B6034091B7038091B903382F3095E4
:104EB00090E030FB97F931FB91F932FB90F933FB2D
:104EC00095F9392F922F909560E090FB66F991FB50
:104ED00063F992FB62F993FB64F9962F932B9093FD
:104EE000F80694FF03C033E23093C6033091C60343
:104EF000333251F42095322F329533703093F906C6
:104F0000207C292B2093F8062091F8065B3F10F0B7
:104F100090E401C090E0292B4B3F10F090E801C0D5
:104F200090E0922B9093F8068095859585958C73EB
:104F3000809303075093FD06409300078091BC03C4
:104F40008093FC068091BD038093FB0608950F9328
:104F50001F93CF93DF938091C0038823E1F00E94D9
:104F60003F266091F50683EE95E00E9414260E948C
:104F7000FB250E944E2640E051E061E070E083EEA8
:104F800095E00E94AD3580E48093E3058FEF809338
:104F9000E4051092C003809172038230A8F08F3F25
:104FA00019F081508093720380916F0380FF05C0D8
:104FB0004FEF6FEF81E00E94762680916F0381FFB3
:104FC00047C04FEF6FEF13C08130A9F41092720306
:104FD00080916F0380FF05C040E060E081E00E94A7
:104FE000762680916F0381FF33C040E060E082E06D
:104FF0000E9476262DC0C09170030E943F2680E05B
:105000000E94FB2580E00E94FB258C2F0E94FB253F
:1050100081E00E94FB2581E08C270E94FB250E94F5
:105020004E2680E388B98FEC87B994E286B180730D
:10503000803309F059C028E22A95F1F79150B1F771
:10504000C09580916F038C2380936F038FEF87B996
:105050008091C8038130C1F5809170038130A1F542
:1050600080916F0380FF30C08FE697E10197F1F7E1
:1050700000C000001092C8030E943F266CE080EE42
:1050800091E00E941426182FC0E0D0E0CE0123E06A
:10509000822780569F4F0E94B435082F0E94FB251F
:1050A00010272196C03CD10589F7812F0E94FB254E
:1050B0000E944E2680E388B98FEC87B987E592E09D
:1050C0000197F1F700C0000080917003813011F466
:1050D00082E001C081E0809370038FEF87B9DF9198
:1050E000CF911F910F9108959CE29A95F1F784E278
:1050F00096B19073903331F498E09A95F1F781501E
:10510000B9F7A4CF80916F03282F30E04C2F55279B
:1051100047FD5095242335232417350709F496CFEE
:10512000C82BC0936F038AE0809372038FCF8CEEFD
:1051300091E00895089510927503089560937503A2
:1051400090910402953069F0992359F0882321F059
:10515000933039F082E003C0913019F084E08093FD
:10516000040208950C949E28FF920F931F93CF93EF
:10517000DF93CDB7DEB7A6970FB6F894DEBF0FBEAC
:10518000CDBF0E94730C8091C0038E010F5F1F4F33
:10519000882309F44DC06091F506A3EEB5E0F8014F
:1051A0008E2F801B861718F48D918193F9CFC8013B
:1051B0000E94760C21E031E0E3EEF5E0DF01A90189
:1051C0001D9241505040E1F786958695869564EE94
:1051D00075E0FB0140E050E000E810E09E2F961BD8
:1051E0009817F0F4908120E030E0D901A40FB51FAA
:1051F000AB5FB84FAC91AA2341F0D801022E02C098
:10520000B595A7950A94E2F701C0A0E09A2B2F5F0D
:105210003F4F2830310549F79193485F5F4FDECF0C
:105220008093E3051092C00381E08093C5030AC117
:10523000198261E0C8010E94760C811108C080913A
:1052400073038111FFC081E08093B403FBC010920F
:10525000730310927403883111F01092040280914C
:105260001C07882331F080910402853011F41092DC
:10527000040280911C07811103C085E08093040221
:10528000809175038F3F69F0882321F081508093CE
:10529000750307C080910402833019F484E0809381
:1052A0000402809104028230E1F08430B9F181116E
:1052B0004CC083E0898380E88A8381E08B8342E26B
:1052C00050E060E870E0CE0104960E94AD3563E2E4
:1052D000C8010E94760C8823C1F184E08093040207
:1052E00034C083E0F82EF98280EC8A838BE18B83D3
:1052F00040E250E061E070E0CE0104960E94AD35DE
:1053000063E2C8010E94760C8111F09204028BE2E4
:1053100091E00197F1F700C0000017C083E0898396
:1053200080EC8A838BE18B83FE01349680E2DF017F
:105330001D928A95E9F763E2C8010E94760C8823E2
:1053400031F381E080930402E2CF81E0898361E060
:10535000C8010E94760C803209F074C03091F806C2
:105360002091F90680E090E0FC01EB5FF84F40816E
:10537000442351F0FC01E15CFD4F4081FC01E15D03
:10538000FD4F5081252B342B01968031910561F71B
:105390003093F8062093F90680910907882329F0B5
:1053A0008091030784608093030780910A07882314
:1053B00029F08091030788608093030780910C0790
:1053C000882329F0809103078062809303078091EE
:1053D0000B07882329F080910307806180930307DE
:1053E00080E090E0A0E0B0E020E830E0482FFC0151
:1053F000EB5EF84F5081552341F0B901082E02C0F1
:10540000759567950A94E2F701C060E0B62BFC0140
:10541000E35EF84F5081552341F0B90102C0759504
:1054200067954A95E2F7AB0101C040E0A42B0196D5
:1054300088309105D9F6B058B093FB068FE78A1BE8
:105440008093FC06A6960FB6F894DEBF0FBECDBFC4
:10545000DF91CF911F910F91FF90089581E080938C
:105460007303809374030E94B428809174038111A4
:1054700003C08091C603089580E0089588EF91E00D
:1054800008950895089517B88FE388B908958FE1B6
:1054900088B982EC90E00197F1F700C000008FE33B
:1054A00088B908958FE387B98FE188B987EE98E0CE
:1054B0000197F1F700C0000008958FE188B984E7F3
:1054C0008A95F1F78FE388B981ED90E00197F1F7C4
:1054D00000C000008FE188B9089527E030E090E037
:1054E0006FE37FE144E84A95F1F7AC01022E02C078
:1054F000559547950A94E2F740FF08C068B9E2EC79
:10550000F0E03197F1F700C0000007C0F8E7FA9526
:10551000F1F768B94CE84A95F1F778B921503109AB
:1055200008F70895CF93C82F0E94522A0E945D2A3F
:105530008C2F8C630E946D2A0E94472A17B89EEF19
:1055400084E08A95F1F735996CC0ECEAEA95F1F7B9
:1055500028E030E040E050E0BA0180E8EBE2F1E022
:105560003197F1F700C000003599482B86952150FE
:1055700031092115310591F7762F652F542F4427D6
:1055800028E030E080E8EBE2F1E03197F1F700C08D
:1055900000003599482B8695215031092115310598
:1055A00091F7762F652F542F4427C11135C088E01D
:1055B00090E020E8203829F4EDE0F1E03197F1F7B0
:1055C00004C0EBE2F1E03197F1F700C0000035993B
:1055D000422B000026950197009761F7B62FA52F63
:1055E000942F8827EFEAF4E03197F1F700C000002C
:1055F00024E030E048E0EBE2F1E03197F1F700C061
:1056000000003599842B469521503109211531052B
:1056100091F7BC01CD010BC0992777FD9095892F9B
:1056200006C0915009F08CCF60E070E0CB01CF91C3
:1056300008958F929F92AF92BF92CF92DF92EF9296
:10564000FF920F931F9380E00E94922A872E982E3C
:10565000A92EBB24A7FCBA94882009F45EC0092FA8
:10566000332707FD3095132F232F402F441F442746
:10567000441F53E0541B452F6C01FF24D7FCF094CA
:10568000EF2CC7FC4D7F5C2DC6FE04C050955F77A4
:10569000519501C05F7706FF04C000950F77019513
:1056A00001C00F7720E8250F2093FB0600580093D8
:1056B000FC061092780320E8209312022093110236
:1056C0008094609580E082FA82F983FA84F984FA02
:1056D00085F985FA83F98093770380E080FA83F96E
:1056E00081FA82F986FA80F987FA81F990E4499F74
:1056F00040011124882960FD80618093760361FF59
:1057000005C08091780384608093780362FF05C0B0
:1057100080917603806280937603809176038093F4
:10572000F806809177038093030780917803809334
:10573000F9061F910F91FF90EF90DF90CF90BF90EF
:10574000AF909F908F90089583E00E94922A672BDC
:10575000682B692B11F08AE008950895E89883E09A
:105760000E94922A672B682B692B21F481E0809399
:10577000B40323C0E89A8BED95E00197F1F700C0E0
:105780000000E8980E94522A0E945D2A8BE30E9442
:105790006D2A0E94472A87E592E00197F1F700C041
:1057A00000000E945D2A83E60E946D2A86E40E9422
:1057B0006D2A0E94472A17B8449AE89A089585E00E
:1057C00092E0089508950895089517B814B88FE3E6
:1057D00088B98FEF85B9089554985C9A539A5B986D
:1057E00015B825982D9A18B817B82FE128B9E7EB06
:1057F000FBE03197F1F700C0000026B126951D9916
:1058000002C02E7F01C0216020952F712A3150F4F3
:1058100030E0F901ED51FD4F4081F901E753FD4FB3
:10582000208102C020E040E0FC014083FB01208396
:105830000895EF92FF920F931F93CF93DF9300D0C1
:1058400000D0CDB7DEB7BE016F5F7F4FCE010296AD
:105850000E94EC2B83E087B98CE388B988E384B994
:1058600087EC85B987EB9BE00197F1F700C000005A
:1058700026B125FB222720F981E02827349B2260CE
:10588000339B24604C9B28608CE387B983E088B904
:1058900085B1877C85B984B1877C84B985B18863FB
:1058A00085B987EB9BE00197F1F700C0000086B156
:1058B0008695817091E08927309B82604C9B846043
:1058C00030E1839FC0011124822B40978D339105D5
:1058D00040F4FC01EE0FFF1FE15BFD4F00811181E1
:1058E00002C000E010E083E088B988B18C7F88B9FD
:1058F00087EB9BE00197F1F700C0000086B1813093
:1059000009F4106486B1823009F4106286B1811105
:1059100001C0106878019FE1F922E114F10421F03F
:10592000809179038C8315C0BE016D5F7F4FCE01DE
:1059300004960E94EC2B8C819A81891721F080912A
:1059400079038C8302C0809379038B8199818917B5
:1059500021F0809178038B8302C0809378039C812F
:105960008FE3989F902D112490589093FB069B8174
:10597000989F802D112480588093FC06012F1127B9
:105980000295069507700093F806E092F906F092EA
:10599000FA060F900F900F900F90DF91CF911F910B
:1059A0000F91FF90EF90089587EB9BE00197F1F73F
:1059B00000C00000319902C08EE0089580E0089593
:1059C00083E192E00895A82FB92F80E090E041E0B4
:1059D00050EA609530E009C02D9182279795879510
:1059E00010F084279527305EC8F36F5FA8F3089501
:1059F000EADF8D939D930895CF93CFB7CF93C3954F
:105A0000489BE9F7489B09C0489B07C0489B05C0D5
:105A1000489B03C0489B01C0A6C0DF93C09193037D
:105A2000DD27C656DC4F489B02C0DF91EBCF2F939A
:105A30000F931F9309B12FEF00FB20F94F933F9372
:105A400019B14FEF012700FB21F93BE031C04E7F38
:105A5000012F19B1216028C0102F4D7F2260000056
:105A600009B129C04B7F2460012F000019B12BC060
:105A700019B1477F28602AC04F7E09B120612CC030
:105A80004F7D19B120622FC04F7B09B1206432C015
:105A9000422709B149934FEF0000102710FB20F96E
:105AA00019B11570C9F1297F91F2012700FB21F985
:105AB00009B1237F89F2315058F1102710FB22F9E8
:105AC00019B1277E79F2012700FB23F92F7C81F29F
:105AD00009B1102710FB24F92F7971F200C019B118
