:100000000C94B6020C94B72C0C94D3020C94D3022B
:100010000C94F42D0C94D3020C94D3020C94D302C0
:100020000C94D3020C94D3020C94D3020C94D302FC
:100030000C94D3020C94D3020C94D3020C94D302EC
:100040000C94D3020C94D3020C94D3020C94D302DC
:100050000C94D3020C94D3020C94D3020C94D302CC
:100060000C94D3020C94D302140342004C004900B8
:10007000530053002D0042004F00580004030904B0
:1000800005010905A10185010509190129181500B6
:100090002501750195188102A1000501093009317A
:1000A000093209330934093509360937150026FFA5
:1000B00000350046FF00750895088102C00501253E
:1000C00007463B01750495016514093981426500B5
:1000D000950181010601FF094975019501810225FC
:1000E0000175078103050F0992A1028502099F0985
:1000F000A009A509A6150025013500450175019542
:1001000005810295038103099415002501350045F9
:100110000175019501810209221501252835014546
:1001200028750795018102C00921A10285010922D4
:1001300015012528350145287508950191020925E5
:10014000A102092609270930093109320933093486
:1001500009400941094209430928250315013501D0
:100160004503750895019100C009500954095115BE
:100170000026FF7F350046FF7F66031055FD751092
:100180009503910255006600000952150026FF00F4
:100190003500461027750895019102095315012570
:1001A00008350145087508950191020955A1020518
:1001B000010930093115002501750195029102C030
:1001C000050F095695019102950591030957A10262
:1001D0000B01000A000B02000A0066140055FE1510
:1001E0000026FF00350047A08C000066000075085F
:1001F000950291025500660000C0050F09A766032D
:100200001055FD150026FF7F350046FF7F751095C0
:100210000191026600005500C0050F095AA1028530
:1002200002092215012528350145287508950191F7
:1002300002095B095D150026FF0035004610279571
:10024000029102095C095E66031055FD26FF7F4698
:10025000FF7F7510910245006600005500C0095FE0
:10026000A1028503092215012528350145287508B5
:1002700095019102092315002501350045017504FA
:10028000950191020958A1020B01000A000B02001E
:100290000A00750295029102C01580257F36F0D8BC
:1002A000461027096075089501910236F0D846106E
:1002B000270961096295029102150026FF003500A9
:1002C000461027096309647508950291020965467D
:1002D000102795019102C0096EA10285040922151B
:1002E00001252835014528750895019102097015E9
:1002F0000026FF0035004610277508950191020978
:100300006F1580257F36F0D8461027950191020998
:100310007166140055FE150026FF00350047A08CBD
:1003200000009102097226FF7F46FF7F6603105589
:10033000FD7510950191026600005500C00973A17A
:1003400002850509221501252835014528750895DE
:1003500001910209701601FF26FF0036F0D8461001
:1003600027751095019102C00974A1028506092222
:100370001501252835014528750895019102097553
:1003800009761580257F36F0D84610277508950226
:100390009102C00966A102850805010930093115DD
:1003A00081257F350046FF00750895029102C00542
:1003B0000F0977A102850A09221501252835014573
:1003C000287508950191020978A1020979097A092D
:1003D0007B15012503750895019100C0097C150066
:1003E00026FF00350046FF009102C00990A102855A
:1003F0000B0922252815013501452875089501911D
:1004000002C00996A102850C099709980999099AD1
:10041000099B099C15012506750895019100C009E5
:100420007DA102850D097E150026FF0035004610CE
:1004300027750895019102C009ABA102850F092516
:10044000A102092609270930093109320933093483
:1004500009400941094209430928250315013501CD
:10046000450375089501B100C00501093B1500263B
:10047000FF01350046FF01750A9501B1027506B10D
:1004800001C0050F0989A10285020922252815014D
:100490003501452875089501B102098BA102098C27
:1004A000098D098E25031501350145037508950150
:1004B000B100C009AC150027FFFF0000350047FF61
:1004C000FF000075109501B100C0097FA1028503EE
:1004D0000980751095011500350027FFFF000047C2
:1004E000FFFF0000B102098326FF0046FF007508E8
:1004F0009501B10209A909AA750195021500250106
:1005000035004501B10275069501B103C00901A18D
:1005100001150026FF0075088510950D0900B2022F
:1005200001851195050900B202018515950D090097
:10053000B2020185169600010900B20201851795E5
:10054000300900B20201851295080900B202018546
:1005500013951C0900B20201851895C00900B2026A
:1005600001851495C40900B20201C0C011241FBE48
:10057000CFEFD8E0DEBFCDBF13E0A0E0B1E0EEE802
:10058000F9E602C005900D92A033B107D9F728E033
:10059000A0E3B3E001C01D92A234B207E1F70E94CC
:1005A0008F2E0C94C5340C940000CF93C62F20914D
:1005B000BA0324FF07C02091BB0338E82327209308
:1005C000BB0303C02AE52093BA03DC01ECEBF3E0A4
:1005D0009C2F9E0F8D918193892F8E1B1816D4F31B
:1005E0006C2F8CEB93E00E94B32CCC5FC093BA03CA
:1005F000CF910895CF93DF936091CB03635067FD54
:10060000DFC08091C803CCE0D0E0C81BD109C15342
:10061000DC4F8091C703803120F4CE010E9469082D
:10062000C9C08D3209F0B3C0683009F0C3C083EC93
:100630008093AF038AE58093020110923003888192
:10064000807621F0CE010E94660789C09A811092BF
:10065000B8038981811107C01092B90328EB33E0F8
:1006600082E090E078C0853019F49093CC036FC09D
:10067000863009F055C08B81813011F0823029F429
:10068000CE010E943E0720E048C0833081F59111E1
:100690000AC08CE790E09093CA038093C90320E4DA
:1006A00084E090E03AC0913051F488E690E0909375
:1006B000CA038093C90320E484E190E02EC0923005
:1006C00051F48EE391E09093CA038093C90320E034
:1006D00082E290E022C09330E9F480E691E09093CA
:1006E000CA038093C90320E08AE090E016C08132FB
:1006F00051F484E493E09093CA038093C90320E407
:1007000089E090E00AC0823229F4CE010E943E07BF
:1007100020E403C020E480E090E0209330031FC079
:10072000883069F0893019F49093CE0310C08A3074
:1007300049F08B3061F48BE48093BB0308C02EEC4E
:1007400033E002C028EB33E081E090E004C028EB06
:1007500033E080E090E03093CA032093C9038F3FD9
:100760002FEF920749F4288127FF02C08E819F81D5
:1007700020E82093300306C02E813F8128173907D7
:1007800008F4C901909301018093000113C0809186
:10079000300387FF0FC0CE010E94D6088F3F21F49F
:1007A0008EE18093020106C0882321F0109201019E
:1007B000109200018091CB03181614F41092CB0311
:1007C0008091020184FF54C0809100019091010149
:1007D0008F3F2FEF920709F44BC0BC018930910580
:1007E00010F068E070E0861B970B909301018093F6
:1007F00000018091AF0398E889278093AF03C62F4B
:10080000662331F12091C9033091CA0380913003EE
:1008100086FF0BC0A0EBB3E0F901862F8A0F9491FD
:100820009D9331968A13FBCF09C0D901E0EBF3E029
:10083000862F8E0F9D9191938E13FCCF8FEF8C0F8F
:1008400090E00196820F931F9093CA038093C9038F
:100850006C2F80EB93E00E94B32CCC5FCC3031F056
:100860008FEF9FEF9093010180930001C0930201ED
:1008700084E199B1957031F48150D9F71092CC038D
:100880001092C603DF91CF910895E9E6F0E08081F0
:1008900082608083E89A8BE48093BB038AE580932F
:1008A000BA03089590E890933A0390933B038FE73F
:1008B00080933803809339039093360390933703E2
:1008C000809334038093350308958091FE03882339
:1008D00019F082E390E002C088EE9DEF40912D0771
:1008E000403D59F420914E0330914F032F5F3F4F0D
:1008F00030934F0320934E0304C010924F03109285
:100900004E0320914E0330914F038217930738F422
:1009100028EE3DEF30934F0320934E030BC0281772
:10092000390741F481E09091F903911180E08093BF
:10093000F90353C0403C21F020912E07233079F475
:10094000209138072B7F59F42091480330914903B7
:100950002F5F3F4F309349032093480304C0109208
:1009600049031092480320914803309149038217AC
:10097000930728F4909349038093480308C02817ED
:10098000390729F48091380780932B07089545FF94
:100990000BC020914C0330914D032F5F3F4F30939C
:1009A0004D0320934C0304C010924D0310924C034E
:1009B00020914C0330914D038217930728F49093B4
:1009C0004D0380934C0308952817390781F481E083
:1009D00090E090934B0380934A03E091F303F091EE
:1009E000F4030284F385E02D6AE088EC099408950D
:1009F0000F931F93CF93DF9380E290E00E949B348C
:100A0000813081F083E190E00E949B348093440325
:100A10008F3FB9F41092440360E083E190E00E94BC
:100A2000B3340FC001E014E0C1E2D0E0CE010E9477
:100A30009B34F80181938F012196C933D105B1F719
:100A4000E1CF84E190E00E949B348093F9038F3FD3
:100A500039F41092F90360E084E190E00E94B3342D
:100A600089E190E00E949B3490E090936C01809328
:100A70006B018F3F910559F483E390E090936C01F3
:100A800080936B0163E389E190E00E94B33486E1D7
:100A900090E00E949B34809300048F3F39F41092C1
:100AA000000460E086E190E00E94B33487E190E0CA
:100AB0000E949B348093F6038F3F39F41092F60323
:100AC00060E087E190E00E94B33488E190E00E940A
:100AD0009B3480936A018F3F39F410926A0160E081
:100AE00088E190E00E94B33461E08AE190E00E94E6
:100AF000B3348CE190E00E949B34813F48F088E061
:100B000080931B0768E08CE190E00E94B33403C03F
:100B1000885F80931B078DE190E00E949B34809357
:100B20002907813F48F087E080931B0767E08DE14C
:100B300090E00E94B33403C0885F809329078EE160
:100B400090E00E949B34813F48F085E08093E7036A
:100B500065E08EE190E00E94B33403C0885F80932B
:100B6000E7038FE190E00E949B34813F60F086E0D4
:100B70008093F80366E08FE190E0DF91CF911F91C1
:100B80000F910C94B334885F8093F803DF91CF9179
:100B90001F910F91089588E10FB6F894809360003B
:100BA000109260000FBE519859982FE78CEF9AE091
:100BB000215080409040E1F700C00000F894E0E050
:100BC000F8E70994CF9314B817B88FEF85B988B9AF
:100BD0008AB188618AB95C985B9A8091FE03811121
:100BE00002C00E94FA0287EB9BE00197F1F700C078
:100BF000000086B18F3641F40E94631F9093F40386
:100C00008093F303C0E337C10E94B6119093F403BD
:100C10008093F303DC01ED91FC910995E091F303DE
:100C2000F091F4030480F581E02D0995C82F81111E
:100C300022C1549A5C9853985B9A17B88FEF88B981
:100C400087E293E20197F1F700C000004B9913C0CF
:100C500086B18F3781F483B18F3369F4209A289855
:100C600000001C9B08C00E94631F9093F4038093B4
:100C7000F303CAE200C196B15C985B9AA0E2AA9520
:100C8000F1F780EC87B98FE388B98AB188618AB9B6
:100C90005B985C9AB0E2BA95F1F786B18B3041F47B
:100CA0000E94631F9093F4038093F303C2E2E3C0B6
:100CB00086B18D3351F49F3741F40E94631F9093A6
:100CC000F4038093F303C1E0D6C00E94F61790931B
:100CD000F4038093F303DC01ED91FC910995E0911D
:100CE000F303F091F4030480F581E02D0995C82FFA
:100CF0008111C1C00E9443289093F4038093F303B1
:100D0000DC01ED91FC910995E091F303F091F4037E
:100D10000480F581E02D0995C82F8111ACC00E9497
:100D2000BC259093F4038093F303DC01ED91FC91D7
:100D30000995E091F303F091F4030480F581E02D2F
:100D40000995C82F811197C00E948A199093F403C6
:100D50008093F303DC01ED91FC910995E091F3039D
:100D6000F091F4030480F581E02D0995C82F8111DD
:100D700082C00E948D0F9093F4038093F303DC01F3
:100D8000ED91FC910995E091F303F091F403048057
:100D9000F581E02D0995C82F882361F08D3219F077
:100DA000833109F068C00E94FD299093F403809379
:100DB000F30361C00E949E2B9093F4038093F3038E
:100DC000DC01ED91FC910995E091F303F091F403BE
:100DD0000480F581E02D0995C82F81114CC00E9437
:100DE0001E209093F4038093F303DC01ED91FC91BA
:100DF0000995E091F303F091F4030480F581E02D6F
:100E00000995C82F811137C00E94AC229093F4033A
:100E10008093F303DC01ED91FC910995E091F303DC
:100E2000F091F4030480F581E02D0995C82F81111C
:100E300022C00E949B2C9093F4038093F303DC0167
:100E4000ED91FC910995E091F303F091F403048096
:100E5000F581E02D0995C82F81110DC00E94631FF7
:100E60009093F4038093F303DC011496ED91FC91CD
:100E70001597CF9109948C2FCF910895FC01218172
:100E8000263009F583818230A9F0823259F0813011
:100E9000D1F48CE291E09093CA038093C90382E17C
:100EA00090E0089580E890E09093CA038093C9038E
:100EB0000C94A60C83E091E09093CA038093C9033D
:100EC00089E290E0089580E090E008950F931F93E9
:100ED000CF93DF93FC01A895A9E1B4E080E092E014
:100EE000ED019C01199221503040E1F7B093CA0303
:100EF000A093C90380818076803209F0E0C08281AE
:100F00009381923009F4DEC02181213009F0CDC0F7
:100F1000833091F4933009F0D2C089E180933E038D
:100F20009093190420931A0420931B048FEF80934D
:100F30001C0420931D0419C08230D1F4933009F0B1
:100F4000BEC0209154039FEF920F943010F491E0B3
:100F500001C092E08093190420931A0490931B041B
:100F600084E680931D0480931C0485E090E0ACC06F
:100F7000873189F420933E0309E114E0C0E1D0E019
:100F8000CE010E949B34F80181938F012196C034D9
:100F9000D105B1F781C0853189F481E190E00E94EB
:100FA0009B3480931904ECE1F7E0AAE1B4E081916D
:100FB0008D9327E0E832F207D1F771C08631F1F462
:100FC00081E190E00E949B3480931904809119067E
:100FD00090E0AC014F5F5F4F61E0262F30E0421799
:100FE000530754F0F901E75EFB4FD901A85EB94FF2
:100FF0002C9120836F5FF1CF029666C08831C1F4D7
:1010000020933E0381E190E00E949B348093190479
:101010000AE114E0C0EAD0E0CE010E949B34F8015E
:1010200081938F012196C036F1E0DF07A9F73AC01E
:10103000813109F044C08091FB0380931904209111
:10104000F60348E0249F900111248091F903C0E148
:101050008C9FC0011124282B8091E903282B8091BB
:101060000004D0E48D9FC0011124282B8091E80357
:10107000E0E88E9FC0011124282B20931A04809150
:101080003F0380931B048091410380931C04809153
:10109000400380931D0469CF80E390E015C08DE08C
:1010A00090E012C081EC90E00FC081E090E0293028
:1010B00011F080E090E091958195910905C080E064
:1010C00090E002C081E090E0DF91CF911F910F91FD
:1010D0000895FC01A8958081843041F4818182309B
:1010E00008F463C0828180936E010895813089F491
:1010F000683009F05AC0918180915603981709F41D
:1011000054C08481882309F450C0880F809353030E
:101110000895823009F449C0853041F481818130DD
:1011200009F043C0828180936F0108958A30E9F508
:10113000838160915303623008F4682F818181308C
:10114000C1F48281E091F303F091F403833031F430
:10115000109253030284F385E02D19C080916F0132
:101160008F3F19F4613009F46FEF0284F385E02DAD
:101170001BC08230D0F08281E091F303F091F40340
:10118000833041F4109253030084F185E02D63E035
:1011900088EC0AC080916E018F3F19F4613009F428
:1011A0006FEF0084F185E02D09940895DF92EF92AE
:1011B000FF920F931F93CF93DF93EC01A89531E03B
:1011C00030933E03809145038111B1C188818F30F6
:1011D00021F4898180935403A8C18251833008F09F
:1011E000A4C199819432A9F48CEB80934603909327
:1011F000450384E080934703249600EA10E0699158
:10120000C8010E94B3340F5F1F4F043A1105B9F7AC
:10121000BBC19230B9F485E18093460390934503B6
:1012200084E08093470388E1E1E0F4E0DF011D9270
:101230008A95E9F7249689918193B4E0E530FB071C
:10124000D1F7A2C1953291F52A81211112C08C816A
:1012500080932A079D81909319069E8190931A0688
:101260009F8190931B06843008F05FC13093F50393
:101270005CC12F3F19F420912A072550FE013396B7
:1012800080E090E030E0275E394F4191D901A80F0E
:10129000B91F4C93019685309105B9F78A818F3F2C
:1012A00009F043C181E08093F503C7C1903289F40E
:1012B0008C81885F80931B078D81885F80932907CD
:1012C0008E81885F8093E7038F81885F8093F80326
:1012D0002CC1913009F0B3C08C818F3F09F096C0CA
:1012E0008D81813069F56091F90384E190E00E947D
:1012F000B3346091000486E190E00E94B3346091C1
:10130000F60387E190E00E94B33460911B076850B8
:101310008CE190E00E94B3346091290768508DE120
:1013200090E00E94B3346091E70368508EE190E052
:101330000E94B3346091F80368508FE190E063C07D
:10134000823009F0F2C01092440360E083E190E043
:101350000E94B3341092F90360E084E190E00E94AF
:10136000B3341092000460E086E190E00E94B33450
:101370001092F60360E087E190E00E94B33410928F
:101380006A0160E088E190E00E94B33483E390E07A
:1013900090936C0180936B0163E389E190E00E947C
:1013A000B33468E08CE190E00E94B33480E1809334
:1013B0001B0767E08DE190E00E94B3348FE08093DB
:1013C00029076BE08EE190E00E94B33483E18093C3
:1013D000E7036CE08FE190E00E94B33484E18093F6
:1013E000F803E1E0F4E081E081938F5F8931E1F778
:1013F00048E150E061E270E081E094E00E94A334B3
:1014000061E080E290E00E94B3348FC083FF04C0AB
:1014100091E09093F60302C01092F60384FF04C09B
:1014200091E09093F90302C01092F90386FF04C083
:1014300081E08093000401C11092000476C08CEF1B
:10144000890F823078F58C81882361F0813029F40E
:101450001D8111110BC01FEF09C0823031F41D81B5
:101460000E8105C010E000E002C010E00FEF9430E4
:1014700051F4E091F303F091F4030284F385E02D3D
:10148000602F812F09958981853009F04EC0E09148
:10149000F303F091F4030084F185E02D602F812F98
:1014A000099543C0983061F46C8181E190E00E941D
:1014B000B3348D818823C9F144E04A95F1F714C013
:1014C000903191F0903499F46C816093440381E001
:1014D0008093F6038D81882341F183E190E00E949F
:1014E000B33484E08A95F1F70E94CB051EC0903892
:1014F00061F460912D0760936A0188E190E00E9499
:10150000B334A4E0AA95F1F710C0933071F46C8164
:10151000862F90E090936C0180936B0189E190E0BD
:101520000E94B334B4E0BA95F1F781E086C090919F
:101530004603F62E961708F4F92E823009F07BC088
:10154000E0904703DE2C0F2D10E02D2D2E198D2D50
:10155000992787FD909530914703A801430F511DAE
:10156000841795079CF0809145038432B1F18091F6
:1015700047038F0D80934703809146038F19809313
:101580004603882309F44DC080E057C0332727FD68
:10159000309548E1FE01E20FF31FD41217C080819D
:1015A000813071F461E080E290E00E94B33448E160
:1015B00050E061E270E081E094E00E94A3340BC04F
:1015C0006FEF80E290E00E94B33405C02081FC01FF
:1015D000EF5FFB4F2083D394B8CF80913E038F5FA2
:1015E00080933E03E0904703D22EDE180F2D10E0CB
:1015F0003D2D3E0D8E2D90E020914703A801420F16
:10160000511D841795070CF0B2CFFE01E30FF11DB9
:1016100037FDFA95608180569F4F0E94B334E39462
:10162000E7CF80914503843219F481E08093FD0374
:10163000109245037ACF20E096CFDF91CF911F9192
:101640000F91FF90EF90DF90089544E14A95F1F7F4
:101650009BB195609BB994E09A95F1F79BB19A7F05
:101660009BB942E04A95F1F723E633E0F9019E2F5A
:10167000921B98170CF598E0589A46E04A95F1F7B6
:1016800000C0408140FD05C045E04A95F1F700C02B
:1016900005C0589845E04A95F1F7000000004081E8
:1016A00046954083915041F7589A93E09A95F1F707
:1016B000000058983196DBCF8AB185608AB90895C9
:1016C000209A289A28988AB18A7F8AB98BB1856036
:1016D0008BB934E03A95F1F789B18570853011F412
:1016E000A895FACF4DE04A95F1F700C088E06FEF7A
:1016F0006695489B606890E19A95F1F78150C1F733
:101700008AB185608AB98BB18A7F8BB98091730366
:1017100090917403009709F448C02091720322301D
:10172000C9F463FF04C081E08093F60302C0109205
:10173000F60364FF04C081E08093F90302C01092B5
:10174000F90366FF04C081E08093000424C0109276
:10175000000421C0243039F40197E9F481E190E0DC
:101760000E94B33418C0213041F4019719F46093FA
:10177000710111C0609370010EC0233061F4E8E183
:10178000F4E0E81BF90B6083E1E0F4E081E0819391
:101790008F5F8931E1F78091730390917403019712
:1017A0009093740380937303CDC0109272036623E9
:1017B00009F4CAC0613081F48091FB038093630314
:1017C000EDE2F7E0A4E6B3E081918D9337E0EA33F0
:1017D000F307D1F78DE0B4C0623079F480912C0723
:1017E00080936303ECE1F7E0A4E6B3E081918D938D
:1017F00047E0E932F407D1F7EDCF633021F480916F
:101800002C0783709AC0613141F4E091F303F091A9
:10181000F4030284F385E02D13C0623141F4E091BA
:10182000F303F091F4030284F385E02D17C06431D3
:1018300061F4E091F303F091F4030084F185E02D6D
:10184000609170018091710117C0683151F4E0918D
:10185000F303F091F4030084F185E02D60E080E073
:101860000BC06A3159F4E091F303F091F403028460
:10187000F385E02D6AE08FEF099564C06B3141F488
:10188000E091F303F091F4030084F185E02DF2CFB1
:101890006C3151F482E090E0909374038093730371
:1018A00081E0809372030895603241F481E090E01A
:1018B000909374038093730382E036C0613209F51C
:1018C0002091F60388E0289F900111248091F9036C
:1018D00040E1849FC0011124282B8091E903282B2B
:1018E0008091000430E4839FC0011124282B809153
:1018F000E80340E8849FC0011124282B2093630350
:101900001EC0623241F487E190E0909374038093AB
:10191000730383E009C0633251F481E090E0909357
:1019200074038093730384E0809372030BC06F3F52
:1019300019F46093630303C081EF8093630381E034
:101940000E94250B81E0089580E008958CEE94E0DC
:1019500008953D98459808950F931F93CF93DF9373
:10196000662309F456C07727A0E0B0E040E050E0DD
:101970009D0146175707ACF4189610E8FC01E40FD8
:10198000F51F00810123E901C65CD84F08832F5F52
:101990003F4F16952A173B07A1F74F5F5F4FD901BD
:1019A000E7CF109709F435C0229A2A9AE898EAE31B
:1019B000F7E0CF93DF93EF93FF930191002311F0B2
:1019C00061F418C000003D9A1CE011D000003D9861
:1019D00000000000119789F70DC03D9A12E007D072
:1019E0003D9818E004D00000119739F703C01A950C
:1019F000F1F708950000FF91EF913D9ADF91CF91AB
:101A000012E0F5DF3D980FEF0A9511F0359BFCCF02
:101A10002A98229A2A9AEAE3F7E0EF93FF93442761
:101A200000270395A1F03599FCCF08C00FE5039579
:101A300072F03599FCCF439551F001930FE5039572
:101A400032F0359BFCCF439511F00193EFCFFF911E
:101A5000EF912A98E89A842F90E00097A1F040FF38
:101A600012C0DF019D017081618151E0761708F09D
:101A700050E05D9332965A2F521B5417A0F30197F2
:101A80009595879502C080E090E0DF91CF911F91FE
:101A90000F910895CF93DF931F92CDB7DEB71982D0
:101AA00061E070E0CE0101960E94AC0C009701F15C
:101AB0004897D9F480E090E021E0FC01E65CF84F23
:101AC000308131112160873011F0220F01C02F7752
:101AD00001968830910589F7222351F0253059F07D
:101AE000283061F482E190E00BC083E090E008C010
:101AF00080E090E005C083E190E002C089E090E0E2
:101B00000F90DF91CF91089508959F92AF92BF9269
:101B1000CF92DF92EF92FF920F931F93CF93DF93B9
:101B2000CDB7DEB760970FB6F894DEBF0FBECDBF5E
:101B30008091F503882309F460C060912A0770E062
:101B400020E0822F992787FD9095861797076CF4E0
:101B5000E9E0F0E0EC0FFD1FE80FF91FDC01A75EE4
:101B6000B94F8C9180832F5FECCFCE0109960E94F4
:101B7000AC0C21E031E0E9E1F6E0DF01A9011D92C2
:101B800041505040E1F7869586958695682F70E024
:101B900090E000E810E0292F332727FD3095261725
:101BA000370734F5A901E3E0440F551FEA95E1F743
:101BB000D901A65EB94FFC9020E030E0F901E40FB6
:101BC000F51FE65CF84FE081EE2341F0F801022EAC
:101BD00002C0F595E7950A94E2F701C0E0E0FE2A1D
:101BE0002F5F3F4F2830310549F7FC929F5FD3CFDD
:101BF000809319061092F5033EC0809175038F3FC4
:101C000079F0882321F081508093750309C01092E8
:101C10007C0310927B0384E080937E011092760314
:101C20000E944A0D80937703833109F423C11092F7
:101C30007A038E01075F1F4F823149F480E3898761
:101C400080917E018A87809176038B870DC080E426
:101C5000898783E08A8721E080917B0390917C03D0
:101C6000892B09F420E02B8763E070E0C8010E9413
:101C7000AC0C803421F081E08093FA03FFC086E051
:101C8000E0E3F7E0DF011D928A95E9F7D090300795
:101C900090903107A0903307B090340790913207AD
:101CA000C090350720E030E040E850E0822FF90195
:101CB000E65BF84F6081662341F0BA01022E02C054
:101CC000759567950A94E2F701C060E0D62AD901BC
:101CD000AE5AB84F6C91611109C07A01082E02C04A
:101CE000F594E7940A94E2F7FE2C01C0F12CF92850
:101CF000D901A65AB84F6C91662341F0DA01082E3B
:101D000002C0B595A7950A94E2F701C0A0E0EA2EBB
:101D1000EA28D901AE59B84F6C91611108C0FA0197
:101D2000082E02C0F595E7950A94E2F701C0E0E0BD
:101D3000BE2AF901E659F84F6081662341F0BA01E5
:101D4000082E02C0759567950A94E2F701C060E01D
:101D5000692BF901EE58F84F9081992341F0FA016F
:101D600002C0F595E7958A95E2F7CF0101C080E0C2
:101D7000C82A2F5F3F4F2830310521F09F2CAE2C11
:101D8000962F94CFD0923007F0923107E09233072C
:101D9000B092340760933207C092350788E0E0E2E2
:101DA000F2E0DE01119601900D928A95E1F7909193
:101DB0002D07FE01319683E0A82FBB27A7FDB09524
:101DC000A65CB84F2C91222311F02081922B282F52
:101DD0008F5F883011F482E0820F3196E017F107AF
:101DE00059F790932D0780914607882329F0809119
:101DF000380784608093380780914707882329F04B
:101E0000809138078860809338078091480788233D
:101E100029F08091380780628093380780914907C4
:101E2000882329F08091380780618093380780915A
:101E30007703823119F480E880933007809130076E
:101E4000811118C0E11016C080913707811112C0AE
:101E5000FFEFFF120FC080E88093370780933507AC
:101E60008093320780933407809333078093310740
:101E700080933007109279031092780360960FB622
:101E8000F894DEBF0FBECDBFDF91CF911F910F91B0
:101E9000FF90EF90DF90CF90BF90AF909F9008950C
:101EA0000E94A90C0E944A0D8093770381E08093E1
:101EB0007A030C94850D60937503882361F021E00B
:101EC00030E030937C0320937B0396E090937E0177
:101ED00080937603089510927C0310927B0384E034
:101EE00080937E011092760308950C945B0F81E03D
:101EF00080937A0381E090E0909379038093780354
:101F00000E94850D8091780390917903892B19F4B3
:101F100080917703089580E0089582E791E0089525
:101F200008950895089586B11D9B02C080640895A8
:101F30008F7B0895EF92FF920F931F93CF93DF93C0
:101F4000EC01409A80E58A95F1F70E94930FE82E04
:101F5000409890E49A95F1F70E94930FF82E409ADA
:101F600080E58A95F1F7409890E49A95F1F70E9400
:101F7000930F082F409A80E58A95F1F7409890E4F6
:101F80009A95F1F70E94930F182F409A80E48A9552
:101F9000F1F70E94930F409890E59A95F1F7409AD7
:101FA000E094E882F094F98280958A8300950B830F
:101FB00010951C83DF91CF911F910F91FF90EF90AF
:101FC0000895409888E28A95F1F7419A98E29A95A7
:101FD000F1F786B1419898E29A95F1F726B1409AC7
:101FE0002C7394E0299F900111248C73869586951B
:101FF000822B809508958AB188618AB95C985B9A32
:1020000084B18F7C84B985B1806385B9389A409A50
:1020100087B1817C87B988B18F6388B987EB9BE0F2
:102020000197F1F700C000000895CF93DF93CDB77B
:10203000DEB728970FB6F894DEBF0FBECDBF8091F4
:10204000FB038B3379F4309905C080912D078260B2
:1020500080932D07319931C180912D078160809344
:102060002D072BC1873009F057C081E01D9B03C0AD
:102070008F5F8E3FD9F731E08E3F09F030E021E0ED
:10208000813009F020E0232B81E01D9B04C096B134
:102090008E3F29F406C08F5F8E3FB9F702C08130B2
:1020A00009F42F5F81E01D9B04C08F5F8E3FD9F73D
:1020B00004C08E3F11F0813019F4223009F4BEC003
:1020C00086B191FD05C020912D07216020932D0739
:1020D00086958E71082E01FA87F902FA86F903FABD
:1020E00085F905FA83F906FA82F907FA81F99695D6
:1020F0009E71092E01FA97F902FA96F903FA95F9F9
:1021000005FA93F906FA92F907FA91F982958F7018
:10211000892B80933707D1C0873111F08633B9F509
:102120000E94E10F982F9F709F3079F496E390936F
:10213000FB0320E028272F73282784FB23F985FB46
:1021400022F920932D070E94E10F20912D0790E0A6
:1021500084FB95F985FB94F986FB90F987FB91F94F
:10216000922B90932D0790E080FB94F981FB93F9DB
:1021700082FB95F983FB92F99093380786B1813001
:1021800009F49BC086B1813409F058C096C08831EB
:1021900009F044C0409A14B8539A5B9A88B18FEF03
:1021A00088B9399887EB9BE00197F1F700C00000F0
:1021B00086B180958C7390E082FB95F983FB94F94E
:1021C00084FB93F985FB92F99093380788E0E8E265
:1021D000F2E0DE01119601900D928A95E1F7399AAD
:1021E00041985B98FE013896CE01419A419824E0CF
:1021F0002A95F1F71D9906C0208130912D07232BD8
:1022000020932D073197E817F90779F7419A4198FC
:1022100084E08A95F1F71D9B50C010C08451823034
:1022200008F04BC08AB188618AB95C985B9ACE018C
:1022300001960E949A0F9A81913821F481E080934F
:10224000E9033BC08981282F220F211D2877022E08
:1022500001FA27F902FA26F903FA25F905FA23F912
:1022600006FA22F907FA21F92093380720E081FBCA
:1022700021F986FB27F9822F95959172892B8093FE
:102280002D079091FB03953171F49B8120E092FB27
:1022900024F993FB22F994FB23F995FB26F9922F5D
:1022A000982B90932D078D818D3811F484E103C014
:1022B0008D3B19F485E18093FB0328960FB6F894C3
:1022C000DEBF0FBECDBFDF91CF910895CF93DF93D7
:1022D00000D000D01F92CDB7DEB781E01D9B04C0B7
:1022E0008F5F8E3FD9F705C08DEF1D9934C08150A7
:1022F000E1F786B1833429F483E088B987B987E1AF
:102300002DC0CE0101960E949A0F8A818D3829F442
:102310008D818D3811F18D3B01F15B9887EB9BE04E
:102320000197F1F700C00000539A399A419814B808
:1023300013B89CE080E0419A419824E02A95F1F797
:102340001D9B8F5F9150B9F78350893010F488E15D
:1023500005C080E003C087E001C085E10F900F90C9
:102360000F900F900F90DF91CF9108958FE791E03C
:1023700008950895089508951092970110927F038B
:102380001092800310927D038AB188618AB95C98AB
:102390005B9A3A9A4298089587B190918303892B6A
:1023A00087B987B190918403892B87B99091820373
:1023B000292F209580918503822380938503809126
:1023C0008603892B8093860388B190918403892B9F
:1023D00088B998B1809183038095892388B908953D
:1023E00081E08093840382E08093830380E2809382
:1023F000820383B18093810385B18093860384B186
:10240000809385033C9A449A3D9A45980E94CC114A
:102410008091FE03811103C0A8950E94FA028DEEFF
:1024200092E00197F1F700C000008091FE03811156
:1024300003C0A8950E94FA028DEE92E00197F1F791
:1024400000C000008091FE03811103C0A8950E9486
:10245000FA028DEE92E00197F1F700C00000809142
:10246000FE03811103C0A8950E94FA028DEE92E04E
:102470000197F1F700C0000087B185B115B887EB6F
:102480009BE00197F1F700C0000085B18FEF85B99F
:1024900020E180E038B1909184039095932398B91E
:1024A00098E09A95F1F798B130918403932B98B9FD
:1024B00098E09A95F1F793B130918203932309F054
:1024C0008F5F215039F7982F9D7F9C3021F481E058
:1024D0008093800307C0813029F0823029F481E0A5
:1024E00080937F0389E10895843089F3873009F46C
:1024F0003EC13C98449A3D98459A80E2809384037B
:1025000080E18093830388E08093820386B1809387
:10251000810388B18093860387B1809385030E94ED
:10252000CC11449A90E020E038B1809184038095EA
:10253000832388B986B130918203832319F49131C2
:102540000CF02F5F88B130918403832B88B99F5F93
:10255000903251F7243021F48AE18093FB030895EF
:1025600098B1809183038095892388B988B190912F
:102570008303892B88B980E38A95F1F798B180911C
:1025800083038095892388B988B1836088B987B12E
:102590008C7F87B987EB9BE00197F1F700C00000C3
:1025A00030E220E080E096B140918203942309F468
:1025B0008F5F30992F5F48B1909184039095942359
:1025C00098B998E19A95F1F798B140918403942BCA
:1025D00098B998E19A95F1F7315029F796B1983268
:1025E00019F4243009F4C5C021502F3128F481E0BA
:1025F000809382038EE10895883109F4BCC0803154
:1026000009F4BBC0813019F480937E03B6C096B143
:10261000993229F481E0809382038CE10895813519
:1026200009F4ADC08D3009F4AAC0823109F4A7C005
:1026300088E08093840382E08093820386B1809354
:10264000810388B18093860387B1809385030E94BC
:10265000CC11539A5B983D9A459A97B18091820329
:102660008095892387B988B190918203892B88B995
:102670003C98449A259A2D98209A389A8091FE0386
:10268000811103C0A8950E94FA028DEE92E0019795
:10269000F1F700C000008091FE03811103C0A895EE
:1026A0000E94FA028DEE92E00197F1F700C000005F
:1026B0008091FE03811103C0A8950E94FA028DEE5D
:1026C00092E00197F1F700C000008091FE038111B4
:1026D00003C0A8950E94FA028DEE92E00197F1F7EF
:1026E00000C0000087B185B115B887EB9BE001976A
:1026F000F1F700C0000085B18FEF85B92D9A409A9F
:1027000090E39A95F1F72D98409830E220E090E020
:1027100086B140918203842309F49F5F349B2F5F2D
:1027200048B1809184038095842388B9289888E1F2
:102730008A95F1F788B140918403842B88B9289A4F
:1027400088E18A95F1F7315019F788EF890F8230C7
:1027500020F481E080937E0314C0983191F02150E1
:102760002F3188F480E18093820385E3089585E228
:10277000089584E2089581E108958BE108958DE143
:10278000089584E3089580E008958091FB038C31DF
:10279000D1F487B1836087B924E02A95F1F7419A93
:1027A00087B18C7F87B900C0319B05C080912D0710
:1027B000826080932D07309918C480912D07816025
:1027C00080932D070895853219F0893109F0B8C139
:1027D0008FEF8093810380918003882311F198B15A
:1027E000809184038095892388B938E03A95F1F780
:1027F00088B190918403892B88B958E05A95F1F7F4
:1028000098B1809184038095892388B988E08A955E
:10281000F1F788B190918403892B88B998E09A9553
:10282000F1F780917F03882389F098B18091840328
:102830008095892388B928E02A95F1F788B190918D
:102840008403892B88B938E03A95F1F728E091E0C4
:10285000990F38B1809184038095832388B958E01B
:102860005A95F1F783B130918203832309F0916087
:1028700088B130918403832B88B988E08A95F1F779
:10288000215031F738E081E0880F48B1209184036E
:102890002095242328B928E02A95F1F723B1409107
:1028A0008203242309F0816028B140918403242B02
:1028B00028B958E05A95F1F7315031F78F3F21F49C
:1028C00020919701211199C221E020939701209135
:1028D000FB03253209F00FC198E028B180918403F1
:1028E0008095822388B98CE08A95F1F783B188B10D
:1028F00020918403822B88B928E02A95F1F7915022
:1029000061F798E041E0440F28B1809184038095FD
:10291000822388B938E03A95F1F783B12091820398
:10292000822309F0416088B120918403822B88B909
:1029300058E05A95F1F7915031F798B1809184039E
:102940008095892388B988E08A95F1F788B19091BC
:102950008403892B88B998E09A95F1F798B1809112
:1029600084038095892388B928E02A95F1F788B1F6
:1029700090918403892B88B938E03A95F1F798E073
:1029800031E0330F28B1809184038095822388B988
:1029900058E05A95F1F783B120918203822309F020
:1029A000316088B120918403822B88B988E08A95B0
:1029B000F1F7915031F798E021E0220F58B1809162
:1029C00084038095852388B958E05A95F1F783B13F
:1029D00050918203852309F0216088B150918403CE
:1029E000852B88B988E08A95F1F7915031F798B135
:1029F000809184038095892388B998E09A95F1F7AE
:102A000088B190918403892B88B958E05A95F1F7E1
:102A100098B1809184038095892388B988E08A954C
:102A2000F1F788B190918403892B88B998E09A9541
:102A3000F1F758E091E0990F68B180918403809597
:102A4000862388B988E08A95F1F783B16091820383
:102A5000862309F0916088B160918403862B88B940
:102A600088E08A95F1F7515031F768E081E0880FEE
:102A700078B1509184035095572358B958E05A952E
:102A8000F1F753B170918203572309F0816058B177
:102A900070918403572B58B958E05A95F1F761505B
:102AA00031F740933007309331072195220F220FE1
:102AB00022502093360720E080FB27F981FB26F97E
:102AC00082FB24F983FB25F930E038273F7C382747
:102AD00086FB33F987FB32F93093380750E05927EA
:102AE000557F592790FB52F992FB50F9952F922B65
:102AF00090932D0777C220912D07322F82FB30F95A
:102B000083FB31F930932E0730E091FB34F992FBCF
:102B100035F993FB32F994FB33F93093380790FF82
:102B200003C0216020932D0790912D0798279F7C4B
:102B3000982786FB97F987FB91F990932D0752C24E
:102B400093EE980F923058F08B3149F0813139F083
:102B50009CEC980F923018F0843209F0BAC198B109
:102B6000809182038095892388B98091FB038453E7
:102B7000823060F4259A2D9A8CE28A95F1F72D988F
:102B8000389A409A9CE29A95F1F7409888B19091D2
:102B90008303892B88B920E32A95F1F798B18091B6
:102BA00083038095892388B98091FB038E3111F0CE
:102BB000843269F488B1836088B987B18C7F87B922
:102BC00058E040E020E030E090E061E011C0853363
:102BD000B9F7449A3C98F4CF853369F5289888E191
:102BE0008A95F1F7289A88E18A95F1F75150A9F171
:102BF000990F220F440F330F8091FB03843311F0A0
:102C00008D3129F488B170918203872B88B986B100
:102C100070918203872311F4916031608091FB03EE
:102C20008432D1F686B181708627282B86B18695AD
:102C300081708627482B78B1809184038095872303
:102C400088B988E18A95F1F788B170918403872B60
:102C500088B982E18A95F1F7C9CF8091FB0384326C
:102C600049F5211103C081E08093E90390E040FB26
:102C700096F943FB95F945FB94F946FB90F947FB20
:102C800091F980E024FB87F926FB82F927FB83F981
:102C9000892B80932E0790E025FB93F930E041FBD0
:102CA00032F942FB31F944FB30F9432F492B409371
:102CB0002F0708959F3F69F48B3109F49EC081313D
:102CC00009F49BC0843329F420917E0321112AC08A
:102CD00094C08E3111F0853329F590E89093310737
:102CE0009093300790917D0394361CF49F5F9093EE
:102CF0007D0390917D03943619F4332309F47DC04C
:102D0000853321F4399858E25A95F1F7319B03C085
:102D100010922D0703C081E080932D0730953093EA
:102D20003707089520E090FB25F991FB24F992FBE9
:102D300023F993FB22F92093380720912E0730E0E6
:102D400022FB35F923FB34F924FB33F925FB32F957
:102D500030932E0720E094FB25F995FB24F996FB90
:102D600020F997FB21F920932D07813109F43DC10A
:102D700020917E03843319F4222309F436C12111F2
:102D800002C068E001C068E130E040E020E080E09F
:102D9000383014F4880F07C058EF530F583010F430
:102DA000220F01C0440F56B170918203572359F48A
:102DB000383014F4816007C058EF530F583010F4C6
:102DC000216001C0416078B1509184035095572330
:102DD00058B958E15A95F1F758B170918403572BBF
:102DE00058B958E15A95F1F73F5F36178CF2309198
:102DF000FB03811106C03D3121F481E08093E9039A
:102E000008953D3111F520E094FB25F995FB24F957
:102E100096FB22F997FB23F9922F20E082FB21F900
:102E200083FB20F984FB27F985FB26F9292B2093C6
:102E30002D0790912E0730E086FB30F987FB31F9A2
:102E4000832F892B80932E07CDC03B31B1F450E006
:102E500094FB55F995FB54F996FB52F997FB50F901
:102E6000952F50E084FB57F985FB56F986FB53F903
:102E700087FB51F9592B50932D0790917E0399238D
:102E800009F4B0C0343311F0822F242F880F811D34
:102E9000082E01FA87F902FA86F903FA85F905FA8C
:102EA00083F906FA82F907FA81F980932E07220F37
:102EB000211D022E01FA26F902FA27F903FA25F953
:102EC00005FA23F906FA22F907FA21F920932F07C8
:102ED00089C08A3109F086C088B190918303892B1B
:102EE00088B928E090912D07990F90932D0738B15C
:102EF000809184038095832388B986B130918203C1
:102F0000832319F4916090932D0788B190918403E5
:102F1000892B88B9215031F780912D07082E00FAAE
:102F200085F901FA84F902FA86F904FA82F905FAB8
:102F300080F906FA81F980932D0782E090E021E084
:102F400030E058B1409184034095452348B946B1DB
:102F500050918203452359F460913807A901082E46
:102F600001C0440F0A94EAF7642B6093380748B114
:102F700050918403452B48B901968630910509F795
:102F80008091380790E082FB92F983FB95F984FBEE
:102F900093F985FB94F99093380780E298B12091DA
:102FA0008403922798B98150C9F798B1809184031E
:102FB0008095892388B980919701882341F086B153
:102FC00090918203892319F081E08093E90388B10D
:102FD00090918403892B88B998B18091830380955F
:102FE000892388B981E08093970108958BE891E067
:102FF000089508950895089583EC87B98FE388B9FB
:10300000089518B88FED9EE20197F1F700C0000017
:1030100086B18C3019F086B1883029F417B88FEF5B
:1030200088B98AE3089588B1836088B99CE19A954C
:10303000F1F786B186958695883029F0863019F0AB
:10304000833019F4089588E0089580E00895CF93BF
:103050008091FB038A33C1F486B1809583FF05C05C
:1030600090912D07916090932D0781FF05C090915D
:103070002D07926090932D0780FF4AC180912D0704
:10308000806280932D0744C188B1836088B93CE198
:103090003A95F1F786B1869586958695A6B14198C1
:1030A0009CE19A95F1F7873021F481E08093E90360
:1030B0002FC1813009F03EC0A695A695A827A17022
:1030C00086B1809530E082FB35F983FB34F984FBCF
:1030D00033F985FB32F93093380788B193E08927BB
:1030E00088B98CE18A95F1F786B1809590E082FBF2
:1030F00095F983FB90F984FB97F985FB91F988B1E9
:103100008C7F88B93CE13A95F1F7B6B1B09580E093
:10311000B3FB82F9B4FB83F9B5FB86F9B82FB92B61
:10312000329BA26088B18C7F88B980E820E840E8B3
:1031300060E8E2C088B18C7388B99CE19A95F1F798
:1031400038E23A95F1F7409A8CE18A95F1F7C6B1E9
:1031500090E0C2FB93F9C3FB92F9C4FB91F9C5FB64
:1031600090F9C92FCC0FF0E0E0E080E820E840E8DB
:1031700060E8A0E0B0E0FC170CF0B8C034E23A958B
:10318000F1F7409B04C098B19C7398B901C0409A74
:1031900094E29A95F1F7F1110EC096B1909530E056
:1031A00092FB35F993FB34F994FB33F995FB32F933
:1031B0003093380799C0F13061F496B1909530E0C2
:1031C00092FB35F993FB30F994FB37F995FB31F914
:1031D0000DC0F23069F4329BA26096B1909530E058
:1031E00093FB32F994FB33F995FB36F9B32B7CC092
:1031F000F33031F4329BA1609CE09A95F1F774C0F2
:10320000F43009F454C0F530C1F466B166956695A2
:1032100030E1639FB00111246E2B660F611D062EF5
:1032200001FA67F902FA66F903FA65F905FA63F932
:1032300006FA62F907FA61F957C0F630C1F1F730C2
:10324000C1F446B14695469590E1499FA0011124ED
:103250004E2B440F411D042E01FA47F902FA46F99C
:1032600003FA45F905FA43F906FA42F907FA41F972
:103270003BC0F830E1F0F930C1F426B1269526952F
:1032800090E1299F900111242E2B220F211D022E47
:1032900001FA27F902FA26F903FA25F905FA23F9C2
:1032A00006FA22F907FA21F91FC0FA3021F4E6B133
:1032B000E695E69519C0FB30B9F486B186958695FA
:1032C00030E1839FC00111248E2B880F811D082EB1
:1032D00001FA87F902FA86F903FA85F905FA83F902
:1032E00006FA82F907FA81F9FF5F45CF98B193603A
:1032F00098B99CE19A95F1F76093300740933107B4
:103300008093320720933507B0932D07A0932E07A3
:10331000CF91089588E991E008950895089508955A
:1033200081E080937C0083E880937A0017B88FEF68
:1033300088B914B885B90895DF92EF92FF920F9380
:103340001F93CF93DF93D82EFB01D701E90198811A
:103350008095982398839C9198239C93DA019C9163
:1033600091609C9390819E7F9083CFE6D7E12197D7
:10337000F1F700C0000090819160908380E0F80137
:1033800090819D2119F48F5F8E3FC9F7DF91CF9116
:103390001F910F91FF90EF90DF900895EF92FF92B1
:1033A0000F931F93CF938AB188618AB95C985B9A17
:1033B00083B18E3309F481C083B18B3309F47FC0AC
:1033C00025982D9A5B9887EB9BE00197F1F700C059
:1033D000000083B18F3121F486B18F3709F471C0B9
:1033E00053982598389A409887EB9BE00197F1F71E
:1033F00000C000004B9902C01D9B57C017B88FEF4B
:1034000088B914B885B994E2E92EF12C03E210E0F2
:1034100025E230E047E250E068E270E080E20E949E
:103420009C19C82F2AE2E22EF12C09E210E02BE2CF
:1034300030E047E250E068E270E088E00E949C19CA
:10344000C250CC3F18F482508C3F88F1209A2898C3
:1034500087E293E20197F1F700C000001C9B29C0AE
:1034600084E2E82EF12C03E210E025E230E044E2B1
:1034700050E065E270E088E00E949C1925E230E0AF
:1034800044E250E065E270E088E00E949C1990E020
:103490000B978F3E910578F0549A5C98389A409A31
:1034A00053981092FB0380E00DC08BE20BC089E2C1
:1034B00009C081E307C086E005C089E303C088E353
:1034C00001C084E0CF911F910F91FF90EF9008957C
:1034D000EF92FF920F931F9317B88FEF88B914B82C
:1034E00085B98091FB03811105C0549A5C98389A84
:1034F000409A53988091FB03877F813329F48AB1E6
:1035000088618AB95C985B9A87EB9BE00197F1F739
:1035100000C0000096B123B190958091FB038A32E0
:10352000F1F5549A5C9853985B9A91FF05C080918D
:10353000380784608093380794FF05C0809138076E
:1035400088608093380793FF05C0809138078061B9
:103550008093380792FF05C080913807806280937E
:10356000380780912D074B9B02C08E7F01C0816080
:1035700080932D0774E2E72EF12C03E210E025E2A0
:1035800030E047E250E068E270E080E20E949C197F
:10359000880F880F98EC981B909337078FC48C3254
:1035A000B9F58AB1877E8AB98BB188618BB93C9AAB
:1035B000449887EB9BE00197F1F700C0000080E89A
:1035C00080933107809330074B9905C0809138076D
:1035D000846080933807329905C080912D078160FF
:1035E00080932D07309905C08091380780618093C2
:1035F0003807319905C08091380780628093380779
:103600001D995CC48091380788608093380756C440
:103610008B3209F086C0389A409A87B1837C87B98B
:1036200088B1837C88B98AB1877E8AB93D9A87EB55
:103630009BE00197F1F700C000004B9905C0809115
:103640002E07816080932E071D9905C080912E075B
:10365000826080932E07319905C080912E07846087
:1036600080932E073D9887E592E00197F1F700C01F
:1036700000003C9A87EB9BE00197F1F700C0000047
:103680004B9905C080912E07886080932E071D9965
:1036900005C080912E07806180932E07319905C067
:1036A00080912E07806280932E073C983B9A87EB8F
:1036B0009BE00197F1F700C000004B9905C0809195
:1036C0002E07806480932E071D9905C080912E07D8
:1036D000806880932E07319905C080912F07816003
:1036E00080932F073B983A9A8FE697E10197F1F77D
:1036F00000C000004B9905C080912F078260809325
:103700002F071D9905C080912F07846080932F0794
:10371000319905C080912F07886080932F073A98D0
:10372000CDC3863009F0FBC03E98259A2D9A3D9A6C
:103730004598209A289A2B98239A8FE697E101972B
:10374000F1F700C00000239880E01B9903C08F5F51
:103750008E3FD9F790E0880F991F8F3F910519F0A0
:1037600010F08FEF90E08093310746983E9A8FE6F5
:1037700097E10197F1F700C000003E9880E036998C
:1037800003C08F5F8E3FD9F790E0880F991F8F3F5E
:10379000910519F010F08FEF90E0809330078F3F84
:1037A00039F4809131078F3F19F481E08093E90368
:1037B00000000000000000000000000017B814B86E
:1037C0008FEF85B988B98AB1877E8AB98BB1886154
:1037D0008BB93B9A43983B98000000000000000022
:1037E00000000000339B05C080912D07816080930D
:1037F0002D07399A41983998000000000000000018
:1038000000000000319B05C080912D0782608093ED
:103810002D073C9A449894E19A95F1F7199905C0BF
:1038200080912E07826080932E071A9905C080919F
:103830002E07816080932E071C9905C080912D076B
:10384000806180932D074C9905C080912E0784607C
:1038500080932E073C98449A3A9A429824E12A95FC
:10386000F1F7199905C080912E07806180932E078A
:103870001A9905C080912E07886080932E071C99A5
:1038800005C080912D07806280932D074C9905C05B
:1038900080912E07806280932E073A98429A389A38
:1038A000409884E18A95F1F7199905C080912E0717
:1038B000806880932E071A9905C080912E07806436
:1038C00080932E071C9905C080912D0784608093FA
:1038D0002D074C9905C080912F07816080932F0799
:1038E0003898409A539A5B9894E19A95F1F7199910
:1038F00005C080912F07826080932F071A9905C019
:1039000080912F07886080932F074C9905C0809184
:103910002F07846080932F0753985B9ACFC2409102
:10392000380730E092FB35F993FB34F994FB33F917
:1039300095FB32F9342B30933807843019F5549ABB
:103940005C98389A409A5398539A5B9828E22A9543
:10395000F1F726B120955B9A88E28A95F1F796B146
:103960009095892F822730912D07832B922396954E
:103970009170892B80932D071D9BA0C2816080933D
:103980002D079CC2803309F0BDC017B89FEF98B9CE
:103990008AB1877E8AB98BB188618BB984B184B9C9
:1039A00085B195B988E087B987EF88B998E29A958B
:1039B000F1F7309905C0809138078062809338070D
:1039C000319905C0809138078061809338074B9901
:1039D00005C08091380788608093380780E187B9F7
:1039E0008FEE88B928E22A95F1F7339905C08091C6
:1039F000380784608093380780E187B98FEE88B9F3
:103A000088E28A95F1F7359905C080912D0781608C
:103A100080932D074C9905C080912D07826080937B
:103A20002D0782E087B98DEF88B998E29A95F1F772
:103A3000359905C080912F07846080932F074C999A
:103A400005C080912E07806880932E07329905C0AB
:103A500080912E07806180932E071D9905C080916B
:103A60002E07826080932E0781E087B98EEF88B998
:103A700028E22A95F1F7359905C080912F078860D3
:103A800080932F074C9905C080912F078160809308
:103A90002F07329905C080912E07806280932E07F0
:103AA0001D9905C080912E07846080932E0717B85A
:103AB0008FEF88B9539A5B9888E28A95F1F7359928
:103AC00005C080912F07826080932F074C9905C015
:103AD00080912E07806480932E07329905C08091D3
:103AE0002E07886080932E071D9905C080912E07B0
:103AF000816080932E078AB1877E8AB98BB18861F5
:103B00008BB9DCC1813019F0823209F0A8C08AB1CA
:103B100088618AB9319905C080912D0781608093B1
:103B20002D0780EC87B98FE388B95B985C9A90E2A7
:103B30009A95F1F7319905C080912D0782608093A5
:103B40002D0756B15695569521E030E0052E02C05E
:103B5000220F331F0A94E2F740E080E090E0541314
:103B600002C0822B932B4F5F4F30C9F720912D0756
:103B7000382F80E032FB82F934FB83F9822B80936B
:103B80002D0780912E0720E031FB23F936FB22F927
:103B900037FB25F9282B892F90E080FB97F981FBD3
:103BA00094F984FB96F985FB91F986FB90F9292B12
:103BB00020932E0790912F0720E082FB21F983FBB1
:103BC00020F9822F892B90E033FB92F935FB93F992
:103BD000892B80932F075C985B9A8091FB0381303F
:103BE00009F46CC13898409A25982D9A24E02A95BA
:103BF000F1F7909188039093870386B18095817047
:103C0000809388031D9902C022E001C020E0822B2E
:103C100080938803981709F451C1933079F4813067
:103C200021F480913207815F06C0823009F046C1DD
:103C3000809132078A508093320740C1913031F42D
:103C4000823079F3833009F039C1F2CF923009F034
:103C500035C1833031F3813009F030C1E9CF91FFB4
:103C600005C030912D07316030932D0720958133A9
:103C700051F425FF05C080912D07846080932D07A6
:103C800090FFB9C010C0811114C03898409A8AB111
:103C900088618AB95C985B9A88E28A95F1F7309BD3
:103CA00002C025FFA8C080912D07826080932D0758
:103CB000A2C025FF05C030912D07326030932D073B
:103CC00090FF05C090912D07946090932D07885325
:103CD000823008F090C088B18FEF88B985B9109212
:103CE0002D0710922E07309903C084E080932D0792
:103CF000319905C080912D07816080932D071C9913
:103D000005C080912D07886080932D071D9905C0FF
:103D100080912D07826080932D078091FB0388336B
:103D200079F5369903C081E080932E07199905C073
:103D300080912D07806180932D07189905C080918F
:103D40002D07806880932D071A9905C080912D0753
:103D5000806280932D078AB1877E8AB98BB1886192
:103D60008BB94B9905C080912D07806480932D07F6
:103D70004C99A4C080912E07826080932E079EC02C
:103D800080912D07982F81FF02C0946001C09B7F16
:103D900090932D0790912D0782FF02C0926001C081
:103DA0009D7F90932D07369905C080912D078064E3
:103DB00080932D07199905C080912D078068809305
:103DC0002D071A9905C080912D07806180932D07DA
:103DD0001B9905C080912D07806280932D078AB1C1
:103DE00088618AB95C985B9A86B180932E0783B10B
:103DF00080932F0763C020FF05C080912D07886046
:103E000080932D0721FF05C080912D07806480934A
:103E10002D0722FF05C080912D07806180932D071B
:103E200023FF05C080912D07806280932D0780912C
:103E3000FB038133A1F124FF09C080912D07806825
:103E400080932D0703C014B88FEF85B98091FB03D1
:103E50008932A1F544E2E42EF12C03E210E025E2E0
:103E600030E047E250E068E270E080E20E949C1996
:103E70008095833010F0809336073AE2E32EF12CE0
:103E800009E210E02BE230E047E250E068E270E047
:103E900088E00E949C198095809337070FC0189B7B
:103EA0000DC0209A289887EB9BE00197F1F700C09E
:103EB00000001C9BC8CF81E08093E9031F910F9104
:103EC000FF90EF90089584EA91E008950895089591
:103ED000089517B88FE388B914B88FEF85B908959E
:103EE00087B1836087B918B884E08A95F1F787B104
:103EF0008C7F87B984E08A95F1F786B1837083302F
:103F000011F48BE0089580E00895EEE3F8E080E09E
:103F100090E040E250E09A01082E02C035952795C6
:103F20000A94E2F768B1A22FA0956A2368B967B135
:103F3000622B67B964E06A95F1F776B173707083AC
:103F400063B168736695672B6083189B02C06062DB
:103F5000608338B1322B38B927B12A2327B90196AB
:103F6000319684309105B9F630913E08832F8370E5
:103F700019F481E08093E903309590E030FB94F9E7
:103F800040913F08842F80958170982B8091400844
:103F9000809520E080FB21F9922B20914108522F3F
:103FA000509560E050FB67F951FB65F9962B9093B3
:103FB0002D0750E033FB55F934FB52F9409590E062
:103FC00042FB97F943FB94F944FB91F9952B50E0A0
:103FD00082FB56F983FB53F984FB50F9952B9093A0
:103FE0002E0790E032FB90F950E085FB51F9852FC8
:103FF000892B60E035FB63F9862B90E045FB92F955
:10400000892B80932F0724FD04C08091380780629C
:1040100005C023FD05C08091380780618093380773
:1040200022FD04C080913807886005C025FD05C0C9
:1040300080913807846080933807089580EB91E081
:10404000089508950895089588B1806388B9089502
:104050008091BC0087FFFCCF8091B900887F0895D4
:104060009F92AF92BF92CF92DF92EF92FF920F9307
:104070001F93CF93DF93B82E6B01942EA52E790159
:104080006115710561F42115310509F477C084EAE1
:104090008093BC000E942820803189F532C084EAD8
:1040A0008093BC000E942820883009F06AC08B2DC4
:1040B000880F8093BB0084E88093BC000E94282076
:1040C000883109F047C0C92DDA2DCC0EDD1E24E859
:1040D000A22ECC15DD0559F089918093BB00A092EA
:1040E000BC000E9428208832A1F323E038C0E114EC
:1040F000F10469F684E98093BC0080E043C0883015
:1041000059F58B2D880F81608093BB0084E88093E4
:10411000BC000E942820803409F5E701219784E83B
:10412000F82E94ECE92ECF3FFFEFDF0719F320972D
:1041300019F0E092BC0002C0F092BC000E9428205E
:104140002197877F8035B1F68091BB00F80181937C
:104150008F01E9CF22E003C024E001C025E090E018
:10416000803A31F0883F81F0883321F484E803C03D
:1041700084EA01C084E98093BC0006C08FEF9FEF02
:1041800004C081E090E001C0822FDF91CF911F91A8
:104190000F91FF90EF90DF90CF90BF90AF909F90E6
:1041A0000895AF92BF92CF92DF92EF920F931F9339
:1041B000CF93DF931F92CDB7DEB789835B016A018E
:1041C000E12C00E010E020E030E0AE014F5F5F4FF7
:1041D00061E070E082E50E943020811117C08FEA13
:1041E00094E00197F1F700C000008501960140E0DE
:1041F00050E060E070E082E50E943020811106C04E
:10420000EFEAF4E03197F1F700C000000F90DF9182
:10421000CF911F910F91EF90DF90CF90BF90AF9013
:104220000895EF920F931F93CF93DF93CDB7DEB72F
:1042300060970FB6F894DEBF0FBECDBF84E38093C6
:10424000B8008091B9008C7F8093B90010918A03E7
:1042500011113FC080EF898385E58A83E12C00E05E
:1042600010E020E030E0AE014F5F5F4F62E070E0B1
:1042700082E50E943020EFEAF4E03197F1F700C0C8
:104280000000811137C18BEF89831A8220E030E072
:10429000AE014F5F5F4F62E070E082E50E94302028
:1042A000EFEAF4E03197F1F700C00000811122C17C
:1042B00042E050E0BE016F5F7F4F8EEF0E94D12041
:1042C000811118C18A818093C80181E080938A039B
:1042D00011C1113009F0EEC046E050E0BE016F5F41
:1042E0007F4F80E00E94D120882361F08091890374
:1042F000811102C01093E90380EF8093C8011092EE
:104300008A03F8C0109289038091C801853009F4AE
:10431000F1C030F4813009F44CC0833039F449C025
:10432000813109F446C0803F09F4E4C0E9817A8113
:104330007095FE818B8124E0829FC00111248A5FE9
:1043400091092F2F2C7030E03595279535952795BD
:10435000822B932B96958795682F4C8184E0489FFC
:10436000A0011124CA018A5F91092F2F207330E028
:10437000A4E035952795AA95E1F7822B932B969586
:104380008795282F4D8194E0499FA0011124CA01EF
:104390008A5F91093F2F3295369536953370832B7E
:1043A000969587959F2F90959170F1FD8CC09260A6
:1043B0008AC06981E62FEE0FEE0F9A81F4E09F9F8D
:1043C00090011124722F70958B81907C9295969517
:1043D0009770607C669566956695692B982F991FF6
:1043E0009927991F692B660F660F660F282F220FDA
:1043F000220F220F2095AC813D81F32FF09590E0A4
:10440000F1FB97F9F2FB95F9F4FB94F9F5FB96F9BA
:10441000F92F5E81452F409590E043FB93F944FBD3
:1044200091F945FB92F946FB90F99F2BF0E042FB96
:10443000F1F947FBF0F94F2F33FD05C0F0912F073D
:10444000F460F0932F0750FD05C0F0913807F46039
:10445000F093380737FD05C0F0913807F062F0930C
:10446000380751FD05C05091380750615093380707
:1044700036FD05C030913807386030933807E111B8
:1044800006C07F3F21F420E860E870E8E0E8309162
:10449000E80331111BC03A2F330F330F330F8076EF
:1044A00086958695A295A695A7708A2B880F880F6A
:1044B000880F0EC080E030E02FEF6FEF40E090E01B
:1044C00070E8E0E805C030E040E002C080E030E0A5
:1044D00090932D0740932E07E09330077093310798
:1044E0006093330720933407809332073093350766
:1044F0001092BC0060960FB6F894DEBF0FBECDBF21
:10450000DF91CF911F910F91EF90089588B18C7F2B
:1045100088B987B1836087B986B18033D8F081E0EC
:10452000809389030E9411211092BC008091C801E0
:10453000803F81F0882341F0813041F0833041F0A9
:10454000813141F487E308958DE008958FE1089566
:1045500080E2089580E008958CEB91E0089508953D
:104560001092E5038FE284B98FEF85B98FE78CBD98
:1045700080911B07811103C08DE080931B07809100
:104580002907811103C08EE0809329078091E703FA
:10459000811103C083E18093E7038091F8038111C7
:1045A00003C084E18093F8030895843608F484E618
:1045B0008093A3036093A10308958FEF8093A403D6
:1045C0006093A20308958EBD0DB407FEFDCF8091C8
:1045D000FE03811102C00E94FA028BE291E0019772
:1045E000F1F700C000008EB50895CF93C3E029987D
:1045F0008BE291E00197F1F700C0000081E00E949A
:10460000E32282E40E94E322299AEBE2F1E031976F
:10461000F1F700C000009FEF980F9E3F30F491E04B
:1046200090938B039093E50308C0E7EBFBE0319791
:10463000F1F700C00000C150D1F69CB59F7B9CBD36
:104640009091E503911101C080E0CF910895CF933F
:1046500029988BE291E00197F1F700C0000081E01A
:104660000E94E32285E40E94E32280E00E94E3228C
:104670008AE50E94E322C5E08AE50E94E322C15058
:10468000D9F7299A8BE291E00197F1F700C0000079
:10469000CF910895CF93C82F29988BE291E001978D
:1046A000F1F700C0000081E00E94E32283E40E9451
:1046B000E32280E00E94E3228C2F0E94E32280E02C
:1046C0000E94E322CC2349F0299A8BE291E00197E2
:1046D000F1F700C00000CF9108958AE50E94E3221F
:1046E0008AE50E94E3228AE50E94E3228AE50E948D
:1046F000E322EACFFF920F931F93CF93DF93CDB7BF
:10470000DEB7DA950FB6F894DEBF0FBECDBF2B9A99
:10471000239A8CB580648CBD8BE291E00197F1F710
:1047200000C000008091F5032998882309F440C057
:10473000EBE2F1E03197F1F700C0000080912A0729
:104740008983F12C80912A07F81688F40F2D10E048
:10475000F801E75EF94F80810E94E322E2E0F0E099
:10476000EC0FFD1FE00FF11F8083F394EBCF10E0FF
:1047700080912A071817A8F4812F90E0FC01E75ECA
:10478000F94FA1E0B0E0AC0FBD1FA80FB91F8C918D
:1047900080838091FE03811102C00E94FA021F5F94
:1047A000E7CF1092F50381E08093FA03299AD8C1EC
:1047B0008BE291E00197F1F700C000008091A40323
:1047C000882381F08091A2039FEF980F9E3F18F4F9
:1047D0009093A20309C08F3F39F01092A203109268
:1047E000A40302C01092A2038091A303882381F046
:1047F0008091A1039FEF980F9E3F18F49093A1031F
:1048000009C08F3F39F01092A1031092A30302C098
:104810001092A10381E00E94E32282E40E94E3223D
:1048200080938D0380E00E94E322182F8091A403DF
:104830000E94E32280938F038091A3030E94E322CE
:104840008093900380918D03833E19F48FE78093CA
:104850008D0380918D03833219F483E380938D035C
:1048600090918D038091FB03981741F081E0913482
:1048700019F080938B0302C08093E8039093FB03AD
:104880001F3F29F4299A81E08093E90369C191349B
:1048900031F481E080939203809391032CC0993787
:1048A00069F401E913E080E00E94E322F8018193BA
:1048B0008F01F3E0013A1F07B1F71DC080E00E94AD
:1048C000E3228093910380E00E94E322809392038D
:1048D00080E00E94E322809393038091FB03833561
:1048E00029F480E00E94E322809503C080E00E94CA
:1048F000E32280939403299A80918B03882309F4FF
:10490000B0C08CEF92E00197F1F700C00000109268
:104910008B038091FB03813409F45BC081E00E942A
:104920004A232998EBE2F1E03197F1F700C000004B
:1049300081E00E94E3228DE40E94E32280E00E9455
:10494000E32280E00E94E32281E00E94E3228FEFD5
:104950000E94E3228FEF0E94E3228FEF0E94E32266
:104960008FEF0E94E322299A8BE291E00197F1F701
:1049700000C000002998EBE2F1E03197F1F700C0A8
:10498000000081E00E94E3228FE40E94E32280E0A5
:104990000E94E3228FEF0E94E3228FEF0E94E32226
:1049A00083E00E94E32280E00E94E32280E00E94F4
:1049B000E32280E00E94E322299A8BE291E00197B2
:1049C000F1F700C000000E94272380E00E944A23E4
:1049D00048C081E00E944A230E9427232998EBE2E5
:1049E000F1E03197F1F700C0000081E00E94E3227E
:1049F00084E40E94E32280E00E94E32281E00E949E
:104A0000E32280E00E94E32280E00E94E32280E033
:104A10000E94E32280E00E94E32280E00E94E322E1
:104A2000299A8BE291E00197F1F700C0000080E045
:104A30000E944A232998EBE2F1E03197F1F700C098
:104A4000000081E00E94E32282E40E94E322299A8E
:104A5000EBE2F1E03197F1F700C00000813409F09A
:104A60005DCF909190039095392F329580E0832708
:104A70008D73832730FB83F932FB80F933FB82F996
:104A8000382F80918F03809520E080FB24F983FBF1
:104A900025F9232B20932D07937020E081FB26F925
:104AA00082FB27F9292B20932E0790913807E0E00D
:104AB00084FBE2F985FBE5F986FBE3F987FBE4F982
:104AC0008E2F892B80933807209191033091920388
:104AD000832F90E0820F911D029709F441C020932B
:104AE000330730933407809193038093300780918C
:104AF000940380933107E5E9F3E0ACE1B7E08191FD
:104B00008D9323E0E13AF207D1F7E0911B07E531FD
:104B100031F0F0E0E457FC4F808180933607E0915C
:104B20002907E53131F0F0E0E457FC4F80818093B4
:104B30003707E091E703E53131F0F0E0E457FC4F4F
:104B4000808180933207E091F803E53131F0F0E0A5
:104B5000E457FC4F8081809335078CB58F7B8CBDEB
:104B6000D3950FB6F894DEBF0FBECDBFDF91CF91C6
:104B70001F910F91FF90089589EC91E0089528E02E
:104B800030E040E89FE26FE07FE3592F5095E42F3B
:104B9000E82398B9EE2319F078B958B901C068B97B
:104BA000952F4695215031092115310571F708954A
:104BB000CF92DF92EF92FF920F931F93CF93DF93E9
:104BC0001F92CDB7DEB78C01F12CE12CF61684F4E0
:104BD0006801CF0CD11CF7FCDA94F601808169835F
:104BE0000E94BF25F6018081E826F3946981EECF0B
:104BF0008E2D0F90DF91CF911F910F91FF90EF902D
:104C0000DF90CF9008958FE387B988B98FE188B995
:104C100088E020E198B1922798B98150D9F78FE3C5
:104C200088B908958FE387B988B98FE288B984E09D
:104C300020E298B1922798B98150D9F78FE388B9CB
:104C400008950E94032668E089ED91E00E94D8252E
:104C50000E94BF250C9412268091A703882311F08F
:104C600080E1089580E008956093A803089560931B
:104C7000A80308951F93CF93DF93182FC42F4F3F9E
:104C800019F0411101C0C1E0D62FD295D695D77049
:104C900009F4D1E0D295D07FD068CF3F09F4C1E0CC
:104CA0000E94032682E00E94BF2580E00E94BF256B
:104CB000812F0E94BF258EE00E94BF2580E00E94C8
:104CC000BF2581E00E94BF2580E00E94BF2580E0D3
:104CD0000E94BF258C2F0E94BF2582E30E94BF2522
:104CE0008D2F0E94BF2580E10E94BF258FE2812782
:104CF0008D278C270E94BF250E94122683E893E00F
:104D00000197F1F700C00000DF91CF911F91089546
:104D10001092ED0380E388B91092A70381E080939D
:104D2000A6031092A5030E94032664E085ED91E09E
:104D30000E94D8250E94BF250E94122687EB9BE087
:104D40000197F1F700C000008FEF87B90E9421267C
:104D5000E8988FEC87B980E388B982E08093680097
:104D600080E180936C008EEC90E00197F1F700C039
:104D700000001092680010926C00E89A8FEF87B9DB
:104D80008091ED03882329F081E08093A70380932D
:104D9000FD038FEF87B910926C00089510926800A0
:104DA0001092ED038FEF87B9E8980E94212680E3E7
:104DB00088B98FEC87B982E08093680080E18093A6
:104DC0006C008EEC90E00197F1F700C000001092AB
:104DD000680010926C0010926C00E89A2091ED032C
:104DE000211108C081E08093E9031092A5038FEFA1
:104DF00087B908958FEF87B95091EB034091EC0389
:104E00008091EE03382F309590E030FB97F931FB1D
:104E100091F932FB90F933FB95F9392F922F909548
:104E200060E090FB66F991FB63F992FB62F993FBFA
:104E300064F9962F932B90932D0794FF03C033E2D0
:104E40003093FB033091FB03333251F42095322F22
:104E50003295337030932E07207C292B20932D0719
:104E600020912D075B3F10F090E401C090E0292BCA
:104E70004B3F10F090E801C090E0922B90932D07EB
:104E80008095859585958C7380933807509332076C
:104E9000409335078091F103809331078091F203AD
:104EA0008093300708950F931F93CF93DF938091E2
:104EB000F5038823E1F00E94032660912A0789E127
:104EC00096E00E94D8250E94BF250E94122640E04D
:104ED00051E061E070E089E196E00E94943480E462
:104EE000809319068FEF80931A061092F503809134
:104EF000A8038230A8F08F3F19F081508093A80357
:104F00008091A50380FF05C04FEF6FEF81E00E9405
:104F10003A268091A50381FF47C04FEF6FEF13C082
:104F20008130A9F41092A8038091A50380FF05C0E9
:104F300040E060E081E00E943A268091A50381FF75
:104F400033C040E060E082E00E943A262DC0C0916C
:104F5000A6030E94032680E00E94BF2580E00E94F5
:104F6000BF258C2F0E94BF2581E00E94BF2581E0D4
:104F70008C270E94BF250E94122680E388B98FECFF
:104F800087B994E286B18073803309F059C028E272
:104F90002A95F1F79150B1F7C0958091A5038C2324
:104FA0008093A5038FEF87B98091FD038130C1F510
:104FB0008091A6038130A1F58091A50380FF30C0C8
:104FC0008FE697E10197F1F700C000001092FD0312
:104FD0000E9403266CE081EE91E00E94D825182FF4
:104FE000C0E0D0E0CE0123E0822780569F4F0E9490
:104FF0009B34082F0E94BF2510272196C03CD10565
:1050000089F7812F0E94BF250E94122680E388B96C
:105010008FEC87B987E592E00197F1F700C00000B7
:105020008091A603813011F482E001C081E0809379
:10503000A6038FEF87B9DF91CF911F910F9108954C
:105040009CE29A95F1F784E296B19073903331F433
:1050500098E09A95F1F78150B9F7A4CF8091A50314
:10506000282F30E04C2F552747FD5095242335231A
:105070002417350709F496CFC82BC093A5038AE0FF
:105080008093A8038FCF8DEE91E0089508956093EB
:10509000AA0390910502953069F0992359F088236D
:1050A00021F0933039F082E003C0913019F084E0B0
:1050B0008093050208950C944728FF920F931F9345
:1050C000CF93DF93CDB7DEB7A6970FB6F894DEBFC8
:1050D0000FBECDBF8091F503882309F463C06091B2
:1050E0002A0770E020E0822F992787FD9095861788
:1050F00097076CF4E1E0F0E0EC0FFD1FE80FF91FFB
:10510000DC01A75EB94F8C9180832F5FECCFCE017D
:1051100001960E94AC0C21E031E0E9E1F6E0DF010C
:10512000A9011D9241505040E1F7869586958695DC
:10513000682F70E090E000E810E0292F332727FD6A
:1051400030952617370734F5A901E3E0440F551FC2
:10515000EA95E1F7D901A65EB94FFC9020E030E076
:10516000F901E40FF51FE65CF84FE081EE2341F012
:10517000F801022E02C0F595E7950A94E2F701C006
:10518000E0E0FE2A2F5F3F4F2830310549F7FC92BF
:105190009F5FD3CF809319061092F50381E080932F
:1051A000FA030EC1198261E070E0CE0101960E94FF
:1051B000AC0C811104C081E08093E90301C191E04E
:1051C0009093A903883111F0109205028091510744
:1051D000882331F080910502853011F41092050288
:1051E00080915107811103C085E080930502809171
:1051F000AA038F3F69F0882321F081508093AA038E
:1052000007C080910502833019F484E08093050281
:10521000809105028230F1F08430D1F1811151C0CA
:1052200083E0898380E88A8381E08B8342E250E0D7
:1052300060E870E0CE0104960E94943463E270E06E
:10524000CE0101960E94AC0C8823D9F184E08093B2
:10525000050237C013E0198380EC8A838BE18B83CE
:1052600040E250E061E070E0CE0104960E94943488
:1052700063E270E0CE0101960E94AC0C81111093A4
:1052800005028BE291E00197F1F700C0000019C020
:1052900083E0898380EC8A838BE18B83FE013496E3
:1052A00080E2DF011D928A95E9F763E270E0CE01AA
:1052B00001960E94AC0C882321F381E080930502C3
:1052C000E0CF81E0898361E070E0CE0101960E9429
:1052D000AC0C803209F074C030912D0720912E075C
:1052E00080E090E0FC01E65CF84F4081442351F0FF
:1052F000FC01E05CFD4F4081FC01E05DFD4F508111
:10530000252B342B01968031910561F730932D07C1
:1053100020932E0780913E07882329F0809138073B
:1053200084608093380780913F07882329F080911B
:10533000380788608093380780914107882329F0D7
:1053400080913807806280933807809140078823D6
:1053500029F08091380780618093380780E090E0E1
:10536000A0E0B0E020E830E0482FFC01E65BF84F19
:105370005081552341F0B901082E02C075956795FB
:105380000A94E2F701C060E0B62BFC01EE5AF84F38
:105390005081552341F0B90102C0759567954A9532
:1053A000E2F7AB0101C040E0A42B019688309105E3
:1053B000D9F6B058B09330078FE78A1B8093310736
:1053C000A6960FB6F894DEBF0FBECDBFDF91CF918A
:1053D0001F910F91FF9008950E945D288091A9036D
:1053E000882319F08091FB03089580E008951092BE
:1053F000A9031092AA030C94A90C89EF91E00895D7
:105400000895089517B88FE388B908958FE188B992
:1054100082EC90E00197F1F700C000008FE388B9BB
:1054200008958FE387B98FE188B987EE98E00197F7
:10543000F1F700C0000008958FE188B984E78A95EC
:10544000F1F78FE388B981ED90E00197F1F700C0A3
:1054500000008FE188B9089527E030E090E06FE325
:105460007FE144E84A95F1F7AC01022E02C0559560
:1054700047950A94E2F740FF08C068B9E2ECF0E013
:105480003197F1F700C0000007C0F8E7FA95F1F78F
:1054900068B94CE84A95F1F778B92150310908F715
:1054A0000895CF93C82F0E94112A0E941C2A8C2F86
:1054B0008C630E942C2A0E94062A17B89EEF84E073
:1054C0008A95F1F735996CC0ECEAEA95F1F728E096
:1054D00030E040E050E0BA0180E8EBE2F1E03197E3
:1054E000F1F700C000003599482B8695215031090D
:1054F0002115310591F7762F652F542F442728E089
:1055000030E080E8EBE2F1E03197F1F700C0000015
:105510003599482B8695215031092115310591F790
:10552000762F652F542F4427C11135C088E090E0B5
:1055300020E8203829F4EDE0F1E03197F1F704C0DC
:10554000EBE2F1E03197F1F700C000003599422B12
:10555000000026950197009761F7B62FA52F942F8D
:105560008827EFEAF4E03197F1F700C0000024E06B
:1055700030E048E0EBE2F1E03197F1F700C00000E5
:105580003599842B4695215031092115310591F724
:10559000BC01CD010BC0992777FD9095892F06C0DE
:1055A000915009F08CCF60E070E0CB01CF9108956D
:1055B0008F929F92AF92BF92CF92DF92EF92FF9223
:1055C0000F931F9380E00E94512A872E982EA92EB8
:1055D000BB24A7FCBA94882009F45EC0092F3327A6
:1055E00007FD3095132F232F402F441F4427441FBE
:1055F00053E0541B452F6C01FF24D7FCF094EF2C93
:10560000C7FC4D7F5C2DC6FE04C050955F77519559
:1056100001C05F7706FF04C000950F77019501C0B8
:105620000F7720E8250F20933007005800933107AB
:105630001092AD0320E8209313022093120280946D
:10564000609580E082FA82F983FA84F984FA85F918
:1056500085FA83F98093AC0380E080FA83F981FABC
:1056600082F986FA80F987FA81F990E4499F40012E
:105670001124882960FD80618093AB0361FF05C020
:105680008091AD0384608093AD0362FF05C080917B
:10569000AB0380628093AB038091AB0380932D07B3
:1056A0008091AC03809338078091AD0380932E07DF
:1056B0001F910F91FF90EF90DF90CF90BF90AF9030
:1056C0009F908F90089583E00E94512A672B682B4A
:1056D000692B11F08AE008950895E89883E00E940C
:1056E000512A672B682B692B21F481E08093E90311
:1056F00023C0E89A8BED95E00197F1F700C0000018
:10570000E8980E94112A0E941C2A8BE30E942C2AEE
:105710000E94062A87E592E00197F1F700C0000099
:105720000E941C2A83E60E942C2A86E40E942C2ACE
:105730000E94062A17B8449AE89A089586E092E0F3
:10574000089508950895089517B814B88FE388B997
:105750008FEF85B9089524B1217C24B925B12E633A
:1057600025B918B817B82FE328B9539A5B985498FD
:105770005C9AE7EBFBE03197F1F700C0000026B13F
:105780001D9B2D7F20952F73233350F430E0F901BA
:10579000E350FD4F4081F901E653FD4F208102C0E7
:1057A00020E040E0FC014083FB01208308950F933B
:1057B0001F93CF93DF9300D000D0CDB7DEB7BE01EB
:1057C0006F5F7F4FCE0102960E94AB2B539A5B987E
:1057D00054985C9A83E087B98CE388B988E384B9EC
:1057E00087EC85B987EB9BE00197F1F700C00000DB
:1057F00026B125FB222720F981E02827349B22604F
:10580000339B24604C9B28608CE387B983E088B984
:1058100084B1877C84B985B1886385B987EB9BE0C7
:105820000197F1F700C0000086B18695817091E084
:105830008927309B82604C9B846030E1839FC0014C
:105840001124822B40978D33910540F4FC01EE0F1B
:10585000FF1FE05BFD4F0081118102C000E010E0FE
:105860008FE388B987B18C7F87B987EB9BE001977D
:10587000F1F700C0000086B18E3309F4106286B1E2
:105880008D3309F4106486B18C3309F41068C801B3
:10589000887F892B21F08091AE038C8315C0BE01D7
:1058A0006D5F7F4FCE0104960E94AB2B8C819A8155
:1058B000891721F08091AE038C8302C08093AE03E0
:1058C0008B819981891721F08091AD038B8302C070
:1058D0008093AD039C818FE3989F902D1124905865
:1058E000909330079B81989F802D1124805880933E
:1058F0003107C801892F99278295869587708093F3
:105900002D071F7100932E0710932F070F900F90F4
:105910000F900F90DF91CF911F910F91089587EB1A
:105920009BE00197F1F700C00000319902C08EE0C2
:10593000089580E0089584E192E00895A82FB92F9A
:1059400080E090E041E050EA609530E009C02D91A0
:1059500082279795879510F084279527305EC8F3A6
:105960006F5FA8F30895EADF8D939D930895CF9319
:10597000CFB7CF93C395489BE9F7489B09C0489B95
:1059800007C0489B05C0489B03C0489B01C0A6C0F8
:10599000DF93C091C803DD27C153DC4F489B02C091
:1059A000DF91EBCF2F930F931F9309B12FEF00FBE4
:1059B00020F94F933F9319B14FEF012700FB21F9D5
:1059C0003BE031C04E7F012F19B1216028C0102F5C
:1059D0004D7F2260000009B129C04B7F2460012F58
:1059E000000019B12BC019B1477F28602AC04F7E33
:1059F00009B120612CC04F7D19B120622FC04F7BAF
:105A000009B1206432C0422709B149934FEF000029
:105A1000102710FB20F919B11570C9F1297F91F2F7
:105A2000012700FB21F909B1237F89F2315058F198
:105A3000102710FB22F919B1277E79F2012700FB0C
:105A400023F92F7C81F209B1102710FB24F92F795B
:105A500071F200C019B1012700FB25F92F7359F22B
:105A600000C009B1102710FB26F9223040F200C017
:105A700019B1012700FB27F9243028F64F77206859
:105A800019B10000F9CF11E01CBB00271CC03B502E
:105A90003195C31BD04011E01CBB0881033C11F1C0
:105AA0000B3401F12091C6031981110F1213EDCFB0
:105AB0004A81441F093659F10D3211F0013E29F790
:105AC0004F7009F0042F0093CD033F914F911F9128
:105AD0000F912F91DF91CCB3C0FD4CCFCF91CFBFB1
