:100000000C94B6020C94392B0C94D3020C94D302AA
:100010000C94762C0C94D3020C94D3020C94D3023F
:100020000C94D3020C94D3020C94D3020C94D302FC
:100030000C94D3020C94D3020C94D3020C94D302EC
:100040000C94D3020C94D3020C94D3020C94D302DC
:100050000C94D3020C94D3020C94D3020C94D302CC
:100060000C94D3020C94D302140342004C004900B8
:10007000530053002D0042004F00580004030904B0
:1000800005010905A10185010509190129181500B6
:100090002501750195188102A1000501093009317A
:1000A000093209330934093509360937150026FFA5
:1000B00000350046FF00750895088102C00501253E
:1000C00007463B01750495016514093981426500B5
:1000D000950181010601FF094975019501810225FC
:1000E0000175078103050F0992A1028502099F0985
:1000F000A009A509A6150025013500450175019542
:1001000005810295038103099415002501350045F9
:100110000175019501810209221501252835014546
:1001200028750795018102C00921A10285010922D4
:1001300015012528350145287508950191020925E5
:10014000A102092609270930093109320933093486
:1001500009400941094209430928250315013501D0
:100160004503750895019100C009500954095115BE
:100170000026FF7F350046FF7F66031055FD751092
:100180009503910255006600000952150026FF00F4
:100190003500461027750895019102095315012570
:1001A00008350145087508950191020955A1020518
:1001B000010930093115002501750195029102C030
:1001C000050F095695019102950591030957A10262
:1001D0000B01000A000B02000A0066140055FE1510
:1001E0000026FF00350047A08C000066000075085F
:1001F000950291025500660000C0050F09A766032D
:100200001055FD150026FF7F350046FF7F751095C0
:100210000191026600005500C0050F095AA1028530
:1002200002092215012528350145287508950191F7
:1002300002095B095D150026FF0035004610279571
:10024000029102095C095E66031055FD26FF7F4698
:10025000FF7F7510910245006600005500C0095FE0
:10026000A1028503092215012528350145287508B5
:1002700095019102092315002501350045017504FA
:10028000950191020958A1020B01000A000B02001E
:100290000A00750295029102C01580257F36F0D8BC
:1002A000461027096075089501910236F0D846106E
:1002B000270961096295029102150026FF003500A9
:1002C000461027096309647508950291020965467D
:1002D000102795019102C0096EA10285040922151B
:1002E00001252835014528750895019102097015E9
:1002F0000026FF0035004610277508950191020978
:100300006F1580257F36F0D8461027950191020998
:100310007166140055FE150026FF00350047A08CBD
:1003200000009102097226FF7F46FF7F6603105589
:10033000FD7510950191026600005500C00973A17A
:1003400002850509221501252835014528750895DE
:1003500001910209701601FF26FF0036F0D8461001
:1003600027751095019102C00974A1028506092222
:100370001501252835014528750895019102097553
:1003800009761580257F36F0D84610277508950226
:100390009102C00966A102850805010930093115DD
:1003A00081257F350046FF00750895029102C00542
:1003B0000F0977A102850A09221501252835014573
:1003C000287508950191020978A1020979097A092D
:1003D0007B15012503750895019100C0097C150066
:1003E00026FF00350046FF009102C00990A102855A
:1003F0000B0922252815013501452875089501911D
:1004000002C00996A102850C099709980999099AD1
:10041000099B099C15012506750895019100C009E5
:100420007DA102850D097E150026FF0035004610CE
:1004300027750895019102C009ABA102850F092516
:10044000A102092609270930093109320933093483
:1004500009400941094209430928250315013501CD
:10046000450375089501B100C00501093B1500263B
:10047000FF01350046FF01750A9501B1027506B10D
:1004800001C0050F0989A10285020922252815014D
:100490003501452875089501B102098BA102098C27
:1004A000098D098E25031501350145037508950150
:1004B000B100C009AC150027FFFF0000350047FF61
:1004C000FF000075109501B100C0097FA1028503EE
:1004D0000980751095011500350027FFFF000047C2
:1004E000FFFF0000B102098326FF0046FF007508E8
:1004F0009501B10209A909AA750195021500250106
:1005000035004501B10275069501B103C00901A18D
:1005100001150026FF0075088510950D0900B2022F
:1005200001851195050900B202018515950D090097
:10053000B2020185169600010900B20201851795E5
:10054000300900B20201851295080900B202018546
:1005500013951C0900B20201851895C00900B2026A
:1005600001851495C40900B20201C0C011241FBE48
:10057000CFEFD8E0DEBFCDBF12E0A0E0B1E0ECE607
:10058000F6E602C005900D92A234B107D9F727E034
:10059000A2E4B2E001C01D92A035B207E1F70E94CB
:1005A000112D0C9434330C940000CF93C62F20915E
:1005B000C80224FF07C02091C90238E823272093EE
:1005C000C90203C02AE52093C802DC01EAECF2E08C
:1005D0009C2F9E0F8D918193892F8E1B1816D4F31B
:1005E0006C2F8AEC92E00E94352BCC5FC093C8023E
:1005F000CF910895CF93DF936091D902635067FD47
:10060000DFC08091D602CCE0D0E0C81BD109C35234
:10061000DD4F8091D502803120F4CE010E94AE07DB
:10062000C9C08D3209F0B3C0683009F0C3C083EC93
:100630008093BD028AE58093020110924202888174
:10064000807621F0CE010E94B30689C09A81109273
:10065000C6028981811107C01092C70226EC32E0E0
:1006600082E090E078C0853019F49093DA026FC090
:10067000863009F055C08B81813011F0823029F429
:10068000CE010E948B0620E048C0833081F5911195
:100690000AC08CE790E09093D8028093D70220E4C0
:1006A00084E090E03AC0913051F488E690E0909375
:1006B000D8028093D70220E484E190E02EC09230EB
:1006C00051F48EE391E09093D8028093D70220E01A
:1006D00082E290E022C09330E9F480E691E09093CA
:1006E000D8028093D70220E08AE090E016C08132E1
:1006F00051F486E592E09093D8028093D70220E4EB
:1007000089E090E00AC0823229F4CE010E948B0673
:1007100020E403C020E480E090E0209342021FC068
:10072000883069F0893019F49093DC0210C08A3067
:1007300049F08B3061F48BE48093C90208C02CED42
:1007400032E002C026EC32E081E090E004C026EC0A
:1007500032E080E090E03093D8022093D7028F3FC0
:100760002FEF920749F4288127FF02C08E819F81D5
:1007700020E82093420206C02E813F8128173907C6
:1007800008F4C901909301018093000113C0809186
:10079000420287FF0FC0CE010E941A088F3F21F44A
:1007A0008EE18093020106C0882321F0109201019E
:1007B000109200018091D902181614F41092D902F7
:1007C0008091020184FF54C0809100019091010149
:1007D0008F3F2FEF920709F44BC0BC018930910580
:1007E00010F068E070E0861B970B909301018093F6
:1007F00000018091BD0298E889278093BD02C62F31
:10080000662331F12091D7023091D80280914202C3
:1008100086FF0BC0AEEBB2E0F901862F8A0F9491F0
:100820009D9331968A13FBCF09C0D901EEEBF2E01C
:10083000862F8E0F9D9191938E13FCCF8FEF8C0F8F
:1008400090E00196820F931F9093D8028093D70275
:100850006C2F8EEB92E00E94352BCC5FCC3031F0C8
:100860008FEF9FEF9093010180930001C0930201ED
:1008700084E199B1957031F48150D9F71092DA0280
:100880001092D402DF91CF910895E9E6F0E08081E3
:1008900082608083E89A8BE48093C9028AE5809322
:1008A000C802089590E890934C0290934D028FE710
:1008B00080934A0280934B0290934802909349029E
:1008C000809346028093470208950F931F93CF931E
:1008D000DF9380E290E00E940A33813081F083E16F
:1008E00090E00E940A33809356028F3FB9F4109231
:1008F000560260E083E190E00E9422330FC00FE0D7
:1009000013E0C1E2D0E0CE010E940A33F8018193E6
:100910008F012196C933D105B1F7E1CF84E190E091
:100920000E940A33809307038F3F39F41092070324
:1009300060E084E190E00E94223389E190E00E942F
:100940000A338F3F29F469E189E190E00E94223364
:1009500086E190E00E940A3380930E038F3F39F4C2
:1009600010920E0360E086E190E00E94223387E15E
:1009700090E00E940A33809304038F3F39F4109271
:10098000040360E087E190E00E94223388E190E078
:100990000E940A3380936A018F3F39F410926A01F2
:1009A00060E088E190E00E9422338CE190E00E94B8
:1009B0000A33813F48F088E08093290668E08CE1A3
:1009C00090E00E94223303C0885F809329068DE166
:1009D00090E00E940A3380933706813F48F087E019
:1009E0008093290667E08DE190E00E94223303C0E6
:1009F000885F809337068EE190E00E940A33813F42
:100A000048F085E08093F50265E08EE190E00E9479
:100A1000223303C0885F8093F5028FE190E00E944B
:100A20000A33813F60F086E08093060366E08FE141
:100A300090E0DF91CF911F910F910C942233885F4A
:100A400080930603DF91CF911F910F91089588E164
:100A50000FB6F89480936000109260000FBE51981A
:100A600059982FE78CEF9AE0215080409040E1F7B1
:100A700000C00000F894E0E0F8E70994CF9314B8C0
:100A800017B88FEF85B988B98AB188618AB95C983F
:100A90005B9A80910C03811102C00E94FA0287EBDD
:100AA0009BE00197F1F700C0000086B18F3641F45A
:100AB0000E94DA1E9093020380930103C0E328C1D1
:100AC0000E940B119093020380930103DC01ED91CE
:100AD000FC910995E0910103F09102030480F581F6
:100AE000E02D0995C82F811113C1549A5C98539831
:100AF0005B9A17B88FEF88B987E293E20197F1F715
:100B000000C000004B9913C086B18F3781F483B1C8
:100B10008F3369F4209A289800001C9B08C00E941B
:100B2000DA1E9093020380930103CAE2F1C096B1EA
:100B30005C985B9AA0E2AA95F1F780EC87B98FE305
:100B400088B98AB188618AB95B985C9AB0E2BA9533
:100B5000F1F786B18B3041F40E94DA1E90930203C4
:100B600080930103C2E2D4C086B18D3351F49F3724
:100B700041F40E94DA1E9093020380930103C1E0C6
:100B8000C7C00E9456179093020380930103DC01B3
:100B9000ED91FC910995E0910103F091020304802D
:100BA000F581E02D0995C82F8111B2C00E94C2279E
:100BB0009093020380930103DC01ED91FC91099570
:100BC000E0910103F09102030480F581E02D099585
:100BD000C82F81119DC00E943B25909302038093F2
:100BE0000103DC01ED91FC910995E0910103F09185
:100BF00002030480F581E02D0995C82F811188C07A
:100C00000E94FF189093020380930103DC01ED9191
:100C1000FC910995E0910103F09102030480F581B4
:100C2000E02D0995C82F811173C00E94D80E9093B2
:100C3000020380930103DC01ED91FC910995E091A1
:100C40000103F09102030480F581E02D0995C82F7E
:100C5000882361F08D3219F0833109F059C00E9468
:100C60007C29909302038093010352C00E941D2BA4
:100C70009093020380930103DC01ED91FC910995AF
:100C8000E0910103F09102030480F581E02D0995C4
:100C9000C82F81113DC00E94951F9093020380933D
:100CA0000103DC01ED91FC910995E0910103F091C4
:100CB00002030480F581E02D0995C82F811128C019
:100CC0000E941A229093020380930103DC01ED91AC
:100CD000FC910995E0910103F09102030480F581F4
:100CE000E02D0995C82F811113C00E94DA1E909340
:100CF000020380930103DC01ED91FC910995E091E1
:100D00000103F09102030480F581E02DCF91099455
:100D10008C2FCF910895FC012181263009F5838124
:100D20008230A9F0823259F08130D1F48CE291E026
:100D30009093D8028093D70282E190E0089580E8F2
:100D400090E09093D8028093D7020C94D60B83E066
:100D500091E09093D8028093D70289E290E00895C1
:100D600080E090E008950F931F93CF93DF93FC01F1
:100D7000A7E2B3E080E092E0ED019C0119922150DE
:100D80003040E1F7B093D802A093D70280818076FB
:100D9000803209F0D9C082819381923009F4D7C0A2
:100DA0002181213009F0C6C0833091F4933009F0DD
:100DB000CBC084E1809350029093270320932803B3
:100DC000209329038FEF80932A0320932B0312C0D3
:100DD000823099F4933009F0B7C080932703809153
:100DE0006102809328032093290384E680932B03D8
:100DF00080932A0385E090E0ACC0873189F420938A
:100E0000500207E213E0C0E1D0E0CE010E940A33B5
:100E1000F80181938F012196C034D105B1F781C0CB
:100E2000853189F481E190E00E940A3380932703A1
:100E3000EAE2F6E0A8E2B3E081918D9326E0E633A2
:100E4000F207D1F771C08631F1F481E190E00E94A0
:100E50000A33809327038091270590E0AC014F5F10
:100E60005F4F61E0262F30E04217530754F0F9013D
:100E7000E95DFC4FD901AA5DBA4F2C9120836F5FC9
:100E8000F1CF029666C08831C1F42093500281E10F
:100E900090E00E940A338093270308E213E0C0EA3F
:100EA000D0E0CE010E940A33F80181938F01219690
:100EB000C036F1E0DF07A9F73AC0813109F044C03C
:100EC00080910903809327032091040348E0249F25
:100ED0009001112480910703C0E18C9FC00111246F
:100EE000282B8091F702282B80910E03D0E48D9F50
:100EF000C0011124282B8091F602E0E88E9FC001EA
:100F00001124282B209328038091510280932903D8
:100F10008091530280932A038091520280932B0385
:100F200069CF80E390E015C08DE090E012C081ECC5
:100F300090E00FC081E090E0293011F080E090E077
:100F400091958195910905C080E090E002C081E013
:100F500090E0DF91CF911F910F910895FC01808166
:100F6000843041F48181823008F463C082818093AF
:100F70006C010895813089F4683009F05AC091817C
:100F800080916302981709F454C08481882309F47E
:100F900050C0880F809360020895823009F449C0E0
:100FA000853041F48181813009F043C08281809392
:100FB0006D0108958A30E9F58381609160026230A5
:100FC00008F4682F81818130C1F48281E0910103AE
:100FD000F0910203833031F4109260020284F385B1
:100FE000E02D19C080916D018F3F19F4613009F433
:100FF0006FEF0284F385E02D1BC08230D0F0828138
:10100000E0910103F0910203833041F410926002F9
:101010000084F185E02D63E088EC0AC080916C01CA
:101020008F3F19F4613009F46FEF0084F185E02DF2
:1010300009940895DF92EF92FF920F931F93CF933D
:10104000DF93EC0131E0309350028091570281111F
:10105000A4C188818F3021F48981809361029BC172
:101060008251833008F097C199819432A9F48CEBB6
:10107000809358029093570284E0809359022496FB
:1010800000EA10E06991C8010E9422330F5F1F4FF0
:10109000043A1105B9F7AEC19230B9F485E18093F5
:1010A00058029093570284E08093590288E1EFE060
:1010B000F3E0DF011D928A95E9F7249689918193E7
:1010C000B3E0E331FB07D1F795C1953291F52A8161
:1010D000211112C08C81809338069D819093270541
:1010E0009E81909328059F8190932905843008F074
:1010F00052C1309303034FC12F3F19F4209138069A
:101100002550FE01339680E090E030E0295D3A4FB3
:101110004191D901A80FB91F4C93019685309105D3
:10112000B9F78A818F3F09F036C181E080930303CC
:10113000BAC1903289F48C81885F809329068D81B1
:10114000885F809337068E81885F8093F5028F8158
:10115000885F809306031FC1913009F0ADC08C8178
:101160008F3F09F090C08D81813069F56091070350
:1011700084E190E00E94223360910E0386E190E0CA
:101180000E9422336091040387E190E00E942233A1
:101190006091290668508CE190E00E9422336091B2
:1011A000370668508DE190E00E9422336091F5028D
:1011B00068508EE190E00E942233609106036850EF
:1011C0008FE190E05DC0823009F0E5C010925602D8
:1011D00060E083E190E00E9422331092070360E018
:1011E00084E190E00E94223310920E0360E086E1D9
:1011F00090E00E9422331092040360E087E190E0C7
:101200000E94223310926A0160E088E190E00E941F
:10121000223369E189E190E00E94223368E08CE1A9
:1012200090E00E94223380E18093290667E08DE1FF
:1012300090E00E9422338FE0809337066BE08EE1CE
:1012400090E00E94223383E18093F5026CE08FE10D
:1012500090E00E94223384E180930603EFE0F3E004
:1012600081E081938F5F8931E1F748E150E061E2ED
:1012700070E08FE093E00E94123361E080E290E042
:101280000E94223388C083FF04C091E0909304033E
:1012900002C01092040384FF04C091E090930703FE
:1012A00002C01092070386FF04C081E080930E0302
:1012B000FAC010920E036FC08CEF890F823070F568
:1012C0008C81882361F0813029F41D8111110AC0BD
:1012D0001FEF08C0823031F41D810E8104C010E080
:1012E00000E001C00FEF943051F4E0910103F09160
:1012F00002030284F385E02D602F812F09958981F7
:10130000853009F048C0E0910103F09102030084A8
:10131000F185E02D602F812F09953DC0983061F453
:101320006C8181E190E00E9422338D81882399F1C4
:1013300044E04A95F1F714C0903191F0903499F45B
:101340006C816093560281E0809304038D81882331
:1013500011F183E190E00E94223384E08A95F1F755
:101360000E94270518C0903861F460913B06609395
:101370006A0188E190E00E942233A4E0AA95F1F787
:101380000AC0933041F46C8189E190E00E942233DD
:10139000B4E0BA95F1F781E086C090915802F62E3C
:1013A000961708F4F92E823009F07BC0E0905902BC
:1013B000DE2C0F2D10E02D2D2E198D2D992787FD58
:1013C000909530915902A801430F511D841795073C
:1013D0009CF0809157028432B1F1809159028F0DB7
:1013E00080935902809158028F1980935802882364
:1013F00009F44DC080E057C0332727FD309548E100
:10140000FE01E20FF31FD41217C08081813071F406
:1014100061E080E290E00E94223348E150E061E226
:1014200070E08FE093E00E9412330BC06FEF80E218
:1014300090E00E94223305C02081FC01E15FFC4F57
:101440002083D394B8CF809150028F5F8093500255
:10145000E0905902D22EDE180F2D10E03D2D3E0DEA
:101460008E2D90E020915902A801420F511D841742
:1014700095070CF0B2CFFE01E30FF11D37FDFA9591
:10148000608180569F4F0E942233E394E7CF809182
:101490005702843219F481E080930B0310925702B3
:1014A0007ACF20E096CFDF91CF911F910F91FF90DF
:1014B000EF90DF90089544E14A95F1F79BB1956074
:1014C0009BB994E09A95F1F79BB19A7F9BB942E062
:1014D0004A95F1F720E732E0F9019E2F921B981709
:1014E0000CF598E0589A46E04A95F1F700C0408123
:1014F00040FD05C045E04A95F1F700C005C0589889
:1015000045E04A95F1F70000000040814695408390
:10151000915041F7589A93E09A95F1F70000589846
:101520003196DBCF8AB185608AB90895209A289ACE
:1015300028988AB18A7F8AB98BB185608BB934E0EB
:101540003A95F1F789B18570853011F4A895FACFF5
:101550004DE04A95F1F700C088E06FEF6695489B33
:10156000606890E19A95F1F78150C1F78AB1856082
:101570008AB98BB18A7F8BB9809180029091810268
:10158000009709F448C020917F022230C9F463FF1C
:1015900004C081E08093040302C01092040364FF3E
:1015A00004C081E08093070302C01092070366FF26
:1015B00004C081E080930E0324C010920E0321C06A
:1015C000243039F40197E9F481E190E00E9422335C
:1015D00018C0213041F4019719F460936F0111C0D4
:1015E00060936E010EC0233061F4E6E2F3E0E81B85
:1015F000F90B6083EFE0F3E081E081938F5F893145
:10160000E1F780918002909181020197909381028D
:1016100080938002C7C010927F02662309F4C4C081
:10162000613081F48091090380937002EBE3F6E06E
:10163000A1E7B2E081918D9336E0E834F307D1F76A
:101640008DE0AEC0623079F480913A0680937002EA
:10165000EAE2F6E0A1E7B2E081918D9346E0E7335C
:10166000F407D1F7EDCF613141F4E0910103F0913E
:1016700002030284F385E02D13C0623141F4E0914E
:101680000103F09102030284F385E02D17C0643159
:1016900061F4E0910103F09102030084F185E02DF3
:1016A00060916E0180916F0117C0683151F4E09133
:1016B0000103F09102030084F185E02D60E080E0F9
:1016C0000BC06A3159F4E0910103F09102030284E6
:1016D000F385E02D6AE08FEF099564C06B3141F42A
:1016E000E0910103F09102030084F185E02DF2CF37
:1016F0006C3151F482E090E09093810280938002FB
:1017000081E080937F020895603241F481E090E0AF
:10171000909381028093800282E036C0613209F5A5
:101720002091040388E0289F9001112480910703F1
:1017300040E1849FC0011124282B8091F702282BBF
:1017400080910E0330E4839FC0011124282B8091E7
:10175000F60240E8849FC0011124282B20937002D8
:101760001EC0623241F487E190E090938102809341
:10177000800283E009C0633251F481E090E09093ED
:1017800081028093800284E080937F020BC06F3FD0
:1017900019F46093700203C081EF8093700281E0BE
:1017A0000E945B0A81E0089580E008958CEE94E049
:1017B00008953D98459808950F931F93CF93DF9315
:1017C000662309F456C07727A0E0B0E040E050E07F
:1017D0009D0146175707ACF4189610E8FC01E40F7A
:1017E000F51F00810123E901C85BD94F08832F5FF2
:1017F0003F4F16952A173B07A1F74F5F5F4FD9015F
:10180000E7CF109709F435C0229A2A9AE898E8E4BD
:10181000F6E0CF93DF93EF93FF930191002311F054
:1018200061F418C000003D9A1CE011D000003D9802
:1018300000000000119789F70DC03D9A12E007D013
:101840003D9818E004D00000119739F703C01A95AD
:10185000F1F708950000FF91EF913D9ADF91CF914C
:1018600012E0F5DF3D980FEF0A9511F0359BFCCFA4
:101870002A98229A2A9AE8E4F6E0EF93FF93442705
:1018800000270395A1F03599FCCF08C00FE503951B
:1018900072F03599FCCF439551F001930FE5039514
:1018A00032F0359BFCCF439511F00193EFCFFF91C0
:1018B000EF912A98E89A842F90E00097A1F040FFDA
:1018C00012C0DF019D017081618151E0761708F03F
:1018D00050E05D9332965A2F521B5417A0F3019794
:1018E0009595879502C080E090E0DF91CF911F91A0
:1018F0000F910895CF93DF931F92CDB7DEB7198272
:1019000061E070E0CE0101960E94DC0B009759F176
:10191000489761F580E090E021E0FC01E85BF94F39
:10192000308131112160873011F0220F01C02F77F3
:1019300001968830910589F7293091F038F42530E7
:1019400061F02830B1F0233071F40AC0293E41F033
:101950002B3E31F0283A39F403C083E190E00BC00C
:1019600089E090E008C080E090E005C083E090E06E
:1019700002C082E190E00F90DF91CF910895089529
:101980009F92AF92BF92CF92DF92EF92FF920F930E
:101990001F93CF93DF93CDB7DEB760970FB6F89460
:1019A000DEBF0FBECDBF80910303882309F460C062
:1019B0006091380670E020E0822F992787FD90958E
:1019C000861797076CF4E9E0F0E0EC0FFD1FE80FD5
:1019D000F91FDC01A95DBA4F8C9180832F5FECCF9A
:1019E000CE0109960E94DC0B21E031E0E7E2F5E050
:1019F000DF01A9011D9241505040E1F7869586957F
:101A00008695682F70E090E000E810E0292F3327DA
:101A100027FD30952617370734F5A901E3E0440F79
:101A2000551FEA95E1F7D901A85DBA4FFC9020E077
:101A300030E0F901E40FF51FE85BF94FE081EE2398
:101A400041F0F801022E02C0F595E7950A94E2F7FD
:101A500001C0E0E0FE2A2F5F3F4F2830310549F7F3
:101A6000FC929F5FD3CF80932705109203034EC053
:101A7000809182028F3F79F0882321F081508093FA
:101A8000820209C0109289021092880284E0809339
:101A90007C01109283020E947A0C8093840283312D
:101AA00009F433C181110EC080918702811103C0F6
:101AB00081E08093F70281E090E09093860280932A
:101AC000850227C1109287028E01075F1F4F823166
:101AD00049F480E3898780917C018A878091830221
:101AE0008B870DC080E4898783E08A8721E080911D
:101AF000880290918902892B09F420E02B8763E00A
:101B000070E0C8010E94DC0B803421F081E08093FA
:101B10000803FFC086E0EEE3F6E0DF011D928A9540
:101B2000E9F7D0903E0690903F06A0904106B09015
:101B3000420690914006C090430620E030E040E825
:101B400050E0822FF901E85AF94F6081662341F095
:101B5000BA01022E02C0759567950A94E2F701C09A
:101B600060E0D62AD901A05AB94F6C91611109C021
:101B70007A01082E02C0F594E7940A94E2F7FE2C4D
:101B800001C0F12CF928D901A859B94F6C916623ED
:101B900041F0DA01082E02C0B595A7950A94E2F744
:101BA00001C0A0E0EA2EEA28D901A059B94F6C91F2
:101BB000611108C0FA01082E02C0F595E7950A9454
:101BC000E2F701C0E0E0BE2AF901E858F94F608170
:101BD000662341F0BA01082E02C0759567950A94F4
:101BE000E2F701C060E0692BF901E058F94F9081FC
:101BF000992341F0FA0102C0F595E7958A95E2F73D
:101C0000CF0101C080E0C82A2F5F3F4F2830310547
:101C100021F09F2CAE2C962F94CFD0923E06F092BE
:101C20003F06E0924106B092420660934006C092A1
:101C3000430688E0E2E1F2E0DE01119601900D92A8
:101C40008A95E1F790913B06FE01319683E0A82F3B
:101C5000BB27A7FDB095A85BB94F2C91222311F0AB
:101C60002081922B282F8F5F883011F482E0820F21
:101C70003196E017F10759F790933B06809154068F
:101C8000882329F0809146068460809346068091DF
:101C90005506882329F08091460688608093460681
:101CA00080915606882329F08091460680628093B1
:101CB000460680915706882329F080914606806168
:101CC0008093460680918402823119F480E88093E3
:101CD0003E0680913E06811118C0E11016C0809129
:101CE0004506811112C0FFEFFF120FC080E88093FC
:101CF0004506809343068093400680934206809376
:101D0000410680933F0680933E0610928602109211
:101D1000850260960FB6F894DEBF0FBECDBFDF918F
:101D2000CF911F910F91FF90EF90DF90CF90BF90D8
:101D3000AF909F9008950E94D90B0E947A0C8093D7
:101D4000840281E0809387020C94C00C609382022D
:101D5000882361F021E030E03093890220938802EB
:101D600096E090937C0180938302089510928902FB
:101D70001092880284E080937C011092830208957F
:101D80000C94A60E81E08093870281E090E090930E
:101D90008602809385020E94C00C809185029091FA
:101DA0008602892B19F480918402089580E00895B9
:101DB00080E791E0089508950895089586B193B15C
:101DC00085FB442740F9282F207130E053E03595FA
:101DD00027955A95E1F7422B9072492B282F2870AE
:101DE00030E035952795422B982F9470990F942BBE
:101DF0008270880F880F880F892B08958AB18861B7
:101E00008AB95C985B9A84B18F7C84B985B1806310
:101E100085B9389A409A87B1817C87B988B18F6338
:101E200088B90895409887EB9BE00197F1F700C0CF
:101E30000000419A87EB9BE00197F1F700C000009A
:101E400026B1419887EB9BE00197F1F700C00000B5
:101E500086B1409A8C7334E0839FC00111242C73A7
:101E600026952695822B0895EF92FF920F931F934C
:101E7000CF93DF93EC01409A80E58A95F1F70E94B9
:101E8000DE0EE82E409890E49A95F1F70E94DE0E5F
:101E9000F82E409A80E58A95F1F7409890E49A955B
:101EA000F1F70E94DE0E082F409A80E58A95F1F73F
:101EB000409890E49A95F1F70E94DE0E182F409A10
:101EC00080E48A95F1F70E94DE0E409890E59A959D
:101ED000F1F7409AE882F9828A830B831C83DF91B1
:101EE000CF911F910F91FF90EF900895FF920F9364
:101EF0001F93CF93DF93CDB7DEB728970FB6F89433
:101F0000DEBF0FBECDBF809109038730E1F4109290
:101F10003B060E94DE0E84FD05C080913B06816079
:101F200080933B0614E004E60E94DE0E85FDCEC0E1
:101F300024E02A95F1F70150B9F788EF8A95F1F777
:101F4000115089F7E8C0873111F08633C9F50E9436
:101F5000120F8095982F9F709F3081F496E3909395
:101F6000090390E098279F73982784FB93F985FBDA
:101F700092F990933B060E94120F809520913B06A8
:101F800090E084FB95F985FB94F986FB90F987FB3B
:101F900091F9922B90933B0620E080FB24F981FB82
:101FA00023F982FB25F983FB22F92093460686B1AB
:101FB000813009F4B0C086B1813409F058C0ABC09B
:101FC000883109F048C0409A14B8539A5B9A88B196
:101FD0008FEF88B9399887EB9BE00197F1F700C044
:101FE000000086B186B186B186B186B180958C73CA
:101FF00090E082FB95F983FB94F984FB93F985FBD0
:1020000092F99093460688E0EAE1F2E0DE0111964B
:1020100001900D928A95E1F7399A41985B98FE01FB
:102020003896CE01419A419824E02A95F1F71D99FE
:1020300006C0208130913B06232B20933B0631972D
:10204000E817F90779F7419A419854E05A95F1F762
:102050001D9B61C00CC08AB188618AB95C985B9A8B
:10206000CE0101960E94340F8A818F3321F481E0E2
:102070008093F70250C029812095482F40953B81DD
:10208000309554E0259FC00111248C73809346063F
:1020900090E044FB90F945FB95F980E024FB81F941
:1020A00025FB87F9892B80933B0690910903953195
:1020B00091F590E030FB96F931FB93F932FB92F900
:1020C00033FB94F9982B90933B0625C00E94DE0EBB
:1020D000082F98E09A95F1F70E94DE0E85FF30CF29
:1020E00058EF5A95F1F70E94DE0E85FD29CF0E9428
:1020F000DE0EF82E88E08A95F1F70E94DE0E85FD4F
:102100001FCF902F9295907F8F2D8F70982B90934B
:10211000450690933D0628960FB6F894DEBF0FBE95
:10212000CDBFDF91CF911F910F91FF900895FF9246
:102130000F931F93CF93DF9300D000D01F92CDB7A2
:10214000DEB786B1833429F483E088B987B987E1A3
:1021500057C00E94DE0E84FD14C00E94FE0E28E2CD
:102160002A95F1F7CE0101960E94340F8FE697E190
:102170000197F1F700C0000089818F708F30E9F47A
:1021800015C07AE0F72E082F10E00E94DE0E992786
:1021900087FD90950817190771F587E592E001977B
:1021A000F1F700C00000FA9481F7D7CF8D8180311C
:1021B00031F1833311F1803311F15B9887EB9BE0B0
:1021C0000197F1F700C00000539A399A419814B86A
:1021D00013B89CE080E0419A419824E02A95F1F7F9
:1021E0001D9B8F5F9150B9F78350893010F488E1BF
:1021F00007C080E005C087E003C084E101C085E13D
:102200000F900F900F900F900F90DF91CF911F9133
:102210000F91FF9008958DE791E008950895089536
:1022200008951092950110928D0210928E021092D4
:102230008C0210928A028AB188618AB95C985B9A92
:102240003A9A4298089587B190919102892B87B963
:1022500087B190919202892B87B990919002292F92
:10226000209580919302822380939302809194021F
:10227000892B8093940288B190919202892B88B91E
:1022800098B1809191028095892388B9089581E061
:102290008093920282E08093910280E28093900288
:1022A00083B180938F0285B18093940284B180932F
:1022B00093023C9A449A3D9A45980E94231180913A
:1022C0000C03811102C00E94FA028DEE92E0019788
:1022D000F1F700C0000080910C03811102C00E9440
:1022E000FA028DEE92E00197F1F700C000008091B4
:1022F0000C03811102C00E94FA028DEE92E0019758
:10230000F1F700C0000080910C03811102C00E940F
:10231000FA028DEE92E00197F1F700C0000087B15C
:1023200085B115B887EB9BE00197F1F700C000007D
:1023300085B18FEF85B920E180E038B190919202AC
:102340009095932398B998E09A95F1F798B13091C8
:102350009202932B98B998E09A95F1F793B1309146
:102360009002932309F08F5F215039F7982F9D7FBA
:102370009C3021F481E080938E0207C0813029F0E7
:10238000823029F481E080938D0289E108958430C0
:1023900089F3873009F43DC13C98449A3D98459AA9
:1023A00080E28093920280E18093910288E08093A2
:1023B000900286B180938F0288B18093940287B196
:1023C000809393020E942311449A90E020E038B158
:1023D000809192028095832388B986B130919002D2
:1023E000832319F491310CF02F5F88B13091920260
:1023F000832B88B99F5F903251F7243021F48AE112
:1024000080930903089598B1809191028095892362
:1024100088B988B190919102892B88B980E38A9517
:10242000F1F798B1809191028095892388B988B19C
:10243000836088B987B18C7F87B987EB9BE0019770
:10244000F1F700C0000030E220E080E096B140915A
:102450009002942309F48F5F30992F5F48B19091D7
:1024600092029095942398B998E19A95F1F798B1D2
:1024700040919202942B98B998E19A95F1F73150D6
:1024800029F796B1903219F4243009F4C4C02150D0
:102490002F3128F481E0809390028EE108958831F5
:1024A00009F4BBC0803109F4BAC0813019F48093BB
:1024B0008B02B5C096B1993219F096B1993629F4CC
:1024C00081E0809390028CE10895813509F4A9C0E0
:1024D0008D3009F4A6C0823109F4A3C088E080934E
:1024E000920282E08093900286B180938F0288B13D
:1024F0008093940287B1809393020E942311539A90
:102500005B983D9A459A97B1809190028095892376
:1025100087B988B190919002892B88B93C98449AE8
:10252000259A2D98209A389A80910C03811102C027
:102530000E94FA028DEE92E00197F1F700C00000D0
:1025400080910C03811102C00E94FA028DEE92E08C
:102550000197F1F700C0000080910C03811102C0C7
:102560000E94FA028DEE92E00197F1F700C00000A0
:1025700080910C03811102C00E94FA028DEE92E05C
:102580000197F1F700C0000087B185B115B887EB5E
:102590009BE00197F1F700C0000085B18FEF85B98E
:1025A0002D9A409A90E39A95F1F72D98409830E251
:1025B00020E090E086B140919002842309F49F5F6F
:1025C000349B2F5F48B1809192028095842388B913
:1025D000289888E18A95F1F788B140919202842B7E
:1025E00088B9289A88E18A95F1F7315019F788EF70
:1025F000890F823020F481E080938B0214C09831DF
:1026000091F021502F3188F480E18093900285E38E
:10261000089585E2089584E2089581E108958BE1AB
:1026200008958DE1089584E3089580E008958091F0
:102630000903853219F0893109F0B8C18FEF809311
:102640008F0280918E02882311F198B180919202BD
:102650008095892388B928E02A95F1F788B190916F
:102660009202892B88B938E03A95F1F798B18091B8
:1026700092028095892388B958E05A95F1F788B17C
:1026800090919202892B88B988E08A95F1F7809120
:102690008D02882389F098B18091920280958923D8
:1026A00088B998E09A95F1F788B190919202892BB8
:1026B00088B928E02A95F1F728E091E0990F38B120
:1026C000809192028095832388B938E03A95F1F79A
:1026D00083B130919002832309F0916088B13091E9
:1026E0009202832B88B958E05A95F1F7215031F7BF
:1026F00038E081E0880F48B1209192022095242390
:1027000028B928E02A95F1F723B1409190022423BB
:1027100009F0816028B140919202242B28B958E039
:102720005A95F1F7315031F78F3F21F420919501FF
:102730002111C3C221E02093950120910903253284
:1027400009F00FC198E028B1809192028095822310
:1027500088B98CE08A95F1F783B188B12091920213
:10276000822B88B928E02A95F1F7915061F798E01B
:1027700041E0440F28B1809192028095822388B96C
:1027800038E03A95F1F783B120919002822309F065
:10279000416088B120919202822B88B958E05A9505
:1027A000F1F7915031F798B1809192028095892389
:1027B00088B988E08A95F1F788B190919202892BC7
:1027C00088B998E09A95F1F798B180919202809536
:1027D000892388B928E02A95F1F788B1909192026F
:1027E000892B88B938E03A95F1F798E031E0330F5A
:1027F00028B1809192028095822388B958E05A9539
:10280000F1F783B120919002822309F0316088B101
:1028100020919202822B88B988E08A95F1F7915035
:1028200031F798E021E0220F58B180919202809513
:10283000852388B958E05A95F1F783B150919002F9
:10284000852309F0216088B150919202852B88B9C7
:1028500088E08A95F1F7915031F798B18091920212
:102860008095892388B998E09A95F1F788B190917D
:102870009202892B88B958E05A95F1F798B1809166
:1028800092028095892388B988E08A95F1F788B10A
:1028900090919202892B88B998E09A95F1F758E0C7
:1028A00091E0990F68B1809192028095862388B952
:1028B00088E08A95F1F783B160919002862309F050
:1028C000916088B160919202862B88B988E08A95E0
:1028D000F1F7515031F768E081E0880F78B15091FD
:1028E00092025095572358B958E05A95F1F753B1D1
:1028F00070919002572309F0816058B17091920253
:10290000572B58B958E05A95F1F7615031F7409379
:102910003E0630933F062195220F220F225020932E
:10292000440620E080FB27F981FB26F982FB24F98D
:1029300083FB25F930E038273F7C382786FB33F9C5
:1029400087FB32F93093460650E05927557F5927C7
:1029500090FB52F992FB50F9952F922B90933B06E6
:10296000A1C220913B06322F82FB30F983FB31F963
:1029700030933C0630E091FB34F992FB35F993FB40
:1029800032F994FB33F93093460690FF03C021607F
:1029900020933B0690913B0698279F7C982786FBC7
:1029A00097F987FB91F990933B067CC295EE980FBF
:1029B000943048F0813139F09CEC980F923018F047
:1029C000843209F0E6C198B1809190028095892304
:1029D00088B9809109038453823068F4259A2D9A2E
:1029E0008CE28A95F1F72D98389A409A9CE29A9554
:1029F000F1F7409805C088B190919102892B88B970
:102A000020E32A95F1F798B180919102809589236E
:102A100088B980910903982F9D7F9C3111F08432F1
:102A200069F488B1836088B987B18C7F87B958E031
:102A300040E020E030E090E061E011C08533B9F77C
:102A4000449A3C98F4CF853369F5289888E18A95B3
:102A5000F1F7289A88E18A95F1F75150A9F1990F79
:102A6000220F440F330F80910903843311F08D310D
:102A700029F488B170919002872B88B986B1709142
:102A80009002872311F491603160809109038432B0
:102A9000D1F686B181708627282B86B18695817004
:102AA0008627482B78B1809192028095872388B938
:102AB00088E18A95F1F788B170919202872B88B9E5
:102AC00082E18A95F1F7C9CF80910903843249F5F3
:102AD000211103C081E08093F70280E084278F7387
:102AE000842741FB83F980933B0680E024FB85F932
:102AF00026FB80F927FB81F990E040FB94F942FB2B
:102B000097F943FB93F944FB96F945FB92F9492F5A
:102B1000482B40933C0630E025FB30F930933D06CE
:102B200008959F3F69F48B3109F4C7C0813109F4DE
:102B3000C4C0843329F420918B02211153C0BDC03D
:102B40008C3139F510923B0684E6319B04C08FE04E
:102B500080938C0205C058E25A95F1F78150A9F78D
:102B600090918C02992341F080913B068260809382
:102B70003B06915090938C02309905C080913B06A2
:102B8000816080933B0680E880933F0680933E06F9
:102B900008958E3111F0853329F590E890933F0622
:102BA00090933E0690918A0294361CF49F5F909316
:102BB0008A0290918A02943619F4332309F47DC075
:102BC000853321F4399888E28A95F1F7319B03C067
:102BD00010923B0603C081E080933B063095309312
:102BE0004406089520E090FB25F991FB24F992FB1F
:102BF00023F993FB22F92093460620913C0630E00E
:102C000022FB35F923FB34F924FB33F925FB32F998
:102C100030933C0620E094FB25F995FB24F996FBC4
:102C200020F997FB21F920933B06813109F43DC13E
:102C300020918B02843319F4222309F436C1211127
:102C400002C068E001C068E130E040E020E080E0E0
:102C5000383014F4880F07C058EF530F583010F471
:102C6000220F01C0440F56B170919002572359F4BE
:102C7000383014F4816007C058EF530F583010F407
:102C8000216001C0416078B1509192025095572364
:102C900058B958E15A95F1F758B170919202572BF3
:102CA00058B958E15A95F1F73F5F36178CF23091D9
:102CB0000903811106C03D3121F481E08093F702C0
:102CC00008953D3111F520E094FB25F995FB24F999
:102CD00096FB22F997FB23F9922F20E082FB21F942
:102CE00083FB20F984FB27F985FB26F9292B209308
:102CF0003B0690913C0630E086FB30F987FB31F9CA
:102D0000832F892B80933C06CDC03B31B1F450E03A
:102D100094FB55F995FB54F996FB52F997FB50F942
:102D2000952F50E084FB57F985FB56F986FB53F944
:102D300087FB51F9592B50933B0690918B029923B5
:102D400009F4B0C0343311F0822F242F880F811D75
:102D5000082E01FA87F902FA86F903FA85F905FACD
:102D600083F906FA82F907FA81F980933C06220F6B
:102D7000211D022E01FA26F902FA27F903FA25F994
:102D800005FA23F906FA22F907FA21F920933D06FC
:102D900089C08A3109F086C088B190919102892B4F
:102DA00088B928E090913B06990F90933B0638B183
:102DB000809192028095832388B986B130919002E8
:102DC000832319F4916090933B0688B1909192020D
:102DD000892B88B9215031F780913B06082E00FAE3
:102DE00085F901FA84F902FA86F904FA82F905FAFA
:102DF00080F906FA81F980933B0682E090E021E0B9
:102E000030E058B1409192024095452348B946B10F
:102E100050919002452359F460914606A901082E6D
:102E200001C0440F0A94EAF7642B6093460648B148
:102E300050919202452B48B901968630910509F7C9
:102E40008091460690E082FB92F983FB95F984FB22
:102E500093F985FB94F99093460680E298B120910E
:102E60009202922798B98150C9F798B18091920245
:102E70008095892388B980919501882341F086B196
:102E800090919002892319F081E08093F70288B134
:102E900090919202892B88B998B180919102809586
:102EA000892388B981E080939501089589E891E0AC
:102EB0000895089508950895282F220F2A7A869557
:102EC0008575282B34E0239FC00111248C7C269526
:102ED00026952373822B8295089583EC87B98FE31F
:102EE00088B910929502089587EB9BE00197F1F75E
:102EF00000C0000088B1836088B99CE19A95F1F721
:102F000086B18695869598B19D7398B990E29A9509
:102F1000F1F7823011F483E00895883021F0833096
:102F2000D1F380E0089588E00895AF92BF92CF92E8
:102F3000DF92EF92FF920F931F93CF93DF9388B1AD
:102F4000836088B93CE13A95F1F716B1169516956C
:102F500041988CE18A95F1F71F3021F481E080934C
:102F6000F70242C18EEF810F823090F586B18095D5
:102F70008C730E945C17809346061095117088B17F
:102F800093E0892788B99CE19A95F1F786B18095FD
:102F900090E082FB95F983FB90F984FB97F985FB20
:102FA00091F988B18C7F88B93CE13A95F1F706B187
:102FB000009580E003FB82F904FB83F905FB86F9A9
:102FC000082F092B329B126088B18C7F88B9F8C01A
:102FD000C0E042E0F42ED0E050E8D52E60E8E62EC6
:102FE00070E8C72EE0E8BE2E10E000E0AA24A3940B
:102FF0009CE19A95F1F7409B04C088B18C7388B925
:1030000001C0409A3CE13A95F1F7C1110AC00000B5
:10301000000000000000000000000000000086B179
:10302000C2C0C130E1F40000000000000000000058
:10303000000000000000F6B0F09480E0F2FA83F99E
:10304000F3FA82F9F4FA81F9F5FA80F9863011F48D
:10305000A0929502F82EFF0CF394F394A4C0C23012
:1030600091F40000000000000000000000000000DB
:1030700000000000000086B180958C730E945C17F0
:103080008093460690C0C330A9F400000000000001
:103090000000000000000000000086B1809590E074
:1030A00082FB95F983FB90F984FB97F985FB91F9F5
:1030B000892F16C0C430B1F40000000000000000E9
:1030C0000000000000000000329B126086B1809575
:1030D00030E083FB32F984FB33F985FB36F9832F2B
:1030E000082B61C0C530A1F4000000000000000002
:1030F0000000000000000000329B1160339901C005
:103100000000349901C0000035994DC000004BC04B
:10311000C63081F1C73061F426B12695269530E19D
:10312000239FC00111248D2B0E945C17B82E3BC039
:10313000C83001F1C93061F426B12695269530E1F9
:10314000239FC00111248D2B0E945C17C82E2BC019
:10315000CA3081F0CB3061F426B12695269530E156
:10316000239FC00111248D2B0E945C17E82E1BC0E9
:10317000CC3061F4000000000000000000000000FE
:1031800000000000D6B1D695D6950DC0CD3059F4CB
:1031900026B12695269530E1239FC00111248D2B61
:1031A0000E945C17D82ECF5FCF150CF421CF88B1C9
:1031B000836088B98CE18A95F1F79CE1F91208C027
:1031C00080E8D82E90E8E92E20E8C22E30E8B32E11
:1031D000B0923E06C0923F06D0924006E09243066F
:1031E00000933B0610933C06DF91CF911F910F9106
:1031F000FF90EF90DF90CF90BF90AF90089586E959
:1032000091E0089508950895089581E080937C00E9
:1032100083E880937A0017B88FEF88B914B885B91E
:103220000895DF92EF92FF920F931F93CF93DF9356
:10323000D82EFB01D701E9019881809598239883C6
:103240009C9198239C93DA019C9191609C9390812E
:103250009E7F9083CFE6D7E12197F1F700C0000071
:1032600090819160908380E0F80190819D2119F414
:103270008F5F8E3FC9F7DF91CF911F910F91FF9024
:10328000EF90DF900895EF92FF920F931F93CF93EB
:103290008AB188618AB95C985B9A83B18E3309F4EC
:1032A0007CC083B18B3309F47AC025982D9A5B9842
:1032B00087EB9BE00197F1F700C0000083B18F31ED
:1032C00021F486B18F3709F46CC053982598389A49
:1032D000409887EB9BE00197F1F700C000004B9905
:1032E00002C01D9B52C017B88FEF88B914B885B9BA
:1032F00094E2E92EF12C03E210E025E230E047E20F
:1033000050E068E270E080E20E941119C82F2AE2C2
:10331000E22EF12C09E210E02BE230E047E250E02F
:1033200068E270E088E00E941119C250CC3F18F4A6
:1033300082508C3F60F1209A289800001C9B29C085
:1033400084E2E82EF12C03E210E025E230E044E2D2
:1033500050E065E270E088E00E94111925E230E05B
:1033600044E250E065E270E088E00E94111990E0CC
:103370000B978F3E910578F0549A5C98389A409A52
:1033800053981092090380E00DC08BE20BC089E2D4
:1033900009C081E307C086E005C089E303C088E374
:1033A00001C084E0CF911F910F91FF90EF9008959D
:1033B000EF92FF920F931F9317B88FEF88B914B84D
:1033C00085B980910903811105C0549A5C98389A97
:1033D000409A539880910903877F813329F48AB1F9
:1033E00088618AB95C985B9A87EB9BE00197F1F75B
:1033F00000C0000096B123B19095809109038A32F4
:1034000009F041C0549A5C9853985B9A91FF05C0AB
:103410008091460684608093460694FF05C08091A3
:10342000460688608093460693FF05C08091460655
:1034300080618093460692FF05C0809146068062B7
:103440008093460680913B064B9B02C08E7F01C055
:10345000816080933B062D982598389A409887E99B
:103460009AE30197F1F700C00000409A80E01D99AF
:1034700002C08F5FFCCF982F990F990F88EC891BA2
:103480008093440692C48C32B9F58AB1877E8AB99A
:103490008BB188618BB93C9A449887EB9BE001978C
:1034A000F1F700C0000080E880933F0680933E065D
:1034B0004B9905C0809146068460809346063299F8
:1034C00005C080913B06816080933B06309905C022
:1034D00080914606806180934606319905C08091AF
:1034E00046068062809346061D995FC48091460619
:1034F00088608093460659C48B3209F086C0389A9A
:10350000409A87B1837C87B988B1837C88B98AB1B6
:10351000877E8AB93D9A87EB9BE00197F1F700C05F
:1035200000004B9905C080913C06816080933C0669
:103530001D9905C080913C06826080933C063199BC
:1035400005C080913C06846080933C063D9887E5E9
:1035500092E00197F1F700C000003C9A87EB9BE0F6
:103560000197F1F700C000004B9905C080913C061F
:10357000886080933C061D9905C080913C0680615F
:1035800080933C06319905C080913C06806280930F
:103590003C063C983B9A87EB9BE00197F1F700C013
:1035A00000004B9905C080913C06806480933C06E6
:1035B0001D9905C080913C06806880933C06319936
:1035C00005C080913D06816080933D063B983A9A04
:1035D0008FE697E10197F1F700C000004B9905C015
:1035E00080913D06826080933D061D9905C08091C3
:1035F0003D06846080933D06319905C080913D066B
:10360000886080933D063A98D0C3863009F0FBC0AD
:103610003E98259A2D9A3D9A4598209A289A2B985B
:10362000239A8FE697E10197F1F700C000002398F5
:1036300080E01B9903C08F5F8E3FD9F790E0880F21
:10364000991F8F3F910519F010F08FEF90E0809354
:103650003F0646983E9A8FE697E10197F1F700C042
:1036600000003E9880E0369903C08F5F8E3FD9F707
:1036700090E0880F991F8F3F910519F010F08FEFA0
:1036800090E080933E068F3F39F480913F068F3F54
:1036900019F481E08093F7020000000000000000B0
:1036A0000000000017B814B88FEF85B988B98AB147
:1036B000877E8AB98BB188618BB93B9A43983B98D6
:1036C000000000000000000000000000339B05C067
:1036D00080913B06816080933B06399A41983998E6
:1036E000000000000000000000000000319B05C049
:1036F00080913B06826080933B063C9A449894E11B
:103700009A95F1F7199905C080913C0682608093E3
:103710003C061A9905C080913C06816080933C0666
:103720001C9905C080913B06806180933B064C99B3
:1037300005C080913C06846080933C063C98449A86
:103740003A9A429824E12A95F1F7199905C0809197
:103750003C06806180933C061A9905C080913C0626
:10376000886080933C061C9905C080913B0680626E
:1037700080933B064C9905C080913C068062809303
:103780003C063A98429A389A409884E18A95F1F733
:10379000199905C080913C06806880933C061A996F
:1037A00005C080913C06806480933C061C9905C04E
:1037B00080913B06846080933B064C9905C08091C4
:1037C0003D06816080933D063898409A539A5B98F5
:1037D00094E19A95F1F7199905C080913D068260B0
:1037E00080933D061A9905C080913D0688608093BC
:1037F0003D064C9905C080913D06846080933D064E
:1038000053985B9AD2C24091460630E092FB35F95C
:1038100093FB34F994FB33F995FB32F9342B309355
:103820004606843019F5549A5C98389A409A539811
:10383000539A5B9828E22A95F1F726B120955B9A76
:1038400088E28A95F1F796B19095892F8227309179
:103850003B06832B922396959170892B80933B0690
:103860001D9BA3C2816080933B069FC2803309F0F9
:10387000BDC017B89FEF98B98AB1877E8AB98BB15E
:1038800088618BB984B184B985B195B988E087B96D
:1038900087EF88B998E29A95F1F7309905C0809141
:1038A0004606806280934606319905C0809146069F
:1038B0008061809346064B9905C0809146068860DA
:1038C0008093460680E187B98FEE88B928E22A9571
:1038D000F1F7339905C080914606846080934606CF
:1038E00080E187B98FEE88B988E28A95F1F735993A
:1038F00005C080913B06816080933B064C9905C0D2
:1039000080913B06826080933B0682E087B98DEF11
:1039100088B998E29A95F1F7359905C080913D06EE
:10392000846080933D064C9905C080913C06806878
:1039300080933C06329905C080913C06806180935B
:103940003C061D9905C080913C06826080933C0630
:1039500081E087B98EEF88B928E22A95F1F7359989
:1039600005C080913D06886080933D064C9905C056
:1039700080913D06816080933D06329905C080911B
:103980003C06806280933C061D9905C080913C06F0
:10399000846080933C0617B88FEF88B9539A5B9880
:1039A00088E28A95F1F7359905C080913D068260DD
:1039B00080933D064C9905C080913C0680648093BD
:1039C0003C06329905C080913C06886080933C0695
:1039D0001D9905C080913C06816080933C068AB1A8
:1039E000877E8AB98BB188618BB9DFC1813019F0CC
:1039F000823209F0A8C08AB188618AB9319905C0BC
:103A000080913B06816080933B0680EC87B98FE311
:103A100088B95B985C9A90E29A95F1F7319905C064
:103A200080913B06826080933B0656B15695569531
:103A300021E030E0052E02C0220F331F0A94E2F786
:103A400040E080E090E0541302C0822B932B4F5F44
:103A50004F30C9F720913B06382F80E032FB82F9C6
:103A600034FB83F9822B80933B0680913C0620E057
:103A700031FB23F936FB22F937FB25F9282B892F57
:103A800090E080FB97F981FB94F984FB96F985FB24
:103A900091F986FB90F9292B20933C0690913D06E5
:103AA00020E082FB21F983FB20F9822F892B90E013
:103AB00033FB92F935FB93F9892B80933D065C9893
:103AC0005B9A80910903813009F46FC13898409A5C
:103AD00025982D9A24E02A95F1F7909197029093DA
:103AE000960286B180958170809397021D9902C0DD
:103AF00022E001C020E0822B80939702981709F4FE
:103B000054C1933079F4813021F480914006815F73
:103B100006C0823009F049C1809140068A508093E6
:103B2000400643C1913031F4823079F3833009F09B
:103B30003CC1F2CF923009F038C1833031F381308B
:103B400009F033C1E9CF91FF05C030913B063160E8
:103B500030933B062095813351F425FF05C08091B9
:103B60003B06846080933B0690FFB9C010C0811172
:103B700014C03898409A8AB188618AB95C985B9A77
:103B800088E28A95F1F7309B02C025FFA8C080919A
:103B90003B06826080933B06A2C025FF05C03091A2
:103BA0003B06326030933B0690FF05C090913B0688
:103BB000946090933B068853823008F090C088B19F
:103BC0008FEF88B985B910923B0610923C06309968
:103BD00003C084E080933B06319905C080913B0689
:103BE000816080933B061C9905C080913B068860EC
:103BF00080933B061D9905C080913B0682608093AF
:103C00003B0680910903883379F5369903C081E03A
:103C100080933C06199905C080913B068061809392
:103C20003B06189905C080913B06806880933B064F
:103C30001A9905C080913B06806280933B068AB149
:103C4000877E8AB98BB188618BB94B9905C0809109
:103C50003B06806480933B064C99A7C080913C064C
:103C6000826080933C06A1C080913B06982F81FF23
:103C700002C0946001C09B7F90933B0690913B06ED
:103C800082FF02C0926001C09D7F90933B063699EF
:103C900005C080913B06806480933B06199905C05E
:103CA00080913B06806880933B061A9905C08091FD
:103CB0003B06806180933B061B9905C080913B06C3
:103CC000806280933B068AB188618AB95C985B9A6E
:103CD00086B180933C0683B180933D0666C020FF89
:103CE00005C080913B06886080933B0621FF05C09C
:103CF00080913B06806480933B0622FF05C0809143
:103D00003B06806180933B0623FF05C080913B0604
:103D1000806280933B0680910903813341F024FF48
:103D200013C080913B06806880933B060DC0189BB2
:103D30003CC0209A289800001C9B03C081E080931F
:103D4000F70214B88FEF85B980910903893269F5BC
:103D500044E2E42EF12C03E210E025E230E047E2F9
:103D600050E068E270E080E20E941119833060F058
:103D700025E230E047E250E068E270E080E20E9435
:103D800011198095809344063AE2E32EF12C09E262
:103D900010E02BE230E047E250E068E270E088E0BB
:103DA0000E9411198095809345061F910F91FF90F5
:103DB000EF90089582EA91E0089508950895089596
:103DC00017B88FE388B914B88FEF85B9089587B114
:103DD000836087B918B884E08A95F1F787B18C7F42
:103DE00087B984E08A95F1F786B18370833011F446
:103DF0008BE0089580E00895ECE4F7E080E090E047
:103E000040E250E09A01082E02C0359527950A94A9
:103E1000E2F768B1A22FA0956A2368B967B1622B57
:103E200067B964E06A95F1F776B17370708363B136
:103E300068736695672B6083189B02C0606260831D
:103E400038B1322B38B927B12A2327B901963196D8
:103E500084309105B9F630914C07832F837019F4A3
:103E600081E08093F702309590E030FB94F9409127
:103E70004D07842F80958170982B80914E078095F7
:103E800020E080FB21F9922B20914F07522F509573
:103E900060E050FB67F951FB65F9962B90933B0668
:103EA00050E033FB55F934FB52F9409590E042FB6A
:103EB00097F943FB94F944FB91F9952B50E082FB71
:103EC00056F983FB53F984FB50F9952B90933C06EC
:103ED00090E032FB90F950E085FB51F9852F892B5A
:103EE00060E035FB63F9862B90E045FB92F9892B66
:103EF00080933D0624FD04C080914606806205C083
:103F000023FD05C08091460680618093460622FD10
:103F100004C080914606886005C025FD05C08091DB
:103F2000460684608093460608958EEA91E00895DF
:103F300008950895089588B1806388B9089580919F
:103F4000BC0087FFFCCF8091B900887F08959F92C5
:103F5000AF92BF92CF92DF92EF92FF920F931F9397
:103F6000CF93DF93B82E6B01942EA52E79016115A6
:103F7000710561F42115310509F477C084EA809355
:103F8000BC000E949F1F803189F532C084EA809373
:103F9000BC000E949F1F883009F06AC08B2D880FDB
:103FA0008093BB0084E88093BC000E949F1F8831EF
:103FB00009F047C0C92DDA2DCC0EDD1E24E8A22E53
:103FC000CC15DD0559F089918093BB00A092BC000F
:103FD0000E949F1F8832A1F323E038C0E114F1044E
:103FE00069F684E98093BC0080E043C0883059F5CD
:103FF0008B2D880F81608093BB0084E88093BC0088
:104000000E949F1F803409F5E701219784E8F82E6C
:1040100094ECE92ECF3FFFEFDF0719F3209719F05B
:10402000E092BC0002C0F092BC000E949F1F21974A
:10403000877F8035B1F68091BB00F80181938F01B5
:10404000E9CF22E003C024E001C025E090E0803AFF
:1040500031F0883F81F0883321F484E803C084EA9A
:1040600001C084E98093BC0006C08FEF9FEF04C0BD
:1040700081E090E001C0822FDF91CF911F910F91DD
:10408000FF90EF90DF90CF90BF90AF909F900895FA
:10409000AF92BF92CF92DF92EF920F931F93CF9385
:1040A000DF931F92CDB7DEB789835B016A01E12CF4
:1040B00000E010E020E030E0AE014F5F5F4F61E0D4
:1040C00070E082E50E94A71F811117C08FEA94E07B
:1040D0000197F1F700C000008501960140E050E033
:1040E00060E070E082E50E94A71F811106C0EFEA40
:1040F000F4E03197F1F700C000000F90DF91CF910D
:104100001F910F91EF90DF90CF90BF90AF900895E7
:10411000EF920F931F93CF93DF93CDB7DEB76097E6
:104120000FB6F894DEBF0FBECDBF84E38093B80016
:104130008091B9008C7F8093B90010919902111180
:104140003FC080EF898385E58A83E12C00E010E0A1
:1041500020E030E0AE014F5F5F4F62E070E082E54B
:104160000E94A71FEFEAF4E03197F1F700C00000CA
:1041700081112FC18BEF89831A8220E030E0AE01DC
:104180004F5F5F4F62E070E082E50E94A71FEFEA99
:10419000F4E03197F1F700C0000081111AC142E04C
:1041A00050E0BE016F5F7F4F8EEF0E94482081116B
:1041B00010C18A818093C60181E08093990209C170
:1041C000113009F0E8C046E050E0BE016F5F7F4F5C
:1041D00080E00E944820882361F08091980281113C
:1041E00002C01093F70280EF8093C60110929902EB
:1041F000F0C0109298028091C601853009F4E9C0A0
:1042000030F4813009F44CC0833039F449C0813135
:1042100009F446C0803F09F4DCC0E9817A817095D9
:10422000FE818B8124E0829FC00111248A5F910965
:104230002F2F2C7030E03595279535952795822BBB
:10424000932B96958795682F4C8184E0489FA00119
:104250001124CA018A5F91092F2F207330E0A4E056
:1042600035952795AA95E1F7822B932B96958795FF
:10427000282F4D8194E0499FA0011124CA018A5F33
:1042800091093F2F3295369536953370832B96954D
:1042900087959F2F90959170F1FD84C0926082C0A8
:1042A0006981E62FEE0FEE0F9A81A4E09A9F9001AC
:1042B0001124722F70958B81907C929596959770B2
:1042C000607C669566956695692B982F991F99274E
:1042D000991F692B660F660F660F282F220F220F7A
:1042E000220F20959C81392F330F330F330F8076A7
:1042F00086958695929596959770892B880F880F4D
:10430000880F5D81A52FA095F0E0A1FBF7F9A2FB36
:10431000F5F9A4FBF4F9A5FBF6F9AF2FFE814F2FB9
:10432000409590E043FB93F944FB91F945FB92F9EA
:1043300046FB90F99A2BA0E042FBA1F947FBA0F9BC
:104340004A2F53FD05C0A0913D06A460A0933D06F1
:10435000F0FD05C0A0914606A460A093460657FD57
:1043600005C0A0914606A062A0934606F1FD05C0D7
:10437000F0914606F061F093460656FD05C0509157
:104380004606586050934606E11111C07F3F79F40C
:1043900020E860E80AC080E030E02FEF6FEF40E0F7
:1043A00090E003C030E040E002C070E8E0E89093A5
:1043B0003B0640933C06E0933E0670933F066093B5
:1043C00041062093420680934006309343061092A4
:1043D000BC0060960FB6F894DEBF0FBECDBFDF9174
:1043E000CF911F910F91EF90089588B18C7F88B97C
:1043F00087B1836087B931991BC081E080939802AF
:104400000E9488201092BC008091C601803F81F0FC
:10441000882341F0813041F0833041F0813141F413
:1044200087E308958DE008958FE1089580E208956F
:1044300080E008958AEB91E0089508951092F302C8
:104440008FE284B98FEF85B98FE78CBD8091290603
:10445000811103C08DE08093290680913706811178
:1044600003C08EE0809337068091F502811103C06E
:1044700083E18093F50280910603811103C084E1FA
:10448000809306030895843608F484E68093B3028B
:104490006093B10208958FEF8093B4026093B202EB
:1044A00008958EBD0DB407FEFDCF80910C038111E0
:1044B00002C00E94FA028BE291E00197F1F700C07E
:1044C00000008EB50895CF93C3E029988BE291E068
:1044D0000197F1F700C0000081E00E94512282E4C0
:1044E0000E945122299AEBE2F1E03197F1F700C0E6
:1044F00000009FEF980F9E3F30F491E090939A0256
:104500009093F30208C0E7EBFBE03197F1F700C0AE
:104510000000C150D1F69CB59F7B9CBD9091F302E9
:10452000911101C080E0CF910895CF9329988BE23B
:1045300091E00197F1F700C0000081E00E94512254
:1045400085E40E94512280E00E9451228AE50E9467
:104550005122C5E08AE50E945122C150D9F7299A1B
:104560008BE291E00197F1F700C00000CF91089530
:10457000CF93C82F29988BE291E00197F1F700C003
:10458000000081E00E94512283E40E94512280E0D9
:104590000E9451228C2F0E94512280E00E945122C1
:1045A000CC2349F0299A8BE291E00197F1F700C002
:1045B0000000CF9108958AE50E9451228AE50E9469
:1045C00051228AE50E9451228AE50E945122EACFB7
:1045D000FF920F931F93CF93DF93CDB7DEB7DA959A
:1045E0000FB6F894DEBF0FBECDBF2B9A239A8CB5C1
:1045F00080648CBD8BE291E00197F1F700C0000070
:10460000809103032998882309F440C0EBE2F1E08C
:104610003197F1F700C00000809138068983F12CB2
:1046200080913806F81688F40F2D10E0F801E95D46
:10463000FA4F80810E945122E2E0F0E0EC0FFD1F72
:10464000E00FF11F8083F394EBCF10E080913806E8
:104650001817A8F4812F90E0FC01E95DFA4FA1E062
:10466000B0E0AC0FBD1FA80FB91F8C918083809163
:104670000C03811102C00E94FA021F5FE7CF109263
:10468000030381E080930803299AE9C18BE291E05A
:104690000197F1F700C000008091B402882381F0F7
:1046A0008091B2029FEF980F9E3F18F49093B20250
:1046B00009C08F3F39F01092B2021092B40202C0CA
:1046C0001092B2028091B302882381F08091B102EE
:1046D0009FEF980F9E3F18F49093B10209C08F3F4F
:1046E00039F01092B1021092B30202C01092B102DE
:1046F00081E00E94512282E40E94512280939D0217
:1047000080E00E945122182F8091B4020E94512211
:1047100080939F028091B3020E9451228093A00255
:1047200090919D0280910903981741F081E09134A6
:1047300019F080939A0202C08093F60290930903C5
:104740001F3F29F4299A81E08093F70288C1933EA4
:1047500021F48FE7809309033AC0933221F481E07A
:1047600080939B0234C0913431F481E08093A202A3
:104770008093A1022CC0993769F401EA12E080E02D
:104780000E945122F80181938F01F2E0013B1F0743
:10479000B1F71DC080E00E9451228093A10280E009
:1047A0000E9451228093A20280E00E9451228093B5
:1047B000A30280910903833529F480E00E945122ED
:1047C000809503C080E00E9451228093A402299A20
:1047D00080919A02882309F4B0C08CEF92E001978F
:1047E000F1F700C0000010929A0280910903813411
:1047F00009F45BC081E00E94B8222998EBE2F1E065
:104800003197F1F700C0000081E00E9451228DE451
:104810000E94512280E00E94512280E00E94512299
:1048200081E00E9451228FEF0E9451228FEF0E945F
:1048300051228FEF0E9451228FEF0E945122299A1C
:104840008BE291E00197F1F700C000002998EBE2BC
:10485000F1E03197F1F700C0000081E00E945122A1
:104860008FE40E94512280E00E9451228FEF0E942B
:1048700051228FEF0E94512283E00E94512280E05A
:104880000E94512280E00E94512280E00E94512229
:10489000299A8BE291E00197F1F700C000000E9495
:1048A000952280E00E94B82248C081E00E94B82290
:1048B0000E9495222998EBE2F1E03197F1F700C0D0
:1048C000000081E00E94512284E40E94512280E095
:1048D0000E94512281E00E94512280E00E945122D8
:1048E00080E00E94512280E00E94512280E00E94DC
:1048F000512280E00E945122299A8BE291E0019797
:10490000F1F700C0000080E00E94B8222998EBE295
:10491000F1E03197F1F700C0000081E00E945122E0
:1049200082E40E945122299AEBE2F1E03197F1F7FB
:1049300000C00000813409F05DCF9091A0029095F5
:10494000392F329580E083278D73832730FB83F9DD
:1049500032FB80F933FB82F9382F80919F028095DA
:1049600020E080FB24F983FB25F9232B20933B06D1
:10497000937020E081FB26F982FB27F9292B2093F5
:104980003C0690914606E0E084FBE2F985FBE5F900
:1049900086FBE3F987FBE4F98E2F892B809346068B
:1049A0002091A1023091A202832F90E0820F911DED
:1049B000029709F454C02093410630934206909127
:1049C000A30290933E068091A40280933F06E5EAFD
:1049D000F2E0AAE2B6E041914D9342E0E13BF407F8
:1049E000D1F7E0912906E53131F0F0E0E456FD4FD2
:1049F000408140934406E0913706E53131F0F0E024
:104A0000E456FD4F408140934506E091F502E531C3
:104A100031F0F0E0E456FD4F408140934006E091D4
:104A20000603E53131F0F0E0E456FD4F408140935C
:104A3000430640919B02413079F4309340069093B5
:104A400043068093450620933E0680E88093410606
:104A500080933F06809342068CB58F7B8CBDD395A7
:104A60000FB6F894DEBF0FBECDBFDF91CF911F917F
:104A70000F91FF90089587EC91E0089528E030E0D1
:104A800040E89FE26FE07FE3592F5095E42FE82341
:104A900098B9EE2319F078B958B901C068B9952FC3
:104AA0004695215031092115310571F70895CF92AE
:104AB000DF92EF92FF920F931F93CF93DF931F929A
:104AC000CDB7DEB78C01F12CE12CF61684F4680129
:104AD000CF0CD11CF7FCDA94F601808169830E9427
:104AE0003E25F6018081E826F3946981EECF8E2D74
:104AF0000F90DF91CF911F910F91FF90EF90DF907A
:104B0000CF9008958FE387B988B98FE188B988E09D
:104B100020E198B1922798B98150D9F78FE388B9ED
:104B200008958FE387B988B98FE288B984E020E2DD
:104B300098B1922798B98150D9F78FE388B9089531
:104B40000E94822568E087ED91E00E9457250E942F
:104B50003E250C9491258091B702882311F080E1C5
:104B6000089580E008956093B80208956093B802B4
:104B700008951F93CF93DF93182FC42F4F3F19F041
:104B8000411101C0C1E0D62FD295D695D77009F456
:104B9000D1E0D295D07FD068CF3F09F4C1E00E9428
:104BA000822582E00E943E2580E00E943E25812FE2
:104BB0000E943E258EE00E943E2580E00E943E2518
:104BC00081E00E943E2580E00E943E2580E00E9418
:104BD0003E258C2F0E943E2582E30E943E258D2F8C
:104BE0000E943E2580E10E943E258FE281278D278D
:104BF0008C270E943E250E94912583E893E001972F
:104C0000F1F700C00000DF91CF911F91089510923D
:104C1000FB0280E388B91092B70281E08093B6026C
:104C20001092B5020E94822564E083ED91E00E941B
:104C300057250E943E250E94912587EB9BE0019716
:104C4000F1F700C000008FEF87B90E94A025E89817
:104C50008FEC87B980E388B982E08093680080E1B7
:104C600080936C008EEC90E00197F1F700C000009B
:104C70001092680010926C00E89A8FEF87B98091CB
:104C8000FB02882329F081E08093B70280930B0315
:104C90008FEF87B910926C000895109268001092FF
:104CA000FB028FEF87B9E8980E94A02580E388B9BE
:104CB0008FEC87B982E08093680080E180936C007C
:104CC0008EEC90E00197F1F700C0000010926800B0
:104CD00010926C0010926C00E89A2091FB02211156
:104CE00008C081E08093F7021092B5028FEF87B978
:104CF00008958FEF87B95091F9024091FA0280919F
:104D0000FC02382F309590E030FB97F931FB91F998
:104D100032FB90F933FB95F9392F922F909560E093
:104D200090FB66F991FB63F992FB62F993FB64F9DE
:104D3000962F932B90933B0694FF03C033E230935E
:104D4000090330910903333251F42095322F329503
:104D5000337030933C06207C292B20933B06209116
:104D60003B065B3F10F090E401C090E0292B4B3FE5
:104D700010F090E801C090E0922B90933B06809554
:104D8000859585958C738093460650934006409395
:104D900043068091FF0280933F0680910003809339
:104DA0003E0608950F931F93CF93DF9380910303E3
:104DB0008823E1F00E9482256091380687E295E021
:104DC0000E9457250E943E250E94912540E051E017
:104DD00061E070E087E295E00E94033380E4809315
:104DE00027058FEF80932805109203038091B80266
:104DF0008230A8F08F3F19F081508093B8028091E3
:104E0000B50280FF05C04FEF6FEF81E00E94B9252A
:104E10008091B50281FF47C04FEF6FEF13C0813023
:104E2000A9F41092B8028091B50280FF05C040E05D
:104E300060E081E00E94B9258091B50281FF33C016
:104E400040E060E082E00E94B9252DC0C091B6022A
:104E50000E94822580E00E943E2580E00E943E253F
:104E60008C2F0E943E2581E00E943E2581E08C2708
:104E70000E943E250E94912580E388B98FEC87B976
:104E800094E286B18073803309F059C028E22A95F4
:104E9000F1F79150B1F7C0958091B5028C238093C2
:104EA000B5028FEF87B980910B038130C1F58091F6
:104EB000B6028130A1F58091B50280FF30C08FE647
:104EC00097E10197F1F700C0000010920B030E94D8
:104ED00082256CE08FED91E00E945725182FC0E0ED
:104EE000D0E0CE0123E0822780569F4F0E940A33F4
:104EF000082F0E943E2510272196C03CD10589F736
:104F0000812F0E943E250E94912580E388B98FEC75
:104F100087B987E592E00197F1F700C00000809122
:104F2000B602813011F482E001C081E08093B602C4
:104F30008FEF87B9DF91CF911F910F9108959CE278
:104F40009A95F1F784E296B19073903331F498E03A
:104F50009A95F1F78150B9F7A4CF8091B502282F27
:104F600030E04C2F552747FD509524233523241737
:104F7000350709F496CFC82BC093B5028AE0809319
:104F8000B8028FCF8BEE91E0089508956093BA0236
:104F900090910302953069F0992359F0882321F00C
:104FA000933039F082E003C0913019F084E08093AF
:104FB000030208950C94C627FF920F931F93CF937B
:104FC000DF93CDB7DEB7A6970FB6F894DEBF0FBE5E
:104FD000CDBF80910303882309F463C06091380634
:104FE00070E020E0822F992787FD9095861797071C
:104FF0006CF4E1E0F0E0EC0FFD1FE80FF91FDC01BD
:10500000A95DBA4F8C9180832F5FECCFCE010196C2
:105010000E94DC0B21E031E0E7E2F5E0DF01A901CD
:105020001D9241505040E1F7869586958695682FF0
:1050300070E090E000E810E0292F332727FD30953D
:105040002617370734F5A901E3E0440F551FEA9509
:10505000E1F7D901A85DBA4FFC9020E030E0F901FA
:10506000E40FF51FE85BF94FE081EE2341F0F80112
:10507000022E02C0F595E7950A94E2F701C0E0E040
:10508000FE2A2F5F3F4F2830310549F7FC929F5F82
:10509000D3CF809327051092030381E08093080308
:1050A0000EC1198261E070E0CE0101960E94DC0B16
:1050B000811104C081E08093F70201C191E09093D7
:1050C000B902883111F01092030280915F068823A3
:1050D00031F080910302853011F410920302809127
:1050E0005F06811103C085E0809303028091BA02BC
:1050F0008F3F69F0882321F081508093BA0207C066
:1051000080910302833019F484E08093030280913C
:1051100003028230F1F08430D1F1811151C083E07B
:10512000898380E88A8381E08B8342E250E060E8F3
:1051300070E0CE0104960E94033363E270E0CE017A
:1051400001960E94DC0B8823D9F184E0809303024E
:1051500037C013E0198380EC8A838BE18B8340E2B4
:1051600050E061E070E0CE0104960E94033363E2F8
:1051700070E0CE0101960E94DC0B811110930302B6
:105180008BE291E00197F1F700C0000019C083E0C5
:10519000898380EC8A838BE18B83FE01349680E2E5
:1051A000DF011D928A95E9F763E270E0CE01019676
:1051B0000E94DC0B882321F381E080930302E0CF7F
:1051C00081E0898361E070E0CE0101960E94DC0BF2
:1051D000803209F074C030913B0620913C0680E09B
:1051E00090E0FC01E85BF94F4081442351F0FC0161
:1051F000EE5CFD4F4081FC01EE5DFD4F5081252BA3
:10520000342B01968031910561F730933B06209352
:105210003C0680914C06882329F0809146068460E4
:105220008093460680914D06882329F0809146069A
:1052300088608093460680914F06882329F08091EC
:10524000460680628093460680914E06882329F0A8
:105250008091460680618093460680E090E0A0E061
:10526000B0E020E830E0482FFC01E85AF94F5081C7
:10527000552341F0B901082E02C0759567950A942F
:10528000E2F701C060E0B62BFC01E05AF94F508113
:10529000552341F0B90102C0759567954A95E2F72B
:1052A000AB0101C040E0A42B019688309105D9F6EE
:1052B000B058B0933E068FE78A1B80933F06A696B0
:1052C0000FB6F894DEBF0FBECDBFDF91CF911F9117
:1052D0000F91FF9008950E94DC278091B9028823E6
:1052E00019F080910903089580E008951092B902A1
:1052F0001092BA020C94D90B87EF91E008950895AB
:10530000089517B88FE388B908958FE188B982ECC2
:1053100090E00197F1F700C000008FE388B908958D
:105320008FE387B98FE188B987EE98E00197F1F7AD
:1053300000C0000008958FE188B984E78A95F1F7ED
:105340008FE388B981ED90E00197F1F700C000008C
:105350008FE188B9089527E030E090E06FE37FE1C6
:1053600044E84A95F1F7AC01022E02C055954795E5
:105370000A94E2F740FF08C068B9E2ECF0E0319728
:10538000F1F700C0000007C0F8E7FA95F1F768B937
:105390004CE84A95F1F778B92150310908F708959A
:1053A000CF93C82F0E9490290E949B298C2F8C6339
:1053B0000E94AB290E94852917B89EEF84E08A9548
:1053C000F1F735996CC0ECEAEA95F1F728E030E0A6
:1053D00040E050E0BA0180E8EBE2F1E03197F1F70C
:1053E00000C000003599482B8695215031092115C0
:1053F000310591F7762F652F542F442728E030E0B0
:1054000080E8EBE2F1E03197F1F700C00000359958
:10541000482B8695215031092115310591F7762FBA
:10542000652F542F4427C11135C088E090E020E853
:10543000203829F4EDE0F1E03197F1F704C0EBE218
:10544000F1E03197F1F700C000003599422B0000E0
:1054500026950197009761F7B62FA52F942F8827DF
:10546000EFEAF4E03197F1F700C0000024E030E00B
:1054700048E0EBE2F1E03197F1F700C00000359928
:10548000842B4695215031092115310591F7BC0136
:10549000CD010BC0992777FD9095892F06C09150BB
:1054A00009F08CCF60E070E0CB01CF9108958F922E
:1054B0009F92AF92BF92CF92DF92EF92FF920F93A3
:1054C0001F9380E00E94D029872E982EA92EBB24FE
:1054D000A7FCBA94882009F45EC0092F332707FD82
:1054E0003095132F232F402F441F4427441F53E090
:1054F000541B452F6C01FF24D7FCF094EF2CC7FC04
:105500004D7F5C2DC6FE04C050955F77519501C05C
:105510005F7706FF04C000950F77019501C00F77F4
:1055200020E8250F20933E06005800933F06109276
:10553000BD0220E820931102209310028094609510
:1055400080E082FA82F983FA84F984FA85F985FA8F
:1055500083F98093BC0280E080FA83F981FA82F9B2
:1055600086FA80F987FA81F990E4499F4001112475
:10557000882960FD80618093BB0261FF05C0809136
:10558000BD0284608093BD0262FF05C08091BB02B2
:1055900080628093BB028091BB0280933B06809126
:1055A000BC02809346068091BD0280933C061F9109
:1055B0000F91FF90EF90DF90CF90BF90AF909F90B2
:1055C0008F90089583E00E94D029672B682B692B68
:1055D00011F08AE008950895E89883E00E94D029A8
:1055E000672B682B692B21F481E08093F70223C09D
:1055F000E89A8BED95E00197F1F700C00000E8987C
:105600000E9490290E949B298BE30E94AB290E9453
:10561000852987E592E00197F1F700C000000E941C
:105620009B2983E60E94AB2986E40E94AB290E9455
:10563000852917B8449AE89A089584E092E008957D
:10564000A82FB92F80E090E041E050EA609530E06B
:1056500009C02D9182279795879510F0842795276B
:10566000305EC8F36F5FA8F30895EADF8D939D93D2
:105670000895CF93CFB7CF93C395489BE9F7489B45
:1056800009C0489B07C0489B05C0489B03C0489B76
:1056900001C0A6C0DF93C091D602DD27C352DD4F03
:1056A000489B02C0DF91EBCF2F930F931F9309B15B
:1056B0002FEF00FB20F94F933F9319B14FEF0127D4
:1056C00000FB21F93BE031C04E7F012F19B1216071
:1056D00028C0102F4D7F2260000009B129C04B7FE8
:1056E0002460012F000019B12BC019B1477F286039
:1056F0002AC04F7E09B120612CC04F7D19B12062B4
:105700002FC04F7B09B1206432C0422709B14993B1
:105710004FEF0000102710FB20F919B11570C9F1E7
:10572000297F91F2012700FB21F909B1237F89F23A
:10573000315058F1102710FB22F919B1277E79F268
:10574000012700FB23F92F7C81F209B1102710FB00
:1057500024F92F7971F200C019B1012700FB25F956
:105760002F7359F200C009B1102710FB26F922301F
:1057700040F200C019B1012700FB27F9243028F6B8
:105780004F77206819B10000F9CF11E01CBB00274A
:105790001CC03B503195C31BD04011E01CBB08819D
:1057A000033C11F10B3401F12091D4021981110F46
:1057B0001213EDCF4A81441F093659F10D3211F011
:1057C000013E29F74F7009F0042F0093DB023F914F
:1057D0004F911F910F912F91DF91CCB3C0FD4CCF12
:1057E000CF91CFBFCF9118952091DB02222379F37F
:1057F0001091D902112369F534306AF13093D9023E
:105800002093D5021091D6023BE0311B3093D60293
:1058100022C00091D9020130E4F40AE54F7049F446
:105820003091020134FD19C000930201CDEBD2E0AA
:1058300018C03091C80234FD10C00093C802C9ECF2
:10584000D2E00FC02795A8F45150A9F4220F000010
:10585000F9CF4AE503C042ED01C0432FC4E1D0E0D7
:1058600032E01AB11560589A1AB90BB120E415E06C
:105870005F93012756E00BB9279520F4515021F48E
:10588000220FF9CF012756E000003B5A0BB9D0F2A6
:10589000279528F4515029F4220F0000F9CF012751
:1058A00056E027950BB920F4515021F4220FF9CF7F
:1058B000012756E0299133230BB921F60A7F109175
:1058C000DA02110FC651D0400BB911F01093D40277
:1058D00011E01CBB01601AB11A7F402F4A7F5F9113
:1058E00000C000C00BB91AB94BB971CF35991895E2
:1058F00090E09093680090936C00359BF7CF0F92E7
:105900000FB60F922F933F93AF93BF93A8EFB2E0E0
:10591000221B34E093EB9A95F1F70000349BFECF05
:1059200092E09A95F1F70000000000000000349921
:1059300008942D932227221F0000000000003599B3
:105940000894221F92E09A95F1F734990894221F47
:1059500092E09A95F1F735990894221F92E09A9572
:10596000F1F734990894221F92E09A95F1F735994E
:105970000894221F92E09A95F1F734990894221F17
:1059800092E09A95F1F735990894221F3A9561F6BD
:1059900035E0349908942D932227221F000000003F
:1059A000000035990894221F92E09A95F1F73499F6
:1059B0000894221F92E09A95F1F735990894221FD6
:1059C00092E09A95F1F734990894221F92E09A9503
:1059D000F1F735990894221F92E09A95F1F73499DE
:1059E0000894221F92E09A95F1F735990894221FA6
:1059F0003A9529F035990C94C92C0C94C92CBF9177
:105A0000AF913F912F910F900FBE0F90189598EC8A
:105A10009A95F1F798EC9A95F1F798EC9A95F1F739
:105A20001895CF93DF93CDB7DEB76E970FB6F89486
:105A3000DEBF0FBECDBF14BEF894A89588E10FB6A7
:105A4000F89480936000109260000FBE84E0809311
:105A5000810010920903EFE0F3E081E081938F5F12
:105A60008931E1F70E94650483E08093510263E08D
:105A700080E190E00E94223380E18093520260E155
:105A800082E190E00E94223381E190E00E940A339B
:105A9000182F8CEF810F843030F064E081E190E0CA
:105AA0000E94223314E00E94D60B80931C011093B5
:105AB000360110933901212F30E0235D3F4F3093A1
:105AC0005F0120935E0130936301209362012FE711
:105AD0003FE462E1215030406040E1F700C0000047
