:100000000C94B6020C94072B0C94D3020C94D302DC
:100010000C94442C0C94D3020C94D3020C94D30271
:100020000C94D3020C94D3020C94D3020C94D302FC
:100030000C94D3020C94D3020C94D3020C94D302EC
:100040000C94D3020C94D3020C94D3020C94D302DC
:100050000C94D3020C94D3020C94D3020C94D302CC
:100060000C94D3020C94D302140342004C004900B8
:10007000530053002D0042004F00580004030904B0
:1000800005010905A10185010509190129181500B6
:100090002501750195188102A1000501093009317A
:1000A000093209330934093509360937150026FFA5
:1000B00000350046FF00750895088102C00501253E
:1000C00007463B01750495016514093981426500B5
:1000D000950181010601FF094975019501810225FC
:1000E0000175078103050F0992A1028502099F0985
:1000F000A009A509A6150025013500450175019542
:1001000005810295038103099415002501350045F9
:100110000175019501810209221501252835014546
:1001200028750795018102C00921A10285010922D4
:1001300015012528350145287508950191020925E5
:10014000A102092609270930093109320933093486
:1001500009400941094209430928250315013501D0
:100160004503750895019100C009500954095115BE
:100170000026FF7F350046FF7F66031055FD751092
:100180009503910255006600000952150026FF00F4
:100190003500461027750895019102095315012570
:1001A00008350145087508950191020955A1020518
:1001B000010930093115002501750195029102C030
:1001C000050F095695019102950591030957A10262
:1001D0000B01000A000B02000A0066140055FE1510
:1001E0000026FF00350047A08C000066000075085F
:1001F000950291025500660000C0050F09A766032D
:100200001055FD150026FF7F350046FF7F751095C0
:100210000191026600005500C0050F095AA1028530
:1002200002092215012528350145287508950191F7
:1002300002095B095D150026FF0035004610279571
:10024000029102095C095E66031055FD26FF7F4698
:10025000FF7F7510910245006600005500C0095FE0
:10026000A1028503092215012528350145287508B5
:1002700095019102092315002501350045017504FA
:10028000950191020958A1020B01000A000B02001E
:100290000A00750295029102C01580257F36F0D8BC
:1002A000461027096075089501910236F0D846106E
:1002B000270961096295029102150026FF003500A9
:1002C000461027096309647508950291020965467D
:1002D000102795019102C0096EA10285040922151B
:1002E00001252835014528750895019102097015E9
:1002F0000026FF0035004610277508950191020978
:100300006F1580257F36F0D8461027950191020998
:100310007166140055FE150026FF00350047A08CBD
:1003200000009102097226FF7F46FF7F6603105589
:10033000FD7510950191026600005500C00973A17A
:1003400002850509221501252835014528750895DE
:1003500001910209701601FF26FF0036F0D8461001
:1003600027751095019102C00974A1028506092222
:100370001501252835014528750895019102097553
:1003800009761580257F36F0D84610277508950226
:100390009102C00966A102850805010930093115DD
:1003A00081257F350046FF00750895029102C00542
:1003B0000F0977A102850A09221501252835014573
:1003C000287508950191020978A1020979097A092D
:1003D0007B15012503750895019100C0097C150066
:1003E00026FF00350046FF009102C00990A102855A
:1003F0000B0922252815013501452875089501911D
:1004000002C00996A102850C099709980999099AD1
:10041000099B099C15012506750895019100C009E5
:100420007DA102850D097E150026FF0035004610CE
:1004300027750895019102C009ABA102850F092516
:10044000A102092609270930093109320933093483
:1004500009400941094209430928250315013501CD
:10046000450375089501B100C00501093B1500263B
:10047000FF01350046FF01750A9501B1027506B10D
:1004800001C0050F0989A10285020922252815014D
:100490003501452875089501B102098BA102098C27
:1004A000098D098E25031501350145037508950150
:1004B000B100C009AC150027FFFF0000350047FF61
:1004C000FF000075109501B100C0097FA1028503EE
:1004D0000980751095011500350027FFFF000047C2
:1004E000FFFF0000B102098326FF0046FF007508E8
:1004F0009501B10209A909AA750195021500250106
:1005000035004501B10275069501B103C00901A18D
:1005100001150026FF0075088510950D0900B2022F
:1005200001851195050900B202018515950D090097
:10053000B2020185169600010900B20201851795E5
:10054000300900B20201851295080900B202018546
:1005500013951C0900B20201851895C00900B2026A
:1005600001851495C40900B20201C0C011241FBE48
:10057000CFEFD8E0DEBFCDBF12E0A0E0B1E0E4E213
:10058000F6E602C005900D92A434B107D9F727E032
:10059000A4E4B2E001C01D92A035B207E1F70E94C9
:1005A000DF2C0C9410330C940000CF93C62F2091B5
:1005B000C80224FF07C02091C90238E823272093EE
:1005C000C90203C02AE52093C802DC01EAECF2E08C
:1005D0009C2F9E0F8D918193892F8E1B1816D4F31B
:1005E0006C2F8AEC92E00E94032BCC5FC093C80270
:1005F000CF910895CF93DF936091D902635067FD47
:10060000DFC08091D602CCE0D0E0C81BD109C35234
:10061000DD4F8091D502803120F4CE010E94B407D5
:10062000C9C08D3209F0B3C0683009F0C3C083EC93
:100630008093BD028AE58093020110924402888172
:10064000807621F0CE010E94B90689C09A8110926D
:10065000C6028981811107C01092C70226EC32E0E0
:1006600082E090E078C0853019F49093DA026FC090
:10067000863009F055C08B81813011F0823029F429
:10068000CE010E94910620E048C0833081F591118F
:100690000AC08CE790E09093D8028093D70220E4C0
:1006A00084E090E03AC0913051F488E690E0909375
:1006B000D8028093D70220E484E190E02EC09230EB
:1006C00051F48EE391E09093D8028093D70220E01A
:1006D00082E290E022C09330E9F480E691E09093CA
:1006E000D8028093D70220E08AE090E016C08132E1
:1006F00051F488E592E09093D8028093D70220E4E9
:1007000089E090E00AC0823229F4CE010E9491066D
:1007100020E403C020E480E090E0209344021FC066
:10072000883069F0893019F49093DC0210C08A3067
:1007300049F08B3061F48BE48093C90208C02CED42
:1007400032E002C026EC32E081E090E004C026EC0A
:1007500032E080E090E03093D8022093D7028F3FC0
:100760002FEF920749F4288127FF02C08E819F81D5
:1007700020E82093440206C02E813F8128173907C4
:1007800008F4C901909301018093000113C0809186
:10079000440287FF0FC0CE010E9420088F3F21F442
:1007A0008EE18093020106C0882321F0109201019E
:1007B000109200018091D902181614F41092D902F7
:1007C0008091020184FF54C0809100019091010149
:1007D0008F3F2FEF920709F44BC0BC018930910580
:1007E00010F068E070E0861B970B909301018093F6
:1007F00000018091BD0298E889278093BD02C62F31
:10080000662331F12091D7023091D80280914402C1
:1008100086FF0BC0AEEBB2E0F901862F8A0F9491F0
:100820009D9331968A13FBCF09C0D901EEEBF2E01C
:10083000862F8E0F9D9191938E13FCCF8FEF8C0F8F
:1008400090E00196820F931F9093D8028093D70275
:100850006C2F8EEB92E00E94032BCC5FCC3031F0FA
:100860008FEF9FEF9093010180930001C0930201ED
:1008700084E199B1957031F48150D9F71092DA0280
:100880001092D402DF91CF910895E9E6F0E08081E3
:1008900082608083E89A8BE48093C9028AE5809322
:1008A000C802089590E890934E0290934F028FE70C
:1008B00080934C0280934D0290934A0290934B0296
:1008C000809348028093490208950F931F93CF931A
:1008D000DF9380E290E00E94E632813081F083E194
:1008E00090E00E94E632809358028F3FB9F4109254
:1008F000580260E083E190E00E94FE320FC00FE0FA
:1009000013E0C1E2D0E0CE010E94E632F80181930B
:100910008F012196C933D105B1F7E1CF84E190E091
:100920000E94E632809307038F3F39F41092070349
:1009300060E084E190E00E94FE3289E190E00E9454
:10094000E63290E090936C0180936B018F3F9105AC
:1009500059F483E390E090936C0180936B0163E31F
:1009600089E190E00E94FE3286E190E00E94E6324A
:1009700080930E038F3F39F410920E0360E086E1FE
:1009800090E00E94FE3287E190E00E94E632809380
:1009900004038F3F39F41092040360E087E190E094
:1009A0000E94FE3288E190E00E94E63280936A0164
:1009B0008F3F39F410926A0160E088E190E00E9474
:1009C000FE328CE190E00E94E632813F48F088E000
:1009D0008093290668E08CE190E00E94FE3203C01B
:1009E000885F809329068DE190E00E94E632809333
:1009F0003706813F48F087E08093290667E08DE164
:100A000090E00E94FE3203C0885F809337068EE13B
:100A100090E00E94E632813F48F085E08093F50245
:100A200065E08EE190E00E94FE3203C0885F809313
:100A3000F5028FE190E00E94E632813F60F086E0AF
:100A40008093060366E08FE190E0DF91CF911F91E4
:100A50000F910C94FE32885F80930603DF91CF9153
:100A60001F910F91089588E10FB6F894809360006C
:100A7000109260000FBE519859982FE78CEF9AE0C2
:100A8000215080409040E1F700C00000F894E0E081
:100A9000F8E70994CF9314B817B88FEF85B988B9E0
:100AA0008AB188618AB95C985B9A80910C03811144
:100AB00002C00E94FA0287EB9BE00197F1F700C0A9
:100AC000000086B18F3641F40E949F1E909302036E
:100AD00080930103C0E322C10E94FD1090930203A2
:100AE00080930103DC01ED91FC910995E0910103F4
:100AF000F09102030480F581E02D0995C82F811142
:100B00000DC1549A5C9853985B9A17B88FEF88B9C7
:100B100087E293E20197F1F700C000004B9913C000
:100B200086B18F3781F483B18F3369F4209A289886
:100B300000001C9B08C00E949F1E9093020380939C
:100B40000103CAE2EBC096B15C985B9AA0E2AA9559
:100B5000F1F780EC87B98FE388B98AB188618AB9E7
:100B60005B985C9AB0E2BA95F1F786B18B3041F4AC
:100B70000E949F1E9093020380930103C2E2CEC0A5
:100B800086B18D3351F49F3741F40E949F1E90939C
:100B9000020380930103C1E0C1C00E94301790930B
:100BA000020380930103DC01ED91FC910995E09132
:100BB0000103F09102030480F581E02D0995C82F0F
:100BC0008111ACC00E94902790930203809301038F
:100BD000DC01ED91FC910995E0910103F091020394
:100BE0000480F581E02D0995C82F811197C00E94DE
:100BF00009259093020380930103DC01ED91FC91A0
:100C00000995E0910103F09102030480F581E02D44
:100C10000995C82F811182C00E94C41890930203C5
:100C200080930103DC01ED91FC910995E0910103B2
:100C3000F09102030480F581E02D0995C82F811100
:100C40006DC00E94E00E9093020380930103DC01CB
:100C5000ED91FC910995E0910103F091020304806C
:100C6000F581E02D0995C82F882361F08D3219F0A8
:100C7000833109F053C00E944A2990930203809364
:100C800001034CC00E94EB2A90930203809301035E
:100C9000DC01ED91FC910995E0910103F0910203D3
:100CA0000480F581E02D0995C82F811137C00E947D
:100CB0005A1F9093020380930103DC01ED91FC9194
:100CC0000995E0910103F09102030480F581E02D84
:100CD0000995C82F811122C00E94E8219093020338
:100CE00080930103DC01ED91FC910995E0910103F2
:100CF000F09102030480F581E02D0995C82F811140
:100D00000DC00E949F1E9093020380930103DC019B
:100D10001496ED91FC911597CF9109948C2FCF915A
:100D20000895FC012181263009F583818230A9F0E4
:100D3000823259F08130D1F48CE291E09093D80264
:100D40008093D70282E190E0089580E890E090934C
:100D5000D8028093D7020C94E90B83E091E0909342
:100D6000D8028093D70289E290E0089580E090E075
:100D700008950F931F93CF93DF93FC01A7E2B3E095
:100D800080E092E0ED019C01199221503040E1F7A2
:100D9000B093D802A093D70280818076803209F088
:100DA000D9C082819381923009F4D7C0218121304A
:100DB00009F0C6C0833091F4933009F0CBC084E1D0
:100DC00080935202909327032093280320932903B2
:100DD0008FEF80932A0320932B0312C0823099F463
:100DE000933009F0B7C0809327038091630280930A
:100DF00028032093290384E680932B0380932A03FE
:100E000085E090E0ACC0873189F42093520207E27C
:100E100013E0C0E1D0E0CE010E94E632F8018193F8
:100E20008F012196C034D105B1F781C0853189F495
:100E300081E190E00E94E63280932703EAE2F6E047
:100E4000A8E2B3E081918D9326E0E633F207D1F773
:100E500071C08631F1F481E190E00E94E632809326
:100E600027038091270590E0AC014F5F5F4F61E061
:100E7000262F30E04217530754F0F901E95DFC4F8B
:100E8000D901AA5DBA4F2C9120836F5FF1CF0296F2
:100E900066C08831C1F42093520281E190E00E9443
:100EA000E6328093270308E213E0C0EAD0E0CE01E7
:100EB0000E94E632F80181938F012196C036F1E05D
:100EC000DF07A9F73AC0813109F044C080910903D6
:100ED000809327032091040348E0249F900111246C
:100EE00080910703C0E18C9FC0011124282B8091C1
:100EF000F702282B80910E03D0E48D9FC0011124AE
:100F0000282B8091F602E0E88E9FC0011124282B47
:100F100020932803809153028093290380915502E6
:100F200080932A038091540280932B0369CF80E33E
:100F300090E015C08DE090E012C081EC90E00FC011
:100F400081E090E0293011F080E090E0919581956A
:100F5000910905C080E090E002C081E090E0DF915F
:100F6000CF911F910F910895FC018081843041F44D
:100F70008181823008F463C0828180936E0108957C
:100F8000813089F4683009F05AC0918180916502FE
:100F9000981709F454C08481882309F450C0880F3D
:100FA000809362020895823009F449C0853041F48B
:100FB0008181813009F043C0828180936F0108955F
:100FC0008A30E9F5838160916202623008F4682F0B
:100FD00081818130C1F48281E0910103F0910203AB
:100FE000833031F4109262020284F385E02D19C03F
:100FF00080916F018F3F19F4613009F46FEF028423
:10100000F385E02D1BC08230D0F08281E091010396
:10101000F0910203833041F4109262020084F18562
:10102000E02D63E088EC0AC080916E018F3F19F4D7
:10103000613009F46FEF0084F185E02D0994089583
:10104000DF92EF92FF920F931F93CF93DF93EC0108
:1010500031E030935202809159028111B1C18881EF
:101060008F3021F4898180936302A8C1825183303B
:1010700008F0A4C199819432A9F48CEB80935A02B0
:101080009093590284E080935B02249600EA10E07A
:101090006991C8010E94FE320F5F1F4F043A11058B
:1010A000B9F7BBC19230B9F485E180935A029093AD
:1010B000590284E080935B0288E1EFE0F3E0DF0116
:1010C0001D928A95E9F7249689918193B3E0E331E3
:1010D000FB07D1F7A2C1953291F52A81211112C0E7
:1010E0008C81809338069D81909327059E819093F3
:1010F00028059F8190932905843008F05FC13093C3
:1011000003035CC12F3F19F4209138062550FE01DE
:10111000339680E090E030E0295D3A4F4191D9016B
:10112000A80FB91F4C93019685309105B9F78A81B4
:101130008F3F09F043C181E080930303C7C1903220
:1011400089F48C81885F809329068D81885F8093E4
:1011500037068E81885F8093F5028F81885F809348
:1011600006032CC1913009F0B3C08C818F3F09F088
:1011700096C08D81813069F56091070384E190E02C
:101180000E94FE3260910E0386E190E00E94FE32E2
:101190006091040387E190E00E94FE32609129068D
:1011A00068508CE190E00E94FE32609137066850F2
:1011B0008DE190E00E94FE326091F50268508EE170
:1011C00090E00E94FE326091060368508FE190E04B
:1011D00063C0823009F0F2C01092580260E083E1EF
:1011E00090E00E94FE321092070360E084E190E0FC
:1011F0000E94FE3210920E0360E086E190E00E94B1
:10120000FE321092040360E087E190E00E94FE321B
:1012100010926A0160E088E190E00E94FE3283E370
:1012200090E090936C0180936B0163E389E190E01F
:101230000E94FE3268E08CE190E00E94FE3280E184
:101240008093290667E08DE190E00E94FE328FE0F6
:10125000809337066BE08EE190E00E94FE3283E1DE
:101260008093F5026CE08FE190E00E94FE3284E111
:1012700080930603EFE0F3E081E081938F5F893193
:10128000E1F748E150E061E270E08FE093E00E9416
:10129000EE3261E080E290E00E94FE328FC083FF78
:1012A00004C091E09093040302C01092040384FFF1
:1012B00004C091E09093070302C01092070386FFD9
:1012C00004C081E080930E0301C110920E0376C02A
:1012D0008CEF890F823078F58C81882361F0813022
:1012E00029F41D8111110BC01FEF09C0823031F4A8
:1012F0001D810E8105C010E000E002C010E00FEF7C
:10130000943051F4E0910103F09102030284F385DB
:10131000E02D602F812F09958981853009F04EC01D
:10132000E0910103F09102030084F185E02D602F2C
:10133000812F099543C0983061F46C8181E190E080
:101340000E94FE328D818823C9F144E04A95F1F76D
:1013500014C0903191F0903499F46C8160935802EC
:1013600081E0809304038D81882341F183E190E043
:101370000E94FE3284E08A95F1F70E9433051EC078
:10138000903861F460913B0660936A0188E190E0D7
:101390000E94FE32A4E0AA95F1F710C0933071F4D8
:1013A0006C81862F90E090936C0180936B0189E1B2
:1013B00090E00E94FE32B4E0BA95F1F781E086C079
:1013C00090915A02F62E961708F4F92E823009F001
:1013D0007BC0E0905B02DE2C0F2D10E02D2D2E192E
:1013E0008D2D992787FD909530915B02A801430FC1
:1013F000511D841795079CF0809159028432B1F1F8
:1014000080915B028F0D80935B0280915A028F194D
:1014100080935A02882309F44DC080E057C03327D7
:1014200027FD309548E1FE01E20FF31FD41217C0EB
:101430008081813071F461E080E290E00E94FE32B0
:1014400048E150E061E270E08FE093E00E94EE320C
:101450000BC06FEF80E290E00E94FE3205C0208159
:10146000FC01E15FFC4F2083D394B8CF80915202FE
:101470008F5F80935202E0905B02D22EDE180F2D18
:1014800010E03D2D3E0D8E2D90E020915B02A801D5
:10149000420F511D841795070CF0B2CFFE01E30FE8
:1014A000F11D37FDFA95608180569F4F0E94FE32F4
:1014B000E394E7CF80915902843219F481E080935C
:1014C0000B03109259027ACF20E096CFDF91CF9193
:1014D0001F910F91FF90EF90DF90089544E14A959E
:1014E000F1F79BB195609BB994E09A95F1F79BB1A8
:1014F0009A7F9BB942E04A95F1F722E732E0F90181
:101500009E2F921B98170CF598E0589A46E04A9542
:10151000F1F700C0408140FD05C045E04A95F1F774
:1015200000C005C0589845E04A95F1F7000000005A
:10153000408146954083915041F7589A93E09A959F
:10154000F1F7000058983196DBCF8AB185608AB9EF
:101550000895209A289A28988AB18A7F8AB98BB1EF
:1015600085608BB934E03A95F1F789B185708530A3
:1015700011F4A895FACF4DE04A95F1F700C088E044
:101580006FEF6695489B606890E19A95F1F78150FE
:10159000C1F78AB185608AB98BB18A7F8BB9809196
:1015A000820290918302009709F448C02091810241
:1015B0002230C9F463FF04C081E08093040302C0B9
:1015C0001092040364FF04C081E08093070302C00B
:1015D0001092070366FF04C081E080930E0324C0CD
:1015E00010920E0321C0243039F40197E9F481E10F
:1015F00090E00E94FE3218C0213041F4019719F4A6
:101600006093710111C0609370010EC0233061F4CA
:10161000E6E2F3E0E81BF90B6083EFE0F3E081E042
:1016200081938F5F8931E1F78091820290918302EB
:1016300001979093830280938202C7C01092810227
:10164000662309F4C4C0613081F48091090380935A
:101650007202EBE3F6E0A3E7B2E081918D9336E00E
:10166000E834F307D1F78DE0AEC0623079F48091B1
:101670003A0680937202EAE2F6E0A3E7B2E08191D3
:101680008D9346E0E733F407D1F7EDCF613141F4B4
:10169000E0910103F09102030284F385E02D13C071
:1016A000623141F4E0910103F09102030284F38579
:1016B000E02D17C0643161F4E0910103F091020361
:1016C0000084F185E02D609170018091710117C057
:1016D000683151F4E0910103F09102030084F18537
:1016E000E02D60E080E00BC06A3159F4E091010325
:1016F000F09102030284F385E02D6AE08FEF0995F3
:1017000064C06B3141F4E0910103F0910203008465
:10171000F185E02DF2CF6C3151F482E090E09093AE
:1017200083028093820281E0809381020895603277
:1017300041F481E090E0909383028093820282E002
:1017400036C0613209F52091040388E0289F90019A
:1017500011248091070340E1849FC0011124282BAC
:101760008091F702282B80910E0330E4839FC00103
:101770001124282B8091F60240E8849FC001112497
:10178000282B209372021EC0623241F487E190E060
:10179000909383028093820283E009C0633251F404
:1017A00081E090E0909383028093820284E08093B2
:1017B00081020BC06F3F19F46093720203C081EF86
:1017C0008093720281E00E946E0A81E0089580E0B9
:1017D00008958CEE94E008953D98459808950F93F0
:1017E0001F93CF93DF93662309F456C07727A0E0B9
:1017F000B0E040E050E09D0146175707ACF4189662
:1018000010E8FC01E40FF51F00810123E901C85B2A
:10181000D94F08832F5F3F4F16952A173B07A1F733
:101820004F5F5F4FD901E7CF109709F435C0229A77
:101830002A9AE898E8E4F6E0CF93DF93EF93FF93DA
:101840000191002311F061F418C000003D9A1CE0E2
:1018500011D000003D9800000000119789F70DC0DD
:101860003D9A12E007D03D9818E004D0000011978F
:1018700039F703C01A95F1F708950000FF91EF9131
:101880003D9ADF91CF9112E0F5DF3D980FEF0A9579
:1018900011F0359BFCCF2A98229A2A9AE8E4F6E0C8
:1018A000EF93FF93442700270395A1F03599FCCFD0
:1018B00008C00FE5039572F03599FCCF439551F0C0
:1018C00001930FE5039532F0359BFCCF439511F062
:1018D0000193EFCFFF91EF912A98E89A842F90E03F
:1018E0000097A1F040FF12C0DF019D01708161816E
:1018F00051E0761708F050E05D9332965A2F521B54
:101900005417A0F301979595879502C080E090E069
:10191000DF91CF911F910F910895CF93DF931F9285
:10192000CDB7DEB7198261E070E0CE0101960E946A
:10193000EF0B009701F14897D9F480E090E021E0A7
:10194000FC01E85BF94F308131112160873011F0E3
:10195000220F01C02F7701968830910589F7222345
:1019600051F0253059F0283061F482E190E00BC04D
:1019700083E090E008C080E090E005C083E190E063
:1019800002C089E090E00F90DF91CF910895089513
:101990009F92AF92BF92CF92DF92EF92FF920F93FE
:1019A0001F93CF93DF93CDB7DEB760970FB6F89450
:1019B000DEBF0FBECDBF80910303882309F460C052
:1019C0006091380670E020E0822F992787FD90957E
:1019D000861797076CF4E9E0F0E0EC0FFD1FE80FC5
:1019E000F91FDC01A95DBA4F8C9180832F5FECCF8A
:1019F000CE0109960E94EF0B21E031E0E7E2F5E02D
:101A0000DF01A9011D9241505040E1F7869586956E
:101A10008695682F70E090E000E810E0292F3327CA
:101A200027FD30952617370734F5A901E3E0440F69
:101A3000551FEA95E1F7D901A85DBA4FFC9020E067
:101A400030E0F901E40FF51FE85BF94FE081EE2388
:101A500041F0F801022E02C0F595E7950A94E2F7ED
:101A600001C0E0E0FE2A2F5F3F4F2830310549F7E3
:101A7000FC929F5FD3CF80932705109203034EC043
:101A8000809184028F3F79F0882321F081508093E8
:101A9000840209C010928B0210928A0284E0809323
:101AA0007E01109285020E948D0C80938602833104
:101AB00009F433C181110EC080918902811103C0E4
:101AC00081E08093F70281E090E090938802809318
:101AD000870227C1109289028E01075F1F4F823152
:101AE00049F480E3898780917E018A87809185020D
:101AF0008B870DC080E4898783E08A8721E080910D
:101B00008A0290918B02892B09F420E02B8763E0F5
:101B100070E0C8010E94EF0B803421F081E08093D7
:101B20000803FFC086E0EEE3F6E0DF011D928A9530
:101B3000E9F7D0903E0690903F06A0904106B09005
:101B4000420690914006C090430620E030E040E815
:101B500050E0822FF901E85AF94F6081662341F085
:101B6000BA01022E02C0759567950A94E2F701C08A
:101B700060E0D62AD901A05AB94F6C91611109C011
:101B80007A01082E02C0F594E7940A94E2F7FE2C3D
:101B900001C0F12CF928D901A859B94F6C916623DD
:101BA00041F0DA01082E02C0B595A7950A94E2F734
:101BB00001C0A0E0EA2EEA28D901A059B94F6C91E2
:101BC000611108C0FA01082E02C0F595E7950A9444
:101BD000E2F701C0E0E0BE2AF901E858F94F608160
:101BE000662341F0BA01082E02C0759567950A94E4
:101BF000E2F701C060E0692BF901E058F94F9081EC
:101C0000992341F0FA0102C0F595E7958A95E2F72C
:101C1000CF0101C080E0C82A2F5F3F4F2830310537
:101C200021F09F2CAE2C962F94CFD0923E06F092AE
:101C30003F06E0924106B092420660934006C09291
:101C4000430688E0E4E1F2E0DE01119601900D9296
:101C50008A95E1F790913B06FE01319683E0A82F2B
:101C6000BB27A7FDB095A85BB94F2C91222311F09B
:101C70002081922B282F8F5F883011F482E0820F11
:101C80003196E017F10759F790933B06809154067F
:101C9000882329F0809146068460809346068091CF
:101CA0005506882329F08091460688608093460671
:101CB00080915606882329F08091460680628093A1
:101CC000460680915706882329F080914606806158
:101CD0008093460680918602823119F480E88093D1
:101CE0003E0680913E06811118C0E11016C0809119
:101CF0004506811112C0FFEFFF120FC080E88093EC
:101D00004506809343068093400680934206809365
:101D1000410680933F0680933E06109288021092FF
:101D2000870260960FB6F894DEBF0FBECDBFDF917D
:101D3000CF911F910F91FF90EF90DF90CF90BF90C8
:101D4000AF909F9008950E94EC0B0E948D0C8093A1
:101D5000860281E0809389020C94C80C609384020F
:101D6000882361F021E030E030938B0220938A02D7
:101D700096E090937E0180938502089510928B02E5
:101D800010928A0284E080937E0110928502089569
:101D90000C94AE0E81E08093890281E090E09093F4
:101DA0008802809387020E94C80C809187029091DC
:101DB0008802892B19F480918602089580E00895A5
:101DC00082E791E0089508950895089586B11D9BD6
:101DD00002C0806408958F7B08958AB188618AB9B2
:101DE0005C985B9A84B18F7C84B985B1806385B936
:101DF000389A409A87B1817C87B988B18F6388B956
:101E00000895EF92FF920F931F93CF93DF93EC010E
:101E1000409A80E58A95F1F70E94E60EE82E4098F8
:101E200090E49A95F1F70E94E60EF82E409A80E52C
:101E30008A95F1F7409890E49A95F1F70E94E60EA2
:101E4000082F409A80E58A95F1F7409890E49A959A
:101E5000F1F70E94E60E182F409A80E48A95F1F778
:101E60000E94E60E409890E59A95F1F7409AE0942A
:101E7000E882F094F98280958A8300950B8310950F
:101E80001C83DF91CF911F910F91FF90EF900895E8
:101E9000409888E28A95F1F7419A98E29A95F1F78D
:101EA00086B1419898E29A95F1F726B1409A2C7341
:101EB00094E0299F900111248C7386958695822B3E
:101EC00080950895CF93DF93CDB7DEB728970FB6EF
:101ED000F894DEBF0FBECDBF809109038B3379F438
:101EE000309905C080913B06826080933B06319912
:101EF00027C180913B06816080933B0621C18730DA
:101F000009F057C081E01D9B03C08F5F8E3FD9F75A
:101F100031E08E3F09F030E021E0813009F020E02F
:101F2000232B81E01D9B04C096B18E3F29F406C08F
:101F30008F5F8E3FB9F702C0813009F42F5F81E0D7
:101F40001D9B04C08F5F8E3FD9F704C08E3F11F0F8
:101F5000813019F4223009F4BEC086B191FD05C06C
:101F600020913B06216020933B0686958E71082EBA
:101F700001FA87F902FA86F903FA85F905FA83F975
:101F800006FA82F907FA81F996959E71092E01FAEF
:101F900097F902FA96F903FA95F905FA93F906FA10
:101FA00092F907FA91F982958F70892B80934506F3
:101FB000C7C0873111F08633B9F50E94480F982FBA
:101FC0009F709F3079F496E39093090320E02827CF
:101FD0002F73282784FB23F985FB22F920933B06E6
:101FE0000E94480F20913B0690E084FB95F985FB09
:101FF00094F986FB90F987FB91F9922B90933B061D
:1020000090E080FB94F981FB93F982FB95F983FBC7
:1020100092F99093460686B1813009F491C086B159
:10202000813409F058C08CC0883109F044C0409A0E
:1020300014B8539A5B9A88B18FEF88B9399887EBB7
:102040009BE00197F1F700C0000086B180958C738A
:1020500090E082FB95F983FB94F984FB93F985FB6F
:1020600092F99093460688E0ECE1F2E0DE011196E9
:1020700001900D928A95E1F7399A41985B98FE019B
:102080003896CE01419A419824E02A95F1F71D999E
:1020900006C0208130913B06232B20933B063197CD
:1020A000E817F90779F7419A419884E08A95F1F7A2
:1020B0001D9B46C010C08451823008F041C08AB1D7
:1020C00088618AB95C985B9ACE0101960E94010FE3
:1020D0009A81913821F481E08093F70231C089819F
:1020E000282F220F211D2877022E01FA27F902FA44
:1020F00026F903FA25F905FA23F906FA22F907FA6F
:1021000021F92093460620E081FB21F986FB27F97F
:10211000822F95959172892B80933B0690910903AC
:10212000953171F49B8120E092FB24F993FB22F915
:1021300094FB23F995FB26F9922F982B90933B065D
:1021400028960FB6F894DEBF0FBECDBFDF91CF91BA
:102150000895CF93DF9300D000D01F92CDB7DEB7A4
:1021600081E01D9B04C08F5F8E3FD9F705C08DEFC6
:102170001D9936C08150E1F786B1833429F483E09C
:1021800088B987B987E131C0CE0101960E94010F5D
:102190008A818D3C49F18D3829F48D818D3811F17A
:1021A0008D3B11F15B9887EB9BE00197F1F700C045
:1021B0000000539A399A419814B813B89CE080E013
:1021C000419A419824E02A95F1F71D9B8F5F915029
:1021D000B9F78350893010F488E107C080E005C06A
:1021E00087E003C084E101C085E10F900F900F905C
:1021F0000F900F90DF91CF9108958FE791E00895B0
:102200000895089508951092970110928E021092E9
:102210008F0210928C028AB188618AB95C985B9AAD
:102220003A9A4298089587B190919202892B87B982
:1022300087B190919302892B87B990919102292FB0
:10224000209580919402822380939402809195023C
:10225000892B8093950288B190919302892B88B93C
:1022600098B1809192028095892388B9089581E080
:102270008093930282E08093920280E280939102A5
:1022800083B18093900285B18093950284B180934D
:1022900094023C9A449A3D9A45980E941311809169
:1022A0000C03811102C00E94FA028DEE92E00197A8
:1022B000F1F700C0000080910C03811102C00E9460
:1022C000FA028DEE92E00197F1F700C000008091D4
:1022D0000C03811102C00E94FA028DEE92E0019778
:1022E000F1F700C0000080910C03811102C00E9430
:1022F000FA028DEE92E00197F1F700C0000087B17D
:1023000085B115B887EB9BE00197F1F700C000009D
:1023100085B18FEF85B920E180E038B190919302CB
:102320009095932398B998E09A95F1F798B13091E8
:102330009302932B98B998E09A95F1F793B1309165
:102340009102932309F08F5F215039F7982F9D7FD9
:102350009C3021F481E080938F0207C0813029F006
:10236000823029F481E080938E0289E108958430DF
:1023700089F3873009F43AC13C98449A3D98459ACC
:1023800080E28093930280E18093920288E08093C0
:10239000910286B18093900288B18093950287B1B3
:1023A000809394020E941311449A90E020E038B187
:1023B000809193028095832388B986B130919102F0
:1023C000832319F491310CF02F5F88B1309193027F
:1023D000832B88B99F5F903251F7243021F48AE132
:1023E00080930903089598B1809192028095892382
:1023F00088B988B190919202892B88B980E38A9537
:10240000F1F798B1809192028095892388B988B1BB
:10241000836088B987B18C7F87B987EB9BE0019790
:10242000F1F700C0000030E220E080E096B140917A
:102430009102942309F48F5F30992F5F48B19091F6
:1024400093029095942398B998E19A95F1F798B1F1
:1024500040919302942B98B998E19A95F1F73150F5
:1024600029F796B1903219F4243009F4C1C02150F3
:102470002F3128F481E0809391028EE10895883114
:1024800009F4B8C0803109F4B7C0813019F48093E1
:102490008D02B2C096B1993229F481E08093910205
:1024A0008CE10895813509F4A9C08D3009F4A6C0E6
:1024B000823109F4A3C088E08093930282E0809384
:1024C000910286B18093900288B18093950287B182
:1024D000809394020E941311539A5B983D9A459AF7
:1024E00097B1809191028095892387B988B19091A5
:1024F0009102892B88B93C98449A259A2D98209A64
:10250000389A80910C03811102C00E94FA028DEE6C
:1025100092E00197F1F700C0000080910C03811157
:1025200002C00E94FA028DEE92E00197F1F700C01E
:10253000000080910C03811102C00E94FA028DEE0E
:1025400092E00197F1F700C0000080910C03811127
:1025500002C00E94FA028DEE92E00197F1F700C0EE
:10256000000087B185B115B887EB9BE00197F1F7C3
:1025700000C0000085B18FEF85B92D9A409A90E395
:102580009A95F1F72D98409830E220E090E086B1DE
:1025900040919102842309F49F5F349B2F5F48B1DF
:1025A000809193028095842388B9289888E18A9540
:1025B000F1F788B140919302842B88B9289A88E179
:1025C0008A95F1F7315019F788EF890F823020F49E
:1025D00081E080938D0214C0983191F021502F3109
:1025E00088F480E18093910285E3089585E208955F
:1025F00084E2089581E108958BE108958DE10895C5
:1026000084E3089580E0089580910903853219F0EC
:10261000893109F0B8C18FEF8093900280918F02C9
:10262000882311F198B1809193028095892388B90C
:1026300028E02A95F1F788B190919302892B88B907
:1026400038E03A95F1F798B180919302809589230B
:1026500088B958E05A95F1F788B190919302892B87
:1026600088B988E08A95F1F780918E02882389F0F5
:1026700098B1809193028095892388B998E09A95C2
:10268000F1F788B190919302892B88B928E02A95B7
:10269000F1F728E091E0990F38B18091930280958D
:1026A000832388B938E03A95F1F783B130919102EC
:1026B000832309F0916088B130919302832B88B90C
:1026C00058E05A95F1F7215031F738E081E0880F52
:1026D00048B1209193022095242328B928E02A9517
:1026E000F1F723B140919102242309F0816028B1D0
:1026F00040919302242B28B958E05A95F1F73150B4
:1027000031F78F3F21F4209197012111B0C221E0D0
:102710002093970120910903253209F00FC198E019
:1027200028B1809193028095822388B98CE08A95A4
:10273000F1F783B188B120919302822B88B928E008
:102740002A95F1F7915061F798E041E0440F28B1E4
:10275000809193028095822388B938E03A95F1F709
:1027600083B120919102822309F0416088B12091C8
:102770009302822B88B958E05A95F1F7915031F7BE
:1027800098B1809193028095892388B988E08A95D1
:10279000F1F788B190919302892B88B998E09A95C6
:1027A000F1F798B1809193028095892388B928E048
:1027B0002A95F1F788B190919302892B88B938E076
:1027C0003A95F1F798E031E0330F28B18091930208
:1027D0008095822388B958E05A95F1F783B120910A
:1027E0009102822309F0316088B120919302822BFB
:1027F00088B988E08A95F1F7915031F798E021E0A7
:10280000220F58B1809193028095852388B958E0B2
:102810005A95F1F783B150919102852309F0216017
:1028200088B150919302852B88B988E08A95F1F799
:10283000915031F798B1809193028095892388B99E
:1028400098E09A95F1F788B190919302892B88B915
:1028500058E05A95F1F798B18091930280958923B9
:1028600088B988E08A95F1F788B190919302892B15
:1028700088B998E09A95F1F758E091E0990F68B11E
:10288000809193028095862388B988E08A95F1F734
:1028900083B160919102862309F0916088B16091C3
:1028A0009302862B88B988E08A95F1F7515031F769
:1028B00068E081E0880F78B15091930250955723DA
:1028C00058B958E05A95F1F753B1709191025723D6
:1028D00009F0816058B170919302572B58B958E0B4
:1028E0005A95F1F7615031F740933E0630933F0619
:1028F0002195220F220F22502093440620E080FBD6
:1029000027F981FB26F982FB24F983FB25F930E0C6
:1029100038273F7C382786FB33F987FB32F9309321
:10292000460650E05927557F592790FB52F992FBF4
:1029300050F9952F922B90933B068EC220913B0627
:10294000322F82FB30F983FB31F930933C0630E0C3
:1029500091FB34F992FB35F993FB32F994FB33F98F
:102960003093460690FF03C0216020933B06909170
:102970003B0698279F7C982786FB97F987FB91F960
:1029800090933B0669C295EE980F943048F08131E0
:1029900039F09CEC980F923018F0843209F0D3C1D2
:1029A00098B1809191028095892388B9809109031B
:1029B0009CEC980F923068F4259A2D9A8CE28A95B7
:1029C000F1F72D98389A409A9CE29A95F1F7409841
:1029D00007C08C3129F088B190919202892B88B977
:1029E00020E32A95F1F798B180919202809589238E
:1029F00088B980910903982F9D7F9C3111F0843212
:102A000069F488B1836088B987B18C7F87B958E051
:102A100040E020E030E090E061E011C08533B9F79C
:102A2000449A3C98F4CF853369F5289888E18A95D3
:102A3000F1F7289A88E18A95F1F75150A9F1990F99
:102A4000220F440F330F80910903843311F08D312D
:102A500029F488B170919102872B88B986B1709161
:102A60009102872311F491603160809109038432CF
:102A7000D1F686B181708627282B86B18695817024
:102A80008627482B78B1809193028095872388B957
:102A900088E18A95F1F788B170919302872B88B904
:102AA00082E18A95F1F7C9CF80910903843249F513
:102AB000211103C081E08093F70280E084278F73A7
:102AC000842741FB83F980933B0680E024FB85F952
:102AD00026FB80F927FB81F990E040FB94F942FB4B
:102AE00097F943FB93F944FB96F945FB92F9492F7B
:102AF000482B40933C0630E025FB30F930933D06EF
:102B000008959F3F69F48B3109F4B1C0813109F414
:102B1000AEC0843329F420918D0221113BC0A7C09F
:102B20008C3179F4319B05C080913B0682608093A3
:102B30003B0630995CC080913B06816080933B06E8
:102B400056C08E3111F0853329F590E890933F06F9
:102B500090933E0690918C0294361CF49F5F909364
:102B60008C0290918C02943619F4332309F47FC0BF
:102B7000853321F4399858E25A95F1F7319B03C017
:102B800010923B0603C081E080933B063095309362
:102B90004506089520E090FB25F991FB24F992FB6E
:102BA00023F993FB22F92093460620913C0630E05E
:102BB00022FB35F923FB34F924FB33F925FB32F9E9
:102BC00030933C0620E094FB25F995FB24F996FB15
:102BD00020F997FB21F920933B06813109F43FC18D
:102BE000843329F480918D02882309F438C18091BF
:102BF0008D02811102C068E001C068E130E040E070
:102C000020E080E0383014F4880F07C058EF530FED
:102C1000583010F4220F01C0440F56B17091910248
:102C2000572359F4383014F4816007C058EF530F1C
:102C3000583010F4216001C0416078B15091930286
:102C40005095572358B958E15A95F1F758B17091FA
:102C50009302572B58B958E15A95F1F73F5F361751
:102C60008CF230910903811106C03D3121F481E0DD
:102C70008093F70208953D3111F520E094FB25F98A
:102C800095FB24F996FB22F997FB23F9922F20E07C
:102C900082FB21F983FB20F984FB27F985FB26F9C8
:102CA000292B20933B0690913C0630E086FB30F9BF
:102CB00087FB31F9832F892B80933C06CDC03B31B4
:102CC000B1F450E094FB55F995FB54F996FB52F999
:102CD00097FB50F9952F50E084FB57F985FB56F987
:102CE00086FB53F987FB51F9592B50933B06909182
:102CF0008D02992309F4B0C0343311F0822F242FB0
:102D0000880F811D082E01FA87F902FA86F903FA65
:102D100085F905FA83F906FA82F907FA81F98093B1
:102D20003C06220F211D022E01FA26F902FA27F98C
:102D300003FA25F905FA23F906FA22F907FA21F927
:102D400020933D0689C08A3109F086C088B19091F0
:102D50009202892B88B928E090913B06990F9093B5
:102D60003B0638B1809193028095832388B986B160
:102D700030919102832319F4916090933B0688B1BE
:102D800090919302892B88B9215031F780913B06AD
:102D9000082E00FA85F901FA84F902FA86F904FA94
:102DA00082F905FA80F906FA81F980933B0682E000
:102DB00090E021E030E058B14091930240954523E6
:102DC00048B946B150919102452359F460914606A5
:102DD000A901082E01C0440F0A94EAF7642B6093FE
:102DE000460648B150919302452B48B9019686306A
:102DF000910509F78091460690E082FB92F983FBEA
:102E000095F984FB93F985FB94F99093460680E24B
:102E100098B120919302922798B98150C9F798B13F
:102E2000809193028095892388B9809197018823A6
:102E300041F086B190919102892319F081E080934D
:102E4000F70288B190919302892B88B998B180914B
:102E500092028095892388B981E080939701089533
:102E60008BE891E0089508950895089583EC87B95B
:102E70008FE388B9089518B88FED9EE20197F1F7B6
:102E800000C0000086B18C3019F086B1883029F47A
:102E900017B88FEF88B98AE3089588B1836088B93D
:102EA0009CE19A95F1F786B186958695883029F050
:102EB000863019F0833019F4089588E0089580E091
:102EC0000895CF93809109038A33C1F486B1809528
:102ED00083FF05C090913B06916090933B0681FF74
:102EE00005C090913B06926090933B0680FF4AC1DB
:102EF00080913B06806280933B0644C188B1836029
:102F000088B93CE13A95F1F786B186958695869524
:102F1000A6B141989CE19A95F1F7873021F481E0C0
:102F20008093F7022FC1813009F03EC0A695A69587
:102F3000A827A17086B1809530E082FB35F983FB2C
:102F400034F984FB33F985FB32F93093460688B1B6
:102F500093E0892788B98CE18A95F1F786B180954D
:102F600090E082FB95F983FB90F984FB97F985FB50
:102F700091F988B18C7F88B93CE13A95F1F7B6B107
:102F8000B09580E0B3FB82F9B4FB83F9B5FB86F919
:102F9000B82FB92B329BA26088B18C7F88B980E8AA
:102FA00020E840E860E8E2C088B18C7388B99CE111
:102FB0009A95F1F738E23A95F1F7409A8CE18A95C3
:102FC000F1F7C6B190E0C2FB93F9C3FB92F9C4FBE1
:102FD00091F9C5FB90F9C92FCC0FF0E0E0E080E853
:102FE00020E840E860E8A0E0B0E0FC170CF0B8C0D2
:102FF00034E23A95F1F7409B04C098B19C7398B9BC
:1030000001C0409A94E29A95F1F7F1110EC096B181
:10301000909530E092FB35F993FB34F994FB33F94A
:1030200095FB32F93093460699C0F13061F496B1C0
:10303000909530E092FB35F993FB30F994FB37F92A
:1030400095FB31F90DC0F23069F4329BA26096B164
:10305000909530E093FB32F994FB33F995FB36F908
:10306000B32B7CC0F33031F4329BA1609CE09A9585
:10307000F1F774C0F43009F454C0F530C1F466B10E
:103080006695669530E1639FB00111246E2B660F43
:10309000611D062E01FA67F902FA66F903FA65F96D
:1030A00005FA63F906FA62F907FA61F957C0F630D2
:1030B000C1F1F730C1F446B14695469590E1499F7C
:1030C000A00111244E2B440F411D042E01FA47F993
:1030D00002FA46F903FA45F905FA43F906FA42F904
:1030E00007FA41F93BC0F830E1F0F930C1F426B1FC
:1030F0002695269590E1299F900111242E2B220FD1
:10310000211D022E01FA27F902FA26F903FA25F900
:1031100005FA23F906FA22F907FA21F91FC0FA3055
:1031200021F4E6B1E695E69519C0FB30B9F486B115
:103130008695869530E1839FC00111248E2B880FE0
:10314000811D082E01FA87F902FA86F903FA85F93A
:1031500005FA83F906FA82F907FA81F9FF5F45CF8C
:1031600098B1936098B99CE19A95F1F760933E0607
:1031700040933F068093400620934306B0933B065E
:10318000A0933C06CF91089588E991E008950895B1
:103190000895089581E080937C0083E880937A000D
:1031A00017B88FEF88B914B885B90895DF92EF92F8
:1031B000FF920F931F93CF93DF93D82EFB01D7017C
:1031C000E90198818095982398839C9198239C93FA
:1031D000DA019C9191609C9390819E7F9083CFE6D1
:1031E000D7E12197F1F700C00000908191609083B2
:1031F00080E0F80190819D2119F48F5F8E3FC9F71F
:10320000DF91CF911F910F91FF90EF90DF90089584
:10321000EF92FF920F931F93CF938AB188618AB97F
:103220005C985B9A83B18E3309F481C083B18B3390
:1032300009F47FC025982D9A5B9887EB9BE0019756
:10324000F1F700C0000083B18F3121F486B18F37D0
:1032500009F471C053982598389A409887EB9BE001
:103260000197F1F700C000004B9902C01D9B57C0A9
:1032700017B88FEF88B914B885B994E2E92EF12C0C
:1032800003E210E025E230E047E250E068E270E05F
:1032900080E20E94D618C82F2AE2E22EF12C09E221
:1032A00010E02BE230E047E250E068E270E088E0B6
:1032B0000E94D618C250CC3F18F482508C3F88F13F
:1032C000209A289887EB9BE00197F1F700C0000057
:1032D0001C9B29C084E2E82EF12C03E210E025E2D9
:1032E00030E044E250E065E270E088E00E94D618E9
:1032F00025E230E044E250E065E270E088E00E94C0
:10330000D61890E00B978F3E910578F0549A5C9810
:10331000389A409A53981092090380E00DC08BE2CE
:103320000BC089E209C081E307C086E005C089E3DC
:1033300003C088E301C084E0CF911F910F91FF90FB
:10334000EF900895EF92FF920F931F9317B88FEFAE
:1033500088B914B885B980910903811105C0549AC0
:103360005C98389A409A539880910903877F8133FB
:1033700029F48AB188618AB95C985B9A87EB9BE0F3
:103380000197F1F700C0000096B123B190958091AC
:1033900009038A3209F03FC0549A5C9853985B9AAB
:1033A00091FF05C08091460684608093460694FF95
:1033B00005C08091460688608093460693FF05C04D
:1033C0008091460680618093460692FF05C08091F9
:1033D000460680628093460680913B064B9B02C066
:1033E0008E7F01C0816080933B062D982598389A86
:1033F000409887E99AE30197F1F700C00000409AEE
:1034000080E01D9902C08F5FFCCF982F990F990F14
:1034100088EC891B7DC48C32B9F58AB1877E8AB964
:103420008BB188618BB93C9A449887EB9BE00197FC
:10343000F1F700C0000080E880933F0680933E06CD
:103440004B9905C080914606846080934606329968
:1034500005C080913B06816080933B06309905C092
:1034600080914606806180934606319905C080911F
:1034700046068062809346061D995CC4809146068C
:1034800088608093460656C48B3209F086C0389A0D
:10349000409A87B1837C87B988B1837C88B98AB127
:1034A000877E8AB93D9A87EB9BE00197F1F700C0D0
:1034B00000004B9905C080913C06816080933C06DA
:1034C0001D9905C080913C06826080933C0631992D
:1034D00005C080913C06846080933C063D9887E55A
:1034E00092E00197F1F700C000003C9A87EB9BE067
:1034F0000197F1F700C000004B9905C080913C0690
:10350000886080933C061D9905C080913C068061CF
:1035100080933C06319905C080913C06806280937F
:103520003C063C983B9A87EB9BE00197F1F700C083
:1035300000004B9905C080913C06806480933C0656
:103540001D9905C080913C06806880933C063199A6
:1035500005C080913D06816080933D063B983A9A74
:103560008FE697E10197F1F700C000004B9905C085
:1035700080913D06826080933D061D9905C0809133
:103580003D06846080933D06319905C080913D06DB
:10359000886080933D063A98CDC3863009F0FBC021
:1035A0003E98259A2D9A3D9A4598209A289A2B98CC
:1035B000239A8FE697E10197F1F700C00000239866
:1035C00080E01B9903C08F5F8E3FD9F790E0880F92
:1035D000991F8F3F910519F010F08FEF90E08093C5
:1035E0003F0646983E9A8FE697E10197F1F700C0B3
:1035F00000003E9880E0369903C08F5F8E3FD9F778
:1036000090E0880F991F8F3F910519F010F08FEF10
:1036100090E080933E068F3F39F480913F068F3FC4
:1036200019F481E08093F702000000000000000020
:103630000000000017B814B88FEF85B988B98AB1B7
:10364000877E8AB98BB188618BB93B9A43983B9846
:10365000000000000000000000000000339B05C0D7
:1036600080913B06816080933B06399A4198399856
:10367000000000000000000000000000319B05C0B9
:1036800080913B06826080933B063C9A449894E18B
:103690009A95F1F7199905C080913C068260809354
:1036A0003C061A9905C080913C06816080933C06D7
:1036B0001C9905C080913B06806180933B064C9924
:1036C00005C080913C06846080933C063C98449AF7
:1036D0003A9A429824E12A95F1F7199905C0809108
:1036E0003C06806180933C061A9905C080913C0697
:1036F000886080933C061C9905C080913B068062DF
:1037000080933B064C9905C080913C068062809373
:103710003C063A98429A389A409884E18A95F1F7A3
:10372000199905C080913C06806880933C061A99DF
:1037300005C080913C06806480933C061C9905C0BE
:1037400080913B06846080933B064C9905C0809134
:103750003D06816080933D063898409A539A5B9865
:1037600094E19A95F1F7199905C080913D06826020
:1037700080933D061A9905C080913D06886080932C
:103780003D064C9905C080913D06846080933D06BE
:1037900053985B9ACFC24091460630E092FB35F9D0
:1037A00093FB34F994FB33F995FB32F9342B3093C6
:1037B0004606843019F5549A5C98389A409A539882
:1037C000539A5B9828E22A95F1F726B120955B9AE7
:1037D00088E28A95F1F796B19095892F82273091EA
:1037E0003B06832B922396959170892B80933B0601
:1037F0001D9BA0C2816080933B069CC2803309F070
:10380000BDC017B89FEF98B98AB1877E8AB98BB1CE
:1038100088618BB984B184B985B195B988E087B9DD
:1038200087EF88B998E29A95F1F7309905C08091B1
:103830004606806280934606319905C0809146060F
:103840008061809346064B9905C08091460688604A
:103850008093460680E187B98FEE88B928E22A95E1
:10386000F1F7339905C0809146068460809346063F
:1038700080E187B98FEE88B988E28A95F1F73599AA
:1038800005C080913B06816080933B064C9905C042
:1038900080913B06826080933B0682E087B98DEF82
:1038A00088B998E29A95F1F7359905C080913D065F
:1038B000846080933D064C9905C080913C068068E9
:1038C00080933C06329905C080913C0680618093CC
:1038D0003C061D9905C080913C06826080933C06A1
:1038E00081E087B98EEF88B928E22A95F1F73599FA
:1038F00005C080913D06886080933D064C9905C0C7
:1039000080913D06816080933D06329905C080918B
:103910003C06806280933C061D9905C080913C0660
:10392000846080933C0617B88FEF88B9539A5B98F0
:1039300088E28A95F1F7359905C080913D0682604D
:1039400080933D064C9905C080913C06806480932D
:103950003C06329905C080913C06886080933C0605
:103960001D9905C080913C06816080933C068AB118
:10397000877E8AB98BB188618BB9DCC1813019F03F
:10398000823209F0A8C08AB188618AB9319905C02C
:1039900080913B06816080933B0680EC87B98FE382
:1039A00088B95B985C9A90E29A95F1F7319905C0D5
:1039B00080913B06826080933B0656B156955695A2
:1039C00021E030E0052E02C0220F331F0A94E2F7F7
:1039D00040E080E090E0541302C0822B932B4F5FB5
:1039E0004F30C9F720913B06382F80E032FB82F937
:1039F00034FB83F9822B80933B0680913C0620E0C8
:103A000031FB23F936FB22F937FB25F9282B892FC7
:103A100090E080FB97F981FB94F984FB96F985FB94
:103A200091F986FB90F9292B20933C0690913D0655
:103A300020E082FB21F983FB20F9822F892B90E083
:103A400033FB92F935FB93F9892B80933D065C9803
:103A50005B9A80910903813009F46CC13898409ACF
:103A600025982D9A24E02A95F1F79091970290934A
:103A7000960286B180958170809397021D9902C04D
:103A800022E001C020E0822B80939702981709F46E
:103A900051C1933079F4813021F480914006815FE7
:103AA00006C0823009F046C1809140068A5080935A
:103AB000400640C1913031F4823079F3833009F00F
:103AC00039C1F2CF923009F035C1833031F3813002
:103AD00009F030C1E9CF91FF05C030913B0631605C
:103AE00030933B062095813351F425FF05C080912A
:103AF0003B06846080933B0690FFB9C010C08111E3
:103B000014C03898409A8AB188618AB95C985B9AE7
:103B100088E28A95F1F7309B02C025FFA8C080910A
:103B20003B06826080933B06A2C025FF05C0309112
:103B30003B06326030933B0690FF05C090913B06F8
:103B4000946090933B068853823008F090C088B10F
:103B50008FEF88B985B910923B0610923C063099D8
:103B600003C084E080933B06319905C080913B06F9
:103B7000816080933B061C9905C080913B0688605C
:103B800080933B061D9905C080913B06826080931F
:103B90003B0680910903883379F5369903C081E0AB
:103BA00080933C06199905C080913B068061809303
:103BB0003B06189905C080913B06806880933B06C0
:103BC0001A9905C080913B06806280933B068AB1BA
:103BD000877E8AB98BB188618BB94B9905C080917A
:103BE0003B06806480933B064C99A4C080913C06C0
:103BF000826080933C069EC080913B06982F81FF97
:103C000002C0946001C09B7F90933B0690913B065D
:103C100082FF02C0926001C09D7F90933B0636995F
:103C200005C080913B06806480933B06199905C0CE
:103C300080913B06806880933B061A9905C080916D
:103C40003B06806180933B061B9905C080913B0633
:103C5000806280933B068AB188618AB95C985B9ADE
:103C600086B180933C0683B180933D0663C020FFFC
:103C700005C080913B06886080933B0621FF05C00C
:103C800080913B06806480933B0622FF05C08091B3
:103C90003B06806180933B0623FF05C080913B0675
:103CA000806280933B06809109038133A1F124FF58
:103CB00009C080913B06806880933B0603C014B81E
:103CC0008FEF85B9809109038932A1F544E2E42E92
:103CD000F12C03E210E025E230E047E250E068E238
:103CE00070E080E20E94D6188095833010F08093B7
:103CF00044063AE2E32EF12C09E210E02BE230E038
:103D000047E250E068E270E088E00E94D6188095B3
:103D1000809345060FC0189B0DC0209A289887EB0A
:103D20009BE00197F1F700C000001C9BC8CF81E029
:103D30008093F7021F910F91FF90EF90089584EA0E
:103D400091E0089508950895089517B88FE388B90C
:103D500014B88FEF85B9089587B1836087B918B813
:103D600084E08A95F1F787B18C7F87B984E08A95E2
:103D7000F1F786B18370833011F48BE0089580E011
:103D80000895ECE4F7E080E090E040E250E09A0132
:103D9000082E02C0359527950A94E2F768B1A22F44
:103DA000A0956A2368B967B1622B67B964E06A9528
:103DB000F1F776B17370708363B168736695672BA2
:103DC0006083189B02C06062608338B1322B38B9BF
:103DD00027B12A2327B90196319684309105B9F687
:103DE00030914C07832F837019F481E08093F702A0
:103DF000309590E030FB94F940914D07842F8095E9
:103E00008170982B80914E07809520E080FB21F9EE
:103E1000922B20914F07522F509560E050FB67F98D
:103E200051FB65F9962B90933B0650E033FB55F917
:103E300034FB52F9409590E042FB97F943FB94F92B
:103E400044FB91F9952B50E082FB56F983FB53F923
:103E500084FB50F9952B90933C0690E032FB90F94F
:103E600050E085FB51F9852F892B60E035FB63F924
:103E7000862B90E045FB92F9892B80933D0624FD2B
:103E800004C080914606806205C023FD05C0809174
:103E9000460680618093460622FD04C08091460656
:103EA000886005C025FD05C080914606846080932A
:103EB0004606089580EB91E00895089508950895C9
:103EC00088B1806388B908958091BC0087FFFCCFDA
:103ED0008091B900887F08959F92AF92BF92CF9250
:103EE000DF92EF92FF920F931F93CF93DF93B82E41
:103EF0006B01942EA52E79016115710561F42115D0
:103F0000310509F477C084EA8093BC000E94641FE5
:103F1000803189F532C084EA8093BC000E94641F1E
:103F2000883009F06AC08B2D880F8093BB0084E82D
:103F30008093BC000E94641F883109F047C0C92DDE
:103F4000DA2DCC0EDD1E24E8A22ECC15DD0559F0AD
:103F500089918093BB00A092BC000E94641F8832AC
:103F6000A1F323E038C0E114F10469F684E98093F9
:103F7000BC0080E043C0883059F58B2D880F8160EC
:103F80008093BB0084E88093BC000E94641F80344F
:103F900009F5E701219784E8F82E94ECE92ECF3F4C
:103FA000FFEFDF0719F3209719F0E092BC0002C081
:103FB000F092BC000E94641F2197877F8035B1F684
:103FC0008091BB00F80181938F01E9CF22E003C00B
:103FD00024E001C025E090E0803A31F0883F81F094
:103FE000883321F484E803C084EA01C084E9809323
:103FF000BC0006C08FEF9FEF04C081E090E001C0DD
:10400000822FDF91CF911F910F91FF90EF90DF9062
:10401000CF90BF90AF909F900895AF92BF92CF92F4
:10402000DF92EF920F931F93CF93DF931F92CDB741
:10403000DEB789835B016A01E12C00E010E020E03B
:1040400030E0AE014F5F5F4F61E070E082E50E94BB
:104050006C1F811117C08FEA94E00197F1F700C03F
:1040600000008501960140E050E060E070E082E5EC
:104070000E946C1F811106C0EFEAF4E03197F1F75E
:1040800000C000000F90DF91CF911F910F91EF9032
:10409000DF90CF90BF90AF900895EF920F931F9352
:1040A000CF93DF93CDB7DEB760970FB6F894DEBF3E
:1040B0000FBECDBF84E38093B8008091B9008C7FA0
:1040C0008093B9001091990211113FC080EF89834C
:1040D00085E58A83E12C00E010E020E030E0AE01CD
:1040E0004F5F5F4F62E070E082E50E946C1FEFEA75
:1040F000F4E03197F1F700C00000811137C18BEF78
:1041000089831A8220E030E0AE014F5F5F4F62E0AA
:1041100070E082E50E946C1FEFEAF4E03197F1F75E
:1041200000C00000811122C142E050E0BE016F5F7B
:104130007F4F8EEF0E940D20811118C18A818093DC
:10414000C80181E08093990211C1113009F0EEC0DD
:1041500046E050E0BE016F5F7F4F80E00E940D207F
:10416000882361F080919802811102C01093F702B8
:1041700080EF8093C80110929902F8C010929802C3
:104180008091C801853009F4F1C030F4813009F420
:104190004CC0833039F449C0813109F446C0803FB6
:1041A00009F4E4C0E9817A817095FE818B8124E075
:1041B000829FC00111248A5F91092F2F2C7030E05B
:1041C0003595279535952795822B932B9695879531
:1041D000682F4C8184E0489FA0011124CA018A5FA6
:1041E00091092F2F207330E0A4E035952795AA95EB
:1041F000E1F7822B932B96958795282F4D8194E09C
:10420000499FA0011124CA018A5F91093F2F32956D
:10421000369536953370832B969587959F2F90957D
:104220009170F1FD8CC092608AC06981E62FEE0F1B
:10423000EE0F9A81F4E09F9F90011124722F7095E8
:104240008B81907C929596959770607C669566952B
:104250006695692B982F991F9927991F692B660FCF
:10426000660F660F282F220F220F220F2095AC8198
:104270003D81F32FF09590E0F1FB97F9F2FB95F972
:10428000F4FB94F9F5FB96F9F92F5E81452F4095E3
:1042900090E043FB93F944FB91F945FB92F946FB0F
:1042A00090F99F2BF0E042FBF1F947FBF0F94F2F1B
:1042B00033FD05C0F0913D06F460F0933D0650FDDE
:1042C00005C0F0914606F460F093460637FD05C040
:1042D000F0914606F062F093460651FD05C05091FC
:1042E000460650615093460636FD05C0309146069D
:1042F000386030934606E11106C07F3F21F420E884
:1043000060E870E8E0E83091F60231111BC03A2F06
:10431000330F330F330F807686958695A295A69539
:10432000A7708A2B880F880F880F0EC080E030E0BE
:104330002FEF6FEF40E090E070E8E0E805C030E07C
:1043400040E002C080E030E090933B0640933C06A2
:10435000E0933E0670933F06609341062093420629
:1043600080934006309343061092BC0060960FB6CF
:10437000F894DEBF0FBECDBFDF91CF911F910F919B
:10438000EF90089588B18C7F88B987B1836087B931
:1043900086B18033D8F081E0809398020E944D204E
:1043A0001092BC008091C801803F81F0882341F0C9
:1043B000813041F0833041F0813141F487E3089549
:1043C0008DE008958FE1089580E2089580E00895DA
:1043D0008CEB91E0089508951092F3028FE284B976
:1043E0008FEF85B98FE78CBD80912906811103C0BD
:1043F0008DE08093290680913706811103C08EE0FD
:10440000809337068091F502811103C083E1809388
:10441000F50280910603811103C084E180930603B5
:104420000895843608F484E68093B3026093B10261
:1044300008958FEF8093B4026093B20208958EBD09
:104440000DB407FEFDCF80910C03811102C00E94C4
:10445000FA028BE291E00197F1F700C000008EB5FF
:104460000895CF93C3E029988BE291E00197F1F78B
:1044700000C0000081E00E941F2282E40E941F22EF
:10448000299AEBE2F1E03197F1F700C000009FEFCD
:10449000980F9E3F30F491E090939A029093F3022C
:1044A00008C0E7EBFBE03197F1F700C00000C15016
:1044B000D1F69CB59F7B9CBD9091F302911101C0F8
:1044C00080E0CF910895CF9329988BE291E00197F6
:1044D000F1F700C0000081E00E941F2285E40E94E5
:1044E0001F2280E00E941F228AE50E941F22C5E051
:1044F0008AE50E941F22C150D9F7299A8BE291E0E8
:104500000197F1F700C00000CF910895CF93C82F15
:1045100029988BE291E00197F1F700C0000081E05B
:104520000E941F2283E40E941F2280E00E941F221B
:104530008C2F0E941F2280E00E941F22CC2349F072
:10454000299A8BE291E00197F1F700C00000CF912A
:1045500008958AE50E941F228AE50E941F228AE5AB
:104560000E941F228AE50E941F22EACFFF920F932A
:104570001F93CF93DF93CDB7DEB7DA950FB6F894DC
:10458000DEBF0FBECDBF2B9A239A8CB580648CBD45
:104590008BE291E00197F1F700C0000080910303E6
:1045A0002998882309F440C0EBE2F1E03197F1F754
:1045B00000C00000809138068983F12C8091380674
:1045C000F81688F40F2D10E0F801E95DFA4F8081AC
:1045D0000E941F22E2E0F0E0EC0FFD1FE00FF11F50
:1045E0008083F394EBCF10E0809138061817A8F47D
:1045F000812F90E0FC01E95DFA4FA1E0B0E0AC0F43
:10460000BD1FA80FB91F8C91808380910C0381116D
:1046100002C00E94FA021F5FE7CF1092030381E0FD
:1046200080930803299AE9C18BE291E00197F1F7A1
:1046300000C000008091B402882381F08091B20212
:104640009FEF980F9E3F18F49093B20209C08F3FDE
:1046500039F01092B2021092B40202C01092B2026B
:104660008091B302882381F08091B1029FEF980F6F
:104670009E3F18F49093B10209C08F3F39F0109219
:10468000B1021092B30202C01092B10281E00E9406
:104690001F2282E40E941F2280939D0280E00E94DC
:1046A0001F22182F8091B4020E941F2280939F0224
:1046B0008091B3020E941F228093A00290919D02DC
:1046C00080910903981741F081E0913419F08093AB
:1046D0009A0202C08093F602909309031F3F29F4C7
:1046E000299A81E08093F70288C1933E21F48FE7F5
:1046F000809309033AC0933221F481E080939B02B6
:1047000034C0913431F481E08093A2028093A102FD
:104710002CC0993769F401EA12E080E00E941F2260
:10472000F80181938F01F2E0013B1F07B1F71DC033
:1047300080E00E941F228093A10280E00E941F223D
:104740008093A20280E00E941F228093A3028091A6
:104750000903833529F480E00E941F22809503C05D
:1047600080E00E941F228093A402299A80919A02DD
:10477000882309F4B0C08CEF92E00197F1F700C0F4
:10478000000010929A0280910903813409F45BC001
:1047900081E00E9486222998EBE2F1E03197F1F75F
:1047A00000C0000081E00E941F228DE40E941F22B1
:1047B00080E00E941F2280E00E941F2281E00E9470
:1047C0001F228FEF0E941F228FEF0E941F228FEF68
:1047D0000E941F228FEF0E941F22299A8BE291E0F4
:1047E0000197F1F700C000002998EBE2F1E0319762
:1047F000F1F700C0000081E00E941F228FE40E94B8
:104800001F2280E00E941F228FEF0E941F228FEF45
:104810000E941F2283E00E941F2280E00E941F222C
:1048200080E00E941F2280E00E941F22299A8BE2D2
:1048300091E00197F1F700C000000E94632280E040
:104840000E94862248C081E00E9486220E94632244
:104850002998EBE2F1E03197F1F700C0000081E028
:104860000E941F2284E40E941F2280E00E941F22D7
:1048700081E00E941F2280E00E941F2280E00E94AF
:104880001F2280E00E941F2280E00E941F2280E001
:104890000E941F22299A8BE291E00197F1F700C054
:1048A000000080E00E9486222998EBE2F1E0319737
:1048B000F1F700C0000081E00E941F2282E40E9404
:1048C0001F22299AEBE2F1E03197F1F700C00000D6
:1048D000813409F05DCF9091A0029095392F3295E7
:1048E00080E083278D73832730FB83F932FB80F9C7
:1048F00033FB82F9382F80919F02809520E080FB66
:1049000024F983FB25F9232B20933B06937020E0A9
:1049100081FB26F982FB27F9292B20933C069091F5
:104920004606E0E084FBE2F985FBE5F986FBE3F966
:1049300087FBE4F98E2F892B809346062091A102F4
:104940003091A202832F90E0820F911D029709F40B
:1049500054C020934106309342069091A302909355
:104960003E068091A40280933F06E5EAF2E0AAE2C7
:10497000B6E041914D9342E0E13BF407D1F7E0917D
:104980002906E53131F0F0E0E456FD4F40814093D7
:104990004406E0913706E53131F0F0E0E456FD4F92
:1049A000408140934506E091F502E53131F0F0E0B9
:1049B000E456FD4F408140934006E0910603E53107
:1049C00031F0F0E0E456FD4F4081409343064091C2
:1049D0009B02413079F430934006909343068093D4
:1049E000450620933E0680E88093410680933F066B
:1049F000809342068CB58F7B8CBDD3950FB6F8940F
:104A0000DEBF0FBECDBFDF91CF911F910F91FF9001
:104A1000089589EC91E0089528E030E040E89FE2B5
:104A20006FE07FE3592F5095E42FE82398B9EE23E8
:104A300019F078B958B901C068B9952F4695215039
:104A400031092115310571F70895CF92DF92EF9268
:104A5000FF920F931F93CF93DF931F92CDB7DEB7D3
:104A60008C01F12CE12CF61684F46801CF0CD11CDA
:104A7000F7FCDA94F601808169830E940C25F60127
:104A80008081E826F3946981EECF8E2D0F90DF911F
:104A9000CF911F910F91FF90EF90DF90CF900895ED
:104AA0008FE387B988B98FE188B988E020E198B1B0
:104AB000922798B98150D9F78FE388B908958FE389
:104AC00087B988B98FE288B984E020E298B192274B
:104AD00098B98150D9F78FE388B908950E9450257D
:104AE00068E089ED91E00E9425250E940C250C9438
:104AF0005F258091B702882311F080E1089580E05E
:104B000008956093B80208956093B80208951F93C2
:104B1000CF93DF93182FC42F4F3F19F0411101C0DD
:104B2000C1E0D62FD295D695D77009F4D1E0D295B1
:104B3000D07FD068CF3F09F4C1E00E94502582E0C9
:104B40000E940C2580E00E940C25812F0E940C25DC
:104B50008EE00E940C2580E00E940C2581E00E94DE
:104B60000C2580E00E940C2580E00E940C258C2FF3
:104B70000E940C2582E30E940C258D2F0E940C259B
:104B800080E10E940C258FE281278D278C270E94CF
:104B90000C250E945F2583E893E00197F1F700C0A0
:104BA0000000DF91CF911F9108951092FB0280E3E6
:104BB00088B91092B70281E08093B6021092B502D4
:104BC0000E94502564E085ED91E00E9425250E9419
:104BD0000C250E945F2587EB9BE00197F1F700C051
:104BE00000008FEF87B90E946E25E8988FEC87B997
:104BF00080E388B982E08093680080E180936C0054
:104C00008EEC90E00197F1F700C000001092680070
:104C100010926C00E89A8FEF87B98091FB0288238D
:104C200029F081E08093B70280930B038FEF87B95F
:104C300010926C000895109268001092FB028FEFA2
:104C400087B9E8980E946E2580E388B98FEC87B910
:104C500082E08093680080E180936C008EEC90E0AD
:104C60000197F1F700C000001092680010926C00EC
:104C700010926C00E89A2091FB02211108C081E09B
:104C80008093F7021092B5028FEF87B908958FEFE6
:104C900087B95091F9024091FA028091FC02382FB5
:104CA000309590E030FB97F931FB91F932FB90F9A8
:104CB00033FB95F9392F922F909560E090FB66F9C0
:104CC00091FB63F992FB62F993FB64F9962F932BA6
:104CD00090933B0694FF03C033E230930903309175
:104CE0000903333251F42095322F329533703093CB
:104CF0003C06207C292B20933B0620913B065B3F02
:104D000010F090E401C090E0292B4B3F10F090E8A8
:104D100001C090E0922B90933B06809585958595F8
:104D20008C738093460650934006409343068091CF
:104D3000FF0280933F068091000380933E06089512
:104D40000F931F93CF93DF93809103038823E1F0A8
:104D50000E9450256091380687E295E00E94252543
:104D60000E940C250E945F2540E051E061E070E068
:104D700087E295E00E94DF3280E4809327058FEF81
:104D800080932805109203038091B8028230A8F026
:104D90008F3F19F081508093B8028091B50280FF57
:104DA00005C04FEF6FEF81E00E9487258091B5022B
:104DB00081FF47C04FEF6FEF13C08130A9F410920D
:104DC000B8028091B50280FF05C040E060E081E05C
:104DD0000E9487258091B50281FF33C040E060E0EA
:104DE00082E00E9487252DC0C091B6020E94502506
:104DF00080E00E940C2580E00E940C258C2F0E94F0
:104E00000C2581E00E940C2581E08C270E940C2556
:104E10000E945F2580E388B98FEC87B994E286B160
:104E20008073803309F059C028E22A95F1F7915038
:104E3000B1F7C0958091B5028C238093B5028FEFB6
:104E400087B980910B038130C1F58091B602813022
:104E5000A1F58091B50280FF30C08FE697E1019700
:104E6000F1F700C0000010920B030E9450256CE087
:104E700081EE91E00E942525182FC0E0D0E0CE0100
:104E800023E0822780569F4F0E94E632082F0E941F
:104E90000C2510272196C03CD10589F7812F0E944F
:104EA0000C250E945F2580E388B98FEC87B987E5E0
:104EB00092E00197F1F700C000008091B6028130C6
:104EC00011F482E001C081E08093B6028FEF87B9D0
:104ED000DF91CF911F910F9108959CE29A95F1F780
:104EE00084E296B19073903331F498E09A95F1F79B
:104EF0008150B9F7A4CF8091B502282F30E04C2F14
:104F0000552747FD5095242335232417350709F4E9
:104F100096CFC82BC093B5028AE08093B8028FCF9A
:104F20008DEE91E0089508956093BA029091050284
:104F3000953069F0992359F0882321F0933039F0A6
:104F400082E003C0913019F084E080930502089557
:104F50000C949427FF920F931F93CF93DF93CDB7B9
:104F6000DEB7A6970FB6F894DEBF0FBECDBF809117
:104F70000303882309F463C06091380670E020E0E1
:104F8000822F992787FD9095861797076CF4E1E0AB
:104F9000F0E0EC0FFD1FE80FF91FDC01A95DBA4F2F
:104FA0008C9180832F5FECCFCE0101960E94EF0B96
:104FB00021E031E0E7E2F5E0DF01A9011D92415077
:104FC0005040E1F7869586958695682F70E090E0D1
:104FD00000E810E0292F332727FD309526173707E3
:104FE00034F5A901E3E0440F551FEA95E1F7D90133
:104FF000A85DBA4FFC9020E030E0F901E40FF51F06
:10500000E85BF94FE081EE2341F0F801022E02C087
:10501000F595E7950A94E2F701C0E0E0FE2A2F5FDC
:105020003F4F2830310549F7FC929F5FD3CF8093E3
:1050300027051092030381E0809308030EC11982B3
:1050400061E070E0CE0101960E94EF0B811104C077
:1050500081E08093F70201C191E09093B902883119
:1050600011F01092050280915F06882331F0809143
:105070000502853011F41092050280915F068111BE
:1050800003C085E0809305028091BA028F3F69F0EA
:10509000882321F081508093BA0207C080910502D5
:1050A000833019F484E080930502809105028230F8
:1050B000F1F08430D1F1811151C083E0898380E81F
:1050C0008A8381E08B8342E250E060E870E0CE01A9
:1050D00004960E94DF3263E270E0CE0101960E94E6
:1050E000EF0B8823D9F184E08093050237C013E0E9
:1050F000198380EC8A838BE18B8340E250E061E08E
:1051000070E0CE0104960E94DF3263E270E0CE01CF
:1051100001960E94EF0B8111109305028BE291E042
:105120000197F1F700C0000019C083E0898380EC8B
:105130008A838BE18B83FE01349680E2DF011D922E
:105140008A95E9F763E270E0CE0101960E94EF0BC9
:10515000882321F381E080930502E0CF81E08983F9
:1051600061E070E0CE0101960E94EF0B803209F001
:1051700074C030913B0620913C0680E090E0FC0139
:10518000E85BF94F4081442351F0FC01EC5CFD4F9A
:105190004081FC01EC5DFD4F5081252B342B0196A5
:1051A0008031910561F730933B0620933C06809156
:1051B0004C06882329F08091460684608093460639
:1051C00080914D06882329F080914606886080935F
:1051D000460680914F06882329F08091460680621A
:1051E0008093460680914E06882329F080914606DA
:1051F00080618093460680E090E0A0E0B0E020E887
:1052000030E0482FFC01E85AF94F5081552341F016
:10521000B901082E02C0759567950A94E2F701C09E
:1052200060E0B62BFC01E05AF94F5081552341F064
:10523000B90102C0759567954A95E2F7AB0101C0C7
:1052400040E0A42B019688309105D9F6B058B09370
:105250003E068FE78A1B80933F06A6960FB6F8940A
:10526000DEBF0FBECDBFDF91CF911F910F91FF9099
:1052700008950E94AA278091B902882319F080918D
:105280000903089580E008951092B9021092BA02BD
:105290000C94EC0B89EF91E008950895089517B8E8
:1052A0008FE388B908958FE188B982EC90E0019787
:1052B000F1F700C000008FE388B908958FE387B944
:1052C0008FE188B987EE98E00197F1F700C0000000
:1052D00008958FE188B984E78A95F1F78FE388B95B
:1052E00081ED90E00197F1F700C000008FE188B9EF
:1052F000089527E030E090E06FE37FE144E84A95CD
:10530000F1F7AC01022E02C0559547950A94E2F7D9
:1053100040FF08C068B9E2ECF0E03197F1F700C057
:10532000000007C0F8E7FA95F1F768B94CE84A952C
:10533000F1F778B92150310908F70895CF93C82FB4
:105340000E945E290E9469298C2F8C630E94792912
:105350000E94532917B89EEF84E08A95F1F735999A
:105360006CC0ECEAEA95F1F728E030E040E050E06C
:10537000BA0180E8EBE2F1E03197F1F700C00000FC
:105380003599482B8695215031092115310591F722
:10539000762F652F542F442728E030E080E8EBE299
:1053A000F1E03197F1F700C000003599482B869560
:1053B000215031092115310591F7762F652F542F92
:1053C0004427C11135C088E090E020E8203829F456
:1053D000EDE0F1E03197F1F704C0EBE2F1E0319755
:1053E000F1F700C000003599422B00002695019787
:1053F000009761F7B62FA52F942F8827EFEAF4E0E6
:105400003197F1F700C0000024E030E048E0EBE223
:10541000F1E03197F1F700C000003599842B4695F3
:10542000215031092115310591F7BC01CD010BC087
:10543000992777FD9095892F06C0915009F08CCF60
:1054400060E070E0CB01CF9108958F929F92AF9270
:10545000BF92CF92DF92EF92FF920F931F9380E063
:105460000E949E29872E982EA92EBB24A7FCBA94B1
:10547000882009F45EC0092F332707FD3095132FCC
:10548000232F402F441F4427441F53E0541B452F14
:105490006C01FF24D7FCF094EF2CC7FC4D7F5C2DF2
:1054A000C6FE04C050955F77519501C05F7706FF37
:1054B00004C000950F77019501C00F7720E8250FF4
:1054C00020933E06005800933F061092BD0220E84C
:1054D00020931302209312028094609580E082FA58
:1054E00082F983FA84F984FA85F985FA83F980933D
:1054F000BC0280E080FA83F981FA82F986FA80F9A9
:1055000087FA81F990E4499F40011124882960FDC0
:1055100080618093BB0261FF05C08091BD02846001
:105520008093BD0262FF05C08091BB0280628093C0
:10553000BB028091BB0280933B068091BC028093AA
:1055400046068091BD0280933C061F910F91FF900B
:10555000EF90DF90CF90BF90AF909F908F90089585
:1055600083E00E949E29672B682B692B11F08AE04B
:1055700008950895E89883E00E949E29672B682B80
:10558000692B21F481E08093F70223C0E89A8BED28
:1055900095E00197F1F700C00000E8980E945E29AD
:1055A0000E9469298BE30E9479290E94532987E58B
:1055B00092E00197F1F700C000000E94692983E69C
:1055C0000E94792986E40E9479290E94532917B8FC
:1055D000449AE89A089586E092E00895A82FB92F9A
:1055E00080E090E041E050EA609530E009C02D9104
:1055F00082279795879510F084279527305EC8F30A
:105600006F5FA8F30895EADF8D939D930895CF937C
:10561000CFB7CF93C395489BE9F7489B09C0489BF8
:1056200007C0489B05C0489B03C0489B01C0A6C05B
:10563000DF93C091D602DD27C352DD4F489B02C0E5
:10564000DF91EBCF2F930F931F9309B12FEF00FB47
:1056500020F94F933F9319B14FEF012700FB21F938
:105660003BE031C04E7F012F19B1216028C0102FBF
:105670004D7F2260000009B129C04B7F2460012FBB
:10568000000019B12BC019B1477F28602AC04F7E96
:1056900009B120612CC04F7D19B120622FC04F7B12
:1056A00009B1206432C0422709B149934FEF00008D
:1056B000102710FB20F919B11570C9F1297F91F25B
:1056C000012700FB21F909B1237F89F2315058F1FC
:1056D000102710FB22F919B1277E79F2012700FB70
:1056E00023F92F7C81F209B1102710FB24F92F79BF
:1056F00071F200C019B1012700FB25F92F7359F28F
:1057000000C009B1102710FB26F9223040F200C07A
:1057100019B1012700FB27F9243028F64F772068BC
:1057200019B10000F9CF11E01CBB00271CC03B5091
:105730003195C31BD04011E01CBB0881033C11F123
:105740000B3401F12091D4021981110F1213EDCF06
:105750004A81441F093659F10D3211F0013E29F7F3
:105760004F7009F0042F0093DB023F914F911F917E
:105770000F912F91DF91CCB3C0FD4CCFCF91CFBF14
:10578000CF9118952091DB02222379F31091D90251
:10579000112369F534306AF13093D9022093D50290
:1057A0001091D6023BE0311B3093D60222C000910B
:1057B000D9020130E4F40AE54F7049F43091020156
:1057C00034FD19C000930201CDEBD2E018C0309136
:1057D000C80234FD10C00093C802C9ECD2E00FC06B
:1057E0002795A8F45150A9F4220F0000F9CF4AE5FB
:1057F00003C042ED01C0432FC4E1D0E032E01AB152
:105800001560589A1AB90BB120E415E05F9301278F
:1058100056E00BB9279520F4515021F4220FF9CF0F
:10582000012756E000003B5A0BB9D0F2279528F427
:10583000515029F4220F0000F9CF012756E0279597
:105840000BB920F4515021F4220FF9CF012756E073
:10585000299133230BB921F60A7F1091DA02110F37
:10586000C651D0400BB911F01093D40211E01CBB0B
:1058700001601AB11A7F402F4A7F5F9100C000C0BB
:105880000BB91AB94BB971CF3599189590E090932F
:10589000680090936C00359BF7CF0F920FB60F9274
:1058A0002F933F93AF93BF93A8EFB2E0221B34E056
:1058B00093EB9A95F1F70000349BFECF92E09A9516
:1058C000F1F70000000000000000349908942D93C7
:1058D0002227221F00000000000035990894221F93
:1058E00092E09A95F1F734990894221F92E09A95E4
:1058F000F1F735990894221F92E09A95F1F73499BF
:105900000894221F92E09A95F1F735990894221F86
:1059100092E09A95F1F734990894221F92E09A95B3
:10592000F1F735990894221F3A9561F635E03499DC
:1059300008942D932227221F0000000000003599B3
:105940000894221F92E09A95F1F734990894221F47
:1059500092E09A95F1F735990894221F92E09A9572
:10596000F1F734990894221F92E09A95F1F735994E
:105970000894221F92E09A95F1F734990894221F17
:1059800092E09A95F1F735990894221F3A9529F0FB
:1059900035990C94972C0C94972CBF91AF913F9113
:1059A0002F910F900FBE0F90189598EC9A95F1F7E4
:1059B00098EC9A95F1F798EC9A95F1F71895CF93A2
:1059C000DF93CDB7DEB76B970FB6F894DEBF0FBE8F
:1059D000CDBF14BEF894A89588E10FB6F8948093D3
:1059E0006000109260000FBE84E0809381001092EE
:1059F0000903EFE0F3E081E081938F5F8931E1F704
:105A00000E94650483E08093530263E080E190E0AC
:105A10000E94FE3284E18093540264E182E190E0CE
:105A20000E94FE3281E190E00E94E632182F8CEF56
:105A3000810F843030F064E081E190E00E94FE321A
:105A400014E00E94E90B80931C011093360110931F
:105A50003901212F30E0235D3F4F30935F012093C8
:105A60005E0130936301209362012FEB37E249E03E
:105A7000215030404040E1F700C00000153041F4B3
:105A80005FEB67E279E0515060407040E1F713C08E
:105A9000163041F48FE79FE422E18150904020408E
:105AA000E1F709C0173049F43FE347E75BE13150C4
:105AB00040405040E1F700C00000109355021092A2
:105AC000F70281E08093F6020E945204519859989F
:105AD0008BB18A7F8BB98AB18A7F8AB968E26A956D
