:100000000C94B6020C94D52B0C94D3020C94D3020E
:100010000C94122D0C94D3020C94D3020C94D302A2
:100020000C94D3020C94D3020C94D3020C94D302FC
:100030000C94D3020C94D3020C94D3020C94D302EC
:100040000C94D3020C94D3020C94D3020C94D302DC
:100050000C94D3020C94D3020C94D3020C94D302CC
:100060000C94D3020C94D302140342004C004900B8
:10007000530053002D0042004F00580004030904B0
:1000800005010905A10185010509190129181500B6
:100090002501750195188102A1000501093009317A
:1000A000093209330934093509360937150026FFA5
:1000B00000350046FF00750895088102C00501253E
:1000C00007463B01750495016514093981426500B5
:1000D000950181010601FF094975019501810225FC
:1000E0000175078103050F0992A1028502099F0985
:1000F000A009A509A6150025013500450175019542
:1001000005810295038103099415002501350045F9
:100110000175019501810209221501252835014546
:1001200028750795018102C00921A10285010922D4
:1001300015012528350145287508950191020925E5
:10014000A102092609270930093109320933093486
:1001500009400941094209430928250315013501D0
:100160004503750895019100C009500954095115BE
:100170000026FF7F350046FF7F66031055FD751092
:100180009503910255006600000952150026FF00F4
:100190003500461027750895019102095315012570
:1001A00008350145087508950191020955A1020518
:1001B000010930093115002501750195029102C030
:1001C000050F095695019102950591030957A10262
:1001D0000B01000A000B02000A0066140055FE1510
:1001E0000026FF00350047A08C000066000075085F
:1001F000950291025500660000C0050F09A766032D
:100200001055FD150026FF7F350046FF7F751095C0
:100210000191026600005500C0050F095AA1028530
:1002200002092215012528350145287508950191F7
:1002300002095B095D150026FF0035004610279571
:10024000029102095C095E66031055FD26FF7F4698
:10025000FF7F7510910245006600005500C0095FE0
:10026000A1028503092215012528350145287508B5
:1002700095019102092315002501350045017504FA
:10028000950191020958A1020B01000A000B02001E
:100290000A00750295029102C01580257F36F0D8BC
:1002A000461027096075089501910236F0D846106E
:1002B000270961096295029102150026FF003500A9
:1002C000461027096309647508950291020965467D
:1002D000102795019102C0096EA10285040922151B
:1002E00001252835014528750895019102097015E9
:1002F0000026FF0035004610277508950191020978
:100300006F1580257F36F0D8461027950191020998
:100310007166140055FE150026FF00350047A08CBD
:1003200000009102097226FF7F46FF7F6603105589
:10033000FD7510950191026600005500C00973A17A
:1003400002850509221501252835014528750895DE
:1003500001910209701601FF26FF0036F0D8461001
:1003600027751095019102C00974A1028506092222
:100370001501252835014528750895019102097553
:1003800009761580257F36F0D84610277508950226
:100390009102C00966A102850805010930093115DD
:1003A00081257F350046FF00750895029102C00542
:1003B0000F0977A102850A09221501252835014573
:1003C000287508950191020978A1020979097A092D
:1003D0007B15012503750895019100C0097C150066
:1003E00026FF00350046FF009102C00990A102855A
:1003F0000B0922252815013501452875089501911D
:1004000002C00996A102850C099709980999099AD1
:10041000099B099C15012506750895019100C009E5
:100420007DA102850D097E150026FF0035004610CE
:1004300027750895019102C009ABA102850F092516
:10044000A102092609270930093109320933093483
:1004500009400941094209430928250315013501CD
:10046000450375089501B100C00501093B1500263B
:10047000FF01350046FF01750A9501B1027506B10D
:1004800001C0050F0989A10285020922252815014D
:100490003501452875089501B102098BA102098C27
:1004A000098D098E25031501350145037508950150
:1004B000B100C009AC150027FFFF0000350047FF61
:1004C000FF000075109501B100C0097FA1028503EE
:1004D0000980751095011500350027FFFF000047C2
:1004E000FFFF0000B102098326FF0046FF007508E8
:1004F0009501B10209A909AA750195021500250106
:1005000035004501B10275069501B103C00901A18D
:1005100001150026FF0075088510950D0900B2022F
:1005200001851195050900B202018515950D090097
:10053000B2020185169600010900B20201851795E5
:10054000300900B20201851295080900B202018546
:1005500013951C0900B20201851895C00900B2026A
:1005600001851495C40900B20201C0C011241FBE48
:10057000CFEFD8E0DEBFCDBF12E0A0E0B1E0E4EA0B
:10058000FAE602C005900D92A63DB107D9F727E023
:10059000A6EDB2E001C01D92AF32B207E1F70E94B2
:1005A000062E0C9450350C940000CF93C62F20914A
:1005B0009D0324FF07C020919E0338E82327209342
:1005C0009E0303C02AE520939D03DC01EFE9F3E0DD
:1005D0009C2F9E0F8D918193892F8E1B1816D4F31B
:1005E0006C2F8FE993E00E94D12BCC5FC0939D03C9
:1005F000CF910895CF93DF936091AE03635067FD71
:10060000DFC08091AB03CCE0D0E0C81BD109CE5451
:10061000DC4F8091AA03803120F4CE010E9428088B
:10062000C9C08D3209F0B3C0683009F0C3C083EC93
:10063000809392038AE5809302011092D60288810A
:10064000807621F0CE010E94120789C09A81109213
:100650009B038981811107C010929C032BE933E031
:1006600082E090E078C0853019F49093AF036FC0BA
:10067000863009F055C08B81813011F0823029F429
:10068000CE010E94E70620E048C0833081F5911139
:100690000AC08CE790E09093AD038093AC0320E414
:1006A00084E090E03AC0913051F488E690E0909375
:1006B000AD038093AC0320E484E190E02EC092303F
:1006C00051F48EE391E09093AD038093AC0320E06E
:1006D00082E290E022C09330E9F480E691E09093CA
:1006E000AD038093AC0320E08AE090E016C0813235
:1006F00051F489EE92E09093AD038093AC0320E433
:1007000089E090E00AC0823229F4CE010E94E70617
:1007100020E403C020E480E090E02093D6021FC0D4
:10072000883069F0893019F49093B10310C08A3091
:1007300049F08B3061F48BE480939E0308C021EB79
:1007400033E002C02BE933E081E090E004C02BE904
:1007500033E080E090E03093AD032093AC038F3F13
:100760002FEF920749F4288127FF02C08E819F81D5
:1007700020E82093D60206C02E813F812817390732
:1007800008F4C901909301018093000113C0809186
:10079000D60287FF0FC0CE010E94AE088F3F21F422
:1007A0008EE18093020106C0882321F0109201019E
:1007B000109200018091AE03181614F41092AE034B
:1007C0008091020184FF54C0809100019091010149
:1007D0008F3F2FEF920709F44BC0BC018930910580
:1007E00010F068E070E0861B970B909301018093F6
:1007F00000018091920398E8892780939203C62F85
:10080000662331F12091AC033091AD038091D60283
:1008100086FF0BC0A3E9B3E0F901862F8A0F9491FC
:100820009D9331968A13FBCF09C0D901E3E9F3E028
:10083000862F8E0F9D9191938E13FCCF8FEF8C0F8F
:1008400090E00196820F931F9093AD038093AC03C9
:100850006C2F83E993E00E94D12BCC5FCC3031F038
:100860008FEF9FEF9093010180930001C0930201ED
:1008700084E199B1957031F48150D9F71092AF03AA
:100880001092A903DF91CF910895E9E6F0E080810D
:1008900082608083E89A8BE480939E038AE580934C
:1008A0009D0308950F931F93CF93DF9380E290E011
:1008B0000E942635813081F083E190E00E94263548
:1008C0008093E6028F3FB9F41092E60260E083E184
:1008D00090E00E943E350FC004EE13E0C1E2D0E08C
:1008E000CE010E942635F80181938F012196C933EC
:1008F000D105B1F7E1CF84E190E00E9426358093E5
:10090000DD038F3F39F41092DD0360E085E190E074
:100910000E943E3585E190E00E9426358093DC03FD
:100920008F3F39F41092DC0360E085E190E00E9493
:100930003E3589E190E00E9426358F3F59F484E6E8
:1009400090E090936C0180936B0164E689E190E004
:100950000E943E3586E190E00E9426358093E303B5
:100960008F3F39F41092E30360E086E190E00E944B
:100970003E3587E190E00E9426358093D9038F3F72
:1009800039F41092D90360E087E190E00E943E358F
:1009900088E190E00E94263580936A018F3F39F408
:1009A00010926A0160E088E190E00E943E358CE19F
:1009B00090E00E942635813F48F088E08093000750
:1009C00068E08CE190E00E943E3503C0885F809330
:1009D00000078DE190E00E94263580931007813F4B
:1009E00048F087E08093000767E08DE190E00E9487
:1009F0003E3503C0885F809310078EE190E00E942F
:100A00002635813F48F085E08093CA0365E08EE19A
:100A100090E00E943E3503C0885F8093CA038FE157
:100A200090E00E942635813F48F086E08093DB030A
:100A300066E08FE190E00E943E3503C0885F8093BE
:100A4000DB03E4EBF8E7649170E07093E0026093FD
:100A5000DF02E3EBF8E7449150E05093DE0240936D
:100A6000DD02EFECFBE7249130E03093DC022093D1
:100A7000DB02EEECFBE7849190E09093DA02809346
:100A8000D9021092E4026631710519F41092FF0642
:100A900006C04D305105D1F341E04093FF06213EA1
:100AA000310529F48138910559F482E007C02339D2
:100AB000310531F48F3D910519F481E08093E40212
:100AC0006091E402611103C082E08093FF068AE135
:100AD00090E0DF91CF911F910F910C943E3588E10A
:100AE0000FB6F89480936000109260000FBE51988A
:100AF00059982FE78CEF9AE0215080409040E1F721
:100B000000C00000F894E0E0F8E70994CF93DF9389
:100B100014B817B88FEF85B988B98AB188618AB9D6
:100B20005C985B9A8091E203811102C00E94FA02F4
:100B300087EB9BE00197F1F700C0000086B18F368C
:100B400041F40E94B61E9093D7038093D603C0E36E
:100B50003AC10E9487109093D7038093D603DC019B
:100B6000ED91FC910995E091D603F091D7030480B3
:100B7000F581E02D0995C82F811125C1549A5C9803
:100B800053985B9A17B88FEF88B987E293E2019781
:100B9000F1F700C000004B9913C086B18F3781F484
:100BA00083B18F3369F4209A289800001C9B08C0F9
:100BB0000E94B61E9093D7038093D603CAE203C166
:100BC00096B15C985B9AA0E2AA95F1F780EC87B9A0
:100BD0008FE388B98AB188618AB95B985C9AB0E280
:100BE000BA95F1F786B18B3041F40E94B61E90930E
:100BF000D7038093D603C2E2E6C086B18D3319F4E1
:100C0000D1E09F3709F0D0E00E94E1169093D7031E
:100C10008093D603DC01ED91FC910995E091D60318
:100C2000F091D7030480F581E02D0995C82F81113B
:100C3000CAC0DD2341F00E94B61E9093D703809373
:100C4000D603C1E0C0C00E94DA279093D7038093F7
:100C5000D603DC01ED91FC910995E091D603F0916A
:100C6000D7030480F581E02D0995C82F8111ABC011
:100C70000E943B259093D7038093D603DC01ED912E
:100C8000FC910995E091D603F091D7030480F5819A
:100C9000E02D0995C82F811196C00E948618909367
:100CA000D7038093D603DC01ED91FC910995E09187
:100CB000D603F091D7030480F581E02D0995C82F64
:100CC000811181C00E945D0E9093D7038093D6035B
:100CD000DC01ED91FC910995E091D603F091D703E9
:100CE0000480F581E02D0995C82F882351F08331C8
:100CF00009F069C00E9417299093D7038093D60307
:100D000062C00E94B82A9093D7038093D603DC0177
:100D1000ED91FC910995E091D603F091D703048001
:100D2000F581E02D0995C82F81114DC00E94791FD2
:100D30009093D7038093D603DC01ED91FC91099544
:100D4000E091D603F091D7030480F581E02D099559
:100D5000C82F811138C00E9407229093D703809337
:100D6000D603DC01ED91FC910995E091D603F09159
:100D7000D7030480F581E02D0995C82F811123C088
:100D80000E94B92B9093D7038093D603DC01ED9199
:100D9000FC910995E091D603F091D7030480F58189
:100DA000E02D0995C82F81110EC00E94B61E9093A8
:100DB000D7038093D603DC011496ED91FC9115972F
:100DC000DF91CF9109948C2FDF91CF910895FC0191
:100DD0002181263021F583818230A9F0823259F0B9
:100DE0008130E9F48CE291E09093AD038093AC0301
:100DF00082E190E0089580E890E09093AD038093C5
:100E0000AC030C94EC0C81E08093FD0283E091E054
:100E10009093AD038093AC0389E290E0089580E065
:100E200090E008950F931F93CF93DF93FC01A89553
:100E3000ACEFB3E080E092E0ED019C01199221500B
:100E40003040E1F7B093AD03A093AC03808180768E
:100E5000803209F0F3C082819381923009F4F1C0AD
:100E60002181213009F0E0C0833091F4933071F595
:100E70002093FE028FEF8093FC029093FC0320935B
:100E8000FD032093FE038093FF03209300041BC007
:100E90008230E1F49330D1F494E69093FC022091F7
:100EA000FB029FEF920F943010F491E001C092E0AA
:100EB0008093FC032093FD039093FE0384E68093CC
:100EC00000048093FF0385E090E0BDC0A8958731C2
:100ED00091F481E08093FC020CEF13E0C0E1D0E0DC
:100EE000CE010E942635F80181938F012196C034EE
:100EF000D105B1F78DC0853189F481E190E00E9480
:100F000026358093FC03E1E0F7E0ADEFB3E081919B
:100F10008D9327E0ED30F207D1F77DC0863111F5D2
:100F200081E190E00E9426358093FC038091D803F4
:100F3000811174C08091FC0590E0AC014F5F5F4F60
:100F400061E0262F30E04217530754F0F901E450D6
:100F5000FC4FD901A550BA4F2C9120836F5FF1CF80
:100F6000029671C08831C9F481E08093FC0281E16E
:100F700090E00E9426358093FC030DEF13E0C0EA59
:100F8000D0E0CE010E942635F80181938F01219691
:100F9000C036F1E0DF07A9F744C0813109F04EC047
:100FA0008091DF038093FC032091D90348E0249FC4
:100FB000900111248091DD03C0E18C9FC0011124B8
:100FC000282B8091CC03282B8091DC03D0E28D9FCD
:100FD000C0011124282B8091E303E0E48E9FC0011F
:100FE0001124282B8091CB03F0E88F9FC00111249E
:100FF000282B2093FD038091E1028093FE038091D2
:10100000E3028093FF038091E202809300045BCFB0
:1010100080E390E018C08DE090E015C082E090E0A1
:1010200012C081EC90E00FC081E090E0293011F017
:1010300080E090E091958195910905C080E090E075
:1010400002C081E090E0DF91CF911F910F91089550
:10105000CF93DF93EC01A8958881843041F4898196
:10106000823008F478C08A8180936D0174C0813029
:1010700089F4683009F06FC099818091140798173E
:1010800009F469C08C81882309F465C0880F8093B6
:10109000FA0261C0823009F45EC0853071F4898142
:1010A000813009F058C08A8187FF02C08F778F573F
:1010B00080936E011092F9024EC08A3009F04BC045
:1010C0008B816091FA02623008F4682F8981813047
:1010D00021F59091F9028A81E091D603F091D7032E
:1010E000933011F4813021F0833041F41092FA02F0
:1010F0000284F385E02D63E088EC0AC080916E01E4
:101100008F3F19F4613009F46FEF0284F385E02D0D
:1011100009958A818093F9021EC08230E0F08A81AD
:10112000E091D603F091D703833041F41092FA0294
:101130000084F185E02D63E088EC0AC080916D01A8
:101140008F3F19F4613009F46FEF0084F185E02DD1
:10115000DF91CF910994DF91CF910895DF92EF92C3
:10116000FF920F931F93CF93DF93EC011092AE0386
:10117000A89581E08093FC028091E7028111CAC1A9
:1011800088818F3021F489818093FB02C1C1825113
:10119000833008F0BDC1A89599819432A9F48CEBF5
:1011A0008093E8029093E70284E08093E90224961A
:1011B00000EA10E06991C8010E943E350F5F1F4FA1
:1011C000043A1105B9F7D3C19230B9F485E180939F
:1011D000E8029093E70284E08093E90288E1E4EE7C
:1011E000F3E0DF011D928A95E9F7249689918193B6
:1011F000B3E0E83EFB07D1F7BAC19532A9F54A81C1
:10120000411113C08C81809311079D819093FC053F
:101210009E819093FD059F819093FE05843008F098
:1012200077C181E08093D803FBC14F3F19F440910F
:10123000EA024B5FFE01339680E090E0242F30E01D
:1012400024503A4F5191D901A80FB91F5C930196D0
:1012500085309105B9F78A818F3F19F481E0809339
:10126000D8034093EA0254C1903289F48C81885F9C
:10127000809300078D81885F809310078E81885F3F
:101280008093CA038F81885F8093DB0341C19130D3
:1012900009F0C8C08C818F3F09F0A3C08D818130D7
:1012A00099F56091DD0384E190E00E943E35609104
:1012B000DC0385E190E00E943E356091E30386E126
:1012C00090E00E943E356091D90387E190E00E9452
:1012D0003E356091000768508CE190E00E943E35F9
:1012E0006091100768508DE190E00E943E3560915A
:1012F000CA0368508EE190E00E943E356091DB03A6
:1013000068508FE190E06AC0823009F001C110920C
:10131000E60260E083E190E00E943E351092DD033A
:1013200060E084E190E00E943E351092DC0360E0D2
:1013300085E190E00E943E351092E30360E086E193
:1013400090E00E943E351092D90360E087E190E082
:101350000E943E3510926A0160E088E190E00E94B0
:101360003E3584E690E090936C0180936B0164E6D7
:1013700089E190E00E943E3568E08CE190E00E94B7
:101380003E3580E18093000767E08DE190E00E94A8
:101390003E358FE0809310076BE08EE190E00E9475
:1013A0003E3583E18093CA036CE08FE190E00E94B8
:1013B0003E3584E18093DB03E4EEF3E081E081934A
:1013C0008F5F8931E1F748E150E061E270E084EE3F
:1013D00093E00E942E3561E080E290E00E943E356D
:1013E00097C083FF04C091E09093D90302C010928C
:1013F000D90384FF04C091E09093DD0302C01092F2
:10140000DD0385FF04C091E09093DC0302C01092DD
:10141000DC0386FF04C081E08093E30301C11092E6
:10142000E30376C08CEF890F823078F58C818823B6
:1014300061F0813029F41D8111110BC01FEF09C02B
:10144000823031F41D810E8105C010E000E002C041
:1014500010E00FEF943051F4E091D603F091D703F0
:101460000284F385E02D602F812F099589818530D5
:1014700009F04EC0E091D603F091D7030084F185C6
:10148000E02D602F812F099543C0983061F46C8165
:1014900081E190E00E943E358D818823C9F144E0CE
:1014A0004A95F1F714C0903191F0903499F46C8121
:1014B0006093E60281E08093D9038D81882341F116
:1014C00083E190E00E943E3584E08A95F1F70E9426
:1014D0006F051EC0903861F46091140760936A0133
:1014E00088E190E00E943E35A4E0AA95F1F710C093
:1014F000933071F46C81862F90E090936C0180930F
:101500006B0189E190E00E943E35B4E0BA95F1F7B5
:1015100081E086C09091E802F62E961708F4F92E25
:10152000823009F07BC0E090E902DE2C0F2D10E044
:101530002D2D2E198D2D992787FD90953091E9023B
:10154000A801430F511D841795079CF08091E70275
:101550008432B1F18091E9028F0D8093E90280918C
:10156000E8028F198093E802882309F44DC080E0D7
:1015700057C0332727FD309548E1FE01E20FF31FE6
:10158000D41217C08081813071F461E080E290E074
:101590000E943E3548E150E061E270E084EE93E065
:1015A0000E942E350BC06FEF80E290E00E943E3526
:1015B00005C02081FC01EC51FC4F2083D394B8CFAF
:1015C0008091FC028F5F8093FC02E090E902D22EB2
:1015D000DE180F2D10E03D2D3E0D8E2D90E0209158
:1015E000E902A801420F511D841795070CF0B2CFF4
:1015F000FE01E30FF11D37FDFA95608180569F4F84
:101600000E943E35E394E7CF8091E702843219F4DB
:1016100081E08093E1031092E7027ACF20E096CF39
:10162000DF91CF911F910F91FF90EF90DF90089580
:101630004091E50241110BC020916B0130916C018A
:101640005AE0529FC001539F900D112402C088EAB6
:1016500091E620918400309185008217930788F4E9
:10166000109285001092840041504E3F18F48EEF86
:101670008093E50281E09091EC02911180E08093EB
:10168000EC02089524E12A95F1F79BB195609BB98E
:1016900044E04A95F1F79BB19A7F9BB992E09A9505
:1016A000F1F730E090E0E32FFF27E7FDF095E81732
:1016B000F9071CF528E0E150FD4F589A46E04A959D
:1016C000F1F700C0408140FD05C045E04A95F1F7C3
:1016D00000C005C0589845E04A95F1F700000000A9
:1016E000408146954083215041F7589A23E02A953E
:1016F000F1F7000058983F5FD6CF8AB185608AB96C
:1017000008958AB18A7F8AB98BB185608BB93CE034
:101710003A95F1F700C089B18570853009F058C15C
:101720004A99FECF4EE04A95F1F788E06FEF669553
:10173000489B606890E19A95F1F78150C1F78AB1B2
:1017400085608AB98BB18A7F8BB980910F039091A4
:101750001003009709F44FC020910E032230C9F402
:1017600063FF04C081E08093D90302C01092D903C3
:1017700064FF04C081E08093DD0302C01092DD03AA
:1017800066FF04C081E08093E3032BC01092E30363
:1017900028C0243039F4019721F581E190E00E94BE
:1017A0003E351FC0253029F40197D9F46093120704
:1017B00018C0213041F4019719F46093700111C0F1
:1017C00060936F010EC0233061F4EBEFF3E0E81B90
:1017D000F90B6083E4EEF3E081E081938F5F893160
:1017E000E1F780910F0390911003019790931003FC
:1017F00080930F03EBC010920E03662309F4EAC036
:10180000613061F4E3E1F7E0AFEFB2E081918D93F5
:1018100037E0E132F307D1F78DE0D6C0623079F4DA
:10182000809113078093FF02E1E0F7E0A0E0B3E0CE
:1018300081918D9347E0EE30F407D1F7EDCF63301F
:10184000C9F48BB185608BB984E08A95F1F78091FA
:10185000140780FF02C0589A01C0589881FF02C047
:101860005A9A01C05A9894E09A95F1F78AB1856026
:101870008AB9B0C0613141F4E091D603F091D70349
:101880000284F385E02D13C0623141F4E091D60368
:10189000F091D7030284F385E02D17C0643161F421
:1018A000E091D603F091D7030084F185E02D60919B
:1018B0006F018091700117C0683151F4E091D60337
:1018C000F091D7030084F185E02D60E080E00BC04B
:1018D0006A3159F4E091D603F091D7030284F3857D
:1018E000E02D6AE08FEF099571C06B3141F4E09112
:1018F000D603F091D7030084F185E02DF2CF6C314F
:1019000051F482E090E09093100380930F0381E004
:1019100080930E030895603241F481E090E090934B
:10192000100380930F0382E040C0613209F52091DB
:10193000D90348E0249F900111248091DD0340E108
:10194000849FC0011124282B8091CC03282B8091E7
:10195000E30330E4839FC0011124282B8091CB0343
:1019600040E8849FC0011124282B2093FF022BC044
:10197000623241F487E190E09093100380930F036B
:1019800083E013C0633241F481E090E09093100350
:1019900080930F0384E009C0643251F481E090E049
:1019A0009093100380930F0385E080930E030EC085
:1019B0006F3F31F46093FF0281E00E94420B08C048
:1019C00081EF8093FF0281E00E94420B81E0089545
:1019D0008FEF089580E008958CEE94E0089597B11C
:1019E00086B18095892387B998B186B1809589237E
:1019F00088B90895E82FF0E0EF5EFC4F80810895EC
:101A00002091E203211101C0E89828E0629FB00113
:101A100011240E94AD2D3D9A8091E203811101C0F5
:101A2000E89A3D988091E203811101C0E89881E134
:101A300093E00E94DF2D9091E203911101C0E89A9A
:101A40000895CF93DF93D091FC05609111078CEF3F
:101A500095E00E94000DC82FD23011F48132B1F40C
:101A60004C2F50E061E173E08DEF95E00E94163558
:101A7000C093FC0582E2E1E1F3E0DF011D928A956B
:101A8000E9F71092D80381E08093DE03DF91CF91D4
:101A90000895CF93DF931F92CDB7DEB7198261E02F
:101AA000CE0101960E94000D90911103833031F414
:101AB000953031F0983031F482E105C080E003C008
:101AC00083E101C089E00F90DF91CF9108950895DF
:101AD0000C94490D1F93CF93DF93CDB7DEB72897B2
:101AE0000FB6F894DEBF0FBECDBF8091D803882318
:101AF00019F00E94210DBBC0198261E0CE01019650
:101B00000E94000D833021F081E08093CC03AFC0B0
:101B1000809134038F3F69F0882321F081508093B6
:101B2000340307C01092360384E080937D01109245
:101B300035038091DF03823141F480E38983809112
:101B40007D018A83809135030AC080E4898383E024
:101B50008A8381E090913603911101C080E08B83EC
:101B600063E0CE0101960E94000D883021F081E0F3
:101B70008093DE037CC082E00E94FA0C80931707FA
:101B800083E00E94FA0C80958093180784E00E94FD
:101B9000FA0C80931A0785E00E94FA0C80958093D6
:101BA0001B0786E00E94FA0C8093190787E00E94C9
:101BB000FA0C80931C0780E00E94FA0C182F81E039
:101BC0000E94FA0C982F110F80E08127857D8127D4
:101BD00012FB80F914FB82F920E029272F7A2927AC
:101BE00095FB27F9280F2093140793FF05C08091D8
:101BF0001F07846080931F0792FF05C080911F0715
:101C0000886080931F0791FF05C080911F07806245
:101C100080931F0790FF05C080911F07806180930C
:101C20001F078091DF03823139F480911807809378
:101C3000170780E88093180780911707811117C054
:101C400080911A07811113C080911B078F3F79F48F
:101C5000809118078F3F59F480E880931B07809389
:101C60001A078093190780931807809317072896FF
:101C70000FB6F894DEBF0FBECDBFDF91CF911F919D
:101C800008950E94EF0C109234030895609334037A
:101C9000882349F091E09093360396E090937D017C
:101CA0008093350308951092360384E080937D017C
:101CB0001092350308950C94460E81E791E0089543
:101CC00008950895089586B11D9B02C0806408950B
:101CD0008F7B0895EF92FF920F931F93CF93DF9323
:101CE000EC01409A80E58A95F1F70E94630EE82E98
:101CF000409880E48A95F1F70E94630EF82E409A8E
:101D000080E58A95F1F7409880E48A95F1F7409A4A
:101D100080E58A95F1F7409880E48A95F1F70E9472
:101D2000630E182F409A80E48A95F1F70E94630EA3
:101D3000082F409880E58A95F1F70E94630E409A3B
:101D4000E094E882F094F98200950A83912F9095AF
:101D50009C839D8380958E83DF91CF911F910F91FE
:101D6000FF90EF900895409888E28A95F1F7419AA4
:101D700098E29A95F1F786B1419898E29A95F1F731
:101D800026B1409A2C7394E0299F900111248C7302
:101D900086958695822B809508958AB188618AB947
:101DA0005C985B9A84B18F7C84B985B1806385B976
:101DB000389A409A87B1817C87B988B18F6388B996
:101DC00087EB9BE00197F1F700C000000895CF93E7
:101DD000DF93CDB7DEB728970FB6F894DEBF0FBEFE
:101DE000CDBF8091DF038B3379F4309905C08091AA
:101DF0001407826080931407319930C180911407D1
:101E00008160809314072AC1873009F050C091E0A7
:101E10001D9B05C09F5F9E3FD9F781E004C081E014
:101E2000913009F080E091E01D9B04C036B1913003
:101E300029F403C09F5F9E3FB9F78F5F91E01D9B20
:101E400004C09F5F9E3FD9F702C0913019F48230E1
:101E500009F4BFC086B131FD05C02091140721608F
:101E60002093140786958E71082E01FA87F902FADD
:101E700086F903FA85F905FA83F906FA82F907FA71
:101E800081F9932F96959E71092E01FA97F902FA1E
:101E900096F903FA95F905FA93F906FA92F907FA11
:101EA00091F982958F70892B80931E07D7C0873157
:101EB00011F08633B9F50E94B30E982F9F709F30B2
:101EC00079F496E39093DF0320E028272F732827E7
:101ED00084FB23F985FB22F9209314070E94B30E9B
:101EE0002091140790E084FB95F985FB94F986FB1B
:101EF00090F987FB91F9922B9093140790E080FB67
:101F000094F981FB93F982FB95F983FB92F9909305
:101F10001F0786B1813009F4A1C086B1813409F070
:101F200058C09CC0883109F044C0409A14B8539AF4
:101F30005B9A88B18FEF88B9399887EB9BE001975E
:101F4000F1F700C0000086B180958C7390E082FBB1
:101F500095F983FB94F984FB93F985FB92F99093AF
:101F60001F0788E0EFE1F2E0DE01119601900D928B
:101F70008A95E1F7399A41985B98FE013896CE012F
:101F8000419A419824E02A95F1F71D9906C02081D5
:101F900030911407232B209314073197E817F90782
:101FA00079F7419A419884E08A95F1F71D9B56C0D4
:101FB00010C08451823008F051C08AB188618AB95A
:101FC0005C985B9ACE0101960E946A0E9A819138C4
:101FD00021F481E08093CC0341C08981282F220F16
:101FE000211D2877022E01FA27F902FA26F903FAB1
:101FF00025F905FA23F906FA22F907FA21F92093BF
:102000001F072F8125FF03C024E02093160720E03F
:1020100081FB21F986FB27F9822F95959172892BF7
:10202000809314079091DF03953171F49B8120E038
:1020300092FB24F993FB22F994FB23F995FB26F9F3
:10204000922F982B909314078D818D3811F484E191
:1020500003C08D3B19F485E18093DF0328960FB60A
:10206000F894DEBF0FBECDBFDF91CF910895CF931F
:10207000DF9300D000D01F92CDB7DEB781E01D9B6B
:1020800004C08F5F8E3FD9F705C08DEF1D9934C016
:102090008150E1F786B1833429F483E088B987B9A8
:1020A00087E12DC0CE0101960E946A0E8A818D388B
:1020B00029F48D818D3811F18D3B01F15B9887EB0F
:1020C0009BE00197F1F700C00000539A399A4198BC
:1020D00014B813B89CE080E0419A419824E02A9516
:1020E000F1F71D9B8F5F9150B9F78350893010F441
:1020F00088E105C080E003C087E001C085E10F9062
:102100000F900F900F900F90DF91CF9108958EE771
:1021100091E00895089508950895109296011092FF
:10212000370310923A0310923B03109238038AB19E
:1021300088618AB95C985B9A3A9A4298089587B107
:1021400090913E03892B87B987B190913F03892BEA
:1021500087B990913D03292F2095809140038223D8
:102160008093400380914103892B8093410388B180
:1021700090913F03892B88B998B180913E03809557
:10218000892388B9089581E080933F0382E080939A
:102190003E0380E280933D0383B180933C0385B18D
:1021A0008093410384B1809340033C9A449A3D9AC2
:1021B00045980E949F108091E203811103C0A89569
:1021C0000E94FA028DEE92E00197F1F700C0000044
:1021D0008091E203811103C0A8950E94FA028DEE5E
:1021E00092E00197F1F700C000008091E2038111B5
:1021F00003C0A8950E94FA028DEE92E00197F1F7D4
:1022000000C000008091E203811103C0A8950E94E4
:10221000FA028DEE92E00197F1F700C0000087B15D
:1022200085B115B887EB9BE00197F1F700C000007E
:1022300085B18FEF85B920E180E038B190913F03FF
:102240009095932398B998E09A95F1F798B13091C9
:102250003F03932B98B998E09A95F1F793B1309199
:102260003D03932309F08F5F215039F7982F9D7F0D
:102270009C3021F481E080933B0307C0813029F03A
:10228000823029F481E080933A0389E10895843013
:1022900089F3873009F444C13C98449A3D98459AA3
:1022A00080E280933F0380E180933E0388E0809347
:1022B0003D0386B180933C0388B18093410387B18D
:1022C000809340030E949F10449A90E020E038B130
:1022D00080913F038095832388B986B130913D0377
:1022E000832319F491310CF02F5F88B130913F03B3
:1022F000832B88B99F5F903251F7243021F48AE113
:102300008093DF03089598B180913E0380958923DF
:1023100088B988B190913E03892B88B980E38A956A
:10232000F1F798B180913E038095892388B988B1EF
:10233000836088B987B18C7F87B987EB9BE0019771
:10234000F1F700C0000030E220E080E096B140915B
:102350003D03942309F48F5F30992F5F48B190912A
:102360003F039095942398B998E19A95F1F798B125
:1023700040913F03942B98B998E19A95F1F7315029
:1023800029F796B1983219F4243009F4CBC02150C2
:102390002F3128F481E080933D038EE10895883148
:1023A00009F4C2C0823009F4BFC0803109F4BEC054
:1023B000813019F480933903B9C096B1993219F07C
:1023C00096B1993629F481E080933D038CE108951C
:1023D000813509F4ADC08D3009F4AAC0823109F409
:1023E000A7C088E080933F0382E080933D0386B1DD
:1023F00080933C0388B18093410387B1809340036D
:102400000E949F10539A5B983D9A459A97B180918C
:102410003D038095892387B988B190913D03892B2D
:1024200088B93C98449A259A2D98209A389A809198
:10243000E203811103C0A8950E94FA028DEE92E09A
:102440000197F1F700C000008091E203811103C001
:10245000A8950E94FA028DEE92E00197F1F700C074
:1024600000008091E203811103C0A8950E94FA0246
:102470008DEE92E00197F1F700C000008091E20339
:10248000811103C0A8950E94FA028DEE92E0019797
:10249000F1F700C0000087B185B115B887EB9BE06C
:1024A0000197F1F700C0000085B18FEF85B92D9A33
:1024B000409A90E39A95F1F72D98409830E220E009
:1024C00090E086B140913D03842309F49F5F349BE3
:1024D0002F5F48B180913F038095842388B9289865
:1024E00088E18A95F1F788B140913F03842B88B940
:1024F000289A88E18A95F1F7315019F788EF890F0A
:10250000823020F481E08093390314C0983191F037
:1025100021502F3188F480E180933D0385E30895B5
:1025200085E2089584E2089581E108958BE108959C
:102530008DE1089584E3089580E008958091DF039C
:102540008C31E1F487B1836087B924E02A95F1F7F3
:10255000419A87B18C7F87B900C0309905C08091BE
:102560001407816080931407319B2AC4809114075B
:10257000826080931407109237030895853219F012
:10258000893109F0B8C18FEF80933C0380913B0300
:10259000882311F198B180913F038095892388B9F0
:1025A00038E03A95F1F788B190913F03892B88B9CB
:1025B00058E05A95F1F798B180913F0380958923AF
:1025C00088B988E08A95F1F788B190913F03892B0B
:1025D00088B998E09A95F1F780913A03882389F0B9
:1025E00098B180913F038095892388B928E02A9586
:1025F000F1F788B190913F03892B88B938E03A957B
:10260000F1F728E091E0990F38B180913F03809570
:10261000832388B958E05A95F1F783B130913D038F
:10262000832309F0916088B130913F03832B88B9EF
:1026300088E08A95F1F7215031F738E081E0880F82
:1026400048B120913F032095242328B928E02A95FA
:10265000F1F723B140913D03242309F0816028B1B3
:1026600040913F03242B28B958E05A95F1F7315097
:1026700031F78F3F21F4209196012111A9C221E069
:10268000209396012091DF03253209F00FC198E0D5
:1026900028B180913F038095822388B98CE08A9588
:1026A000F1F783B188B120913F03822B88B928E0EC
:1026B0002A95F1F7915061F798E041E0440F28B175
:1026C00080913F038095822388B938E03A95F1F7ED
:1026D00083B120913D03822309F0416088B12091AC
:1026E0003F03822B88B958E05A95F1F7915031F7A2
:1026F00098B180913F038095892388B988E08A95B5
:10270000F1F788B190913F03892B88B998E09A95A9
:10271000F1F798B180913F038095892388B928E02B
:102720002A95F1F788B190913F03892B88B938E059
:102730003A95F1F798E031E0330F28B180913F03EB
:102740008095822388B958E05A95F1F783B120919A
:102750003D03822309F0316088B120913F03822B31
:1027600088B988E08A95F1F7915031F798E021E037
:10277000220F58B180913F038095852388B958E096
:102780005A95F1F783B150913D03852309F02160FB
:1027900088B150913F03852B88B988E08A95F1F77D
:1027A000915031F798B180913F038095892388B982
:1027B00098E09A95F1F788B190913F03892B88B9F9
:1027C00058E05A95F1F798B180913F03809589239D
:1027D00088B988E08A95F1F788B190913F03892BF9
:1027E00088B998E09A95F1F758E091E0990F68B1AF
:1027F00080913F038095862388B988E08A95F1F718
:1028000083B160913D03862309F0916088B16091A6
:102810003F03862B88B988E08A95F1F7515031F74C
:1028200068E081E0880F78B150913F0350955723BD
:1028300058B958E05A95F1F753B170913D035723B9
:1028400009F0816058B170913F03572B58B958E097
:102850005A95F1F7615031F74093170730931807F5
:102860002195220F220F225020931D0720E080FB8C
:1028700027F981FB26F982FB24F983FB25F930E057
:1028800038273F7C382786FB33F987FB32F93093B2
:102890001F0750E05927557F592790FB52F992FBAB
:1028A00050F9952F922B9093140787C2209114070B
:1028B000322F82FB30F983FB31F93093150730E07A
:1028C00091FB34F992FB35F993FB32F994FB33F920
:1028D00030931F0790FF03C021602093140790914D
:1028E000140798279F7C982786FB97F987FB91F917
:1028F0009093140762C293EE980F923058F08B3188
:1029000049F0813139F09CEC980F923018F0843204
:1029100009F0CAC198B180913D038095892388B997
:102920008091DF038453823060F4259A2D9A8CE2E3
:102930008A95F1F72D98389A409A9CE29A95F1F78A
:10294000409888B190913E03892B88B920E32A955D
:10295000F1F798B180913E038095892388B98091E1
:10296000DF038E3111F0843271F488B1836088B94D
:1029700087B18C7F87B968E040E020E050E030E02C
:1029800090E071E016C08533B1F7449A3C98F3CFDC
:10299000853391F5289888E18A95F1F7289A88E19E
:1029A0008A95F1F78091DF038433C1F1615009F416
:1029B00044C0990F220F440F330F8091DF038433FB
:1029C00011F08D3129F488B1E0913D038E2B88B947
:1029D00086B1E0913D038E2311F4916031608091C6
:1029E000DF038432A9F686B181708727282B86B150
:1029F000869581708727482BE8B180913F038095A9
:102A00008E2388B988E18A95F1F788B1E0913F0378
:102A10008E2B88B982E18A95F1F7C4CF58B18091A5
:102A20003D038095852388B986B150913D03852368
:102A300051E009F0BBCF50E0B9CF8091DF03843281
:102A400049F5211103C081E08093CC0390E040FB65
:102A500096F943FB95F945FB94F946FB90F947FB42
:102A600091F980E024FB87F926FB82F927FB83F9A3
:102A7000892B8093150790E025FB93F930E041FB0B
:102A800032F942FB31F944FB30F9432F492B409393
:102A9000160708959F3F31F48B3109F499C08131B5
:102AA00009F496C0511194C08E3111F0853329F587
:102AB00090E89093180790931707909138039436F5
:102AC0001CF49F5F9093380390913803943619F467
:102AD000332309F47DC0853321F4399858E25A959F
:102AE000F1F7319B03C01092140703C081E080937B
:102AF0001407309530931E07089520E090FB25F9C8
:102B000091FB24F992FB23F993FB22F920931F07F1
:102B10002091150730E022FB35F923FB34F924FB23
:102B200033F925FB32F93093150720E094FB25F9A2
:102B300095FB24F996FB20F997FB21F920931407C4
:102B4000813109F43DC120913903843319F42223E2
:102B500009F436C1211102C068E001C068E130E02B
:102B600040E020E080E0383014F4880F07C058EFD0
:102B7000530F583010F4220F01C0440F56B170911A
:102B80003D03572359F4383014F4816007C058EFDF
:102B9000530F583010F4216001C0416078B150915A
:102BA0003F035095572358B958E15A95F1F758B15A
:102BB00070913F03572B58B958E15A95F1F73F5F91
:102BC00036178CF23091DF03811106C03D3121F4BC
:102BD00081E08093CC0308953D3111F520E094FB12
:102BE00025F995FB24F996FB22F997FB23F9922FFF
:102BF00020E082FB21F983FB20F984FB27F985FB88
:102C000026F9292B209314079091150730E086FBB5
:102C100030F987FB31F9832F892B80931507CDC0BD
:102C20003B31B1F450E094FB55F995FB54F996FB18
:102C300052F997FB50F9952F50E084FB57F985FB2B
:102C400056F986FB53F987FB51F9592B509314071A
:102C500090913903992309F4B0C0343311F0822FD5
:102C6000242F880F811D082E01FA87F902FA86F9B0
:102C700003FA85F905FA83F906FA82F907FA81F968
:102C800080931507220F211D022E01FA26F902FA60
:102C900027F903FA25F905FA23F906FA22F907FAC2
:102CA00021F92093160789C08A3109F086C088B1BE
:102CB00090913E03892B88B928E090911407990FD1
:102CC0009093140738B180913F038095832388B98E
:102CD00086B130913D03832319F4916090931407DA
:102CE00088B190913F03892B88B9215031F78091A9
:102CF0001407880F811D880F811D082E02FA85F99F
:102D000003FA84F904FA83F905FA82F98093140727
:102D100082E090E021E030E058B140913F034095DF
:102D2000452348B946B150913D03452359F460917C
:102D30001F07A901082E01C0440F0A94EAF7642B6B
:102D400060931F0748B150913F03452B48B9019646
:102D50008630910509F780911F0790E082FB92F978
:102D600083FB95F984FB93F985FB94F990931F07F6
:102D700080E298B120913F03922798B98150C9F71A
:102D800098B180913F038095892388B980919601FD
:102D9000882341F086B190913D03892319F081E0A9
:102DA0008093CC0388B190913F03892B88B998B167
:102DB00080913E038095892388B981E080939601B4
:102DC00008958AE891E0089508950895089583E0AC
:102DD00087B98FE388B9089587EB9BE00197F1F7F6
:102DE00000C0000088B1836088B99CE19A95F1F732
:102DF00096B19695969541982CE12A95F1F786B172
:102E0000869586952CE328B92CE12A95F1F726B111
:102E100026952695392F3F70333021F4382F3F7097
:102E20003F3041F089238F7082238850833020F413
:102E300088E0089583E0089580E00895CF9380911D
:102E4000DF038A33C1F486B1809583FF05C090917A
:102E5000140791609093140781FF05C090911407A7
:102E600092609093140780FF4FC180911407806295
:102E70008093140749C188B1836088B93CE13A95D1
:102E8000F1F786B1869586958695A6B141989CE125
:102E90009A95F1F7873021F481E08093CC0334C117
:102EA000813009F03EC0A695A695A827A17086B1ED
:102EB000809530E082FB35F983FB34F984FB33F9EC
:102EC00085FB32F930931F0788B193E0892788B9D1
:102ED0008CE18A95F1F786B1809590E082FB95F9B7
:102EE00083FB90F984FB97F985FB91F988B18C7F7E
:102EF00088B93CE13A95F1F7B6B1B09580E0B3FB03
:102F000082F9B4FB83F9B5FB86F9B82FB92B329B54
:102F1000A26088B18C7F88B980E820E840E860E84A
:102F2000E7C08CE388B99CE19A95F1F738E23A95CD
:102F3000F1F7409A8CE18A95F1F7C6B190E0C2FBB7
:102F400093F9C3FB92F9C4FB91F9C5FB90F9C92F22
:102F5000CC0FF0E0E0E080E820E840E860E8A0E0A6
:102F6000B0E0FC170CF0B8C034E23A95F1F7409BA2
:102F700004C098B19C7398B901C0409A94E29A95A4
:102F8000F1F7F1110EC096B1909530E092FB35F952
:102F900093FB34F994FB33F995FB32F930931F0717
:102FA00099C0F13061F496B1909530E092FB35F91B
:102FB00093FB30F994FB37F995FB31F90DC0F230F2
:102FC00069F4329BA26096B1909530E093FB32F9A0
:102FD00094FB33F995FB36F9B32B7CC0F33031F415
:102FE000329BA1609CE09A95F1F774C0F43009F42B
:102FF00054C0F530C1F466B16695669530E1639FC3
:10300000B00111246E2B660F611D062E01FA67F9BF
:1030100002FA66F903FA65F905FA63F906FA62F944
:1030200007FA61F957C0F630C1F1F730C1F446B183
:103030004695469590E1499FA00111244E2B440FDF
:10304000411D042E01FA47F902FA46F903FA45F93F
:1030500005FA43F906FA42F907FA41F93BC0F8309C
:10306000E1F0F930C1F426B12695269590E1299F2B
:10307000900111242E2B220F211D022E01FA27F977
:1030800002FA26F903FA25F905FA23F906FA22F9D4
:1030900007FA21F91FC0FA3021F4E6B1E695E6956A
:1030A00019C0FB30B9F486B18695869530E1839FCF
:1030B000C00111248E2B880F811D082E01FA87F97B
:1030C00002FA86F903FA85F905FA83F906FA82F914
:1030D00007FA81F9FF5F45CF98B1936098B99CE1F9
:1030E0009A95F1F7C23121F48095807FA82B80E872
:1030F00060931707409318078093190720931C07C4
:10310000B0931407A0931507CF91089587E991E034
:10311000089508950895089581E080937C0083E8E0
:1031200080937A0017B88FEF88B914B885B90895DD
:10313000DF92EF92FF920F931F93CF93DF93D82EDE
:10314000FB01D701E90198818095982398839C9190
:1031500098239C93DA019C9191609C9390819E7F2F
:103160009083CFE6D7E12197F1F700C0000090816E
:103170009160908380E0F80190819D2119F48F5F28
:103180008E3FC9F7DF91CF911F910F91FF90EF9084
:10319000DF900895EF92FF920F931F93CF938AB120
:1031A00088618AB95C985B9A83B18E3309F49AC0BE
:1031B00083B18B3309F498C025982D9A5B9887EBDF
:1031C0009BE00197F1F700C0000083B18F3121F43B
:1031D00086B18F3709F48AC053982598389A409859
:1031E00087EB9BE00197F1F700C000004B9902C00C
:1031F0001D9B74C017B88FEF88B914B885B924E245
:10320000E22EF12C03E210E025E230E047E250E04C
:1032100068E270E080E20E949818C82F3AE2E32E3C
:10322000F12C09E210E02BE230E047E250E068E2E6
:1032300070E088E00E949818C350CA3F20F4835081
:103240008A3F08F44DC017B88FEF88B9209A2898A4
:1032500087E293E20197F1F700C000001C990AC0D1
:1032600014B88FEF85B98AB188618AB95C985B9A86
:1032700081E33DC014B88FEF85B994E2E92EF12CBB
:1032800003E210E025E230E044E250E065E270E065
:1032900088E00E94981890E00B978F3E910510F4FB
:1032A00086E025C084E2E82EF12C03E210E025E25E
:1032B00030E044E250E065E270E088E00E94981857
:1032C00090E00B978F3E910558F3549A5C98389A8A
:1032D000409A53981092DF0380E009C08BE207C048
:1032E00089E205C089E303C088E301C084E0CF918F
:1032F0001F910F91FF90EF900895EF92FF920F931F
:103300001F938091DF03811105C0549A5C98389A0D
:10331000409A539896B123B190958091DF038A32F9
:10332000F1F5549A5C9853985B9A91FF05C080918F
:103330001F07846080931F0794FF05C080911F07BB
:10334000886080931F0793FF05C080911F078061ED
:1033500080931F0792FF05C080911F0780628093B2
:103360001F07809114074B9B02C08E7F01C08160B4
:1033700080931407E4E2EE2EF12C03E210E025E244
:1033800030E047E250E068E270E080E20E94981886
:10339000880F880F98EC981B90931E07E2C48C321C
:1033A000B9F58AB1877E8AB98BB188618BB93C9AAD
:1033B000449887EB9BE00197F1F700C0000080E89C
:1033C00080931807809317074B9905C080911F07BA
:1033D000846080931F07329905C080911407816033
:1033E00080931407309905C080911F0780618093F6
:1033F0001F07319905C080911F07806280931F07C6
:103400001D99AFC480911F07886080931F07A9C4CE
:103410008B3209F086C0389A409A87B1837C87B98D
:1034200088B1837C88B98AB1877E8AB93D9A87EB57
:103430009BE00197F1F700C000004B9905C0809117
:1034400015078160809315071D9905C080911507A8
:10345000826080931507319905C0809115078460BB
:10346000809315073D9887E592E00197F1F700C03A
:1034700000003C9A87EB9BE00197F1F700C0000049
:103480004B9905C0809115078860809315071D9999
:1034900005C080911507806180931507319905C09B
:1034A000809115078062809315073C983B9A87EBC3
:1034B0009BE00197F1F700C000004B9905C0809197
:1034C00015078064809315071D9905C08091150725
:1034D000806880931507319905C080911607816037
:1034E000809316073B983A9A8FE697E10197F1F798
:1034F00000C000004B9905C0809116078260809340
:1035000016071D9905C080911607846080931607E1
:10351000319905C0809116078860809316073A9804
:1035200020C4863009F0FDC03E98259A2D9A3D9A18
:103530004598209A289A2B98239A8FE697E101972D
:10354000F1F700C00000239880E01B9903C08F5F53
:103550008E3FD9F790E0880F991F8F3F910519F0A2
:1035600010F08FEF90E08093180746983E9A8FE610
:1035700097E10197F1F700C000003E9880E036998E
:1035800003C08F5F8E3FD9F790E0880F991F8F3F60
:10359000910519F010F08FEF90E0982F80931707A6
:1035A000369909C0809118078F3F29F49F3F19F47D
:1035B00081E08093CC0300000000000000000000C8
:1035C000000017B814B88FEF85B988B98AB1877E23
:1035D0008AB98BB188618BB93B9A43983B980000BC
:1035E00000000000000000000000339B05C0809137
:1035F0001407816080931407399A41983998000024
:1036000000000000000000000000319B05C0809118
:1036100014078260809314073C9A449894E19A9529
:10362000F1F7199905C080911507826080931507FD
:103630001A9905C0809115078160809315071C9920
:1036400005C0809114078061809314074C9905C0D0
:10365000809115078460809315073C98449A3A9AA4
:10366000429824E12A95F1F7199905C08091150730
:103670008061809315071A9905C0809115078860AD
:10368000809315071C9905C0809114078062809370
:1036900014074C9905C08091150780628093150727
:1036A0003A98429A389A409884E18A95F1F71999A4
:1036B00005C0809115078068809315071A9905C089
:1036C000809115078064809315071C9905C080912F
:1036D00014078460809314074C9905C080911607E5
:1036E0008160809316073898409A539A5B9894E1CA
:1036F0009A95F1F7199905C0809116078260809319
:1037000016071A9905C080911607886080931607DE
:103710004C9905C0809116078460809316075398D2
:103720007DC240911F0730E092FB35F993FB34F9DD
:1037300094FB33F995FB32F9342B30931F07843017
:1037400009F5549A5C98389A409A5398539A5B9822
:1037500028E22A95F1F726B120955B9A88E28A95AE
:10376000F1F796B19095892F822730911407832B1A
:10377000922396959170892B809314071D9BF1C21B
:103780008160DDC2803309F0BDC017B89FEF98B9E2
:103790008AB1877E8AB98BB188618BB984B184B9CB
:1037A00085B195B988E087B987EF88B998E29A958D
:1037B000F1F7309905C080911F07806280931F0741
:1037C000319905C080911F07806180931F074B9935
:1037D00005C080911F07886080931F0780E187B92B
:1037E0008FEE88B928E22A95F1F7339905C08091C8
:1037F0001F07846080931F0780E187B98FEE88B927
:1038000088E28A95F1F7359905C0809114078160A7
:10381000809314074C9905C08091140782608093AF
:10382000140782E087B98DEF88B998E29A95F1F78D
:10383000359905C0809116078460809316074C99CE
:1038400005C080911507806880931507329905C0DF
:10385000809115078061809315071D9905C080919F
:10386000150782608093150781E087B98EEF88B9CC
:1038700028E22A95F1F7359905C0809116078860EE
:10388000809316074C9905C080911607816080933C
:103890001607329905C0809115078062809315073D
:1038A0001D9905C08091150784608093150717B88E
:1038B0008FEF88B9539A5B9888E28A95F1F735992A
:1038C00005C0809116078260809316074C9905C049
:1038D00080911507806480931507329905C0809107
:1038E00015078860809315071D9905C080911507FD
:1038F0008160809315078AB1877E8AB98BB1886110
:103900008BB92FC2813019F0823209F0A8C08AB178
:1039100088618AB9319905C08091140781608093CC
:10392000140780EC87B98FE388B95B985C9A90E2C2
:103930009A95F1F7319905C08091140782608093C0
:10394000140756B15695569521E030E0052E02C079
:10395000220F331F0A94E2F740E080E090E0541316
:1039600002C0822B932B4F5F4F30C9F72091140771
:10397000382F80E032FB82F934FB83F9822B80936D
:1039800014078091150720E031FB23F936FB22F95B
:1039900037FB25F9282B892F90E080FB97F981FBD5
:1039A00094F984FB96F985FB91F986FB90F9292B14
:1039B000209315079091160720E082FB21F983FBE5
:1039C00020F9822F892B90E033FB92F935FB93F994
:1039D000892B809316075C985B9A8091DF03813076
:1039E00009F4BFC13898409A25982D9A24E02A9569
:1039F000F1F7909143039093420386B180958170D3
:103A0000809343031D9902C022E001C020E0822B75
:103A100080934303981709F4A4C1933079F481305B
:103A200021F480911907815F06C0823009F099C1A5
:103A3000809119078A508093190793C1913031F40E
:103A4000823079F3833009F08CC1F2CF923009F0E3
:103A500088C1833031F3813009F083C1E9CF91FF10
:103A600005C03091140731603093140720958133DD
:103A700051F425FF05C080911407846080931407DA
:103A800090FFCEC010C0811114C03898409A8AB1FE
:103A900088618AB95C985B9A88E28A95F1F7309BD5
:103AA00002C025FFBDC08091140782608093140777
:103AB000B7C025FF05C0309114073260309314075A
:103AC00090FF05C090911407946090931407885359
:103AD000823008F0A5C088B18FEF88B985B91092FF
:103AE000140710921507309903C084E080931407DF
:103AF000319905C0809114078160809314071C9947
:103B000005C0809114078860809314071D9905C033
:103B1000809114078260809314078091DF038833BB
:103B200009F049C010921407319903C081E08093D5
:103B300015071D9905C080911507826080931507B0
:103B4000309903C084E080931407369905C08091B2
:103B50001407826080931407199905C08091140797
:103B6000806180931407189905C0809114078064C0
:103B7000809314071A9905C080911407806280937E
:103B800014071C9905C08091140781608093140765
:103B90008AB1877E8AB98BB188618BB94B9905C090
:103BA000809114078860809314074C99DAC0809143
:103BB00014078068C4C080911407982F81FF02C049
:103BC000946001C09B7F909314079091140782FF2B
:103BD00002C0926001C09D7F90931407369905C082
:103BE00080911407806480931407199905C080910F
:103BF00014078068809314071A9905C080911407F0
:103C00008061809314071B9905C08091140780621E
:103C1000809314078AB188618AB95C985B9AA1C0C5
:103C200020FF05C08091140788608093140721FF4E
:103C300005C08091140780648093140722FF05C09B
:103C40008091140780618093140723FF05C0809141
:103C500014078062809314078091DF03813309F495
:103C600071C024FF09C080911407806880931407F5
:103C700003C014B88FEF85B98091DF03893209F052
:103C800070C054E2E52EF12C03E210E025E230E0B2
:103C900047E250E068E270E080E20E949818809568
:103CA00090914503981718F4282F291B02C0292F3B
:103CB000281B833048F030E0233031052CF080930E
:103CC0001D078093450302C090931D074AE2E42E2E
:103CD000F12C09E210E02BE230E047E250E068E22C
:103CE00070E088E00E94981880959091440398179E
:103CF00018F4282F291B02C0292F281B30E023305D
:103D000031052CF080931E078093440302C09093EA
:103D10001E0780911F0785FF08C08F7D80931F07B6
:103D20008091140782608093140780911F0784FF9D
:103D300018C08F7E80931F07809114078460809342
:103D400014070FC0189B0DC0209A289887EB9BE0A2
:103D50000197F1F700C000001C9B8BCF81E080939E
:103D6000CC031F910F91FF90EF90089583EA91E0AB
:103D7000089508950895089517B88FE388B914B881
:103D80008FEF85B9089587B1836087B918B884E04B
:103D90008A95F1F787B18C7F87B984E08A95F1F72E
:103DA00086B18370833011F48BE0089580E008952C
:103DB000E6E4F3E080E090E040E250E09A01082E73
:103DC00002C0359527950A94E2F768B1A22FA09515
:103DD0006A2368B967B1622B67B964E06A95F1F745
:103DE00076B17370708363B168736695672B608377
:103DF000189B02C06062608338B1322B38B927B19A
:103E00002A2327B90196319684309105B9F630916D
:103E10004603832F837019F481E08093CC0330959F
:103E200090E030FB94F940914703842F8095817096
:103E3000982B80914803809520E080FB21F9922BFC
:103E400020914903522F509560E050FB67F951FBD8
:103E500065F9962B9093140750E033FB55F934FB2A
:103E600052F9409590E042FB97F943FB94F944FBEB
:103E700091F9952B50E082FB56F983FB53F984FBB3
:103E800050F9952B9093150790E032FB90F950E094
:103E900085FB51F9852F892B60E035FB63F9862B73
:103EA00090E045FB92F9892B8093160724FD04C00E
:103EB00080911F07806205C023FD05C080911F0708
:103EC000806180931F0722FD04C080911F078860D6
:103ED00005C025FD05C080911F07846080931F07E2
:103EE0001092460310924703109248031092490320
:103EF00008958FEA91E0089508950895089588B18E
:103F0000806388B908958091BC0087FFFCCF8091C1
:103F1000B900887F08959F92AF92BF92CF92DF92AF
:103F2000EF92FF920F931F93CF93DF93B82E6B0105
:103F3000942EA52E79016115710561F421153105C5
:103F400009F477C084EA8093BC000E94831F80310B
:103F500089F532C084EA8093BC000E94831F8830B8
:103F600009F06AC08B2D880F8093BB0084E8809392
:103F7000BC000E94831F883109F047C0C92DDA2D8B
:103F8000CC0EDD1E24E8A22ECC15DD0559F089915A
:103F90008093BB00A092BC000E94831F8832A1F3D3
:103FA00023E038C0E114F10469F684E98093BC0091
:103FB00080E043C0883059F58B2D880F8160809355
:103FC000BB0084E88093BC000E94831F803409F505
:103FD000E701219784E8F82E94ECE92ECF3FFFEF1C
:103FE000DF0719F3209719F0E092BC0002C0F092AD
:103FF000BC000E94831F2197877F8035B1F6809196
:10400000BB00F80181938F01E9CF22E003C024E0D7
:1040100001C025E090E0803A31F0883F81F088339C
:1040200021F484E803C084EA01C084E98093BC00E1
:1040300006C08FEF9FEF04C081E090E001C0822FA7
:10404000DF91CF911F910F91FF90EF90DF90CF9074
:10405000BF90AF909F900895AF92BF92CF92DF92A2
:10406000EF920F931F93CF93DF931F92CDB7DEB7DD
:1040700089835B016A01E12C00E010E020E030E080
:10408000AE014F5F5F4F61E070E082E50E948B1FE1
:10409000811117C08FEA94E00197F1F700C000008A
:1040A0008501960140E050E060E070E082E50E940A
:1040B0008B1F811106C0EFEAF4E03197F1F700C0E1
:1040C00000000F90DF91CF911F910F91EF90DF9043
:1040D000CF90BF90AF900895EF920F931F93CF931F
:1040E000DF93CDB7DEB760970FB6F894DEBF0FBE93
:1040F000CDBF84E38093B8008091B9008C7F80931A
:10410000B90010914B0311113FC080EF898385E501
:104110008A83E12C00E010E020E030E0AE014F5F48
:104120005F4F62E070E082E50E948B1FEFEAF4E0EF
:104130003197F1F700C00000811137C18BEF8983FF
:104140001A8220E030E0AE014F5F5F4F62E070E026
:1041500082E50E948B1FEFEAF4E03197F1F700C08F
:104160000000811122C142E050E0BE016F5F7F4F2D
:104170008EEF0E942C20811118C18A818093C70183
:1041800081E080934B0311C1113009F0EEC046E08D
:1041900050E0BE016F5F7F4F80E00E942C2088239B
:1041A00061F080914A03811102C01093CC0380EF2B
:1041B0008093C70110924B03F8C010924A0380917C
:1041C000C701853009F4F1C030F4813009F44CC0E6
:1041D000833039F449C0813109F446C0803F09F485
:1041E000E4C0E9817A817095FE818B8124E0829F11
:1041F000C00111248A5F91092F2F2C7030E0359572
:10420000279535952795822B932B96958795682F23
:104210004C8184E0489FA0011124CA018A5F910962
:104220002F2F207330E0A4E035952795AA95E1F76C
:10423000822B932B96958795282F4D8194E0499F4B
:10424000A0011124CA018A5F91093F2F329536954A
:1042500036953370832B969587959F2F9095917007
:10426000F1FD8CC092608AC06981E62FEE0FEE0FDF
:104270009A81F4E09F9F90011124722F70958B8199
:10428000907C929596959770607C669566956695FC
:10429000692B982F991F9927991F692B660F660F15
:1042A000660F282F220F220F220F2095AC813D810F
:1042B000F32FF09590E0F1FB97F9F2FB95F9F4FB01
:1042C00094F9F5FB96F9F92F5E81452F409590E022
:1042D00043FB93F944FB91F945FB92F946FB90F9B6
:1042E0009F2BF0E042FBF1F947FBF0F94F2F33FD34
:1042F00005C0F0911607F460F093160750FD05C055
:10430000F0911F07F460F0931F0737FD05C0F0918F
:104310001F07F062F0931F0751FD05C050911F0762
:10432000506150931F0736FD05C030911F0738605C
:1043300030931F07E11106C07F3F21F420E860E8B9
:1043400070E8E0E83091CB0331111BC03A2F330FF6
:10435000330F330F807686958695A295A695A77024
:104360008A2B880F880F880F0EC080E030E02FEF77
:104370006FEF40E090E070E8E0E805C030E040E03A
:1043800002C080E030E09093140740931507E0935B
:1043900017077093180760931A0720931B078093E1
:1043A000190730931C071092BC0060960FB6F89462
:1043B000DEBF0FBECDBFDF91CF911F910F91EF9068
:1043C000089588B18C7F88B987B1836087B986B139
:1043D0008033D8F081E080934A030E946C201092D1
:1043E000BC008091C701803F81F0882341F081307B
:1043F00041F0833041F0813141F487E308958DE04D
:1044000008958FE1089580E2089580E008958BEB90
:1044100091E0089508951092C8038FE284B98FEF58
:1044200085B98FE78CBD1DBC80910007811103C049
:104430008DE08093000780911007811103C08EE00A
:10444000809310078091CA03811103C083E1809398
:10445000CA038091DB03811103C084E18093DB03F5
:104460000895843608F484E68093640360936203BD
:1044700008958FEF809365036093630308958EBD65
:104480000DB407FEFDCF8091E203811102C00E94AE
:10449000FA028EB5EBE2F1E03197F1F700C00000CF
:1044A0000895CF93DF93C3E083E00E943F222998D1
:1044B0008BE291E00197F1F700C0000081E00E94DB
:1044C0003F2282E40E943F22D82F80E00E943F22B8
:1044D00080E00E943F2280E00E943F22299A8BE2E6
:1044E00091E00197F1F700C000008FEF8D0F8E3F34
:1044F00048F481E00E943F2281E080934C03809346
:10450000C80308C087EB9BE00197F1F700C00000EB
:10451000C15051F69CB59F7B9CBD8091C8038823F8
:1045200011F08D2F01C080E0DF91CF910895CF93DE
:1045300029988BE291E00197F1F700C0000081E03B
:104540000E943F2285E40E943F2280E00E943F2299
:104550008AE50E943F22C5E08AE50E943F22C150C1
:10456000D9F7299A8BE291E00197F1F700C000009A
:10457000CF910895CF93C82F29988BE291E00197AE
:10458000F1F700C0000081E00E943F2283E40E9416
:104590003F2280E00E943F228C2F0E943F2280E039
:1045A0000E943F22CC2349F0299A8BE291E00197A7
:1045B000F1F700C00000CF9108958AE50E943F22E4
:1045C0008AE50E943F228AE50E943F228AE50E94F6
:1045D0003F22EACFFF920F931F93CF93DF93CDB784
:1045E000DEB7DA950FB6F894DEBF0FBECDBF2B9ABB
:1045F000239A8CB580648CBD8BE291E00197F1F732
:1046000000C000008091D8032998882309F440C095
:10461000EBE2F1E03197F1F700C000008091110763
:104620008983F12C80911107F81688F40F2D10E082
:10463000F801E450FA4F80810E943F22E2E0F0E06E
:10464000EC0FFD1FE00FF11F8083F394EBCF10E020
:10465000809111071817A8F4812F90E0FC01E45015
:10466000FA4FA1E0B0E0AC0FBD1FA80FB91F8C91AD
:1046700080838091E203811102C00E94FA021F5FD1
:10468000E7CF1092D80381E08093DE03299AE7C137
:104690008BE291E00197F1F700C000008091650383
:1046A000882381F0809163039FEF980F9E3F18F459
:1046B0009093630309C08F3F39F010926303109207
:1046C000650302C01092630380916403882381F024
:1046D000809162039FEF980F9E3F18F490936203BE
:1046E00009C08F3F39F0109262031092640302C038
:1046F0001092620381E00E943F2282E40E943F22E6
:1047000080934E0380E00E943F22182F8091650322
:104710000E943F2280935003809164030E943F22B5
:104720008093510380914E03833E19F48FE7809369
:104730004E0380914E03833219F483E380934E033A
:10474000112381F01A3571F0299AEBE2F1E03197EB
:10475000F1F700C000001F3F09F47DC181E08093A4
:10476000DE0375C180914E039091DF03891741F0FC
:1047700091E0813419F090934C0302C09093CB03E5
:104780008093DF03813431F481E08093530380937D
:1047900052032CC0893769F402E513E080E00E94DF
:1047A0003F22F80181938F01F3E002361F07B1F732
:1047B0001DC080E00E943F228093520380E00E944F
:1047C0003F228093530380E00E943F228093540352
:1047D0008091DF03833529F480E00E943F22809599
:1047E00003C080E00E943F2280935503299A809164
:1047F0004C03882309F4B0C08CEF92E00197F1F7E5
:1048000000C0000010924C038091DF03813409F452
:104810005BC081E00E94BA222998EBE2F1E0319777
:10482000F1F700C0000081E00E943F228DE40E9469
:104830003F2280E00E943F2280E00E943F2281E0F0
:104840000E943F228FEF0E943F228FEF0E943F2263
:104850008FEF0E943F228FEF0E943F22299A8BE226
:1048600091E00197F1F700C000002998EBE2F1E038
:104870003197F1F700C0000081E00E943F228FE4F1
:104880000E943F2280E00E943F228FEF0E943F2241
:104890008FEF0E943F2283E00E943F2280E00E942F
:1048A0003F2280E00E943F2280E00E943F22299A1E
:1048B0008BE291E00197F1F700C000000E9497227F
:1048C00080E00E94BA2248C081E00E94BA220E9481
:1048D00097222998EBE2F1E03197F1F700C0000050
:1048E00081E00E943F2284E40E943F2280E00E94F7
:1048F0003F2281E00E943F2280E00E943F2280E030
:104900000E943F2280E00E943F2280E00E943F22DE
:1049100080E00E943F22299A8BE291E00197F1F713
:1049200000C0000080E00E94BA222998EBE2F1E08A
:104930003197F1F700C0000081E00E943F2282E43D
:104940000E943F22299AEBE2F1E03197F1F700C093
:104950000000813409F05DCF909151039095392F7B
:10496000329580E083278D73832730FB83F932FBF8
:1049700080F933FB82F9382F80915003809520E035
:1049800080FB24F983FB25F9232B209314079370D4
:1049900020E081FB26F982FB27F9292B20931507BC
:1049A00090911F07E0E084FBE2F985FBE5F986FBC7
:1049B000E3F987FBE4F98E2F892B80931F07209161
:1049C000520330915303832F90E0820F911D029781
:1049D000F1F120931A0730931B07809154038093C1
:1049E00017078091550380931807E6E5F3E0A1E0EF
:1049F000B7E081918D9323E0E236F207D1F7E091A1
:104A00000007E53131F0F0E0E35BFC4F80818093FB
:104A10001D07E0911007E53131F0F0E0E35BFC4F5A
:104A2000808180931E07E091CA03E53131F0F0E008
:104A3000E35BFC4F808180931907E091DB03E53154
:104A400031F0F0E0E35BFC4F808180931C078CB574
:104A50008F7B8CBD04C081E08093CC03F8CFD395CD
:104A60000FB6F894DEBF0FBECDBFDF91CF911F917F
:104A70000F91FF90089588EC91E0089528E030E0D0
:104A800040E89FE26FE07FE3592F5095E42FE82341
:104A900098B9EE2319F078B958B901C068B9952FC3
:104AA0004695215031092115310571F70895CF92AE
:104AB000DF92EF92FF920F931F93CF93DF931F929A
:104AC000CDB7DEB78C01F12CE12CF61684F4680129
:104AD000CF0CD11CF7FCDA94F601808169830E9427
:104AE0003E25F6018081E826F3946981EECF8E2D74
:104AF0000F90DF91CF911F910F91FF90EF90DF907A
:104B0000CF9008958FE387B988B98FE188B988E09D
:104B100020E198B1922798B98150D9F78FE388B9ED
:104B200008958FE387B988B98FE288B984E020E2DD
:104B300098B1922798B98150D9F78FE388B9089531
:104B40000E94822568E088ED91E00E9457250E942E
:104B50003E250C94912580916803882311F080E113
:104B6000089580E008956093690308956093690350
:104B700008951F93CF93DF93182FC42F4F3F19F041
:104B8000411101C0C1E0D62FD295D695D77009F456
:104B9000D1E0D295D07FD068CF3F09F4C1E00E9428
:104BA000822582E00E943E2580E00E943E25812FE2
:104BB0000E943E258EE00E943E2580E00E943E2518
:104BC00081E00E943E2580E00E943E2580E00E9418
:104BD0003E258C2F0E943E2582E30E943E258D2F8C
:104BE0000E943E2580E10E943E258FE281278D278D
:104BF0008C270E943E250E94912583E893E001972F
:104C0000F1F700C00000DF91CF911F91089510923D
:104C1000D00380E388B91092680381E08093670332
:104C2000109266030E94822564E084ED91E00E9468
:104C300057250E943E250E94912587EB9BE0019716
:104C4000F1F700C000008FEF87B90E94A025809186
:104C5000E203811102C0E89801C078948FEC87B913
:104C600080E388B982E08093680080E180936C00E3
:104C70008EEC90E00197F1F700C000001092680000
:104C800010926C008091E203811102C0E89A01C089
:104C9000F8948FEF87B98091D003882329F081E0C1
:104CA000809368038093E1038FEF87B910926C00C3
:104CB0000895109268001092D0038FEF87B9809109
:104CC000E203811102C0E89801C078940E94A025F7
:104CD00080E388B98FEC87B982E08093680080E137
:104CE00080936C008EEC90E00197F1F700C000001B
:104CF0001092680010926C0010926C008091E20398
:104D0000811102C0E89A01C0F8942091D0032111CA
:104D100008C081E08093CC03109266038FEF87B9BF
:104D200008958FEF87B95091CE034091CF038091C2
:104D3000D103382F309590E030FB97F931FB91F992
:104D400032FB90F933FB95F9392F922F909560E063
:104D500090FB66F991FB63F992FB62F993FB64F9AE
:104D6000962F932B9093140794FF03C033E2309354
:104D7000DF033091DF03333251F42095322F329527
:104D8000337030931507207C292B20931407209132
:104D900014075B3F10F090E401C090E0292B4B3FDB
:104DA00010F090E801C090E0922B9093140780954A
:104DB000859585958C7380931F07509319074093B1
:104DC0001C078091D403809318078091D5038093AA
:104DD000170708950F931F93CF93DF938091D80304
:104DE0008823E1F00E948225609111078CEF95E005
:104DF0000E9457250E943E250E94912540E051E0E7
:104E000061E070E08CEF95E00E941F3580E48093B4
:104E1000FC058FEF8093FD051092D8038091690304
:104E20008230A8F08F3F19F0815080936903809100
:104E3000660380FF05C04FEF6FEF81E00E94B92548
:104E40008091660381FF47C04FEF6FEF13C0813041
:104E5000A9F4109269038091660380FF05C040E0C9
:104E600060E081E00E94B9258091660381FF33C034
:104E700040E060E082E00E94B9252DC0C091670348
:104E80000E94822580E00E943E2580E00E943E250F
:104E90008C2F0E943E2581E00E943E2581E08C27D8
:104EA0000E943E250E94912580E388B98FEC87B946
:104EB00094E286B18073803309F059C028E22A95C4
:104EC000F1F79150B1F7C095809166038C238093E0
:104ED00066038FEF87B98091E1038130C1F580913E
:104EE00067038130A1F58091660380FF30C08FE6B3
:104EF00097E10197F1F700C000001092E1030E94D2
:104F000082256CE080EE91E00E945725182FC0E0CA
:104F1000D0E0CE0123E0822780569F4F0E942635A5
:104F2000082F0E943E2510272196C03CD10589F705
:104F3000812F0E943E250E94912580E388B98FEC45
:104F400087B987E592E00197F1F700C000008091F2
:104F50006703813011F482E001C081E08093670330
:104F60008FEF87B9DF91CF911F910F9108959CE248
:104F70009A95F1F784E296B19073903331F498E00A
:104F80009A95F1F78150B9F7A4CF80916603282F45
:104F900030E04C2F552747FD509524233523241707
:104FA000350709F496CFC82BC09366038AE0809337
:104FB00069038FCF8CEE91E0089560938D039091FB
:104FC0000402953069F0992359F0882321F0933039
:104FD00039F082E003C0913019F084E0809304023C
:104FE00008950C94DD278091D80381110C94210D34
:104FF00008950C94490D83E080936A0380E88093C0
:105000006B0381E080936C0340E250E060E870E065
:105010008DE693E00E941F3563E28AE693E00E94EA
:10502000000D91E0813009F490E0892F8195089579
:1050300093E090936A0390EC90936B039BE19093C1
:105040006C0361E070E0811102C060E070E040E25A
:1050500050E08DE693E00E941F3563E28AE693E01C
:105060000E94000D91E0813009F490E0892F819534
:1050700008950E94EF0C10928D030895CF938091B4
:10508000D803882319F0CF910C94210DC1E0C0936F
:105090006A0361E08AE693E00E94000D811103C07B
:1050A000C093CC03C2C0843019F0C093DE03BDC0EE
:1050B00080E00E94FA0CC82F81E00E94FA0C20E0E8
:1050C000C4FB25F9C5FB24F9C6FB20F9C7FB21F970
:1050D000982F990F30E03927337B392795FB37F923
:1050E000932F922B9093140790E080FB91F983FB10
:1050F00090F990931507C3FF05C080911F07846046
:1051000080931F07C2FF05C080911F0788608093AE
:105110001F07C1FF05C080911F07806180931F0793
:10512000C0FF05C080911F07806280931F0782E047
:105130000E94FA0CC82F83E00E94FA0CCF3F09F4BA
:10514000C0E0C158C09317079FE7982790931807AE
:1051500038E23A95F1F710926A0361E08AE693E04B
:105160000E94000D833011F01092040282E00E9430
:10517000FA0C813039F480910402853041F41092A8
:10518000040205C0823019F485E080930402809106
:105190008D038F3F69F0882321F0815080938D0328
:1051A00007C080910402833019F484E080930402E4
:1051B000809104028230D9F028F4882341F08130B4
:1051C00051F133C08330F9F08430B9F02EC00E9421
:1051D000FB27882331F00E94FB27882331F185E0EB
:1051E00022C080918D0381111AC080E010C081E03F
:1051F0000E941828811119C015C080E00E9418284B
:10520000811113C006C080918D0381110EC00E94D0
:10521000182881E008C080918D03882331F081E057
:105220000E94182883E080930402CF91089588EFAC
:1052300091E008950895089517B88FE388B9089507
:105240008FE188B982EC90E00197F1F700C000008F
:105250008FE388B908958FE387B98FE188B987EE26
:1052600098E00197F1F700C0000008958FE188B938
:1052700084E78A95F1F78FE388B981ED90E0019793
:10528000F1F700C000008FE188B9089527E030E011
:1052900090E06FE37FE144E84A95F1F7AC01022E1C
:1052A00002C0559547950A94E2F740FF08C068B9D7
:1052B000E2ECF0E03197F1F700C0000007C0F8E73A
:1052C000FA95F1F768B94CE84A95F1F778B92150A9
:1052D000310908F70895CF93C82F0E942B290E9407
:1052E00036298C2F8C630E9446290E94202917B8EA
:1052F0009EEF84E08A95F1F735996CC0ECEAEA9567
:10530000F1F728E030E040E050E0BA0180E8EBE25D
:10531000F1E03197F1F700C000003599482B8695F0
:10532000215031092115310591F7762F652F542F22
:10533000442728E030E080E8EBE2F1E03197F1F734
:1053400000C000003599482B869521503109211560
:10535000310591F7762F652F542F4427C11135C0A1
:1053600088E090E020E8203829F4EDE0F1E0319782
:10537000F1F704C0EBE2F1E03197F1F700C0000073
:105380003599422B000026950197009761F7B62FBB
:10539000A52F942F8827EFEAF4E03197F1F700C0AA
:1053A000000024E030E048E0EBE2F1E03197F1F773
:1053B00000C000003599842B4695215031092115F4
:1053C000310591F7BC01CD010BC0992777FD909570
:1053D000892F06C0915009F08CCF60E070E0CB01BE
:1053E000CF9108958F929F92AF92BF92CF92DF920A
:1053F000EF92FF920F931F9380E00E946B29872EFC
:10540000982EA92EBB24A7FCBA94882009F45EC06C
:10541000092F332707FD3095132F232F402F441FCB
:105420004427441F53E0541B452F6C01FF24D7FC35
:10543000F094EF2CC7FC4D7F5C2DC6FE04C0509548
:105440005F77519501C05F7706FF04C000950F7725
:10545000019501C00F7720E8250F2093170700580A
:10546000009318071092900320E8209312022093D3
:1054700011028094609580E082FA82F983FA84F9BF
:1054800084FA85F985FA83F980938F0380E080FAA6
:1054900083F981FA82F986FA80F987FA81F990E432
:1054A000499F40011124882960FD806180938E030B
:1054B00061FF05C08091900384608093900362FF38
:1054C00005C080918E03806280938E0380918E034D
:1054D0008093140780918F0380931F07809190031E
:1054E000809315071F910F91FF90EF90DF90CF9061
:1054F000BF90AF909F908F90089583E00E946B299A
:10550000672B682B692B11F08AE008950895E898BD
:1055100083E00E946B29672B682B692B21F481E0C3
:105520008093CC0323C0E89A8BED95E00197F1F7C7
:1055300000C00000E8980E942B290E9436298BE3C6
:105540000E9446290E94202987E592E00197F1F701
:1055500000C000000E94362983E60E94462986E4A6
:105560000E9446290E94202917B8449AE89A089573
:1055700085E092E0089508950895089517B814B845
:105580008FE388B98FEF85B9089554985C9A539A40
:105590005B9815B825982D9A18B817B82FE128B937
:1055A000E7EBFBE03197F1F700C0000026B126954C
:1055B0001D9902C02E7F01C0216020952F712A31D4
:1055C00050F430E0F901E554FD4F4081F901EF5509
:1055D000FD4F208102C020E040E0FC014083FB0140
:1055E00020830895EF92FF920F931F93CF93DF9341
:1055F00000D000D0CDB7DEB7BE016F5F7F4FCE01C8
:1056000002960E94C52A83E087B98CE388B988E3B3
:1056100084B987EC85B987EB9BE00197F1F700C06F
:10562000000026B125FB222720F981E02827349BA2
:105630002260339B24604C9B28608CE387B983E015
:1056400088B985B1877C85B984B1877C84B985B1F7
:10565000886385B987EB9BE00197F1F700C00000F4
:1056600086B18695817091E08927309B82604C9B42
:10567000846030E1839FC0011124822B40978D33D9
:10568000910540F4FC01EE0FFF1FE95DFD4F008125
:10569000118102C000E010E083E088B988B18C7FFE
:1056A00088B987EB9BE00197F1F700C0000086B155
:1056B000813009F4106486B1823009F4106286B139
:1056C000811101C0106878019FE1F922E114F10411
:1056D00021F0809191038C8315C0BE016D5F7F4FD7
:1056E000CE0104960E94C52A8C819A81891721F0E7
:1056F000809191038C8302C0809391038B81998167
:10570000891721F0809190038B8302C080939003CE
:105710009C818FE3989F902D1124905890931707A8
:105720009B81989F802D1124805880931807012F0A
:10573000112702950695077000931407E09215074C
:10574000F09216070F900F900F900F90DF91CF916E
:105750001F910F91FF90EF90089587EB9BE00197C9
:10576000F1F700C00000319902C08EE0089580E09A
:10577000089583E192E00895A82FB92F80E090E08A
:1057800041E050EA609530E009C02D91822797955D
:10579000879510F084279527305EC8F36F5FA8F3D4
:1057A0000895EADF8D939D930895CF93CFB7CF935C
:1057B000C395489BE9F7489B09C0489B07C0489B95
:1057C00005C0489B03C0489B01C0A6C0DF93C091A1
:1057D000AB03DD27CE54DC4F489B02C0DF91EBCFFB
:1057E0002F930F931F9309B12FEF00FB20F94F93D5
:1057F0003F9319B14FEF012700FB21F93BE031C086
:105800004E7F012F19B1216028C0102F4D7F2260DB
:10581000000009B129C04B7F2460012F000019B19D
:105820002BC019B1477F28602AC04F7E09B1206183
:105830002CC04F7D19B120622FC04F7B09B120646D
:1058400032C0422709B149934FEF0000102710FBE7
:1058500020F919B11570C9F1297F91F2012700FBD8
:1058600021F909B1237F89F2315058F1102710FB3B
:1058700022F919B1277E79F2012700FB23F92F7C49
:1058800081F209B1102710FB24F92F7971F200C0C1
:1058900019B1012700FB25F92F7359F200C009B196
:1058A000102710FB26F9223040F200C019B1012761
:1058B00000FB27F9243028F64F77206819B1000043
:1058C000F9CF11E01CBB00271CC03B503195C31B16
:1058D000D04011E01CBB0881033C11F10B3401F1F5
:1058E0002091A9031981110F1213EDCF4A81441F92
:1058F000093659F10D3211F0013E29F74F7009F0C8
:10590000042F0093B0033F914F911F910F912F915E
:10591000DF91CCB3C0FD4CCFCF91CFBFCF911895C5
:105920002091B003222379F31091AE03112369F57E
:1059300034306AF13093AE032093AA031091AB0385
:105940003BE0311B3093AB0322C00091AE0301302A
:10595000E4F40AE54F7049F43091020134FD19C0B6
:1059600000930201C2E9D3E018C030919D0334FDD9
:1059700010C000939D03CEE9D3E00FC02795A8F493
:105980005150A9F4220F0000F9CF4AE503C042EDBF
:1059900001C0432FC4E1D0E032E01AB11560589A3B
:1059A0001AB90BB120E415E05F93012756E00BB95B
:1059B000279520F4515021F4220FF9CF012756E00A
:1059C00000003B5A0BB9D0F2279528F4515029F426
:1059D000220F0000F9CF012756E027950BB920F4DC
:1059E000515021F4220FF9CF012756E0299133239A
:1059F0000BB921F60A7F1091AF03110FC651D040A9
:105A00000BB911F01093A90311E01CBB01601AB18E
:105A10001A7F402F4A7F5F9100C000C00BB91AB9AE
:105A20004BB971CF3599189590E090936800909399
:105A30006C00359BF7CF0F920FB60F922F933F93C9
:105A4000AF93BF93ADECB3E0221B34E093EB9A9598
:105A5000F1F70000349BFECF92E09A95F1F7000039
:105A6000000000000000349908942D932227221F83
:105A700000000000000035990894221F92E09A95DA
:105A8000F1F734990894221F92E09A95F1F735992D
:105A90000894221F92E09A95F1F734990894221FF6
:105AA00092E09A95F1F735990894221F92E09A9521
:105AB000F1F734990894221F92E09A95F1F73599FD
:105AC0000894221F3A9561F635E0349908942D9395
:105AD0002227221F00000000000035990894221F91
