:100000000C94B6020C94252C0C94D3020C94D302BD
:100010000C94622D0C94D3020C94D3020C94D30252
:100020000C94D3020C94D3020C94D3020C94D302FC
:100030000C94D3020C94D3020C94D3020C94D302EC
:100040000C94D3020C94D3020C94D3020C94D302DC
:100050000C94D3020C94D3020C94D3020C94D302CC
:100060000C94D3020C94D302140342004C004900B8
:10007000530053002D0042004F00580004030904B0
:1000800005010905A10185010509190129181500B6
:100090002501750195188102A1000501093009317A
:1000A000093209330934093509360937150026FFA5
:1000B00000350046FF00750895088102C00501253E
:1000C00007463B01750495016514093981426500B5
:1000D000950181010601FF094975019501810225FC
:1000E0000175078103050F0992A1028502099F0985
:1000F000A009A509A6150025013500450175019542
:1001000005810295038103099415002501350045F9
:100110000175019501810209221501252835014546
:1001200028750795018102C00921A10285010922D4
:1001300015012528350145287508950191020925E5
:10014000A102092609270930093109320933093486
:1001500009400941094209430928250315013501D0
:100160004503750895019100C009500954095115BE
:100170000026FF7F350046FF7F66031055FD751092
:100180009503910255006600000952150026FF00F4
:100190003500461027750895019102095315012570
:1001A00008350145087508950191020955A1020518
:1001B000010930093115002501750195029102C030
:1001C000050F095695019102950591030957A10262
:1001D0000B01000A000B02000A0066140055FE1510
:1001E0000026FF00350047A08C000066000075085F
:1001F000950291025500660000C0050F09A766032D
:100200001055FD150026FF7F350046FF7F751095C0
:100210000191026600005500C0050F095AA1028530
:1002200002092215012528350145287508950191F7
:1002300002095B095D150026FF0035004610279571
:10024000029102095C095E66031055FD26FF7F4698
:10025000FF7F7510910245006600005500C0095FE0
:10026000A1028503092215012528350145287508B5
:1002700095019102092315002501350045017504FA
:10028000950191020958A1020B01000A000B02001E
:100290000A00750295029102C01580257F36F0D8BC
:1002A000461027096075089501910236F0D846106E
:1002B000270961096295029102150026FF003500A9
:1002C000461027096309647508950291020965467D
:1002D000102795019102C0096EA10285040922151B
:1002E00001252835014528750895019102097015E9
:1002F0000026FF0035004610277508950191020978
:100300006F1580257F36F0D8461027950191020998
:100310007166140055FE150026FF00350047A08CBD
:1003200000009102097226FF7F46FF7F6603105589
:10033000FD7510950191026600005500C00973A17A
:1003400002850509221501252835014528750895DE
:1003500001910209701601FF26FF0036F0D8461001
:1003600027751095019102C00974A1028506092222
:100370001501252835014528750895019102097553
:1003800009761580257F36F0D84610277508950226
:100390009102C00966A102850805010930093115DD
:1003A00081257F350046FF00750895029102C00542
:1003B0000F0977A102850A09221501252835014573
:1003C000287508950191020978A1020979097A092D
:1003D0007B15012503750895019100C0097C150066
:1003E00026FF00350046FF009102C00990A102855A
:1003F0000B0922252815013501452875089501911D
:1004000002C00996A102850C099709980999099AD1
:10041000099B099C15012506750895019100C009E5
:100420007DA102850D097E150026FF0035004610CE
:1004300027750895019102C009ABA102850F092516
:10044000A102092609270930093109320933093483
:1004500009400941094209430928250315013501CD
:10046000450375089501B100C00501093B1500263B
:10047000FF01350046FF01750A9501B1027506B10D
:1004800001C0050F0989A10285020922252815014D
:100490003501452875089501B102098BA102098C27
:1004A000098D098E25031501350145037508950150
:1004B000B100C009AC150027FFFF0000350047FF61
:1004C000FF000075109501B100C0097FA1028503EE
:1004D0000980751095011500350027FFFF000047C2
:1004E000FFFF0000B102098326FF0046FF007508E8
:1004F0009501B10209A909AA750195021500250106
:1005000035004501B10275069501B103C00901A18D
:1005100001150026FF0075088510950D0900B2022F
:1005200001851195050900B202018515950D090097
:10053000B2020185169600010900B20201851795E5
:10054000300900B20201851295080900B202018546
:1005500013951C0900B20201851895C00900B2026A
:1005600001851495C40900B20201C0C011241FBE48
:10057000CFEFD8E0DEBFCDBF13E0A0E0B1E0E8E50B
:10058000F8E602C005900D92A033B107D9F728E034
:10059000A0E3B3E001C01D92AE33B207E1F70E94C1
:1005A000FD2D0C942A340C940000CF93C62F20917B
:1005B000B60324FF07C02091B70338E82327209310
:1005C000B70303C02AE52093B603DC01E8EBF3E0B0
:1005D0009C2F9E0F8D918193892F8E1B1816D4F31B
:1005E0006C2F88EB93E00E94212CCC5FC093B60364
:1005F000CF910895CF93DF936091C703635067FD58
:10060000DFC08091C403CCE0D0E0C81BD109C55342
:10061000DC4F8091C303803120F4CE010E94CB07D0
:10062000C9C08D3209F0B3C0683009F0C3C083EC93
:100630008093AB038AE58093020110923003888196
:10064000807621F0CE010E94CF0689C09A81109257
:10065000B4038981811107C01092B50324EB33E004
:1006600082E090E078C0853019F49093C8036FC0A1
:10067000863009F055C08B81813011F0823029F429
:10068000CE010E94A70620E048C0833081F5911179
:100690000AC08CE790E09093C6038093C50320E4E2
:1006A00084E090E03AC0913051F488E690E0909375
:1006B000C6038093C50320E484E190E02EC092300D
:1006C00051F48EE391E09093C6038093C50320E03C
:1006D00082E290E022C09330E9F480E691E09093CA
:1006E000C6038093C50320E08AE090E016C0813203
:1006F00051F484E493E09093C6038093C50320E40F
:1007000089E090E00AC0823229F4CE010E94A70657
:1007100020E403C020E480E090E0209330031FC079
:10072000883069F0893019F49093CA0310C08A3078
:1007300049F08B3061F48BE48093B70308C02AEC56
:1007400033E002C024EB33E081E090E004C024EB0E
:1007500033E080E090E03093C6032093C5038F3FE1
:100760002FEF920749F4288127FF02C08E819F81D5
:1007700020E82093300306C02E813F8128173907D7
:1007800008F4C901909301018093000113C0809186
:10079000300387FF0FC0CE010E9438088F3F21F43D
:1007A0008EE18093020106C0882321F0109201019E
:1007B000109200018091C703181614F41092C70319
:1007C0008091020184FF54C0809100019091010149
:1007D0008F3F2FEF920709F44BC0BC018930910580
:1007E00010F068E070E0861B970B909301018093F6
:1007F00000018091AB0398E889278093AB03C62F53
:10080000662331F12091C5033091C60380913003F6
:1008100086FF0BC0ACEAB3E0F901862F8A0F9491F2
:100820009D9331968A13FBCF09C0D901ECEAF3E01E
:10083000862F8E0F9D9191938E13FCCF8FEF8C0F8F
:1008400090E00196820F931F9093C6038093C50397
:100850006C2F8CEA93E00E94212CCC5FCC3031F0DD
:100860008FEF9FEF9093010180930001C0930201ED
:1008700084E199B1957031F48150D9F71092C80391
:100880001092C203DF91CF910895E9E6F0E08081F4
:1008900082608083E89A8BE48093B7038AE5809333
:1008A000B603089590E890933A0390933B038FE743
:1008B00080933803809339039093360390933703E2
:1008C000809334038093350308950F931F93CF9340
:1008D000DF9380E290E00E940034813081F083E178
:1008E00090E00E940034809344038F3FB9F410924B
:1008F000440360E083E190E00E9418340FC00DEFE4
:1009000013E0C1E2D0E0CE010E940034F8018193EF
:100910008F012196C933D105B1F7E1CF84E190E091
:100920000E9400348093F5038F3F39F41092F50351
:1009300060E084E190E00E94183489E190E00E9438
:10094000003490E090936C0180936B018F3F910590
:1009500059F483E390E090936C0180936B0163E31F
:1009600089E190E00E94183486E190E00E94003412
:100970008093FC038F3F39F41092FC0360E086E122
:1009800090E00E94183487E190E00E940034809348
:10099000F2038F3F39F41092F20360E087E190E0B8
:1009A0000E94183488E190E00E94003480936A012C
:1009B0008F3F39F410926A0160E088E190E00E9474
:1009C00018348CE190E00E940034813F48F088E0C8
:1009D0008093170768E08CE190E00E94183403C010
:1009E000885F809317078DE190E00E940034809328
:1009F0002507813F48F087E08093170767E08DE186
:100A000090E00E94183403C0885F809325078EE130
:100A100090E00E940034813F48F085E08093E3033A
:100A200065E08EE190E00E94183403C0885F8093F7
:100A3000E3038FE190E00E940034813F60F086E0A4
:100A40008093F40366E08FE190E0DF91CF911F91F6
:100A50000F910C941834885F8093F403DF91CF9149
:100A60001F910F91089588E10FB6F894809360006C
:100A7000109260000FBE519859982FE78CEF9AE0C2
:100A8000215080409040E1F700C00000F894E0E081
:100A9000F8E70994CF93A89514B817B88FEF85B9E4
:100AA00088B98AB188618AB95C985B9A8091FA03A7
:100AB000811102C00E94FA0287EB9BE00197F1F7D7
:100AC00000C0000086B18F3641F40E94C61E90938C
:100AD000F0038093EF03C0E337C10E941C11909391
:100AE000F0038093EF03DC01ED91FC910995E09117
:100AF000EF03F091F0030480F581E02D0995C82FF4
:100B0000811122C1549A5C9853985B9A17B88FEF61
:100B100088B987E293E20197F1F700C000004B9992
:100B200013C086B18F3781F483B18F3369F4209A73
:100B3000289800001C9B08C00E94C61E9093F003DA
:100B40008093EF03CAE200C196B15C985B9AA0E281
:100B5000AA95F1F780EC87B98FE388B98AB18861EB
:100B60008AB95B985C9AB0E2BA95F1F786B18B309E
:100B700041F40E94C61E9093F0038093EF03C2E2FB
:100B8000E3C086B18D3351F49F3741F40E94C61EF5
:100B90009093F0038093EF03C1E0D6C00E945717F3
:100BA0009093F0038093EF03DC01ED91FC910995A4
:100BB000E091EF03F091F0030480F581E02D0995B9
:100BC000C82F8111C1C00E94B7279093F003809372
:100BD000EF03DC01ED91FC910995E091EF03F091B9
:100BE000F0030480F581E02D0995C82F8111ACC078
:100BF0000E9430259093F0038093EF03DC01ED9188
:100C0000FC910995E091EF03F091F0030480F581E8
:100C1000E02D0995C82F811197C00E94EB18909381
:100C2000F0038093EF03DC01ED91FC910995E091D5
:100C3000EF03F091F0030480F581E02D0995C82FB2
:100C4000811182C00E94FF0E9093F0038093EF0306
:100C5000DC01ED91FC910995E091EF03F091F00337
:100C60000480F581E02D0995C82F882361F08D322D
:100C700019F0833109F068C00E9471299093F00344
:100C80008093EF0361C00E94122B9093F003809336
:100C9000EF03DC01ED91FC910995E091EF03F091F8
:100CA000F0030480F581E02D0995C82F81114CC017
:100CB0000E94811F9093F0038093EF03DC01ED917C
:100CC000FC910995E091EF03F091F0030480F58128
:100CD000E02D0995C82F811137C00E940F229093F3
:100CE000F0038093EF03DC01ED91FC910995E09115
:100CF000EF03F091F0030480F581E02D0995C82FF2
:100D0000811122C00E94092C9093F0038093EF037D
:100D1000DC01ED91FC910995E091EF03F091F00376
:100D20000480F581E02D0995C82F81110DC00E9426
:100D3000C61E9093F0038093EF03DC011496ED91AF
:100D4000FC911597CF9109948C2FCF910895FC01B8
:100D50002181263009F583818230A9F0823259F051
:100D60008130D1F48CE291E09093C6038093C50367
:100D700082E190E0089580E890E09093C60380932C
:100D8000C5030C94080C83E091E09093C603809314
:100D9000C50389E290E0089580E090E008950F9304
:100DA0001F93CF93DF93FC01A895A5E1B4E080E009
:100DB00092E0ED019C01199221503040E1F7B0938F
:100DC000C603A093C50380818076803209F0D9C024
:100DD00082819381923009F4D7C02181213009F0BA
:100DE000C6C0833091F4933009F0CBC084E1809386
:100DF0003E039093150420931604209317048FEF5D
:100E0000809318042093190412C0823099F493300F
:100E100009F0B7C08093150480914F0380931604A6
:100E20002093170484E6809319048093180485E0C6
:100E300090E0ACC0873189F420933E0305E114E0D3
:100E4000C0E1D0E0CE010E940034F80181938F010F
:100E50002196C034D105B1F781C0853189F481E193
:100E600090E00E94003480931504E8E1F7E0A6E1E9
:100E7000B4E081918D9327E0E432F207D1F771C09D
:100E80008631F1F481E190E00E94003480931504F2
:100E90008091150690E0AC014F5F5F4F61E0262F17
:100EA00030E04217530754F0F901EB5EFB4FD901D4
:100EB000AC5EB94F2C9120836F5FF1CF029666C074
:100EC0008831C1F420933E0381E190E00E94003418
:100ED0008093150406E114E0C0EAD0E0CE010E9440
:100EE0000034F80181938F012196C036F1E0DF07CD
:100EF000A9F73AC0813109F044C08091F70380938B
:100F000015042091F20348E0249F90011124809160
:100F1000F503C0E18C9FC0011124282B8091E503CB
:100F2000282B8091FC03D0E48D9FC0011124282B35
:100F30008091E403E0E88E9FC0011124282B2093C8
:100F4000160480913F03809317048091410380939E
:100F50001804809140038093190469CF80E390E0E6
:100F600015C08DE090E012C081EC90E00FC081E0F0
:100F700090E0293011F080E090E091958195910901
:100F800005C080E090E002C081E090E0DF91CF9169
:100F90001F910F910895FC01A8958081843041F440
:100FA0008181823008F463C0828180936E0108954C
:100FB000813089F4683009F05AC0918180915103E1
:100FC000981709F454C08481882309F450C0880F0D
:100FD00080934E030895823009F449C0853041F46E
:100FE0008181813009F043C0828180936F0108952F
:100FF0008A30E9F5838160914E03623008F4682FEE
:1010000081818130C1F48281E091EF03F091F0039E
:10101000833031F410924E030284F385E02D19C021
:1010200080916F018F3F19F4613009F46FEF0284F2
:10103000F385E02D1BC08230D0F08281E091EF0378
:10104000F091F003833041F410924E030084F18557
:10105000E02D63E088EC0AC080916E018F3F19F4A7
:10106000613009F46FEF0084F185E02D0994089553
:10107000DF92EF92FF920F931F93CF93DF93EC01D8
:10108000A89531E030933E03809145038111B1C1B1
:1010900088818F3021F4898180934F03A8C18251C8
:1010A000833008F0A4C199819432A9F48CEB809329
:1010B00046039093450384E080934703249600EA17
:1010C00010E06991C8010E9418340F5F1F4F043A65
:1010D0001105B9F7BBC19230B9F485E1809346039D
:1010E0009093450384E08093470388E1EDEFF3E0BC
:1010F000DF011D928A95E9F7249689918193B4E0E6
:10110000E130FB07D1F7A2C1953291F52A81211177
:1011100012C08C81809326079D81909315069E8135
:10112000909316069F8190931706843008F05FC154
:101130003093F1035CC12F3F19F42091260725500D
:10114000FE01339680E090E030E02B5E394F419114
:10115000D901A80FB91F4C93019685309105B9F7B5
:101160008A818F3F09F043C181E08093F103C7C1B9
:10117000903289F48C81885F809317078D81885F16
:10118000809325078E81885F8093E3038F81885F3A
:101190008093F4032CC1913009F0B3C08C818F3F50
:1011A00009F096C08D81813069F56091F50384E185
:1011B00090E00E9418346091FC0386E190E00E9468
:1011C00018346091F20387E190E00E941834609136
:1011D000170768508CE190E00E9418346091250751
:1011E00068508DE190E00E9418346091E3036850EC
:1011F0008EE190E00E9418346091F40368508FE112
:1012000090E063C0823009F0F2C01092440360E0C5
:1012100083E190E00E9418341092F50360E084E1CD
:1012200090E00E9418341092FC0360E086E190E0A8
:101230000E9418341092F20360E087E190E00E946F
:10124000183410926A0160E088E190E00E9418343E
:1012500083E390E090936C0180936B0163E389E1F9
:1012600090E00E94183468E08CE190E00E9418340D
:1012700080E18093170767E08DE190E00E941834C9
:101280008FE0809325076BE08EE190E00E94183498
:1012900083E18093E3036CE08FE190E00E941834D7
:1012A00084E18093F403EDEFF3E081E081938F5FBD
:1012B0008931E1F748E150E061E270E08DEF93E0C1
:1012C0000E94083461E080E290E00E9418348FC0F0
:1012D00083FF04C091E09093F20302C01092F203E6
:1012E00084FF04C091E09093F50302C01092F503CF
:1012F00086FF04C081E08093FC0301C11092FC03CF
:1013000076C08CEF890F823078F58C81882361F06C
:10131000813029F41D8111110BC01FEF09C08230EB
:1013200031F41D810E8105C010E000E002C010E024
:101330000FEF943051F4E091EF03F091F003028449
:10134000F385E02D602F812F09958981853009F083
:101350004EC0E091EF03F091F0030084F185E02DA1
:10136000602F812F099543C0983061F46C8181E131
:1013700090E00E9418348D818823C9F144E04A9599
:10138000F1F714C0903191F0903499F46C8160932E
:10139000440381E08093F2038D81882341F183E14E
:1013A00090E00E94183484E08A95F1F70E9433059A
:1013B0001EC0903861F46091290760936A0188E14A
:1013C00090E00E941834A4E0AA95F1F710C0933081
:1013D00071F46C81862F90E090936C0180936B0187
:1013E00089E190E00E941834B4E0BA95F1F781E009
:1013F00086C090914603F62E961708F4F92E823097
:1014000009F07BC0E0904703DE2C0F2D10E02D2D5E
:101410002E198D2D992787FD909530914703A801AE
:10142000430F511D841795079CF08091450384322A
:10143000B1F1809147038F0D80934703809146035C
:101440008F1980934603882309F44DC080E057C06C
:10145000332727FD309548E1FE01E20FF31FD41238
:1014600017C08081813071F461E080E290E00E94D9
:10147000183448E150E061E270E08DEF93E00E94A3
:1014800008340BC06FEF80E290E00E94183405C072
:101490002081FC01E350FC4F2083D394B8CF80918E
:1014A0003E038F5F80933E03E0904703D22EDE1809
:1014B0000F2D10E03D2D3E0D8E2D90E02091470325
:1014C000A801420F511D841795070CF0B2CFFE0101
:1014D000E30FF11D37FDFA95608180569F4F0E9402
:1014E0001834E394E7CF80914503843219F481E006
:1014F0008093F903109245037ACF20E096CFDF91D5
:10150000CF911F910F91FF90EF90DF90089544E1EC
:101510004A95F1F79BB195609BB994E09A95F1F7E4
:101520009BB19A7F9BB942E04A95F1F72EE533E0F3
:10153000F9019E2F921B98170CF598E0589A46E0F7
:101540004A95F1F700C0408140FD05C045E04A954D
:10155000F1F700C005C0589845E04A95F1F7000042
:101560000000408146954083915041F7589A93E09E
:101570009A95F1F7000058983196DBCF8AB18560D3
:101580008AB90895209A289A28988AB18A7F8AB9B8
:101590008BB185608BB934E03A95F1F789B18570EC
:1015A000853011F4A895FACF4DE04A95F1F700C0C7
:1015B00088E06FEF6695489B606890E19A95F1F737
:1015C0008150C1F78AB185608AB98BB18A7F8BB9A6
:1015D00080916E0390916F03009709F448C02091A9
:1015E0006D032230C9F463FF04C081E08093F203ED
:1015F00002C01092F20364FF04C081E08093F503FF
:1016000002C01092F50366FF04C081E08093FC03E2
:1016100024C01092FC0321C0243039F40197E9F46E
:1016200081E190E00E94183418C0213041F4019704
:1016300019F46093710111C0609370010EC02330E2
:1016400061F4E4E1F4E0E81BF90B6083EDEFF3E013
:1016500081E081938F5F8931E1F780916E039091F2
:101660006F03019790936F0380936E03CDC0109228
:101670006D03662309F4CAC0613081F48091F703D9
:1016800080935E03E9E2F7E0AFE5B3E081918D93EB
:1016900037E0E633F307D1F78DE0B4C0623079F478
:1016A0008091280780935E03E8E1F7E0AFE5B3E0BF
:1016B00081918D9347E0E532F407D1F7EDCF6330A8
:1016C00021F48091280783709AC0613141F4E09140
:1016D000EF03F091F0030284F385E02D13C0623133
:1016E00041F4E091EF03F091F0030284F385E02DE3
:1016F00017C0643161F4E091EF03F091F0030084CE
:10170000F185E02D609170018091710117C0683101
:1017100051F4E091EF03F091F0030084F185E02DA6
:1017200060E080E00BC06A3159F4E091EF03F09182
:10173000F0030284F385E02D6AE08FEF099564C021
:101740006B3141F4E091EF03F091F0030084F185F7
:10175000E02DF2CF6C3151F482E090E090936F0372
:1017600080936E0381E080936D030895603241F4AD
:1017700081E090E090936F0380936E0382E036C027
:10178000613209F52091F20388E0289F900111242D
:101790008091F50340E1849FC0011124282B8091A2
:1017A000E503282B8091FC0330E4839FC0011124C2
:1017B000282B8091E40340E8849FC0011124282B4A
:1017C00020935E031EC0623241F487E190E0909363
:1017D0006F0380936E0383E009C0633251F481E0AC
:1017E00090E090936F0380936E0384E080936D0389
:1017F0000BC06F3F19F460935E0303C081EF8093C9
:101800005E0381E00E94870A81E0089580E00895E8
:101810008CEE94E008953D98459808950F931F939A
:10182000CF93DF93662309F456C07727A0E0B0E09A
:1018300040E050E09D0146175707ACF4189610E8B9
:10184000FC01E40FF51F00810123E901CA5CD84FB8
:1018500008832F5F3F4F16952A173B07A1F74F5F6D
:101860005F4FD901E7CF109709F435C0229A2A9A21
:10187000E898E6E3F7E0CF93DF93EF93FF930191CE
:10188000002311F061F418C000003D9A1CE011D053
:1018900000003D9800000000119789F70DC03D9AA7
:1018A00012E007D03D9818E004D00000119739F7F6
:1018B00003C01A95F1F708950000FF91EF913D9A4A
:1018C000DF91CF9112E0F5DF3D980FEF0A9511F00F
:1018D000359BFCCF2A98229A2A9AE6E3F7E0EF9309
:1018E000FF93442700270395A1F03599FCCF08C04A
:1018F0000FE5039572F03599FCCF439551F00193B4
:101900000FE5039532F0359BFCCF439511F0019321
:10191000EFCFFF91EF912A98E89A842F90E00097FB
:10192000A1F040FF12C0DF019D017081618151E093
:10193000761708F050E05D9332965A2F521B5417D9
:10194000A0F301979595879502C080E090E0DF9124
:10195000CF911F910F910895CF93DF931F92CDB731
:10196000DEB7198261E070E0CE0101960E940E0C94
:10197000009701F14897D9F480E090E021E0FC0164
:10198000EA5CF84F308131112160873011F0220F6D
:1019900001C02F7701968830910589F7222351F0F5
:1019A000253059F0283061F482E190E00BC083E0EB
:1019B00090E008C080E090E005C083E190E002C0C4
:1019C00089E090E00F90DF91CF91089508959F9264
:1019D000AF92BF92CF92DF92EF92FF920F931F933D
:1019E000CF93DF93CDB7DEB760970FB6F894DEBF25
:1019F0000FBECDBF8091F103882309F460C06091D0
:101A0000260770E020E0822F992787FD90958617A2
:101A100097076CF4E9E0F0E0EC0FFD1FE80FF91F09
:101A2000DC01AB5EB94F8C9180832F5FECCFCE0190
:101A300009960E940E0C21E031E0E5E1F6E0DF01BD
:101A4000A9011D9241505040E1F7869586958695F3
:101A5000682F70E090E000E810E0292F332727FD81
:101A600030952617370734F5A901E3E0440F551FD9
:101A7000EA95E1F7D901AA5EB94FFC9020E030E089
:101A8000F901E40FF51FEA5CF84FE081EE2341F025
:101A9000F801022E02C0F595E7950A94E2F701C01D
:101AA000E0E0FE2A2F5F3F4F2830310549F7FC92D6
:101AB0009F5FD3CF809315061092F1034EC08091A3
:101AC00070038F3F79F0882321F081508093700359
:101AD00009C0109277031092760384E080937E0110
:101AE000109271030E94AC0C80937203833109F44D
:101AF00033C181110EC080917503811103C081E053
:101B00008093E50381E090E09093740380937303E6
:101B100027C1109275038E01075F1F4F823149F470
:101B200080E3898780917E018A87809171038B870A
:101B30000DC080E4898783E08A8721E08091760365
:101B400090917703892B09F420E02B8763E070E004
:101B5000C8010E940E0C803421F081E08093F603CE
:101B6000FFC086E0ECE2F7E0DF011D928A95E9F71D
:101B7000D0902C0790902D07A0902F07B0903007A1
:101B800090912E07C090310720E030E040E850E00F
:101B9000822FF901EA5BF84F6081662341F0BA01B8
:101BA000022E02C0759567950A94E2F701C060E0C5
:101BB000D62AD901A25BB84F6C91611109C07A0194
:101BC000082E02C0F594E7940A94E2F7FE2C01C0B7
:101BD000F12CF928D901AA5AB84F6C91662341F02B
:101BE000DA01082E02C0B595A7950A94E2F701C064
:101BF000A0E0EA2EEA28D901A25AB84F6C916111EF
:101C000008C0FA01082E02C0F595E7950A94E2F79C
:101C100001C0E0E0BE2AF901EA59F84F608166236D
:101C200041F0BA01082E02C0759567950A94E2F753
:101C300001C060E0692BF901E259F84F90819923C6
:101C400041F0FA0102C0F595E7958A95E2F7CF01D8
:101C500001C080E0C82A2F5F3F4F2830310521F0B6
:101C60009F2CAE2C962F94CFD0922C07F0922D075C
:101C7000E0922F07B092300760932E07C092310791
:101C800088E0E0E2F2E0DE01119601900D928A9583
:101C9000E1F790912907FE01319683E0A82FBB2739
:101CA000A7FDB095AA5CB84F2C91222311F020819A
:101CB000922B282F8F5F883011F482E0820F3196AB
:101CC000E017F10759F7909329078091420788237D
:101CD00029F0809134078460809334078091430712
:101CE000882329F08091340788608093340780919D
:101CF0004407882329F08091340780628093340759
:101D000080914507882329F0809134078061809372
:101D1000340780917203823119F480E880932C0794
:101D200080912C07811118C0E11016C080913307F3
:101D3000811112C0FFEFFF120FC080E880933307BC
:101D40008093310780932E078093300780932F076D
:101D500080932D0780932C071092740310927303C5
:101D600060960FB6F894DEBF0FBECDBFDF91CF9166
:101D70001F910F91FF90EF90DF90CF90BF90AF90A9
:101D80009F9008950E940B0C0E94AC0C80937203EC
:101D900081E0809375030C94E70C609370038823B3
:101DA00061F021E030E0309377032093760396E0F2
:101DB00090937E018093710308951092770310929F
:101DC000760384E080937E011092710308950C9451
:101DD000CD0E81E08093750381E090E090937403D1
:101DE000809373030E94E70C8091730390917403B6
:101DF000892B19F480917203089580E0089582E799
:101E000091E0089508950895089586B11D9B02C03C
:101E1000806408958F7B08958AB188618AB95C983F
:101E20005B9A84B18F7C84B985B1806385B9389A17
:101E3000409A87B1817C87B988B18F6388B908954A
:101E4000EF92FF920F931F93CF93DF93EC01409A91
:101E500080E58A95F1F70E94050FE82E409890E4FE
:101E60009A95F1F70E94050FF82E409A80E58A9521
:101E7000F1F7409890E49A95F1F70E94050F082F2A
:101E8000409A80E58A95F1F7409890E49A95F1F7A9
:101E90000E94050F182F409A80E48A95F1F70E945E
:101EA000050F409890E59A95F1F7409AE094E88202
:101EB000F094F98280958A8300950B8310951C839A
:101EC000DF91CF911F910F91FF90EF90089540986F
:101ED00088E28A95F1F7419A98E29A95F1F786B1EE
:101EE000419898E29A95F1F726B1409A2C7394E0C4
:101EF000299F900111248C7386958695822B80955D
:101F00000895CF93DF93CDB7DEB728970FB6F89437
:101F1000DEBF0FBECDBF8091F7038B3379F43099CC
:101F200005C080912907826080932907319927C1D4
:101F30008091290781608093290721C1873009F0AA
:101F400057C081E01D9B03C08F5F8E3FD9F731E002
:101F50008E3F09F030E021E0813009F020E0232BB2
:101F600081E01D9B04C096B18E3F29F406C08F5FAF
:101F70008E3FB9F702C0813009F42F5F81E01D9BCD
:101F800004C08F5F8E3FD9F704C08E3F11F08130BF
:101F900019F4223009F4BEC086B191FD05C020912C
:101FA000290721602093290786958E71082E01FA52
:101FB00087F902FA86F903FA85F905FA83F906FA30
:101FC00082F907FA81F996959E71092E01FA97F91F
:101FD00002FA96F903FA95F905FA93F906FA92F9D5
:101FE00007FA91F982958F70892B80933307C7C0C8
:101FF000873111F08633B9F50E94670F982F9F70D3
:102000009F3079F496E39093F70320E028272F730D
:10201000282784FB23F985FB22F9209329070E94B6
:10202000670F2091290790E084FB95F985FB94F9CF
:1020300086FB90F987FB91F9922B9093290790E00A
:1020400080FB94F981FB93F982FB95F983FB92F96C
:102050009093340786B1813009F491C086B1813400
:1020600009F058C08CC0883109F044C0409A14B8B7
:10207000539A5B9A88B18FEF88B9399887EB9BE0C8
:102080000197F1F700C0000086B180958C7390E055
:1020900082FB95F983FB94F984FB93F985FB92F914
:1020A0009093340788E0E8E2F2E0DE0111960190B7
:1020B0000D928A95E1F7399A41985B98FE0138961E
:1020C000CE01419A419824E02A95F1F71D9906C066
:1020D000208130912907232B209329073197E81776
:1020E000F90779F7419A419884E08A95F1F71D9BA9
:1020F00046C010C08451823008F041C08AB1886166
:102100008AB95C985B9ACE0101960E94200F9A8151
:10211000913821F481E08093E50331C08981282F33
:10212000220F211D2877022E01FA27F902FA26F93B
:1021300003FA25F905FA23F906FA22F907FA21F933
:102140002093340720E081FB21F986FB27F9822FB9
:1021500095959172892B809329079091F70395317A
:1021600071F49B8120E092FB24F993FB22F994FB0C
:1021700023F995FB26F9922F982B909329072896FF
:102180000FB6F894DEBF0FBECDBFDF91CF9108959B
:10219000CF93DF9300D000D01F92CDB7DEB781E0A0
:1021A0001D9B04C08F5F8E3FD9F705C08DEF1D9931
:1021B00036C08150E1F786B1833429F483E088B9D1
:1021C00087B987E131C0CE0101960E94200F8A8134
:1021D0008D3C49F18D3829F48D818D3811F18D3B7D
:1021E00011F15B9887EB9BE00197F1F700C00000CD
:1021F000539A399A419814B813B89CE080E0419AF8
:10220000419824E02A95F1F71D9B8F5F9150B9F713
:102210008350893010F488E107C080E005C087E072
:1022200003C084E101C085E10F900F900F900F90E3
:102230000F90DF91CF9108958FE791E00895089571
:10224000089508951092970110927A0310927B03DB
:10225000109278038AB188618AB95C985B9A3A9A3D
:102260004298089587B190917E03892B87B987B1F1
:1022700090917F03892B87B990917D03292F209519
:102280008091800382238093800380918103892B36
:102290008093810388B190917F03892B88B998B18D
:1022A00080917E038095892388B9089581E0809389
:1022B0007F0382E080937E0380E280937D0383B17D
:1022C00080937C0385B18093810384B180938003E4
:1022D0003C9A449A3D9A45980E9432118091FA03A3
:1022E000811103C0A8950E94FA028DEE92E0019739
:1022F000F1F700C000008091FA03811103C0A89596
:102300000E94FA028DEE92E00197F1F700C0000002
:102310008091FA03811103C0A8950E94FA028DEE04
:1023200092E00197F1F700C000008091FA0381115B
:1023300003C0A8950E94FA028DEE92E00197F1F792
:1023400000C0000087B185B115B887EB9BE001970D
:10235000F1F700C0000085B18FEF85B920E180E082
:1023600038B190917F039095932398B998E09A950E
:10237000F1F798B130917F03932B98B998E09A9533
:10238000F1F793B130917D03932309F08F5F2150D2
:1023900039F7982F9D7F9C3021F481E080937B0357
:1023A00007C0813029F0823029F481E080937A03DC
:1023B00089E10895843089F3873009F43EC13C985F
:1023C000449A3D98459A80E280937F0380E1809310
:1023D0007E0388E080937D0386B180937C0388B17F
:1023E0008093810387B1809380030E943211449AC5
:1023F00090E020E038B180917F038095832388B9F5
:1024000086B130917D03832319F491310CF02F5F55
:1024100088B130917F03832B88B99F5F903251F749
:10242000243021F48AE18093F703089598B18091D4
:102430007E038095892388B988B190917E03892B8A
:1024400088B980E38A95F1F798B180917E038095F1
:10245000892388B988B1836088B987B18C7F87B9AF
:1024600087EB9BE00197F1F700C0000030E220E02D
:1024700080E096B140917D03942309F48F5F3099F9
:102480002F5F48B190917F039095942398B998E17C
:102490009A95F1F798B140917F03942B98B998E100
:1024A0009A95F1F7315029F796B1983219F4243002
:1024B00009F4C5C021502F3128F481E080937D03B9
:1024C0008EE10895883109F4BCC0803109F4BBC0A5
:1024D000813019F480937903B6C096B1993229F40A
:1024E00081E080937D038CE10895813509F4ADC0CE
:1024F0008D3009F4AAC0823109F4A7C088E0809326
:102500007F0382E080937D0386B180937C0388B152
:102510008093810387B1809380030E943211539A84
:102520005B983D9A459A97B180917D038095892368
:1025300087B988B190917D03892B88B93C98449ADA
:10254000259A2D98209A389A8091FA03811103C018
:10255000A8950E94FA028DEE92E00197F1F700C073
:1025600000008091FA03811103C0A8950E94FA022D
:102570008DEE92E00197F1F700C000008091FA0320
:10258000811103C0A8950E94FA028DEE92E0019796
:10259000F1F700C000008091FA03811103C0A895F3
:1025A0000E94FA028DEE92E00197F1F700C0000060
:1025B00087B185B115B887EB9BE00197F1F700C0B3
:1025C000000085B18FEF85B92D9A409A90E39A95D6
:1025D000F1F72D98409830E220E090E086B14091EC
:1025E0007D03842309F49F5F349B2F5F48B1809162
:1025F0007F038095842388B9289888E18A95F1F72C
:1026000088B140917F03842B88B9289A88E18A9504
:10261000F1F7315019F788EF890F823020F481E00B
:102620008093790314C0983191F021502F3188F4B0
:1026300080E180937D0385E3089585E2089584E237
:10264000089581E108958BE108958DE1089584E373
:10265000089580E008958091F703853219F089315B
:1026600009F0B8C18FEF80937C0380917B038823AE
:1026700011F198B180917F038095892388B928E072
:102680002A95F1F788B190917F03892B88B938E0BA
:102690003A95F1F798B180917F038095892388B9A5
:1026A00058E05A95F1F788B190917F03892B88B94A
:1026B00088E08A95F1F780917A03882389F098B1B0
:1026C00080917F038095892388B998E09A95F1F7E6
:1026D00088B190917F03892B88B928E02A95F1F77A
:1026E00028E091E0990F38B180917F038095832392
:1026F00088B938E03A95F1F783B130917D038323AF
:1027000009F0916088B130917F03832B88B958E03C
:102710005A95F1F7215031F738E081E0880F48B140
:1027200020917F032095242328B928E02A95F1F7EA
:1027300023B140917D03242309F0816028B14091A9
:102740007F03242B28B958E05A95F1F7315031F71F
:102750008F3F21F4209197012111B0C221E02093F5
:1027600097012091F703253209F00FC198E028B1B5
:1027700080917F038095822388B98CE08A95F1F758
:1027800083B188B120917F03822B88B928E02A95F4
:10279000F1F7915061F798E041E0440F28B1809142
:1027A0007F038095822388B938E03A95F1F783B1A9
:1027B00020917D03822309F0416088B120917F033D
:1027C000822B88B958E05A95F1F7915031F798B1BA
:1027D00080917F038095892388B988E08A95F1F7F5
:1027E00088B190917F03892B88B998E09A95F1F789
:1027F00098B180917F038095892388B928E02A9534
:10280000F1F788B190917F03892B88B938E03A9528
:10281000F1F798E031E0330F28B180917F03809584
:10282000822388B958E05A95F1F783B120917D034E
:10283000822309F0316088B120917F03822B88B90F
:1028400088E08A95F1F7915031F798E021E0220F66
:1028500058B180917F038095852388B958E05A95B7
:10286000F1F783B150917D03852309F0216088B190
:1028700050917F03852B88B988E08A95F1F79150B4
:1028800031F798B180917F038095892388B998E0CA
:102890009A95F1F788B190917F03892B88B958E018
:1028A0005A95F1F798B180917F038095892388B973
:1028B00088E08A95F1F788B190917F03892B88B9D8
:1028C00098E09A95F1F758E091E0990F68B18091FE
:1028D0007F038095862388B988E08A95F1F783B1D4
:1028E00060917D03862309F0916088B160917F0338
:1028F000862B88B988E08A95F1F7515031F768E066
:1029000081E0880F78B150917F035095572358B9D3
:1029100058E05A95F1F753B170917D03572309F0B0
:10292000816058B170917F03572B58B958E05A9580
:10293000F1F7615031F740932C0730932D07219523
:10294000220F220F22502093320720E080FB27F92C
:1029500081FB26F982FB24F983FB25F930E0382737
:102960003F7C382786FB33F987FB32F930933407F5
:1029700050E05927557F592790FB52F992FB50F9A7
:10298000952F922B909329078EC220912907322FE1
:1029900082FB30F983FB31F930932A0730E091FB59
:1029A00034F992FB35F993FB32F994FB33F9309308
:1029B000340790FF03C021602093290790912907D5
:1029C00098279F7C982786FB97F987FB91F990932E
:1029D000290769C295EE980F943048F0813139F09B
:1029E0009CEC980F923018F0843209F0D3C198B162
:1029F00080917D038095892388B98091F7039CECB1
:102A0000980F923068F4259A2D9A8CE28A95F1F706
:102A10002D98389A409A9CE29A95F1F7409807C011
:102A20008C3129F088B190917E03892B88B920E3FD
:102A30002A95F1F798B180917E038095892388B912
:102A40008091F703982F9D7F9C3111F0843269F4B7
:102A500088B1836088B987B18C7F87B958E040E03E
:102A600020E030E090E061E011C08533B9F7449A8E
:102A70003C98F4CF853369F5289888E18A95F1F779
:102A8000289A88E18A95F1F75150A9F1990F220F00
:102A9000440F330F8091F703843311F08D3129F403
:102AA00088B170917D03872B88B986B170917D03C1
:102AB000872311F4916031608091F7038432D1F65D
:102AC00086B181708627282B86B1869581708627EE
:102AD000482B78B180917F038095872388B988E15E
:102AE0008A95F1F788B170917F03872B88B982E1CD
:102AF0008A95F1F7C9CF8091F703843249F5211106
:102B000003C081E08093E50390E040FB96F943FB2E
:102B100095F945FB94F946FB90F947FB91F980E064
:102B200024FB87F926FB82F927FB83F9892B809305
:102B30002A0790E025FB93F930E041FB32F942FB94
:102B400031F944FB30F9432F492B40932B0708956B
:102B50009F3F69F48B3109F4B1C0813109F4AEC0F3
:102B6000843329F42091790321113BC0A7C08C3113
:102B700079F4319B05C080912907826080932907F1
:102B800030995CC08091290781608093290756C0E5
:102B90008E3111F0853329F590E890932D079093AD
:102BA0002C079091780394361CF49F5F90937803E0
:102BB00090917803943619F4332309F47FC0853358
:102BC00021F4399858E25A95F1F7319B03C01092DD
:102BD000290703C081E0809329073095309333079C
:102BE000089520E090FB25F991FB24F992FB23F94D
:102BF00093FB22F92093340720912A0730E022FB2F
:102C000035F923FB34F924FB33F925FB32F93093F2
:102C10002A0720E094FB25F995FB24F996FB20F97F
:102C200097FB21F920932907813109F43FC18433AF
:102C300029F480917903882309F438C180917903BC
:102C4000811102C068E001C068E130E040E020E0AE
:102C500080E0383014F4880F07C058EF530F583015
:102C600010F4220F01C0440F56B170917D03572319
:102C700059F4383014F4816007C058EF530F5830BE
:102C800010F4216001C0416078B150917F035095EC
:102C9000572358B958E15A95F1F758B170917F030D
:102CA000572B58B958E15A95F1F73F5F36178CF218
:102CB0003091F703811106C03D3121F481E080930A
:102CC000E50308953D3111F520E094FB25F995FBCE
:102CD00024F996FB22F997FB23F9922F20E082FB3F
:102CE00021F983FB20F984FB27F985FB26F9292BA1
:102CF0002093290790912A0730E086FB30F987FB63
:102D000031F9832F892B80932A07CDC03B31B1F451
:102D100050E094FB55F995FB54F996FB52F997FB5B
:102D200050F9952F50E084FB57F985FB56F986FB47
:102D300053F987FB51F9592B509329079091790347
:102D4000992309F4B0C0343311F0822F242F880F57
:102D5000811D082E01FA87F902FA86F903FA85F92E
:102D600005FA83F906FA82F907FA81F980932A07AE
:102D7000220F211D022E01FA26F902FA27F903FA81
:102D800025F905FA23F906FA22F907FA21F9209321
:102D90002B0789C08A3109F086C088B190917E03E3
:102DA000892B88B928E090912907990F90932907DA
:102DB00038B180917F038095832388B986B13091A3
:102DC0007D03832319F491609093290788B1909132
:102DD0007F03892B88B9215031F780912907082E6C
:102DE00000FA85F901FA84F902FA86F904FA82F9FF
:102DF00005FA80F906FA81F98093290782E090E0CC
:102E000021E030E058B140917F034095452348B917
:102E100046B150917D03452359F460913407A901CF
:102E2000082E01C0440F0A94EAF7642B609334071C
:102E300048B150917F03452B48B9019686309105E2
:102E400009F78091340790E082FB92F983FB95F9B2
:102E500084FB93F985FB94F99093340780E298B151
:102E600020917F03922798B98150C9F798B180913A
:102E70007F038095892388B980919701882341F049
:102E800086B190917D03892319F081E08093E50359
:102E900088B190917F03892B88B998B180917E0386
:102EA0008095892388B981E08093970108958BE804
:102EB00091E0089508950895089583EC87B98FE30C
:102EC00088B9089518B88FED9EE20197F1F700C018
:102ED000000086B18C3019F086B1883029F417B81B
:102EE0008FEF88B98AE3089588B1836088B99CE13F
:102EF0009A95F1F786B186958695883029F08630C7
:102F000019F0833019F4089588E0089580E0089559
:102F1000CF938091F7038A33C1F486B1809583FF04
:102F200005C09091290791609093290781FF05C002
:102F30009091290792609093290780FF4AC1809160
:102F4000290780628093290744C188B1836088B9CA
:102F50003CE13A95F1F786B1869586958695A6B1BE
:102F600041989CE19A95F1F7873021F481E08093B4
:102F7000E5032FC1813009F03EC0A695A695A8278C
:102F8000A17086B1809530E082FB35F983FB34F97E
:102F900084FB33F985FB32F93093340788B193E031
:102FA000892788B98CE18A95F1F786B1809590E000
:102FB00082FB95F983FB90F984FB97F985FB91F9E6
:102FC00088B18C7F88B93CE13A95F1F7B6B1B095FC
:102FD00080E0B3FB82F9B4FB83F9B5FB86F9B82F27
:102FE000B92B329BA26088B18C7F88B980E820E839
:102FF00040E860E8E2C088B18C7388B99CE19A959A
:10300000F1F738E23A95F1F7409A8CE18A95F1F7B9
:10301000C6B190E0C2FB93F9C3FB92F9C4FB91F9EE
:10302000C5FB90F9C92FCC0FF0E0E0E080E820E884
:1030300040E860E8A0E0B0E0FC170CF0B8C034E273
:103040003A95F1F7409B04C098B19C7398B901C0C0
:10305000409A94E29A95F1F7F1110EC096B19095CD
:1030600030E092FB35F993FB34F994FB33F995FB8F
:1030700032F93093340799C0F13061F496B19095EC
:1030800030E092FB35F993FB30F994FB37F995FB6F
:1030900031F90DC0F23069F4329BA26096B190957F
:1030A00030E093FB32F994FB33F995FB36F9B32BFF
:1030B0007CC0F33031F4329BA1609CE09A95F1F72B
:1030C00074C0F43009F454C0F530C1F466B16695AB
:1030D000669530E1639FB00111246E2B660F611D70
:1030E000062E01FA67F902FA66F903FA65F905FA9C
:1030F00063F906FA62F907FA61F957C0F630C1F1CF
:10310000F730C1F446B14695469590E1499FA0013C
:1031100011244E2B440F411D042E01FA47F902FAE7
:1031200046F903FA45F905FA43F906FA42F907FAAE
:1031300041F93BC0F830E1F0F930C1F426B12695F1
:10314000269590E1299F900111242E2B220F211DFD
:10315000022E01FA27F902FA26F903FA25F905FAEF
:1031600023F906FA22F907FA21F91FC0FA3021F4EF
:10317000E6B1E695E69519C0FB30B9F486B18695BF
:10318000869530E1839FC00111248E2B880F811D0D
:10319000082E01FA87F902FA86F903FA85F905FA89
:1031A00083F906FA82F907FA81F9FF5F45CF98B1F2
:1031B000936098B99CE19A95F1F760932C0740933E
:1031C0002D0780932E0720933107B0932907A093F2
:1031D0002A07CF91089588E991E008950895089508
:1031E000089581E080937C0083E880937A0017B88B
:1031F0008FEF88B914B885B90895DF92EF92FF92E6
:103200000F931F93CF93DF93D82EFB01D701E901D2
:1032100098818095982398839C9198239C93DA01B8
:103220009C9191609C9390819E7F9083CFE6D7E1A3
:103230002197F1F700C0000090819160908380E0B9
:10324000F80190819D2119F48F5F8E3FC9F7DF91BE
:10325000CF911F910F91FF90EF90DF900895EF9223
:10326000FF920F931F93CF938AB188618AB95C98BC
:103270005B9A83B18E3309F481C083B18B3309F437
:103280007FC025982D9A5B9887EB9BE00197F1F71B
:1032900000C0000083B18F3121F486B18F3709F46B
:1032A00071C053982598389A409887EB9BE0019716
:1032B000F1F700C000004B9902C01D9B57C017B822
:1032C0008FEF88B914B885B994E2E92EF12C03E2A6
:1032D00010E025E230E047E250E068E270E080E292
:1032E0000E94FD18C82F2AE2E22EF12C09E210E01C
:1032F0002BE230E047E250E068E270E088E00E94B4
:10330000FD18C250CC3F18F482508C3F88F1209AAF
:10331000289887EB9BE00197F1F700C000001C9B09
:1033200029C084E2E82EF12C03E210E025E230E02F
:1033300044E250E065E270E088E00E94FD1825E27A
:1033400030E044E250E065E270E088E00E94FD1861
:1033500090E00B978F3E910578F0549A5C98389ADC
:10336000409A53981092F70380E00DC08BE20BC097
:1033700089E209C081E307C086E005C089E303C094
:1033800088E301C084E0CF911F910F91FF90EF90EF
:103390000895EF92FF920F931F9317B88FEF88B99C
:1033A00014B885B98091F703811105C0549A5C98CF
:1033B000389A409A53988091F703877F813329F494
:1033C0008AB188618AB95C985B9A87EB9BE0019728
:1033D000F1F700C0000096B123B190958091F703FA
:1033E0008A3209F03FC0549A5C9853985B9A91FFD7
:1033F00005C08091340784608093340794FF05C032
:103400008091340788608093340793FF05C08091D2
:10341000340780618093340792FF05C080913407A0
:10342000806280933407809129074B9B02C08E7F76
:1034300001C08160809329072D982598389A40987B
:1034400087E99AE30197F1F700C00000409A80E015
:103450001D9902C08F5FFCCF982F990F990F88ECB0
:10346000891B7DC48C32B9F58AB1877E8AB98BB14C
:1034700088618BB93C9A449887EB9BE00197F1F700
:1034800000C0000080E880932D0780932C074B99A3
:1034900005C080913407846080933407329905C059
:1034A00080912907816080932907309905C0809118
:1034B0003407806180933407319905C080913407C7
:1034C0008062809334071D995CC4809134078860C2
:1034D0008093340756C48B3209F086C0389A409ADC
:1034E00087B1837C87B988B1837C88B98AB1877EAC
:1034F0008AB93D9A87EB9BE00197F1F700C0000085
:103500004B9905C080912A07816080932A071D99F5
:1035100005C080912A07826080932A07319905C0EF
:1035200080912A07846080932A073D9887E592E07E
:103530000197F1F700C000003C9A87EB9BE00197F0
:10354000F1F700C000004B9905C080912A07886000
:1035500080932A071D9905C080912A078061809376
:103560002A07319905C080912A07806280932A0733
:103570003C983B9A87EB9BE00197F1F700C0000075
:103580004B9905C080912A07806480932A071D9972
:1035900005C080912A07806880932A07319905C069
:1035A00080912B07816080932B073B983A9A8FE696
:1035B00097E10197F1F700C000004B9905C0809199
:1035C0002B07826080932B071D9905C080912B07E4
:1035D000846080932B07319905C080912B07886008
:1035E00080932B073A98CDC3863009F0FBC03E98F4
:1035F000259A2D9A3D9A4598209A289A2B98239A95
:103600008FE697E10197F1F700C00000239880E072
:103610001B9903C08F5F8E3FD9F790E0880F991FE9
:103620008F3F910519F010F08FEF90E080932D07F8
:1036300046983E9A8FE697E10197F1F700C00000A7
:103640003E9880E0369903C08F5F8E3FD9F790E0B7
:10365000880F991F8F3F910519F010F08FEF90E0C0
:1036600080932C078F3F39F480912D078F3F19F4F9
:1036700081E08093E50300000000000000000000EE
:10368000000017B814B88FEF85B988B98AB1877E62
:103690008AB98BB188618BB93B9A43983B980000FB
:1036A00000000000000000000000339B05C0809176
:1036B0002907816080932907399A41983998000039
:1036C00000000000000000000000319B05C0809158
:1036D00029078260809329073C9A449894E19A953F
:1036E000F1F7199905C080912A07826080932A0713
:1036F0001A9905C080912A07816080932A071C9936
:1037000005C0809129078061809329074C9905C0E5
:1037100080912A07846080932A073C98449A3A9AB9
:10372000429824E12A95F1F7199905C080912A075A
:10373000806180932A071A9905C080912A078860C2
:1037400080932A071C9905C0809129078062809385
:1037500029074C9905C080912A07806280932A0727
:103760003A98429A389A409884E18A95F1F71999E3
:1037700005C080912A07806880932A071A9905C09E
:1037800080912A07806480932A071C9905C0809144
:1037900029078460809329074C9905C080912B07E5
:1037A000816080932B073898409A539A5B9894E1F4
:1037B0009A95F1F7199905C080912B078260809343
:1037C0002B071A9905C080912B07886080932B07DF
:1037D0004C9905C080912B07846080932B075398E8
:1037E0005B9ACFC24091340730E092FB35F993FBEE
:1037F00034F994FB33F995FB32F9342B30933407C9
:10380000843019F5549A5C98389A409A5398539A90
:103810005B9828E22A95F1F726B120955B9A88E219
:103820008A95F1F796B19095892F822730912907D3
:10383000832B922396959170892B809329071D9B4A
:10384000A0C28160809329079CC2803309F0BDC06B
:1038500017B89FEF98B98AB1877E8AB98BB1886112
:103860008BB984B184B985B195B988E087B987EF00
:1038700088B998E29A95F1F7309905C0809134079C
:10388000806280933407319905C08091340780614C
:10389000809334074B9905C08091340788608093EA
:1038A000340780E187B98FEE88B928E22A95F1F7CD
:1038B000339905C08091340784608093340780E198
:1038C00087B98FEE88B988E28A95F1F7359905C0F6
:1038D000809129078160809329074C9905C08091C8
:1038E000290782608093290782E087B98DEF88B924
:1038F00098E29A95F1F7359905C080912B0784607D
:1039000080932B074C9905C080912A07806880938B
:103910002A07329905C080912A07806180932A077F
:103920001D9905C080912A07826080932A0781E053
:1039300087B98EEF88B928E22A95F1F7359905C045
:1039400080912B07886080932B074C9905C080914C
:103950002B07816080932B07329905C080912A073D
:10396000806280932A071D9905C080912A07846090
:1039700080932A0717B88FEF88B9539A5B9888E22B
:103980008A95F1F7359905C080912B078260809365
:103990002B074C9905C080912A07806480932A07E1
:1039A000329905C080912A07886080932A071D9963
:1039B00005C080912A07816080932A078AB1877E9B
:1039C0008AB98BB188618BB9DCC1813019F0823240
:1039D00009F0A8C08AB188618AB9319905C080917F
:1039E000290781608093290780EC87B98FE388B924
:1039F0005B985C9A90E29A95F1F7319905C08091B5
:103A0000290782608093290756B15695569521E083
:103A100030E0052E02C0220F331F0A94E2F740E087
:103A200080E090E0541302C0822B932B4F5F4F3005
:103A3000C9F720912907382F80E032FB82F934FB47
:103A400083F9822B8093290780912A0720E031FB9C
:103A500023F936FB22F937FB25F9282B892F90E033
:103A600080FB97F981FB94F984FB96F985FB91F92A
:103A700086FB90F9292B20932A0790912B0720E0B1
:103A800082FB21F983FB20F9822F892B90E033FB05
:103A900092F935FB93F9892B80932B075C985B9AFD
:103AA0008091F703813009F46CC13898409A2598C9
:103AB0002D9A24E02A95F1F7909183039093820345
:103AC00086B180958170809383031D9902C022E0A6
:103AD00001C020E0822B80938303981709F451C121
:103AE000933079F4813021F480912E07815F06C0F4
:103AF000823009F046C180912E078A5080932E07AC
:103B000040C1913031F4823079F3833009F039C10A
:103B1000F2CF923009F035C1833031F3813009F0B2
:103B200030C1E9CF91FF05C0309129073160309352
:103B300029072095813351F425FF05C0809129077D
:103B400084608093290790FFB9C010C0811114C010
:103B50003898409A8AB188618AB95C985B9A88E201
:103B60008A95F1F7309B02C025FFA8C080912907F4
:103B7000826080932907A2C025FF05C030912907E4
:103B800032603093290790FF05C090912907946017
:103B9000909329078853823008F090C088B18FEF46
:103BA00088B985B91092290710922A07309903C065
:103BB00084E080932907319905C0809129078160AD
:103BC000809329071C9905C08091290788608093FC
:103BD00029071D9905C080912907826080932907D4
:103BE0008091F703883379F5369903C081E080939B
:103BF0002A07199905C080912907806180932907B8
:103C0000189905C0809129078068809329071A991F
:103C100005C0809129078062809329078AB1877E39
:103C20008AB98BB188618BB94B9905C080912907FE
:103C30008064809329074C99A4C080912A078260F0
:103C400080932A079EC080912907982F81FF02C088
:103C5000946001C09B7F909329079091290782FF70
:103C600002C0926001C09D7F90932907369905C0DC
:103C700080912907806480932907199905C0809154
:103C800029078068809329071A9905C08091290720
:103C90008061809329071B9905C080912907806264
:103CA000809329078AB188618AB95C985B9A86B14A
:103CB00080932A0783B180932B0763C020FF05C040
:103CC0008091290788608093290721FF05C0809192
:103CD000290780648093290722FF05C08091290766
:103CE00080618093290723FF05C0809129078062A6
:103CF000809329078091F7038133A1F124FF09C044
:103D00008091290780688093290703C014B88FEF3A
:103D100085B98091F7038932A1F544E2E42EF12CB4
:103D200003E210E025E230E047E250E068E270E0B4
:103D300080E20E94FD188095833010F08093320756
:103D40003AE2E32EF12C09E210E02BE230E047E208
:103D500050E068E270E088E00E94FD188095809352
:103D600033070FC0189B0DC0209A289887EB9BE063
:103D70000197F1F700C000001C9BC8CF81E0809341
:103D8000E5031F910F91FF90EF90089584EA91E071
:103D9000089508950895089517B88FE388B914B861
:103DA0008FEF85B9089587B1836087B918B884E02B
:103DB0008A95F1F787B18C7F87B984E08A95F1F70E
:103DC00086B18370833011F48BE0089580E008950C
:103DD000EAE3F8E080E090E040E250E09A01082E4B
:103DE00002C0359527950A94E2F768B1A22FA095F5
:103DF0006A2368B967B1622B67B964E06A95F1F725
:103E000076B17370708363B168736695672B608356
:103E1000189B02C06062608338B1322B38B927B179
:103E20002A2327B90196319684309105B9F630914D
:103E30003A08832F837019F481E08093E50330956D
:103E400090E030FB94F940913B08842F809581707D
:103E5000982B80913C08809520E080FB21F9922BE3
:103E600020913D08522F509560E050FB67F951FBBF
:103E700065F9962B9093290750E033FB55F934FBF5
:103E800052F9409590E042FB97F943FB94F944FBCB
:103E900091F9952B50E082FB56F983FB53F984FB93
:103EA00050F9952B90932A0790E032FB90F950E05F
:103EB00085FB51F9852F892B60E035FB63F9862B53
:103EC00090E045FB92F9892B80932B0724FD04C0D9
:103ED00080913407806205C023FD05C080913407BE
:103EE00080618093340722FD04C08091340788608C
:103EF00005C025FD05C08091340784608093340798
:103F0000089580EB91E0089508950895089588B18B
:103F1000806388B908958091BC0087FFFCCF8091B1
:103F2000B900887F08959F92AF92BF92CF92DF929F
:103F3000EF92FF920F931F93CF93DF93B82E6B01F5
:103F4000942EA52E79016115710561F421153105B5
:103F500009F477C084EA8093BC000E948B1F8031F3
:103F600089F532C084EA8093BC000E948B1F8830A0
:103F700009F06AC08B2D880F8093BB0084E8809382
:103F8000BC000E948B1F883109F047C0C92DDA2D73
:103F9000CC0EDD1E24E8A22ECC15DD0559F089914A
:103FA0008093BB00A092BC000E948B1F8832A1F3BB
:103FB00023E038C0E114F10469F684E98093BC0081
:103FC00080E043C0883059F58B2D880F8160809345
:103FD000BB0084E88093BC000E948B1F803409F5ED
:103FE000E701219784E8F82E94ECE92ECF3FFFEF0C
:103FF000DF0719F3209719F0E092BC0002C0F0929D
:10400000BC000E948B1F2197877F8035B1F680917D
:10401000BB00F80181938F01E9CF22E003C024E0C7
:1040200001C025E090E0803A31F0883F81F088338C
:1040300021F484E803C084EA01C084E98093BC00D1
:1040400006C08FEF9FEF04C081E090E001C0822F97
:10405000DF91CF911F910F91FF90EF90DF90CF9064
:10406000BF90AF909F900895AF92BF92CF92DF9292
:10407000EF920F931F93CF93DF931F92CDB7DEB7CD
:1040800089835B016A01E12C00E010E020E030E070
:10409000AE014F5F5F4F61E070E082E50E94931FC9
:1040A000811117C08FEA94E00197F1F700C000007A
:1040B0008501960140E050E060E070E082E50E94FA
:1040C000931F811106C0EFEAF4E03197F1F700C0C9
:1040D00000000F90DF91CF911F910F91EF90DF9033
:1040E000CF90BF90AF900895EF920F931F93CF930F
:1040F000DF93CDB7DEB760970FB6F894DEBF0FBE83
:10410000CDBF84E38093B8008091B9008C7F809309
:10411000B9001091850311113FC080EF898385E5B7
:104120008A83E12C00E010E020E030E0AE014F5F38
:104130005F4F62E070E082E50E94931FEFEAF4E0D7
:104140003197F1F700C00000811137C18BEF8983EF
:104150001A8220E030E0AE014F5F5F4F62E070E016
:1041600082E50E94931FEFEAF4E03197F1F700C077
:104170000000811122C142E050E0BE016F5F7F4F1D
:104180008EEF0E943420811118C18A818093C8016A
:1041900081E08093850311C1113009F0EEC046E043
:1041A00050E0BE016F5F7F4F80E00E943420882383
:1041B00061F080918403811102C01093E50380EFC8
:1041C0008093C80110928503F8C0109284038091F7
:1041D000C801853009F4F1C030F4813009F44CC0D5
:1041E000833039F449C0813109F446C0803F09F475
:1041F000E4C0E9817A817095FE818B8124E0829F01
:10420000C00111248A5F91092F2F2C7030E0359561
:10421000279535952795822B932B96958795682F13
:104220004C8184E0489FA0011124CA018A5F910952
:104230002F2F207330E0A4E035952795AA95E1F75C
:10424000822B932B96958795282F4D8194E0499F3B
:10425000A0011124CA018A5F91093F2F329536953A
:1042600036953370832B969587959F2F90959170F7
:10427000F1FD8CC092608AC06981E62FEE0FEE0FCF
:104280009A81F4E09F9F90011124722F70958B8189
:10429000907C929596959770607C669566956695EC
:1042A000692B982F991F9927991F692B660F660F05
:1042B000660F282F220F220F220F2095AC813D81FF
:1042C000F32FF09590E0F1FB97F9F2FB95F9F4FBF1
:1042D00094F9F5FB96F9F92F5E81452F409590E012
:1042E00043FB93F944FB91F945FB92F946FB90F9A6
:1042F0009F2BF0E042FBF1F947FBF0F94F2F33FD24
:1043000005C0F0912B07F460F0932B0750FD05C01A
:10431000F0913407F460F093340737FD05C0F09155
:104320003407F062F093340751FD05C05091340713
:1043300050615093340736FD05C030913407386022
:1043400030933407E11106C07F3F21F420E860E894
:1043500070E8E0E83091E40331111BC03A2F330FCD
:10436000330F330F807686958695A295A695A77014
:104370008A2B880F880F880F0EC080E030E02FEF67
:104380006FEF40E090E070E8E0E805C030E040E02A
:1043900002C080E030E09093290740932A07E09321
:1043A0002C0770932D0760932F072093300780937D
:1043B0002E07309331071092BC0060960FB6F89428
:1043C000DEBF0FBECDBFDF91CF911F910F91EF9058
:1043D000089588B18C7F88B987B1836087B986B129
:1043E0008033D8F081E0809384030E94742010927F
:1043F000BC008091C801803F81F0882341F081306A
:1044000041F0833041F0813141F487E308958DE03C
:1044100008958FE1089580E2089580E008958CEB7F
:1044200091E0089508951092E1038FE284B98FEF2F
:1044300085B98FE78CBD80911707811103C08DE08E
:104440008093170780912507811103C08EE0809328
:1044500025078091E303811103C083E18093E30387
:104460008091F403811103C084E18093F4030895E3
:10447000843608F484E680939F0360939D03089537
:104480008FEF8093A00360939E0308958EBD0DB4BB
:1044900007FEFDCF8091FA03811102C00E94FA024B
:1044A0008BE291E00197F1F700C000008EB508950E
:1044B000CF93C3E029988BE291E00197F1F700C018
:1044C000000081E00E94462282E40E944622299A4E
:1044D000EBE2F1E03197F1F700C000009FEF980F99
:1044E0009E3F30F491E0909386039093E10308C0DF
:1044F000E7EBFBE03197F1F700C00000C150D1F6C7
:104500009CB59F7B9CBD9091E103911101C080E01F
:10451000CF910895CF9329988BE291E00197F1F71D
:1045200000C0000081E00E94462285E40E944622ED
:1045300080E00E9446228AE50E944622C5E08AE584
:104540000E944622C150D9F7299A8BE291E0019747
:10455000F1F700C00000CF910895CF93C82F29989C
:104560008BE291E00197F1F700C0000081E00E942A
:10457000462283E40E94462280E00E9446228C2F3D
:104580000E94462280E00E944622CC2349F0299ACC
:104590008BE291E00197F1F700C00000CF91089500
:1045A0008AE50E9446228AE50E9446228AE50E9408
:1045B00046228AE50E944622EACFFF920F931F937C
:1045C000CF93DF93CDB7DEB7DA950FB6F894DEBFA1
:1045D0000FBECDBF2B9A239A8CB580648CBD8BE225
:1045E00091E00197F1F700C000008091F103299854
:1045F000882309F440C0EBE2F1E03197F1F700C005
:104600000000809126078983F12C80912607F816F7
:1046100088F40F2D10E0F801EB5EF94F80810E94C5
:104620004622E2E0F0E0EC0FFD1FE00FF11F808377
:10463000F394EBCF10E0809126071817A8F4812F90
:1046400090E0FC01EB5EF94FA1E0B0E0AC0FBD1FC4
:10465000A80FB91F8C9180838091FA03811102C049
:104660000E94FA021F5FE7CF1092F10381E080936E
:10467000F603299AE9C18BE291E00197F1F700C0B6
:1046800000008091A003882381F080919E039FEF1A
:10469000980F9E3F18F490939E0309C08F3F39F006
:1046A00010929E031092A00302C010929E0380916C
:1046B0009F03882381F080919D039FEF980F9E3F79
:1046C00018F490939D0309C08F3F39F010929D0319
:1046D00010929F0302C010929D0381E00E94462227
:1046E00082E40E9446228093890380E00E94462251
:1046F000182F8091A0030E94462280938B03809103
:104700009F030E94462280938C039091890380919D
:10471000F703981741F081E0913419F080938603F4
:1047200002C08093E4039093F7031F3F29F4299A72
:1047300081E08093E50388C1933E21F48FE7809365
:10474000F7033AC0933221F481E08093870334C0A9
:10475000913431F481E080938E0380938D032CC0DB
:10476000993769F40DE813E080E00E944622F801D1
:1047700081938F01F3E00D391F07B1F71DC080E071
:104780000E94462280938D0380E00E9446228093FF
:104790008E0380E00E94462280938F038091F7036E
:1047A000833529F480E00E944622809503C080E092
:1047B0000E94462280939003299A80918603882341
:1047C00009F4B0C08CEF92E00197F1F700C000004F
:1047D000109286038091F703813409F45BC081E075
:1047E0000E94AD222998EBE2F1E03197F1F700C089
:1047F000000081E00E9446228DE40E94462280E073
:104800000E94462280E00E94462281E00E944622C9
:104810008FEF0E9446228FEF0E9446228FEF0E9468
:1048200046228FEF0E944622299A8BE291E001975F
:10483000F1F700C000002998EBE2F1E03197F1F7C1
:1048400000C0000081E00E9446228FE40E944622C0
:1048500080E00E9446228FEF0E9446228FEF0E9446
:10486000462283E00E94462280E00E94462280E0A9
:104870000E94462280E00E944622299A8BE291E023
:104880000197F1F700C000000E948A2280E00E9498
:10489000AD2248C081E00E94AD220E948A22299860
:1048A000EBE2F1E03197F1F700C0000081E00E94F7
:1048B000462284E40E94462280E00E94462281E053
:1048C0000E94462280E00E94462280E00E9446220A
:1048D00080E00E94462280E00E94462280E00E9402
:1048E0004622299A8BE291E00197F1F700C000007F
:1048F00080E00E94AD222998EBE2F1E03197F1F7D8
:1049000000C0000081E00E94462282E40E9446220C
:10491000299AEBE2F1E03197F1F700C00000813411
:1049200009F05DCF90918C039095392F329580E0FE
:1049300083278D73832730FB83F932FB80F933FBA8
:1049400082F9382F80918B03809520E080FB24F939
:1049500083FB25F9232B20932907937020E081FB0B
:1049600026F982FB27F9292B20932A0790913407F7
:10497000E0E084FBE2F985FBE5F986FBE3F987FBE0
:10498000E4F98E2F892B8093340720918D03309189
:104990008E03832F90E0820F911D029709F454C07B
:1049A00020932F073093300790918F0390932C071B
:1049B0008091900380932D07E1E9F3E0A8E1B7E04F
:1049C00041914D9343E0ED39F407D1F7E09117079A
:1049D000E53131F0F0E0E857FC4F40814093320779
:1049E000E0912507E53131F0F0E0E857FC4F4081D8
:1049F00040933307E091E303E53131F0F0E0E8570D
:104A0000FC4F408140932E07E091F403E53131F0F3
:104A1000F0E0E857FC4F4081409331074091870315
:104A2000413079F430932E07909331078093330708
:104A300020932C0780E880932F0780932D07809385
:104A400030078CB58F7B8CBDD3950FB6F894DEBF45
:104A50000FBECDBFDF91CF911F910F91FF900895B1
:104A600089EC91E0089528E030E040E89FE26FE0B3
:104A70007FE3592F5095E42FE82398B9EE2319F0DE
:104A800078B958B901C068B9952F469521503109B8
:104A90002115310571F70895CF92DF92EF92FF92C1
:104AA0000F931F93CF93DF931F92CDB7DEB78C0187
:104AB000F12CE12CF61684F46801CF0CD11CF7FC24
:104AC000DA94F601808169830E943325F6018081A2
:104AD000E826F3946981EECF8E2D0F90DF91CF9170
:104AE0001F910F91FF90EF90DF90CF9008958FE38B
:104AF00087B988B98FE188B988E020E198B1922719
:104B000098B98150D9F78FE388B908958FE387B9B1
:104B100088B98FE288B984E020E298B1922798B9E9
:104B20008150D9F78FE388B908950E94772568E00E
:104B300089ED91E00E944C250E9433250C94862536
:104B40008091A303882311F080E1089580E0089507
:104B50006093A40308956093A40308951F93CF93D3
:104B6000DF93182FC42F4F3F19F0411101C0C1E04E
:104B7000D62FD295D695D77009F4D1E0D295D07FB3
:104B8000D068CF3F09F4C1E00E94772582E00E94FF
:104B9000332580E00E943325812F0E9433258EE04B
:104BA0000E94332580E00E94332581E00E94332556
:104BB00080E00E94332580E00E9433258C2F0E94E4
:104BC000332582E30E9433258D2F0E94332580E117
:104BD0000E9433258FE281278D278C270E94332561
:104BE0000E94862583E893E00197F1F700C000005A
:104BF000DF91CF911F9108951092E90380E388B966
:104C00001092A30381E08093A2031092A1030E945B
:104C1000772564E085ED91E00E944C250E943325C4
:104C20000E94862587EB9BE00197F1F700C000000A
:104C30008FEF87B90E949525E8988FEC87B980E3BC
:104C400088B982E08093680080E180936C008EECEC
:104C500090E00197F1F700C00000109268001092F8
:104C60006C00E89A8FEF87B98091E903882329F0D7
:104C700081E08093A3038093F9038FEF87B91092AB
:104C80006C000895109268001092E9038FEF87B9C5
:104C9000E8980E94952580E388B98FEC87B982E077
:104CA0008093680080E180936C008EEC90E0019727
:104CB000F1F700C000001092680010926C00109292
:104CC0006C00E89A2091E903211108C081E08093EB
:104CD000E5031092A1038FEF87B908958FEF87B98D
:104CE0005091E7034091E8038091EA03382F309513
:104CF00090E030FB97F931FB91F932FB90F933FBEF
:104D000095F9392F922F909560E090FB66F991FB11
:104D100063F992FB62F993FB64F9962F932B9093BE
:104D2000290794FF03C033E23093F7033091F70370
:104D3000333251F42095322F3295337030932A0755
:104D4000207C292B20932907209129075B3F10F015
:104D500090E401C090E0292B4B3F10F090E801C097
:104D600090E0922B909329078095859585958C737B
:104D70008093340750932E07409331078091ED03C1
:104D800080932D078091EE0380932C0708950F9355
:104D90001F93CF93DF938091F1038823E1F00E946A
:104DA00077256091260785E196E00E944C250E94B8
:104DB00033250E94862540E051E061E070E085E106
:104DC00096E00E94F93380E4809315068FEF80937C
:104DD00016061092F1038091A4038230A8F08F3F51
:104DE00019F081508093A4038091A10380FF05C036
:104DF0004FEF6FEF81E00E94AE258091A10381FF0C
:104E000047C04FEF6FEF13C08130A9F41092A40395
:104E10008091A10380FF05C040E060E081E00E9436
:104E2000AE258091A10381FF33C040E060E082E0C5
:104E30000E94AE252DC0C091A2030E94772580E07C
:104E40000E94332580E00E9433258C2F0E94332559
:104E500081E00E94332581E08C270E9433250E9447
:104E6000862580E388B98FEC87B994E286B1807398
:104E7000803309F059C028E22A95F1F79150B1F733
:104E8000C0958091A1038C238093A1038FEF87B9F4
:104E90008091F9038130C1F58091A2038130A1F5A1
:104EA0008091A10380FF30C08FE697E10197F1F771
:104EB00000C000001092F9030E9477256CE081EE9B
:104EC00091E00E944C25182FC0E0D0E0CE0123E0F5
:104ED000822780569F4F0E940034082F0E9433255E
:104EE00010272196C03CD10589F7812F0E943325D8
:104EF0000E94862580E388B98FEC87B987E592E028
:104F00000197F1F700C000008091A203813011F4F5
:104F100082E001C081E08093A2038FEF87B9DF9127
:104F2000CF911F910F9108959CE29A95F1F784E239
:104F300096B19073903331F498E09A95F1F78150DF
:104F4000B9F7A4CF8091A103282F30E04C2F55272B
:104F500047FD5095242335232417350709F496CFB0
:104F6000C82BC093A1038AE08093A4038FCF8DEE5A
:104F700091E0089508956093A603909105029530FD
:104F800069F0992359F0882321F0933039F082E0B9
:104F900003C0913019F084E08093050208950C94C9
:104FA000BB27FF920F931F93CF93DF93CDB7DEB74D
:104FB000A6970FB6F894DEBF0FBECDBF8091F10368
:104FC000882309F463C06091260770E020E0822FF7
:104FD000992787FD9095861797076CF4E1E0F0E03C
:104FE000EC0FFD1FE80FF91FDC01AB5EB94F8C9190
:104FF00080832F5FECCFCE0101960E940E0C21E042
:1050000031E0E5E1F6E0DF01A9011D924150504099
:10501000E1F7869586958695682F70E090E000E828
:1050200010E0292F332727FD30952617370734F551
:10503000A901E3E0440F551FEA95E1F7D901AA5E03
:10504000B94FFC9020E030E0F901E40FF51FEA5C75
:10505000F84FE081EE2341F0F801022E02C0F595F1
:10506000E7950A94E2F701C0E0E0FE2A2F5F3F4F88
:105070002830310549F7FC929F5FD3CF8093150606
:105080001092F10381E08093F6030EC1198261E072
:1050900070E0CE0101960E940E0C811104C081E0E7
:1050A0008093E50301C191E09093A503883111F04D
:1050B0001092050280914D07882331F080910502FE
:1050C000853011F41092050280914D07811103C0C3
:1050D00085E0809305028091A6038F3F69F08823C5
:1050E00021F081508093A60307C080910502833090
:1050F00019F484E080930502809105028230F1F07A
:105100008430D1F1811151C083E0898380E88A83A2
:1051100081E08B8342E250E060E870E0CE010496CB
:105120000E94F93363E270E0CE0101960E940E0CFA
:105130008823D9F184E08093050237C013E01983F6
:1051400080EC8A838BE18B8340E250E061E070E089
:10515000CE0104960E94F93363E270E0CE0101961D
:105160000E940E0C8111109305028BE291E00197D1
:10517000F1F700C0000019C083E0898380EC8A83C6
:105180008BE18B83FE01349680E2DF011D928A95CC
:10519000E9F763E270E0CE0101960E940E0C8823CD
:1051A00021F381E080930502E0CF81E0898361E013
:1051B00070E0CE0101960E940E0C803209F074C09E
:1051C0003091290720912A0780E090E0FC01EA5CF9
:1051D000F84F4081442351F0FC01E05CFD4F4081D9
:1051E000FC01E05DFD4F5081252B342B0196803171
:1051F000910561F73093290720932A0780913A0798
:10520000882329F08091340784608093340780914B
:105210003B07882329F08091340788608093340706
:1052200080913D07882329F0809134078062809324
:10523000340780913C07882329F0809134078061EE
:105240008093340780E090E0A0E0B0E020E830E018
:10525000482FFC01EA5BF84F5081552341F0B9011A
:10526000082E02C0759567950A94E2F701C060E0C8
:10527000B62BFC01E25BF84F5081552341F0B90198
:1052800002C0759567954A95E2F7AB0101C040E011
:10529000A42B019688309105D9F6B058B0932C070D
:1052A0008FE78A1B80932D07A6960FB6F894DEBF72
:1052B0000FBECDBFDF91CF911F910F91FF90089549
:1052C0000E94D1278091A503882319F08091F703CC
:1052D000089580E008951092A5031092A6030C94FF
:1052E0000B0C89EF91E008950895089517B88FE3A6
:1052F00088B908958FE188B982EC90E00197F1F7C1
:1053000000C000008FE388B908958FE387B98FE16B
:1053100088B987EE98E00197F1F700C00000089582
:105320008FE188B984E78A95F1F78FE388B981ED39
:1053300090E00197F1F700C000008FE188B908956F
:1053400027E030E090E06FE37FE144E84A95F1F731
:10535000AC01022E02C0559547950A94E2F740FF32
:1053600008C068B9E2ECF0E03197F1F700C0000046
:1053700007C0F8E7FA95F1F768B94CE84A95F1F7F4
:1053800078B92150310908F70895CF93C82F0E94AA
:1053900085290E9490298C2F8C630E94A0290E944D
:1053A0007A2917B89EEF84E08A95F1F735996CC099
:1053B000ECEAEA95F1F728E030E040E050E0BA018D
:1053C00080E8EBE2F1E03197F1F700C00000359999
:1053D000482B8695215031092115310591F7762FFB
:1053E000652F542F442728E030E080E8EBE2F1E01D
:1053F0003197F1F700C000003599482B8695215070
:1054000031092115310591F7762F652F542F442747
:10541000C11135C088E090E020E8203829F4EDE0A3
:10542000F1E03197F1F704C0EBE2F1E03197F1F7E9
:1054300000C000003599422B000026950197009787
:1054400061F7B62FA52F942F8827EFEAF4E0319764
:10545000F1F700C0000024E030E048E0EBE2F1E0CA
:105460003197F1F700C000003599842B4695215003
:1054700031092115310591F7BC01CD010BC09927E8
:1054800077FD9095892F06C0915009F08CCF60E090
:1054900070E0CB01CF9108958F929F92AF92BF920F
:1054A000CF92DF92EF92FF920F931F9380E00E94C2
:1054B000C529872E982EA92EBB24A7FCBA94882034
:1054C00009F45EC0092F332707FD3095132F232FD2
:1054D000402F441F4427441F53E0541B452F6C01A9
:1054E000FF24D7FCF094EF2CC7FC4D7F5C2DC6FE4B
:1054F00004C050955F77519501C05F7706FF04C0E7
:1055000000950F77019501C00F7720E8250F2093B4
:105510002C07005800932D071092A90320E8209330
:105520001302209312028094609580E082FA82F93F
:1055300083FA84F984FA85F985FA83F98093A803BC
:1055400080E080FA83F981FA82F986FA80F987FA95
:1055500081F990E4499F40011124882960FD806110
:105560008093A70361FF05C08091A90384608093A5
:10557000A90362FF05C08091A70380628093A703FF
:105580008091A703809329078091A8038093340713
:105590008091A90380932A071F910F91FF90EF90AC
:1055A000DF90CF90BF90AF909F908F90089583E051
:1055B0000E94C529672B682B692B11F08AE008959A
:1055C0000895E89883E00E94C529672B682B692B12
:1055D00021F481E08093E50323C0E89A8BED95E008
:1055E0000197F1F700C00000E8980E9485290E9409
:1055F00090298BE30E94A0290E947A2987E592E0F6
:105600000197F1F700C000000E94902983E60E94F4
:10561000A02986E40E94A0290E947A2917B8449AFA
:10562000E89A089586E092E008950895089508950F
:1056300017B814B88FE388B98FEF85B908953199F9
:1056400002C08EE0089580E0089524B1217C24B941
:1056500025B12E6325B918B817B82FE328B9539A86
:105660005B9854985C9AE7EBFBE03197F1F700C048
:10567000000026B11D9B2D7F20952F73233350F4FE
:1056800030E0F901E350FD4F4081F901E653FD4F51
:10569000208102C020E040E0FC014083FB01208328
:1056A00008950F931F93CF93DF9300D000D0CDB711
:1056B000DEB7BE016F5F7F4FCE0102960E94252BA1
:1056C000539A5B9854985C9A83E087B98CE388B9C5
:1056D00088E384B987EC85B987EB9BE00197F1F704
:1056E00000C0000026B125FB222720F981E02827F1
:1056F000349B2260339B24604C9B28608CE387B9E9
:1057000083E088B984B1877C84B985B1886385B921
:1057100087EB9BE00197F1F700C0000086B186950A
:10572000817091E08927309B82604C9B846030E1DE
:10573000839FC0011124822B40978D33910540F443
:10574000FC01EE0FFF1FE05BFD4F0081118102C0E5
:1057500000E010E08FE388B987B18C7F87B987EBD1
:105760009BE00197F1F700C0000086B18E3309F489
:10577000106286B18D3309F4106486B18C3309F45C
:105780001068C801887F892B21F08091AA038C833F
:1057900015C0BE016D5F7F4FCE0104960E94252B80
:1057A0008C819A81891721F08091AA038C8302C091
:1057B0008093AA038B819981891721F08091A90395
:1057C0008B8302C08093A9039C818FE3989F902DC7
:1057D0001124905890932C079B81989F802D112421
:1057E000805880932D07C801892F99278295869527
:1057F0008770809329071F7100932A0710932B0746
:105800000F900F900F900F90DF91CF911F910F91FC
:10581000089584E192E00895A82FB92F80E090E0E8
:1058200041E050EA609530E009C02D9182279795BC
:10583000879510F084279527305EC8F36F5FA8F333
:105840000895EADF8D939D930895CF93CFB7CF93BB
:10585000C395489BE9F7489B09C0489B07C0489BF4
:1058600005C0489B03C0489B01C0A6C0DF93C09100
:10587000C403DD27C553DC4F489B02C0DF91EBCF4B
:105880002F930F931F9309B12FEF00FB20F94F9334
:105890003F9319B14FEF012700FB21F93BE031C0E5
:1058A0004E7F012F19B1216028C0102F4D7F22603B
:1058B000000009B129C04B7F2460012F000019B1FD
:1058C0002BC019B1477F28602AC04F7E09B12061E3
:1058D0002CC04F7D19B120622FC04F7B09B12064CD
:1058E00032C0422709B149934FEF0000102710FB47
:1058F00020F919B11570C9F1297F91F2012700FB38
:1059000021F909B1237F89F2315058F1102710FB9A
:1059100022F919B1277E79F2012700FB23F92F7CA8
:1059200081F209B1102710FB24F92F7971F200C020
:1059300019B1012700FB25F92F7359F200C009B1F5
:10594000102710FB26F9223040F200C019B10127C0
:1059500000FB27F9243028F64F77206819B10000A2
:10596000F9CF11E01CBB00271CC03B503195C31B75
:10597000D04011E01CBB0881033C11F10B3401F154
:105980002091C2031981110F1213EDCF4A81441FD8
:10599000093659F10D3211F0013E29F74F7009F027
:1059A000042F0093C9033F914F911F910F912F91A5
:1059B000DF91CCB3C0FD4CCFCF91CFBFCF91189525
:1059C0002091C903222379F31091C703112369F5AC
:1059D00034306AF13093C7032093C3031091C4039A
:1059E0003BE0311B3093C40322C00091C703013058
:1059F000E4F40AE54F7049F43091020134FD19C016
:105A000000930201CBEAD3E018C03091B60334FD15
:105A100010C00093B603C7EBD3E00FC02795A8F4DE
:105A20005150A9F4220F0000F9CF4AE503C042ED1E
:105A300001C0432FC4E1D0E032E01AB11560589A9A
:105A40001AB90BB120E415E05F93012756E00BB9BA
:105A5000279520F4515021F4220FF9CF012756E069
:105A600000003B5A0BB9D0F2279528F4515029F485
:105A7000220F0000F9CF012756E027950BB920F43B
:105A8000515021F4220FF9CF012756E029913323F9
:105A90000BB921F60A7F1091C803110FC651D040EF
:105AA0000BB911F01093C20311E01CBB01601AB1D5
:105AB0001A7F402F4A7F5F9100C000C00BB91AB90E
:105AC0004BB971CF3599189590E0909368009093F9
:105AD0006C00359BF7CF0F920FB60F922F933F9329
